:100000000C9438010C9460010C9460010C94600114
:100010000C9460010C9460010C9460010C946001DC
:100020000C9460010C9460010C94A5130C9437128D
:100030000C9460010C9460010C9460010C946001BC
:100040000C9460010C9460010C9460010C946001AC
:100050000C9462010C9460010C9460010C94390DB5
:100060000C9460010C9460010C9460010C9460018C
:100070000C9460010C9460010C9460010C9460017C
:100080000C9460010C9460010C9460010C9460016C
:100090000C9460010C9460010C9460010C9460015C
:1000A0000C9460010C9460010C946001700774075B
:1000B0007B0783078B0793079B07E107A607AF071B
:1000C000B807C1070F08CA07D307DA07F307F20911
:1000D0003A0A1C0A280A350A350A350A350A350A49
:1000E000350A350A350AE7093A0A350A350A350A62
:1000F000350A350A3A0A350A350A350A350A350A03
:10010000350A350A350A350A350A350A350ADB0952
:100110003A0AC509300A3A0A350A350A9309350AF6
:10012000350A350A350AD3093A0A350A3A0A350A30
:10013000C109E5093A0AFD09A309E3094E0E510E6A
:10014000400E440E4A0E720E720E720E550E590E6D
:100150005D0E630E670E720E6D0E00000002000948
:100160000F0000030401000C00000000000000006C
:1001700000000000000000000004080201104080A0
:10018000401020408040800802040180402010027E
:1001900001108010204040200404040404030405DE
:1001A0000202020204030202020206060606060614
:1001B0000404020202040400000000250028002BB1
:1001C000002E00310000000000240027002A002D2E
:1001D000003000080B0002020201000904000001C7
:1001E000020200000524001001052401010104247D
:1001F00002060524060001070581031000400904DA
:100200000100020A00000007050202400000070585
:10021000830240000012010002EF02014041233638
:1002200080000101020301120100020000004041B0
:1002300023368000010102030141726475696E6F0B
:10024000204C4C430041726475696E6F204C656FA1
:100250006E6172646F00040309046364696E6F70F9
:10026000737578585B006A02C2068508200DD90FA5
:1002700011241FBECFEFDAE0DEBFCDBF11E0A0E05A
:10028000B1E0E8EBF9E302C005900D92A237B107A7
:10029000D9F724E0A2E7B1E001C01D92A231B20774
:1002A000E1F712E0C0E7D2E004C02297FE010E940D
:1002B0007E16C636D107C9F70E9446140C94DA1C84
:1002C0000C9400001F920F920FB60F9211242F93DF
:1002D0003F934F935F936F937F938F939F93AF93CE
:1002E000BF93EF93FF93E0917501F091760109952B
:1002F000FF91EF91BF91AF919F918F917F916F91FE
:100300005F914F913F912F910F900FBE0F901F90D3
:10031000189587E791E00C941E054F925F926F92BB
:100320007F928F929F92AF92BF92CF92DF92EF9285
:10033000FF920F931F93CF93DF93CDB7DEB728972C
:100340000FB6F894DEBF0FBECDBF40E051EE6FEFA9
:100350007FEF8AEA93E00E94D30F539A579A529AFA
:10036000259A569A3F9A809A819A8898899A03E8A2
:1003700012E01093BA010093B90187E7E82E81E0FB
:10038000F82EF092B801E092B70187EB91E00E945D
:100390005D081093800200937F02D801ED92FC92D9
:1003A000BE016F5F7F4F84E090E00E94650389810A
:1003B0009A81AB81BC818D839E83AF83B887BE0158
:1003C0006F5F7F4F80E090E00E94650349805A8014
:1003D0006B807C80BE016F5F7F4F82E190E00E9466
:1003E0006503C980DA80EB80FC80BE016F5F7F4FC0
:1003F00086E190E00E94650389809A80AB80BC8092
:100400004D815E816F81788587E791E00E94990434
:10041000B301A20187E791E00E949204B501A40113
:1004200087E791E00E94A704B701A60187E791E062
:100430000E94A00464E670E087E791E00E948D04CA
:1004400064E670E087E791E00E948804E1E8F0E06C
:1004500080E1808310928000A6E8B0E082E19AE714
:1004600011969C938E9384E1808321E02093720106
:1004700080E395E0909374018093730111969C93AF
:100480008E9381E1808389E891E090937601809357
:10049000750120936F0028960FB6F894DEBF0FBE4B
:1004A000CDBFDF91CF911F910F91FF90EF90DF9023
:1004B000CF90BF90AF909F908F907F906F905F9004
:1004C0004F90089587EB91E00E941C088FE792E01F
:1004D0000C947A0280E090E8A0E0B0E080938D0375
:1004E00090938E03A0938F03B093900387E791E0DE
:1004F0000C948E038F929F92AF92BF92CF92DF9215
:10050000EF92FF920F931F93CF93DF93EC018AEA50
:1005100093E00E940C0F1816190664F48AEA93E01F
:100520000E941C0F682F888199810E94740A1B8287
:100530001A82EDCF888199810E94670A6B017C0144
:100540008701E114F10451F18A819B81892B31F5F6
:1005500083E0882E912CA12CB12CE091AA03F0917C
:10056000AB03B5016C0D7D1D0280F381E02DA80168
:100570008AEA93E00995A80EB91E081B190B1016FC
:1005800011063CF0AB2851F481E090E09B838A8314
:1005900005C081E0881A910801F7F4CFDF91CF916F
:1005A0001F910F91FF90EF90DF90CF90BF90AF9091
:1005B0009F908F900895CF92DF92EF92FF920F93CA
:1005C0001F93CF93DF937C016A01811524E092078A
:1005D000B0F4840F951F8115944088F4EB0100E07E
:1005E00010E00C151D054CF46991C8018E0D9F1D7E
:1005F0000E948A1B0F5F1F4FF4CF81E001C080E093
:10060000DF91CF911F910F91FF90EF90DF90CF90EE
:100610000895CF92DF92EF92FF920F931F93CF93A3
:10062000DF938B017A01811524E09207C8F49C01C5
:10063000240F351F2115344098F4EB016C01C61AC4
:10064000D70ACE01801B910B8E159F053CF4C60185
:100650008C0F9D1F0E94821B8993F3CF81E001C004
:1006600080E0DF91CF911F910F91FF90EF90DF908D
:10067000CF900895CF93DF9300D000D0CDB7DEB7F1
:1006800049835A836B837C8344E050E0BE016F5FF3
:100690007F4F0E94DB020F900F900F900F90DF9121
:1006A000CF910895CF93DF9300D0CDB7DEB77A8393
:1006B000698342E050E0BE016F5F7F4F0E94DB0222
:1006C0000F900F90DF91CF91089544E050E00C948B
:1006D000090342E050E00C9409035E9A5E98089585
:1006E000479A0895479808955B9808955B9A0895EE
:1006F0008130910569F01CF4892B69F008958230EE
:10070000910521F0039749F45A9803C05A9804C000
:100710005A9A2D9808955A9A2D9A0895FC0181E0CD
:1007200080831282118213821482158216821782AC
:100730001086118612861386148615861686178AE9
:10074000108E118E128E178E10A211A212A217A255
:1007500010A611A612A613A614A615A616A617A6CD
:1007600010AA11AA12AA13AA14AA15AA16AA41E03D
:1007700050E060E070E047AB50AF61AF72AF13AED6
:100780000E94740380E090E00C947803EF92FF9253
:100790000F931F93CF93DF9300D000D0CDB7DEB778
:1007A0007C01FC0107A510A921A932A94017510716
:1007B0006207730799F017AA10AE11AE12AE498303
:1007C0005A836B837C830E947603F70113AA14AAD1
:1007D00015AA16AA7C816B815A814981F70147A726
:1007E00050AB61AB72AB0F900F900F900F90DF91F9
:1007F000CF911F910F91FF90EF9008950F931F934A
:10080000CF93DF93EC0189819A81029729F42BA180
:100810003CA14DA15EA104C02B813C814D815E8134
:10082000ACADBDAD0E948D160E9428152AE037EDB3
:1008300043E25CE30E94B4150E94F51416161706F5
:100840001806190624F061E070E080E090E0009165
:100850009103109192032091930330919403AB0183
:10086000BC01041715072607370714F4B901A801BE
:100870004F83588769877A87DF91CF911F910F91B6
:100880000895CF93DF93EC0189819A81AEADBFAD1E
:10089000029729F42B893C894D895E8904C02F85F4
:1008A000388949895A890E948D160E9428152AE0A4
:1008B00037ED43E25CE30E94B4150E94F5149B01FE
:1008C0006B873C878D879E87AB01BC01141615068C
:1008D0001606170624F041E050E060E070E04B8718
:1008E0005C876D877E874B855C856D857E85BA01CB
:1008F000552744279FE075956795579547959A9595
:10090000D1F74F8B588F698F7A8FDF91CF910895F0
:10091000FC0175AF64AF0C94FE03FC0177AF66AFCA
:100920000C944104FC0143835483658376830C94C7
:10093000FE03FC014787508B618B728B0C94410442
:10094000FC0143A354A365A376A30C94FE03FC010E
:10095000438B548B658B768B0C944104FC01638133
:100960007481858196810895FC01678570898189EC
:1009700092890895FC0163A174A185A196A10895AF
:10098000FC0163897489858996890895FC01678DC6
:1009900070A181A192A19B01AC010E94171666274C
:1009A00070782789308D418D528D0E945D16CA0165
:1009B000B90108950F931F93FC0103A514A525A564
:1009C00036A547A550A961A972A9041715072607DE
:1009D000370729F013AA14AA15AA16AA29C047A9ED
:1009E00050AD61AD72AD452B462B472B19F543A990
:1009F00054A965A976A9413385E7580761057105B2
:100A00007CF041E050E060E070E047AB50AF61AF98
:100A100072AF13AA14AA15AA16AA0E9474030AC0D8
:100A20004F5F5F4F6F4F7F4F43AB54AB65AB76ABC0
:100A300080E001C081E01F910F9108952F923F92B5
:100A40004F925F926F927F928F929F92AF92BF92DE
:100A5000CF92DF92EF92FF920F931F93CF93DF938A
:100A6000CDB7DEB728970FB6F894DEBF0FBECDBF67
:100A70001C010E94DA0481116CC1D1019F96CD90B6
:100A8000DD90ED90FC90D29797968D909D90AD90D3
:100A9000BC909A97A7019601281939094A095B0960
:100AA00057FF07C050954095309521953F4F4F4FC8
:100AB0005F4FF1018081478C50A061A072A04982F4
:100AC0005A826B827C8243A454A465A476A48823B2
:100AD000B1F0C814D904EA04FB044CF1C1012D8320
:100AE0003E834F8358870E94C6042D813E814F81EB
:100AF00058856217730784079507CCF47BC08C1464
:100B00009D04AE04BF040CF495C0C1012D833E8347
:100B10004F8358870E94C6042D813E814F8158859E
:100B200062177307840795070CF084C0E9C0F101D0
:100B3000438554856585768589819A81AB81BC81A1
:100B4000841B950BA60BB70BAC01BD01D1015F96C1
:100B50004D935D936D937C939297F101478D50A1D6
:100B600061A172A1480D591D6A1D7B1D47A350A7A5
:100B700061A772A74416550666067706BCF44C14A6
:100B80005D046E047F0491F04091910350919203B3
:100B90006091930370919403440D551D661D771D5C
:100BA00043A754A765A776A70E946D03D1015F965E
:100BB0004D915D916D917C91929777FFCAC01C9287
:100BC00028960FB6F894DEBF0FBECDBFDF91CF9150
:100BD0001F910F91FF90EF90DF90CF90BF90AF905B
:100BE0009F908F907F906F905F904F903F902F904D
:100BF0000C9472038C149D04AE04BF040CF0ADCFB2
:100C0000F1014385548565857685078110852185A9
:100C1000328589819A81AB81BC81480F591F6A1F37
:100C20007B1F04171507260737070CF08FCFB90174
:100C3000A8018CCFF101438554856585768589812E
:100C40009A81AB81BC81480F591F6A1F7B1FD1015C
:100C50005F964D935D936D937C939297F101478DD1
:100C600050A161A172A1480D591D6A1D7B1D47A3AA
:100C700050A761A772A74415550566057705BCF412
:100C80004C145D046E047F0491F0409191035091E7
:100C900092036091930370919403441A550A660A73
:100CA000770A43A654A665A676A60E946D03D101D5
:100CB0005F964D915D916D917C91929714161506FA
:100CC000160617060CF045C081E08C9328960FB6E7
:100CD000F894DEBF0FBECDBFDF91CF911F910F9172
:100CE000FF90EF90DF90CF90BF90AF909F908F904C
:100CF0007F906F905F904F903F902F900C94700377
:100D0000C814D904EA04FB040CF0A8CFF101438510
:100D100054856585768507811085218532853095D6
:100D20002095109501951F4F2F4F3F4F89819A8134
:100D3000AB81BC81841B950BA60BB70BAC01BD012D
:100D400080179107A207B3070CF081CFB901A80162
:100D50007ECF28960FB6F894DEBF0FBECDBFDF91D1
:100D6000CF911F910F91FF90EF90DF90CF90BF90A8
:100D7000AF909F908F907F906F905F904F903F903B
:100D80002F90089580E090E8A0E0B0E08093910378
:100D900090939203A0939303B093940308958AE9E8
:100DA00093E00E94430C91E0892708951F93CF930D
:100DB000DF93EC018AE993E00E94430C811107C0A4
:100DC0008AE993E00E94310C182F811102C010E0D3
:100DD00005C0BE018AE993E00E94BC0B812FDF9120
:100DE000CF911F910895CF93DF93EC016BE171E0F8
:100DF0008AE993E00E949B0CBE018AE993E00E947D
:100E0000B00C8AE993E00E94430C8111FACFDF9184
:100E1000CF910895CF93DF93EC01CC53DF4F28811E
:100E20003981F901EE0FFF1FE20FF31FE80FF91FE1
:100E3000448355836683C901019660E470E00E9493
:100E4000271699838883DF91CF910895342F252F1A
:100E5000462F532F622F0E940A070895CF93DF93E6
:100E600000D0CDB7DEB723E229831A829C0121503E
:100E700031092235310510F480939D0321E0AE0144
:100E80004F5F5F4F66E08AE993E00E94570C8AE962
:100E900093E00E94070D0F900F90DF91CF9108957E
:100EA000AF92BF92CF92DF92EF92FF920F931F9378
:100EB000CF93DF9300D0CDB7DEB78C01A52EB62E31
:100EC000C42EDD24C7FCD094ED2CFD2CF601379701
:100ED000E131F10508F0A3C0EA5AFF4F0C947C16EB
:100EE00043E052E060E003C041E050E061E0C8014F
:100EF0000E94260794C0FC01808191810E94AE046B
:100F0000AB0162E0F4CFFC01808191810E94B404C6
:100F1000AB0163E0ECCFFC01808191810E94BA04B7
:100F2000AB0164E0E4CFFC01808191810E94C004A8
:100F3000AB0165E0DCCFBE016F5F7F4F8CE090E0DE
:100F40000E94690349815A8166E0D1CFA50160E022
:100F500070E0FC01808191810E94920460C0A50133
:100F600060E070E0FC01808191810E94990457C08B
:100F7000A50160E070E0FC01808191810E94A004E5
:100F80004EC0A50160E070E0FC01808191810E946B
:100F9000A70445C0B5018CE090E00E945203C50152
:100FA0000E942E073CC0B501FC01808191810E9406
:100FB000880435C0B501FC01808191810E948D04B7
:100FC0002EC0A501662757FD6095762FEFE0440FF0
:100FD000551F661F771FEA95D1F7FC01808191812B
:100FE0000E94C6031CC0FC01808191810E94AE0456
:100FF000AB01662757FD6095762F80E090E00E9458
:101000003A03F801808191810E94B404AB01662704
:1010100057FD6095762F84E090E00E943A030F9090
:101020000F90DF91CF911F910F91FF90EF90DF9084
:10103000CF90BF90AF9008950F931F93CF93DF93FE
:1010400000D01F92CDB7DEB78C01CE0101960E9471
:10105000D606882331F049815A816B81C8010E94EC
:1010600050070E94CF06882301F198012A533F4F71
:10107000D901ED91FC91119712978D919C91E817F0
:10108000F90799F0CF01019660E470E00E942716FD
:10109000D9018D939C93CF01880F991F8E0F9F1FAD
:1010A0000496800F911F0E94F3060F900F900F90EF
:1010B000DF91CF911F910F910895CF93DF9300D0CF
:1010C000CDB7DEB786E091E09093A00380939F03B5
:1010D0008AE993E00E944F0B61E271E08AE993E0B4
:1010E0000E94860C83E080939E03BE016F5F7F4F5A
:1010F0008CE090E00E94690389819A810E942E070A
:101100000F900F90DF91CF91089580E090E8A0E0DC
:10111000B0E08093950390939603A0939703B093C8
:1011200098030895CF93DF93FC01E85FFE4F208181
:1011300031812C573F4F280F391F8C579F4FDB01B0
:101140004C914423C9F0408151814138510534F418
:101150004F5F5F4F51834083D90105C011821082D8
:10116000DC0167E271E09D012F5F3F4FEB01488199
:101170004C936F5F7F4FE3CFDF91CF910895CF9373
:10118000DF93EC010E9492086EE271E0CE01DF91E4
:10119000CF910C9492080F931F93CF93DF93EC01A0
:1011A0008C01085F1E4FD801ED91FC91CA018E0F92
:1011B0009F1F8138910534F067E271E0CE010E94F3
:1011C000920817C0EC57FF4FEC0FFD1FCB019C019D
:1011D000261B370B241735072CF4DC012D91CD018C
:1011E0002193F5CFF80180819181840F951F918320
:1011F00080836EE271E0CE01DF91CF911F910F915C
:101200000C949208462F50E060E0FC0182819381AB
:101210000E940A070895562F672FFC01828193814F
:101220000E940A070895CF93DF9300D0CDB7DEB7B1
:101230009E012F5F3F4F3F932F9320E331E03F9379
:101240002F9302969F938F930E94E2160F900F9018
:101250000F900F900F900F9089819A810F900F90AF
:10126000DF91CF910895EF92FF920F931F93CF9349
:10127000DF93CDB7DEB760970FB6F894DEBF0FBE31
:10128000CDBF7C015F934F93862F992787FD909563
:101290009F936F9323E331E03F932F938E010F5F72
:1012A0001F4F1F930F930E94C016B801C7010E94E1
:1012B000BF080FB6F894DEBF0FBECDBF60960FB665
:1012C000F894DEBF0FBECDBFDF91CF911F910F917C
:1012D000FF90EF9008958F929F92AF92BF92CF921E
:1012E000DF92EF92FF920F931F93CF93DF93CDB7CF
:1012F000DEB760970FB6F894DEBF0FBECDBF7C019E
:101300000496F7018480992487FC9094A92CB92C29
:10131000F401E154F109E733F10508F0A6C0E959F9
:10132000FF4F0C947C16633071051CF469E371E087
:101330009EC0AB0142505109B7016A5F7F4FC701A0
:101340000E94CB0897C01F9283E08F931F9282E088
:101350008F931F9286E78F9380E491E09F938F9302
:101360008E010F5F1F4F1F930F930E94C016B8018D
:10137000C7010E94BF080FB6F894DEBF0FBECDBFF5
:1013800079C041E050E062E70AC0BE016F5F7F4F65
:101390008CE090E00E94690349815A8163E6C701AD
:1013A0000E94330967C0F701808191810E94AE04D9
:1013B000AB016DE6F4CFF701808191810E94B40406
:1013C000AB0161E6ECCF67E04CC068E04AC00E9428
:1013D0001309AC0160E070E0F701808191810E9407
:1013E000920448C00E941309AC0160E070E0F7016C
:1013F000808191810E9499043DC0F7018081918193
:101400000E94AE044B015C01F701808191810E9432
:10141000B4046B017C01B501A4016627772780E045
:1014200090E00E943A03B701A6016627772784E07F
:1014300090E00E943A031EC00E9413098C01BC0177
:101440008CE090E00E945203C8010E942E0712C057
:101450000E94130944E1BC01C7010E940B090AC0A4
:101460006DE0C7010E94020905C069E471E0C7018F
:101470000E94BF0860960FB6F894DEBF0FBECDBFC6
:10148000DF91CF911F910F91FF90EF90DF90CF9060
:10149000BF90AF909F908F900895CF93DF93EC0112
:1014A000FC01E40FF51F6A3071F41482BA010E9446
:1014B0006B09FE01EC5FFE4F11821082CA5FDE4FA6
:1014C0001982188201C06483DF91CF9108959C0135
:1014D000FC01E85FFE4F4081518111821082B90109
:1014E0006C577F4FCA0108950F931F93CF93DF93DB
:1014F000EC018C010C5F1E4FF80140815181CA0143
:10150000019691838083403851053CF4CE01DF91F0
:10151000CF911F910F910C944D0A60E571E0CE01BF
:101520000E94BF08F80111821082CA5FDE4F198243
:101530001882DF91CF911F910F910895CF93CFB76C
:10154000F89480919903811127C0E9EAF1E0849130
:10155000EAE8F1E09491E82FF0E0EE0FFF1FEB5383
:10156000FE4FA591B4918C91892321F461E081E132
:101570000E94AC0E61E081E10E94730E8CB5806127
:101580008CBD8CB580648CBD61E08FE00E94730ED1
:1015900061E080E10E94730E809199038F5F8093D8
:1015A0009903CFBFCF910895FC0188E0818387E044
:1015B000828381E0838380E184831682158208958B
:1015C000AF92BF92DF92EF92FF920F931F93CF9350
:1015D000DF931F92CDB7DEB77C01D62E8A015B0167
:1015E0008A2D8D198217A8F4D70115968D919C919B
:1015F0001697F50161915F01DC01ED91FC9101907D
:10160000F081E02D29830995F80181938F012981CB
:10161000E7CF0F90DF91CF911F910F91FF90EF9047
:10162000DF90BF90AF900895CF92DF92FF920F931B
:101630001F93CF93DF931F92CDB7DEB78C01F62EA9
:101640006B018C2D8F19841790F4D80115968D910C
:101650009C911697F60161916F01DC01ED91FC916F
:101660000190F081E02D498309954981EACF0F90DF
:10167000DF91CF911F910F91FF90DF90CF90089550
:1016800061E0FC0181810C94AC0E60E0FC01818181
:101690000C94AC0E61E0FC0182810C94AC0ECF93F3
:1016A000DF93EC0161E089810E94730E61E08A8121
:1016B0000E94730ECE010E94450BCE010E944A0B80
:1016C0008D819E81DC01ED91FC910280F381E02D02
:1016D000DF91CF91099460E0FC0182810C94AC0E03
:1016E0000F931F93CF93DF9300D0CDB7DEB78C015C
:1016F0004A8369830E946B0BD80115968D919C914A
:101700001697DC01ED91FC9169816F716062019027
:10171000F081E02D0995F80185819681DC01ED913C
:10172000FC910190F081E02D4A81642F0995C80158
:101730000F900F90DF91CF911F910F910C944A0B56
:10174000CF93DF93EC0118820E94450B4BE060E0E1
:10175000CE010E94700BCE010E94400B40E367E077
:10176000CE01DF91CF910C94700B21E0FC0120831E
:101770004AE060E00C94700B0F931F93CF93DF93BC
:10178000EC018B010E946B0B8D819E81DC01ED9140
:10179000FC910190F081E02D61E609952C81A80172
:1017A000B801CE010E94E00ACE010E944A0B40E43B
:1017B00067E0CE01DF91CF911F910F910C94700BD8
:1017C000EF92FF920F931F93CF93DF9300D0CDB78B
:1017D000DEB77C018A012A8369830E946B0BD701E3
:1017E00015968D919C911697DC01ED91FC91698184
:1017F0006F710190F081E02D09952A81A801B8014F
:10180000C7010E94E00AC7010F900F90DF91CF91AE
:101810001F910F91FF90EF900C944A0BCF93DF93A1
:101820001F92CDB7DEB721E0AE014F5F5F4F67E19A
:101830000E94E00B898181700F90DF91CF91089514
:10184000CF93DF931F92CDB7DEB721E0AE014F5F9C
:101850005F4F67E00E94E00B89810F90DF91CF918D
:101860000895CF93DF93EC010E94200C86FD06C003
:10187000CE010E940E0C91E0982701C091E0892FC3
:10188000DF91CF910895CF93DF93EC018881882376
:1018900041F0CE010E94200C807329F0CE010E94FD
:1018A000A00B80E001C081E0DF91CF910895EF921D
:1018B000FF920F931F93CF93DF9300D0CDB7DEB786
:1018C0007C018A012A8369830E946B0BD7011596DC
:1018D0008D919C911697DC01ED91FC9169816F715E
:1018E00060620190F081E02D09952A81422FB801B4
:1018F000C7010E94140BC7010F900F90DF91CF9189
:101900001F910F91FF90EF900C944A0B0F931F9330
:10191000CF93DF93EC018B010E94450B25E0A801DA
:101920006BE0CE010E94570CCE01DF91CF911F9149
:101930000F910C94400B0F931F93CF93DF93EC0107
:101940008B0125E0AB016AE00E94570C25E0A8015D
:1019500060E1CE01DF91CF911F910F910C94570C54
:101960000F931F93CF93DF93EC018B010E94200C08
:101970008881882331F0CE010E94200C8073C1F34E
:101980001882CE010E94450BCE010E94B50BCE01FC
:101990000E946B0B8D819E81DC01ED91FC91019089
:1019A000F081E02D61EE0995CE010E944A0BCE0137
:1019B0000E946B0B8D819E81DC01ED91FC91019069
:1019C000F081E02D60EA09954C81B801CE010E94BA
:1019D000140BCE010E944A0BCE01DF91CF911F91D3
:1019E0000F910C94400BCF93DF93EC010E946B0B93
:1019F0008D819E81DC01ED91FC910190F081E02DC3
:101A000062EE0995CE01DF91CF910C944A0BCF93F2
:101A1000DF93EC014B8165E00E94700B4C8161E12A
:101A2000CE010E94700B4C8162E1CE010E94700BCE
:101A3000CE010E94A00BCE01DF91CF910C94F30C4C
:101A40008AE993E00C94D40A6EBD00000DB407FE41
:101A5000FDCF8EB5089508950E949E0A8CB5837FB0
:101A60008CBD8CB58C7F81608CBD8DB58E7F8DBD1E
:101A700008951F920F920FB60F9211242F933F9348
:101A80008F939F93AF93BF938091A2039091A303F1
:101A9000A091A403B091A5033091A10323E0230FEB
:101AA0002D3720F40196A11DB11D05C026E8230F96
:101AB0000296A11DB11D2093A1038093A2039093D0
:101AC000A303A093A403B093A5038091A6039091D0
:101AD000A703A091A803B091A9030196A11DB11D70
:101AE0008093A6039093A703A093A803B093A903A0
:101AF000BF91AF919F918F913F912F910F900FBE0A
:101B00000F901F9018953FB7F8948091A60390917D
:101B1000A703A091A803B091A90326B5A89B05C06F
:101B20002F3F19F00196A11DB11D3FBF6627782FE9
:101B3000892F9A2F620F711D811D911D42E0660F42
:101B4000771F881F991F4A95D1F708958F929F920A
:101B5000AF92BF92CF92DF92EF92FF926B017C0126
:101B60000E94830D4B015C01C114D104E104F10416
:101B7000F1F00E9459140E94830D681979098A09AD
:101B80009B09683E73408105910570F321E0C21AFC
:101B9000D108E108F10888EE880E83E0981EA11CA8
:101BA000B11CC114D104E104F10429F7DDCFFF9089
:101BB000EF90DF90CF90BF90AF909F908F9008955F
:101BC000789484B5826084BD84B5816084BD85B518
:101BD000826085BD85B5816085BDEEE6F0E08081DF
:101BE00081608083E1E8F0E0108280818260808300
:101BF000808181608083E0E8F0E080818160808383
:101C0000E1E9F0E08081826080838081816080836F
:101C1000E0E9F0E0808181608083E1ECF0E08081A8
:101C20008460808380818260808380818160808302
:101C3000E3ECF0E0808181608083E0ECF0E0808183
:101C400082608083E2ECF0E0808181608083EAE75B
:101C5000F0E08081846080838081826080838081E5
:101C600081608083808180688083089590E0FC019A
:101C70003197EF30F105B0F5E256FF4F0C947C162A
:101C8000809180008F7703C0809180008F7D80934A
:101C90008000089580918000877FF9CF84B58F7789
:101CA00002C084B58F7D84BD0895809190008F77A8
:101CB00007C0809190008F7D03C080919000877F46
:101CC0008093900008958091C0008F7703C0809129
:101CD000C0008F7D8093C00008958091C200877FEF
:101CE0008093C2000895CF93DF9390E0FC01E75802
:101CF000FE4F2491FC01E856FE4F8491882349F160
:101D000090E0880F991FFC01EB53FE4FA591B49111
:101D100089549E4FFC01C591D4919FB7611108C0B1
:101D2000F8948C91209582238C93888182230AC019
:101D3000623051F4F8948C91322F309583238C9338
:101D40008881822B888304C0F8948C91822B8C9399
:101D50009FBFDF91CF9108950F931F93CF93DF9390
:101D60001F92CDB7DEB7282F30E0F901E65AFE4FBB
:101D70008491F901E758FE4F1491F901E856FE4F9E
:101D800004910023C9F0882321F069830E94360E54
:101D90006981E02FF0E0EE0FFF1FE954FE4FA5919F
:101DA000B4919FB7F8948C91611103C01095812371
:101DB00001C0812B8C939FBF0F90DF91CF911F911A
:101DC0000F910895CF93DF931F92CDB7DEB769834C
:101DD000DC01ED91FC910280F381E02D41E050E0C7
:101DE000BE016F5F7F4F09950F90DF91CF910895EE
:101DF000CF93DF93EC018C859D8597FF05C082E032
:101E00000E9407119D878C878C859D85DF91CF91DE
:101E1000089583E00C949B13FC018485958597FDC0
:101E200006C082E00E94AF1090E00196089582E023
:101E30000E94AF1090E00895FC018485958597FD80
:101E400005C02FEF3FEF35872487089582E00C947B
:101E50000711CF93DF93EC0180911301882331F0B8
:101E600083E00E9438111816190634F081E090E0E2
:101E70009B838A8380E090E0DF91CF910895FC01FD
:101E800020812E5F208342E450E063ED71E080E822
:101E90000C94D311FC0121818081813A59F42132C3
:101EA00009F04BC047E050E06CE071E080E00E9438
:101EB000D3115EC0813209F040C0233289F483819E
:101EC00090E0982F88273281832BA0E0B0E08093A8
:101ED000080190930901A0930A01B0930B010FC070
:101EE000203239F467E070E08CE091E00E94041247
:101EF00009C0223221F482818093130103C02D7F17
:101F00002032B1F58091FA03811103C0E0E0F8E0DE
:101F100002C0EEEFFAE080910C0190910D01A091CA
:101F20000E01B0910F01803B9440A105B10511F560
:101F30008091130180FF03C01DC080E00895EE3F33
:101F40002AE0F20731F0808191819093FF0A80931B
:101F5000FE0A87E797E7918380832BE088E190E092
:101F60000FB6F894A895809360000FBE2093600090
:101F700081E0089588E10FB6F89480936000109294
:101F800060000FBEA895EE3F8AE0F80739F0809117
:101F9000FE0A9091FF0A91838083EACF1092FF0A94
:101FA0001092FE0AE5CF2FEF3FEFFC013587248723
:101FB00008951092AD031092AC0388EE93E0A0E078
:101FC000B0E08093AE039093AF03A093B003B093BF
:101FD000B10385E691E09093AB038093AA038FEF62
:101FE0009FEF9093B7038093B6030895615030F04C
:101FF0002091F100FC0120830196F8CF289884E617
:102000008093040408954091FF03509100042091AF
:10201000FD033091FE0342175307B4F49091E8009A
:102020009570E1F39091E80092FD19C08093F10062
:102030008091FF039091000401968F739927892B5B
:1020400019F48EEF8093E8008091FF0390910004D3
:102050000196909300048093FF0381E0089580E04F
:102060000895CF92DF92EF92FF920F931F93CF9339
:10207000DF931F92CDB7DEB7082F162FF42E862FD1
:10208000880F8E5F99830E94031083E00E940310E3
:10209000E02EC02E9981D92E8C2D8E19811798F49F
:1020A000F601F7FE02C0849101C080810E940310F6
:1020B000082F80E00E9403108023FFEFCF1ADF0A71
:1020C0008111EACF01C081E00F90DF91CF911F9184
:1020D0000F91FF90EF90DF90CF9008958091D700FF
:1020E00081608093D70080EA8093D80089B58061B1
:1020F00089BD89B5826089BD09B400FEFDCF61E06C
:1021000070E080E090E00E94A60D8091D8008F7C66
:1021100080618093D8008091E000807F8093E00010
:102120000895CF93DF931F92CDB7DEB71982CE010A
:1021300001960E943F0F0E94E114BE016F5F7F4F26
:102140000E945A1489810F90DF91CF9108952FB783
:10215000FC012083F89467706093E9000895CF93A1
:10216000DF931F92CDB7DEB7682FCE0101960E9494
:10217000A7108091F20099819FBF0F90DF91CF91BE
:102180000895FF920F931F93CF93DF9300D0CDB7A5
:10219000DEB7F62E8A0190910304992311F057FFC0
:1021A00003C08FEF9FEF2BC0682FCE0101967A837B
:1021B0000E94A7108091F20090E0A8017A81801718
:1021C00091070CF4AC01EF2DF72FF40E84E6FE1608
:1021D00039F02898809304049091F1009193F7CFFF
:1021E0004115510521F08091F200882321F0898169
:1021F0008FBFCA0104C08BE68093E800F8CF0F9030
:102200000F90DF91CF911F910F91FF900895CF9381
:10221000DF931F92CDB7DEB741E050E0BE016F5FA4
:102220007F4F0E94C110019719F4898190E002C08C
:102230008FEF9FEF0F90DF91CF910895CF93DF93B2
:102240001F92CDB7DEB7682FCE0101960E94A7106E
:102250009091E800892F807295FF04C09091F20060
:1022600080E4891B99819FBF0F90DF91CF910895E2
:102270006F927F928F929F92AF92BF92CF92DF9296
:10228000EF92FF920F931F93CF93DF931F92CDB7DF
:10229000DEB7782E7B01C42EB52E809103048823EF
:1022A00069F0042F152F8AEFD82E872D8072982E73
:1022B0009AE3A92E872D8074882E11C08FEF9FEF8F
:1022C00057C0872D0E941E11682E81110CC0DA9410
:1022D000A9F361E070E080E090E00E94A60D011596
:1022E000110579F73BC0282F30E0021713070CF4D3
:1022F000602E672DCE0101960E94A7108091E80004
:1023000085FF29C0262D30E0021B130B992039F0E0
:102310006A948FEF6816B1F01092F100F9CFF701CF
:10232000862D77FE07C0815058F094919093F1006C
:102330003196F9CF815020F091919093F100FACF2E
:10234000E20EF31E8091E80085FF0FC00115110514
:1023500011F481100AC089818FBFC1CF5D9884E6D6
:10236000809305048C2D9B2D03C0A092E800F3CF31
:102370000F90DF91CF911F910F91FF90EF90DF9021
:10238000CF90BF90AF909F908F907F906F90089567
:102390001092E900109200041092FF039093FE0344
:1023A0008093FD030895CF92DF92FF920F931F93C6
:1023B000CF93DF9300D0CDB7DEB7F82E8A016B0143
:1023C00001151105B1F0F601F7FE02C0849101C0BC
:1023D000808149835A830E94031001501109FFEF45
:1023E000CF1ADF0A49815A818111EACF8FEF9FEF1F
:1023F00001C0CA010F900F90DF91CF911F910F91F3
:10240000FF90DF90CF900895BF92CF92DF92EF922E
:10241000FF920F931F93CF93DF936C018B01EB011E
:102420003BEFB32E2097C1F07E01C134D1051CF0E3
:1024300020E4E22EF12C8091E80082FFFCCFC8015D
:102440008C1B9D0B6E2D8C0D9D1D0E94F60FB09266
:10245000E800CE19DF09E6CFC801DF91CF911F91C7
:102460000F91FF90EF90DF90CF90BF9008951F9253
:102470000F920FB60F921124DF92EF92FF920F93FB
:102480001F932F933F934F935F936F937F938F93FC
:102490009F93AF93BF93EF93FF93CF93DF93CDB70A
:1024A000DEB76C97DEBFCDBF1092E9008091E800E7
:1024B00083FF23C168E0CE0145960E94F60F82EFAC
:1024C0008093E8003D8937FF05C08091E80080FFD8
:1024D000FCCF03C08EEF8093E800832F807609F055
:1024E000F0C02E894F89D88C21110CC0303829F4C6
:1024F000809102048093F10002C01092F1001092CA
:10250000F100F4C0842F90E09D29213049F431116D
:10251000EDC0019709F0EAC0809102048D7F0AC0E6
:10252000233059F43111E2C0019709F0DFC08091E6
:102530000204826080930204D9C0253041F4809166
:10254000E80080FFFCCF40684093E300CFC0263016
:1025500009F08DC0EB8CFC8C22E0D2122CC080E004
:1025600090E00E94C8110E94911099E08E010F5FC7
:102570001F4FF801292F11922A95E9F79983DA82E2
:1025800091E09E8390EA98879AEF99872091FF03C4
:1025900030910004275F3F4F3C832B838D83C7011D
:1025A0000E94C81149E050E0B80180E00E94D311B8
:1025B0000E9491109BC0C7010E94C8110E94E114A3
:1025C000BE016B5E7F4F0E948314009719F00CF0E0
:1025D0008DC090C081E0D8120EC08B8D9C8D089765
:1025E00019F481E08093FC038091FC0381112FC0DA
:1025F00067E272E031C0E3E0DE127CC08F8988239D
:1026000049F1823029F440E860E185E492E01CC0A1
:10261000813029F440E86BE089E392E015C0833013
:1026200009F068C00E94E1148E010F5F1F4FB801CE
:102630000E94A214F80101900020E9F73197E01BF5
:10264000F10B40E06E2FC8010E9431104DC065E1D2
:1026500072E002C066E572E06115710509F44AC0D6
:10266000FB01449150E080E80E94D3113FC0273025
:1026700009F440C0283021F481E08093F10036C095
:102680002930A1F53370B1F5E5E1F1E081E021E019
:1026900036E39081992361F08093E9002093EB0069
:1026A00091919093EC003093ED008F5F873089F724
:1026B0008EE78093EA001092EA008F8980930304EA
:1026C00015C08B8D9C8D0E94C811898D811105C00C
:1026D000CE0145960E944A0F07C00E94E114BE0138
:1026E0006B5E7F4F0E94C114882321F08EEF809390
:1026F000E80003C081E28093EB006C960FB6F8947B
:10270000DEBF0FBECDBFDF91CF91FF91EF91BF91A3
:10271000AF919F918F917F916F915F914F913F9179
:102720002F911F910F91FF90EF90DF900F900FBEB0
:102730000F901F9018958093E9008091F2008823F4
:1027400019F08AE38093E80008951F920F920FB664
:102750000F9211242F933F934F935F936F937F9327
:102760008F939F93AF93BF93CF93EF93FF93C091BA
:10277000E1008091E100837F8093E1008093E1009C
:10278000C3FF0FC01092E90081E08093EB0010922C
:10279000EC0082E38093ED001092030488E08093C4
:1027A000F000C2FF19C083E00E949B1380910504D2
:1027B000882339F080910504815080930504882393
:1027C00089F180910404882339F0809104048150B8
:1027D00080930404882341F1C4FF10C08091E2007B
:1027E0008E7E81608093E2008091E1008F7E8093F5
:1027F000E100809101048E7E806111C0C0FF16C08F
:102800008091E2008E7E80618093E2008091E10001
:102810008E7E8093E100809101048E7E81608093A2
:10282000010404C05D9ACDCF289AD6CFFF91EF91D5
:10283000CF91BF91AF919F918F917F916F915F9158
:102840004F913F912F910F900FBE0F901F901895B1
:102850001092030410920204109201040E946E1060
:102860008091E1008E7E8093E1008DE08093E20014
:10287000559A209AEEEFFFE7859194918B3F9C4DFE
:1028800019F481E08093FA03089508950E94E00D01
:102890000E9445148BEF93E00E9428140E948D0142
:1028A000C0E0D0E00E9462022097E1F30E940000A5
:1028B000F9CF0895EF92FF920F931F93CF93DF9379
:1028C0007B01FC01C281D38100E010E0209781F000
:1028D000E881F9810280F381E02DB701CE010995ED
:1028E00097FD08C0080F191F0884D985C02DEECFA9
:1028F000C80102C08FEF9FEFDF91CF911F910F9121
:10290000FF90EF9008950F931F93CF93DF938B0168
:10291000FC01C281D381209771F0E881F9810480A4
:10292000F581E02DB801CE010995009731F40884B6
:10293000D985C02DF0CF80E090E0DF91CF911F913D
:102940000F9108950F931F93CF93DF938B01FC0199
:10295000C281D381209771F0E881F9810680F781E7
:10296000E02DB801CE010995080F111D0884D98505
:10297000C02DF0CFF8011082DF91CF911F910F9100
:1029800008950F931F93CF93DF938B01FC01C281B6
:10299000D381209771F0E881F9810190F081E02DD9
:1029A000B801CE010995811106C00884D985C02DD2
:1029B000F0CF80E001C081E0DF91CF911F910F91B6
:1029C000089580910A0481110DC082E0809306046D
:1029D00084E080930704109209041092080481E0B7
:1029E00080930A0486E094E0089504D06894B111BD
:1029F000B5C0089598D088F09F5790F0B92F9927C7
:102A0000B751A0F0D1F0660F771F881F991F1AF0F9
:102A1000BA95C9F712C0B13081F09FD0B1E00895E6
:102A20009CC0672F782F8827B85F39F0B93FCCF367
:102A3000869577956795B395D9F73EF490958095EF
:102A4000709561957F4F8F4F9F4F0895E89409C00F
:102A500097FB3EF490958095709561957F4F8F4FD1
:102A60009F4F9923A9F0F92F96E9BB279395F695E7
:102A7000879577956795B795F111F8CFFAF4BB0F65
:102A800011F460FF1BC06F5F7F4F8F4F9F4F16C0C9
:102A9000882311F096E911C0772321F09EE8872F53
:102AA000762F05C0662371F096E8862F70E060E00F
:102AB0002AF09A95660F771F881FDAF7880F969588
:102AC000879597F9089597F99F6780E870E060E02F
:102AD00008959FEF80EC089500240A9416161706B7
:102AE00018060906089500240A94121613061406FF
:102AF00005060895092E0394000C11F4882352F062
:102B0000BB0F40F4BF2B11F460FF04C06F5F7F4F19
:102B10008F4F9F4F089557FD9058440F551F59F000
:102B20005F3F71F04795880F97FB991F61F09F3FBA
:102B300079F087950895121613061406551FF2CFE3
:102B40004695F1DF08C0161617061806991FF1CF33
:102B500086957105610508940895E894BB2766275A
:102B60007727CB0197F908950BD0C4CFB5DF28F0B4
:102B7000BADF18F0952309F0A6CFABCF1124EECF22
:102B8000CADFA0F3959FD1F3950F50E0551F629FC8
:102B9000F001729FBB27F00DB11D639FAA27F00DB6
:102BA000B11DAA1F649F6627B00DA11D661F829FDD
:102BB0002227B00DA11D621F739FB00DA11D621FC2
:102BC000839FA00D611D221F749F3327A00D611DDF
:102BD000231F849F600D211D822F762F6A2F1124C1
:102BE0009F5750408AF0E1F088234AF0EE0FFF1F14
:102BF000BB1F661F771F881F91505040A9F79E3F4B
:102C0000510570F060CFAACF5F3FECF3983EDCF344
:102C1000869577956795B795F795E7959F5FC1F787
:102C2000FE2B880F911D9695879597F90895DB01E6
:102C30008F939F930E948216BF91AF91A29F800DA8
:102C4000911DA39F900DB29F900D1124089597FBA5
:102C5000072E16F4009407D077FD09D00E94951630
:102C600007FC05D03EF4909581959F4F089570958F
:102C700061957F4F0895A1E21A2EAA1BBB1BFD018F
:102C80000DC0AA1FBB1FEE1FFF1FA217B307E4074B
:102C9000F50720F0A21BB30BE40BF50B661F771FA3
:102CA000881F991F1A9469F7609570958095909583
:102CB0009B01AC01BD01CF010895052E97FB1EF4C9
:102CC00000940E94741657FD07D00E943B1607FC23
:102CD00003D04EF40C947416509540953095219580
:102CE0003F4F4F4F5F4F0895909580957095619538
:102CF0007F4F8F4F9F4F0895EE0FFF1F0590F49168
:102D0000E02D09940E94A916A59F900DB49F900DE7
:102D1000A49F800D911D11240895B7FF0C94821675
:102D20000E948216821B930B0895AA1BBB1B51E1C4
:102D300007C0AA1FBB1FA617B70710F0A61BB70B2B
:102D4000881F991F5A95A9F780959095BC01CD01D0
:102D50000895A29FB001B39FC001A39F700D811D74
:102D60001124911DB29F700D811D1124911D089594
:102D70009111DEC4803219F089508550D0F7089542
:102D8000AEE0B0E0E6ECF6E10C94B11C0D891E89D2
:102D900086E08C831A8309838FEF9FE79E838D8360
:102DA000AE01475E5F4F6F89788DCE0101960E941C
:102DB000FB16EF81F885E00FF11F10822E96E4E0FC
:102DC0000C94CD1CAEE0B0E0E8EEF6E10C94B31C40
:102DD00085E08C838B899C899A838983AE01495EC7
:102DE0005F4F6D897E89CE0101960E944B1A2E9607
:102DF000E2E00C94CF1CACE0B0E0E1E0F7E10C9431
:102E0000A31C7C016B018A01FC011782168283815D
:102E100081FFBDC1CE0101964C01F7019381F601FE
:102E200093FD859193FF81916F01882309F4ABC1D4
:102E3000853239F493FD859193FF81916F0185323D
:102E400029F4B70190E00E94FA1BE7CF512C312CF6
:102E500020E02032A0F48B3269F030F4803259F057
:102E6000833269F420612CC08D3239F0803339F41B
:102E7000216026C02260246023C0286021C027FD75
:102E800027C030ED380F3A3078F426FF06C0FAE05C
:102E90005F9E300D1124532E13C08AE0389E300DF2
:102EA0001124332E20620CC08E3221F426FD6BC11A
:102EB000206406C08C3611F4206802C0883641F4C4
:102EC000F60193FD859193FF81916F018111C1CF2F
:102ED000982F9F7D9554933028F40C5F1F4FFFE38C
:102EE000F9830DC0833631F0833771F0833509F0F3
:102EF0005BC022C0F801808189830E5F1F4F44248C
:102F00004394512C540115C03801F2E06F0E711C2E
:102F1000F801A080B18026FF03C0652D70E002C0DB
:102F20006FEF7FEFC5012C870E94B11B2C0183013D
:102F30002C852F77222E17C03801F2E06F0E711CFE
:102F4000F801A080B18026FF03C0652D70E002C0AB
:102F50006FEF7FEFC5012C870E94A61B2C012C85EB
:102F60002068222E830123FC1BC0832D90E048168D
:102F70005906B0F4B70180E290E00E94FA1B3A943F
:102F8000F4CFF50127FC859127FE81915F01B70100
:102F900090E00E94FA1B31103A94F1E04F1A510868
:102FA0004114510471F7E5C0843611F0893639F5C2
:102FB000F80127FF07C060817181828193810C5FD6
:102FC0001F4F08C060817181882777FD8095982FF9
:102FD0000E5F1F4F2F76B22E97FF09C090958095F8
:102FE000709561957F4F8F4F9F4F2068B22E2AE0DA
:102FF00030E0A4010E94451CA82EA81844C08537C3
:1030000029F42F7EB22E2AE030E025C0F22FF97F7E
:10301000BF2E8F36C1F018F4883579F0B4C08037F0
:1030200019F0883721F0AFC02F2F2061B22EB4FEE7
:103030000DC08B2D8460B82E09C024FF0AC09F2FBD
:103040009660B92E06C028E030E005C020E130E0EF
:1030500002C020E132E0F801B7FE07C06081718153
:10306000828193810C5F1F4F06C06081718180E077
:1030700090E00E5F1F4FA4010E94451CA82EA818C7
:10308000FB2DFF77BF2EB6FE0BC02B2D2E7FA51478
:1030900050F4B4FE0AC0B2FC08C02B2D2E7E05C031
:1030A0007A2C2B2D03C07A2C01C0752C24FF0DC067
:1030B000FE01EA0DF11D8081803311F4297E09C0E3
:1030C00022FF06C07394739404C0822F867809F09F
:1030D000739423FD13C020FF06C05A2C731418F4F8
:1030E000530C5718732C731468F4B70180E290E006
:1030F0002C870E94FA1B73942C85F5CF731410F45F
:10310000371801C0312C24FF12C0B70180E390E0D2
:103110002C870E94FA1B2C8522FF17C021FF03C0B9
:1031200088E590E002C088E790E0B7010CC0822FEC
:10313000867859F021FD02C080E201C08BE227FDB4
:103140008DE2B70190E00E94FA1BA51438F4B70194
:1031500080E390E00E94FA1B5A94F7CFAA94F401FE
:10316000EA0DF11D8081B70190E00E94FA1BA110C9
:10317000F5CF332009F451CEB70180E290E00E94F0
:10318000FA1B3A94F6CFF7018681978102C08FEF40
:103190009FEF2C96E2E10C94BF1C20FD09C0FC01BE
:1031A00023FD05C022FF02C07383628351834083E5
:1031B000089544FD10C046FD10C0DB01FC01AA0FBC
:1031C000BB1FEE1FFF1F1094D1F76A0F7B1F8E1FCE
:1031D0009F1F31E003C033E001C034E0660F771F6A
:1031E000881F991F3150D1F7620F711D811D911DEC
:1031F00008950F931F93CF93DF938C01C8010E9412
:10320000BC1BEC0197FD08C00E94B816892BB1F7D2
:10321000B801CE010E942C1CCE01DF91CF911F91ED
:103220000F9108958F929F92AF92CF92DF92EF927B
:10323000FF920F931F93CF93DF93EC01A62E4A01C9
:10324000022F0E94BC1BAC0155274B32510521F0C7
:103250004D32510551F40068AA9411F480E067C022
:10326000CE010E94BC1B97FDF9CF102F1D7F302F80
:10327000307301F58033F1F4FF24FA94FA0C09F469
:1032800042C0CE010E94BC1B97FD3DC0382F3F7D40
:10329000383551F41264AA94AA94A9F1CE010E947F
:1032A000BC1B97FF07C02FC006FF02C0126001C001
:1032B0001261AF2CC12CD12C760120ED280F2830C3
:1032C00080F014FF04C0BE010E942C1C19C02A30DB
:1032D00040F016FFF8CF2F7D3FEE320F363098F7D3
:1032E0002750412FC701B6010E94D9186B017C01FC
:1032F0001260AA9459F0CE010E94BC1B97FFDDCF4B
:1033000011FD04C0ABCFC12CD12C760117FF08C032
:10331000F094E094D094C094C11CD11CE11CF11C29
:10332000212FB701A601C4010E94CD1881E0DF91D1
:10333000CF911F910F91FF90EF90DF90CF90AF90C2
:103340009F908F900895A1E2B0E0E9EAF9E10C9432
:10335000A81C5C017A018E010F5F1F4F680180E29B
:10336000D8011D928A95E9F7F501738040E050E09D
:10337000812CB0E0912C81E090E0F90173FCA591E3
:1033800073FEA1918F017A2F9F01A11103C080E0EC
:1033900090E07DC0AE3519F44115510559F1E92D84
:1033A000F0E0E417F5073CF4AD3569F1AD3219F4FE
:1033B000BB2319F103C0B11101C08A2EE72FE69596
:1033C000E695E69586010E0F111DF801A72FA7704F
:1033D0008C0102C0000F111FAA95E2F7D801B0813D
:1033E000BA2BB083781559F0781510F47F5FE6CFCB
:1033F0007150E4CF9924939403C0B1E001C0B0E0D0
:103400004F5F5F4FBACFBB2319F08E8180628E83EE
:10341000911003C09924939415C0F601CE018196B2
:10342000208120952193E817F907D1F7F3CFE11414
:10343000F10429F0D7018C93F70131967F01615097
:1034400001F1912CC50169A30E94BC1B69A197FDE4
:1034500016C0282F269526952695F601E20FF11D18
:10346000208130E0AC014770552702C03595279583
:103470004A95E2F720FDDBCFB5010E942C1C91108C
:1034800086CFE114F10411F0D7011C92C801A19676
:10349000EDE00C94C41C4F925F927F928F929F92AA
:1034A000AF92BF92CF92DF92EF92FF920F931F9352
:1034B000CF93DF931F92CDB7DEB78C012B017A013A
:1034C000FC0117821682A12CF801D380F201D3FCF3
:1034D0008591D3FE8191382F2F01882309F4FCC0F8
:1034E00090E039830E94B8163981892B21F0C801F8
:1034F0000E94F918E9CF353241F4F201D3FC35913D
:10350000D3FE31912F01353269F4C80139830E940D
:10351000BC1B398197FDDEC03817B1F2B8010E949B
:103520002C1CDAC03A3241F4D3FC3591D3FE3191F0
:103530002F01BB24B39401C0B12C712C20ED230FBB
:103540002A3090F4FB2DF260BF2E672D70E080E0F2
:1035500090E040E20E94D918762EF201D3FC35911A
:10356000D3FE31912F01EACFB1FE03C0711003C029
:10357000B3C077247A94383619F03C3661F014C021
:10358000F201D3FC3591D3FE31912F01383661F42D
:10359000FB2DF860BF2E8B2D8460B82EF201D3FC7A
:1035A0003591D3FE31912F01332309F495C0632F58
:1035B00070E08AE592E039830E949B1B3981892B58
:1035C00009F48AC0B0FC07C0F701C080D180C701F0
:1035D00002967C0102C0C12CD12C3E3651F4F80178
:1035E0004681578160E070E02B2DC6010E94CD1806
:1035F0006BCF3336A1F4B1FC02C077247394C801B9
:103600000E94BC1B97FD66C0C114D10429F0F601CD
:103610008083C60101966C017A9489F757C03B35C7
:1036200059F49201A601672DC8010E94A3192C012B
:10363000009709F04BC045C0C80139830E94F918B2
:10364000398197FD47C03F3669F128F4343631F1AE
:10365000393679F12BC0333769F03537F9F026C0A8
:10366000C114D10429F0F6018082C60101966C01D3
:103670007A9471F0C8010E94BC1B4C0197FD08C0F0
:103680000E94B816892B61F3B801C4010E942C1C5A
:10369000C114D104D9F0F601108218C0FB2DF062DC
:1036A000BF2E07C08B2D8061B82E03C09B2D906468
:1036B000B92E2B2DA601672DC8010E941219811168
:1036C00005C0F8018381807329F406C0B0FCFCCEEC
:1036D000A394FACEAA2019F08A2D90E002C08FEFB1
:1036E0009FEF0F90DF91CF911F910F91FF90EF907F
:1036F000DF90CF90BF90AF909F908F907F905F9022
:103700004F900895F999FECF92BD81BDF89A9927FF
:1037100080B50895262FF999FECF1FBA92BD81BDBD
:1037200020BD0FB6F894FA9AF99A0FBE0196089543
:10373000992788270895FC010590061621F000209E
:10374000D9F7C00108953197CF010895FC01059084
:10375000615070400110D8F7809590958E0F9F1F93
:103760000895FC016150704001900110D8F78095D8
:1037700090958E0F9F1F0895CF93DF93EC012B81BF
:1037800020FF33C026FF0AC02F7B2B838E819F81B1
:1037900001969F838E838A8190E029C022FF0FC00B
:1037A000E881F9818081992787FD9095009719F428
:1037B00020622B831AC03196F983E8830EC0EA8514
:1037C000FB85099597FF09C02B81019611F480E1D3
:1037D00001C080E2822B8B8308C02E813F812F5F46
:1037E0003F4F3F832E83992702C08FEF9FEFDF91DA
:1037F000CF9108950F931F93CF93DF93182F092F25
:10380000EB018B8181FD03C08FEF9FEF20C082FF12
:1038100010C04E815F812C813D81421753077CF49B
:10382000E881F9819F012F5F3F4F398328831083FF
:1038300006C0E885F985812F0995892B29F72E8106
:103840003F812F5F3F4F3F832E83812F902FDF914A
:10385000CF911F910F910895FB01238120FF12C08A
:1038600026FD10C08F3F3FEF930761F082832F7DCD
:1038700020642383268137812150310937832683B1
:10388000992708958FEF9FEF0895FA01AA2728300E
:1038900051F1203181F1E8946F936E7F6E5F7F4F1D
:1038A0008F4F9F4FAF4FB1E03ED0B4E03CD0670F99
:1038B000781F891F9A1FA11D680F791F8A1F911DEC
:1038C000A11D6A0F711D811D911DA11D20D009F43C
:1038D00068943F912AE0269F11243019305D31937E
:1038E000DEF6CF010895462F4770405D4193B3E067
:1038F0000FD0C9F7F6CF462F4F70405D4A3318F00E
:10390000495D31FD4052419302D0A9F7EACFB4E0BE
:10391000A6959795879577956795BA95C9F7009776
:103920006105710508959B01AC010A2E0694579517
:10393000479537952795BA95C9F7620F731F841F6E
:10394000951FA01D08952F923F924F925F926F9204
:103950007F928F929F92AF92BF92CF92DF92EF921F
:10396000FF920F931F93CF93DF93CDB7DEB7CA1BA0
:10397000DB0B0FB6F894DEBF0FBECDBF09942A88CB
:10398000398848885F846E847D848C849B84AA8473
:10399000B984C884DF80EE80FD800C811B81AA8100
:1039A000B981CE0FD11D0FB6F894DEBF0FBECDBFCB
:0839B000ED010895F894FFCF2A
:1039B8000000120480005B01FFFFFFFF00E1000030
:1039C8000000000000C18081000000636C6965315F
:1039D80000736572763100455252203031000A007A
:1039E80025750025633D256400455252203034007A
:1039F80025633D25642E256400455252203033004E
:103A08004552522030320000000000240D2C0D2BAE
:103A18000D00000000E20E290F0C0F1C0FF80E0914
:023A28000F008D
:00000001FF
