:100000000C941B010C9443010C9443010C94430188
:100010000C9443010C9443010C9443010C94430150
:100020000C9443010C9443010C941A030C948C031C
:100030000C9443010C9443010C9443010C94430130
:100040000C9443010C9443010C9443010C94430120
:100050000C942D0B0C9443010C9443010C94A50DAE
:100060000C9443010C9443010C9443010C94430100
:100070000C9443010C9443010C9443010C944301F0
:100080000C9443010C9443010C9443010C944301E0
:100090000C9443010C9443010C9443010C944301D0
:1000A0000C9443010C9443010C944301E705EA05C9
:1000B000D905DD05E1050B060B060B06EE05F2057D
:1000C000F605FC0500060B06060674130E14F31263
:1000D0000D130E14EA130E140E14E112F7130E147E
:1000E0000E146513EC1292130E14BB120E140E14A0
:1000F0003A130E140E140E140E1408140E140E14CB
:100100000E140E140E140E140E146E130E14EE12A2
:1001100004131714D2130E144D12D812F0130E1428
:1001200017145F13E3127F131714B2128C12981274
:100130002A13A112801290127D136364696E6F708E
:10014000737578585B000000000200090F0000037F
:100150000401000C0000000000000000000000008E
:100160000000000000080B00020202010009040068
:100170000001020200000524001001052401010114
:10018000042402060524060001070581031000402F
:1001900009040100020A00000007050202400000F5
:1001A000070583024000000403090412010002EF66
:1001B00002014041233680000101020301417264C3
:1001C00075696E6F204C4C430041726475696E6FA7
:1001D000204C656F6E6172646F00000000002500A6
:1001E00028002B002E003100000000002400270012
:1001F0002A002D0030000404040404030405020254
:1002000002020403020202020606060606060404AF
:100210000202020404040802011040804010204041
:1002200080408008020401804020100201108010EC
:10023000204040206B1411241FBECFEFDAE0DEBF58
:10024000CDBF11E0A0E0B1E0E6EEF6E302C005901C
:100250000D92A63BB107D9F725E0A6EBB1E001C0AE
:100260001D92A134B207E1F711E0CBE1D1E004C067
:100270002197FE010E940915CA31D107C9F70E94D2
:100280002C0E0C94711B0C9400004091B9015091FC
:10029000BA012091B7013091B80142175307B4F465
:1002A0009091E8009570E1F39091E80092FD19C0FB
:1002B0008093F1008091B9019091BA0101968F73FA
:1002C0009927892B19F48EEF8093E8008091B9016A
:1002D0009091BA0101969093BA018093B90181E09F
:1002E000089580E00895DF92EF92FF920F931F939D
:1002F000CF93DF93D82E8A017B01E40EF51EEB012C
:10030000CE15DF0571F0D7FE03C0FE01849101C058
:1003100088810E94450121968111F2CF8FEF9FEFD6
:1003200001C0C801DF91CF911F910F91FF90EF9015
:10033000DF900895615030F02091F100FC0120839E
:100340000196F8CF289884E68093BF030895CF9252
:10035000DF92EF92FF920F931F93CF93DF936C0185
:100360007A018B01C0E0D0E0CE15DF0589F0D8011D
:100370006D918D01D601ED91FC910190F081E02D00
:10038000C6010995892B11F47E0102C02196ECCF9C
:10039000C701DF91CF911F910F91FF90EF90DF90F8
:1003A000CF900895CF93DF931F92CDB7DEB76983C7
:1003B000DC01ED91FC910280F381E02D41E050E001
:1003C000BE016F5F7F4F09950F90DF91CF91089528
:1003D00083E08093E9008091F200882319F08AE39A
:1003E0008093E8000895FC018485958597FD0BC0F6
:1003F0009FB7F89482E08093E9008091F2009FBF5C
:1004000090E0019608959FB7F89482E08093E90008
:100410008091F2009FBF90E00895089580E090E001
:10042000089508956EBD00000DB407FEFDCF8EB592
:1004300008955E9A5E988E9A000000008E98089546
:100440000E945F150F931F93CF93DF931F92CDB739
:10045000DEB782E0898342E450E065E671E080E83F
:100460000E9473010E94910DDC0112960D911C9166
:1004700013970115110569F0D801ED91FC910280E7
:10048000F381E02DBE016F5F7F4FC801099597FF93
:1004900007C089810F90DF91CF911F910F9108952F
:1004A000F80100851185E5CF8F929F92AF92BF92A0
:1004B000CF92DF92EF92FF920F931F93CF93DF9330
:1004C0006C015B017A0180910B01882309F456C00D
:1004D0008091C003882309F451C08091BD0180FF41
:1004E00005C08091E00082608093E000E70110E0A9
:1004F0000AEF83E0882E9AE3992E2097B1F10E94AB
:10050000660D811105C00150C9F10E94770DF5CF2C
:10051000282F30E0C217D3070CF48C2F4FB7F89474
:100520008092E9009091E80095FF1DC0282F30E0EF
:10053000C21BD30BF501982F915020F0819180932D
:10054000F100FACFA20EB31E112319F09092E80029
:1005500009C08091E80085FD06C09092E80011E096
:10056000209709F010E04FBFC8CF1111C8CF5D9898
:1005700084E68093BB011E141F0444F081E090E0E8
:10058000F6019383828380E090E001C0C701DF9190
:10059000CF911F910F91FF90EF90DF90CF90BF9080
:1005A000AF909F908F9008950E94660D90E00895FF
:1005B0000F931F93CF93DF931F92CDB7DEB78C01BC
:1005C000FC018485958597FF0EC0CE0101960E949F
:1005D000D90C019719F4298130E002C02FEF3FEFC9
:1005E000F80135872487F801848595850F90DF9180
:1005F000CF911F910F910895CF93DF931F92CDB7A5
:10060000DEB7FC018485958597FD05C02FEF3FEF90
:10061000358724870BC0CE0101960E94D90C019723
:1006200019F4898190E002C08FEF9FEF0F90DF9166
:10063000CF9108951F920F920FB60F9211248F93AE
:100640009F938091E1009091E100937F9093E1006E
:1006500083FF0FC01092E90091E09093EB0010929D
:10066000EC0092E39093ED001092C00398E0909319
:10067000F00082FF20C093E09093E9009091F20097
:10068000992319F09AE39093E8009091BB01992384
:1006900039F09091BB0191509093BB01992389F15E
:1006A0009091BF03992339F09091BF03915090939B
:1006B000BF03992341F184FF10C08091E2008E7E38
:1006C00081608093E2008091E1008F7E8093E10061
:1006D0008091BD018E7E806111C080FF16C0809127
:1006E000E2008E7E80618093E2008091E1008E7E48
:1006F0008093E1008091BD018E7E81608093BD0179
:1007000004C05D9ACDCF289AD6CF9F918F910F903C
:100710000FBE0F901F9018951F920F920FB60F9259
:100720001124CF92DF92EF92FF920F931F932F939A
:100730003F934F935F936F937F938F939F93AF9369
:10074000BF93EF93FF93CF93DF93CDB7DEB76C9753
:10075000DEBFCDBF1092E9008091E80083FFEDC1BC
:1007600068E0CE0145960E949A0182EF8093E800EE
:100770008D8987FF05C09091E80090FFFCCF03C0F2
:100780009EEF9093E800982F907609F0C6C09E895E
:100790002F89188D91110CC0803829F48091BE01E9
:1007A0008093F10002C01092F1001092F10048C154
:1007B000422F50E0512B913051F4811141C1413011
:1007C000510509F03DC18091BE018D7F0BC0933072
:1007D00061F4811135C14130510509F031C1809179
:1007E000BE0182608093BE012BC1953041F480919F
:1007F000E80080FFFCCF20682093E30021C1963001
:1008000009F05FC0EB8CFC8C1092E9001092BA01E9
:100810001092B901123091F51092B8011092B701FF
:100820000E94220299E0BE016F5F7F4FDB01E92F3A
:100830001D92EA95E9F799831A8391E09E8390EAE5
:1008400098879AEF99872091B9013091BA01275F73
:100850003F4F3C832B838D831092E9001092BA01A5
:100860001092B901F092B801E092B70149E050E06E
:1008700080E00E9473010E942202E2C0F092B8015F
:10088000E092B7010E94910DDC011296ED90FC9070
:100890001397E114F10409F4C0C0D701ED91FC9164
:1008A0000480F581E02DBE016B5E7F4FC701099585
:1008B000009719F00CF0C4C0C7C0F701E084F184C0
:1008C000E8CF973009F4C0C0983021F481E08093DC
:1008D000F100B6C0993009F0B3C0837009F0B4C01C
:1008E000EFE0F1E081E021E036E39081992361F0CF
:1008F0008093E9002093EB0091919093EC0030936A
:10090000ED008F5F873089F78EE78093EA001092C1
:10091000EA008F898093C00393C08B8D9C8D1092C9
:10092000E9001092BA011092B9019093B801809336
:10093000B701898D811156C08E899D89913A59F4EC
:10094000813209F081C047E050E064E071E080E06E
:100950000E94730175C0913209F076C0833289F428
:10096000888D90E0982F88272F89822BA0E0B0E017
:100970008093000190930101A0930201B0930301C1
:100980005FC0803269F48091E80082FFFCCF67E0AD
:1009900084E091E00E949A018BEF8093E80006C00A
:1009A000823209F04DC08F8980930B018091BC0188
:1009B000882319F0EEEFFAE002C0E0E0F8E0809161
:1009C000040190910501A0910601B0910701803BBF
:1009D0009440A105B10509F07BC080910B0180FF17
:1009E00093C076C00E94910DDC0112960D911C916E
:1009F00013970115110541F1D801ED91FC9101907A
:100A0000F081E02DBE016B5E7F4FC8010995811119
:100A100017C0F80100851185ECCF113009F44EC0E4
:100A2000133091F48F89882309F445C0823081F412
:100A300040E860E189EC91E00E94EF0D882321F00D
:100A40008EEF8093E80079C081E28093EB0075C05F
:100A5000813029F440E86BE08DEB91E0EDCF8330FD
:100A600099F70E94910DDC011296ED90FC9013977E
:100A70008E010F5F1F4F6801E114F10479F0D70177
:100A8000ED91FC910680F781E02DB801C701099531
:100A9000080F111DF701E084F184EECFD8011C92FC
:100AA000F60101900020E9F73197BF016C197D092B
:100AB00040E0C601C1CF67EA71E002C06BEA71E0B5
:100AC0006115710509F2FB01449150E080E840CFC7
:100AD0000FB6F894A89580916000886180936000BB
:100AE000109260000FBEA895EE3F2AE0F20739F0A1
:100AF0008091FE0A9091FF0A91838083A1CF10928A
:100B0000FF0A1092FE0A9CCFEE3F8AE0F80731F010
:100B1000808191819093FF0A8093FE0A87E797E78F
:100B2000918380839BE088E10FB6F894A895809329
:100B300060000FBE9093600083CF6C960FB6F89460
:100B4000DEBF0FBECDBFDF91CF91FF91EF91BF917F
:100B5000AF919F918F917F916F915F914F913F9155
:100B60002F911F910F91FF90EF90DF90CF900F90FA
:100B70000FBE0F901F901895362F90E0FC01EA5B96
:100B8000FE4F4491FC01EB5EFD4F2491FC01EA50C5
:100B9000FE4F8491882309F451C04423E1F150E0D1
:100BA000FA013197EF30F105B0F5EA5AFF4F0C9496
:100BB0000915909180009F7707C0909180009F7DDC
:100BC00003C090918000977F9093800024C094B5DB
:100BD0009F7702C094B59F7D94BD1DC090919000F9
:100BE0009F7707C0909190009F7D03C090919000E7
:100BF000977F909390000FC09091C0009F7703C0A3
:100C00009091C0009F7D9093C00005C09091C2005C
:100C1000977F9093C200E82FF0E0EE0FFF1FE6529F
:100C2000FE4FA591B4918FB7F894EC91311103C0A8
:100C300020952E2301C02E2B2C938FBF0895CF9388
:100C4000CFB7F8948091B601811124C0E7E0F2E0BB
:100C50008491E6E2F2E09491E82FF0E0EE0FFF1FBE
:100C6000E851FE4FA591B491EC91E92321F461E0A4
:100C700081E10E94BC0581E10E949A0C8CB58061E3
:100C80008CBD8CB580648CBD8FE00E949A0C80E195
:100C90000E949A0C8091B6018F5F8093B601CFBFFE
:100CA0008CB5837F8CBD8CB58C7F81608CBD8DB500
:100CB0008E7F8DBDCF9108952091C3043091C404DF
:100CC0002F5B3B4FFC0140814423F9F04091C3046A
:100CD0005091C4044138510544F44F5F5F4F509325
:100CE000C4044093C304F90108C01092C4041092D4
:100CF000C304E1E4F4E080E591E09F012F5F3F4F02
:100D0000DC014C9140830196DDCF08950E945C0682
:100D100087E591E00C945C060F931F93CF93DF93CC
:100D2000CDB7DEB760970FB6F894DEBF0FBECDBF6C
:100D30007F936F93282F082E000C330B3F938F93D4
:100D400089E591E09F938F938E010F5F1F4F1F9353
:100D50000F930E946415C8010E9486060FB6F8948E
:100D6000DEBF0FBECDBF60960FB6F894DEBF0FBEDC
:100D7000CDBFDF91CF911F910F9108950F931F93D6
:100D8000CF93DF93CDB7DEB760970FB6F894DEBF91
:100D90000FBECDBF282F082E000C330B3F938F932F
:100DA0008FE591E09F938F938E010F5F1F4F1F93ED
:100DB0000F930E946415C8010E9486060F900F9041
:100DC0000F900F900F900F9060960FB6F894DEBFC3
:100DD0000FBECDBFDF91CF911F910F910895CF939B
:100DE000DF9300D0CDB7DEB723E229831A829C01BE
:100DF000215031092235310510F48093180541E066
:100E0000BE016F5F7F4F86E00E945B0C609118050A
:100E100085E00E941A0C6091190581E10E941A0C6C
:100E20006091190582E10E941A0C0E94440C0E94F4
:100E3000150C80911A0590911B05DC01ED91FC9138
:100E40000190F081E02D62EE09950E94100C0F9048
:100E50000F90DF91CF910895CF93DF9300D000D012
:100E600000D0CDB7DEB749835A836B837C838D83F3
:100E70009E8321E433E0F9018081918146E0489F1F
:100E8000D001499FB00D1124AF53BE4FFE013196E2
:100E900001900D924A95E1F7019660E470E00E949E
:100EA000D614F9019183808326960FB6F894DEBF9D
:100EB0000FBECDBFDF91CF9108950F931F93CF93B6
:100EC000DF93CDB7DEB760970FB6F894DEBF0FBEE5
:100ED000CDBF7F936F93282F082E000C330B3F93C9
:100EE0008F9385E691E09F938F938E010F5F1F4F45
:100EF0001F930F930E946415C8010E9486060FB6C7
:100F0000F894DEBF0FBECDBF60960FB6F894DEBF7B
:100F10000FBECDBFDF91CF911F910F9108950F9319
:100F20001F93CF93DF93CDB7DEB760970FB6F894DA
:100F3000DEBF0FBECDBF7F936F93282F082E000C0E
:100F4000330B3F938F9389E591E09F938F938E01AD
:100F50000F5F1F4F1F930F930E946415C8010E94DB
:100F600086060FB6F894DEBF0FBECDBF60960FB6F3
:100F7000F894DEBF0FBECDBFDF91CF911F910F91CF
:100F80000895CF93DF93EC016991662329F084E8FB
:100F900093E00E94B814F8CFDF91CF910895909319
:100FA000B9038093B803892B21F48D985F985B9ADD
:100FB00008955F9A8D9A08959093B7038093B6032E
:100FC000892B11F48C9808958C9A0895161617069B
:100FD000180619066CF4DC01CB01813021E0920780
:100FE000A105B1054CF080E091E0A0E0B0E004C0C4
:100FF00081E090E0A0E0B0E08093950390939603A9
:10100000A0939703B0939803DC01992788273FE0CA
:10101000B595A795979587953A95D1F780939903BC
:1010200090939A03A0939B03B0939C0308950F930E
:101030001F9300911C0510911D0520911E053091F4
:101040001F0516161706180619062CF4F62FE72F9B
:10105000582F492F04C0F1E0E0E050E040E08F2F2E
:101060009E2FA52FB42F081719072A073B0714F442
:10107000D901C8018093910390939203A0939303A5
:10108000B09394031F910F9108950F931F930091B4
:10109000A9031091AA032091AB033091AC03601710
:1010A000710782079307C9F01092B1031092B2033F
:1010B0001092B3031092B4032091B8033091B90396
:1010C000232B11F45B9A01C08D9A1092AD031092FC
:1010D000AE031092AF031092B0036093A903709314
:1010E000AA038093AB039093AC031F910F910895D3
:1010F00081E090E0A0E0B0E08093B1039093B20370
:10110000A093B303B093B4031092AD031092AE0357
:101110001092AF031092B0038091B8039091B9037D
:10112000892B11F45B9808958D9808954F925F92E2
:101130006F927F928F929F92AF92BF92CF92DF92E7
:10114000EF92FF92CF93DF93CDB7DEB728970FB61C
:10115000F894DEBF0FBECDBF8090A5039090A6038C
:10116000A090A703B090A8034090A9035090AA03B1
:101170006090AB037090AC0384149504A604B7048C
:1011800049F01092AD031092AE031092AF0310928B
:10119000B0033CC08091B1039091B203A091B3031E
:1011A000B091B403892B8A2B8B2B09F0BAC18091A3
:1011B000AD039091AE03A091AF03B091B003813322
:1011C00025E79207A105B105B4F028960FB6F8946B
:1011D000DEBF0FBECDBFDF91CF91FF90EF90DF90CC
:1011E000CF90BF90AF909F908F907F906F905F90C7
:1011F0004F900C9478080196A11DB11D8093AD030A
:101200009093AE03A093AF03B093B0038091A1037A
:101210009091A203A091A303B091A40389839A8320
:10122000AB83BC83A3019201281B390B4A0B5B0BD8
:101230002D833E834F83588757FF0BC050954095B1
:10124000309521953F4F4F4F5F4F2D833E834F8306
:10125000588780918E03C0909D03D0909E03E090AC
:101260009F03F090A003882331F189819A81AB819B
:10127000BC81481659066A067B060CF443C0A701D8
:101280009601C701B6010E94C614662770782091A6
:10129000990330919A0340919B0350919C030E94C3
:1012A000EA148D819E81AF81B885281739074A07D6
:1012B0005B0744F582C089819A81AB81BC8184152A
:1012C0009505A605B7050CF49FC0A7019601C701B7
:1012D000B6010E94C6146627707820919903309158
:1012E0009A0340919B0350919C030E94EA148D81C4
:1012F0009E81AF81B885281739074A075B070CF034
:1013000083C0E1C08091950390919603A0919703CB
:10131000B0919803C81AD90AEA0AFB0AC0929D0341
:10132000D0929E03E0929F03F092A00380919D03D0
:1013300090919E03A0919F03B091A00329813A81CF
:101340004B815C81820F931FA41FB51F8093A10363
:101350009093A203A093A303B093A40388169906C5
:10136000AA06BB06DCF484149504A604B704B1F005
:1013700080911C0590911D05A0911E05B0911F053F
:10138000880E991EAA1EBB1E8092A5039092A603EA
:10139000A092A703B092A8030E94190280919D0316
:1013A00090919E03A0919F03B091A003B7FFB9C095
:1013B00010928E0347988F98B4C089819A81AB812F
:1013C000BC8184159505A605B7050CF0AFCF4091FB
:1013D00095035091960360919703709198038091C3
:1013E000910390919203A0919303B0919403C40E42
:1013F000D51EE61EF71E8C159D05AE05BF050CF02B
:101400008DCF6C017D018ACF8091950390919603D9
:10141000A0919703B0919803C80ED91EEA1EFB1E37
:10142000C0929D03D0929E03E0929F03F092A0038E
:1014300080919D0390919E03A0919F03B091A00382
:1014400029813A814B815C81820F931FA41FB51FB4
:101450008093A1039093A203A093A303B093A4034A
:1014600088159905AA05BB05DCF484149504A60427
:10147000B704B1F080911C0590911D05A0911E0547
:10148000B0911F05881A990AAA0ABB0A8092A5037F
:101490009092A603A092A703B092A8030E941902FB
:1014A00080919D0390919E03A0919F03B091A00312
:1014B000181619061A061B06A4F581E080938E0300
:1014C000479A8F9A2EC029813A814B815C814216BE
:1014D0005306640675060CF0ABCF4091950350910E
:1014E0009603609197037091980380919103909176
:1014F0009203A0919303B0919403B095A095909519
:1015000081959F4FAF4FBF4FC41AD50AE60AF70A1D
:10151000C816D906EA06FB060CF082CF6C017D01E5
:101520007FCF28960FB6F894DEBF0FBECDBFDF91F8
:10153000CF91FF90EF90DF90CF90BF90AF909F90B2
:101540008F907F906F905F904F9008950F931F93AF
:10155000CF93DF93CDB7DEB728970FB6F894DEBFF1
:101560000FBECDBF18861F82BE01695F7F4F82E22A
:1015700090E00E94C40B01E010E01E830D83BE01C9
:101580006B5F7F4F84E290E00E94C40B8BEF9AEF79
:101590009C838B83BE016D5F7F4F80E890E00E944B
:1015A000C40B1A830983BE016F5F7F4F80E290E016
:1015B0000E94C40B28960FB6F894DEBF0FBECDBFB5
:1015C000DF91CF911F910F910895CF93DF9300D0BA
:1015D000CDB7DEB7BE016F5F7F4F80E890E00E941D
:1015E000790B89819A818B3F9A4F29F00E94A60A34
:1015F00081E090E009C0BE016F5F7F4F80E290E024
:101600000E94790B89819A810F900F90DF91CF9181
:101610000895CF93DF9300D0CDB7DEB7BE016F5FE3
:101620007F4F80E890E00E94790B89819A818B3FFF
:101630009A4F29F00E94A60A81E090E009C0BE01FD
:101640006F5F7F4F84E290E00E94790B89819A81DD
:101650000F900F90DF91CF9108951F920F920FB6C8
:101660000F9211242F933F934F935F936F937F9328
:101670008F939F93AF93BF93EF93FF93E091BF013D
:10168000F091C0010995FF91EF91BF91AF919F91AA
:101690008F917F916F915F914F913F912F910F901B
:1016A0000FBE0F901F9018953FB7F89480912505B5
:1016B00090912605A0912705B091280526B5A89BF5
:1016C00005C02F3F19F00196A11DB11D3FBFBA2FD4
:1016D000A92F982F8827820F911DA11DB11DBC0134
:1016E000CD0142E0660F771F881F991F4A95D1F7F9
:1016F0000895CF92DF92EF92FF920F931F93CF93B3
:10170000DF93CDB7DEB7C456D1090FB6F894DEBF6C
:101710000FBECDBF8C016B01023883E01807D8F4EF
:10172000C8010E94B014F6018083C80101960E948E
:10173000B014F6018183CC59DF4F0FB6F894DEBFA9
:101740000FBECDBFDF91CF911F910F91FF90EF9012
:10175000DF90CF9008951F921F928DEA91E09F93A2
:101760008F93CE0101967C019F938F930E94641505
:10177000C7010E94C1070C9400000F900F900F90BA
:101780000F900F900F90CCCFCF92DF92EF92FF92FD
:101790000F931F93CF93DF93CDB7DEB7C456D10914
:1017A0000FB6F894DEBF0FBECDBF8C016B010238BF
:1017B00083E01807D8F4F6016081C8010E94B814CC
:1017C000F6016181C80101960E94B814CC59DF4F1F
:1017D0000FB6F894DEBF0FBECDBFDF91CF911F9142
:1017E0000F91FF90EF90DF90CF9008951F9281E0CE
:1017F0008F938DEA91E09F938F93CE0101967C01A8
:101800009F938F930E946415C7010E94C1070C9497
:1018100000000F900F900F900F900F900F90CBCF74
:1018200061E0809117050C94BC0560E0809117057C
:101830000C94BC050F931F93CF93DF93C82FD62F23
:101840000E94150C05E115E0D80115968D919C912B
:101850001697DC01ED91FC91CF716C2F60620190C5
:10186000F081E02D0995F80185819681DC01ED91EB
:10187000FC910190F081E02D6D2F0995DF91CF91C2
:101880001F910F910C94100CCF93DF93C5E1D5E01D
:10189000188260E089810E94BC056BE080E00E94B4
:1018A0001A0C61E089810E94BC0560E387E0DF914A
:1018B000CF910C941A0CCF92DF92FF920F931F934B
:1018C000CF93DF931F92CDB7DEB7F82E162F042FDC
:1018D00079830E94150C80911A0590911B05DC01FB
:1018E000ED91FC916F2D6F7160620190F081E02DA0
:1018F0000995F12EC12E7981D72E8C2D8F19801745
:1019000078F480911A0590911B05F60161916F01A1
:10191000DC01ED91FC910190F081E02D0995EDCF76
:101920000F90DF91CF911F910F91FF90DF90CF909B
:101930000C94100C90E0FC01EB5EFD4F2491FC0137
:10194000EA50FE4F8491882399F090E0880F991F08
:10195000FC01E851FE4FA591B491FC01E652FE4F07
:10196000859194918FB7F894EC91E22BEC938FBF13
:101970000895CF93DF9300D0CDB7DEB7CE010196A7
:101980009F938F9388E691E09F938F9383EC93E0EE
:101990009F938F930E9487150F900F900F900F9039
:1019A0000F900F9089819A810F900F90DF91CF91C6
:1019B0000895FC018091C003811103C08FEF9FEF58
:1019C00008959FB7F89482E08093E9002091F20097
:1019D00030E01216130614F421E030E02115310531
:1019E00059F0289884E68093BF038091F1008083AA
:1019F0008091F200882319F09FBFC90108958BE6FA
:101A00008093E800F9CFCF92DF92FF920F931F935C
:101A1000CF93DF931F92CDB7DEB7F82E8B016C0109
:101A20008C2D8F198417A0F480911A0590911B05B5
:101A3000D6016D916D01DC01ED91FC910190F08179
:101A4000E02D49830995F80181938F014981E8CF01
:101A50000F90DF91CF911F910F91FF90DF90CF906A
:101A600008950F931F93CF93C82F8B010E94150CDD
:101A700080911A0590911B05DC01ED91FC916C2F72
:101A80006F710190F081E02D099541E0B801C80126
:101A90000E94030DCF911F910F910C94100CCF93C6
:101AA000DF931F92CDB7DEB7BE016F5F7F4F87E038
:101AB0000E94310D8981807321F00E94440C80E0E6
:101AC00001C081E00F90DF91CF9108952FB7F89476
:101AD00083E08093E9009091E800892F807295FF60
:101AE00004C09091F20080E4891B2FBF0895CF922B
:101AF000DF92EF92FF920E94540B6B017C010E94D7
:101B0000540BDC01CB018C199D09AE09BF09883E3D
:101B10009340A105B10598F3FF90EF90DF90CF902F
:101B2000089580912D0581110DC082E080932905D3
:101B300084E080932A0510922C0510922B0581E0F9
:101B400080932D0589E295E008951F920F920FB6BC
:101B50000F9211242F933F938F939F93AF93BF9333
:101B60008091210590912205A0912305B091240533
:101B70003091200523E0230F2D3720F40196A11D7D
:101B8000B11D05C026E8230F0296A11DB11D2093AB
:101B900020058093210590932205A0932305B093FF
:101BA00024058091250590912605A0912705B091E7
:101BB00028050196A11DB11D80932505909326054A
:101BC000A0932705B0932805BF91AF919F918F9166
:101BD0003F912F910F900FBE0F901F901895CF92AD
:101BE000DF92EF92FF920F931F93CF93DF931F9299
:101BF000CDB7DEB7182F062FE42E862F880F8E5F05
:101C000099830E94450183E00E944501F12EC12E77
:101C10009981D92E8C2D8F19801798F4F601E7FE43
:101C200002C0849101C080810E944501182F80E08C
:101C30000E9445018123FFEFCF1ADF0A8111EACF0D
:101C400001C081E00F90DF91CF911F910F91FF9024
:101C5000EF90DF90CF900895CF93DF93CDB7DEB7AD
:101C6000A2970FB6F894DEBF0FBECDBF789484B5AF
:101C7000826084BD84B5816084BD85B5826085BD88
:101C800085B5816085BD80916E00816080936E0016
:101C90001092810080918100826080938100809108
:101CA00081008160809381008091800081608093B9
:101CB00080008091910082608093910080919100DA
:101CC000816080939100809190008160809390006A
:101CD0008091C10084608093C1008091C1008260C6
:101CE0008093C1008091C10081608093C100809188
:101CF000C30081608093C3008091C00082608093A4
:101D0000C0008091C20081608093C20080917A00FF
:101D1000846080937A0080917A00826080937A0058
:101D200080917A00816080937A0080917A00806847
:101D300080937A001092C0031092BE011092BD01F0
:101D40008091D70081608093D70080EA8093D8008B
:101D500089B5806189BD89B5826089BD09B400FEFD
:101D6000FDCF0E94770D8091D8008F7C8061809399
:101D7000D8008091E000807F8093E0008091E100B6
:101D80008E7E8093E1008DE08093E200559A209A48
:101D9000EEEFFFE7859194918B3F9C4D19F481E024
:101DA0008093BC018FEF9FEF9093D2048093D10476
:101DB000539A579A529A259A569A3F9A809A819A9C
:101DC000859A869A879A849A8898899A11E01093BE
:101DD0008E0310929103109292031092930310922B
:101DE0009403109295031092960310929703109209
:101DF00098031092900310928F03109299031092FF
:101E00009A0310929B0310929C0310929D031092D0
:101E10009E0310929F031092A0031092A1031092B0
:101E2000A2031092A3031092A4031092A503109290
:101E3000A6031092A7031092A8031092A903109270
:101E4000AA031092AB031092AC031092AD03109250
:101E5000AE031092AF031092B00381E090E0A0E0D7
:101E6000B0E08093B1039093B203A093B303B09317
:101E7000B4031092B5031092B7031092B603909377
:101E8000B9038093B8030E9478085A9A2D9A8CE07F
:101E900091E090931B0580931A05809116050E948E
:101EA0009A0C809117050E949A0C60E080911605AB
:101EB0000E94BC050E94100C80911A0590911B0590
:101EC000DC01ED91FC910280F381E02D099560E049
:101ED000809116050E94BC0545E06BE671E08BE041
:101EE0000E945B0C61E0809116050E94BC0586E0B3
:101EF000809319050E94E50A0E94EF0661E070E0F8
:101F000080E090E00E94E60761E070E080E090E011
:101F10000E9417081092B7031092B6038C980E9483
:101F2000090B0E94CF0780E180938100109280000E
:101F300082E19AE7909387008093860084E1809302
:101F400081001093BC0380E395E09093BB038093E2
:101F5000BA03909387008093860081E1809381008B
:101F600086E998E09093C0018093BF0110936F00C1
:101F70006E01B7E1CB0ED11C8E010F5F1F4F2E01FA
:101F8000E2E14E0E511CE5E62E2EE1E03E2EF2EB94
:101F9000EF2EF1E0FF2E86E0D6011D928A95E9F73B
:101FA00080911505811108C0B80187E00E94310DAC
:101FB000898186FD0DC005C00E944F0D81111CC294
:101FC000F3CFB80187E10E94310D898180FD14C2F1
:101FD0000E94150C80911A0590911B05DC01ED9172
:101FE000FC910190F081E02D61E609954091190581
:101FF000B601C6010E94030D0E94100C60E487E048
:102000000E941A0C86E0F601DE01519601900D92B5
:102010008A95E1F78989823109F435C10CF041C014
:10202000883009F4D4C0F4F4833009F4ACC074F4FB
:10203000813009F495C0823009F0DEC15F924F9281
:102040001F9287E78F9381E791E026C1863009F4DC
:10205000A8C00CF0B5C0843009F0CEC16A897B8974
:1020600083E70EC18C3009F4C6C07CF48A3009F4D1
:10207000B2C08B3009F0C0C16A897B89072E000C81
:10208000880B990B0E94E607B7C18E3009F4C5C0D2
:102090000CF4B5C08F3009F0AFC16A897B8984E642
:1020A00084C1833209F484C1CCF5873109F42FC18E
:1020B0001CF5853109F4F7C0863109F09DC1809186
:1020C000A9039091AA03A091AB03B091AC037FE068
:1020D000B595A795979587957A95D1F726E0F8015C
:1020E00011922A95E9F728E12983582F8A839B8347
:1020F000AC83BD8348E104C18F3109F44FC1823202
:1021000009F450C1883109F077C18D898F938C898A
:102110008F938B898F938A898F932CC1873209F48F
:1021200097C0ACF4853209F48AC00CF08DC0809160
:10213000B6039091B70326E0D8011D922A95E9F7DE
:1021400026E22983582F8A839B8346E276C0893210
:1021500009F493C00CF48CC0883709F42CC14CC12D
:1021600086E0F80111928A95E9F782E0898385E09B
:10217000EAE9F1E0DE01129601900D928A95E1F70D
:1021800049815A81BDC086E0D8011D928A95E9F740
:1021900084E0898381E0582F8A831B8244E060E0D9
:1021A000B0C09091910320919203F80111928A9509
:1021B000E9F788E08983592F9A832B8348E056C03A
:1021C0006A897B8980E090E00E94170815C16A89BE
:1021D0007B898DE655C0809195039091960326E00A
:1021E000D8011D922A95E9F72CE02983582F8A837C
:1021F0009B834CE022C06A897B8981E6D6C00E941D
:10220000E50A26E0F80111922A95E9F72FE02983E3
:10221000582F8A839B834FE010C08A899B899AA399
:1022200089A3BE016F5D7F4F80E290E00E94C40BE6
:102230008A899B890E94EF06DFC0692F62C08A8964
:102240009B890E94DC07D8C06A897B8986E618C012
:102250009091B8032091B90336E0F80111923A95B4
:10226000E9F78983592F9A832B8347E2622F49C06C
:102270008A899B890E94CF07BFC06A897B898AE6C9
:102280000E945D07B9C08B898F938A898F931F92B3
:1022900089E68F9387E791E09F938F931F930F9326
:1022A0000E94641572C080914503853121F010921F
:1022B00083031092820385E180934503D201E0916C
:1022C0008203F0918303EA5BFC4FCD0184199509E9
:1022D00006970CF091C08D91819380818111F5CF8B
:1022E00086E493E0009709F487C09F938F931F9231
:1022F00085E08F931F928EE68F938EE791E03FC02B
:102300006B817C818D819E810E942C0775C08A889B
:102310009B88AC88BD886FE0880C991CAA1CBB1CEC
:102320006A95D1F78091B50381111CC08092A503F5
:102330009092A603A092A703B092A8038092A10353
:102340009092A203A092A303B092A4038092A90347
:102350009092AA03A092AB03B092AC0381E0809369
:10236000B50304C0C501B4010E944508BF92AF92F5
:102370009F928F921F928FE68F9386E891E09F93B2
:102380008F931F930F930E946415C8010E948606C5
:102390000FB6F894DEBF0FBECDBF2EC06A897B8911
:1023A00081E703C06A897B8984E70E948F0724C084
:1023B0001092B50321C0EA89E750EF3128F4F0E02C
:1023C000E15EFE4F808101C08FE5282F082E000CB2
:1023D000330B3F938F938DE891E09F938F931F93DF
:1023E0000F930E946415C8010E9486060F900F90FB
:1023F0000F900F900F900F908091150581110DC0D7
:102400008091430390914403209141033091420312
:102410008217930709F055C204C00E944F0D88230C
:1024200079F343EC842E43E0942EAA24A39456E03F
:10243000B52E85EC94E00E94F301181619060CF0F5
:10244000FFC185EC94E00E94FC022091C104309110
:10245000C204A9014F5F5F4F5093C2044093C1046F
:10246000203831050CF0DFC1F901EF53FC4F8A3001
:1024700009F0D7C11082E091C1034E2FEE0F550B2A
:10248000660B770BFA01E154F109E833F10508F026
:10249000C5C1EB59FF4F0C940915233031051CF4CD
:1024A00083E991E0C2C1C90102974091C3045091F0
:1024B000C4049C01240F351F213831052CF080E520
:1024C00091E00E945C0617C0A3ECB3E04F5B5B4F4A
:1024D000FA012D9121939F01241B350B28173907F1
:1024E000C4F32091C3043091C404820F931F9093CE
:1024F000C4048093C30487E591E00E945C0697C101
:10250000AAE9B1E0BF93AF931F9286E78F93A1E74B
:10251000B1E0BF93AF9351C161E070E082E764C165
:10252000D801EB2D1D92EA95E9F7A98241E09AC006
:10253000D801EB2D1D92EA95E9F783E0898343E00A
:1025400091C0D801EB2D1D92EA95E9F78BE18983C3
:102550004BE15A816B817C818D819E810E942C0789
:1025600085E759C1D801EB2D1D92EA95E9F78DE178
:1025700089834DE177C0D801EB2D1D92EA95E9F7EB
:102580008EE18983DF92CF92FF92EF929F928F929A
:102590000E9487158F89988D582F8A839B83498144
:1025A000692F7C818D819E810E942C0781E57EC0F0
:1025B000D801EB2D1D92EA95E9F780E1898340E18E
:1025C00051C089E428C1D801EB2D1D92EA95E9F7A5
:1025D00083E1898343E146C08EE41DC10E94E50A80
:1025E000BC0183E601C10E94B90C3C0198A38F8F06
:1025F000BE01615E7F4F80E290E00E94C40BC30188
:102600000E94EF0683E407C1D801EB2D1D92EA95E5
:10261000E9F78DE089834DE025C01F930F93FF926A
:10262000EF929F928F920E94871589819A81D8019B
:10263000EB2D1D92EA95E9F72EE02983582F8A8326
:102640009B834EE0692F7C818D819E810E942C07A7
:1026500084E42CC0D801EB2D1D92EA95E9F7F0E255
:10266000F98340E25A816B817C818D819E810E9439
:102670002C07DDC01F930F93FF92EF929F928F92D2
:102680000E94871589819A81D801EB2D1D92EA95C8
:10269000E9F7F1E2F983582F8A839B8341E2692F9E
:1026A0007C818D819E810E942C0784E50E94BE065C
:1026B0000F900F900F900F900F900F90B8C06091F7
:1026C0009103709192038DE68FC00E94B90CBC01FA
:1026D00080E090E00E9417088DE49DC06091950312
:1026E0007091960381E680C00E94B90CBC0180E025
:1026F00090E00E94E60781E48EC088E78CC080915C
:10270000A9039091AA03A091AB03B091AC03BC01C3
:10271000CD013FE095958795779567953A95D1F7E7
:102720008FE662C01F930F93FF92EF929F928F925A
:102730000E94871569817A81CB01770FAA0BBB0BA9
:10274000BC01CD012FE0660F771F881F991F2A95C6
:10275000D1F70F900F900F900F900F900F90209146
:10276000B503222319F00E9445081AC06093A503FF
:102770007093A6038093A7039093A8036093A1038B
:102780007093A2038093A3039093A4036093A9037F
:102790007093AA038093AB039093AC03A092B5030C
:1027A0008FE439C08091B7038F938091B6038F93E4
:1027B0001F9226E62F933F922F921F930F930E9412
:1027C0006415C8010E9486060FB6F894DEBF0FBEDE
:1027D000CDBF2DC00E94B90C0E94DC0786E41BC04F
:1027E0000E94090BBC018AE60E948C0620C00E9450
:1027F000B90C3C019E8F8D8FBE01635E7F4F84E2DA
:1028000090E00E94C40BC3010E94CF078AE403C07A
:102810000E94A60A89E50E94BE0609C08FE991E0E0
:1028200004C0808308C086EA91E00E948606109268
:10283000C2041092C1041092BE031092BD03F9CDE0
:10284000A090C304B090C4041092C4041092C304B6
:10285000A114B10471F18091BD039091BE03892B45
:1028600041F583E0682E712C812C912CE091C504F8
:10287000F091C604B4016F5B7B4F0280F381E02DC1
:10288000A50185EC94E00995880E991EA81AB90A4D
:102890001A141B044CF0892861F481E090E09093B5
:1028A000BE038093BD0305C091E0691A7108F1F67B
:1028B000F2CF80E090E0892B09F46DCB0E940000FC
:1028C00062CB019660E470E00E94D61490934403BA
:1028D00080934303A6CDE5ECF4E01382128288EEE8
:1028E00093E0A0E0B0E084839583A683B78382E47D
:1028F00091E0918380838FEF9FEF95878487E5E157
:10290000F5E088E0818387E0828381E0838380E152
:1029100084831682158280E090E8A0E0B0E0809386
:10292000350590933605A0933705B093380580930D
:10293000390590933A05A0933B05B0933C058093ED
:102940001C0590931D05A0931E05B0931F05809351
:102950003D0590933E05A0933F05B0934005089533
:10296000F999FECF92BD81BDF89A992780B5089557
:10297000262FF999FECF1FBA92BD81BD20BD0FB69B
:10298000F894FA9AF99A0FBE01960895DB018F9395
:102990009F930E940F15BF91AF91A29F800D911D33
:1029A000A39F900DB29F900D1124089597FB072EC1
:1029B00016F4009407D077FD09D00E941A1507FC81
:1029C00005D03EF4909581959F4F0895709561953F
:1029D0007F4F0895052E97FB1EF400940E94011569
:1029E00057FD07D00E942E1507FC03D04EF40C941F
:1029F000011550954095309521953F4F4F4F5F4FB2
:102A0000089590958095709561957F4F8F4F9F4F5A
:102A10000895EE0FFF1F0590F491E02D09940E9498
:102A20005015A59F900DB49F900DA49F800D911DF2
:102A300011240895AA1BBB1B51E107C0AA1FBB1F8D
:102A4000A617B70710F0A61BB70B881F991F5A953A
:102A5000A9F780959095BC01CD010895A1E21A2EA9
:102A6000AA1BBB1BFD010DC0AA1FBB1FEE1FFF1F32
:102A7000A217B307E407F50720F0A21BB30BE40B82
:102A8000F50B661F771F881F991F1A9469F76095C9
:102A90007095809590959B01AC01BD01CF01089583
:102AA000A29FB001B39FC001A39F700D811D11248F
:102AB000911DB29F700D811D1124911D089581E01B
:102AC00090E0F8940C94711BAEE0B0E0EAE6F5E11A
:102AD0000C94481B0D891E8986E08C831A83098318
:102AE0008FEF9FE79E838D83AE01475E5F4F6F89B7
:102AF000788DCE0101960E94A0152F813885F801AE
:102B0000E20FF31F10822E96E4E00C94641BAEE0FB
:102B1000B0E0EDE8F5E10C944A1B85E08C838B89ED
:102B20009C899A838983AE01495E5F4F6D897E8956
:102B3000CE0101960E94F2182E96E2E00C94661BDC
:102B4000ACE0B0E0E6EAF5E10C943A1B7C016B01E5
:102B50008A01FC0117821682838181FFBDC1CE01EB
:102B600001964C01F7019381F60193FD859193FF46
:102B700081916F01882309F4ABC1853239F493FD4B
:102B8000859193FF81916F01853229F4B70190E01F
:102B90000E94881AE7CF512C312C20E02032A0F47B
:102BA0008B3269F030F4803259F0833269F420615D
:102BB0002CC08D3239F0803339F4216026C0226078
:102BC000246023C0286021C027FD27C030ED380FC6
:102BD0003A3078F426FF06C0FAE05F9E300D1124EB
:102BE000532E13C08AE0389E300D1124332E2062FC
:102BF0000CC08E3221F426FD6BC1206406C08C36D9
:102C000011F4206802C0883641F4F60193FD8591E5
:102C100093FF81916F018111C1CF982F9F7D9554B2
:102C2000933028F40C5F1F4FFFE3F9830DC0833608
:102C300031F0833771F0833509F05BC022C0F801B1
:102C4000808189830E5F1F4F44244394512C54018B
:102C500015C03801F2E06F0E711CF801A080B18040
:102C600026FF03C0652D70E002C06FEF7FEFC50146
:102C70002C870E943F1A2C0183012C852F77222E4E
:102C800017C03801F2E06F0E711CF801A080B1800E
:102C900026FF03C0652D70E002C06FEF7FEFC50116
:102CA0002C870E94341A2C012C852068222E830147
:102CB00023FC1BC0832D90E048165906B0F4B701E1
:102CC00080E290E00E94881A3A94F4CFF50127FC44
:102CD000859127FE81915F01B70190E00E94881ADB
:102CE00031103A94F1E04F1A51084114510471F730
:102CF000E5C0843611F0893639F5F80127FF07C0A1
:102D000060817181828193810C5F1F4F08C0608157
:102D10007181072E000C880B990B0E5F1F4F2F76C9
:102D2000722E97FF09C090958095709561957F4FA1
:102D30008F4F9F4F2068722E2AE030E0A4010E943E
:102D4000D91AA82EA81844C0853729F42F7EB22E90
:102D50002AE030E025C0F22FF97FBF2E8F36C1F078
:102D600018F4883579F0B4C0803719F0883721F02D
:102D7000AFC02F2F2061B22EB4FE0DC08B2D84600A
:102D8000B82E09C024FF0AC09F2F9660B92E06C036
:102D900028E030E005C020E130E002C020E132E070
:102DA000F801B7FE07C060817181828193810C5F59
:102DB0001F4F06C06081718180E090E00E5F1F4F61
:102DC000A4010E94D91AA82EA818FB2DFF777F2EE8
:102DD00076FE0BC0372D3E7FA51450F474FE0AC05A
:102DE00072FC08C0372D3E7E05C0BA2C372D03C0BB
:102DF000BA2C01C0B52C34FF0DC0FE01EA0DF11D47
:102E00008081803311F4397E09C032FF06C0B3944B
:102E1000B39404C0832F867809F0B39433FD13C0B4
:102E200030FF06C05A2CB31418F4530C5B18B32CA3
:102E3000B31468F4B70180E290E03C870E94881ADE
:102E4000B3943C85F5CFB31410F43B1801C0312C7A
:102E500034FF12C0B70180E390E03C870E94881ADB
:102E60003C8532FF17C031FD03C088E790E002C007
:102E700088E590E0B7010CC0832F867859F031FFC8
:102E800002C08BE201C080E237FD8DE2B70190E025
:102E90000E94881AA51438F4B70180E390E00E94DC
:102EA000881A5A94F7CFAA94F401EA0DF11D808193
:102EB000B70190E00E94881AA110F5CF332009F4E1
:102EC00051CEB70180E290E00E94881A3A94F6CF82
:102ED000F7018681978102C08FEF9FEF2C96E2E188
:102EE0000C94561B20FD09C0FC0123FD05C022FFE8
:102EF00002C07383628351834083089544FD10C0F0
:102F000046FD10C0DB01FC01AA0FBB1FEE1FFF1F17
:102F10001094D1F76A0F7B1F8E1F9F1F31E003C0F3
:102F200033E001C034E0660F771F881F991F3150CE
:102F3000D1F7620F711D811D911D08950F931F938D
:102F4000CF93DF938C01C8010E944A1AEC0197FDD0
:102F500008C00E94201A892BB1F7B801CE010E9447
:102F6000C01ACE01DF91CF911F910F910895A1E07A
:102F7000B0E0EDEBF7E10C94401B8C01C62E7A011A
:102F800029830E944A1AAC01552729814B325105E9
:102F900021F04D32510569F42068CA94C11002C075
:102FA00080E076C0C80129830E944A1A298197FDD2
:102FB000F7CF322F3D7FD32E322F307349F5803338
:102FC00039F5BB24BA94BC0C09F44EC0C80129835E
:102FD0000E944A1A298197FD47C0382F3F7D383516
:102FE00069F48D2D8264D82ECA94CA94CC20E1F164
:102FF000C8010E944A1A97FF0BC036C026FF04C0C2
:103000002D2D2260D22E03C03D2D3261D32ECB2C2C
:10301000812C912C540120ED280F283080F0D4FE13
:1030200004C0B8010E94C01A1CC02A3040F0D6FE6D
:10303000F8CF2F7D3FEE320F363098F727504D2DC9
:10304000C501B4010E947E174B015C018D2D826089
:10305000D82ECA94CC2059F0C8010E944A1A97FF72
:10306000DACFD1FC04C09CCF812C912C5401D7FE27
:1030700008C0B094A09490948094811C911CA11CD1
:10308000B11C2D2DB501A401C7010E94721781E06A
:103090002196ECE00C945C1BA1E2B0E0E2E5F8E1E3
:1030A0000C943E1B5C017A01CE0101966C0180E21A
:1030B000F60111928A95E9F7F501838040E050E02E
:1030C000912C712C70E0A1E0B0E0F90183FC8591B6
:1030D00083FE81918F01982F9F01811103C080E0B1
:1030E00090E07CC08E3519F44115510549F1E72F68
:1030F000F0E0E417F5073CF48D3559F18D3219F401
:10310000772001F103C0711001C0982E892F869598
:10311000869586958601080F111D892F87703D01C0
:1031200001C0660C8A95EAF7F801808186298083C0
:10313000991559F0991510F49F5FE8CF9150E6CF9B
:1031400071E004C07724739401C0712C4F5F5F4F0E
:10315000BCCF772019F08E8180628E83711103C0FD
:103160009924939416C0F6019E012F5D3F4F8081F4
:1031700080958193E217F307D1F7F2CFE114F104C0
:1031800029F0F7018083C70101967C016150912CE1
:10319000F9F0C50169A30E944A1A69A197FD16C0FA
:1031A000282F269526952695F601E20FF11D208100
:1031B00030E0AC014770552702C0359527954A95F8
:1031C000E2F720FDDBCFB5010E94C01A911087CF36
:1031D000E114F10411F0F7011082C801A196EEE0AC
:1031E0000C945A1B4F925F927F928F929F92AF9254
:1031F000BF92CF92DF92EF92FF920F931F93CF93E4
:10320000DF931F92CDB7DEB76C012B015A01FC0191
:1032100017821682712CF601F380F201F3FC85917E
:10322000F3FE8191382F2F01882309F4F3C090E039
:1032300039830E94201A3981892B21F0C6010E940E
:103240009E17E9CF353241F4F201F3FC3591F3FEDC
:1032500031912F01353269F4C60139830E944A1A2F
:10326000398197FDD5C03817B1F2B6010E94C01A56
:10327000D1C03A3239F4F3FC3591F3FE31912F018C
:1032800051E001C050E0420110E020ED230F2A3050
:1032900090F45260612F70E080E090E040E259834A
:1032A0000E947E17162FF401F3FC3591F3FE319145
:1032B0004F015981EACF052F232F240151FF03C06D
:1032C000111102C0A7C01FEF383619F03C3659F073
:1032D00011C0F401F3FC2591F3FE21912F01283652
:1032E00049F4052F08600460F201F3FC2591F3FE18
:1032F00021912F01222309F48DC0622F70E08AE30F
:1033000091E029830E94291A2981892B09F482C01E
:1033100000FD07C0F501E080F180C50102965C0167
:1033200002C0E12CF12C2E3651F4F6014681578172
:1033300060E070E0202FC7010E9472176CCF233627
:1033400091F401FF11E0C6010E944A1A97FD60C086
:10335000E114F10429F0F7018083C70101967C0193
:10336000115089F751C02B3559F49201A701612FF3
:10337000C6010E944C182C01892B09F045C03FC0A2
:10338000C60129830E949E17298197FD41C02F36CF
:1033900059F128F4243631F1293649F127C0233771
:1033A00069F02537F9F022C0E114F10429F0F701A2
:1033B0008082C70101967C01115071F0C6010E9404
:1033C0004A1A4C0197FD08C00E94201A892B61F30C
:1033D000B601C4010E94C01AE114F104A9F0F7017A
:1033E000108212C0006203C0006101C00064202F7F
:1033F000A701612FC6010E94B717811105C0F60110
:103400008381807329F406C000FD05CF739403CF38
:10341000772019F0872D90E002C08FEF9FEF0F907B
:10342000DF91CF911F910F91FF90EF90DF90CF90A0
:10343000BF90AF909F908F907F905F904F90089536
:1034400091110C94371B803219F089508550C8F7C0
:103450000895FC010590061621F00020D9F7C0015F
:1034600008953197CF010895FC0105906150704097
:103470000110D8F7809590958E0F9F1F0895FC013D
:103480006150704001900110D8F7809590958E0F93
:103490009F1F0895CF93DF93EC012B8120FF33C052
:1034A00026FF0AC02F7B2B838E819F8101969F83ED
:1034B0008E838A8190E029C022FF0FC0E881F981C4
:1034C0008081082E000C990B009719F420622B8341
:1034D0001AC03196F983E8830EC0EA85FB85099509
:1034E00097FF09C02B81019611F080E201C080E1B5
:1034F000822B8B8308C02E813F812F5F3F4F3F83FC
:103500002E83992702C08FEF9FEFDF91CF9108950F
:103510000F931F93CF93DF93FB01238121FD03C002
:103520008FEF9FEF28C022FF16C04681578124816C
:1035300035814217530744F4A081B1819D012F5F6B
:103540003F4F318320838C93268137812F5F3F4FFC
:103550003783268310C0EB01092F182F0084F185D3
:10356000E02D0995892BE1F68E819F8101969F833D
:103570008E83812F902FDF91CF911F910F9108950E
:10358000FB01238120FF12C026FD10C08F3F3FEFBB
:10359000930761F082832F7D206423832681378106
:1035A0002150310937832683992708958FEF9FEFA4
:1035B0000895FA01AA27283051F1203181F1E894C9
:1035C0006F936E7F6E5F7F4F8F4F9F4FAF4FB1E016
:1035D0003ED0B4E03CD0670F781F891F9A1FA11D11
:1035E000680F791F8A1F911DA11D6A0F711D811D12
:1035F000911DA11D20D009F468943F912AE0269FD7
:1036000011243019305D3193DEF6CF010895462F35
:103610004770405D4193B3E00FD0C9F7F6CF462F16
:103620004F70405D4A3318F0495D31FD405241937F
:1036300002D0A9F7EACFB4E0A6959795879577953C
:103640006795BA95C9F700976105710508959B01C3
:10365000AC010A2E06945795479537952795BA954C
:10366000C9F7620F731F841F951FA01D0895992726
:10367000882708952F923F924F925F926F927F9288
:103680008F929F92AF92BF92CF92DF92EF92FF9272
:103690000F931F93CF93DF93CDB7DEB7CA1BDB0B1E
:1036A0000FB6F894DEBF0FBECDBF09942A883988C3
:1036B00048885F846E847D848C849B84AA84B984CA
:1036C000C884DF80EE80FD800C811B81AA81B981D6
:1036D000CE0FD11D0FB6F894DEBF0FBECDBFED01EA
:0636E0000895F894FFCFED
:1036E600FFFFFFFF00E1000000000000190100C11C
:1036F60080810000000000000012021F0611024D2A
:103706005F5F5F415F5F445F5F495F5F4E5F5F4F33
:103716005F5F5F75785F5F5F5F5F5F5F5F4600005B
:103726000000D2015402D402E801F301FC02D802DF
:10373600455252203031000A0025633D256400259C
:1037460063204F4B0025633D257500736572763106
:103756000025633D25730025633D256C75002563B3
:103766003D252E2A730025633D256C64004F4B20B2
:1037760025630045525220303400322E3233004544
:1037860052522030330045525220303200455252B8
:063796003A20256400004A
:00000001FF
