:100000000C9429010C9451010C9451010C94510150
:100010000C9451010C9451010C9451010C94510118
:100020000C9451010C9451010C941F150C94B113B4
:100030000C9451010C9451010C9451010C945101F8
:100040000C9451010C9451010C9451010C945101E8
:100050000C9453010C9451010C9451010C94D31540
:100060000C9451010C9451010C9451010C945101C8
:100070000C9451010C9451010C9451010C945101B8
:100080000C9451010C9451010C9451010C945101A8
:100090000C9451010C9451010C9451010C94510198
:1000A0000C9451010C9451010C945101E40C1F0D5E
:1000B000730C8D0C1F0D1F0D1F0D1F0D5D0C1F0DE3
:1000C0001F0D1F0DD50C6A0CFE0C1F0D390C1F0DDA
:1000D0001F0DB80C1F0D1F0D1F0D1F0D1F0D1F0D28
:1000E0001F0D1F0D1F0D1F0D1F0D1F0DE00C1F0DF0
:1000F0006C0C820C230D1F0D1F0DD80B520C1F0D05
:100100001F0D230DD10C5F0CF10C230D2E0C010CD7
:10011000100CA60C1B0CE60B050CEF0CC80FCB0F3C
:10012000BA0FBE0FC40FEC0FEC0FEC0FCF0FD30FB5
:10013000D70FDD0FE10FEC0FE70F00000002000901
:100140000F0000030401000C00000000000000008C
:1001500000000000000000000004080201104080C0
:10016000401020408040800802040180402010029E
:1001700001108010204040200404040404030405FE
:100180000202020204030202020206060606060634
:100190000404020202040400000000250028002BD1
:1001A000002E00310000000000240027002A002D4E
:1001B000003000080B0002020201000904000001E7
:1001C000020200000524001001052401010104249D
:1001D00002060524060001070581031000400904FA
:1001E0000100020A000000070502024000000705A6
:1001F000830240000012010002EF02014041233659
:1002000080000101020301120100020000004041D0
:1002100023368000010102030141726475696E6F2B
:10022000204C4C430041726475696E6F204C656FC1
:100230006E6172646F00040309046364696E6F7019
:10024000737578585B00D0010506AD0A670D970FEE
:10025000531111241FBECFEFDAE0DEBFCDBF11E096
:10026000A0E0B1E0E6EAFEE302C005900D92A03BFB
:10027000B107D9F725E0A0EBB1E001C01D92A93488
:10028000B207E1F712E0C2E5D2E004C02297FE0116
:100290000E94D318C634D107C9F70E94C0150C9428
:1002A000511F0C9400001F920F920FB60F92112451
:1002B0002F933F934F935F936F937F938F939F936E
:1002C000AF93BF93EF93FF93E091B301F091B4012B
:1002D0000995FF91EF91BF91AF919F918F917F9180
:1002E0006F915F914F913F912F910F900FBE0F90A3
:1002F0001F9018950C94310440E051EE6FEF7FEFA2
:1003000088ED94E00E944D11539A579A529A259A7B
:10031000569A3F9A809A819A8898899A0E9459029F
:100320000E94940A61E070E080E090E00E94B003D7
:1003300061E070E080E090E00E94A60384E690E037
:100340000E94A00384E690E00E949A03E1E8F0E0B6
:1003500080E1808310928000A6E8B0E082E19AE715
:1003600011969C938E9384E1808321E02093B001C9
:1003700080E395E09093B2018093B10111969C9334
:100380008E9381E180838AE791E09093B40180931A
:10039000B30120936F0008950E94590A0C94DD0167
:1003A00080E090E8A0E0B0E08093B5019093B601C2
:1003B000A093B701B093B8010895AF92BF92CF92C6
:1003C000DF92EF92FF920F931F93CF93DF9388ED0D
:1003D00094E00E948610181619065CF488ED94E0EB
:1003E0000E9496100E944C0D1092BA011092B90111
:1003F000EECF0E94420D6B017C01E701209771F165
:100400008091B9019091BA01892B41F583E0A82E22
:10041000B12C00E010E0E091D804F091D904B801CB
:100420006C0D7D1D0280F381E02DAE0188ED94E01E
:100430000995080F191FC81BD90B1C161D064CF077
:10044000012B61F481E090E09093BA018093B901AF
:1004500005C081E0A81AB108F1F6F2CFDF91CF9183
:100460001F910F91FF90EF90DF90CF90BF90AF90D2
:10047000089581E090E0A0E0B0E08093EA019093DD
:10048000EB01A093EC01B093ED011092E601109204
:10049000E7011092E8011092E9010C94E306109232
:1004A000EA011092EB011092EC011092ED010C9414
:1004B000E50681E08093BB011092BE011092BF015E
:1004C0001092C0011092C1011092C2011092C3019A
:1004D0001092C4011092C5011092C6011092C7017A
:1004E0001092C8011092C9011092BD011092BC0176
:1004F0001092CE011092CF011092D0011092D10132
:100500001092D6011092D7011092D8011092D90101
:100510001092DA011092DB011092DC011092DD01E1
:100520001092DE011092DF011092E0011092E101C1
:100530001092E2011092E3011092E4011092E501A1
:100540001092E6011092E7011092E8011092E90181
:1005500081E090E0A0E0B0E08093EA019093EB01AD
:10056000A093EC01B093ED011092EE010E943902CC
:1005700080E090E00C94E7061092EE0108958091DF
:10058000EE0108956093DE017093DF018093E00136
:100590009093E1016093DA017093DB018093DC01B9
:1005A0009093DD016093E2017093E3018093E40195
:1005B0009093E50181E08093EE0108950F931F93DE
:1005C000CF93DF9300D000D0CDB7DEB70091E2012A
:1005D0001091E3012091E4013091E501601771076A
:1005E0008207930791F069837A838B839C830E94AF
:1005F0004F021092E6011092E7011092E80110926A
:10060000E9019C818B817A8169816093E201709319
:10061000E3018093E4019093E5010F900F900F9018
:100620000F90DF91CF911F910F9108956091E2019A
:100630007091E3018091E4019091E50108950F9399
:100640001F93A091EF01B091F0012091BE01309174
:10065000BF014091C0015091C1010E94E2180E9467
:100660009F172AE037ED43E25CE30E9403180E94E3
:100670006C17161617061806190624F061E070E0CC
:1006800080E090E00091F3011091F4012091F501D8
:100690003091F601DC01CB01081719072A073B0747
:1006A00014F4D901C8018093C2019093C301A093AF
:1006B000C401B093C5011F910F910895A091F1015C
:1006C000B091F2012091CA013091CB014091CC014F
:1006D0005091CD010E94E2180E949F172AE037ED49
:1006E00043E25CE30E9403180E946C17161617067B
:1006F0001806190624F061E070E080E090E0609355
:10070000C6017093C7018093C8019093C901DB01B2
:10071000992788273FE0B595A795979587953A95AE
:10072000D1F78093CE019093CF01A093D001B093E5
:10073000D10108959093F0018093EF010C941F0371
:100740009093F2018093F1010C945E036093BE01DB
:100750007093BF018093C0019093C1010C941F035B
:100760006093CA017093CB018093CC019093CD012B
:100770000C945E036091BE017091BF018091C00135
:100780009091C10108956091CA017091CB0180914F
:10079000CC019091CD0108956091D6017091D7015F
:1007A0008091D8019091D9019B01AC010E948E18D3
:1007B000662770782091CE013091CF014091D00111
:1007C0005091D1010E94B218CA01B9010895409117
:1007D000DE015091DF016091E0017091E1018091B3
:1007E000E2019091E301A091E401B091E501481785
:1007F00059076A077B0749F01092E6011092E7015A
:100800001092E8011092E90128C08091EA019091CC
:10081000EB01A091EC01B091ED01892B8A2B8B2B80
:10082000F1F48091E6019091E701A091E801B09187
:10083000E901813325E79207A105B1051CF00E946B
:1008400039020DC00196A11DB11D8093E601909360
:10085000E701A093E801B093E90180E0089581E009
:1008600008954F925F926F927F928F929F92AF9274
:10087000BF92CF92DF92EF92FF920F931F93CF938D
:10088000DF93CDB7DEB728970FB6F894DEBF0FBE63
:10089000CDBF0E94E7038111A1C1C090E201D090B9
:1008A000E301E090E401F090E5018090DA0190909E
:1008B000DB01A090DC01B090DD01A70196012819B1
:1008C00039094A095B0957FF07C050954095309593
:1008D00021953F4F4F4F5F4F8091BB014090D60114
:1008E0005090D7016090D8017090D90149825A8206
:1008F0006B827C824090DE015090DF016090E001CD
:100900007090E1018823A9F0C814D904EA04FB041B
:100910003CF12D833E834F8358870E94CC032D8169
:100920003E814F8158856217730784079507C4F489
:1009300089C08C149D04AE04BF040CF4AAC02D839E
:100940003E834F8358870E94CC032D813E814F8187
:10095000588562177307840795070CF09AC00EC17B
:100960008091C6019091C701A091C801B091C901C1
:1009700029813A814B815C81281B390B4A0B5B0B27
:10098000DA01C9018093D6019093D701A093D801D1
:10099000B093D9018091D6019091D701A091D8014F
:1009A000B091D901880D991DAA1DBB1D8093DA0154
:1009B0009093DB01A093DC01B093DD01481659064A
:1009C0006A067B06DCF44C145D046E047F04B1F00F
:1009D0008091F3019091F401A091F501B091F6019D
:1009E000840D951DA61DB71D8093DE019093DF0138
:1009F000A093E001B093E1010E94DC068091D60152
:100A00009091D701A091D801B091D901B7FFE6C06C
:100A10001092BB0128960FB6F894DEBF0FBECDBF73
:100A2000DF91CF911F910F91FF90EF90DF90CF90CA
:100A3000BF90AF909F908F907F906F905F904F90FE
:100A40000C94E1068C149D04AE04BF040CF0A2CFFC
:100A50008091C6019091C701A091C801B091C901D0
:100A60004091C2015091C3016091C4017091C501D0
:100A700009811A812B813C81800F911FA21FB31F16
:100A8000481759076A077B070CF07CCFDB01CA01C6
:100A900079CF8091C6019091C701A091C801B09112
:100AA000C90129813A814B815C81820F931FA41F68
:100AB000B51F8093D6019093D701A093D801B0932E
:100AC000D9018091D6019091D701A091D801B09120
:100AD000D901880D991DAA1DBB1D8093DA01909341
:100AE000DB01A093DC01B093DD0184159505A6051B
:100AF000B705DCF44C145D046E047F04B1F0809102
:100B0000F3019091F401A091F501B091F601481A1A
:100B1000590A6A0A7B0A4092DE015092DF01609214
:100B2000E0017092E1010E94DC068091D601909173
:100B3000D701A091D801B091D901181619061A064B
:100B40001B060CF04BC081E08093BB0128960FB6CA
:100B5000F894DEBF0FBECDBFDF91CF911F910F91F3
:100B6000FF90EF90DF90CF90BF90AF909F908F90CD
:100B70007F906F905F904F900C94DF06C814D9045B
:100B8000EA04FB040CF09DCF8091C6019091C7014F
:100B9000A091C801B091C9014091C2015091C30117
:100BA0006091C4017091C501709560955095419513
:100BB0005F4F6F4F7F4F09811A812B813C81081B4A
:100BC000190B2A0B3B0BD901C8010417150726077F
:100BD00037070CF06ECFDB01CA016BCF28960FB63A
:100BE000F894DEBF0FBECDBFDF91CF911F910F9163
:100BF000FF90EF90DF90CF90BF90AF909F908F903D
:100C00007F906F905F904F90089580E090E8A0E013
:100C1000B0E08093F3019093F401A093F501B093B9
:100C2000F60108950F931F93CF93DF93CDB7DEB7EF
:100C3000C456D1090FB6F894DEBF0FBECDBF8111E7
:100C400018C07F936F9385E191E09F938F938E01FE
:100C50000F5F1F4F1F930F930E942F19C8010E940F
:100C6000CE060C9400000F900F900F900F900F90F5
:100C70000F90CC59DF4F0FB6F894DEBF0FBECDBF3B
:100C8000DF91CF911F910F910895CF92DF92EF9254
:100C9000FF920F931F93CF93DF937C018B016A0127
:100CA00097FD07C081E09701240F351F243833409A
:100CB0000CF080E060E070E00E941206E801E01AAB
:100CC000F10ACE01801B910B8C159D053CF4C701E8
:100CD0008C0F9D1F0E94F11D8993F3CFDF91CF915F
:100CE0001F910F91FF90EF90DF90CF900895CF92DA
:100CF000DF92EF92FF920F931F93CF93DF937C01CC
:100D00008B016A0197FD07C081E09701240F351F11
:100D1000243833400CF080E061E070E00E9412065D
:100D2000E80100E010E00C151D054CF46991C801C4
:100D30008E0D9F1D0E94F91D0F5F1F4FF4CFDF9195
:100D4000CF911F910F91FF90EF90DF90CF9008957A
:100D5000CF93DF9300D0CDB7DEB742E050E0BE01C5
:100D60006F5F7F4F0E94450689819A810F900F9097
:100D7000DF91CF910895CF93DF9300D0CDB7DEB749
:100D80007A83698342E050E0BE016F5F7F4F0E942B
:100D900077060F900F90DF91CF910895CF93DF9357
:100DA000EC016991662329F084E893E00E94F91D23
:100DB000F8CFDF91CF9108955E9A5E980895479A93
:100DC0000895479808955B9808955B9A0895813037
:100DD000910569F01CF4892B69F008958230910522
:100DE00021F0039749F45A9803C05A9804C05A9ABC
:100DF0002D9808955A9A2D9A089581ED94E00E94B5
:100E0000120F91E0892708951F93CF93DF93EC0190
:100E100081ED94E00E94120F811107C081ED94E0F2
:100E20000E94000F182F811102C010E005C0BE0102
:100E300081ED94E00E948B0E812FDF91CF911F9165
:100E400008950F931F93CF93DF93CDB7DEB76097CD
:100E50000FB6F894DEBF0FBECDBF282F332727FD76
:100E600030953F938F938DE191E09F938F938E0107
:100E70000F5F1F4F1F930F930E942F19C8010E94ED
:100E8000650D0F900F900F900F900F900F90609640
:100E90000FB6F894DEBF0FBECDBFDF91CF911F918B
:100EA0000F9108950F931F93CF93DF93CDB7DEB7C4
:100EB00060970FB6F894DEBF0FBECDBF7F936F93E0
:100EC000282F332727FD30953F938F9383E291E0BE
:100ED0009F938F938E010F5F1F4F1F930F930E945D
:100EE0002F19C8010E94650D0FB6F894DEBF0FBE22
:100EF000CDBF60960FB6F894DEBF0FBECDBFDF91B9
:100F0000CF911F910F9108950F931F93CF93DF936C
:100F1000CDB7DEB760970FB6F894DEBF0FBECDBF7A
:100F20007F936F935F934F93282F332727FD30953F
:100F30003F938F9389E291E09F938F938E010F5F90
:100F40001F4F1F930F930E942F19C8010E94650D18
:100F50000FB6F894DEBF0FBECDBF60960FB6F89403
:100F6000DEBF0FBECDBFDF91CF911F910F910895CE
:100F70000F931F93CF93DF93CDB7DEB760970FB674
:100F8000F894DEBF0FBECDBF7F936F93282F33271A
:100F900027FD30953F938F9380E391E09F938F934C
:100FA0008E010F5F1F4F1F930F930E942F19C801CF
:100FB0000E94650D0FB6F894DEBF0FBECDBF6096E0
:100FC0000FB6F894DEBF0FBECDBFDF91CF911F915A
:100FD0000F9108950F931F93CF93DF93CDB7DEB793
:100FE00060970FB6F894DEBF0FBECDBF7F936F93AF
:100FF000282F332727FD30953F938F9386E391E089
:101000009F938F938E010F5F1F4F1F930F930E942B
:101010002F19C8010E94650D0FB6F894DEBF0FBEF0
:10102000CDBF60960FB6F894DEBF0FBECDBFDF9187
:10103000CF911F910F9108950F931F93CF93DF933B
:10104000CDB7DEB729970FB6F894DEBF0FBECDBF80
:101050007F936F931F9295E09F93282F332727FD4F
:1010600030953F938F938DE391E09F938F938E0103
:101070000F5F1F4F1F930F930E942F19C8010E94EB
:10108000650D0FB6F894DEBF0FBECDBF29960FB623
:10109000F894DEBF0FBECDBFDF91CF911F910F91AE
:1010A000089590917B03981721F01092B903109244
:1010B000B80380937B03E091B803F091B903E4583F
:1010C000FC4FDB01CD01861B970B069744F48D91F5
:1010D000819380818111F6CF8CE793E0089580E0C1
:1010E00090E008958750863130F4E82FF0E0E45A1C
:1010F000FE4F808108958FE50895CF93DF9300D050
:1011000000D000D0CDB7DEB749835A836B837C8390
:101110008D839E8327E733E0F9018081918146E04A
:10112000489FD001499FB00D1124A950BE4FFE0128
:10113000319601900D924A95E1F7019660E470E0D6
:101140000E949E18F9019183808326960FB6F89429
:10115000DEBF0FBECDBFDF91CF910895CF93DF9358
:1011600000D0CDB7DEB723E229831A829C0121503B
:1011700031092235310510F48093D40421E0AE0109
:101180004F5F5F4F66E081ED94E00E94260F81ED96
:1011900094E00E947E0F0F900F90DF91CF91089501
:1011A000CF92DF92EF92FF920F931F93CF93DF9333
:1011B000CDB7DEB72F970FB6F894DEBF0FBECDBF09
:1011C000142F4A875B876C877D878E879F874E3079
:1011D00009F40EC10CF073C0473009F4EFC0DCF520
:1011E000433009F4B8C00CF5413009F49FC04230D7
:1011F00009F050C1CE010B969F938F931F9287E702
:101200008F9385E491E09F938F938E010F5F1F4F23
:101210001F930F930E942F19C8010E94650D0FB6EE
:10122000F894DEBF0FBECDBF35C1443009F4A8C06D
:10123000463009F02FC10E94BA03FE013196DF014A
:101240001D921A95E9F788E08983562FCB019B837D
:101250008A8348E0B1C04B3009F4BDC0BCF44830CB
:1012600009F4B3C04A3009F015C10E94C303FE015E
:10127000319686E0DF011D928A95E9F78CE089833B
:10128000562FCB019B838A834CE096C04C3009F4E7
:10129000ABC04D3009F0FEC08CE090E00E94A80683
:1012A000FE01319626E0DF011D922A95E9F72FE035
:1012B0002983582F8A839B834FE0692F5BC0483175
:1012C00009F4CDC0BCF4453109F4A1C064F44F3039
:1012D00009F499C0423109F0DDC06B857C8589E64F
:1012E0000E94EA07D7C0463109F44EC0473109F4DD
:1012F0009BC0D0C04F3109F4BFC05CF4493109F440
:10130000B6C04A3109F0C6C08B859C850E94A003F7
:10131000C1C0433209F4B6C0483709F4B6C04232FE
:1013200009F0B8C06B857C8584E7A9C0FE013196C1
:1013300086E0DF011D928A95E9F782E0898385E0E6
:10134000EBE4F1E0DE01129601900D928A95E1F74F
:1013500049815A8131C0FE01319686E0DF011D923C
:101360008A95E9F784E0898381E0582F8A831B827C
:1013700044E060E07C818D819E810E947D088AC06E
:101380006B857C8583E724C00E941603FE0131969D
:1013900026E0DF011D922A95E9F728E129832FE055
:1013A00095958795779567952A95D1F7562F6A83F6
:1013B0007B838C839D8348E16B81DCCF6B857C854F
:1013C00080E090E00E94A60365C06B857C858DE679
:1013D0000E94B8075FC06B857C85882777FD809564
:1013E000982F0E94B00356C06B857C8581E647C06C
:1013F0006B857C858CE090E00E94BB068B859C858C
:101400000E94AE0847C06B857C8584E638C0BE016B
:10141000655F7F4F85E10E9451080097D9F1BC01BB
:101420008EE60E941C0836C0CB84DC84ED84FE84EA
:101430008FE0CC0CDD1CEE1CFF1C8A95D1F70E94BE
:10144000BF02811105C0C701B6010E94C20204C0DB
:10145000C701B6010E94DE02B701A60104C04B8598
:101460005C856D857E858FE60E94840713C08B8521
:101470009C850E949A030EC06B857C8581E70E9443
:10148000520708C00E94BC0205C08B850E947208EA
:101490000E9421072F960FB6F894DEBF0FBECDBF76
:1014A000DF91CF911F910F91FF90EF90DF90CF9040
:1014B0000895CF93DF9300D000D000D0CDB7DEB732
:1014C000CE01019626E0FC0111922A95E9F70E94CF
:1014D0000407882341F049815A816B817C818D8189
:1014E0009E810E94D0080E94FD068823A1F0809171
:1014F000790390917A0320917703309178038217D2
:10150000930749F0019660E470E00E949E18909362
:101510007A038093790326960FB6F894DEBF0FBE48
:10152000CDBFDF91CF91089580E091E09093D704F3
:101530008093D60481ED94E00E94250E60E571E071
:1015400081ED94E00E94550F86E08093D5048CE0F5
:1015500090E00E94A8060C94AE0880E090E8A0E01D
:10156000B0E08093C4039093C503A093C603B093E7
:10157000C70308952091CA043091CB04285B3B4FE8
:10158000FC0140814423F9F04091CA045091CB04FE
:101590004138510544F44F5F5F4F5093CB04409363
:1015A000CA04F90108C01092CB041092CA04E8E4FE
:1015B000F4E082E791E09F012F5F3F4FDC014C9107
:1015C00040830196DDCF08950E94BA0A89E791E031
:1015D0000C94BA0A0F931F93CF93DF93CDB7DEB766
:1015E00060970FB6F894DEBF0FBECDBF282F33270C
:1015F00027FD30953F938F938BE791E09F938F93D7
:101600008E010F5F1F4F1F930F930E942F19C80168
:101610000E94E40A0F900F900F900F900F900F9080
:1016200060960FB6F894DEBF0FBECDBFDF91CF91AD
:101630001F910F910895A091CA04B091CB049B0112
:101640002A0F3B1F213831052CF082E791E00E94E0
:10165000BA0A16C0A85BBB4FFC019F01281B390BBF
:10166000261737071CF421912D93F7CF8091CA04D8
:101670009091CB04860F971F9093CB048093CA045C
:1016800089E791E00C94BA0ACF93DF9300D0CDB7ED
:10169000DEB79E012F5F3F4F3F932F932AE131E04A
:1016A0003F932F9302969F938F930E9451190F900F
:1016B0000F900F900F900F900F9089819A810F904B
:1016C0000F90DF91CF910895CF93DF9300D0CDB7E6
:1016D000DEB79E012F5F3F4F3F932F9323E331E00F
:1016E0003F932F9302969F938F930E9451190F90CF
:1016F0000F900F900F900F900F9089819A810F900B
:101700000F90DF91CF9108950F931F93CF93DF93A5
:10171000CDB7DEB760970FB6F894DEBF0FBECDBF72
:101720007F936F93282F332727FD30953F938F9317
:1017300083E291E09F938F938E010F5F1F4F1F9362
:101740000F930E942F19C8010E94E40A0FB6F89463
:10175000DEBF0FBECDBF60960FB6F894DEBF0FBEE2
:10176000CDBFDF91CF911F910F910895CF92DF925E
:10177000EF92FF920F931F93CF93DF93CDB7DEB716
:1017800060970FB6F894DEBF0FBECDBF4091C8037F
:10179000552747FD5095652F752FFA01E154F10942
:1017A000E833F10508F04BC1EA5AFF4F0C94D11809
:1017B000833091051CF481E891E043C1BC01625083
:1017C00071098AEC93E00E941B0B3DC18BE491E010
:1017D0009F938F931F9286E78F9385E491E09F9369
:1017E0008F938E010F5F1F4F1F930F930E942F192E
:1017F000C8010E94E40A0FB6F894DEBF0FBECDBF49
:1018000022C161E070E082E7F6C0FE01319686E019
:10181000DF011D928A95E9F781E0898341E0A0C04C
:10182000FE01319686E0DF011D928A95E9F783E09B
:10183000898343E095C0FE01319686E0DF011D9269
:101840008A95E9F78BE189834BE15A816B817C8131
:101850008D819E810E947D0885E7EEC0FE01319654
:1018600086E0DF011D928A95E9F78DE189834DE1DC
:1018700077C0FE01319686E0DF011D928A95E9F777
:101880008EE1898388EC93E00E94440B582F8A8371
:101890009B834981692F7C818D819E810E947D0877
:1018A00081E5CAC0FE01319686E0DF011D928A956E
:1018B000E9F780E1898340E153C089E4BDC0FE01BE
:1018C000319686E0DF011D928A95E9F783E18983ED
:1018D00043E146C08EE4B0C08CE090E00E94A806D0
:1018E000BC0183E688C088EC93E00E94640B8C0105
:1018F000BC018CE090E00E94BB06C8010E94AE08CB
:1019000083E49AC0FE01319686E0DF011D928A953C
:10191000E9F78DE089834DE023C088EC93E00E94D5
:10192000440BFE01319626E0DF011D922A95E9F76E
:101930002EE02983582F8A839B834EE0692F7C8178
:101940008D819E810E947D0884E476C0FE013196DF
:1019500086E0DF011D928A95E9F780E2898340E203
:101960005A816B817C818D819E810E947D086BC034
:1019700088EC93E00E94440BFE01319626E0DF01E3
:101980001D922A95E9F721E22983582F8A839B83A8
:1019900041E2692F7C818D819E810E947D0884E5D2
:1019A0004BC00E94BA038DE626C088EC93E00E94EB
:1019B000640BBC0180E090E00E94A6038DE43CC073
:1019C0000E94C30381E617C088EC93E00E94640B79
:1019D000BC0180E090E00E94B00381E42DC088E764
:1019E0002BC00E9416032FE09595879577956795F4
:1019F0002A95D1F78FE60E94840B25C088EC93E0EE
:101A00000E94440B6C01EE24D7FCE094FE2C8FE086
:101A1000CC0CDD1CEE1CFF1C8A95D1F70E94BF0286
:101A2000882329F0C701B6010E94DE0204C0C70165
:101A3000B6010E94C2028FE40E94EA0A04C088E84C
:101A400091E00E94E40A60960FB6F894DEBF0FBEE4
:101A5000CDBFDF91CF911F910F91FF90EF90DF905D
:101A6000CF900895FB01E853FC4F8A3049F410826F
:101A7000CB010E94B60B1092C9041092C8040895BD
:101A800080830895EAECF4E0208131811182108294
:101A900068E474E0C90108956091C8047091C904B4
:101AA0009B012F5F3F4F3093C9042093C8046038D7
:101AB000710514F40C94320D8FE891E00E94E40A51
:101AC0001092C9041092C80408950C94E40A80E0AE
:101AD00090E8A0E0B0E08093CC049093CD04A09374
:101AE000CE04B093CF040895CF93CFB7F8948091EC
:101AF000D004811127C0E9E8F1E08491EAE6F1E041
:101B00009491E82FF0E0EE0FFF1FEB55FE4FA591EB
:101B1000B4918C91892321F461E081E10E94261027
:101B200061E081E10E94ED0F8CB580618CBD8CB5C8
:101B300080648CBD61E08FE00E94ED0F61E080E188
:101B40000E94ED0F8091D0048F5F8093D004CFBFAF
:101B5000CF910895FC0188E0818387E0828381E052
:101B6000838380E18483168215820895AF92BF92A9
:101B7000DF92EF92FF920F931F93CF93DF931F9209
:101B8000CDB7DEB77C01D62E8A015B018A2D8D1977
:101B90008217A8F4D70115968D919C911697F5019F
:101BA00061915F01DC01ED91FC910190F081E02DEC
:101BB00029830995F80181938F012981E7CF0F903F
:101BC000DF91CF911F910F91FF90EF90DF90BF9029
:101BD000AF900895CF92DF92FF920F931F93CF9310
:101BE000DF931F92CDB7DEB78C01F62E6B018C2DE3
:101BF0008F19841790F4D80115968D919C911697A2
:101C0000F60161916F01DC01ED91FC910190F08191
:101C1000E02D498309954981EACF0F90DF91CF915B
:101C20001F910F91FF90DF90CF90089561E0FC012C
:101C300081810C94261060E0FC0181810C942610B7
:101C400061E0FC0182810C942610CF93DF93EC01BC
:101C500061E089810E94ED0F61E08A810E94ED0FB1
:101C6000CE010E941B0ECE010E94200E8D819E810E
:101C7000DC01ED91FC910280F381E02DDF91CF91A9
:101C8000099460E0FC0182810C9426100F931F934D
:101C9000CF93DF9300D0CDB7DEB78C014A83698341
:101CA0000E94410ED80115968D919C911697DC01EA
:101CB000ED91FC9169816F7160620190F081E02D7E
:101CC0000995F80185819681DC01ED91FC910190E7
:101CD000F081E02D4A81642F0995C8010F900F9083
:101CE000DF91CF911F910F910C94200ECF93DF9332
:101CF000EC0118820E941B0E4BE060E0CE010E94B6
:101D0000460ECE010E94160E40E367E0CE01DF9141
:101D1000CF910C94460E0F931F93CF93DF93EC015A
:101D20008B010E94410E8D819E81DC01ED91FC9121
:101D30000190F081E02D61E609952C81A801B801A0
:101D4000CE010E94B60DCE010E94200E40E467E055
:101D5000CE01DF91CF911F910F910C94460EEF921F
:101D6000FF920F931F93CF93DF9300D0CDB7DEB7D1
:101D70007C018A012A8369830E94410ED70115964E
:101D80008D919C911697DC01ED91FC9169816F71A9
:101D90000190F081E02D09952A81A801B801C701C1
:101DA0000E94B60DC7010F900F90DF91CF911F9148
:101DB0000F91FF90EF900C94200ECF93DF931F9222
:101DC000CDB7DEB721E0AE014F5F5F4F67E10E9404
:101DD000AF0E898181700F90DF91CF910895CF93DD
:101DE000DF931F92CDB7DEB721E0AE014F5F5F4FAB
:101DF00067E00E94AF0E89810F90DF91CF91089527
:101E0000CF93DF93EC010E94EF0E86FD06C0CE015A
:101E10000E94DD0E91E0982701C091E0892FDF91AB
:101E2000CF910895CF93DF93EC018881882341F00F
:101E3000CE010E94EF0E807329F0CE010E94760E33
:101E400080E001C081E0DF91CF910895EF92FF9291
:101E50000F931F93CF93DF9300D0CDB7DEB77C01F4
:101E60008A012A8369830E94410ED70115968D91BC
:101E70009C911697DC01ED91FC9169816F71606214
:101E80000190F081E02D09952A81422FB801C70108
:101E90000E94EA0DC7010F900F90DF91CF911F9123
:101EA0000F91FF90EF900C94200E0F931F93CF9300
:101EB000DF93EC018B010E941B0E25E0A8016BE073
:101EC000CE010E94260FCE01DF91CF911F910F917D
:101ED0000C94160ECF93DF93EC010E94410E8D817E
:101EE0009E81DC01ED91FC910190F081E02D62EE8C
:101EF0000995CE01DF91CF910C94200ECF93DF9303
:101F0000EC014B8165E00E94460E4C8161E1CE01FF
:101F10000E94460E4C8162E1CE010E94460ECE0127
:101F20000E94760ECE01DF91CF910C946A0F81ED65
:101F300094E00C94AA0D6EBD00000DB407FEFDCF19
:101F40008EB5089508950E94740D8CB5837F8CBD65
:101F50008CB58C7F81608CBD8DB58E7F8DBD0895D5
:101F600090E0FC013197EF30F105B0F5E257FF4FFB
:101F70000C94D118809180008F7703C080918000ED
:101F80008F7D80938000089580918000877FF9CFB6
:101F900084B58F7702C084B58F7D84BD089580910C
:101FA00090008F7707C0809190008F7D03C0809153
:101FB0009000877F8093900008958091C0008F7774
:101FC00003C08091C0008F7D8093C00008958091F0
:101FD000C200877F8093C2000895CF93DF9390E083
:101FE000FC01E75AFE4F2491FC01E858FE4F849112
:101FF000882349F190E0880F991FFC01EB55FE4FB3
:10200000A591B49189569E4FFC01C591D4919FB77B
:10201000611108C0F8948C91209582238C9388815B
:1020200082230AC0623051F4F8948C91322F30959B
:1020300083238C938881822B888304C0F8948C91AD
:10204000822B8C939FBFDF91CF9108950F931F93A5
:10205000CF93DF931F92CDB7DEB7282F30E0F90181
:10206000E65CFE4F8491F901E75AFE4F1491F901A5
:10207000E858FE4F04910023C9F0882321F06983BA
:102080000E94B00F6981E02FF0E0EE0FFF1FE956CC
:10209000FE4FA591B4919FB7F8948C91611103C044
:1020A0001095812301C0812B8C939FBF0F90DF91EE
:1020B000CF911F910F910895CF93DF931F92CDB7CA
:1020C000DEB76983DC01ED91FC910280F381E02DA4
:1020D00041E050E0BE016F5F7F4F09950F90DF91A7
:1020E000CF910895CF93DF93EC018C859D8597FF69
:1020F00005C082E00E9481129D878C878C859D851A
:10210000DF91CF91089583E00C941515FC0184852F
:10211000958597FD06C082E00E94291290E0019605
:10212000089582E00E94291290E00895FC018485C0
:10213000958597FD05C02FEF3FEF358724870895DC
:1021400082E00C948112CF93DF93EC0180910D011A
:10215000882331F083E00E94B2121816190634F079
:1021600081E090E09B838A8380E090E0DF91CF91D3
:102170000895FC0120812E5F208342E450E063EB50
:1021800071E080E80C944D13FC0121818081813A3B
:1021900059F4213209F04BC047E050E066E071E0AD
:1021A00080E00E944D135EC0813209F040C02332AE
:1021B00089F4838190E0982F88273281832BA0E0D7
:1021C000B0E08093020190930301A0930401B093C7
:1021D00005010FC0203239F467E070E086E091E03D
:1021E0000E947E1309C0223221F4828180930D0166
:1021F00003C02D7F2032B1F580912805811103C0E5
:10220000E0E0F8E002C0EEEFFAE080910601909184
:102210000701A0910801B0910901803B9440A105FC
:10222000B10511F580910D0180FF03C01DC080E054
:102230000895EE3F2AE0F20731F08081918190937A
:10224000FF0A8093FE0A87E797E7918380832BE05C
:1022500088E190E00FB6F894A895809360000FBED7
:102260002093600081E0089588E10FB6F894809390
:102270006000109260000FBEA895EE3F8AE0F8075C
:1022800039F08091FE0A9091FF0A91838083EACF12
:102290001092FF0A1092FE0AE5CF2FEF3FEFFC01EC
:1022A0003587248708951092DB041092DA0488EEB3
:1022B00093E0A0E0B0E08093DC049093DD04A09371
:1022C000DE04B093DF0484EA91E09093D904809314
:1022D000D8048FEF9FEF9093E5048093E404089572
:1022E000615030F02091F100FC0120830196F8CF7D
:1022F000289884E680933205089540912D055091E9
:102300002E0520912B0530912C0542175307B4F46C
:102310009091E8009570E1F39091E80092FD19C06A
:102320008093F10080912D0590912E0501968F7379
:102330009927892B19F48EEF8093E80080912D0561
:1023400090912E05019690932E0580932D0581E0A6
:10235000089580E00895CF92DF92EF92FF920F935D
:102360001F93CF93DF931F92CDB7DEB7082F162FA1
:10237000F42E862F880F8E5F99830E947D1183E053
:102380000E947D11E02EC02E9981D92E8C2D8E19A0
:10239000811798F4F601F7FE02C0849101C0808194
:1023A0000E947D11082F80E00E947D118023FFEFA5
:1023B000CF1ADF0A8111EACF01C081E00F90DF91CF
:1023C000CF911F910F91FF90EF90DF90CF900895E4
:1023D0008091D70081608093D70080EA8093D800F5
:1023E00089B5806189BD89B5826089BD09B400FE67
:1023F000FDCF61E070E080E090E00E9440168091A7
:10240000D8008F7C80618093D8008091E000807F2D
:102410008093E0000895CF93DF931F92CDB7DEB78E
:102420001982CE0101960E94B9100E945717BE0171
:102430006F5F7F4F0E94D01689810F90DF91CF91FF
:1024400008952FB7FC012083F89467706093E9002A
:102450000895CF93DF931F92CDB7DEB7682FCE01DB
:1024600001960E9421128091F20099819FBF0F90E6
:10247000DF91CF910895FF920F931F93CF93DF9336
:1024800000D0CDB7DEB7F62E8A01909131059923A1
:1024900011F057FF03C08FEF9FEF2BC0682FCE01C5
:1024A00001967A830E9421128091F20090E0A801A7
:1024B0007A81801791070CF4AC01EF2DF72FF40E01
:1024C00084E6FE1639F02898809332059091F10049
:1024D0009193F7CF4115510521F08091F2008823A7
:1024E00021F089818FBFCA0104C08BE68093E80088
:1024F000F8CF0F900F90DF91CF911F910F91FF9028
:102500000895CF93DF931F92CDB7DEB741E050E03F
:10251000BE016F5F7F4F0E943B12019719F48981C2
:1025200090E002C08FEF9FEF0F90DF91CF91089561
:10253000CF93DF931F92CDB7DEB7682FCE01019600
:102540000E9421129091E800892F807295FF04C0AB
:102550009091F20080E4891B99819FBF0F90DF91D9
:10256000CF9108956F927F928F929F92AF92BF9278
:10257000CF92DF92EF92FF920F931F93CF93DF934F
:102580001F92CDB7DEB7782E7B01C42EB52E809179
:102590003105882369F0042F152F8AEFD82E872D57
:1025A0008072982E9AE3A92E872D8074882E11C0F0
:1025B0008FEF9FEF57C0872D0E949812682E8111D0
:1025C0000CC0DA94A9F361E070E080E090E00E9432
:1025D00040160115110579F73BC0282F30E002178E
:1025E00013070CF4602E672DCE0101960E94211274
:1025F0008091E80085FF29C0262D30E0021B130BD7
:10260000992039F06A948FEF6816B1F01092F100BA
:10261000F9CFF701862D77FE07C0815058F09491CD
:102620009093F1003196F9CF815020F091919093E1
:10263000F100FACFE20EF31E8091E80085FF0FC093
:102640000115110511F481100AC089818FBFC1CF16
:102650005D9884E6809333058C2D9B2D03C0A0925A
:10266000E800F3CF0F90DF91CF911F910F91FF9072
:10267000EF90DF90CF90BF90AF909F908F907F9022
:102680006F9008951092E90010922E0510922D057A
:1026900090932C0580932B050895CF92DF92FF92A3
:1026A0000F931F93CF93DF9300D0CDB7DEB7F82EF3
:1026B0008A016B0101151105B1F0F601F7FE02C0A8
:1026C000849101C0808149835A830E947D11015009
:1026D0001109FFEFCF1ADF0A49815A818111EACF30
:1026E0008FEF9FEF01C0CA010F900F90DF91CF9144
:1026F0001F910F91FF90DF90CF900895BF92CF92DE
:10270000DF92EF92FF920F931F93CF93DF936C01B1
:102710008B01EB013BEFB32E2097C1F07E01C1345A
:10272000D1051CF020E4E22EF12C8091E80082FF1C
:10273000FCCFC8018C1B9D0B6E2D8C0D9D1D0E9426
:102740007011B092E800CE19DF09E6CFC801DF9121
:10275000CF911F910F91FF90EF90DF90CF90BF909E
:1027600008951F920F920FB60F921124DF92EF92ED
:10277000FF920F931F932F933F934F935F936F930A
:102780007F938F939F93AF93BF93EF93FF93CF93D9
:10279000DF93CDB7DEB76C97DEBFCDBF1092E900F7
:1027A0008091E80083FF23C168E0CE0145960E9436
:1027B000701182EF8093E8003D8937FF05C080915A
:1027C000E80080FFFCCF03C08EEF8093E800832FEA
:1027D000807609F0F0C02E894F89D88C21110CC069
:1027E000303829F4809130058093F10002C01092B6
:1027F000F1001092F100F4C0842F90E09D29213067
:1028000049F43111EDC0019709F0EAC0809130051B
:102810008D7F0AC0233059F43111E2C0019709F0CD
:10282000DFC080913005826080933005D9C02530AB
:1028300041F48091E80080FFFCCF40684093E300C2
:10284000CFC0263009F08DC0EB8CFC8C22E0D21278
:102850002CC080E090E00E9442130E940B1299E08D
:102860008E010F5F1F4FF801292F11922A95E9F76A
:102870009983DA8291E09E8390EA98879AEF99870C
:1028800020912D0530912E05275F3F4F3C832B83F0
:102890008D83C7010E94421349E050E0B80180E0F7
:1028A0000E944D130E940B129BC0C7010E9442134D
:1028B0000E945717BE016B5E7F4F0E94F91600976A
:1028C00019F00CF08DC090C081E0D8120EC08B8D35
:1028D0009C8D089719F481E080932A0580912A0540
:1028E00081112FC067E072E031C0E3E0DE127CC0EE
:1028F0008F89882349F1823029F440E860E185E23C
:1029000092E01CC0813029F440E86BE089E192E05C
:1029100015C0833009F068C00E9457178E010F5F01
:102920001F4FB8010E941817F80101900020E9F725
:102930003197E01BF10B40E06E2FC8010E94AB11F4
:102940004DC065EF71E002C066E372E0611571058C
:1029500009F44AC0FB01449150E080E80E944D1305
:102960003FC0273009F440C0283021F481E0809333
:10297000F10036C02930A1F53370B1F5EFE0F1E098
:1029800081E021E036E39081992361F08093E900B2
:102990002093EB0091919093EC003093ED008F5FCA
:1029A000873089F78EE78093EA001092EA008F89DA
:1029B0008093310515C08B8D9C8D0E944213898DAB
:1029C000811105C0CE0145960E94C41007C00E9427
:1029D0005717BE016B5E7F4F0E943717882321F087
:1029E0008EEF8093E80003C081E28093EB006C9649
:1029F0000FB6F894DEBF0FBECDBFDF91CF91FF9130
:102A0000EF91BF91AF919F918F917F916F915F9166
:102A10004F913F912F911F910F91FF90EF90DF9079
:102A20000F900FBE0F901F9018958093E900809132
:102A3000F200882319F08AE38093E80008951F923A
:102A40000F920FB60F9211242F933F934F935F93E2
:102A50006F937F938F939F93AF93BF93CF93EF9396
:102A6000FF93C091E1008091E100837F8093E100BA
:102A70008093E100C3FF0FC01092E90081E08093D2
:102A8000EB001092EC0082E38093ED001092310590
:102A900088E08093F000C2FF19C083E00E94151502
:102AA00080913305882339F08091330581508093DC
:102AB0003305882389F180913205882339F080918C
:102AC0003205815080933205882341F1C4FF10C044
:102AD0008091E2008E7E81608093E2008091E1002F
:102AE0008F7E8093E10080912F058E7E806111C0E2
:102AF000C0FF16C08091E2008E7E80618093E2006C
:102B00008091E1008E7E8093E10080912F058E7E82
:102B1000816080932F0504C05D9ACDCF289AD6CFCF
:102B2000FF91EF91CF91BF91AF919F918F917F9145
:102B30006F915F914F913F912F910F900FBE0F902A
:102B40001F901895109231051092300510922F05A4
:102B50000E94E8118091E1008E7E8093E1008DE07B
:102B60008093E200559A209AEEEFFFE785919491C9
:102B70008B3F9C4D19F481E08093280508950895BA
:102B80000E947A160E94BF1589E295E00E94A21564
:102B90000E947C01C0E0D0E00E94CC012097E1F3CC
:102BA0000E940000F9CF1F920F920FB60F921124CE
:102BB0002F933F938F939F93AF93BF93809135054E
:102BC00090913605A0913705B091380530913405C4
:102BD00023E0230F2D3720F40196A11DB11D05C060
:102BE00026E8230F0296A11DB11D20933405809382
:102BF000350590933605A0933705B093380580913D
:102C0000390590913A05A0913B05B0913C0501969C
:102C1000A11DB11D8093390590933A05A0933B0502
:102C2000B0933C05BF91AF919F918F913F912F91B0
:102C30000F900FBE0F901F9018953FB7F89480919A
:102C4000390590913A05A0913B05B0913C0526B518
:102C5000A89B05C02F3F19F00196A11DB11D3FBFD4
:102C60006627782F892F9A2F620F711D811D911D64
:102C700042E0660F771F881F991F4A95D1F7089584
:102C80008F929F92AF92BF92CF92DF92EF92FF927C
:102C90006B017C010E941D164B015C01C114D10423
:102CA000E104F104F1F00E946B170E941D166819EF
:102CB00079098A099B09683E73408105910570F383
:102CC00021E0C21AD108E108F10888EE880E83E0FD
:102CD000981EA11CB11CC114D104E104F10429F710
:102CE000DDCFFF90EF90DF90CF90BF90AF909F909F
:102CF0008F900895789484B5826084BD84B5816096
:102D000084BD85B5826085BD85B5816085BDEEE6F3
:102D1000F0E0808181608083E1E8F0E010828081D2
:102D200082608083808181608083E0E8F0E0808140
:102D300081608083E1E9F0E080818260808380812E
:102D400081608083E0E9F0E0808181608083E1EC54
:102D5000F0E08081846080838081826080838081D4
:102D600081608083E3ECF0E0808181608083E0EC2F
:102D7000F0E0808182608083E2ECF0E0808181601D
:102D80008083EAE7F0E080818460808380818260D4
:102D900080838081816080838081806880830895C2
:102DA000EF92FF920F931F93CF93DF937B01FC0170
:102DB000C281D38100E010E0209781F0E881F981A1
:102DC0000280F381E02DB701CE01099597FD08C07F
:102DD000080F191F0884D985C02DEECFC80102C085
:102DE0008FEF9FEFDF91CF911F910F91FF90EF90A9
:102DF00008950F931F93CF93DF938B01FC01C28142
:102E0000D381209771F0E881F9810480F581E02D6C
:102E1000B801CE010995009731F40884D985C02DF9
:102E2000F0CF80E090E0DF91CF911F910F91089556
:102E30000F931F93CF93DF938B01FC01C281D3814A
:102E4000209771F0E881F9810680F781E02DB801C3
:102E5000CE010995080F111D0884D985C02DF0CF2A
:102E6000F8011082DF91CF911F910F9108950F9378
:102E70001F93CF93DF938B01FC01C281D3812097F5
:102E800071F0E881F9810190F081E02DB801CE0167
:102E90000995811106C00884D985C02DF0CF80E046
:102EA00001C081E0DF91CF911F910F910895809132
:102EB000410581110DC082E080933D0584E080933F
:102EC0003E051092400510923F0581E08093410538
:102ED0008DE395E00895089504D06894B1118DC0F4
:102EE000089570D088F09F5790F0B92F9927B75167
:102EF000A0F0D1F0660F771F881F991F1AF0BA95BE
:102F0000C9F712C0B13081F077D0B1E0089574C034
:102F1000672F782F8827B85F39F0B93FCCF38695B3
:102F200077956795B395D9F73EF490958095709510
:102F300061957F4F8F4F9F4F0895E89409C097FB8D
:102F40003EF490958095709561957F4F8F4F9F4F80
:102F50009923A9F0F92F96E9BB279395F6958795C4
:102F600077956795B795F111F8CFFAF4BB0F11F487
:102F700060FF1BC06F5F7F4F8F4F9F4F16C088232E
:102F800011F096E911C0772321F09EE8872F762F64
:102F900005C0662371F096E8862F70E060E02AF0A5
:102FA0009A95660F771F881FDAF7880F9695879591
:102FB00097F9089557FD9058440F551F59F05F3FFA
:102FC00071F04795880F97FB991F61F09F3F79F04B
:102FD00087950895121613061406551FF2CF4695CD
:102FE000F1DF08C0161617061806991FF1CF86954F
:102FF0007105610508940895E894BB276627772733
:10300000CB0197F908950BD078C069D028F06ED025
:1030100018F0952309F05AC05FC01124EECFCADF23
:10302000A0F3959FD1F3950F50E0551F629FF001DB
:10303000729FBB27F00DB11D639FAA27F00DB11D34
:10304000AA1F649F6627B00DA11D661F829F2227BD
:10305000B00DA11D621F739FB00DA11D621F839F44
:10306000A00D611D221F749F3327A00D611D231F1A
:10307000849F600D211D822F762F6A2F11249F5768
:1030800050408AF0E1F088234AF0EE0FFF1FBB1F8B
:10309000661F771F881F91505040A9F79E3F51052A
:1030A00070F014C0AACF5F3FECF3983EDCF3869536
:1030B00077956795B795F795E7959F5FC1F7FE2BD5
:1030C000880F911D9695879597F9089597F99F67B1
:1030D00080E870E060E008959FEF80EC08950024A0
:1030E0000A941616170618060906089500240A946D
:1030F00012161306140605060895092E0394000CF3
:1031000011F4882352F0BB0F40F4BF2B11F460FF81
:1031100004C06F5F7F4F8F4F9F4F0895DB018F93E8
:103120009F930E94D718BF91AF91A29F800D911DD0
:10313000A39F900DB29F900D1124089597FB072E29
:1031400016F4009407D077FD09D00E94EA1807FC16
:1031500005D03EF4909581959F4F089570956195A7
:103160007F4F0895052E97FB1EF400940E94C91806
:1031700057FD07D00E94FE1807FC03D04EF40C94B4
:10318000C91850954095309521953F4F4F4F5F4F4F
:10319000089590958095709561957F4F8F4F9F4FC3
:1031A0000895EE0FFF1F0590F491E02D09940E9401
:1031B0002019A59F900DB49F900DA49F800D911D87
:1031C00011240895B7FF0C94D7180E94D718821BBA
:1031D000930B0895AA1BBB1B51E107C0AA1FBB1F7D
:1031E000A617B70710F0A61BB70B881F991F5A9593
:1031F000A9F780959095BC01CD010895A1E21A2E02
:10320000AA1BBB1BFD010DC0AA1FBB1FEE1FFF1F8A
:10321000A217B307E407F50720F0A21BB30BE40BDA
:10322000F50B661F771F881F991F1A9469F7609521
:103230007095809590959B01AC01BD01CF010895DB
:10324000A29FB001B39FC001A39F700D811D1124E7
:10325000911DB29F700D811D1124911D0895AEE046
:10326000B0E0E5E3F9E10C94281F0D891E8986E0A2
:103270008C831A8309838FEF9FE79E838D83AE0132
:10328000475E5F4F6F89788DCE0101960E946A1963
:10329000EF81F885E00FF11F10822E96E4E00C9488
:1032A000441FAEE0B0E0E7E5F9E10C942A1F85E0A9
:1032B0008C838B899C899A838983AE01495E5F4F99
:1032C0006D897E89CE0101960E94BA1C2E96E2E09D
:1032D0000C94461FACE0B0E0E0E7F9E10C941A1F53
:1032E0007C016B018A01FC0117821682838181FFB8
:1032F000BDC1CE0101964C01F7019381F60193FD0A
:10330000859193FF81916F01882309F4ABC18532C8
:1033100039F493FD859193FF81916F01853229F4F2
:10332000B70190E00E946E1EE7CF512C312C20E0B7
:103330002032A0F48B3269F030F4803259F08332BD
:1033400069F420612CC08D3239F0803339F421606A
:1033500026C02260246023C0286021C027FD27C02A
:1033600030ED380F3A3078F426FF06C0FAE05F9E61
:10337000300D1124532E13C08AE0389E300D1124D5
:10338000332E20620CC08E3221F426FD6BC12064E6
:1033900006C08C3611F4206802C0883641F4F6016C
:1033A00093FD859193FF81916F018111C1CF982F7A
:1033B0009F7D9554933028F40C5F1F4FFFE3F983F2
:1033C0000DC0833631F0833771F0833509F05BC06F
:1033D00022C0F801808189830E5F1F4F44244394EB
:1033E000512C540115C03801F2E06F0E711CF80128
:1033F000A080B18026FF03C0652D70E002C06FEF92
:103400007FEFC5012C870E94251E2C0183012C858E
:103410002F77222E17C03801F2E06F0E711CF801D1
:10342000A080B18026FF03C0652D70E002C06FEF61
:103430007FEFC5012C870E941A1E2C012C85206865
:10344000222E830123FC1BC0832D90E048165906D1
:10345000B0F4B70180E290E00E946E1E3A94F4CF7F
:10346000F50127FC859127FE81915F01B70190E06E
:103470000E946E1E31103A94F1E04F1A5108411427
:10348000510471F7E5C0843611F0893639F5F80139
:1034900027FF07C060817181828193810C5F1F4F7C
:1034A00008C060817181882777FD8095982F0E5F15
:1034B0001F4F2F76B22E97FF09C09095809570957B
:1034C00061957F4F8F4F9F4F2068B22E2AE030E0EA
:1034D000A4010E94B91EA82EA81844C0853729F45B
:1034E0002F7EB22E2AE030E025C0F22FF97FBF2ECA
:1034F0008F36C1F018F4883579F0B4C0803719F0F0
:10350000883721F0AFC02F2F2061B22EB4FE0DC03E
:103510008B2D8460B82E09C024FF0AC09F2F9660AF
:10352000B92E06C028E030E005C020E130E002C03E
:1035300020E132E0F801B7FE07C06081718182812D
:1035400093810C5F1F4F06C06081718180E090E025
:103550000E5F1F4FA4010E94B91EA82EA818FB2DB4
:10356000FF77BF2EB6FE0BC02B2D2E7FA51450F477
:10357000B4FE0AC0B2FC08C02B2D2E7E05C07A2CEA
:103580002B2D03C07A2C01C0752C24FF0DC0FE0129
:10359000EA0DF11D8081803311F4297E09C022FFDC
:1035A00006C07394739404C0822F867809F07394D4
:1035B00023FD13C020FF06C05A2C731418F4530CBB
:1035C0005718732C731468F4B70180E290E02C87CD
:1035D0000E946E1E73942C85F5CF731410F4371867
:1035E00001C0312C24FF12C0B70180E390E02C878A
:1035F0000E946E1E2C8522FF17C021FF03C088E5A4
:1036000090E002C088E790E0B7010CC0822F867876
:1036100059F021FD02C080E201C08BE227FD8DE25E
:10362000B70190E00E946E1EA51438F4B70180E344
:1036300090E00E946E1E5A94F7CFAA94F401EA0D0E
:10364000F11D8081B70190E00E946E1EA110F5CFA0
:10365000332009F451CEB70180E290E00E946E1E43
:103660003A94F6CFF7018681978102C08FEF9FEFE2
:103670002C96E2E10C94361F20FD09C0FC0123FDCD
:1036800005C022FF02C07383628351834083089583
:1036900044FD10C046FD10C0DB01FC01AA0FBB1F9A
:1036A000EE1FFF1F1094D1F76A0F7B1F8E1F9F1F05
:1036B00031E003C033E001C034E0660F771F881F9C
:1036C000991F3150D1F7620F711D811D911D089511
:1036D0000F931F93CF93DF938C01C8010E94301E7C
:1036E000EC0197FD08C00E94071E892BB1F7B801B5
:1036F000CE010E94A01ECE01DF91CF911F910F91AC
:1037000008958F929F92AF92CF92DF92EF92FF92A5
:103710000F931F93CF93DF93EC01A62E4A01022F44
:103720000E94301EAC0155274B32510521F04D321D
:10373000510551F40068AA9411F480E067C0CE01ED
:103740000E94301E97FDF9CF102F1D7F302F307350
:1037500001F58033F1F4FF24FA94FA0C09F442C025
:10376000CE010E94301E97FD3DC0382F3F7D383579
:1037700051F41264AA94AA94A9F1CE010E94301EB9
:1037800097FF07C02FC006FF02C0126001C0126180
:10379000AF2CC12CD12C760120ED280F283080F0E1
:1037A00014FF04C0BE010E94A01E19C02A3040F0C0
:1037B00016FFF8CF2F7D3FEE320F363098F72750A7
:1037C000412FC701B6010E94481B6B017C011260AA
:1037D000AA9459F0CE010E94301E97FFDDCF11FD53
:1037E00004C0ABCFC12CD12C760117FF08C0F094D8
:1037F000E094D094C094C11CD11CE11CF11C212F79
:10380000B701A601C4010E943C1B81E0DF91CF916A
:103810001F910F91FF90EF90DF90CF90AF909F900E
:103820008F900895A1E2B0E0E8E1FCE10C941F1F45
:103830005C017A018E010F5F1F4F680180E2D801A1
:103840001D928A95E9F7F501738040E050E0812CE4
:10385000B0E0912C81E090E0F90173FCA59173FE3A
:10386000A1918F017A2F9F01A11103C080E090E008
:103870007DC0AE3519F44115510559F1E92DF0E03F
:10388000E417F5073CF4AD3569F1AD3219F4BB230B
:1038900019F103C0B11101C08A2EE72FE695E69514
:1038A000E69586010E0F111DF801A72FA7708C0158
:1038B00002C0000F111FAA95E2F7D801B081BA2B00
:1038C000B083781559F0781510F47F5FE6CF71500A
:1038D000E4CF9924939403C0B1E001C0B0E04F5FFE
:1038E0005F4FBACFBB2319F08E8180628E83911017
:1038F00003C09924939415C0F601CE0181962081CE
:1039000020952193E817F907D1F7F3CFE114F104DB
:1039100029F0D7018C93F70131967F01615001F1B5
:10392000912CC50169A30E94301E69A197FD16C0A4
:10393000282F269526952695F601E20FF11D208168
:1039400030E0AC014770552702C0359527954A9560
:10395000E2F720FDDBCFB5010E94A01E911086CFBB
:10396000E114F10411F0D7011C92C801A196EDE019
:103970000C943B1F4F925F927F928F929F92AF92D7
:10398000BF92CF92DF92EF92FF920F931F93CF934C
:10399000DF931F92CDB7DEB78C012B017A01FC01BA
:1039A00017821682A12CF801D380F201D3FC8591F5
:1039B000D3FE8191382F2F01882309F4FCC090E0B9
:1039C00039830E94071E3981892B21F0C8010E948A
:1039D000681BE9CF353241F4F201D3FC3591D3FEB7
:1039E00031912F01353269F4C80139830E94301EAC
:1039F000398197FDDEC03817B1F2B8010E94A01ED0
:103A0000DAC03A3241F4D3FC3591D3FE31912F0123
:103A1000BB24B39401C0B12C712C20ED230F2A30AC
:103A200090F4FB2DF260BF2E672D70E080E090E0F7
:103A300040E20E94481B762EF201D3FC3591D3FE62
:103A400031912F01EACFB1FE03C0711003C0B3C0A2
:103A500077247A94383619F03C3661F014C0F201BC
:103A6000D3FC3591D3FE31912F01383661F4FB2D13
:103A7000F860BF2E8B2D8460B82EF201D3FC3591F7
:103A8000D3FE31912F01332309F495C0632F70E0E9
:103A90008AE392E039830E940F1E3981892B09F451
:103AA0008AC0B0FC07C0F701C080D180C701029670
:103AB0007C0102C0C12CD12C3E3651F4F801468164
:103AC000578160E070E02B2DC6010E943C1B6BCF3C
:103AD0003336A1F4B1FC02C077247394C8010E946C
:103AE000301E97FD66C0C114D10429F0F601808311
:103AF000C60101966C017A9489F757C03B3559F499
:103B00009201A601672DC8010E94121C2C0100978A
:103B100009F04BC045C0C80139830E94681B398138
:103B200097FD47C03F3669F128F4343631F1393614
:103B300079F12BC0333769F03537F9F026C0C1145D
:103B4000D10429F0F6018082C60101966C017A94B5
:103B500071F0C8010E94301E4C0197FD08C00E9400
:103B6000071E892B61F3B801C4010E94A01EC11475
:103B7000D104D9F0F601108218C0FB2DF062BF2EDF
:103B800007C08B2D8061B82E03C09B2D9064B92E89
:103B90002B2DA601672DC8010E94811B811105C034
:103BA000F8018381807329F406C0B0FCFCCEA39495
:103BB000FACEAA2019F08A2D90E002C08FEF9FEF75
:103BC0000F90DF91CF911F910F91FF90EF90DF90B9
:103BD000CF90BF90AF909F908F907F905F904F90CD
:103BE0000895F999FECF92BD81BDF89A992780B5C5
:103BF0000895262FF999FECF1FBA92BD81BD20BD31
:103C00000FB6F894FA9AF99A0FBE01960895911199
:103C10000EC1803219F089508550D0F70895FC010B
:103C20000590061621F00020D9F7C00108953197BC
:103C3000CF010895FC010590615070400110D8F744
:103C4000809590958E0F9F1F0895FC0161507040E4
:103C500001900110D8F7809590958E0F9F1F0895C1
:103C6000CF93DF93EC012B8120FF33C026FF0AC0E6
:103C70002F7B2B838E819F8101969F838E838A81E8
:103C800090E029C022FF0FC0E881F9818081992747
:103C900087FD9095009719F420622B831AC0319606
:103CA000F983E8830EC0EA85FB85099597FF09C073
:103CB0002B81019611F480E101C080E2822B8B837D
:103CC00008C02E813F812F5F3F4F3F832E8399276E
:103CD00002C08FEF9FEFDF91CF9108950F931F9355
:103CE000CF93DF93182F092FEB018B8181FD03C048
:103CF0008FEF9FEF20C082FF10C04E815F812C812B
:103D00003D81421753077CF4E881F9819F012F5FC1
:103D10003F4F39832883108306C0E885F985812FBA
:103D20000995892B29F72E813F812F5F3F4F3F83D4
:103D30002E83812F902FDF91CF911F910F910895A6
:103D4000FB01238120FF12C026FD10C08F3F3FEFF3
:103D5000930761F082832F7D20642383268137813E
:103D60002150310937832683992708958FEF9FEFDC
:103D70000895FA01AA27283051F1203181F1E89401
:103D80006F936E7F6E5F7F4F8F4F9F4FAF4FB1E04E
:103D90003ED0B4E03CD0670F781F891F9A1FA11D49
:103DA000680F791F8A1F911DA11D6A0F711D811D4A
:103DB000911DA11D20D009F468943F912AE0269F0F
:103DC00011243019305D3193DEF6CF010895462F6E
:103DD0004770405D4193B3E00FD0C9F7F6CF462F4F
:103DE0004F70405D4A3318F0495D31FD40524193B8
:103DF00002D0A9F7EACFB4E0A69597958795779575
:103E00006795BA95C9F700976105710508959B01FB
:103E1000AC010A2E06945795479537952795BA9584
:103E2000C9F7620F731F841F951FA01D089599275E
:103E3000882708952F923F924F925F926F927F92C0
:103E40008F929F92AF92BF92CF92DF92EF92FF92AA
:103E50000F931F93CF93DF93CDB7DEB7CA1BDB0B56
:103E60000FB6F894DEBF0FBECDBF09942A883988FB
:103E700048885F846E847D848C849B84AA84B98402
:103E8000C884DF80EE80FD800C811B81AA81B9810E
:103E9000CE0FD11D0FB6F894DEBF0FBECDBFED0122
:063EA0000895F894FFCF25
:103EA6009A01FFFFFFFF00E100000000000000C1D3
:103EB60080810000004552523A202564004F4B2075
:103EC60025630025633D25640025633D256C64005C
:103ED60025633D25750025633D256C750025633DED
:103EE600252E2A730025633D257300322E313500B9
:103EF600736572763100636C696531004D5F5F5F93
:103F0600415F5F445F5F495F5F4E5F5F4F5F5F5F2B
:103F16007578455252203031000A002563204F4BF8
:103F2600004552522030340045525220303300456D
:103F3600525220303200000000009B0FA30FA20F48
:103F4600000000005C10A3108610961072108310FB
:00000001FF
