:100000000C9424010C944C010C944C010C944C0164
:100010000C944C010C944C010C944C010C944C012C
:100020000C944C010C944C010C9422030C949403FA
:100030000C944C010C944C010C944C010C944C010C
:100040000C944C010C944C010C944C010C944C01FC
:100050000C949F0A0C944C010C944C010C94E60CEB
:100060000C944C010C944C010C944C010C944C01DC
:100070000C944C010C944C010C944C010C944C01CC
:100080000C944C010C944C010C944C010C944C01BC
:100090000C944C010C944C010C944C010C944C01AC
:1000A0000C944C010C944C010C944C01FC05FF0584
:1000B000EE05F205F60520062006200603060706D3
:1000C0000B061106150620061B068112FD12FA11F9
:1000D0001B12FD12FD12FD12FD12E811FD12FD12A0
:1000E000FD126B12F311B012FD12C211FD12FD12BE
:1000F0004812FD12FD12FD12FD12F012FD12FD124A
:10010000FD12FD12FD12FD12FD127B12FD12F51102
:1001100012120613FD12FD124811DF11FD12FD121D
:1001200006136512EA119B120613B91193119F1160
:100130003812A8117B1197119912000000020009D2
:100140000F0000030401000C00000000000000008C
:10015000000000000000000000080B000202020185
:10016000000904000001020200000524001001053E
:10017000240101010424020605240600010705816B
:100180000310004009040100020A000000070502F4
:1001900002400000070583024000000403090441F7
:1001A000726475696E6F204C4C43004172647569CE
:1001B0006E6F204C656F6E6172646F0012010002F9
:1001C00000000040412336800001010203011201BA
:1001D0000002EF02014041233680000101020301C9
:1001E00000000000250028002B002E003100000038
:1001F0000000240027002A002D003000040404041D
:1002000004030405020202020403020202020606BB
:100210000606060604040202020404040802011091
:10022000408040102040804080080204018040202F
:10023000100201108010204040206364696E6F70CE
:10024000737578585B005A1311241FBECFEFDAE0A4
:10025000DEBFCDBF11E0A0E0B1E0E4ECF4E302C00A
:1002600005900D92AA3AB107D9F725E0AAEAB1E0C4
:1002700001C01D92A233B207E1F711E0C4E2D1E060
:1002800004C02197FE010E94E213C332D107C9F7CF
:100290000E946D0D0C94601A0C9400004091AE0108
:1002A0005091AF012091AC013091AD01421753073D
:1002B000B4F49091E8009570E1F39091E80092FD1C
:1002C00019C08093F1008091AE019091AF01019629
:1002D0008F739927892B19F48EEF8093E800809112
:1002E000AE019091AF0101969093AF018093AE0162
:1002F00081E0089580E00895DF92EF92FF920F93DE
:100300001F93CF93DF93D82E8A017B01E40EF51E55
:10031000EB01CE15DF0571F0D7FE03C0FE0184911D
:1003200001C088810E944E0121968111F2CF8FEF8A
:100330009FEF01C0C801DF91CF911F910F91FF90F6
:10034000EF90DF900895615030F02091F100FC01B2
:1003500020830196F8CF289884E68093B40408950A
:10036000CF92DF92EF92FF920F931F93CF93DF9381
:100370006C017A018B01C0E0D0E0CE15DF0589F079
:10038000D8016D918D01D601ED91FC910190F08124
:10039000E02DC6010995892B11F47E0102C021963A
:1003A000ECCFC701DF91CF911F910F91FF90EF909C
:1003B000DF90CF900895CF93DF931F92CDB7DEB734
:1003C0006983DC01ED91FC910280F381E02D41E035
:1003D00050E0BE016F5F7F4F09950F90DF91CF9185
:1003E000089583E08093E9008091F200882319F05A
:1003F0008AE38093E8000895FC018485958597FD44
:100400000BC09FB7F89482E08093E9008091F200DE
:100410009FBF90E0019608959FB7F89482E0809383
:10042000E9008091F2009FBF90E0089508956EBDAD
:1004300000000DB407FEFDCF8EB508955E9A5E985C
:100440008E9A000000008E9808950E9438140F9331
:100450001F93CF93DF931F92CDB7DEB782E08983DE
:1004600042E450E069E571E080E80E947C010E946E
:10047000D20CDC0112960D911C91139701151105F8
:1004800069F0D801ED91FC910280F381E02DBE016D
:100490006F5F7F4FC801099597FF07C089810F9053
:1004A000DF91CF911F910F910895F801008511857B
:1004B000E5CF8F929F92AF92BF92CF92DF92EF9251
:1004C000FF920F931F93CF93DF935C016B018A011F
:1004D00080910B01882309F459C08091B5048823C9
:1004E00009F454C08091B20180FF05C08091E00002
:1004F00082608093E000E8018AEFF82E93E0E92E15
:100500002FE3822E3AE3932E2097C9F18FB7F89408
:10051000E092E9009091E80095FF06C09091F2000A
:10052000282D291B922F01C090E08FBF911106C08A
:10053000FA94FF2059F10E94B80CE6CF292F30E041
:10054000C217D3070CF49C2F8FB7F894E092E90000
:100550002091E80025FF11C0292F30E0C21BD30BEA
:10056000F601915020F041914093F100FACFC20E74
:10057000D31E9091E80095FF13C08FBFC5CF5D9843
:1005800084E68093B0011016110644F081E090E0FB
:10059000F5019383828380E090E005C0C80103C029
:1005A0009092E800EACFDF91CF911F910F91FF90D9
:1005B000EF90DF90CF90BF90AF909F908F90089575
:1005C000CF93DF931F92CDB7DEB7FC01848595856D
:1005D00097FD05C02FEF3FEF358724870BC0CE0175
:1005E00001960E942B0C019719F4898190E002C0BA
:1005F0008FEF9FEF0F90DF91CF9108950F931F938F
:10060000CF93DF931F92CDB7DEB78C01FC018485B9
:10061000958597FF0EC0CE0101960E942B0C019785
:1006200019F4298130E002C02FEF3FEFF801358740
:100630002487F801848595850F90DF91CF911F91D4
:100640000F9108951F920F920FB60F9211248F935E
:100650009F938091E1009091E100937F9093E1005E
:1006600083FF0FC01092E90091E09093EB0010928D
:10067000EC0092E39093ED001092B50498E0909313
:10068000F00082FF20C093E09093E9009091F20087
:10069000992319F09AE39093E8009091B00199237F
:1006A00039F09091B00191509093B001992389F164
:1006B0009091B404992339F09091B404915090939F
:1006C000B404992341F184FF10C08091E2008E7E32
:1006D00081608093E2008091E1008F7E8093E10051
:1006E0008091B2018E7E806111C080FF16C0809122
:1006F000E2008E7E80618093E2008091E1008E7E38
:100700008093E1008091B2018E7E81608093B2017E
:1007100004C05D9ACDCF289AD6CF9F918F910F902C
:100720000FBE0F901F9018951F920F920FB60F9249
:100730001124CF92DF92EF92FF920F931F932F938A
:100740003F934F935F936F937F938F939F93AF9359
:10075000BF93EF93FF93CF93DF93CDB7DEB76C9743
:10076000DEBFCDBF1092E9008091E80083FFFAC19F
:1007700068E0CE0145960E94A30182EF8093E800D5
:100780008D8987FF05C09091E80090FFFCCF03C0E2
:100790009EEF9093E800982F907609F0C6C09E894E
:1007A0002F89188D91110CC0803829F48091B301E4
:1007B0008093F10002C01092F1001092F10047C145
:1007C000422F50E0512B913051F4811140C1413002
:1007D000510509F03CC18091B3018D7F0BC093306E
:1007E00061F4811134C14130510509F030C180916B
:1007F000B30182608093B3012AC1953041F48091A6
:10080000E80080FFFCCF20682093E30020C19630F1
:1008100009F05FC0EB8CFC8C1092E9001092AF01E4
:100820001092AE01123091F51092AD011092AC0110
:100830000E94270299E0BE016F5F7F4FDB01E92F25
:100840001D92EA95E9F799831A8391E09E8390EAD5
:1008500098879AEF99872091AE013091AF01275F79
:100860003F4F3C832B838D831092E9001092AF01A0
:100870001092AE01F092AD01E092AC0149E050E07F
:1008800080E00E947C010E942702E1C0F092AD014D
:10089000E092AC010E94D20CDC011296ED90FC902B
:1008A0001397E114F10409F4C0C0D701ED91FC9154
:1008B0000480F581E02DBE016B5E7F4FC701099575
:1008C000009719F00CF0C3C0C6C0F701E084F184B2
:1008D000E8CF973009F4BFC0983021F481E08093CD
:1008E000F100B5C0993009F0B2C0837009F0B3C00F
:1008F000EFE0F1E081E021E036E39081992361F0BF
:100900008093E9002093EB0091919093EC00309359
:10091000ED008F5F873089F78EE78093EA001092B1
:10092000EA008F898093B50492C08B8D9C8D1092C4
:10093000E9001092AF011092AE019093AD01809347
:10094000AC01898D811156C08E899D89913A59F4E7
:10095000813209F080C047E050E064E071E080E05F
:100960000E947C0174C0913209F075C0833289F411
:10097000888D90E0982F88272F89822BA0E0B0E007
:100980008093000190930101A0930201B0930301B1
:100990005EC0803269F48091E80082FFFCCF67E09E
:1009A00084E091E00E94A3018BEF8093E80006C0F1
:1009B000823209F04CC08F8980930B018091B10184
:1009C000882319F0EEEFFAE002C0E0E0F8E0809151
:1009D000040190910501A0910601B0910701803BAF
:1009E0009440A105B10509F088C080910B0180FFFA
:1009F000A0C083C00E94D20CDC0112960D911C9104
:100A000013970115110539F1D801ED91FC91019071
:100A1000F081E02DBE016B5E7F4FC8010995811109
:100A200016C0F80100851185ECCF1130C1F01330EC
:100A300091F48F89882309F455C08230E9F440E8A5
:100A400060E18BEA91E00E94300D882321F08EEF67
:100A50008093E80087C081E28093EB0083C08B8D98
:100A60009C8D089711F41093AB018091AB0181111B
:100A700036C06CEB71E038C0813029F440E86BE09F
:100A80008FE991E0E0CF833031F70E94D20CDC0196
:100A90001296ED90FC9013978E010F5F1F4F680127
:100AA000E114F10479F0D701ED91FC910680F78112
:100AB000E02DB801C7010995080F111DF701E08469
:100AC000F184EECFD8011C92F60101900020E9F7E5
:100AD0003197BF016C197D0940E0C601B4CF6EECBF
:100AE00071E002C06BE971E06115710509F4B3CFE3
:100AF000FB01449150E080E833CF0FB6F894A895FD
:100B000080916000886180936000109260000FBE49
:100B1000A895EE3F2AE0F20739F08091FE0A909105
:100B2000FF0A9183808393CF1092FF0A1092FE0AEE
:100B30008ECFEE3F8AE0F80731F08081918190936B
:100B4000FF0A8093FE0A87E797E7918380839BE003
:100B500088E10FB6F894A895809360000FBE90933B
:100B6000600075CF6C960FB6F894DEBF0FBECDBF98
:100B7000DF91CF91FF91EF91BF91AF919F918F91B5
:100B80007F916F915F914F913F912F911F910F91A5
:100B9000FF90EF90DF90CF900F900FBE0F901F90BF
:100BA0001895362F90E0FC01E65CFE4F4491FC0165
:100BB000E55EFD4F2491FC01E450FE4F84918823B3
:100BC00009F451C04423E1F150E0FA013197EF30CC
:100BD000F105B0F5EA5AFF4F0C94E21390918000B2
:100BE0009F7707C0909180009F7D03C09091800007
:100BF000977F9093800024C094B59F7702C094B5EE
:100C00009F7D94BD1DC0909190009F7707C09091EB
:100C100090009F7D03C090919000977F90939000EB
:100C20000FC09091C0009F7703C09091C0009F7D3E
:100C30009093C00005C09091C200977F9093C2002E
:100C4000E82FF0E0EE0FFF1FE052FE4FA591B491A8
:100C50008FB7F894EC91311103C020952E2301C079
:100C60002E2B2C938FBF0895CF93CFB7F8948091FC
:100C7000AA01811124C0EDE0F2E08491ECE2F2E0FF
:100C80009491E82FF0E0EE0FFF1FE251FE4FA59187
:100C9000B491EC91E92321F461E081E10E94D10556
:100CA00081E10E940C0C8CB580618CBD8CB5806498
:100CB0008CBD8FE00E940C0C80E10E940C0C809196
:100CC000AA018F5F8093AA01CFBF8CB5837F8CBDB3
:100CD0008CB58C7F81608CBD8DB58E7F8DBDCF91A5
:100CE00008952091AD043091AE04255D3B4FFC0189
:100CF00040814423F9F04091AD045091AE04413855
:100D0000510544F44F5F5F4F5093AE044093AD04E0
:100D1000F90108C01092AE041092AD04EBE2F4E0C9
:100D200085E491E09F012F5F3F4FDC014C914083B0
:100D30000196DDCF08950E9471068CE491E00C9439
:100D400071060F931F93CF93DF93CDB7DEB76097F4
:100D50000FB6F894DEBF0FBECDBF7F936F93282FE1
:100D6000082E000C330B3F938F938EE491E09F93FA
:100D70008F938E010F5F1F4F1F930F930E943D149F
:100D8000C8010E949B060FB6F894DEBF0FBECDBF10
:100D900060960FB6F894DEBF0FBECDBFDF91CF9146
:100DA0001F910F9108950F931F93CF93DF93CDB7AA
:100DB000DEB760970FB6F894DEBF0FBECDBF282F09
:100DC000082E000C330B3F938F9384E591E09F93A3
:100DD0008F938E010F5F1F4F1F930F930E943D143F
:100DE000C8010E949B060F900F900F900F900F90DC
:100DF0000F9060960FB6F894DEBF0FBECDBFDF91A7
:100E0000CF911F910F910895CF93DF9300D0CDB76D
:100E1000DEB723E229831A829C0121503109223551
:100E2000310510F48093090541E0BE016F5F7F4FEB
:100E300086E00E94360B6091090585E00E94F50A64
:100E400060910A0581E10E94F50A60910A0582E13C
:100E50000E94F50A0E941F0B0E94F00A80910B0568
:100E600090910C05DC01ED91FC910190F081E02D59
:100E700062EE09950E94EB0A0F900F90DF91CF91DF
:100E80000895CF93DF9300D000D000D0CDB7DEB768
:100E900049835A836B837C838D839E8326E333E06F
:100EA000F9018081918146E0489FD001499FB00DB2
:100EB0001124AA54BE4FFE01319601900D924A951D
:100EC000E1F7019660E470E00E94AF13F9019183AD
:100ED000808326960FB6F894DEBF0FBECDBFDF919C
:100EE000CF9108950F931F93CF93DF93CDB7DEB7C4
:100EF00060970FB6F894DEBF0FBECDBF7F936F93A0
:100F0000282F082E000C330B3F938F938EE491E033
:100F10009F938F938E010F5F1F4F1F930F930E941C
:100F20003D14C8010E949B060FB6F894DEBF0FBEA9
:100F3000CDBF60960FB6F894DEBF0FBECDBFDF9178
:100F4000CF911F910F910895CF93DF9300D000D0E0
:100F5000CDB7DEB7BE016F5F7F4F80E890E00E94A3
:100F6000750B89819A818B3F9A4FC9F08BEF9AEF6D
:100F70009C838B83BE016D5F7F4F80E890E00E9471
:100F8000C00B81E090E09A838983BE016F5F7F4F41
:100F900080E290E00E94C00B81E090E009C0BE01B9
:100FA0006F5F7F4F80E290E00E94750B89819A818C
:100FB0000F900F900F900F90DF91CF9108955B9855
:100FC0008D9808954F925F926F927F928F929F9229
:100FD000AF92BF92CF92DF92EF92FF92CF93DF93C7
:100FE000CDB7DEB728970FB6F894DEBF0FBECDBFE2
:100FF00080909A0390909B03A0909C03B0909D03D7
:1010000040909E0350909F036090A0037090A103B6
:1010100084149504A604B70449F01092A203109218
:10102000A3031092A4031092A50350C08091A603BD
:101030009091A703A091A803B091A903892B8A2BB3
:101040008B2B09F0CEC18091A2039091A303A091B4
:10105000A403B091A503813325E79207A105B1054B
:1010600054F181E090E0A0E0B0E08093A60390937B
:10107000A703A093A803B093A9031092A203109210
:10108000A3031092A4031092A50328960FB6F89418
:10109000DEBF0FBECDBFDF91CF91FF90EF90DF900D
:1010A000CF90BF90AF909F908F907F906F905F9008
:1010B0004F900C94DF070196A11DB11D8093A203F0
:1010C0009093A303A093A403B093A50380919603E8
:1010D00090919703A0919803B091990389839A8383
:1010E000AB83BC83A3019201281B390B4A0B5B0B1A
:1010F0002D833E834F83588757FF0BC050954095F3
:10110000309521953F4F4F4F5F4F2D833E834F8347
:10111000588780918303C0909203D0909303E0900E
:101120009403F0909503882331F189819A81AB81F2
:10113000BC81481659066A067B060CF443C0A70119
:101140009601C701B6010E949F136627707820910F
:101150008E0330918F0340919003509191030E9430
:10116000C3138D819E81AF81B885281739074A073F
:101170005B0744F582C089819A81AB81BC8184156B
:101180009505A605B7050CF49FC0A7019601C701F8
:10119000B6010E949F136627707820918E033091CC
:1011A0008F0340919003509191030E94C3138D814E
:1011B0009E81AF81B885281739074A075B070CF075
:1011C00083C0E1C080918A0390918B03A0918C032E
:1011D000B0918D03C81AD90AEA0AFB0AC092920399
:1011E000D0929303E0929403F0929503809192033E
:1011F00090919303A0919403B091950329813A8132
:101200004B815C81820F931FA41FB51F80939603AF
:1012100090939703A0939803B09399038816990627
:10122000AA06BB06DCF484149504A604B704B1F046
:1012300080910D0590910E05A0910F05B0911005BC
:10124000880E991EAA1EBB1E80929A0390929B0341
:10125000A0929C03B0929D030E941E028091920373
:1012600090919303A0919403B0919503B7FFB9C0F7
:101270001092830347988F98B4C089819A81AB817B
:10128000BC8184159505A605B7050CF0AFCF40913C
:101290008A0350918B0360918C0370918D03809130
:1012A000860390918703A0918803B0918903C40EAF
:1012B000D51EE61EF71E8C159D05AE05BF050CF06C
:1012C0008DCF6C017D018ACF80918A0390918B0331
:1012D000A0918C03B0918D03C80ED91EEA1EFB1E8F
:1012E000C0929203D0929303E0929403F0929503FC
:1012F0008091920390919303A0919403B0919503F0
:1013000029813A814B815C81820F931FA41FB51FF5
:101310008093960390939703A0939803B0939903B7
:1013200088159905AA05BB05DCF484149504A60468
:10133000B704B1F080910D0590910E05A0910F05B5
:10134000B0911005881A990AAA0ABB0A80929A03DA
:1013500090929B03A0929C03B0929D030E941E0258
:101360008091920390919303A0919403B09195037F
:10137000181619061A061B06A4F581E0809383034C
:10138000479A8F9A2EC029813A814B815C814216FF
:101390005306640675060CF0ABCF40918A0350915A
:1013A0008B0360918C0370918D03809186039091E3
:1013B0008703A0918803B0918903B095A09590957B
:1013C00081959F4FAF4FBF4FC41AD50AE60AF70A5F
:1013D000C816D906EA06FB060CF082CF6C017D0127
:1013E0007FCF28960FB6F894DEBF0FBECDBFDF913A
:1013F000CF91FF90EF90DF90CF90BF90AF909F90F4
:101400008F907F906F905F904F900895CF93DF9370
:10141000EC016991662329F084E893E00E941B1A8D
:10142000F8CFDF91CF910895161617061806190602
:101430006CF4DC01CB01813021E09207A105B105FC
:101440004CF080E091E0A0E0B0E004C081E090E0EA
:10145000A0E0B0E080938A0390938B03A0938C0369
:10146000B0938D03DC01992788273FE0B595A795B8
:10147000979587953A95D1F780938E0390938F0334
:10148000A0939003B093910308950F931F9300913D
:101490000D0510910E0520910F05309110051616BF
:1014A0001706180619062CF4F62FE72F582F492F88
:1014B00004C0F1E0E0E050E040E08F2F9E2FA52F28
:1014C000B42F081719072A073B0714F4D901C801DC
:1014D0008093860390938703A0938803B093890336
:1014E0001F910F9108950F931F9300919E031091E8
:1014F0009F032091A0033091A10360177107820719
:10150000930791F01092A6031092A7031092A803DC
:101510001092A9035B9A8D9A1092A2031092A303D2
:101520001092A4031092A50360939E0370939F03EF
:101530008093A0039093A1031F910F9108951F9290
:101540000F920FB60F9211242F933F934F935F93F7
:101550006F937F938F939F93AF93BF93EF93FF937B
:10156000E091B401F091B5010995FF91EF91BF9120
:10157000AF919F918F917F916F915F914F913F912B
:101580002F910F900FBE0F901F9018953FB7F894B2
:101590008091160590911705A0911805B091190535
:1015A00026B5A89B05C02F3F19F00196A11DB11DBE
:1015B0003FBFBA2FA92F982F8827820F911DA11DF9
:1015C000B11DBC01CD0142E0660F771F881F991F36
:1015D0004A95D1F7089561E0809108050C94D105F2
:1015E00060E0809108050C94D1050F931F93CF9371
:1015F000DF93C82FD62F0E94F00A06E015E0D8012D
:1016000015968D919C911697DC01ED91FC91CF710F
:101610006C2F60620190F081E02D0995F8018581C1
:101620009681DC01ED91FC910190F081E02D6D2F10
:101630000995DF91CF911F910F910C94EB0ACF93F5
:10164000DF93C6E0D5E0188260E089810E94D10571
:101650006BE080E00E94F50A61E089810E94D1057B
:1016600060E387E0DF91CF910C94F50ACF92DF928F
:10167000FF920F931F93CF93DF931F92CDB7DEB7E7
:10168000F82E162F042F79830E94F00A80910B0503
:1016900090910C05DC01ED91FC916F2D6F716062F2
:1016A0000190F081E02D0995F12EC12E7981D72E80
:1016B0008C2D8F19801778F480910B0590910C0573
:1016C000F60161916F01DC01ED91FC910190F081D7
:1016D000E02D0995EDCF0F90DF91CF911F910F91E4
:1016E000FF90DF90CF900C94EB0ACF92DF92EF92B5
:1016F000FF920F931F93CF93DF93CDB7DEB7C456FE
:10170000D1090FB6F894DEBF0FBECDBF8C016B01BF
:10171000023883E01807D8F4C8010E94131AF601B2
:101720008083C80101960E94131AF6018183CC5967
:10173000DF4F0FB6F894DEBF0FBECDBFDF91CF9164
:101740001F910F91FF90EF90DF90CF9008951F921F
:101750001F9282EA91E09F938F93CE0101967C01C4
:101760009F938F930E943D14C7010E94060A0C9418
:1017700000000F900F900F900F900F900F90CCCF14
:10178000CF92DF92EF92FF920F931F93CF93DF934D
:10179000CDB7DEB7C456D1090FB6F894DEBF0FBE81
:1017A000CDBF8C016B01023883E01807D8F4F60135
:1017B0006081C8010E941B1AF6016181C80101966F
:1017C0000E941B1ACC59DF4F0FB6F894DEBF0FBE34
:1017D000CDBFDF91CF911F910F91FF90EF90DF90E0
:1017E000CF9008951F9281E08F9382EA91E09F93BA
:1017F0008F93CE0101967C019F938F930E943D149D
:10180000C7010E94060A0C9400000F900F900F90E1
:101810000F900F900F90CBCF90E0FC01E55EFD4F55
:101820002491FC01E450FE4F8491882399F090E0CC
:10183000880F991FFC01E251FE4FA591B491FC0164
:10184000E052FE4F859194918FB7F894EC91E22B82
:10185000EC938FBF0895FC018091B504811103C002
:101860008FEF9FEF08959FB7F89482E08093E9008F
:101870002091F20030E01216130614F421E030E05B
:101880002115310559F0289884E68093B40480919D
:10189000F10080838091F200882319F09FBFC90175
:1018A00008958BE68093E800F9CFCF92DF92FF9204
:1018B0000F931F93CF93DF931F92CDB7DEB7F82E10
:1018C0008B016C018C2D8F198417A0F480910B056E
:1018D00090910C05D6016D916D01DC01ED91FC91AB
:1018E0000190F081E02D49830995F80181938F01E2
:1018F0004981E8CF0F90DF91CF911F910F91FF9019
:10190000DF90CF9008950F931F93CF93C82F8B0133
:101910000E94F00A80910B0590910C05DC01ED917D
:10192000FC916C2F6F710190F081E02D099541E0E1
:10193000B801C8010E94550CCF911F910F910C94D2
:10194000EB0ACF93DF931F92CDB7DEB7BE016F5F77
:101950007F4F87E00E94830C8981807321F00E9471
:101960001F0B80E001C081E00F90DF91CF910895BF
:10197000CF92DF92EF92FF920E94C60A6B017C0128
:101980000E94C60ADC01CB018C199D09AE09BF0972
:10199000883E9340A105B10598F3FF90EF90DF904A
:1019A000CF90089580911E0581110DC082E0809333
:1019B0001A0584E080931B0510921D0510921C05EA
:1019C00081E080931E058AE195E008951F920F92B1
:1019D0000FB60F9211242F933F938F939F93AF9342
:1019E000BF938091120590911305A0911405B091B9
:1019F00015053091110523E0230F2D3720F40196B2
:101A0000A11DB11D05C026E8230F0296A11DB11D21
:101A1000209311058093120590931305A09314054C
:101A2000B09315058091160590911705A0911805A2
:101A3000B09119050196A11DB11D809316059093D3
:101A40001705A0931805B0931905BF91AF919F9109
:101A50008F913F912F910F900FBE0F901F9018956F
:101A6000CF92DF92EF92FF920F931F93CF93DF936A
:101A70001F92CDB7DEB7182F062FE42E862F880FC2
:101A80008E5F99830E944E0183E00E944E01F12EE9
:101A9000C12E9981D92E8C2D8F19801798F4F601BB
:101AA000E7FE02C0849101C080810E944E01182F80
:101AB00080E00E944E018123FFEFCF1ADF0A8111DF
:101AC000EACF01C081E00F90DF91CF911F910F917C
:101AD000FF90EF90DF90CF900895CF93DF93CDB735
:101AE000DEB7A2970FB6F894DEBF0FBECDBF7894D5
:101AF00084B5826084BD84B5816084BD85B5826013
:101B000085BD85B5816085BD80916E0081608093C3
:101B10006E0010928100809181008260809381002C
:101B2000809181008160809381008091800081603C
:101B300080938000809191008260809391008091D9
:101B400091008160809391008091900081608093EA
:101B500090008091C10084608093C1008091C10099
:101B600082608093C1008091C10081608093C10038
:101B70008091C30081608093C3008091C000826027
:101B80008093C0008091C20081608093C2008091E8
:101B90007A00846080937A0080917A0082608093DA
:101BA0007A0080917A00816080937A0080917A0037
:101BB000806880937A001092B5041092B30110925D
:101BC000B2018091D70081608093D70080EA809332
:101BD000D80089B5806189BD89B5826089BD09B4A5
:101BE00000FEFDCF0E94B80C8091D8008F7C8061F0
:101BF0008093D8008091E000807F8093E000809106
:101C0000E1008E7E8093E1008DE08093E200559AA2
:101C1000209AEEEFFFE7859194918B3F9C4D19F44C
:101C200081E08093B1018FEF9FEF9093C304809385
:101C3000C204539A579A529A259A569A3F9A809A72
:101C4000819A859A869A879A849A8898899A11E0C7
:101C500010938303109286031092870310928803D7
:101C60001092890310928A0310928B0310928C03B6
:101C700010928D03109285031092840310928E03AC
:101C800010928F031092900310929103109292037E
:101C9000109293031092940310929503109296035E
:101CA00010929703109298031092990310929A033E
:101CB00010929B0310929C0310929D0310929E031E
:101CC00010929F031092A0031092A1031092A203FE
:101CD0001092A3031092A4031092A50381E090E058
:101CE000A0E0B0E08093A6039093A703A093A8037D
:101CF000B093A9031092AA030E94DF075A9A2D9A63
:101D00008CE091E090930C0580930B058091070582
:101D10000E940C0C809108050E940C0C60E08091E0
:101D200007050E94D1050E94EB0A80910B05909156
:101D30000C05DC01ED91FC910280F381E02D099509
:101D400060E0809107050E94D10545E06AE571E0F9
:101D50008BE00E94360B61E0809107050E94D1055F
:101D600086E080930A050E94A4070E94040761E0B0
:101D700070E080E090E00E94140A61E070E080E092
:101D800090E00E94450A80E18093810010928000DB
:101D900082E19AE7909387008093860084E18093A4
:101DA00081001093B10480E395E09093B004809398
:101DB000AF04909387008093860081E18093810037
:101DC00082EE97E09093B5018093B40110936F0079
:101DD0006E01B7E1CB0ED11C8E010F5F1F4F1E01AC
:101DE000E2E12E0E311CE7EA4E2EE1E05E2EFDEA26
:101DF000EF2EF3E0FF2E86E0D6011D928A95E9F7DB
:101E000080910605811108C0B80187E00E94830C0B
:101E1000898186FD0DC005C00E94A10C8111E7C11A
:101E2000F3CFB80187E10E94830C898180FDDFC177
:101E30000E94F00A80910B0590910C05DC01ED9158
:101E4000FC910190F081E02D61E6099540910A0531
:101E5000B601C6010E94550C0E94EB0A60E487E0BF
:101E60000E94F50A86E0F601DE01519601900D927E
:101E70008A95E1F789898D3009F4E2C00CF046C0FB
:101E8000863009F4A3C03CF5823009F489C0B4F46B
:101E9000813009F0ACC186E0F80111928A95E9F72A
:101EA00082E0898385E0EFE8F1E0DE01129601909F
:101EB0000D928A95E1F749815A8118C1833009F45E
:101EC00077C0843009F093C18B898F938A898F936F
:101ED0001F9283E792C08A3009F499C06CF487306E
:101EE00009F484C0883009F082C18B898F938A8974
:101EF0008F931F928DE681C08B3009F498C08C308F
:101F000009F075C16A897B8981E64AC1873109F484
:101F1000F4C08CF5823109F4B2C054F48E3009F467
:101F20009EC08F3009F063C16A897B8984E638C11D
:101F3000853109F4AEC0863109F059C180919E0304
:101F400090919F03A091A003B091A1037FE0B5956C
:101F5000A795979587957A95D1F726E0F801119284
:101F60002A95E9F728E12983582F8A839B83AC833C
:101F7000BD8348E1BBC0823209F40FC154F48831FB
:101F800009F4EFC08F3109F032C16A897B8981E79A
:101F900007C1833209F407C1883709F407C127C193
:101FA0003F922F921F9287E78F9380E691E028C09F
:101FB00086E0D8011D928A95E9F784E0898381E063
:101FC000582F8A831B8244E060E091C09091860381
:101FD00020918703D8011D928A95E9F788E08983CB
:101FE000592F9A832B8348E0622F81C06A897B89AD
:101FF00080E090E00E94450AFAC08F9386E691E067
:102000009F938F931F930F930E943D14BDC08091A7
:102010008A0390918B0326E0D8011D922A95E9F757
:102020002CE02983582F8A839B834CE016C06A8951
:102030007B89072E000C880B990B0E94140AD7C0CD
:102040000E94A40726E0F80111922A95E9F72FE0F3
:102050002983582F8A839B834FE0692F48C08A8940
:102060009B899AA389A3BE016F5D7F4F80E290E0B8
:102070000E94C00B8A899B890E940407B8C08B8983
:102080008F938A898F931F9289E68F938CE691E0D4
:10209000B7CF80913A03853121F0109278031092E6
:1020A000770385E180933A03D101E0917703F091C2
:1020B0007803E55CFC4FCD018219930906970CF07B
:1020C00096C08D91819380818111F5CF8BE393E050
:1020D000009709F48CC09F938F931F9285E08F9394
:1020E0001F928EE68F9383E791E048C06B817C81DD
:1020F0008D819E810E9441077AC08A889B88AC8826
:10210000BD886FE0880C991CAA1CBB1C6A95D1F78E
:102110008091AA0381111CC080929A0390929B0324
:10212000A0929C03B0929D03809296039092970395
:10213000A0929803B092990380929E0390929F037D
:10214000A092A003B092A10381E08093AA0304C0EF
:10215000C501B4010E94730ABF92AF929F928F9201
:1021600008C08D898F938C898F938B898F938A89EF
:102170008F931F928FE68F938BE791E09F938F93BE
:102180001F930F930E943D14C8010E949B060FB637
:10219000F894DEBF0FBECDBF2AC06A897B8984E771
:1021A0000E94720724C01092AA0321C0EA89E75056
:1021B000E63128F4F0E0E15EFE4F808101C08FE55A
:1021C000282F082E000C330B3F938F9382E891E069
:1021D0009F938F931F930F930E943D14C8010E94F9
:1021E0009B060F900F900F900F900F900F90809183
:1021F000060581110DC0809138039091390320911B
:102200003603309137038217930709F049C204C09F
:102210000E94A10C882379F38824839449E6A42E94
:1022200041E0B42E56E0952E86EB94E00E94FC012E
:10223000181619060CF0F3C186EB94E00E94E00238
:102240002091AB043091AC04A9014F5F5F4F5093D4
:10225000AC044093AB04203831050CF0D3C1F90134
:10226000E555FC4F8A3009F0CBC11082E091AB03F9
:102270004E2FEE0F550B660B770BFA01E154F10967
:10228000E833F10508F0B9C1EB59FF4F0C94E213A4
:10229000233031051CF488E891E0B6C1C9010297EA
:1022A0004091AD045091AE049C01240F351F21389C
:1022B00031052CF085E491E00E94710617C0ADEA6B
:1022C000B3E0455D5B4FFA012D9121939F01241BE3
:1022D000350B28173907C4F32091AD043091AE04B3
:1022E000820F931F9093AE048093AD048CE491E031
:1022F0000E9471068BC1AFE8B1E0BF93AF931F920C
:1023000086E78F93A0E6B1E0BF93AF931F930F933F
:102310000E943D14C8010E949B060FB6F894DEBFD0
:102320000FBECDBF73C161E070E082E716C1D80176
:10233000E92D1D92EA95E9F7898241E0A1C0D80113
:10234000E92D1D92EA95E9F783E0898343E098C07F
:10235000D801E92D1D92EA95E9F78BE189834BE1DC
:102360005A816B817C818D819E810E94410785E726
:1023700041C1D801E92D1D92EA95E9F78DE18983E4
:102380004DE17EC0D801E92D1D92EA95E9F78EE175
:102390008983DF92CF925F924F92FF92EF920E94D9
:1023A00060148F89988D582F8A839B834981692F68
:1023B0007C818D819E810E94410781E5B1C0D80159
:1023C000E92D1D92EA95E9F780E1898340E158C043
:1023D00089E410C1D801E92D1D92EA95E9F783E15E
:1023E000898343E14DC08EE405C10E94A407BC016E
:1023F00083E6B3C01F930F93BF92AF92FF92EF9209
:102400000E94601469807A8078A26F8EBE01615E3E
:102410007F4F80E290E00E94C00BC3010E9404073E
:1024200083E47EC0D801E92D1D92EA95E9F78DE09D
:1024300089834DE025C01F930F935F924F92FF92C7
:10244000EF920E94601489819A81D801E92D1D9232
:10245000EA95E9F7FEE0F983582F8A839B834EE0E3
:10246000692F7C818D819E810E94410784E458C040
:10247000D801E92D1D92EA95E9F7F0E2F98340E2EF
:102480005A816B817C818D819E810E944107BEC0F3
:102490001F930F935F924F92FF92EF920E946014EE
:1024A00089819A81D801E92D1D92EA95E9F7F1E237
:1024B000F983582F8A839B8341E2692F7C818D8128
:1024C0009E810E94410784E52BC060918603709134
:1024D00087038DE642C01F930F93BF92AF92FF9286
:1024E000EF920E94601469817A8180E090E00E94FE
:1024F000450A8DE415C060918A0370918B0381E6D3
:102500002CC01F930F93BF92AF92FF92EF920E9445
:10251000601469817A8180E090E00E94140A81E46D
:102520000E94D3060F900F900F900F900F900F9076
:102530006DC088E75FC080919E0390919F03A0913A
:10254000A003B091A103BC01CD013FE09595879513
:10255000779567953A95D1F78FE60E94A10656C008
:102560001F930F935F924F92FF92EF920E9460141D
:1025700069817A81CB01770FAA0BBB0BBC01CD011E
:102580002FE0660F771F881F991F2A95D1F70F90AC
:102590000F900F900F900F900F902091AA0322237D
:1025A00019F00E94730A1AC060939A0370939B03F8
:1025B00080939C0390939D0360939603709397037D
:1025C000809398039093990360939E0370939F0365
:1025D0008093A0039093A1038092AA038FE40AC082
:1025E0001E8E1D8EBE01635E7F4F80E890E00E94CC
:1025F000C00B89E50E94D30609C084E991E004C0BC
:10260000808308C08BE991E00E949B061092AC0485
:102610001092AB041092B3041092B20405CEA090B5
:10262000AD04B090AE041092AE041092AD04A114AB
:10263000B10471F18091B2049091B304892B41F5FA
:1026400083E0682E712C812C912CE091B604F091DE
:10265000B704B401655D7B4F0280F381E02DA501D5
:1026600086EB94E00995880E991EA81AB90A1A14E7
:102670001B044CF0892861F481E090E09093B3044E
:102680008093B20405C021E0621A7108F1F6F2CF1E
:1026900080E090E0892B09F4AECB0E940000A3CB30
:1026A000019660E470E00E94AF1390933903809329
:1026B0003803B2CDE6EBF4E01382128288EE93E0A9
:1026C000A0E0B0E084839583A683B78389E391E09B
:1026D000918380838FEF9FEF95878487E6E0F5E015
:1026E00088E0818387E0828381E0838380E1848343
:1026F0001682158280E090E8A0E0B0E08093260585
:1027000090932705A0932805B093290580932A0567
:1027100090932B05A0932C05B0932D0580930D0568
:1027200090930E05A0930F05B093100580932E058E
:1027300090932F05A0933005B09331050895DB01E8
:102740008F939F930E94E813BF91AF91A29F800D3A
:10275000911DA39F900DB29F900D1124089597FB9A
:10276000072E16F4009407D077FD09D00E94F313CA
:1027700007FC05D03EF4909581959F4F0895709584
:1027800061957F4F0895052E97FB1EF400940E94DB
:10279000DA1357FD07D00E94071407FC03D04EF44C
:1027A0000C94DA1350954095309521953F4F4F4F3B
:1027B0005F4F089590958095709561957F4F8F4FED
:1027C0009F4F0895EE0FFF1F0590F491E02D09949F
:1027D0000E942914A59F900DB49F900DA49F800D79
:1027E000911D11240895AA1BBB1B51E107C0AA1F0C
:1027F000BB1FA617B70710F0A61BB70B881F991FA2
:102800005A95A9F780959095BC01CD010895A1E254
:102810001A2EAA1BBB1BFD010DC0AA1FBB1FEE1F5A
:10282000FF1FA217B307E407F50720F0A21BB30BA5
:10283000E40BF50B661F771F881F991F1A9469F721
:1028400060957095809590959B01AC01BD01CF017D
:102850000895A29FB001B39FC001A39F700D811D79
:102860001124911DB29F700D811D1124911D089599
:1028700081E090E0F8940C94601AAEE0B0E0E3E4FC
:10288000F4E10C94371A0D891E8986E08C831A8333
:1028900009838FEF9FE79E838D83AE01475E5F4F75
:1028A0006F89788DCE0101960E9479142F81388529
:1028B000F801E20FF31F10822E96E4E00C94531AF5
:1028C000AEE0B0E0E6E6F4E10C94391A85E08C83E2
:1028D0008B899C899A838983AE01495E5F4F6D899C
:1028E0007E89CE0101960E94CB172E96E2E00C94D1
:1028F000551AACE0B0E0EFE7F4E10C94291A7C0142
:102900006B018A01FC0117821682838181FFBDC1A0
:10291000CE0101964C01F7019381F60193FD85915B
:1029200093FF81916F01882309F4ABC1853239F49B
:1029300093FD859193FF81916F01853229F4B70151
:1029400090E00E946119E7CF512C312C20E0203219
:10295000A0F48B3269F030F4803259F0833269F49C
:1029600020612CC08D3239F0803339F4216026C0CB
:102970002260246023C0286021C027FD27C030EDDD
:10298000380F3A3078F426FF06C0FAE05F9E300D2B
:102990001124532E13C08AE0389E300D1124332E9B
:1029A00020620CC08E3221F426FD6BC1206406C06B
:1029B0008C3611F4206802C0883641F4F60193FD8C
:1029C000859193FF81916F018111C1CF982F9F7DD8
:1029D0009554933028F40C5F1F4FFFE3F9830DC02B
:1029E000833631F0833771F0833509F05BC022C044
:1029F000F801808189830E5F1F4F44244394512C3A
:102A0000540115C03801F2E06F0E711CF801A0806E
:102A1000B18026FF03C0652D70E002C06FEF7FEF2D
:102A2000C5012C870E9418192C0183012C852F7752
:102A3000222E17C03801F2E06F0E711CF801A08041
:102A4000B18026FF03C0652D70E002C06FEF7FEFFD
:102A5000C5012C870E940D192C012C852068222E7F
:102A6000830123FC1BC0832D90E048165906B0F467
:102A7000B70180E290E00E9461193A94F4CFF50129
:102A800027FC859127FE81915F01B70190E00E94AC
:102A9000611931103A94F1E04F1A51084114510470
:102AA00071F7E5C0843611F0893639F5F80127FF52
:102AB00007C060817181828193810C5F1F4F08C0C4
:102AC00060817181072E000C880B990B0E5F1F4FE0
:102AD0002F76722E97FF09C090958095709561951D
:102AE0007F4F8F4F9F4F2068722E2AE030E0A40165
:102AF0000E94B219A82EA81844C0853729F42F7E49
:102B0000B22E2AE030E025C0F22FF97FBF2E8F369B
:102B1000C1F018F4883579F0B4C0803719F08837DF
:102B200021F0AFC02F2F2061B22EB4FE0DC08B2D2F
:102B30008460B82E09C024FF0AC09F2F9660B92E6A
:102B400006C028E030E005C020E130E002C020E10E
:102B500032E0F801B7FE07C0608171818281938104
:102B60000C5F1F4F06C06081718180E090E00E5FB6
:102B70001F4FA4010E94B219A82EA818FB2DFF77A1
:102B80007F2E76FE0BC0372D3E7FA51450F474FEC9
:102B90000AC072FC08C0372D3E7E05C0BA2C372D06
:102BA00003C0BA2C01C0B52C34FF0DC0FE01EA0DE4
:102BB000F11D8081803311F4397E09C032FF06C0D7
:102BC000B394B39404C0832F867809F0B39433FD93
:102BD00013C030FF06C05A2CB31418F4530C5B1802
:102BE000B32CB31468F4B70180E290E03C870E94F4
:102BF0006119B3943C85F5CFB31410F43B1801C0B0
:102C0000312C34FF12C0B70180E390E03C870E9472
:102C100061193C8532FF17C031FD03C088E790E0A1
:102C200002C088E590E0B7010CC0832F867859F088
:102C300031FF02C08BE201C080E237FD8DE2B701B7
:102C400090E00E946119A51438F4B70180E390E088
:102C50000E9461195A94F7CFAA94F401EA0DF11D6C
:102C60008081B70190E00E946119A110F5CF332057
:102C700009F451CEB70180E290E00E9461193A94C4
:102C8000F6CFF7018681978102C08FEF9FEF2C96D8
:102C9000E2E10C94451A20FD09C0FC0123FD05C0AA
:102CA00022FF02C07383628351834083089544FDF1
:102CB00010C046FD10C0DB01FC01AA0FBB1FEE1FB8
:102CC000FF1F1094D1F76A0F7B1F8E1F9F1F31E0EB
:102CD00003C033E001C034E0660F771F881F991FDF
:102CE0003150D1F7620F711D811D911D08950F9311
:102CF0001F93CF93DF938C01C8010E942319EC012D
:102D000097FD08C00E94F918892BB1F7B801CE01D0
:102D10000E949919CE01DF91CF911F910F910895D3
:102D2000A1E0B0E0E6E9F6E10C942F1A8C01C62E82
:102D30007A0129830E942319AC01552729814B323E
:102D4000510521F04D32510569F42068CA94C11033
:102D500002C080E076C0C80129830E94231929811E
:102D600097FDF7CF322F3D7FD32E322F307349F5A9
:102D7000803339F5BB24BA94BC0C09F44EC0C801A9
:102D800029830E942319298197FD47C0382F3F7D51
:102D9000383569F48D2D8264D82ECA94CA94CC201B
:102DA000E1F1C8010E94231997FF0BC036C026FF2E
:102DB00004C02D2D2260D22E03C03D2D3261D32EB2
:102DC000CB2C812C912C540120ED280F283080F041
:102DD000D4FE04C0B8010E9499191CC02A3040F0EA
:102DE000D6FEF8CF2F7D3FEE320F363098F72750C2
:102DF0004D2DC501B4010E9457164B015C018D2D6C
:102E00008260D82ECA94CC2059F0C8010E942319A0
:102E100097FFDACFD1FC04C09CCF812C912C5401B8
:102E2000D7FE08C0B094A09490948094811C911C0B
:102E3000A11CB11C2D2DB501A401C7010E944B1688
:102E400081E02196ECE00C944B1AA1E2B0E0EBE2B9
:102E5000F7E10C942D1A5C017A01CE0101966C0108
:102E600080E2F60111928A95E9F7F501838040E04E
:102E700050E0912C712C70E0A1E0B0E0F90183FCEE
:102E8000859183FE81918F01982F9F01811103C04D
:102E900080E090E07CC08E3519F44115510549F170
:102EA000E72FF0E0E417F5073CF48D3559F18D324A
:102EB00019F4772001F103C0711001C0982E892FF9
:102EC0008695869586958601080F111D892F877036
:102ED0003D0101C0660C8A95EAF7F80180818629D8
:102EE0008083991559F0991510F49F5FE8CF9150A0
:102EF000E6CF71E004C07724739401C0712C4F5F5A
:102F00005F4FBCCF772019F08E8180628E83711164
:102F100003C09924939416C0F6019E012F5D3F4F84
:102F2000808180958193E217F307D1F7F2CFE11406
:102F3000F10429F0F7018083C70101967C016150FB
:102F4000912CF9F0C50169A30E94231969A197FD8D
:102F500016C0282F269526952695F601E20FF11D1D
:102F6000208130E0AC014770552702C03595279588
:102F70004A95E2F720FDDBCFB5010E949919911027
:102F800087CFE114F10411F0F7011082C801A19676
:102F9000EEE00C94491A4F925F927F928F929F922B
:102FA000AF92BF92CF92DF92EF92FF920F931F9357
:102FB000CF93DF931F92CDB7DEB76C012B015A017F
:102FC000FC0117821682712CF601F380F201F3FCEA
:102FD0008591F3FE8191382F2F01882309F4F3C0E6
:102FE00090E039830E94F9183981892B21F0C601BC
:102FF0000E947716E9CF353241F4F201F3FC3591A6
:10300000F3FE31912F01353269F4C60139830E94F4
:103010002319398197FDD5C03817B1F2B6010E9446
:103020009919D1C03A3239F4F3FC3591F3FE31915C
:103030002F0151E001C050E0420110E020ED230FCC
:103040002A3090F45260612F70E080E090E040E21E
:1030500059830E945716162FF401F3FC3591F3FEA5
:1030600031914F015981EACF052F232F240151FFC0
:1030700003C0111102C0A7C01FEF383619F03C364B
:1030800059F011C0F401F3FC2591F3FE21912F01B9
:10309000283649F4052F08600460F201F3FC2591FD
:1030A000F3FE21912F01222309F48DC0622F70E0DD
:1030B0008AE392E029830E9402192981892B09F46D
:1030C00082C000FD07C0F501E080F180C5010296D5
:1030D0005C0102C0E12CF12C2E3651F4F601468140
:1030E000578160E070E0202FC7010E944B166CCF23
:1030F000233691F401FF11E0C6010E94231997FDC8
:1031000060C0E114F10429F0F7018083C701019642
:103110007C01115089F751C02B3559F49201A70158
:10312000612FC6010E9425172C01892B09F045C08B
:103130003FC0C60129830E947716298197FD41C0AF
:103140002F3659F128F4243631F1293649F127C0B8
:10315000233769F02537F9F022C0E114F10429F092
:10316000F7018082C70101967C01115071F0C60100
:103170000E9423194C0197FD08C00E94F918892B61
:1031800061F3B601C4010E949919E114F104A9F098
:10319000F701108212C0006203C0006101C0006428
:1031A000202FA701612FC6010E949016811105C032
:1031B000F6018381807329F406C000FD05CF739466
:1031C00003CF772019F0872D90E002C08FEF9FEF9B
:1031D0000F90DF91CF911F910F91FF90EF90DF90B3
:1031E000CF90BF90AF909F908F907F905F904F90C7
:1031F000089591110C94101A803219F0895085505D
:10320000C8F70895FC010590061621F00020D9F7B3
:10321000C00108953197CF010895FC0105906150D8
:1032200070400110D8F7809590958E0F9F1F0895DC
:10323000FC016150704001900110D8F78095909585
:103240008E0F9F1F0895CF93DF93EC012B8120FFFA
:1032500033C026FF0AC02F7B2B838E819F8101966E
:103260009F838E838A8190E029C022FF0FC0E8816E
:10327000F9818081082E000C990B009719F42062C7
:103280002B831AC03196F983E8830EC0EA85FB854B
:10329000099597FF09C02B81019611F080E201C0CA
:1032A00080E1822B8B8308C02E813F812F5F3F4FAF
:1032B0003F832E83992702C08FEF9FEFDF91CF913D
:1032C00008950F931F93CF93DF93FB01238121FD7B
:1032D00003C08FEF9FEF28C022FF16C046815781A1
:1032E000248135814217530744F4A081B1819D01A7
:1032F0002F5F3F4F318320838C93268137812F5F4F
:103300003F4F3783268310C0EB01092F182F00840D
:10331000F185E02D0995892BE1F68E819F8101963B
:103320009F838E83812F902FDF91CF911F910F91DB
:103330000895FB01238120FF12C026FD10C08F3F9E
:103340003FEF930761F082832F7D206423832681E2
:1033500037812150310937832683992708958FEFCC
:103360009FEF0895FA01AA27283051F1203181F109
:10337000E8946F936E7F6E5F7F4F8F4F9F4FAF4F7D
:10338000B1E03ED0B4E03CD0670F781F891F9A1F90
:10339000A11D680F791F8A1F911DA11D6A0F711D44
:1033A000811D911DA11D20D009F468943F912AE050
:1033B000269F11243019305D3193DEF6CF01089538
:1033C000462F4770405D4193B3E00FD0C9F7F6CF69
:1033D000462F4F70405D4A3318F0495D31FD405231
:1033E000419302D0A9F7EACFB4E0A69597958795C7
:1033F00077956795BA95C9F70097610571050895A6
:103400009B01AC010A2E0694579547953795279551
:10341000BA95C9F7620F731F841F951FA01D0895E9
:10342000992788270895F999FECF92BD81BDF89A12
:10343000992780B50895262FF999FECF1FBA92BD1E
:1034400081BD20BD0FB6F894FA9AF99A0FBE019685
:1034500008952F923F924F925F926F927F928F9238
:103460009F92AF92BF92CF92DF92EF92FF920F9313
:103470001F93CF93DF93CDB7DEB7CA1BDB0B0FB61D
:10348000F894DEBF0FBECDBF09942A8839884888DA
:103490005F846E847D848C849B84AA84B984C88470
:1034A000DF80EE80FD800C811B81AA81B981CE0F67
:1034B000D11D0FB6F894DEBF0FBECDBFED0108954C
:0434C000F894FFCFAE
:1034C400FFFFFFFF00E1000000000000190100C140
:1034D4008081000000000000001702340616024D2F
:1034E4005F5F5F415F5F445F5F495F5F4E5F5F4F58
:1034F4005F5F5F757800000000DB015902FC01E0AA
:1035040002FE02F101455252203031000A002563C7
:103514003D2564002563204F4B00736572763100AE
:1035240025633D25730025633D25750025633D25F1
:103534006C750025633D252E2A730025633D256C9B
:1035440064004F4B20256300455252203034003232
:103554002E32300045525220303300455252203032
:0A35640032004552523A202564005F
:00000001FF
