:100000000C947E020C9436130C940F130C94E8128B
:100010000C94C1120C94A6020C94A6020C949A1291
:100020000C94A6020C94A6020C94450E0C94B70EE8
:100030000C94A6020C94A6020C94A6020C94A602A0
:100040000C94A6020C94A6020C94A6020C94A60290
:100050000C94A6020C94A6020C94A6020C945012C6
:100060000C94A6020C94A6020C94A6020C94A60270
:100070000C94A6020C94A6020C94A6020C94A60260
:100080000C94A6020C94A6020C94A6020C94A60250
:100090000C94A6020C94A6020C94ED1D0C94A602DE
:1000A0000C94A6020C94A6020C94A6026808C90837
:1000B000C9086008C90862086408C908C908660850
:1000C0006C086A089708C908C9087B08C90882082B
:1000D0008908C908C90890089B089908BD08C9087B
:1000E000C908AF08C908B208B708C908C908BA08DA
:1000F000C508C208DF08EB082C09EB08FA08ED0870
:10010000F308F0082C092C092C092C092C092C09BE
:100110002C093409F608DC09A90AA20A610AA20A14
:100120008F0A990A940AA20AA20AA20AF2091F11C6
:1001300022111111151119114311431143112611E7
:100140002A112E113411381143113E11BA11BF1169
:10015000C411CE11D811221222122212E211EC1176
:10016000F61100120D1222121512D018151A2418A9
:100170003A1A3A1A3A1AB8193A1AB7173A1A3A1AE8
:100180003A1A87180F183A193A1A7B173A1A3A1A74
:1001900056183A1A3A1A3A1A3A1A3A1A3A1A3A1AA5
:1001A0003A1A3A1A3A1A3A1A3A1AC2181A1A1D1868
:1001B0003F183A1A3A1A6D1917178B173A1A3A1A42
:1001C0003A1A7218DD172F193A1A72175117601759
:1001D0004A18F11847175517F318000000002400BB
:1001E00027002A002D003000000000002500280014
:1001F0002B002E0031000000000200090F00000358
:100200000401000C000000000000000000000000DD
:100210000000000000080B000202020100090400B7
:100220000001020200000524001001052401010163
:10023000042402060524060001070581031000407E
:1002400009040100020A0000000705020240000044
:1002500007058302400000040309044172647569C4
:100260006E6F204C4C430041726475696E6F204C78
:10027000656F6E6172646F00120100020000004041
:100280004123368000010102030112010002EF0246
:1002900001404123368000010102030100010204F4
:1002A0000810204080010204081020408001020450
:1002B0000810204080010204081020408001020440
:1002C0000810204080010204081020408001020430
:1002D0000810204080010204081020408000000027
:1002E0000000000000000101010101010101020202
:1002F00002020202020203030303030303030404D2
:1003000004040404040405050505050505050606A1
:100310000606060606060707070707070707FFFE84
:10032000FDFBF7EFDFBF7FFEFDFBF7EFDFBF7FFEDB
:10033000FDFBF7EFDFBF7FFEFDFBF7EFDFBF7FFECB
:10034000FDFBF7EFDFBF7FFEFDFBF7EFDFBF7FFEBB
:10035000FDFBF7EFDFBF7FFEFDFBF7EFDFBF7F00A9
:100360000102020303030304040404040404040557
:10037000050505050505050505050505050505062C
:10038000060606060606060606060606060606060D
:1003900006060606060606060606060606060607FC
:1003A00007070707070707070707070707070707DD
:1003B00007070707070707070707070707070707CD
:1003C00007070707070707070707070707070707BD
:1003D00007070707070707070707070707070708AC
:1003E000080808080808080808080808080808088D
:1003F000080808080808080808080808080808087D
:10040000080808080808080808080808080808086C
:10041000080808080808080808080808080808085C
:10042000080808080808080808080808080808084C
:10043000080808080808080808080808080808083C
:10044000080808080808080808080808080808082C
:100450000808080808080808080808080808080420
:1004600008020110408040102040804080080204B3
:100470000180402010020110801020404020000028
:1004800000002300260029002C002F00040404048F
:100490000403040502020202040302020202060629
:1004A00006060606040402020204047170002F55B9
:1004B000736572732F647468617965722F2E6C6531
:1004C0006E7A686F756E642F6275696C642F736BDA
:1004D000657463682F616F5F5478722E637070006B
:1004E000070605040100080A0B0C0D096364696E18
:1004F0006F70737578585B004127C32811241FBEA5
:10050000CFEFDAE0DEBFCDBF11E0A0E0B1E0EEE971
:10051000F1E602C005900D92A83EB107D9F726E09A
:10052000A8EEB1E001C01D92A439B207E1F712E0D4
:10053000CDE7D2E004C02197FE010E940729CC3705
:10054000D107C9F70E946E210C94C2300C940000B0
:100550000C94FA29CF93DF93EC018091D10482307F
:1005600030F4F89486EC94E00E94E01E01C0F89408
:100570008091CD049091CE04A091CF04B091D0048D
:100580007894FE01E458FF4F80839183A283B38364
:10059000389780839183A283B3833496C859DF4F01
:1005A00088819981AA81BB8180839183A283B3834F
:1005B000DF91CF9108958F929F92AF92BF92CF9289
:1005C000DF92EF92FF92CF93DF93EC01FC01E757AC
:1005D000FF4F81E08083CE010E94AA02FE01E45910
:1005E000FF4F8FEF9FEFDC0180839183A283B38362
:1005F000349680839183A283B38364E070E0CE015C
:100600000E94B21465E070E0CE010E94B21466E070
:1006100070E0CE010E94B21467E070E0CE010E944B
:10062000B21468E070E0CE010E94B21469E070E09C
:10063000CE010E94B21482E090E09BAB8AAB42E014
:1006400050E0BE01CE0188960E941914CE01805C54
:100650009F4F20E034E0FC013387228740E054E0E4
:10066000BE010E94191480E095E09B8F8A8F40E0C4
:1006700055E0BE01CE0140960E94191480E490E03E
:100680009FAF8EAF40E450E0BE01CE01C4960E9401
:10069000191482E290E00E94161C7E01F0E8EF0E31
:1006A000F11C092E000CAA0BBB0BF7018083918370
:1006B000A283B38384E290E00E94161C6E01F4E8EA
:1006C000CF0ED11C092E000CAA0BBB0BF6018083A8
:1006D0009183A283B38380E390E00E94161CFE0105
:1006E000EF55FF4F91838083F60180809180A28037
:1006F000B380F701C080D180E280F3800E94922015
:10070000A50194012C193D094E095F09DC010E94E5
:10071000272920E034E040E050E00E94E828C20EA3
:10072000D31EE41EF51EFE01E859FF4FC082D182A0
:10073000E282F3827096C082D182E282F38286E204
:1007400090E00E94161C892B19F08AEB99E027C0D3
:100750006E01FAE8CF0ED11CE12CF12CC70188966E
:100760000E94161C092E000CAA0BBB0BF6018193EC
:100770009193A193B1936F01F2E0EF0EF11C28E089
:10078000E216F10459F74E9B03C08CEC9BE007C0C6
:100790004C9B03C08EE59CE102C08FED9CE19D83E4
:1007A0008C8382E0DF91CF91FF90EF90DF90CF902C
:1007B000BF90AF909F908F9008958F929F92AF922D
:1007C000BF92CF92DF92EF92FF920F931F93CF933E
:1007D000DF93FC01EC55FF4F80819181892B09F05B
:1007E00032C1809004029090050297FE03C083E01E
:1007F000880E911C959487949594879418141904E5
:1008000084F4092C000CAA08BB0881E28816910424
:10081000A104B10454F0D0E28D2E912CA12CB12C66
:1008200004C0812C912C5401839481E0881691049A
:10083000A104B10431F1A50194012150310941090C
:100840005109283031054105510524F027E030E0F9
:1008500040E050E0AEECBFEF0E942A2927E030E0F4
:1008600040E050E00E94E828DA01C901C296A11DCB
:10087000B11D6C0188E088169104A104B10421F433
:1008800032C0CC24CA94D12CD501C4010897A10947
:10089000B109B7FF07C0B095A095909581959F4F7E
:1008A000AF4FBF4F9C01AD010897A105B10524F0E2
:1008B00027E030E040E050E0AEECBFEF0E942A2994
:1008C00027E030E040E050E00E94E828DA01C9016A
:1008D000C296A11DB11D7C0180E188169104A1047E
:1008E000B10421F432C0EE24EA94F12CD501C40104
:1008F0004097A109B109B7FF07C0B095A0959095A1
:1009000081959F4FAF4FBF4F9C01AD010897A10547
:10091000B10524F027E030E040E050E0AEECBFEF5E
:100920000E942A2927E030E040E050E00E94E828B9
:10093000DA01C901C296A11DB11DEC0188E188163A
:100940009104A104B10419F431C0CFEFD0E0D50176
:10095000C4014897A109B109B7FF07C0B095A09598
:10096000909581959F4FAF4FBF4F9C01AD01089768
:10097000A105B10524F027E030E040E050E0AEEC06
:10098000BFEF0E942A2927E030E040E050E00E94BB
:10099000E828DA01C901C296A11DB11D8C0180E2CF
:1009A00088169104A104B10419F428C00FEF10E0D7
:1009B00080E2881A9108A108B10822273327A901EB
:1009C000281939094A095B092830310541055105C3
:1009D00024F027E030E040E050E0AEECBFEF0E94B2
:1009E0002A2927E030E040E050E00E94E828DA01C0
:1009F000C901C296A11DB11D5C0103C0AA24AA941D
:100A0000B12CB60183E00E949311B70185E00E94EA
:100A10009311B80186E00E949311B50189E00E940C
:100A20009311BE0175956795759567958BE00E944A
:100A30009311C333D10524F4BE01635F7F4F39C1E5
:100A400060E170E03AC12091020230910302A4E615
:100A5000B0E00E940D29DC01CB017FE0B595A795A0
:100A6000979587957A95D1F70097A105B10571F013
:100A70004C015D0185E688169104A104B10454F08F
:100A800064E6862E912CA12CB12C04C0812C912CD3
:100A90005401839481E088169104A104B10431F1DA
:100AA000A50194012150310941095109293131052C
:100AB0004105510524F028E130E040E050E0AEEC83
:100AC000BFEF0E942A2928E130E040E050E00E9478
:100AD000E828DA01C901C296A11DB11D6C0189E1A6
:100AE00088169104A104B10421F432C0CC24CA9424
:100AF000D12CD501C4014997A109B109B7FF07C09D
:100B0000B095A095909581959F4FAF4FBF4F9C0199
:100B1000AD014997A105B10524F028E130E040E09E
:100B200050E0AEECBFEF0E942A2928E130E040E01F
:100B300050E00E94E828DA01C901C296A11DB11D4A
:100B40007C0182E388169104A104B10421F432C02F
:100B5000EE24EA94F12CD501C401C297A109B10990
:100B6000B7FF07C0B095A095909581959F4FAF4F67
:100B7000BF4F9C01AD014997A105B10524F028E1C3
:100B800030E040E050E0AEECBFEF0E942A2928E1BF
:100B900030E040E050E00E94E828DA01C901C29646
:100BA000A11DB11DEC018BE488169104A104B104D0
:100BB00019F432C0CFEFD0E0D501C4018B549109B4
:100BC000A109B109B7FF07C0B095A095909581958F
:100BD0009F4FAF4FBF4F9C01AD014997A105B10594
:100BE00024F028E130E040E050E0AEECBFEF0E949E
:100BF0002A2928E130E040E050E00E94E828DA01AC
:100C0000C901C296A11DB11D8C0184E6881691040C
:100C1000A104B10419F429C00FEF10E0D501C401FB
:100C200084569109A109B10922273327A901281B5C
:100C3000390B4A0B5B0B293131054105510524F075
:100C400028E130E040E050E0AEECBFEF0E942A29FE
:100C500028E130E040E050E00E94E828DA01C901D4
:100C6000C296A11DB11D5C0103C0AA24AA94B12C97
:100C7000B60183E00E949311B70185E00E949311B1
:100C8000B80186E00E949311B50189E00E9493119A
:100C9000C333D10544F4BE01635F7F4F75956795FB
:100CA0007595679502C060E170E08BE00E9493113A
:100CB000BE0175956795759567958AE0DF91CF912F
:100CC0001F910F91FF90EF90DF90CF90BF90AF906A
:100CD0009F908F900C94931108950F931F93CF932F
:100CE000DF93CDB7DEB7A0970FB6F894DEBF0FBE87
:100CF000CDBF7F936F935F934F93282F082E000CE7
:100D0000330B3F938F9389E691E09F938F938E01EE
:100D10000F5F1F4F1F930F930E949F2AC8010E94CD
:100D200051160FB6F894DEBF0FBECDBFA0960FB61A
:100D3000F894DEBF0FBECDBFDF91CF911F910F9111
:100D400008958F929F92AF92BF92CF92DF92EF92CF
:100D5000FF920F931F93CF93DF9300D000D000D06A
:100D6000CDB7DEB78C010E9492206C01990FEE087E
:100D7000FF0848018CE6880E911CF4018081918166
:100D8000A281B381C816D906EA06FB0609F45FC042
:100D90005801F0E7AF0EB11CF50180819181A2816D
:100DA000B381C816D906EA06FB0609F450C0B7019C
:100DB000A60180E70E946D06F50180819181A281E4
:100DC000B381F40180839183A283B383D501CD9253
:100DD000DD92ED92FC921397749680809180A280B0
:100DE000B380349680819181A281B381BC01CD0111
:100DF000681979098A099B09A70196010E94C428EC
:100E000020E034E040E050E00E94E828BA01A90167
:100E1000480D591D6A1D7B1DF801E859FF4F40839D
:100E2000518362837383FE01319686E0DF011D9258
:100E30008A95E9F7842F4A835B836C837D8347E13E
:100E4000582F6B817C818D819E810E94901A2696FD
:100E50000FB6F894DEBF0FBECDBFDF91CF911F91CB
:100E60000F91FF90EF90DF90CF90BF90AF909F9049
:100E70008F9008958F929F92AF92BF92CF92DF9200
:100E8000EF92FF920F931F93CF93DF93EC010E9499
:100E9000221F6B017C01C458DF4F88819981AA8190
:100EA000BB81C816D906EA06FB0629F0B701A601E0
:100EB00085E60E946D0680910402909105024C0126
:100EC000990FAA08BB08488159816A817B819701E3
:100ED0008601041B150B260B370B080D191D2A1D47
:100EE0003B1D043011052105310564F0C901B8012D
:100EF00001381105210531054CF060E870E080E013
:100F000090E004C064E070E080E090E0C882D982A4
:100F1000EA82FB82681579058A059B05D9F07093F2
:100F200005026093040224E030E040E050E00E94BB
:100F3000E828BA01A90181E6DF91CF911F910F91B5
:100F4000FF90EF90DF90CF90BF90AF909F908F90E9
:100F50000C946D06DF91CF911F910F91FF90EF9050
:100F6000DF90CF90BF90AF909F908F9008958F9219
:100F70009F92AF92BF92CF92DF92EF92FF92CF9368
:100F8000DF93EC010E94221F6B017C01C458DF4FEC
:100F900088819981AA81BB81C816D906EA06FB0619
:100FA00029F0B701A60185E60E946D068881998126
:100FB000AA81BB81A7019601281B390B4A0B5B0B49
:100FC0008090020290900302A12CB12CD501C401A3
:100FD00066E0B595A795979587956A95D1F700979F
:100FE000A105B10561F0BC01CD0161387105810534
:100FF00091054CF060E870E080E090E004C061E0B2
:1010000070E080E090E00E94C428AB01BC01480D74
:10101000591D6A1D7B1D14161506160617065CF46D
:10102000413080E85807610571054CF040E050E818
:1010300060E070E004C041E050E060E070E0C88231
:10104000D982EA82FB82481559056A057B0589F039
:1010500050930302409302028DE6DF91CF91FF90FF
:10106000EF90DF90CF90BF90AF909F908F900C94B7
:101070006D06DF91CF91FF90EF90DF90CF90BF9002
:10108000AF909F908F9008950F931F93CF93DF930E
:10109000EC018B01562F44274C2B052E000C660BC0
:1010A000770B8CE60E946D0601301105C1F4CC303F
:1010B000D10508F06EC0FE01EA5AFF4F0C940729D3
:1010C000589A67C0469A65C05F9A63C02D9A61C0FE
:1010D0005A9A5FC02F9A5DC06FEF70E02EC0011565
:1010E000110591F5CC30D10508F053C0FE01EE5941
:1010F000FF4F0C94072960E070E083E00E94931199
:10110000589847C060E070E085E00E9493114698CF
:1011100040C060E070E086E00E9493115F9839C0A3
:1011200060E070E089E00E9493112D9832C05A98D7
:1011300030C02F982EC060E070E08AE0DF91CF9140
:101140001F910F910C9493110230110511F5CC30C1
:10115000D105F8F4FE01E259FF4F0C9407299BB129
:1011600081E00DC098B180E4892788B912C08BB1A5
:10117000805806C095B180E20AC09BB184E08927FF
:101180008BB907C085B1805803C095B180E4892729
:1011900085B9DF91CF911F910F9108950F931F9300
:1011A000CF93DF93DB01ED91FC913197E131F105B4
:1011B00008F052C0EC01E658FF4F0C94072960E09C
:1011C00070E08BE090E00E94440861E070E08AE00B
:1011D00090E00E94440820E047C08FED9CE11BC0D6
:1011E0008EE59CE118C08CEC9BE015C0CD55DF4F1F
:1011F00018823AC08C010D551F4FF8012081885A82
:101200009F4F222361F00E940B14FE01E857FF4F0D
:1012100010828AE399E09D838C8322E025C0FE0141
:10122000EC55FF4F208131812130310519F41182B5
:10123000108204C021E030E031832083DC011B9662
:101240001C921E921A9740E051E0BE010E941914B0
:1012500081E0F8018083BFCF2AED3AE0DC011596EA
:101260003C932E93149723E0822FDF91CF911F910F
:101270000F910895CF93DF93FB01208131812430BA
:10128000310509F473C0EC012530310588F42130B3
:101290003105A9F02230310509F062C04C960E9458
:1012A0000B1461E070E08BE090E00E9444085EC0A7
:1012B0002F303105E1F12031310501F151C061E0FC
:1012C00070E08BE090E00E94440880E890E09FA3EB
:1012D0008EA340E850E0BE01CE014C960E94191446
:1012E000CE01845B9F4FFC011386128640E450E0E0
:1012F000BE010E9419141092EA0138C0FC01E8579F
:10130000FF4F808182306CF04E9B03C08CEC9BE0E1
:101310000AC04C9B03C08EE59CE105C08FED9CE1AB
:1013200002C08AEB99E09D838C8382E020C0C0914B
:10133000E801D091E901209719F460E070E002C063
:101340006FEF70E08BE00E94931181E090E0CD2B75
:1013500011F080E090E09093E9018093E80106C0ED
:101360008AEB99E09D838C8383E001C080E0DF916C
:10137000CF9108954F925F926F927F928F929F923A
:10138000AF92BF92CF92DF92EF92FF920F931F9393
:10139000CF93DF9300D000D000D0CDB7DEB7DB0114
:1013A000ED91FC913197EC30F10508F0CBC08C0148
:1013B000E557FF4F0C94072961E070E08BE090E067
:1013C0000E94440860E070E08AE090E00E944408D7
:1013D00089B1F801E757FF4F84FDBDC086FDD1C03C
:1013E00088E2BAC00E94221F4B015C017801BCE771
:1013F000EB0EF11CF70180819181A281B3818816E7
:101400009906AA06BB0629F0B501A40185E60E944B
:101410006D066801F8E7CF0ED11CF801EC58FF4FBC
:1014200080819181A281B381A5019401281B390B90
:101430004A0B5B0BCA01B90124E030E040E050E008
:101440000E94E828F801E757FF4FA0810A2E000C00
:10145000BB0B0E942729D6014D905D906D907C902A
:10146000DC01CB01840D951DA61DB71DF7018082FF
:101470009182A282B382F801E859FF4F40815181E5
:101480006281738184179507A607B70709F461C0C5
:1014900080839183A283B383AE014F5F5F4F26E0C9
:1014A000FA0111922A95E9F7582F8A839B83AC831E
:1014B000BD8347E16B817C818D819E810E94901A62
:1014C00048C0FC01E857FF4F808191E0980F90835E
:1014D000B09781110CC0608171818281938178966F
:1014E000608371838283938382E290E00DC0608188
:1014F000718182819381F801EC57FF4F6083718382
:101500008283938384E290E00E94CF1B8AE399E078
:10151000D80115969C938E93149782E034C0FC01F9
:10152000E757FF4F88E209C0FC01E757FF4F80E50E
:1015300004C0FC01E757FF4F88E08083C8010E9488
:10154000AA0207C02AED3AE0FC013583248383E038
:101550001AC080E018C080E58083F801E859FF4F89
:101560001082118212821382C8010E94AA02FE0117
:10157000319686E0DF011D928A95E9F743E25A81B0
:1015800099CF88E0E9CF26960FB6F894DEBF0FBE5C
:10159000CDBFDF91CF911F910F91FF90EF90DF9022
:1015A000CF90BF90AF909F908F907F906F905F9003
:1015B0004F900895DF92EF92FF920F931F93CF9376
:1015C000DF9300D000D000D0CDB7DEB78C01FB0197
:1015D000208131812A30310581F038F421503109E0
:1015E0002230310508F479C071C02D30310509F47D
:1015F0006AC02E303105E1F069C045E0BE016F5F81
:101600007F4F80E10E94112045E050E060E771E0EB
:10161000CE0101960E94922A892B19F460E070E0B5
:1016200002C061E070E080E090E00E94440855C094
:1016300096E0D92ECE0101967C01FC018D2D1192F0
:101640008A95E9F787E089838091020290910302ED
:10165000582F8A839B8347E0692F7C818D819E81EF
:101660000E94901AF7011192DA94E9F78BE08983CE
:10167000209104023091050237FF02C02D5F3F4FD9
:101680003595279535952795522F3B832A83498198
:101690006B817C818D819E810E94901A80E390E015
:1016A0000E94161C7C010F551F4FF801808191810B
:1016B000E816F90691F060E0C7010E94FE1AF801F1
:1016C000F182E0820AC00E94BB1507C084E693E164
:1016D000F8019583848383E001C080E026960FB6ED
:1016E000F894DEBF0FBECDBFDF91CF911F910F9158
:1016F000FF90EF90DF9008958130910551F01CF438
:10170000892B81F008958230910531F0039739F0EB
:10171000089585E090E008C086E090E005C089E08B
:1017200090E002C083E090E00C94440860E070E038
:1017300083E00E94931160E070E085E00E949311C5
:1017400060E070E08BE00E94931160E070E08AE05E
:101750000E94931160E070E086E00E94931160E0C7
:1017600070E089E00E94931160E070E083E090E017
:101770000E94440860E070E085E090E00E94440828
:1017800060E070E086E090E00E94440860E070E075
:1017900089E090E00C9444080F931F93CF93DF935C
:1017A000EC01FB018081918189309105E1F168F4C0
:1017B0008130910589F0029709F098C00E94960B3C
:1017C000CE014C960E940B148FC08C30910581F095
:1017D0000F9709F46BC08AC0FE01ED55FF4F1082D0
:1017E000CE010E94DD031092EC011092EB017CC04F
:1017F000FE01EC55FF4F80819181019721F4CE01CC
:101800000E94B70703C0CE010E943A078091EB0106
:101810009091EC01892B19F4CE010E94DD03CE01D9
:101820000E94A10661C02FB7F8948CA19DA12FBF83
:10183000892B09F059C0FB0184818E0106561F4F88
:10184000F8018083843030F063E572E08EEA94E042
:101850000E94291CF8012081FE01E859FF4F608198
:10186000718182819381422F50E0FE0134E0239FF9
:10187000E00DF11D1124E657FF4F608371838283D1
:1018800093839A01220F331FC90188960E94CF1BB0
:10189000F801808160E070E090E00E947C0B82E0C3
:1018A00090E09093EC018093EB0115C0FE01E656A9
:1018B000FF4F808162E070E090E00E947C0B80919D
:1018C000EB019091EC0101979093EC018093EB0177
:1018D000181619064CF41FA21EA240E850E0BE01E3
:1018E000CE014C960E94191480E005C08EEC98E061
:1018F0009D838C8383E0DF91CF911F910F91089599
:101900004091F9015091FA012091F7013091F801CD
:1019100042175307B4F49091E8009570E1F3909169
:10192000E80092FD19C08093F1008091F901909137
:10193000FA0101968F739927892B19F48EEF809302
:10194000E8008091F9019091FA0101969093FA01D3
:101950008093F90181E0089580E00895DF92EF928D
:10196000FF920F931F93CF93DF93D82E8A017B01B1
:10197000E40EF51EEB01CE15DF0571F0D7FE03C0B6
:10198000FE01849101C088810E94800C2196811102
:10199000F2CF8FEF9FEF01C0C801DF91CF911F9170
:1019A0000F91FF90EF90DF900895615030F02091FB
:1019B000F100FC0120830196F8CF289884E68093FB
:1019C0007E050895CF92DF92EF92FF920F931F93BF
:1019D000CF93DF936C017A018B01C0E0D0E0CE158C
:1019E000DF0589F0D8016D918D01D601ED91FC9153
:1019F0000190F081E02DC6010995892B11F47E013B
:101A000002C02196ECCFC701DF91CF911F910F91BA
:101A1000FF90EF90DF90CF900895CF93DF931F92C8
:101A2000CDB7DEB76983DC01ED91FC910280F381D3
:101A3000E02D41E050E0BE016F5F7F4F09950F90B0
:101A4000DF91CF91089583E08093E9008091F200C7
:101A5000882319F08AE38093E8000895FC018485C7
:101A6000958597FD0BC09FB7F89482E08093E900BD
:101A70008091F2009FBF90E0019608959FB7F8947F
:101A800082E08093E9008091F2009FBF90E008958A
:101A9000089508950F931F93CF93DF931F92CDB7AF
:101AA000DEB782E0898342E450E065E172E080E8DD
:101AB0000E94AE0C0E941D21DC0112960D911C911A
:101AC00013970115110569F0D801ED91FC91028081
:101AD000F381E02DBE016F5F7F4FC801099597FF2D
:101AE00007C089810F90DF91CF911F910F910895C9
:101AF000F80100851185E5CF8F929F92AF92BF923A
:101B0000CF92DF92EF92FF920F931F93CF93DF93C9
:101B10005C016B018A0180910B01882309F459C093
:101B200080917F05882309F454C08091000280FFD2
:101B300005C08091E00082608093E000E8018AEFB8
:101B4000F82E93E0E92E2FE3822E3AE3932E20978E
:101B5000C9F18FB7F894E092E9009091E80095FF01
:101B600006C09091F200282D291B922F01C090E011
:101B70008FBF911106C0FA94FF2059F10E940321F2
:101B8000E6CF292F30E0C217D3070CF49C2F8FB774
:101B9000F894E092E9002091E80025FF11C0292F78
:101BA00030E0C21BD30BF601915020F041914093DD
:101BB000F100FACFC20ED31E9091E80095FF13C03A
:101BC0008FBFC5CF5D9884E68093FB011016110688
:101BD00044F081E090E0F5019383828380E090E01F
:101BE00005C0C80103C09092E800EACFDF91CF9111
:101BF0001F910F91FF90EF90DF90CF90BF90AF902B
:101C00009F908F9008950F931F93CF93DF931F9210
:101C1000CDB7DEB78C01FC018485958597FF0EC09A
:101C2000CE0101960E94D920019719F4298130E054
:101C300002C02FEF3FEFF80135872487F801848534
:101C400095850F90DF91CF911F910F910895CF93BC
:101C5000DF931F92CDB7DEB7FC018485958597FD94
:101C600005C02FEF3FEF358724870BC0CE010196CB
:101C70000E94D920019719F4898190E002C08FEF6A
:101C80009FEF0F90DF91CF9108951F920F920FB6A3
:101C90000F9211248F939F938091E1009091E10026
:101CA000937F9093E10083FF0FC01092E90091E0D1
:101CB0009093EB001092EC0092E39093ED00109261
:101CC0007F0598E09093F00082FF20C093E090930E
:101CD000E9009091F200992319F09AE39093E800BB
:101CE0009091FB01992339F09091FB0191509093D1
:101CF000FB01992389F190917E05992339F0909108
:101D00007E05915090937E05992341F184FF10C088
:101D10008091E2008E7E81608093E2008091E100FC
:101D20008F7E8093E100809100028E7E806111C0E1
:101D300080FF16C08091E2008E7E80618093E20079
:101D40008091E1008E7E8093E100809100028E7E82
:101D500081608093000204C05D9ACDCF289AD6CFCF
:101D60009F918F910F900FBE0F901F9018951F920B
:101D70000F920FB60F921124CF92DF92EF92FF9243
:101D80000F931F932F933F934F935F936F937F9383
:101D90008F939F93AF93BF93EF93FF93CF93DF9373
:101DA000CDB7DEB76C97DEBFCDBF1092E900809152
:101DB000E80083FFFAC168E0CE0145960E94D50C89
:101DC00082EF8093E8008D8987FF05C09091E8003D
:101DD00090FFFCCF03C09EEF9093E800982F907681
:101DE00009F0C6C09E892F89188D91110CC08038CA
:101DF00029F4809101028093F10002C01092F10059
:101E00001092F10047C1422F50E0512B913051F414
:101E1000811140C14130510509F03CC1809101025E
:101E20008D7F0BC0933061F4811134C14130510575
:101E300009F030C1809101028260809301022AC1C1
:101E4000953041F48091E80080FFFCCF206820931A
:101E5000E30020C1963009F05FC0EB8CFC8C10923F
:101E6000E9001092FA011092F901123091F51092E6
:101E7000F8011092F7010E944A0D99E0BE016F5FD0
:101E80007F4FDB01E92F1D92EA95E9F799831A83C9
:101E900091E09E8390EA98879AEF99872091F901C3
:101EA0003091FA01275F3F4F3C832B838D83109243
:101EB000E9001092FA011092F901F092F801E09213
:101EC000F70149E050E080E00E94AE0C0E944A0D0C
:101ED000E1C0F092F801E092F7010E941D21DC01BF
:101EE0001296ED90FC901397E114F10409F4C0C030
:101EF000D701ED91FC910480F581E02DBE016B5E70
:101F00007F4FC7010995009719F00CF0C3C0C6C0F8
:101F1000F701E084F184E8CF973009F4BFC098302E
:101F200021F481E08093F100B5C0993009F0B2C08E
:101F3000837009F0B3C0E1E2F1E081E021E036E333
:101F40009081992361F08093E9002093EB009191B7
:101F50009093EC003093ED008F5F873089F78EE728
:101F60008093EA001092EA008F8980937F0592C0E7
:101F70008B8D9C8D1092E9001092FA011092F9015C
:101F80009093F8018093F701898D811156C08E8955
:101F90009D89913A59F4813209F080C047E050E0C0
:101FA00064E071E080E00E94AE0C74C0913209F0F0
:101FB00075C0833289F4888D90E0982F88272F8907
:101FC000822BA0E0B0E08093000190930101A093E8
:101FD0000201B09303015EC0803269F48091E80091
:101FE00082FFFCCF67E084E091E00E94D50C8BEF8C
:101FF0008093E80006C0823209F04CC08F8980933C
:102000000B018091FF01882319F0EEEFFAE002C086
:10201000E0E0F8E08091040190910501A0910601B3
:10202000B0910701803B9440A105B10509F088C03B
:1020300080910B0180FFA0C083C00E941D21DC01A4
:1020400012960D911C9113970115110539F1D801C4
:10205000ED91FC910190F081E02DBE016B5E7F4F10
:10206000C8010995811116C0F80100851185ECCFD2
:102070001130C1F0133091F48F89882309F455C0D1
:102080008230E9F440E860E187E692E00E94312185
:10209000882321F08EEF8093E80087C081E280934F
:1020A000EB0083C08B8D9C8D089711F41093F60183
:1020B0008091F601811136C068E772E038C0813046
:1020C00029F440E86BE08BE592E0E0CF833031F714
:1020D0000E941D21DC011296ED90FC9013978E0159
:1020E0000F5F1F4F6801E114F10479F0D701ED9102
:1020F000FC910680F781E02DB801C7010995080F12
:10210000111DF701E084F184EECFD8011C92F60195
:1021100001900020E9F73197BF016C197D0940E07B
:10212000C601B4CF6AE872E002C067E572E06115EB
:10213000710509F4B3CFFB01449150E080E833CF3F
:102140000FB6F894A8958091600088618093600034
:10215000109260000FBEA895EE3F2AE0F20739F01A
:102160008091FE0A9091FF0A9183808393CF109211
:10217000FF0A1092FE0A8ECFEE3F8AE0F80731F098
:10218000808191819093FF0A8093FE0A87E797E709
:10219000918380839BE088E10FB6F894A8958093A3
:1021A00060000FBE9093600075CF6C960FB6F894E8
:1021B000DEBF0FBECDBFDF91CF91FF91EF91BF91F9
:1021C000AF919F918F917F916F915F914F913F91CF
:1021D0002F911F910F91FF90EF90DF90CF900F9074
:1021E0000FBE0F901F901895362F90E0FC01EA501B
:1021F000FE4F4491FC01E15AFB4F2491FC01E4574E
:10220000FB4F8491882309F451C04423E1F150E04D
:10221000FA013197EF30F105B0F5E956FF4F0C9414
:102220000729909180009F7707C0909180009F7D43
:1022300003C090918000977F9093800024C094B554
:102240009F7702C094B59F7D94BD1DC09091900072
:102250009F7707C0909190009F7D03C09091900060
:10226000977F909390000FC09091C0009F7703C01C
:102270009091C0009F7D9093C00005C09091C200D6
:10228000977F9093C200E82FF0E0EE0FFF1FE85118
:10229000FE4FA591B4918FB7F894EC91311103C022
:1022A00020952E2301C02E2B2C938FBF0895CF9302
:1022B000DF9390E0FC01E15AFB4F2491FC01E457CD
:1022C000FB4F8491882361F190E0880F991FFC01F6
:1022D000E652FE4FC591D491FC01E851FE4FA59105
:1022E000B491611109C09FB7F89488812095822329
:1022F0008883EC912E230BC0623061F49FB7F89471
:102300003881822F809583238883EC912E2B2C9308
:102310009FBF06C08FB7F894E8812E2B28838FBF0C
:10232000DF91CF9108951F93CF93DF93182FEB0187
:1023300061E00E945711209711F460E004C0CF3F84
:10234000D10539F461E0812FDF91CF911F910C9479
:10235000F410E12FF0E0EA50FE4FE4914E2F50E0F0
:10236000FA013197EF30F10508F06CC0EA55FF4FE4
:102370000C94072984B5806884BDC7BD68C084B546
:10238000806284BDC8BD63C08091800080688093F6
:102390008000D0938900C093880059C0809180004C
:1023A000806280938000D0938B00C0938A004FC0DE
:1023B00080918000886080938000D0938D00C093CE
:1023C0008C0045C080919000806880939000D093ED
:1023D0009900C09398003BC08091900080628093E8
:1023E0009000D0939B00C0939A0031C080919000E0
:1023F000886080939000D0939D00C0939C0027C07C
:102400008091C00080688093C0008091C0008F7B65
:102410008093C000C093CF001AC08091C00080623A
:102420008093C000C093D00012C08091C200886029
:102430008093C2008091C2008B7F8093C200C093C2
:10244000D20005C0C038D1050CF07CCF76CFDF912B
:10245000CF911F9108953FB7F8948091F201909128
:10246000F301A091F401B091F50126B5A89B05C038
:102470002F3F19F00196A11DB11D3FBFBA2FA92F03
:10248000982F8827820F911DA11DB11DBC01CD0180
:1024900042E0660F771F881F991F4A95D1F708956C
:1024A0001F920F920FB60F9211242F933F938F9389
:1024B0009F93AF93BF938091EE019091EF01A09114
:1024C000F001B091F1013091ED0123E0230F2D37A0
:1024D00020F40196A11DB11D05C026E8230F029628
:1024E000A11DB11D2093ED018093EE019093EF01AA
:1024F000A093F001B093F1018091F2019091F3016A
:10250000A091F401B091F5010196A11DB11D809338
:10251000F2019093F301A093F401B093F501BF9100
:10252000AF919F918F913F912F910F900FBE0F9080
:102530001F9018951F920F920FB60F9211242F9390
:102540003F934F935F936F937F938F939F93AF933B
:10255000BF93EF93FF93E0911601F0911701099556
:10256000FF91EF91BF91AF919F918F917F916F916B
:102570005F914F913F912F910F900FBE0F901F9041
:1025800018951F920F920FB60F9211242F933F931D
:102590004F935F936F937F938F939F93AF93BF936B
:1025A000EF93FF93E0911401F09115010995FF91CC
:1025B000EF91BF91AF919F918F917F916F915F91BB
:1025C0004F913F912F910F900FBE0F901F90189534
:1025D0001F920F920FB60F9211242F933F934F9398
:1025E0005F936F937F938F939F93AF93BF93EF937B
:1025F000FF93E0911201F09113010995FF91EF9182
:10260000BF91AF919F918F917F916F915F914F910A
:102610003F912F910F900FBE0F901F9018951F9212
:102620000F920FB60F9211242F933F934F935F9306
:102630006F937F938F939F93AF93BF93EF93FF938A
:10264000E0911001F09111010995FF91EF91BF9177
:10265000AF919F918F917F916F915F914F913F913A
:102660002F910F900FBE0F901F9018951F920F92F1
:102670000FB60F9211242F933F934F935F936F9355
:102680007F938F939F93AF93BF93EF93FF93E091CB
:102690000E01F0910F010995FF91EF91BF91AF915C
:1026A0009F918F917F916F915F914F913F912F916A
:1026B0000F900FBE0F901F9018956EBD00000DB4C7
:1026C00007FEFDCF8EB5089581E00895CF93CFB773
:1026D000F8948091FE01811127C0EDE9F4E0849126
:1026E000E0E7F4E09491E82FF0E0EE0FFF1FE652F0
:1026F000FE4FA591B491EC91E92321F461E081E1D1
:102700000E94F41061E081E10E9457118CB5806154
:102710008CBD8CB580648CBD61E08FE00E94571148
:1027200061E080E10E9457118091FE018F5F8093EC
:10273000FE01CFBF8CB5837F8CBD8CB58C7F816053
:102740008CBD8DB58E7F8DBDCF9108950C94FA29E7
:10275000EF92FF920F931F93CF93FC018FB7F894E2
:102760009381923020F0915093838FBF4EC08F01A0
:10277000E281CFEFCE0F8FBF80912402C81730F0D7
:102780006DEA74E08BEA94E00E94291CEC2EF12C97
:102790008AE0C89FF0011124EA5FFD4F9085878190
:1027A000981730F065EE76E08BEA94E00E94291CE1
:1027B0008AE08E9DF0018F9DF00D1124EA5FFD4FA0
:1027C000808191810817190728F0828193818017F1
:1027D000910730F466EE76E08BEA94E00E94291CC3
:1027E0009FB7F8948AE08E9DF0018F9DF00D112423
:1027F000EA5FFD4F24813581D8012D933C931583E9
:10280000048380858F5F80879FBFCF911F910F9139
:10281000FF90EF9008952FB7F894FC014085518503
:10282000452B21F01186108681E001C080E02FBF8A
:102830000895EF92FF920F931F93CF93DF93EC01D4
:102840008B017A01452B51F0672B41F088859985E2
:10285000892B21F488819981049734F46DE077E025
:102860008BEA94E00E94291C8FB7F894F986E886D9
:102870001F830E839B8191110CC02091FC0130912C
:10288000FD013D832C83D093FD01C093FC0191E0B9
:102890009B838FBFDF91CF911F910F91FF90EF909E
:1028A0000895CF92DF92EF92FF920F931F93CF93F1
:1028B000DF93D82F8B01C0E08AE0E82ECC2ED12CFC
:1028C000EC9CF001ED9CF00D1124EA5FFD4F968128
:1028D000FF24F394FC0E9D1760F4CF2D8091240209
:1028E000F81660F36DE275E08BEA94E00E94291C13
:1028F000E5CFEFB6F894C481D5812097E1F08881C7
:102900009981958384838085811106C06CE776E088
:102910008BEA94E00E94291C8AE08C9DF0018D9D39
:10292000F00D1124EA5FFD4F8085815080879185ED
:10293000891708F48187EFBE209731F469E375E0C9
:102940008BEA94E00E94291C19830883FA821B8277
:10295000CE01DF91CF911F910F91FF90EF90DF900B
:10296000CF9008950F931F93CF93DF93DC018B01DA
:102970001F969C911F97C92FD0E064307105A4F079
:102980002091250230912602621773076CF4915052
:10299000983050F4FE01EE0FFF1FEA50FC4F80818B
:1029A00091818A179B0731F065E473E08BEA94E02C
:1029B0000E94291CFE01E352FD4F84919FB7F894B9
:1029C000FE01E456FD4FC491A0912702B091280268
:1029D0000A0F1B1FD801A80FB11DEC91EC2BEC9333
:1029E0009FBFDF91CF911F910F910895FF920F9399
:1029F0001F93CF93DF93EC01FB01FFB6F894828124
:102A0000882319F083818F5F83838E819F81892B37
:102A100069F4FF83EE83EF85F0E0E456FD4FE49127
:102A200080910804E82BE093080424C08F018D8571
:102A3000811106C061EB72E08BEA94E00E94291CD0
:102A40008B8528859985E22FF92FE80FF11DE80F76
:102A5000F11D118300838B85811102C08A858B87CC
:102A60008B8581508B878D8581508D879E858917B9
:102A700008F48E87FFBEDF91CF911F910F91FF90D9
:102A80000895FF920F931F93CF93DF938C01DC0186
:102A90002D913C91809125029091260228173907AB
:102AA00034F06DE775E08BEA94E00E94291C9FB733
:102AB000F894F8018281882319F083818F5F8383E2
:102AC0009FBFE0912702F0912802D8018D919C913F
:102AD000E80FF91FF080FF2011F1EF2DF0E0E15A2F
:102AE000FC4FC491D0E0FE01E25EFC4FE491FE2277
:102AF000CC0FDD1FFE01EA50FC4F80819181892BB4
:102B000031F464E975E08BEA94E00E94291CCA5014
:102B1000DC4FB801888199810E94F614DCCFF8015E
:102B20008281882341F0C801DF91CF911F910F91DD
:102B3000FF900C94A813DF91CF911F910F91FF90FC
:102B400008950895CF93DF931F92CDB7DEB741E08C
:102B500050E0BE016F5F7F4F80E290E00E94E21B79
:102B60008981843014F083E002C087FD80E00F90FB
:102B7000DF91CF910895AF92BF92CF92DF92EF9203
:102B8000FF920F931F93CF93DF9300D0CDB7DEB7A3
:102B9000E0900202F09003020091040210910502FD
:102BA0000E94A215880F990B42E050E0BE016F5FB2
:102BB0007F4F88509F4F0E94E21BA980BA800E94DD
:102BC000A215880F990B8C5F9E4F0E94161C6C01FA
:102BD000AE14BF0479F00E94A215FA82E982880F30
:102BE000990B42E050E0BE016F5F7F4F88509F4FCE
:102BF0000E949B1BC016D10649F00E94A215880FA7
:102C0000990BB8018C5F9E4F0E94CF1B0F900F90C5
:102C1000DF91CF911F910F91FF90EF90DF90CF90B8
:102C2000BF90AF900895EF92FF920F931F93CF93B1
:102C3000DF9300D01F92CDB7DEB7082F0E94BB15DF
:102C40000B8341E050E0BE016D5F7F4F80E290E07A
:102C50000E949B1B000F110B42E050E0BE016F5F12
:102C60007F4FC80188509F4F0E94E21B89819A8143
:102C700022E0E22E22E0F22EF70191838083C80148
:102C80008C5F9E4F0E94161CF701938382830F90E6
:102C90000F900F90DF91CF911F910F91FF90EF90C8
:102CA00008950E94661A86E791E00C94661A0F93C5
:102CB0001F93CF93DF93CDB7DEB760970FB6F8942D
:102CC000DEBF0FBECDBF7F936F93282F082E000C61
:102CD000330B3F938F9388E791E09F938F938E01FF
:102CE0000F5F1F4F1F930F930E949F2AC8010E94DE
:102CF00051160FB6F894DEBF0FBECDBF60960FB66B
:102D0000F894DEBF0FBECDBFDF91CF911F910F9121
:102D100008950F931F93CF93DF93CDB7DEB7EC9752
:102D20000FB6F894DEBF0FBECDBF7F936F93282FF1
:102D3000082E000C330B3F938F938EE791E09F9307
:102D40008F938E010F5F1F4F1F930F930E949F2A37
:102D5000C8010E9451160FB6F894DEBF0FBECDBF5A
:102D6000EC960FB6F894DEBF0FBECDBFDF91CF91CA
:102D70001F910F9108950F931F93CF93DF93CDB7BA
:102D8000DEB760970FB6F894DEBF0FBECDBF282F19
:102D9000082E000C330B3F938F9384E891E09F93B0
:102DA0008F938E010F5F1F4F1F930F930E949F2AD7
:102DB000C8010E9451160F900F900F900F900F9026
:102DC0000F9060960FB6F894DEBF0FBECDBFDF91B7
:102DD000CF911F910F9108954F925F926F927F92C2
:102DE0008F929F92AF92BF92CF92DF92EF92FF921B
:102DF0000F931F93CF93DF93CDB7DEB7CA57D10997
:102E00000FB6F894DEBF0FBECDBFE09180054E2F08
:102E1000EE0F550B660B770BFA01E154F109E8331D
:102E2000F10508F027C3EB54FF4F0C9407298330BA
:102E300091050CF4C0C2029720918206309183065E
:102E4000AC01420F531F413851052CF081E991E04C
:102E50000E94661A17C0A2E8B5E020503A4FF90167
:102E60004D914193AF01421B530B48175907C4F3CF
:102E70002091820630918306820F931F90938306E0
:102E80008093820686E791E00E94661AF7C288E97D
:102E900091E09F938F931F9286E78F938EE791E047
:102EA0002CC160E070E082E723C0FE01319686E02D
:102EB000DF011D928A95E9F781E0898341E00AC02C
:102EC000FE01319686E0DF011D928A95E9F783E0E5
:102ED000898343E05A816B817C818D819E810E9430
:102EE000901ACCC20E94A215682F880F770B81E739
:102EF0000E945716C3C20E94B9208C010E94A215DD
:102F0000282F880F330B0217130719F0802F0E9408
:102F1000131681E587C20E94A215B4E08B02C0019E
:102F2000112444E050E08E010F5F1F4FB80180581C
:102F30009F4F0E94E21B89819A812B813C813F93A4
:102F40002F939F938F931F9289E68F938DE991E042
:102F50009F938F931F930F930E949F2AC8010E94F3
:102F600051160FB6F894DEBF0FBECDBF87C28E01DB
:102F70000F5F1F4F1F930F9380EA91E09F938F93F2
:102F800082E895E09F938F930E94C22AC980DA80DD
:102F9000EB80FC800E94A215C982DA82EB82FC825F
:102FA000F4E08F02C001112444E050E0B8018058E1
:102FB0009F4F0E949B1B89E487C10E94A2152AE2B1
:102FC0008202C00111247C0130EFE31A3EEFF30AC4
:102FD00081E09BE5E91693E0F90608F080E060E007
:102FE00070E00E94681BDE0111966D0100E010E0A8
:102FF0005D01C701800F911F0E947530F60181931A
:103000006F01882329F00F5F1F4F0932110589F7DF
:10301000F501E00FF11F1082B5018EE628C20E9473
:10302000A215FAE28F02C001112462E875E0805F08
:103030009E4F0E9457208EE4F5C180E390E00E94ED
:10304000161CBC0183E654CFCE0101969F938F934B
:1030500087EA91E09F938F9382E895E09F938F9307
:103060000E94C22A09811A81B80180E390E00E947F
:10307000CF1B60E0C8010E94FE1A83E425C1FE0157
:10308000319686E0DF011D928A95E9F78DE089830C
:103090004DE020CF86E290E00E94161C61E070E0D7
:1030A000892B11F460E070E084E722CFCE01019615
:1030B0009F938F938FED91E09F938F9382E895E09C
:1030C0009F938F930E94C22A61E070E089819A8168
:1030D000892B11F460E070E086E290E00E94CF1B43
:1030E00084E5F2C0809103028F93809102028F9356
:1030F0001F928DE68F9384EA91E09F938F938E01C8
:103100000F5F1F4F1F930F930E949F2A27CF8E019F
:103110000F5F1F4F1F930F9357EAC52E51E0D52E17
:10312000DF92CF9262E8E62E65E0F62EFF92EF92F4
:103130000E94C22A89819A8190930302809302029D
:1031400086E0D8011D928A95E9F787E089830C59BA
:103150001F4F1F930F93DF92CF92FF92EF920E9427
:10316000C22AF80180819181582F8A839B834981EB
:10317000692F7C818D819E810E94901A8DE40E942E
:10318000BB16EFCE609104027091050277FF02C07A
:103190006D5F7F4F759567957595679581E6A8CEAC
:1031A0000E94B920880F991F880F991F90930502DC
:1031B00080930402FE01319686E0DF011D928A951C
:1031C000E9F78BE089830E94B920582F8A839B837B
:1031D0004981692F7C818D819E810E94901A81E4B2
:1031E00021C185E71FC18E010F5F1F4F86E0F801E7
:1031F00011928A95E9F78BE089838091040290917E
:10320000050297FD03969595879595958795582F77
:103210009B838A8349816B817C818D819E810E9401
:10322000901A86E0D8011D928A95E9F787E0898394
:103230008091020290910302582F8A839B8347E07A
:10324000692F7C818D819E810E94901A80E390E09D
:103250000E94161C60E00E94FE1A88E7E3C0FE018F
:10326000319686E0DF011D928A95E9F786E1898330
:1032700046E130CEFE01319686E0DF011D928A954F
:10328000E9F787E189838E010B591F4F1F930F9335
:103290008CE691E09F938F9382E895E09F938F93C4
:1032A0000E94C22AF8018081318122819381582FA6
:1032B0008A833B832C839D834981632F722F892FBF
:1032C0009E810E94901A8FE40E94BB160F900F906F
:1032D0000F900F900F900F90D1C00E94B92003E87B
:1032E00013E0081B190B0131110514F000E110E087
:1032F00017FF02C000E010E06E01F5E6CF0ED11C12
:10330000A801B6010E94E21B19829E012F5F3F4F68
:1033100079015601B9019AEA892E91E0992EC501E9
:103320008C199D09801791070CF5D5018D915D01D0
:103330001F928F939F928F92FF92EF92EA966FAFB8
:10334000EA97EB967FAFEB970E949F2AB2E0EB0ED5
:10335000F11C0F900F900F900F900F900F90EB9625
:103360007FADEB97EA966FADEA97D9CF87E67FC03E
:103370000E94B9204C018E010F5F1F4F1F930F93C6
:103380007E01E6E7EE0EF11CFF92EF928FEA91E0EC
:103390009F938F9380E895E09F938F930E94C22A1A
:1033A000D7018D919C910FB6F894DEBF0FBECDBFB3
:1033B000813191051CF08AE891E05EC0181619066B
:1033C00084F56E01F5E6CF0ED11C26015E0128E7DB
:1033D000A20EB11C8FEB682E81E0782ED7014D91A3
:1033E0005C91C2018C199D0984179507B4F4BF92B2
:1033F000AF927F926F921F930F930E94C22AD501C2
:103400008C91F20181932F010E5F1F4F0F900F904F
:103410000F900F900F900F90E1CFB601C4010E9462
:103420009B1B87E40E94BB1629C0F894469A0C9413
:10343000000024C08E010F5F1F4FB801D8018C918E
:103440008823A1F084E893E0EA966FAFEA97EB96C1
:103450007FAFEB970E947530F80181938F01EA9658
:103460006FADEA97EB967FADEB97E8CF82E60E94CF
:10347000891604C086EC91E00E945116C658DF4FB1
:103480000FB6F894DEBF0FBECDBFDF91CF911F9175
:103490000F91FF90EF90DF90CF90BF90AF909F90F3
:1034A0008F907F906F905F904F900895CF93DF93B0
:1034B000EC016991662329F084E893E00E947D3055
:1034C000F8CFDF91CF9108950C94FA2920918206CC
:1034D0003091830620503A4FFC0140814423F9F09B
:1034E00040918206509183064138510544F44F5F64
:1034F0005F4F5093830640938206F90108C01092F3
:10350000830610928206E0E0F6E081E991E09F01F7
:103510002F5F3F4FDC014C9140830196DDCF089532
:10352000CF93DF9300D000D000D0CDB7DEB7498372
:103530005A836B837C838D839E8329EA33E0F90170
:103540008081918146E0489FD001499FB00D1124B0
:10355000A75DBD4FFE01319601900D924A95E1F7AE
:10356000019660E470E00E94D428F9019183808381
:1035700026960FB6F894DEBF0FBECDBFDF91CF9178
:1035800008950F931F93CF93DF931F92CDB7DEB7AC
:103590008C010E94492081112AC00E94382086FF98
:1035A0001CC00E94551F8091BC049091BD04DC0199
:1035B000ED91FC910190F081E02D61E6099540913B
:1035C000BB04B801C8010E94E31F0E94501F60E4C1
:1035D00087E00E945A1F81E00BC041E0BE016F5F8F
:1035E0007F4F87E10E941120898180FFDACF80E040
:1035F0000F90DF91CF911F910F910895DF92EF927D
:10360000FF920F931F93CF93DF93CDB7DEB7289729
:103610000FB6F894DEBF0FBECDBF8C01D62ECE0103
:1036200001967C0186E0D7011D928A95E9F70E94F8
:1036300049208111FCCFC7010E94C11A8111FBCF23
:10364000D11006C08091BA0490E08017910791F1E3
:1036500083E28F831886C80101978235910510F4A3
:103660000093BA0441E0BE01695F7F4F86E00E948B
:10367000BB1F6091BA0485E00E945A1F6091BB0491
:1036800081E10E945A1F6091BB0482E10E945A1F8F
:103690000E94891F0E94551F8091BC049091BD0417
:1036A000DC01ED91FC910190F081E02D62EE099535
:1036B0000E94501F28960FB6F894DEBF0FBECDBFF4
:1036C000DF91CF911F910F91FF90EF90DF900895C0
:1036D0000F931F93CF93DF93CDB7DEB7C456D109B5
:1036E0000FB6F894DEBF0FBECDBF811118C07F9317
:1036F0006F938AED91E09F938F938E010F5F1F4F21
:103700001F930F930E949F2AC8010E94561A0C947F
:1037100000000F900F900F900F900F900F90CC59CA
:10372000DF4F0FB6F894DEBF0FBECDBFDF91CF9154
:103730001F910F910895CF92DF92EF92FF920F9316
:103740001F93CF93DF937C01D62FC72F6A0197FD7C
:1037500007C081E09701240F351F243833400CF057
:1037600080E061E070E00E94681B0D2F1C2FC0E01C
:10377000D0E0CC15DD0554F4F80161918F01CE0144
:103780008E0D9F1D0E947D302196F3CFDF91CF914A
:103790001F910F91FF90EF90DF90CF900895CF93FE
:1037A000DF9300D0CDB7DEB77A83698342E050E083
:1037B000BE016F5F7F4F0E949B1B0F900F90DF91A8
:1037C000CF910895CF92DF92EF92FF920F931F93C4
:1037D000CF93DF93EC017B016A0197FD07C081E085
:1037E0009E01240F351F243833400CF080E060E048
:1037F00070E00E94681B8701CE19DF09C8018E198D
:103800009F098C159D054CF4CE01800F911F0E94DD
:103810007530F80181938F01F1CFDF91CF911F9126
:103820000F91FF90EF90DF90CF900895CF93DF93AB
:1038300000D0CDB7DEB742E050E0BE016F5F7F4FF2
:103840000E94E21B89819A810F900F90DF91CF91A6
:1038500008950F931F93CF93DF93CDB7DEB7C45670
:10386000D1090FB6F894DEBF0FBECDBFF8942D9AE4
:10387000589A7F936F939F938F9382EE91E09F93DB
:103880008F938E010F5F1F4F1F930F930E949F2AEC
:10389000C8010E94561A0C9400000FB6F894DEBFBF
:1038A0000FBECDBFCC59DF4F0FB6F894DEBF0FBEB1
:1038B000CDBFDF91CF911F910F9108950F931F936B
:1038C000CF93DF93EC01FB018081918182309105E0
:1038D000F1F0B8F4019709F066C0FE01ED55FF4F15
:1038E000108261E070E08AE090E00E94440861E0AC
:1038F00070E08BE090E00E944408CE010E94AA0292
:1039000058C08930910591F10C9721F04CC00E946C
:10391000960B4FC0FE01EC55FF4F808191810197BE
:1039200021F4CE010E94B70703C0CE010E943A07DE
:10393000CE010E94DD03CE010E94A1060E94A215C5
:10394000082F880F110BC156DF4F88819981081706
:10395000190779F160E070E00E947C0B61E070E093
:10396000C8010E947C0B1983088323C0FB011481CA
:10397000143034F06AEC72E08EEA94E00E94291C64
:10398000412F012E000C550B660B770B81E70E942F
:103990006D06812F0E941316CE010E94AA02C65600
:1039A000DF4F188306C08EEC98E09D838C8383E004
:1039B00001C080E0DF91CF911F910F910895DF92B8
:1039C000EF92FF920F931F93CF93DF9300D000D01D
:1039D00000D0CDB7DEB78C01DB018D919C91893091
:1039E000910509F47CC068F48130910589F0029753
:1039F00009F0DDC00E94960BC8014C960E940B1482
:103A0000D4C08C30910549F10F9709F4AFC0CFC0F5
:103A1000F801ED55FF4F1082FB97808131812281A3
:103A2000938134978083318322839383FE0131967F
:103A300046E0DF011D924A95E9F7582F47E1632FD1
:103A4000722F892F9E810E94901AC8010E94DD0367
:103A50001092790510927805A8C0F801EC55FF4F37
:103A600080819181019721F4C8010E94B70703C0AA
:103A7000C8010E943A078091780590917905892BB9
:103A800019F4C8010E94DD03F801EC59FF4F808151
:103A90009181A281B3813496408151816281738189
:103AA00084179507A607B70709F47FC08083918321
:103AB000A283B383AE014F5F5F4F26E0FA011192FC
:103AC0002A95E9F7582F8A839B83AC83BD8347E10E
:103AD0006B817C818D819E810E94901A66C0DB0182
:103AE0001496DC90ED2C0D2C000CFF08B4E0EB16C6
:103AF000F10434F06DE872E08EEA94E00E94291C33
:103B0000D801AC59BF4FEE0CFF1CEE0CFF1CE00EB1
:103B1000F11EF701E657FF4F4081518162817381A9
:103B20004D935D936D937C931397F801E656FF4F89
:103B3000D08260E070E08D2D90E00E947C0B82E0EE
:103B400090E090937905809378057801ECE1EE0E92
:103B5000F11CC7010E940B14D80197961C921E926B
:103B6000969740E850E0B801C7011DC0F801E6563D
:103B7000FF4F808162E070E090E00E947C0B8091BA
:103B80007805909179050197909379058093780550
:103B90001816190654F4F80117A216A240E850E0CE
:103BA000B801C8014C960E94191480E008C08EEC40
:103BB00098E0D80115969C938E93149783E02696EF
:103BC0000FB6F894DEBF0FBECDBFDF91CF911F912E
:103BD0000F91FF90EF90DF9008951F920F920FB614
:103BE0000F921124DF92EF92FF920F931F932F9366
:103BF0003F934F935F936F937F938F939F93AF9375
:103C0000BF93CF93DF93EF93FF93DFB6F894C09108
:103C1000FC01D091FD0100E010E0209709F44DC0B7
:103C200088859985009769F48091FC019091FD0148
:103C3000C817D90721F10115110589F568E376E068
:103C40002AC0019799878887892B91F58A859B855A
:103C5000009711F099878887DFBEBE018E819F8112
:103C60000E94F614DFB6F89488859985892B01F5B2
:103C70008091FC019091FD01C817D90739F48C811E
:103C80009D819093FD018093FC010EC001151105EB
:103C900031F46BE576E08BEA94E00E94291C8C817C
:103CA0009D81F801958384838B8181508B8301C032
:103CB0008E010C80DD81C02DB0CFDFBE8FB180FBC7
:103CC000EE24E0F8F12C80917C0590917D05E816BA
:103CD000F90689F0E114F10419F064E070E002C023
:103CE00065E070E084E00E9451140E944115F0925A
:103CF0007D05E0927C0589B1C82FC075D0E0209188
:103D0000180130911901C217D307A9F084FF03C02D
:103D100068E070E007C086FF03C067E070E002C0A3
:103D200066E070E084E00E9451140E944115D09337
:103D30001901C09318018FB1827790E0C0917A0584
:103D4000D0917B058C179D0719F1C827D927C82367
:103D5000D92390937B0580937A052097C9F069E079
:103D600070E085E00E945114C6FF03C0FC0114827C
:103D70000DC0C5FF02C021E007C0C4FF02C022E0A1
:103D800003C0C1FF03C023E0FC0124830E9441154E
:103D9000FF91EF91DF91CF91BF91AF919F918F9163
:103DA0007F916F915F914F913F912F911F910F9153
:103DB000FF90EF90DF900F900FBE0F901F9018951F
:103DC000DC01ED91FD918081ED91FD919081ED916E
:103DD000FD916C9163708E2309F064609F2309F05C
:103DE0006860EDEFFEE1E60FF11D659565956D9359
:103DF0006D917D918D919D91099423C01AC012C03F
:103E000016C010C01EC009C014C013C006C019C01F
:103E100009C00DC007C00DC014C062507040804082
:103E200090400BC0615070408040904006C06E5F73
:103E300001C06F5F7F4F8F4F9F4F9E938E937E93F6
:103E40006E9308958091D104823030F4F89486EC1A
:103E500094E00E94E01E01C0F8946091CD0470913E
:103E6000CE048091CF049091D004789408958091ED
:103E7000C4049091C5040C94E01E8091C2049091FA
:103E8000C3040C94E01E8091C0049091C1040C9472
:103E9000E01E8091BE049091BF040C94E01E089532
:103EA00061E08091B9040C94F41060E08091B90451
:103EB0000C94F4100F931F93CF93DF93C82FD62F3A
:103EC0000E94551F07EB14E0D80115968D919C9127
:103ED0001697DC01ED91FC91CF716C2F606201901F
:103EE000F081E02D0995F80185819681DC01ED9145
:103EF000FC910190F081E02D6D2F0995DF91CF911C
:103F00001F910F910C94501F60E08091B8040C94A5
:103F1000F410CF93DF93C7EBD4E018820E94841F84
:103F20006BE080E00E945A1F61E089810E94F410DA
:103F300060E387E0DF91CF910C945A1F0F931F939A
:103F4000CF93DF93162F082FEC018C2F801B811746
:103F500068F48091BC049091BD046991DC01ED91FD
:103F6000FC910190F081E02D0995EFCFDF91CF9189
:103F70001F910F910895FF920F931F93CF93DF939B
:103F80001F92CDB7DEB7F82E8B0149830E94551FD3
:103F90008091BC049091BD04DC01ED91FC916F2DEA
:103FA0006F7160620190F081E02D09954981642F65
:103FB000C8010E949E1F0F90DF91CF911F910F911A
:103FC000FF900C94501FCF92DF92FF920F931F939C
:103FD000CF93DF931F92CDB7DEB7F82E8B016C0124
:103FE0008C2D8F198417A0F48091BC049091BD048E
:103FF000D6016D916D01DC01ED91FC910190F08194
:10400000E02D49830995F80181938F014981E8CF1B
:104010000F90DF91CF911F910F91FF90DF90CF9084
:104020000895FF920F931F93CF93DF931F92CDB705
:10403000DEB7F82E8B0149830E94551F8091BC0486
:104040009091BD04DC01ED91FC916F2D6F71019099
:10405000F081E02D09954981B801C8010E94E31F54
:104060000F90DF91CF911F910F91FF900C94501FF3
:10407000CF93DF931F92CDB7DEB741E0BE016F5FF4
:104080007F4F87E00E94112089810F90DF91CF91AF
:1040900008958091B704882331F00E9438208073FE
:1040A00021F00E94891F80E0089581E00895CF9259
:1040B000DF92EF92FF920F931F93CF93DF937C01D8
:1040C000D62FC72F97FD06C081E09BE5E91693E048
:1040D000F9060CF080E061E070E00E94681B0D2F93
:1040E0001C2FC0E0D0E06801F80161918F01CE0182
:1040F0008E0D9F1D0E947D30F6018081882321F066
:104100002196C932D10579F760E0C7018C0F9D1F58
:10411000DF91CF911F910F91FF90EF90DF90CF90A3
:104120000C947D30E0EEF4E0E49120917B00E3FB21
:10413000882780F990E035E0880F991F3A95E1F7DC
:10414000922F9F7D892B80937B00E770E064E09342
:104150007C0080917A00806480937A0080917A005C
:1041600086FDFCCF809178002091790090E0922B21
:104170000895CF93DF9300D0CDB7DEB7CE0101967F
:104180009F938F938FED91E09F938F9382E895E0BB
:104190009F938F930E94C22A0F900F900F900F90C1
:1041A0000F900F9089819A810F900F90DF91CF919E
:1041B0000895FC0180917F05811103C08FEF9FEF6F
:1041C00008959FB7F89482E08093E9002091F2006F
:1041D00030E01216130614F421E030E02115310509
:1041E00059F0289884E680937E058091F1008083C1
:1041F0008091F200882319F09FBFC90108958BE6D2
:104200008093E800F9CFCF92DF92EF92FF920E9465
:104210002B126B017C010E942B12DC01CB018C194B
:104220009D09AE09BF09883E9340A105B10598F3E9
:10423000FF90EF90DF90CF900895809188068111D4
:104240000DC082E08093840684E0809385061092FE
:1042500087061092860681E08093880684E896E0BF
:104260000895CF92DF92EF92FF920F931F93CF9317
:10427000DF931F92CDB7DEB7182F062FE42E862FBF
:10428000880F8E5F99830E94800C83E00E94800CCF
:10429000F12EC12E9981D92E8C2D8F19801798F46B
:1042A000F601E7FE02C0849101C080810E94800C6B
:1042B000182F80E00E94800C8123FFEFCF1ADF0AC5
:1042C0008111EACF01C081E00F90DF91CF911F9162
:1042D0000F91FF90EF90DF90CF900895CF93DF93F1
:1042E000CDB7DEB768970FB6F894DEBF0FBECDBF6F
:1042F000789484B5826084BD84B5816084BD85B5C1
:10430000826085BD85B5816085BD80916E008160CC
:1043100080936E0010928100809181008260809372
:104320008100809181008160809381008091800074
:1043300081608093800080919100826080939100E1
:1043400080919100816080939100809190008160C4
:10435000809390008091C10084608093C10080911F
:10436000C10082608093C1008091C1008160809310
:10437000C1008091C30081608093C3008091C00020
:1043800082608093C0008091C20081608093C200EF
:1043900080917A00846080937A0080917A008260B4
:1043A00080937A0080917A00816080937A00809176
:1043B0007A00806880937A0010927F051092010243
:1043C000109200028091D70081608093D70080EA2C
:1043D0008093D80089B5806189BD89B5826089BD27
:1043E00009B400FEFDCF0E9403218091D8008F7C8C
:1043F00080618093D8008091E000807F8093E0000E
:104400008091E1008E7E8093E1008DE08093E20058
:10441000559A209AEEEFFFE7859194918B3F9C4D42
:1044200019F481E08093FF0160E084E00E9457115D
:1044300060E08CE00E94571160E087E10E94571114
:1044400060E083E10E94571160E084E10E9457110F
:1044500060E085E10E94571160E086E10E945711FB
:1044600061E083E00E94571161E085E00E945711EE
:1044700061E086E00E94571161E089E00E945711D7
:1044800061E080E00E94571161E08BE00E945711CB
:1044900061E08AE00E9457118FEF9FEF90937404C0
:1044A0008093730444E050E0CE0101965C01BC01AE
:1044B00080E090E00E94E21B89819A81AB81BC81FF
:1044C0008B3F9A4FA105B10509F48FC040E1E42E5E
:1044D000FF24F39450E8C52ED12C6EEC462E6AEFE3
:1044E000562E612C712C08EF10E0812C70E8972E6D
:1044F0009E8A8D8A42E050E0BE016B5E7F4FC8010C
:104500000E949B1B60E270E0C8010C960E94CF1BCA
:10451000498A5A8A6B8A7C8A44E050E0BE016F5E09
:104520007F4FC6010E949B1B67E771E0C7010E9495
:1045300057200E5F1F4FFFEF4F1A5F0A6F0A7F0A67
:1045400024E0C20ED11C8AE2E80EF11C043091E096
:10455000190771F660E070E082E290E00E94CF1BE4
:1045600060E971E084E290E00E94CF1B60E070E0BF
:1045700088E290E00E94CF1B60E070E08AE290E069
:104580000E94CF1B60E070E08CE290E00E94CF1BA5
:1045900060E070E08EE290E00E94CF1B61E070E08E
:1045A00086E290E00E94CF1B61E070E080E390E043
:1045B0000E94CF1B1F8A41E050E0BE01695E7F4F21
:1045C00080E290E00E949B1B8BEF9AEFA0E0B0E0AE
:1045D0008D879E87AF87B88B44E050E0BE01635F54
:1045E0007F4F80E090E00E949B1B0E94A215082F45
:1045F000000F110B42E050E0B501C80188509F4FF9
:104600000E94E21B89819A819093030280930202A7
:10461000C8018C5F9E4F0E94161C909305028093E8
:1046200004028CE091E09093BD048093BC0461E0AF
:104630008091B8040E94571161E08091B9040E94F2
:1046400057110E94841F0E94501F8091BC049091BA
:10465000BD04DC01ED91FC910280F381E02D099510
:104660000E94841F45E06DEC71E08BE00E94BB1F4F
:1046700061E08091B8040E94F41086E08093BB044E
:1046800080E390E00E94161C61E00E94FE1A61E047
:1046900087E10E94F410479A80912402833030F021
:1046A00063E575E08BEA94E00E94291C8091240266
:1046B000882399F090E001972AE0289FF001299F34
:1046C000F00D1124EA5FFD4F8681863030F067E5FA
:1046D00075E08BEA94E00E94291CE09124020E2FE1
:1046E00010E0BAE0EB9FF0011124EA5FFD4F88E291
:1046F00094E09583848382E08683C12CD12C76015B
:10470000C39436968081863040F48E5F80832FEF8D
:10471000C21AD20AE20AF20AF5CF8D3330F067EB03
:1047200076E08BEA94E00E94291C8AE0809FF001E9
:10473000819FF00D1124EA5FFD4F86814CE350E02C
:1047400060E070E0481B51096109710981E08783CD
:1047500084809580CC0CDD1C9F012A5F3F4F8F0128
:10476000095F1F4F8AE0D9014C90512C612C712CAC
:10477000441555056605770598F08C0C9D1CC40101
:104780008C199D09DC018D929C92D9018C91481B5A
:10479000510961097109D8018C918F5F8C93E2CF27
:1047A000D4011D921C9297819087918728E234E072
:1047B0003183208393828282909124029F5F909321
:1047C00024022DE134E030932802209327022BE0CD
:1047D00030E030932602209325021092D9041092E3
:1047E000D80429E034E03093DB042093DA0480938A
:1047F000DC041092DD041092DE048093DF048093C9
:10480000E00481E08093E1048091F8039091F90342
:10481000892B31F063E674E08BEA94E00E94291C56
:104820008FB7F89422ED34E03093F9032093F80326
:104830008FBFE090D404F090D5048091D60490917D
:10484000D704892B29F0B4E6EB16B3E1FB0631F06F
:1048500061E970E08BEA94E00E94291CE091D604A3
:10486000F091D70460E070E082ED94E00995823029
:1048700031F064E970E08BEA94E00E94291CE09139
:10488000D604F091D704FA83E98361E371E082ED05
:1048900094E0099510E0E091D604F091D704EE156C
:1048A000FF0571F01F5FA12FAA0FBB0BAA0DBB1D47
:1048B000ED93FC9361E371E082ED94E00995EBCF19
:1048C00089819A819093D7048093D604163034F06E
:1048D0006AEA70E08BEA94E00E94291CE12FEE0F57
:1048E000FF0BEA0DFB1D0190F081E02D65E371E007
:1048F00082ED94E00995115017FFF0CFE980FA801E
:104900006DE371E082ED94E0F7010995823009F4DE
:10491000B6CFF092D504E092D404F092D704E0929E
:10492000D60482E08093C00087E08093C10080E4D9
:10493000809372001092BF001092BE008CE38093AF
:10494000CF00F894E0910804EE2309F4BBC1F0E035
:10495000E15AFC4FE491AE2FB0E0AA0FBB1FAA5062
:10496000BC4F0D911C91E09366047894FFB6F894C7
:10497000D80116968D919C911797892B31F460ED93
:1049800072E08BEA94E00E94291CF80126803780AF
:10499000858522858217D9F0948540853185E42F5D
:1049A000F32FE90FF11DE90FF11D40815181D8016D
:1049B00017965C934E931697911102C01C962C93F8
:1049C000F8019485915094878F5F85870CC017827A
:1049D0001682E785F0E0E25EFC4FE49180910804E6
:1049E000E823E0930804FFBEF801E280F3808481AD
:1049F0009581E816F90631F069EC70E08BEA94E0F5
:104A00000E94291CD80114968D909C901597B10195
:104A1000C801F4010995843029F461E371E0C8010B
:104A2000F4010995833071F3823009F034C1D80163
:104A300014966D907C9015977A826982FC82EB8245
:104A4000E814F90491F069E371E0C801F7010995F0
:104A5000811105C061E371E0C801F7010995D80132
:104A60001496ED90FC901597EBCFE614F704D1F077
:104A700061E371E0C801F3010995D80114964D90E6
:104A80005C901597E414F50491F061E371E0C801BE
:104A9000F7010995D8011496CD90DC901597C414B0
:104AA000D50439F469E371E0C801F7010995E12CF7
:104AB00087C0C614D70441F469E371E0C801F70167
:104AC0000995EE24EA947CC05C824B8261E371E03C
:104AD000C801F201099520E0FF24F394833049F5E1
:104AE000EE24E394EF0CD8011496ED91FC91159708
:104AF000AE2DAA0FBB0B81E090E08C0F9D1FA80F7D
:104B0000B91FED93FC93E815F90551F495E09E1556
:104B10007CF465E271E08BEA94E00E94291C08C0F5
:104B200061E371E0C801288F0995FE2C288DD6CF4E
:104B300021E0EF2C211144C0A5E0AF1534F460E36F
:104B400071E08BEA94E00E94291C69E371E0C801DE
:104B5000F4010995EF2CEE2DEE0FFF0B81E090E0B4
:104B60008C0F9D1FE80FF91F80819181EA94C81670
:104B7000D90631F1E7FEEFCF69E371E0C801F60134
:104B80000995811105C061E371E0C801F60109953D
:104B9000D8011496CD90DC901597EF2CEE2DEE0FEA
:104BA000FF0B81E090E08C0F9D1FE80FF91F8081C3
:104BB0009181EA94C816D90619F0E7FEEFCFDCCF51
:104BC000E7FC12C0EE2DEE0FFF0BA1E0B0E0AC0F42
:104BD000BD1FEA0FFB1F0190F081E02D65E371E03E
:104BE000C8010995EA94ECCFE980FA80F801F582D2
:104BF000E4826DE371E0C801F7010995823009F0A4
:104C00004AC0D8011496ED91FC911597FA83E98377
:104C100061E371E0C8010995D12CD8011496ED919A
:104C2000FC911597EE15FF0589F0D394AD2DAA0FD1
:104C3000BB0B81E090E08C0F9D1FA80FB91FED9377
:104C4000FC9361E371E0C8010995E7CF89819A81FE
:104C500015969C938E931497B5E0BD1534F467E8D0
:104C600071E08BEA94E00E94291CED2DEE0FFF0B02
:104C700081E090E08C0F9D1FE80FF91F0190F081FB
:104C8000E02D65E371E0C8010995DA94D7FEEDCF18
:104C9000E980FA80AECFD8011396FC92EE9212977B
:104CA0001596FC92EE921497F1018281882309F403
:104CB00048CEC1010E94A81344CE208310926504FF
:104CC0001092640487E694E00E942E0D18161906CF
:104CD0002CF587E694E00E94270E282F809180060D
:104CE00090918106AC014F5F5F4F509381064093D6
:104CF0008006803891054CF4FC01E058FA4F2A30C8
:104D0000E1F610820E94EC1604C083ED91E00E944F
:104D100051161092810610928006D0CF0091820623
:104D200010918306109283061092820601151105D8
:104D300071F18091640490916504892B41F583E0C1
:104D4000C82ED12CE12CF12CE0916704F09168047D
:104D5000B70160507A4F0280F381E02DA80187E609
:104D600094E00995E80EF91E081B190B10161106A0
:104D70004CF0EF2861F481E090E09093650480931B
:104D8000640405C0F1E0CF1AD108F1F6F2CFD501E5
:104D9000E6E01D92EA95E9F7C5010E94C11A0E945A
:104DA0004920882311F07894CCCD8091AB03909169
:104DB000AC032091A9033091AA038217930799F3BA
:104DC000B6E0B89F8001B99F100D1124075D1D4FFB
:104DD000019660E470E00E94D4289093AC03809325
:104DE000AB0345E060E771E08AE00E94BB1F45E04D
:104DF00060E771E080E10E94BB1F0E943820809133
:104E0000B704882331F00E9438208073C1F31092D8
:104E1000B7040E94841FF1E0F093B7046AE080E0D9
:104E20000E945A1F0E94551F8091BC049091BD049E
:104E3000DC01ED91FC910190F081E02D61EE09958E
:104E40000E94501F0E94551F8091BC049091BD0488
:104E5000DC01ED91FC910190F081E02D60EA099573
:104E60006091BB04C8010E949E1F0E94501F61E018
:104E70008091B8040E94F4100E9449208111FCCF57
:104E800092CFCF93DF9310926A041092690488EE58
:104E900093E0A0E0B0E080936B0490936C04A09347
:104EA0006D04B0936E0485E491E090936804809360
:104EB00067048FEF9FEF909374048093730488E0EE
:104EC0008093B80487E08093B90481E08093BA04AA
:104ED00080E18093BB041092BD041092BC0462E098
:104EE00082E00E94571162E081E00E945711EEE8D3
:104EF000F4E0E491F0E0EE0FFF1FE258FB4FA591C4
:104F0000B491B093C704A093C604E1E6F4E08491A1
:104F10008093CA04EDE8F4E0E491F0E0EE0FFF1FA7
:104F2000E258FB4FC591D491D093C904C093C804F3
:104F3000E0E6F4E0E491E093CB041092CD0410920B
:104F4000CE041092CF041092D004EBE3FFE131972E
:104F5000F1F7EC91E82381E009F480E02881909159
:104F6000CB04922309F0826026EC34E08093CC04D9
:104F70003093C1042093C00483E49FE19093110116
:104F80008093100180916900837F84608093690021
:104F9000E99A81E08093D1043093C5042093C4043E
:104FA00087E39FE19093150180931401809169003C
:104FB0008F73806480936900EB9A82E08093D104C0
:104FC00084E693E19093D5048093D4048BED92E032
:104FD0009093D7048093D60485E591E09093D30411
:104FE0008093D2041092E7041092E6041092E90430
:104FF0001092E8041092EB041092EA041092ED046F
:105000001092EC048AE090E09093E3048093E20431
:105010001092E4041092E5041092F3041092F2044A
:105020001092F5041092F4041092F7041092F60412
:105030001092F9041092F8048FE090E09093EF043E
:105040008093EE041092F0041092F1041092FF0489
:105050001092FE04109201051092000510920305B3
:105060001092020510920505109204058CE090E064
:105070009093FB048093FA041092FC041092FD04B8
:1050800010920B0510920A0510920D0510920C0556
:1050900010920F0510920E05109211051092100536
:1050A0008EE090E090930705809306051092080526
:1050B0001092090510921705109216051092190505
:1050C0001092180510921B0510921A0510921D05DA
:1050D00010921C058DE090E09093130580931205CB
:1050E00010921405109215051092230510922205B6
:1050F000109225051092240510922705109226057E
:10510000109229051092280580E190E090931F05E8
:1051100080931E05109220051092210510922F05F4
:1051200010922E0510923105109230051092330521
:1051300010923205109235051092340581E190E00D
:1051400090932B0580932A0510922C0510922D0523
:1051500010923605109237051092380510923905D5
:1051600010927205109271051092740510927305D9
:105170001092750581E090E0909377058093760515
:10518000DF91CF9108950895DB018F939F930E9443
:105190001C29BF91AF91A29F800D911DA39F900DDF
:1051A000B29F900D1124089597FB072E16F40094DA
:1051B00007D077FD09D00E942F2907FC05D03EF4C7
:1051C000909581959F4F0895709561957F4F0895B3
:1051D000052E97FB1EF400940E94FF2857FD07D070
:1051E0000E94432907FC03D04EF40C94FF285095ED
:1051F0004095309521953F4F4F4F5F4F08959095C3
:105200008095709561957F4F8F4F9F4F0895EE0F5A
:10521000FF1F0590F491E02D0994A29FB001B39F68
:10522000C001A39F700D811D1124911DB29F700DAF
:10523000811D1124911D08950E940D29A59F900D97
:10524000B49F900DA49F800D911D11240895B7FF68
:105250000C941C290E941C29821B930B0895AA1BE5
:10526000BB1B51E107C0AA1FBB1FA617B70710F051
:10527000A61BB70B881F991F5A95A9F78095909583
:10528000BC01CD010895A1E21A2EAA1BBB1BFD0192
:105290000DC0AA1FBB1FEE1FFF1FA217B307E40715
:1052A000F50720F0A21BB30BE40BF50B661F771F6D
:1052B000881F991F1A9469F760957095809590954D
:1052C0009B01AC01BD01CF010895CF93DF938230E4
:1052D000910510F482E090E0E0919206F09193063F
:1052E00020E030E0C0E0D0E0309711F14081518102
:1052F00048175907C0F04817590761F48281938114
:10530000209719F09B838A832BC0909393068093F8
:10531000920626C02115310519F04217530718F4DB
:105320009A01BE01DF01EF010280F381E02DDCCFA5
:105330002115310509F1281B390B2430310590F472
:1053400012968D919C9113976115710521F0FB01C7
:105350009383828304C09093930680939206FD0109
:10536000329644C0FD01E20FF31F819391932250C6
:1053700031092D933C933AC02091900630919106CB
:10538000232B41F420911C0130911D013093910693
:105390002093900620911A0130911B0121153105AF
:1053A00041F42DB73EB740911E0150911F01241BBF
:1053B000350BE0919006F0919106E217F307A0F407
:1053C0002E1B3F0B2817390778F0AC014E5F5F4F5B
:1053D0002417350748F04E0F5F1F509391064093F6
:1053E00090068193919302C0E0E0F0E0CF01DF915D
:1053F000CF9108950F931F93CF93DF93009709F4F4
:105400008CC0FC0132971382128200919206109197
:1054100093060115110581F420813181820F931FBC
:1054200020919006309191062817390779F5F0936D
:105430009106E093900671C0D80140E050E0AE17AD
:10544000BF0750F412962D913C911397AD01211591
:10545000310509F1D901F3CF9D01DA0133832283AC
:1054600060817181860F971F8217930769F4EC01A1
:1054700028813981260F371F2E5F3F4F31832083CC
:105480008A819B8193838283452B29F4F093930631
:10549000E093920642C01396FC93EE931297ED01AF
:1054A000499159919E01240F351FE217F30771F4BA
:1054B00080819181840F951F029611969C938E9303
:1054C0008281938113969C938E931297E0E0F0E093
:1054D000D80112968D919C911397009719F0F801BD
:1054E0008C01F6CF8D919C9198012E5F3F4F820FDA
:1054F000931F20919006309191062817390769F47F
:10550000309729F4109293061092920602C01382EB
:1055100012821093910600939006DF91CF911F9114
:105520000F910895FB01DC0104C08D910190801959
:1055300021F441505040C8F7881B990B0895AEE004
:10554000B0E0E5EAFAE20C9499300D891E8986E014
:105550008C831A8309838FEF9FE79E838D83AE012F
:10556000475E5F4F6F89788DCE0101960E94DB2ADE
:105570002F813885F801E20FF31F10822E96E4E0A8
:105580000C94B530AEE0B0E0E8ECFAE20C949B305D
:1055900085E08C838B899C899A838983AE01495EDF
:1055A0005F4F6D897E89CE0101960E942D2E2E9629
:1055B000E2E00C94B730ACE0B0E0E1EEFAE20C943B
:1055C0008B307C016B018A01FC011782168283817A
:1055D00081FFBDC1CE0101964C01F7019381F60117
:1055E00093FD859193FF81916F01882309F4ABC1ED
:1055F000853239F493FD859193FF81916F01853256
:1056000029F4B70190E00E94C32FE7CF512C312C31
:1056100020E02032A0F48B3269F030F4803259F06F
:10562000833269F420612CC08D3239F0803339F433
:10563000216026C02260246023C0286021C027FD8D
:1056400027C030ED380F3A3078F426FF06C0FAE074
:105650005F9E300D1124532E13C08AE0389E300D0A
:105660001124332E20620CC08E3221F426FD6BC132
:10567000206406C08C3611F4206802C0883641F4DC
:10568000F60193FD859193FF81916F018111C1CF47
:10569000982F9F7D9554933028F40C5F1F4FFFE3A4
:1056A000F9830DC0833631F0833771F0833509F00B
:1056B0005BC022C0F801808189830E5F1F4F4424A4
:1056C0004394512C540115C03801F2E06F0E711C47
:1056D000F801A080B18026FF03C0652D70E002C0F4
:1056E0006FEF7FEFC5012C870E947A2F2C01830179
:1056F0002C852F77222E17C03801F2E06F0E711C17
:10570000F801A080B18026FF03C0652D70E002C0C3
:105710006FEF7FEFC5012C870E946F2F2C012C8526
:105720002068222E830123FC1BC0832D90E04816A5
:105730005906B0F4B70180E290E00E94C32F3A947A
:10574000F4CFF50127FC859127FE81915F01B70118
:1057500090E00E94C32F31103A94F1E04F1A5108A3
:105760004114510471F7E5C0843611F0893639F5DA
:10577000F80127FF07C060817181828193810C5FEE
:105780001F4F08C060817181072E000C880B990B98
:105790000E5F1F4F2F76722E97FF09C09095809550
:1057A000709561957F4F8F4F9F4F2068722E2AE032
:1057B00030E0A4010E941430A82EA81844C08537F8
:1057C00029F42F7EB22E2AE030E025C0F22FF97F97
:1057D000BF2E8F36C1F018F4883579F0B4C0803709
:1057E00019F0883721F0AFC02F2F2061B22EB4FE00
:1057F0000DC08B2D8460B82E09C024FF0AC09F2FD6
:105800009660B92E06C028E030E005C020E130E007
:1058100002C020E132E0F801B7FE07C0608171816B
:10582000828193810C5F1F4F06C06081718180E08F
:1058300090E00E5F1F4FA4010E941430A82EA818FC
:10584000FB2DFF777F2E76FE0BC0372D3E7FA514F4
:1058500050F474FE0AC072FC08C0372D3E7E05C0AD
:10586000BA2C372D03C0BA2C01C0B52C34FF0DC0A3
:10587000FE01EA0DF11D8081803311F4397E09C0EB
:1058800032FF06C0B394B39404C0832F867809F026
:10589000B39433FD13C030FF06C05A2CB31418F470
:1058A000530C5B18B32CB31468F4B70180E290E09A
:1058B0003C870E94C32FB3943C85F5CFB31410F4FA
:1058C0003B1801C0312C34FF12C0B70180E390E0D7
:1058D0003C870E94C32F3C8532FF17C031FD03C0B7
:1058E00088E790E002C088E590E0B7010CC0832F04
:1058F000867859F031FF02C08BE201C080E237FDAB
:105900008DE2B70190E00E94C32FA51438F4B701CF
:1059100080E390E00E94C32F5A94F7CFAA94F40139
:10592000EA0DF11D8081B70190E00E94C32FA11004
:10593000F5CF332009F451CEB70180E290E00E9408
:10594000C32F3A94F6CFF7018681978102C08FEF7B
:105950009FEF2C96E2E10C94A73020FD09C0FC01DA
:1059600023FD05C022FF02C07383628351834083FD
:10597000089544FD10C046FD10C0DB01FC01AA0FD4
:10598000BB1FEE1FFF1F1094D1F76A0F7B1F8E1FE6
:105990009F1F31E003C033E001C034E0660F771F82
:1059A000881F991F3150D1F7620F711D811D911D04
:1059B00008950F931F93CF93DF938C01C8010E942A
:1059C000852FEC0197FD08C00E945B2F892BB1F752
:1059D000B801CE010E94FB2FCE01DF91CF911F9124
:1059E0000F910895A1E0B0E0E8EFFCE20C94913053
:1059F0008C01C62E7A0129830E94852FAC01552780
:105A000029814B32510521F04D32510569F420684E
:105A1000CA94C11002C080E076C0C80129830E94E8
:105A2000852F298197FDF7CF322F3D7FD32E322F3F
:105A3000307349F5803339F5BB24BA94BC0C09F4B2
:105A40004EC0C80129830E94852F298197FD47C038
:105A5000382F3F7D383569F48D2D8264D82ECA9455
:105A6000CA94CC20E1F1C8010E94852F97FF0BC09A
:105A700036C026FF04C02D2D2260D22E03C03D2D3E
:105A80003261D32ECB2C812C912C540120ED280F88
:105A9000283080F0D4FE04C0B8010E94FB2F1CC047
:105AA0002A3040F0D6FEF8CF2F7D3FEE320F363051
:105AB00098F727504D2DC501B4010E94B92C4B0118
:105AC0005C018D2D8260D82ECA94CC2059F0C8017B
:105AD0000E94852F97FFDACFD1FC04C09CCF812C88
