:100000000C943E020C94741A0C949B1A0C94C21A11
:100010000C94E91A0C9466020C9466020C94101B62
:100020000C9466020C9466020C9467220C94F920DE
:100030000C9466020C9466020C9466020C946602A0
:100040000C9466020C9466020C9466020C94660290
:100050000C9466020C9466020C9466020C94371B96
:100060000C9466020C9466020C9466020C94660270
:100070000C9466020C9466020C9466020C94660260
:100080000C9466020C9466020C9466020C94660250
:100090000C9466020C9466020C94350A0C94660269
:1000A0000C9466020C9466020C9466021C041C04F8
:1000B0001604F403FE030A0410040D0416041604C7
:1000C000160416041604160403045009B509AF09F2
:1000D0007109AF09A209AA09A609AF09AF09AF09B9
:1000E000AF096D09841C891C8E1C981CA21CEC1C79
:1000F000EC1CEC1CAC1CB61CC01CCA1CD71CEC1C99
:10010000DF1C0D1D101DFF1C031D091D311D311DA0
:10011000311D141D181D1C1D221D261D311D2C1DD9
:10012000433A5C55736572735C444F55474C417E4E
:10013000312E5448415C417070446174615C4C6F75
:1001400063616C5C54656D705C6275696C643137B9
:10015000316139633665633065333237393262660F
:1001600062613431313937363562646239302E7428
:100170006D705C736B657463685C616F5F547872FB
:100180002E6370700071700000000000000000001D
:100190000001010101010101010202020202020249
:1001A0000203030303030303030404040404040419
:1001B00004050505050505050506060606060606E9
:1001C000060707070707070707FFFEFDFBF7EFDF37
:1001D000BF7FFEFDFBF7EFDFBF7FFEFDFBF7EFDF2D
:1001E000BF7FFEFDFBF7EFDFBF7FFEFDFBF7EFDF1D
:1001F000BF7FFEFDFBF7EFDFBF7FFEFDFBF7EFDF0D
:10020000BF7FFEFDFBF7EFDFBF7F00010204081098
:1002100020408001020408102040800102040810E0
:1002200020408001020408102040800102040810D0
:1002300020408001020408102040800102040810C0
:1002400020408001020408102040800001020203C7
:10025000030303040404040404040405050505055C
:100260000505050505050505050505060606060639
:10027000060606060606060606060606060606061E
:100280000606060606060606060606070707070709
:1002900007070707070707070707070707070707EE
:1002A00007070707070707070707070707070707DE
:1002B00007070707070707070707070707070707CE
:1002C00007070707070707070707070808080808B9
:1002D000080808080808080808080808080808089E
:1002E000080808080808080808080808080808088E
:1002F000080808080808080808080808080808087E
:10030000080808080808080808080808080808086D
:10031000080808080808080808080808080808085D
:10032000080808080808080808080808080808084D
:10033000080808080808080808080808080808083D
:10034000080808080808080808080807060504013E
:1003500000080A0B0C0D090000000200090F000044
:10036000030401000C000000000000000000000079
:10037000000000000000040802011040804010202E
:10038000408040800802040180402010020110805B
:100390001020404020040404040403040502020267
:1003A000020403020202020606060606060404020E
:1003B00002020404000000002300260029002C0093
:1003C0002F0000000000250028002B002E00310027
:1003D00000000000240027002A002D003000080B38
:1003E00000020202010009040000010202000005EF
:1003F000240010010524010101042402060524063D
:1004000000010705810310004009040100020A00F1
:1004100000000705020240000007058302400000BB
:1004200012010002EF020140412336800001010267
:100430000301120100020000004041233680000148
:100440000102030141726475696E6F204C4C4300D8
:1004500041726475696E6F204C656F6E6172646F76
:1004600000040309046364696E6F70737578585BE8
:100470000000B909AC0B0A1A881EE30911241FBE3B
:10048000CFEFDAE0DEBFCDBF11E0A0E0B1E0E4E6FF
:10049000FAE502C005900D92A63CB107D9F725E018
:1004A000A6ECB1E001C01D92A533B207E1F714E05C
:1004B000CAE7D4E004C02297FE010E949D25C237FE
:1004C000D107C9F70E94FE220C94252D0C94000040
:1004D000CF93DF93EC010E94230C882351F00E94FC
:1004E0002E0C482F60E070E0888199810E94C61030
:1004F000F2CF60E070E0888199810E94AC10DC014D
:10050000CB01109729F0BD01DF91CF910C949A0B8C
:10051000DF91CF910895CF92DF92EF92FF920F93E8
:100520001F93CF93DF93EC010E94440B6B017C017E
:100530000C811D811F830E8388819981AA81BB81D3
:10054000A7019601281B390B4A0B5B0BCA01B901A5
:1005500022E030E040E050E00E947C25200F311F77
:10056000C882D982EA82FB82C9012536310514F09E
:1005700084E690E01816190614F081E090E09D835F
:100580008C83DF91CF911F910F91FF90EF90DF90BF
:10059000CF900895589881E00E94820B82E00E94DB
:1005A000820B2D980895AF92BF92CF92DF92EF9277
:1005B000FF920F931F93CF93DF93EC012C813D812A
:1005C0008E819F812817390719F4662309F47CC0AE
:1005D0008130910541F08436910529F082339105EF
:1005E00011F0662349F058982D9860E070E08AE099
:1005F0000E945E1C2F980EC041E0223331050CF0A2
:1006000040E021E0C2970CF020E0421719F0CE0143
:100610000E94CA022C813D812233310551F4CE0162
:100620000E94CA026FEF70E08AE00E945E1C2F9A5F
:100630004BC0B901882777FD8095982F233331056A
:1006400014F11F921F921F922AEF2F93A12CB12C0D
:100650006501A39414E6E12EF12C00E010E023E301
:1006600030E040E050E00E94BC0486E00E945E1C46
:100670000F900F900F900F908C819D818436910583
:1006800019F52D9A21C01F921F921F9221E02F93DE
:100690002AEFA22EB12CC12CD12C11E3E12EF12C8A
:1006A00000E010E021E030E040E050E00E94BC04B7
:1006B00085E00E945E1C0F900F900F900F908C8130
:1006C0009D81019709F4589ADF91CF911F910F9165
:1006D000FF90EF90DF90CF90BF90AF900895CF93B1
:1006E000DF93EC017D836C837F836E830E94440BD8
:1006F000688379838A839B8361E0CE01DF91CF9108
:100700000C94D3028F929F92AF92BF92CF92DF92BE
:10071000EF92FF920F931F930E94CE0A0E9425171B
:1007200006E010E020E030E04CE350E060E070E0F4
:1007300086EC91E00E94AB154CE050E060E070E088
:1007400082E092E00E943014812C912CA12CB12CDB
:100750006501E12CF12C0AE010E020E030E04EE0F1
:1007600052E061E080913E0190913F010E944B1761
:100770001F910F91FF90EF90DF90CF90BF90AF90BF
:100780009F908F90089522E331E0FC013183208314
:100790000C9402112AE331E0FC01318320830C9494
:1007A000C303CF93DF93EC010E94C303CE01DF911B
:1007B000CF910C941123CF93DF93EC010E94CA03D5
:1007C000CE01DF91CF910C941123CF93DF93EC01F5
:1007D000DB018D919C9101978F30910538F58A5AF4
:1007E0009F4FFC010C949B251FAE1EAE40E058E0CD
:1007F000BE01CE01C4960E94B6161EC0CE01C4969C
:100800000E94171719C0DE01A85ABF4F1C9286E537
:1008100094E008C086EB98E005C082E098E002C052
:1008200081E497E09D838C8382E007C080E294E0BE
:100830009D838C8383E001C080E0DF91CF91089598
:10084000CF93DF9300D0CDB7DEB7FB01208131819C
:100850002A30310591F030F4215031092230310530
:10086000F8F017C02B303105A1F40E945C0E8823EC
:1008700011F05A9815C05A9A13C0BE016F5F7F4F8E
:100880008CE090E00E94A50C89819A810E94120E52
:1008900007C020E031E1FC013583248383E001C0FF
:1008A00080E00F900F90DF91CF910895CF93DF9369
:1008B000EC01FB01808191818430910509F458C0DD
:1008C00088F481309105A1F0029709F04BC0CE0168
:1008D0004C960E9417172F9A60E070E08AE00E9401
:1008E0005E1C46C08E309105C1F10F97E9F03AC009
:1008F0002F9885B190E4892785B980E092E09FA385
:100900008EA340E052E0BE01CE014C960E94B61686
:100910001FAE1EAE40E058E0BE01CE01C4960E945C
:10092000B6161092220224C0FE01E85AFF4F8081C1
:10093000823084F04E9B03C081E497E007C04C9B5B
:1009400003C082E098E002C086EB98E09D838C8330
:1009500082E00FC081E499E0F9CF85B190E4892766
:1009600085B906C081E499E09D838C8383E001C052
:1009700080E0DF91CF9108954F925F926F927F92C6
:10098000AF92BF92CF92DF92EF92FF920F931F939D
:10099000CF93DF93CDB7DEB729013A01621B730B0A
:1009A000840B950B29893A894B895C892A193B0963
:1009B0004C095D09298B3A8B4B8B5C8B9B01AC01FD
:1009C00069897A898B899C890E943625E418F50803
:1009D00006091709A80197010E947C252A0D3B1DD5
:1009E0004C1D5D1DCA01B901DF91CF911F910F917F
:1009F000FF90EF90DF90CF90BF90AF907F906F907F
:100A00005F904F9008950F931F93CF93DF93CDB7CF
:100A1000DEB7A0970FB6F894DEBF0FBECDBF5F93D1
:100A20004F933F932F93862F992787FD90959F9300
:100A30006F9388E291E09F938F938E010F5F1F4F1A
:100A40001F930F930E940B270E94FD10A80160E0E6
:100A500070E00E94F5100FB6F894DEBF0FBECDBF58
:100A6000A0960FB6F894DEBF0FBECDBFDF91CF9139
:100A70001F910F910895CF93DF9300D01F92CDB7B0
:100A8000DEB72A833B8369830E94FA1049812A8159
:100A9000522F3B81632F0E94850D0F900F900F9076
:100AA000DF91CF910895CF92DF92EF92FF920F9353
:100AB0001F93CF93DF9300D0CDB7DEB78C01FC013D
:100AC000E75AFF4F81E0808379971082118212826A
:100AD00013823C96108211821282138220E030E051
:100AE000A9016EE0C8010E943B05F801ED58FF4FD7
:100AF00082E38083319684E68083F0974FEF5FEF47
:100B0000BA01408351836283738334964083518357
:100B10006283738364E070E0C8010E94C61365E0DD
:100B200070E0C8010E94C61366E070E0C8010E9430
:100B3000C61367E070E0C8010E94C61368E070E069
:100B4000C8010E94C61369E070E0C8010E94C61384
:100B50006AE070E0C8010E94C6138AE090E0F801E4
:100B600093AB82AB4AE050E0B801C80188960E947E
:100B7000B61680E094E1F801938F828F40E054E153
:100B8000B801C80140960E94B616BE016F5F7F4F44
:100B900082E190E00E94A50C89819A81F801E05BD6
:100BA000FF4FAA2797FDA095BA2F80839183A28338
:100BB000B383BE016F5F7F4F84E190E00E94A50C7C
:100BC00089819A81F801EC5AFF4FAA2797FDA095D9
:100BD000BA2F80839183A283B383BE016F5F7F4F5F
:100BE0008EE190E00E94A50C89819A81892B71F594
:100BF000680186E1E82EF12CBE016F5F7F4FC701CF
:100C00000E94A50C49815A81F601E65AFF4F6627DA
:100C100057FD6095762F4083518362837383F2E0A2
:100C2000EF0EF11C84E0C80ED11CEEE1EE16F104CB
:100C300019F74E9B03C081E497E00AC04C9B03C0A8
:100C400082E098E005C086EB98E002C081E499E07C
:100C5000F8019583848382E00F900F90DF91CF910C
:100C60001F910F91FF90EF90DF90CF9008954F92DA
:100C70005F926F927F92AF92BF92CF92DF92EF928C
:100C8000FF920F931F93CF93DF935C01EB010E94C0
:100C9000440B6B017C018E01045B1F4FF8018081C6
:100CA0009181A281B381C816D906EA06FB0631F00C
:100CB000A701960165E6C5010E940305F801808140
:100CC0009181A281B381A7019601281B390B4A0BA0
:100CD0005B0BCA01B9010E94472420E030E040E8E4
:100CE0005EE30E94D3242B013C015E0130E4A30E9D
:100CF000B11CFE01E75AFF4F6081772767FD7095B1
:100D0000872F972F0E9447249B01AC01C301B2019A
:100D10000E94D324F50120813181428153810E94B8
:100D2000B023F5016083718382839383F801C082CD
:100D3000D182E282F3820E9414249B01AC016EE016
:100D4000CE01DF91CF911F910F91FF90EF90DF9037
:100D5000CF90BF90AF907F906F905F904F900C942A
:100D60003B054F925F926F927F928F929F92AF92CC
:100D7000BF92CF92DF92EF92FF920F931F93CF9388
:100D8000DF935C01EB010E94590B2C01662457FC98
:100D90006094762C6E0124E4C20ED11CF601808191
:100DA0009181A281B3819E01205C3F4F7901481659
:100DB00059066A067B0609F447C08E01085B1F4F7F
:100DC000F80180819181A281B381481659066A0693
:100DD0007B06D1F1A301920160E7C5010E940305E2
:100DE000F80180819181A281B381F6018083918392
:100DF000A283B383F8014082518262827382389663
:100E000080809180A280B3803496608171818281DC
:100E10009381681979098A099B09A30192010E94AB
:100E2000362520E034E040E050E00E947C25280D8B
:100E3000391D4A1D5B1DCA01B9010E944724F701F3
:100E40006083718382839383F701608171818281E2
:100E500093810E9414249B01AC016EE0CE01DF91CE
:100E6000CF911F910F91FF90EF90DF90CF90BF90A7
:100E7000AF909F908F907F906F905F904F900C9469
:100E80003B054F925F926F927F92AF92BF92CF924B
:100E9000DF92EF92FF920F931F93CF93DF93EC01BA
:100EA0008B01FB01808191818930910539F138F402
:100EB0008130910581F0029709F474C06DC08D30C6
:100EC0009105B9F00E9709F067C0CE58DF4F8881C1
:100ED0000E94820B67C02F986FE070E08AE00E944A
:100EE0005E1C20E030E0A90163E1CE010E943B05D9
:100EF00059C0BE01CE010E94B10654C07E01FCE182
:100F0000EF0EF11CC7010E941017892B09F04AC08F
:100F1000F80184818E010E581F4FF80180838430C0
:100F200030F069EE71E080E291E00E94A60BF801DA
:100F30008081FE01E05CFF4F4080518062807380C1
:100F4000A82EB12C6E01F4E08F9FC00CD11C11248F
:100F50008AE5C80ED11CC301B2010E941424F60117
:100F60006083718382839383C301B2010E9414243E
:100F7000CB010B96B501880F991F0E94920CF801C6
:100F800080810E946A0B1FA21EA240E052E0BE01B7
:100F9000C7010E94B61606C085EE93E09D838C8340
:100FA00083E001C080E0DF91CF911F910F91FF900E
:100FB000EF90DF90CF90BF90AF907F906F905F9059
:100FC0004F9008950F931F93CF93DF93EB018B0105
:100FD00006591F4FC8010E948B029C01442737FD10
:100FE0004095542F65E1CE010E943B0560E0C801A9
:100FF0000E94D302BE01CE01DF91CF911F910F91CC
:101000000C94B1060F931F93CF93DF93EC01FB0178
:10101000808191818230910509F445C0D0F5019716
:1010200009F06FC06FEF70E08AE00E945E1C2F9A9B
:1010300022E030E040E050E063E1CE010E943B0559
:10104000FE01E05CFF4F60817181828193810E948B
:1010500014249B01AC016EE0CE010E943B05FE0111
:10106000EC58FF4F2081332727FD3095432F532F16
:1010700066E1CE010E943B05FE01ED58FF4F608105
:10108000772767FD7095CE0186599F4F0E946F03A9
:1010900016C089309105A9F00D9799F5BE01CE01D2
:1010A0000E94E2070CC08E0106591F4FC8010E9422
:1010B000CA02C8010E948B02CD58DF4F888380E0AE
:1010C00025C0FB010481112707FD1095043011058F
:1010D00034F061E572E080E291E00E94A60B29E124
:1010E000209F200D1124FE01EC58FF4F2083332751
:1010F00027FD3095432F532F66E1CE010E943B051B
:10110000DECF85EE93E09D838C8383E0DF91CF91EA
:101110001F910F9108950F931F93CF93DF93EB01CE
:10112000FB01E05CFF4F60817181828193810E94AD
:1011300014249B01AC016EE0CE010E943B058E01A0
:1011400006591F4FC8010E948B029C01442737FD9E
:101150004095542F65E1CE010E943B0560E0C80137
:10116000DF91CF911F910F910C94D302EF92FF92D8
:101170000F931F93CF93DF93EC01FB01808191814B
:101180008230910599F140F5019709F05EC06FEF4B
:1011900070E08AE00E945E1C2F9A21E030E040E07F
:1011A00050E063E1CE010E943B05FE01E05CFF4F91
:1011B00060817181828193810E9414249B01AC0122
:1011C0006EE0CE010E943B0562E370E0CE018659DD
:1011D0009F4F0E946F030FC08930910571F00D97EA
:1011E000A1F5BE01CE010E948B0805C0CE01865933
:1011F0009F4F0E94CA0280E02DC0FB01E480FF24C3
:10120000E7FCF094F4E0EF16F10434F062E272E0EF
:1012100080E291E00E94A60B8E01005C1F4FC70187
:10122000880F991F880F991F8C0F9D1FFC01E65A8C
:10123000FF4F60817181828193810E944724F80170
:101240006083718382839383D6CF85EE93E09D8301
:101250008C8383E0DF91CF911F910F91FF90EF90EE
:101260000895FC01E75AFF4F6130710529F06230A3
:10127000710521F480E503C088E201C088E0808325
:101280000895CF93DF93EC01DB01ED91FC91319751
:10129000ED30F10508F063C0EB59FF4F0C949B252E
:1012A0002F9A60E070E08AE00E945E1C20E030E04F
:1012B000A90163E1CE010E943B050E94440BFE019F
:1012C000E45BFF4F60837183828393830E945C0B96
:1012D000BC01CE010E94310948C0BC010E94370602
:1012E00044C0FC01E85AFF4F808191E0980F908341
:1012F0007897811110C060817181828193810E94F1
:101300001424FE01E05BFF4F60837183828393832B
:1013100082E190E00FC060817181828193810E949F
:101320001424FE01EC5AFF4F608371838283938300
:1013300084E190E00E94920C86E594E09D838C838A
:1013400082E014C0C75ADF4F88E207C0C75ADF4F98
:1013500080E503C0C75ADF4F88E0888306C080E27B
:1013600094E09D838C8383E001C080E0DF91CF9186
:10137000089580E091E1909326028093250283E511
:1013800095E090932802809327028AE391E090935E
:101390002402809323026BE070E083E392E00E94DA
:1013A000F0166EE070E08FE392E00E94F0166DE0C0
:1013B00070E08BE492E00E94F0166FE070E087E549
:1013C00092E00C94F01683E292E00C94CA03DC01E4
:1013D000ED91FD918081ED91FD919081ED91FD91D7
:1013E0006C9163708E2309F064609F2309F068603C
:1013F000E4E0FAE0E60FF11D659565956D936D915A
:101400007D918D919D91099423C01AC012C016C080
:1014100010C01EC009C014C013C006C019C009C046
:101420000DC007C00DC014C0625070408040904095
:101430000BC0615070408040904006C06E5F01C09C
:101440006F5F7F4F8F4F9F4F9E938E937E936E93D0
:1014500008958091B7049091B8040C94E7098091A5
:10146000B3049091B4040C94E7091F920F920FB645
:101470000F9211242F933F934F935F936F937F931A
:101480008F939F93AF93BF93CF93DF93EF93FF938C
:101490000E9439148FB18170C82F20E0D22F809123
:1014A0009A0290919B02C817D90781F0209719F0F2
:1014B00064E070E002C065E070E084E00E94C71460
:1014C0000E946216D0939B02C0939A0229B1C22F48
:1014D000C075D0E08091060190910701C817D90727
:1014E000A9F024FF03C068E070E007C026FF03C036
:1014F00067E070E002C066E070E084E00E94C7141C
:101500000E946216D0930701C09306018FB18277C3
:1015100090E0C0919802D09199028C179D0719F123
:10152000C827D927C823D92390939902809398027A
:101530002097C9F069E070E085E00E94C714C6FFFB
:1015400003C0FC0114820DC0C5FF02C021E007C02A
:10155000C4FF02C022E003C0C1FF03C023E0FC01BE
:1015600024830E9462160E94F7100E9468020E9463
:10157000FA100E94A10DFF91EF91DF91CF91BF91E1
:10158000AF919F918F917F916F915F914F913F911B
:101590002F910F900FBE0F901F901895CF93DF9350
:1015A00060E084E00E94321D60E08CE00E94321D09
:1015B00060E087E10E94321D60E083E10E94321DFD
:1015C00060E084E10E94321D60E085E10E94321DEE
:1015D00060E086E10E94321D61E083E00E94321DDE
:1015E00061E085E00E94321D61E086E00E94321DCC
:1015F00061E089E00E94321D61E080E00E94321DBE
:1016000061E08BE00E94321D61E08AE00E94321DA1
:1016100040E051EE60E070E08AEC94E00E94821EAF
:101620000E94F710EC010E94FD10998388830E94AC
:10163000FA10EC010E94FD10998388830E94FD102E
:10164000EC010E94FA10998388830E94FA100E948C
:10165000340E61E087E10E946B1D479ADF91CF91C4
:10166000089582E08093C00087E08093C10080E409
:10167000809372001092BF001092BE008EE08093A3
:10168000CF000895789408958091A702823030F4B5
:10169000F8948CE992E00E94E70901C0F894609107
:1016A000A3027091A4028091A5029091A602789461
:1016B000089582E10C942D1C89B184FD08C08295A7
:1016C00086958695837091E08927817001C082E0BC
:1016D00090E00895813059F01CF4882331F008958A
:1016E000823049F0833061F00895589A08956FEF81
:1016F00070E085E003C06FEF70E086E00C945E1C44
:101700002D9A0895813059F01CF4882331F0089502
:10171000823049F0833061F008955898089560E070
:1017200070E085E003C060E070E086E00C945E1C31
:101730002D980895AB01E091CA04F091CB0402808A
:10174000F381E02DBC018AEC94E00994F8942D9A81
:10175000589A0C9400000895CF93DF9362E082E0E2
:101760000E94321D62E081E00E94321DE7E9F3E051
:10177000E491F0E0EE0FFF1FEC54FC4F8591949143
:1017800090939D0280939C02E8E7F3E0E491E0935C
:10179000A002E6E9F3E0E491F0E0EE0FFF1FEC5465
:1017A000FC4F8591949190939F0280939E02E7E76E
:1017B000F3E0E491E093A1021092A3021092A4023C
:1017C0001092A5021092A60280ED97E00E94CC1B19
:1017D000E0919C02F0919D0290818091A00298235B
:1017E00081E009F480E0E0919E02F0919F029081F7
:1017F0002091A102922309F082608093A202CCE999
:10180000D2E0D093B404C093B30441E050E06FE25F
:101810007AE081E00E94241A81E08093A702D093AD
:10182000B804C093B70441E050E069E27AE083E095
:101830000E94241A8091A70290E001968093A7024B
:10184000DF91CF9108958AEC94E00E94CB1D21E0B6
:10185000181619060CF020E0822F08958AEC94E007
:101860000E94DB1D0895CF92DF92EF92FF920F93BB
:101870001F93CF93DF937C016A01811524E09207C7
:10188000B0F4840F951F8115944088F4EB0100E0BB
:1018900010E00C151D054CF46991C8018E0D9F1DBB
:1018A0000E94D52B0F5F1F4FF4CF81E001C080E075
:1018B000DF91CF911F910F91FF90EF90DF90CF902C
:1018C0000895CF92DF92EF92FF920F931F93CF93E1
:1018D000DF938B017A01811524E09207C8F49C0103
:1018E000240F351F2115344098F4EB016C01C61A02
:1018F000D70ACE01801B910B8E159F053CF4C601C3
:101900008C0F9D1F0E94CD2B8993F3CF81E001C0E6
:1019100080E0DF91CF911F910F91FF90EF90DF90CA
:10192000CF900895CF93DF9300D0CDB7DEB77A8301
:10193000698342E050E0BE016F5F7F4F0E94330C2D
:101940000F900F90DF91CF91089542E050E00C94FA
:10195000610C8AEB94E00E942D1991E0892708958B
:101960001F93CF93DF93EC018AEB94E00E942D1933
:10197000811107C08AEB94E00E941B19182F811176
:1019800002C010E005C0BE018AEB94E00E94A618D8
:10199000812FDF91CF911F910895CF93DF93EC01B9
:1019A00060E471E08AEB94E00E948519BE018AEB45
:1019B00094E00E949A198AEB94E00E942D198111FB
:1019C000FACFDF91CF910895EF92FF920F931F937B
:1019D000CF93DF93CDB7DEB760970FB6F894DEBF35
:1019E0000FBECDBF7C015F934F933F932F93862F04
:1019F000992787FD90959F936F9326E431E03F935D
:101A00002F938E010F5F1F4F1F930F930E940B2781
:101A1000A80160E070E0F701808191810E94F510DB
:101A20000FB6F894DEBF0FBECDBF60960FB6F89428
:101A3000DEBF0FBECDBFDF91CF911F910F91FF9001
:101A4000EF900895EF92FF920F931F93CF93DF9340
:101A5000CDB7DEB760970FB6F894DEBF0FBECDBF2F
:101A60008C01252F362F4230A9F154F4442389F0FC
:101A70004130F1F5442737FD4095542F63E735C0D9
:101A8000443081F15CF1453099F540E050E062E688
:101A90002CC033273F932F931F926F931F9287E79A
:101AA0008F938DE491E09F938F93CE0101967C01FB
:101AB000FF928F930E940B27A70160E070E0F8016E
:101AC000808191810E94F5100FB6F894DEBF0FBEA1
:101AD000CDBF0EC040E050E06DE607C040E050E0F2
:101AE00061E603C040E050E06EE6C8010E94E40CED
:101AF00060960FB6F894DEBF0FBECDBFDF91CF91D9
:101B00001F910F91FF90EF900895CF93DF93EC0119
:101B1000CE53DF4F28813981F901EE0FFF1FE20F0D
:101B2000F31FE80FF91F428353836483C9010196B1
:101B300060E470E00E94462599838883DF91CF910D
:101B40000895EF92FF920F931F93CF93DF93CDB73A
:101B5000DEB763970FB6F894DEBF0FBECDBF7C0132
:101B6000CE0141960E94B00C882331F049895A89F0
:101B70006B89C7010E94220D0E94A90C882309F4D9
:101B800044C0F701EC53FF4F80819181D701AE53E0
:101B9000BF4F2D913C9182179307B9F18C01000F33
:101BA000111F080F191F0E5F1F4F0E0D1F1D0196ED
:101BB00060E470E00E94462591838083F8012081D3
:101BC0002E3001F1F80182818F9381818F93822FD2
:101BD000992787FD90959F932F9386E591E09F939A
:101BE0008F93CE0101967C01FF928F930E940B2769
:101BF000B7018AEC94E00E94BF1E0FB6F894DEBFD6
:101C00000FBECDBFC8010E94CD0C63960FB6F894ED
:101C1000DEBF0FBECDBFDF91CF911F910F91FF901F
:101C2000EF900895CF93DF9300D0CDB7DEB723E2D6
:101C300029831A829C01215031092235310510F483
:101C40008093BD0421E0AE014F5F5F4F66E08AEBF9
:101C500094E00E9441198AEB94E00E94F1190F90E0
:101C60000F90DF91CF910895CF93DF9300D0CDB740
:101C7000DEB788E091E09093C0048093BF048AEBC4
:101C800094E00E9439186DE571E08AEB94E00E94BF
:101C9000701983E08093BE04BE016F5F7F4F8CE0BC
:101CA00090E00E94A50C89819A810E94120E0F90EB
:101CB0000F90DF91CF910895CF93DF9300D000D0A4
:101CC0001F92CDB7DEB725E0AE014F5F5F4F60E1F9
:101CD0008AEB94E00E94CA1845E050E060E471E0AD
:101CE000CE0101960E94FE2621E0892B09F020E01A
:101CF000822F0F900F900F900F900F90DF91CF9148
:101D00000895CF93DF93FB01EE0FFF1FE80FF91F3C
:101D10007695762F662777956795EA5FFE4F208147
:101D20003181260F371F2E573F4F280F391F6E570F
:101D30007F4F680F791FDA018C918823C1F0808171
:101D40009181813891052CF4019691838083D9018A
:101D500005C011821082DB0143E651E09D012F5F37
:101D60003F4FEA0188818C934F5F5F4FE4CFDF9153
:101D7000CF9108950F931F93CF93DF93EC018B01C5
:101D80000E94810E45EB51E0B801CE01DF91CF9169
:101D90001F910F910C94810EEF92FF920F931F935E
:101DA000CF93DF93EC018B01DB01AA0FBB1FA80FC0
:101DB000B91F7D018AEFE81A8EEFF80AD7018D91DD
:101DC0009C91B901680F791F613871053CF043E6B9
:101DD00051E0B801CE010E94810E1FC0F801F695B6
:101DE000FE2FEE27F795E795E80FF91FEE57FF4F07
:101DF000EC0FFD1FCA01BC01641B750B6217730752
:101E00002CF4DC016D91CD016193F5CFF701808158
:101E10009181820F931F9183808345EB51E0B8013C
:101E2000CE01DF91CF911F910F91FF90EF900C9415
:101E3000810E462F50E060E0FC01808191810E947C
:101E4000850D08950F931F93CF93DF9300D01F92BA
:101E5000CDB7DEB78C019E012F5F3F4F3F932F938D
:101E60002AE631E03F932F936E5F7F4F7F936F930E
:101E70004B830E942D2759816A814B81F801808113
:101E800091810E94850D0F900F900F900F900F90F1
:101E90000F900F900F900F90DF91CF911F910F91A6
:101EA0000895EF92FF920F931F93CF93DF93CDB7D7
:101EB000DEB762970FB6F894DEBF0FBECDBF7C01D0
:101EC0003F932F93842F992787FD90959F934F934E
:101ED00028E231E03F932F938E010F5F1F4F1F9336
:101EE0000F93698B7A8B0E940B27A80169897A89E5
:101EF000C7010E94BA0E0FB6F894DEBF0FBECDBF69
:101F000062960FB6F894DEBF0FBECDBFDF91CF91C2
:101F10001F910F91FF90EF900895CF92DF92EF9273
:101F2000FF920F931F93CF93DF93CDB7DEB76097E8
:101F30000FB6F894DEBF0FBECDBF8C017B019B01B5
:101F40003695322F222737952795B9016E5F7F4F3F
:101F5000680F791FFC01E20FF31F2281233609F479
:101F600088C0C4F42E3409F4B3C05CF4223409F4FC
:101F7000AFC02D3409F4AAC0213409F0AEC040E14D
:101F8000A8C0213609F499C00CF09BC0243509F48F
:101F90004AC0A3C0223709F468C054F42D3609F4AE
:101FA0008AC02E3609F48BC0253609F096C00CC0C5
:101FB000243709F46DC00CF47CC02637B9F02737FC
:101FC00009F08BC067E07EC0433051052CF44DE62C
:101FD00051E060E070E084C09A0122503109AB0109
:101FE0004E5F5F4FB7010E94CC0E7DC01F921F92C3
:101FF0001F9282E08F931F922F938DE491E09F9325
:102000008F93CE0101966C01DF928F930E940B2774
:10201000A601B701C8010E94BA0E0FB6F894DEBF40
:102020000FBECDBF60C09E012F5F3F4F3F932F93E8
:1020300023E531E03F932F93CB0102969F938F933B
:102040000E942D2761E070E089819A81892B11F42B
:1020500060E070E08EE190E00E94920C0F900F9093
:102060000F900F900F900F903EC020E030E042E7BD
:102070000AC0BE016F5F7F4F8CE090E00E94A50C0C
:1020800029813A8143E6B701C8010E94510F2BC054
:10209000BE016F5F7F4F8EE190E00E94A50C8981A9
:1020A0009A8121E030E0892B11F420E030E044E710
:1020B000EACF68E007C069E005C06AE003C06BE0F2
:1020C00001C06CE0C8010E94190F0DC04FE001C0B3
:1020D00042E1C8010E94220F06C044E751E0B70167
:1020E000C8010E94BA0E60960FB6F894DEBF0FBE0C
:1020F000CDBFDF91CF911F910F91FF90EF90DF90B7
:10210000CF9008950F931F93CF93DF93EC018B0132
:10211000FB01F695FE2FEE27F795E795E20FF31FEB
:10212000E80FF91F4A3091F41282A9010E948D0F25
:10213000B801660F771F6C0F7D1FFB01EE5FFE4F2E
:102140001182108232961182108201C04283DF9187
:10215000CF911F910F910895AC019B01220F331F66
:10216000280F391FF901EA5FFE4F2081318111826A
:102170001082FB01F695FE2FEE27F795E795EE57B7
:10218000FF4FBA016E0F7F1FC90108950F931F9370
:10219000CF93DF93EB01CC0FDD1FC80FD91F8E014A
:1021A0000E5F1E4FD8012D913C911197F901319688
:1021B000ED93FC932038310534F4DF91CF911F91DA
:1021C0000F910C9482104BE751E060E070E00E94A8
:1021D000BA0EF80111821082CC5FDE4F198218828C
:1021E000DF91CF911F910F9108950C94BA0E86E75D
:1021F00094E0089580EB93E0089588EA92E00895D2
:1022000081E0089526E831E0FC01318320830895C0
:1022100026E831E0FC01318320830C941123CF9216
:10222000DF92EF92FF920F931F93CF93DF93CDB77F
:10223000DEB72C970FB6F894DEBF0FBECDBF8C0172
:102240006B01DC011296ED90FC90139714968D9122
:102250009C911597892B29F0B0E0EB16B1E1FB06B4
:1022600031F061E970E085E891E00E94A60BD801A9
:102270001496ED91FC911597B601C801099582302D
:1022800031F064E970E085E891E00E94A60BD80186
:102290001496ED91FC911597FA83E9836AE871E051
:1022A000C8010995D12CD8011496ED91FC91159790
:1022B000EE15FF0589F0D394AD2DAA0FBB0B81E07D
:1022C00090E08C0F9D1FA80FB91FED93FC936AE857
:1022D00071E0C8010995E7CF89819A8115969C9391
:1022E0008E931497B5E0BD1534F46AEA70E085E882
:1022F00091E00E94A60BED2DEE0FFF0B81E090E028
:102300008C0F9D1FE80FF91F0190F081E02D6EE802
:1023100071E0C8010995DA94D7FEEDCFE980FA8023
:1023200066E971E0C801F7010995823009F4AFCF81
:10233000D8011396FC92EE9212971596FC92EE92AB
:1023400014972C960FB6F894DEBF0FBECDBFDF9169
:10235000CF911F910F91FF90EF90DF90CF90089554
:102360006F927F928F929F92AF92BF92CF92DF92A5
:10237000EF92FF920F931F93CF93DF93CDB7DEB70A
:102380002C970FB6F894DEBF0FBECDBF8C016B014A
:10239000DC011296ED90FC90139714968D919C9110
:1023A0001597E816F90631F069EC70E085E891E0E0
:1023B0000E94A60BF801A480B580B601C801F50102
:1023C0000995843029F46AE871E0C801F50109959E
:1023D000833081F3823009F033C1D80114968D9097
:1023E0009C9015979A828982FC82EB82EA14FB0406
:1023F00091F062E971E0C801F7010995811105C00A
:102400006AE871E0C801F7010995D8011496ED90CA
:10241000FC901597EBCFE814F904D1F06AE871E06D
:10242000C801F4010995D80114966D907C90159718
:10243000E614F70491F06AE871E0C801F701099524
:10244000D8011496CD90DC901597C614D70439F4B2
:1024500062E971E0C801F7010995F12C86C0C81442
:10246000D90441F462E971E0C801F7010995FF243C
:10247000FA947BC07C826B826AE871E0C801F30148
:102480000995FF24F394833039F5EE24E394EF0C9F
:10249000D8011496ED91FC911597AE2DAA0FBB0BA8
:1024A00081E090E08C0F9D1FA80FB91FED93FC9366
:1024B000EA15FB0559F495E09E150CF056C065E24F
:1024C00071E085E891E00E94A60B4FC06AE871E0D8
:1024D000C8010995FE2CD7CF80E0811146C0A5E048
:1024E000AF1534F460E371E085E891E00E94A60B3B
:1024F00062E971E0C801F50109952F2DE22FEE0F79
:10250000FF0B81E090E08C0F9D1FE80FF91F808189
:1025100091812150C816D90619F127FFEFCF62E942
:1025200071E0C801F6010995811105C06AE871E002
:10253000C801F6010995D8011496CD90DC90159745
:102540002F2DE22FEE0FFF0B81E090E08C0F9D1FEF
:10255000E80FF91F808191812150C816D90611F426
:10256000F22E03C027FFEDCFDACFF7FC12C0EF2D1C
:10257000EE0FFF0BA1E0B0E0AC0FBD1FEA0FFB1F99
:102580000190F081E02D6EE871E0C8010995FA94A0
:10259000ECCFE980FA80F801F582E48266E971E027
:1025A000C801F7010995823009F04AC0D801149694
:1025B000ED91FC911597FA83E9836AE871E0C8010F
:1025C0000995D12CD8011496ED91FC911597EE1533
:1025D000FF0589F0D394AD2DAA0FBB0B81E090E0ED
:1025E0008C0F9D1FA80FB91FED93FC936AE871E053
:1025F000C8010995E7CF89819A8115969C938E939E
:102600001497B5E0BD1534F467E871E085E891E012
:102610000E94A60BED2DEE0FFF0B81E090E08C0FDA
:102620009D1FE80FF91F0190F081E02D6EE871E029
:10263000C8010995DA94D7FEEDCFE980FA80AECFD4
:10264000D8011396FC92EE9212971596FC92EE9298
:1026500014972C960FB6F894DEBF0FBECDBFDF9156
:10266000CF911F910F91FF90EF90DF90CF90BF908F
:10267000AF909F908F907F906F900895FF920F93EF
:102680001F93CF93DF93EC018B01FFB6F894FB010E
:102690008281882319F083818F5F83838E819F815C
:1026A000892B69F41F830E83EF85F0E0E65FFD4F11
:1026B000E491809179048E2B8093790423C08D85D9
:1026C000811106C061EB72E085E891E00E94A60BE3
:1026D0008B8528859985E22FF92FE80FF11DE80FEA
:1026E000F11D118300838B85811102C08A858B8740
:1026F0008B8581508B878D8581508D879E8589172D
:1027000008F48E87FFBEDF91CF911F910F91FF904C
:1027100008951F93CF93DF93EC011FB7F8948E8138
:102720009F81892B31F460ED72E085E891E00E9491
:10273000A60B8E819F815D856A855617B1F04C8509
:1027400038852985E32FF22FE40FF11DE40FF11DE9
:10275000208131813F832E83411101C06C872C85FC
:1027600021502C875F5F5D870CC01F821E82EF8522
:10277000F0E0E753FE4FE491209179042E2320935B
:1027800079041FBFDF91CF911F9108950F931F937D
:10279000CF93DF93EB01FC014785042F10E06430F9
:1027A0007105A4F020917C0430917D0462177307B9
:1027B0006CF44150483050F4D801AA0FBB1FA15609
:1027C000BB4F2D913C912817390731F065E473E038
:1027D00085E891E00E94A60BF801E857FE4F84912E
:1027E0009FB7F894F801E65FFD4F0491A0917E0435
:1027F000B0917F04AC0FBD1FA80FB11D8C91802B31
:102800008C939FBFDF91CF911F910F9108950F93EC
:102810001F93CF93DF93EC010F858FEF800F10E0B4
:10282000883048F4D801AA0FBB1FA156BB4F8D9129
:102830009C91892B31F063E674E085E891E00E9479
:10284000A60B8FB7F894F801EE0FFF1FE156FB4F70
:10285000D183C0838FBFDF91CF911F910F910895D6
:1028600090937F0480937E0450937D0440937C0476
:102870000895FF920F931F93CF93DF93FFB6F894C1
:10288000C0917A04D0917B0400E010E0209709F415
:102890004DC088859985009769F480917A0490915C
:1028A0007B04C817D90721F10115110589F568E3E3
:1028B00076E02AC0019799878887892B91F58A85C8
:1028C0009B85009711F099878887FFBEBE018E8196
:1028D0009F810E943E13FFB6F89488859985892BC5
:1028E00001F580917A0490917B04C817D90739F4D7
:1028F0008C819D8190937B0480937A040EC0011596
:10290000110531F46BE576E085E891E00E94A60BB5
:102910008C819D81F801958384838B8181508B8389
:1029200001C08E010C80DD81C02DB0CFFFBEDF91D4
:10293000CF911F910F91FF900895FF920F931F93D6
:10294000CF93DF93EC01FFB6F8940C811D81011544
:102950001105A9F0F801808191819D838C83888580
:10296000811106C06CE776E085E891E00E94A60B35
:102970008885815088879985891708F48987FFBEE3
:10298000C801DF91CF911F910F91FF900895EF92B1
:10299000FF920F931F93CF93DF93D82F8B01C0E04B
:1029A000FAE0EF2EEC9EF0011124EF57FB4F8681E9
:1029B000FF24F394FC0E8D1760F4CF2D80918004DA
:1029C000F81680F36DE275E085E891E00E94A60BB1
:1029D000E9CFCF010E949D14EC01009731F469E327
:1029E00075E085E891E00E94A60B19830883FA82BE
:1029F0001B82CE01DF91CF911F910F91FF90EF903D
:102A000008958F929F92AF92BF92CF92DF92EF92F2
:102A1000FF920F93CF93DF9300D000D0CDB7DEB7F6
:102A20006C017B016115710529F0223031054105EA
:102A3000510570F46AEA76E085E891E029833A83EB
:102A40004B835C830E94A60B5C814B813A81298178
:102A5000D6011596FC92EE92149782E016968C930E
:102A6000812C912C54018394D60116968C91801759
:102A700048F48E5FF6018683FFEF8F1A9F0AAF0A34
:102A8000BF0AF2CF90E0A0E0B0E0281739074A076C
:102A90005B0770F467EB76E085E891E029833A8381
:102AA0004B835C830E94A60B5C814B813A81298118
:102AB000F6018681BA01A901481B51096109710912
:102AC00081E087830480F581E02D880C991CD60174
:102AD00016968C9190E0A0E0B0E0481759076A077D
:102AE0007B07B0F0E80DF91DDF01A819B909ED93D6
:102AF000FC93D60116968C911697481B51096109D3
:102B0000710917968C9117978F5F17968C93DFCF6B
:102B100011821082D60117968C91179718968C9374
:102B2000189719968C9319971196FC92EE9213961A
:102B3000FC93EE9312970F900F900F900F90DF91F0
:102B4000CF910F91FF90EF90DF90CF90BF90AF901B
:102B50009F908F9008958F929F92AF92BF92CF9245
:102B6000DF92EF92FF920F931F93CF93DF93EC01CD
:102B70004A015B016801790180918004833030F063
:102B800063E575E085E891E00E94A60B80918004E2
:102B90008823C9F090E001972AE0289FF001299F3F
:102BA000F00D1124EF57FB4F868190E0A0E0B0E0DC
:102BB0008C159D05AE05BF0530F067E575E085E82D
:102BC00091E00E94A60B809180042AE0829FC001C0
:102BD00011240C2DA5019401BE018F579B4F0E941B
:102BE0000115809180048F5F80938004DF91CF91E5
:102BF0001F910F91FF90EF90DF90CF90BF90AF901B
:102C00009F908F9008950F931F93CF93DF93EC01C4
:102C10008B0198858F81981730F065EE76E085E816
:102C200091E00E94A60B888199810817190728F066
:102C30008A819B818017910730F466EE76E085E803
:102C400091E00E94A60B2FB7F8948C819D81F8012A
:102C5000918380831D830C8388858F5F88872FBF36
:102C6000DF91CF911F910F9108951F93CF93DF9321
:102C7000EC018A81882311F18FB7F8949B819230FF
:102C800020F091509B838FBF19C01A8111508FBFC4
:102C900080918004181730F06DEA74E085E891E0C7
:102CA0000E94A60B2AE0129FC0011124BE018F577B
:102CB0009B4FDF91CF911F910C940316DF91CF9121
:102CC0001F910895FF920F931F93CF93DF93EC0111
:102CD0002881398180917C0490917D0428173907DF
:102CE00034F06DE775E085E891E00E94A60B9FB790
:102CF000F8948A81882319F08B818F5F8B839FBF23
:102D0000E0917E04F0917F0488819981E80FF91F9A
:102D1000F080FF2019F1EF2DF0E0E55BFD4F04910D
:102D200010E0F801E753FE4FE491FE22000F111F5F
:102D3000F801E156FB4F80819181892B31F464E9E0
:102D400075E085E891E00E94A60BF801E156FB4F83
:102D5000BE01808191810E943E13DBCFCE01DF91C5
:102D6000CF911F910F91FF900C943516EF92FF9227
:102D70000F931F93CF93DF93EC018B017A014115E1
:102D8000510559F06115710541F088859985892BA8
:102D900021F488819981049734F46DE077E085E827
:102DA00091E00E94A60B2FB7F894F986E8861F835E
:102DB0000E838B8181110CC080917A0490917B04E9
:102DC0009D838C83D0937B04C0937A0481E08B83B2
:102DD0002FBFDF91CF911F910F91FF90EF9008953A
:102DE0000F931F93CF93DF93EC018B011D821C8205
:102DF0001F821E82198618861B861A86643071050A
:102E000034F465E377E085E891E00E94A60B19832E
:102E100008831A821B82DF91CF911F910F91089531
:102E20002FB7F894FC01808591852FBF08954FB787
:102E3000F894FC0120853185232B21F01186108622
:102E400081E001C080E04FBF089508950E94310BDA
:102E5000F894E0917904EE23D9F0F0E0E55BFD4FC2
:102E6000E491AE2FB0E0AA0FBB1FA156BB4F0D914E
:102E70001C91E09378047894C8010E948913EC01B6
:102E8000BC01C8010E94B011CE010E943516E0CFEE
:102E90000E94420BDDCF8F929F92AF92BF92CF9252
:102EA000DF92EF92FF920F931F93CF93DF93CDB7F3
:102EB000DEB76C01162F5A018FEF860F883010F4A1
:102EC000EF2831F062E179E085E891E00E94A60BFD
:102ED000F60117821682B186A086028713861486B1
:102EE000058706871787C6010E940714B401C6012B
:102EF000DF91CF911F910F91FF90EF90DF90CF90D6
:102F0000BF90AF909F908F900C940F110C94261748
:102F1000CF93CFB7F8948091B904811127C0E6EA26
:102F2000F3E08491E7E8F3E09491E82FF0E0EE0F0E
:102F3000FF1FE053FC4FA591B4918C91892321F49C
:102F400061E081E10E946B1D61E081E10E94321D20
:102F50008CB580618CBD8CB580648CBD61E08FE0E8
:102F60000E94321D61E080E10E94321D8091B9040F
:102F70008F5F8093B904CFBFCF910895FC0188E0A3
:102F8000818387E0828381E0838380E1848316826A
:102F900015820895AF92BF92DF92EF92FF920F9346
:102FA0001F93CF93DF931F92CDB7DEB77C01D62E50
:102FB0008A015B018A2D8D198217A8F4D701159615
:102FC0008D919C911697F50161915F01DC01ED9166
:102FD000FC910190F081E02D29830995F8018193FE
:102FE0008F012981E7CF0F90DF91CF911F910F9132
:102FF000FF90EF90DF90BF90AF900895CF92DF9257
:10300000FF920F931F93CF93DF931F92CDB7DEB73D
:103010008C01F62E6B018C2D8F19841790F4D8013A
:1030200015968D919C911697F60161916F01DC01C7
:10303000ED91FC910190F081E02D49830995498142
:10304000EACF0F90DF91CF911F910F91FF90DF900A
:10305000CF90089561E0FC0181810C946B1D60E0CC
:10306000FC0181810C946B1D61E0FC0182810C9458
:103070006B1DCF93DF93EC0161E089810E94321DCB
:1030800061E08A810E94321DCE010E942F18CE017C
:103090000E9434188D819E81DC01ED91FC910280AB
:1030A000F381E02DDF91CF91099460E0FC018281F2
:1030B0000C946B1D0F931F93CF93DF9300D0CDB76C
:1030C000DEB78C014A8369830E945518D801159692
:1030D0008D919C911697DC01ED91FC9169816F7146
:1030E00060620190F081E02D0995F801858196815B
:1030F000DC01ED91FC910190F081E02D4A81642F7B
:103100000995C8010F900F90DF91CF911F910F91FA
:103110000C943418CF93DF93EC0118820E942F187F
:103120004BE060E0CE010E945A18CE010E942A189E
:1031300040E367E0CE01DF91CF910C945A1821E073
:10314000FC0120834AE060E00C945A180F931F930F
:10315000CF93DF93EC018B010E9455188D819E81E6
:10316000DC01ED91FC910190F081E02D61E6099583
:103170002C81A801B801CE010E94CA17CE010E947D
:10318000341840E467E0CE01DF91CF911F910F9199
:103190000C945A18EF92FF920F931F93CF93DF93E3
:1031A00000D0CDB7DEB77C018A012A8369830E94F3
:1031B0005518D70115968D919C911697DC01ED91CC
:1031C000FC9169816F710190F081E02D09952A8150
:1031D000A801B801C7010E94CA17C7010F900F903C
:1031E000DF91CF911F910F91FF90EF900C943418C5
:1031F000CF93DF931F92CDB7DEB721E0AE014F5FD3
:103200005F4F67E10E94CA18898181700F90DF913A
:10321000CF910895CF93DF931F92CDB7DEB721E012
:10322000AE014F5F5F4F67E00E94CA1889810F901F
:10323000DF91CF910895CF93DF93EC010E940A199B
:1032400086FD06C0CE010E94F81891E0982701C0C3
:1032500091E0892FDF91CF910895CF93DF93EC0117
:103260008881882341F0CE010E940A19807329F0D9
:10327000CE010E948A1880E001C081E0DF91CF91E9
:103280000895EF92FF920F931F93CF93DF9300D097
:10329000CDB7DEB77C018A012A8369830E94551865
:1032A000D70115968D919C911697DC01ED91FC91BB
:1032B00069816F7160620190F081E02D09952A812A
:1032C000422FB801C7010E94FE17C7010F900F904F
:1032D000DF91CF911F910F91FF90EF900C943418D4
:1032E0000F931F93CF93DF93EC018B010E942F1854
:1032F00025E0A8016BE0CE010E944119CE01DF91CB
:10330000CF911F910F910C942A180F931F93CF9375
:10331000DF93EC018B0125E0AB016AE00E944119CB
:1033200025E0A80160E1CE01DF91CF911F910F91BF
:103330000C9441190F931F93CF93DF93EC018B01F2
:103340000E940A198881882331F0CE010E940A194F
:103350008073C1F31882CE010E942F18CE010E9403
:103360009F18CE010E9455188D819E81DC01ED9140
:10337000FC910190F081E02D61EE0995CE010E9453
:103380003418CE010E9455188D819E81DC01ED918B
:10339000FC910190F081E02D60EA09954C81B80123
:1033A000CE010E94FE17CE010E943418CE01DF919B
:1033B000CF911F910F910C942A18CF93DF93EC01BA
:1033C0000E9455188D819E81DC01ED91FC91019048
:1033D000F081E02D62EE0995CE01DF91CF910C9442
:1033E0003418CF93DF93EC014B8165E00E945A18AB
:1033F0004C8161E1CE010E945A184C8162E1CE01FC
:103400000E945A18CE010E948A18CE01DF91CF91F6
:103410000C94DD198AEB94E00C94BE176EBD00008D
:103420000DB407FEFDCF8EB5089508950E9488174C
:103430008CB5837F8CBD8CB58C7F81608CBD8DB548
:103440008E7F8DBD08950895853008F04CC0E82F1B
:10345000F0E0EE0FFF1FE65FFE4F71836083823066
:10346000E1F018F4813069F004C0833019F1843040
:1034700071F1809169008C7F842B80936900E89AB8
:10348000089580916900440F551F440F551F837F95
:10349000842B80936900E99A08958091690034E053
:1034A000440F551F3A95E1F78F7C842B8093690078
:1034B000EA9A08958091690026E0440F551F2A95E5
:1034C000E1F78F73842B80936900EB9A08958091C4
:1034D0006A0094E0440F551F9A95E1F78F7C842B86
:1034E00080936A00EE9A08951F920F920FB60F9282
:1034F00011242F933F934F935F936F937F938F93F9
:103500009F93AF93BF93EF93FF93E0910A01F091E4
:103510000B010995FF91EF91BF91AF919F918F9111
:103520007F916F915F914F913F912F910F900FBEBF
:103530000F901F9018951F920F920FB60F921124A3
:103540002F933F934F935F936F937F938F939F93AB
:10355000AF93BF93EF93FF93E0910C01F0910D01B6
:103560000995FF91EF91BF91AF919F918F917F91BD
:103570006F915F914F913F912F910F900FBE0F90E0
:103580001F9018951F920F920FB60F9211242F9330
:103590003F934F935F936F937F938F939F93AF93DB
:1035A000BF93EF93FF93E0910E01F0910F01099506
:1035B000FF91EF91BF91AF919F918F917F916F910B
:1035C0005F914F913F912F910F900FBE0F901F90E1
:1035D00018951F920F920FB60F9211242F933F93BD
:1035E0004F935F936F937F938F939F93AF93BF930B
:1035F000EF93FF93E0911001F09111010995FF9174
:10360000EF91BF91AF919F918F917F916F915F915A
:103610004F913F912F910F900FBE0F901F901895D3
:103620001F920F920FB60F9211242F933F934F9337
:103630005F936F937F938F939F93AF93BF93EF931A
:10364000FF93E0911201F09113010995FF91EF9121
:10365000BF91AF919F918F917F916F915F914F91AA
:103660003F912F910F900FBE0F901F9018951F92B2
:103670000F920FB60F9211242F933F938F939F9326
:10368000AF93BF938091C2049091C304A091C404EE
:10369000B091C5043091C10423E0230F2D3720F4ED
:1036A0000196A11DB11D05C026E8230F0296A11D9C
:1036B000B11D2093C1048093C2049093C304A093CE
:1036C000C404B093C5048091C6049091C704A0912E
:1036D000C804B091C9040196A11DB11D8093C60410
:1036E0009093C704A093C804B093C904BF91AF914D
:1036F0009F918F913F912F910F900FBE0F901F9030
:1037000018953FB7F8948091C6049091C704A09192
:10371000C804B091C90426B5A89B05C02F3F19F075
:103720000196A11DB11D3FBF6627782F892F9A2FC3
:10373000620F711D811D911D42E0660F771F881F6A
:10374000991F4A95D1F70895CF92DF92EF92FF9299
:10375000CF93DF936B017C010E94811BEB01C114AD
:10376000D104E104F10489F00E9413230E94811B1B
:103770006C1B7D0B683E734090F381E0C81AD10842
:10378000E108F108C851DC4FEACFDF91CF91FF90FB
:10379000EF90DF90CF9008958230910538F0880F38
:1037A000991F880F991F05970197F1F7089578944D
:1037B00084B5826084BD84B5816084BD85B5826036
:1037C00085BD85B5816085BDEEE6F0E080818160D4
:1037D0008083E1E8F0E010828081826080838081D4
:1037E00081608083E0E8F0E0808181608083E1E9AE
:1037F000F0E0808182608083808181608083E0E965
:10380000F0E0808181608083E1ECF0E08081846081
:103810008083808182608083808181608083E3EC0B
:10382000F0E0808181608083E0ECF0E08081826064
:103830008083E2ECF0E0808181608083EAE7F0E061
:1038400080818460808380818260808380818160C8
:1038500080838081806880830895823108F082515E
:10386000E82FF0E0E55BFC4FE49180917B00E3FB07
:10387000222720F930E095E0220F331F9A95E1F7D7
:103880008F7D822B80937B00E7708091140120E470
:10389000829FC0011124E82BE0937C0080917A0084
:1038A000806480937A0080917A0086FDFCCF8091BD
:1038B00078002091790090E0922B08951F93CF9388
:1038C000DF93182FEB0161E00E94321D209711F465
:1038D00060E004C0CF3FD10539F461E0812FDF9172
:1038E000CF911F910C946B1DE12FF0E0E95AFC4F32
:1038F000449150E0FA013197EF30F10508F06CC0C7
:10390000EE58FF4F0C949B2584B5806884BDC7BDDD
:1039100068C084B5806284BDC8BD63C080918000EA
:10392000806880938000D0938900C093880059C03C
:1039300080918000806280938000D0938B00C09340
:103940008A004FC080918000886080938000D0936F
:103950008D00C0938C0045C080919000806880935A
:103960009000D0939900C09398003BC08091900044
:10397000806280939000D0939B00C0939A0031C0E6
:1039800080919000886080939000D0939D00C093B8
:103990009C0027C08091C00080688093C000809107
:1039A000C0008F7B8093C000C093CF001AC080916D
:1039B000C00080628093C000C093D00012C080918C
:1039C000C20088608093C2008091C2008B7F809388
:1039D000C200C093D20005C0C038D1050CF07DCF25
:1039E00077CFDF91CF911F91089590E0FC0131973F
:1039F000EF30F105B0F5EF57FF4F0C949B25809108
:103A000080008F7703C0809180008F7D809380003D
:103A1000089580918000877FF9CF84B58F7702C0A9
:103A200084B58F7D84BD0895809190008F7707C005
:103A3000809190008F7D03C080919000877F80935C
:103A4000900008958091C0008F7703C08091C000DE
:103A50008F7D8093C00008958091C200877F8093FE
:103A6000C2000895CF93DF9390E0FC01EA58FC4F29
:103A70002491FC01EB56FC4F8491882349F190E09E
:103A8000880F991FFC01E053FC4FA591B4918E5310
:103A90009C4FFC01C591D4919FB7611108C0F89467
:103AA0008C91209582238C93888182230AC0623076
:103AB00051F4F8948C91322F309583238C93888124
:103AC000822B888304C0F8948C91822B8C939FBFA7
:103AD000DF91CF9108950F931F93CF93DF931F92A0
:103AE000CDB7DEB7282F30E0F901E95AFC4F8491B9
:103AF000F901EA58FC4F1491F901EB56FC4F04917F
:103B00000023C9F0882321F069830E94F51C698194
:103B1000E02FF0E0EE0FFF1FEE53FC4FA591B491A4
:103B20009FB7F8948C91611103C01095812301C057
:103B3000812B8C939FBF0F90DF91CF911F910F919D
:103B40000895CF93DF931F92CDB7DEB76983DC0171
:103B5000ED91FC910280F381E02D41E050E0BE0147
:103B60006F5F7F4F09950F90DF91CF910895CF93AD
:103B7000DF93EC018C859D8597FF05C082E00E9454
:103B8000E21F9D878C878C859D85DF91CF9108955D
:103B900083E00C945D22FC018485958597FD06C029
:103BA00082E00E948A1F90E00196089582E00E94C0
:103BB0008A1F90E00895FC018485958597FD05C0D6
:103BC0002FEF3FEF35872487089582E00C94E21FA2
:103BD000CF93DF93EC0180912001882331F083E0C3
:103BE0000E9413201816190634F081E090E09B83A0
:103BF0008A8380E090E0DF91CF910895FC012081DD
:103C00002E5F208342E450E06EED73E080E80C9478
:103C1000AE20FC0121818081813A59F4213209F0E2
:103C20005CC047E050E069E171E080E00E94AE20B6
:103C300067C0813209F051C0233289F4838190E05A
:103C4000982F88273281832BA0E0B0E08093150164
:103C500090931601A0931701B09318010FC0203262
:103C600039F467E070E089E191E00E94DF200AC04A
:103C7000223221F482818093200104C02D7F2032E2
:103C800009F03EC08091190190911A01A0911B0189
:103C9000B0911C01803B9440A105B10501F58091D4
:103CA000200180FD1CC08091000890910108909334
:103CB000FF0A8093FE0A87E797E7909301088093B5
:103CC00000082BE088E190E00FB6F894A895809367
:103CD00060000FBE2093600013C080E0089588E16B
:103CE0000FB6F89480936000109260000FBEA89504
:103CF0008091FE0A9091FF0A90930108809300083A
:103D000081E008952FEF3FEFFC0135872487089568
:103D10001092CD041092CC0488EE93E0A0E0B0E0C5
:103D20008093CE049093CF04A093D004B093D10499
:103D300088EA91E09093CB048093CA048FEF9FEFC1
:103D40009093D7048093D60408956115710581F08E
:103D5000DB010D900020E9F7AD0141505109461BF0
:103D6000570BDC01ED91FC910280F381E02D099469
:103D700080E090E0089564EB71E00C94A51E0F9331
:103D80001F93CF93DF93EC010E94A51E8C01CE01FF
:103D90000E94BB1E800F911FDF91CF911F910F9149
:103DA0000895615030F02091F100FC0120830196CC
:103DB000F8CF289884E680932305089540911E0546
:103DC00050911F0520911C0530911D054217530786
:103DD000B4F49091E8009570E1F39091E80092FDC1
:103DE00019C08093F10080911E0590911F050196E6
:103DF0008F739927892B19F48EEF8093E8008091B7
:103E00001E0590911F05019690931F0580931E0536
:103E100081E0089580E00895CF92DF92EF92FF92C3
:103E20000F931F93CF93DF931F92CDB7DEB7082F69
:103E3000162FF42E862F880F8E5F99830E94DE1E28
:103E400083E00E94DE1EE02EC02E9981D92E8C2D9B
:103E50008E19811798F4F601F7FE02C0849101C013
:103E600080810E94DE1E082F80E00E94DE1E8023DB
:103E7000FFEFCF1ADF0A8111EACF01C081E00F9076
:103E8000DF91CF911F910F91FF90EF90DF90CF9036
:103E900008958091D70081608093D70080EA809355
:103EA000D80089B5806189BD89B5826089BD09B4B2
:103EB00000FEFDCF61E070E080E090E00E94A41B76
:103EC0008091D8008F7C80618093D8008091E00041
:103ED000807F8093E0000895CF93DF931F92CDB74A
:103EE000DEB71982CE0101960E94FE1D0E949B231F
:103EF000BE016F5F7F4F0E94142389810F90DF9175
:103F0000CF9108952FB7FC012083F89467706093D8
:103F1000E9000895CF93DF931F92CDB7DEB7682FE6
:103F2000CE0101960E94821F8091F20099819FBF6D
:103F30000F90DF91CF910895FF920F931F93CF932E
:103F4000DF9300D0CDB7DEB7F62E8A01909122051F
:103F5000992311F057FF03C08FEF9FEF2BC0682FFD
:103F6000CE0101967A830E94821F8091F20090E038
:103F7000A8017A81801791070CF4AC01EF2DF72F7F
:103F8000F40E84E6FE1639F028988093230590916C
:103F9000F1009193F7CF4115510521F08091F20086
:103FA000882321F089818FBFCA0104C08BE68093EA
:103FB000E800F8CF0F900F90DF91CF911F910F91F4
:103FC000FF900895CF93DF931F92CDB7DEB741E006
:103FD00050E0BE016F5F7F4F0E949C1F019719F454
:103FE000898190E002C08FEF9FEF0F90DF91CF911A
:103FF0000895CF93DF931F92CDB7DEB7682FCE0120
:1040000001960E94821F9091E800892F807295FF8F
:1040100004C09091F20080E4891B99819FBF0F90AA
:10402000DF91CF9108956F927F928F929F92AF927E
:10403000BF92CF92DF92EF92FF920F931F93CF9395
:10404000DF931F92CDB7DEB7782E7B01C42EB52E3D
:1040500080912205882369F0042F152F8AEFD82E2E
:10406000872D8072982E9AE3A92E872D8074882E32
:1040700011C08FEF9FEF57C0872D0E94F91F682E48
:1040800081110CC0DA94A9F361E070E080E090E067
:104090000E94A41B0115110579F73BC0282F30E0C1
:1040A000021713070CF4602E672DCE0101960E94B3
:1040B000821F8091E80085FF29C0262D30E0021B79
:1040C000130B992039F06A948FEF6816B1F01092B3
:1040D000F100F9CFF701862D77FE07C0815058F027
:1040E00094919093F1003196F9CF815020F0919105
:1040F0009093F100FACFE20EF31E8091E80085FF65
:104100000FC00115110511F481100AC089818FBFFC
:10411000C1CF5D9884E6809324058C2D9B2D03C030
:10412000A092E800F3CF0F90DF91CF911F910F91F4
:10413000FF90EF90DF90CF90BF90AF909F908F90C7
:104140007F906F9008951092E90010921F051092D1
:104150001E0590931D0580931C050895CF92DF9254
:10416000FF920F931F93CF93DF9300D0CDB7DEB7AD
:10417000F82E8A016B0101151105B1F0F601F7FE69
:1041800002C0849101C0808149835A830E94DE1E4F
:1041900001501109FFEFCF1ADF0A49815A818111BD
:1041A000EACF8FEF9FEF01C0CA010F900F90DF9110
:1041B000CF911F910F91FF90DF90CF9008951F93A3
:1041C000CF93DF931F92CDB7DEB7162F2091E80073
:1041D00022FFFCCF612F79830E94D11E8BEF809349
:1041E000E800812F7981972F0F90DF91CF911F9158
:1041F00008951F920F920FB60F921124DF92EF9243
:10420000FF920F931F932F933F934F935F936F935F
:104210007F938F939F93AF93BF93EF93FF93CF932E
:10422000DF93CDB7DEB76C97DEBFCDBF1092E9004C
:104230008091E80083FF23C168E0CE0145960E948B
:10424000D11E82EF8093E8003D8937FF05C0809141
:10425000E80080FFFCCF03C08EEF8093E800832F3F
:10426000807609F0F0C02E894F89D88C21110CC0BE
:10427000303829F4809121058093F10002C010921A
:10428000F1001092F100F4C0842F90E09D292130BC
:1042900049F43111EDC0019709F0EAC08091210580
:1042A0008D7F0AC0233059F43111E2C0019709F023
:1042B000DFC080912105826080932105D9C025301F
:1042C00041F48091E80080FFFCCF40684093E30018
:1042D000CFC0263009F08DC0EB8CFC8C22E0D212CE
:1042E0002CC080E090E00E94A3200E946C1F99E007
:1042F0008E010F5F1F4FF801292F11922A95E9F7C0
:104300009983DA8291E09E8390EA98879AEF998761
:1043100020911E0530911F05275F3F4F3C832B8363
:104320008D83C7010E94A32049E050E0B80180E0DE
:104330000E94AE200E946C1F9BC0C7010E94A32058
:104340000E949B23BE016B5E7F4F0E943D2300971E
:1043500019F00CF08DC090C081E0D8120EC08B8D8A
:104360009C8D089719F481E080931B0580911B05B3
:1043700081112FC062E374E031C0E3E0DE127CC043
:104380008F89882349F1823029F440E860E180E593
:1043900094E01CC0813029F440E86BE084E494E0B0
:1043A00015C0833009F068C00E949B238E010F5F07
:1043B0001F4FB8010E945C23F80101900020E9F72B
:1043C0003197E01BF10B40E06E2FC8010E940C1FDB
:1043D0004DC060E274E002C061E674E061157105F1
:1043E00009F44AC0FB01449150E080E80E94AE20ED
:1043F0003FC0273009F440C0283021F481E0809389
:10440000F10036C02930A1F53370B1F5E2E2F1E0F8
:1044100081E021E036E39081992361F08093E90007
:104420002093EB0091919093EC003093ED008F5F1F
:10443000873089F78EE78093EA001092EA008F892F
:104440008093220515C08B8D9C8D0E94A320898DA1
:10445000811105C0CE0145960E94091E07C00E9429
:104460009B23BE016B5E7F4F0E947B23882321F03C
:104470008EEF8093E80003C081E28093EB006C969E
:104480000FB6F894DEBF0FBECDBFDF91CF91FF9185
:10449000EF91BF91AF919F918F917F916F915F91BC
:1044A0004F913F912F911F910F91FF90EF90DF90CF
:1044B0000F900FBE0F901F9018958093E900809188
:1044C000F200882319F08AE38093E80008951F9290
:1044D0000F920FB60F9211242F933F934F935F9338
:1044E0006F937F938F939F93AF93BF93CF93EF93EC
:1044F000FF93C091E1008091E100837F8093E10010
:104500008093E100C3FF0FC01092E90081E0809327
:10451000EB001092EC0082E38093ED0010922205F4
:1045200088E08093F000C2FF19C083E00E945D2202
:1045300080912405882339F080912405815080934F
:104540002405882389F180912305882339F08091FF
:104550002305815080932305882341F1C4FF10C0B7
:104560008091E2008E7E81608093E2008091E10084
:104570008F7E8093E100809120058E7E806111C046
:10458000C0FF16C08091E2008E7E80618093E200C1
:104590008091E1008E7E8093E100809120058E7EE7
:1045A00081608093200504C05D9ACDCF289AD6CF34
:1045B000FF91EF91CF91BF91AF919F918F917F919B
:1045C0006F915F914F913F912F910F900FBE0F9080
:1045D0001F90189510922205109221051092200527
:1045E0000E94491FE1EEF0E080818E7E80838DE0A5
:1045F0008093E200559A209A089508950E94D71B4F
:104600000E94FD228AE195E00E94EA220E94820334
:10461000C0E0D0E00E9486172097E1F30E940000DE
:10462000F9CF0C9467260895EF92FF920F931F9392
:10463000CF93DF937B01FC01C281D38100E010E0C6
:10464000209781F0E881F9810280F381E02DB701A4
:10465000CE01099597FD08C0080F191F0884D98558
:10466000C02DEECFC80102C08FEF9FEFDF91CF9139
:104670001F910F91FF90EF9008950F931F93CF9389
:10468000DF938B01FC01C281D381209771F0E88117
:10469000F9810480F581E02DB801CE0109950097DC
:1046A00031F40884D985C02DF0CF80E090E0DF910F
:1046B000CF911F910F9108950F931F93CF93DF9385
:1046C0008B01FC01C281D381209771F0E881F981CF
:1046D0000680F781E02DB801CE010995080F111D64
:1046E0000884D985C02DF0CFF8011082DF91CF91D9
:1046F0001F910F9108950F931F93CF93DF938B0119
:10470000FC01C281D381209771F0E881F981019089
:10471000F081E02DB801CE010995811106C0088411
:10472000D985C02DF0CF80E001C081E0DF91CF912D
:104730001F910F9108958091290581110DC082E08C
:104740008093250584E08093260510922805109219
:10475000270581E08093290585E295E0089550586A
:10476000BB27AA270ED0E5C0D6D030F0DBD020F092
:1047700031F49F3F11F41EF4CBC00EF4E095E7FB3B
:10478000C1C0E92FE7D080F3BA1762077307840727
:10479000950718F071F49EF5FFC00EF4E0950B2E0E
:1047A000BA2FA02D0B01B90190010C01CA01A00183
:1047B0001124FF27591B99F0593F50F4503E68F1DE
:1047C0001A16F040A22F232F342F4427585FF3CF1F
:1047D000469537952795A795F0405395C9F77EF4F0
:1047E0001F16BA0B620B730B840BBAF09150A1F039
:1047F000FF0FBB1F661F771F881FC2F70EC0BA0FBF
:10480000621F731F841F48F4879577956795B79546
:10481000F7959E3F08F0B3CF9395880F08F099273E
:10482000EE0F97958795089504D06894B111B5C09F
:10483000089598D088F09F5790F0B92F9927B751D5
:10484000A0F0D1F0660F771F881F991F1AF0BA9554
:10485000C9F712C0B13081F09FD0B1E008959CC07B
:10486000672F782F8827B85F39F0B93FCCF386954A
:1048700077956795B395D9F73EF4909580957095A7
:1048800061957F4F8F4F9F4F0895E89409C097FB24
:104890003EF490958095709561957F4F8F4F9F4F17
:1048A0009923A9F0F92F96E9BB279395F69587955B
:1048B00077956795B795F111F8CFFAF4BB0F11F41E
:1048C00060FF1BC06F5F7F4F8F4F9F4F16C08823C5
:1048D00011F096E911C0772321F09EE8872F762FFB
:1048E00005C0662371F096E8862F70E060E02AF03C
:1048F0009A95660F771F881FDAF7880F9695879528
:1049000097F9089597F99F6780E870E060E008954F
:104910009FEF80EC089500240A94161617061806D7
:104920000906089500240A941216130614060506B3
:104930000895092E0394000C11F4882352F0BB0F44
:1049400040F4BF2B11F460FF04C06F5F7F4F8F4FA7
:104950009F4F089557FD9058440F551F59F05F3FE2
:1049600071F04795880F97FB991F61F09F3F79F091
:1049700087950895121613061406551FF2CF469513
:10498000F1DF08C0161617061806991FF1CF869595
:104990007105610508940895E894BB276627772779
:1049A000CB0197F908950BD0C4CFB5DF28F0BADF5B
:1049B00018F0952309F0A6CFABCF1124EECFCADFB4
:1049C000A0F3959FD1F3950F50E0551F629FF00122
:1049D000729FBB27F00DB11D639FAA27F00DB11D7B
:1049E000AA1F649F6627B00DA11D661F829F222704
:1049F000B00DA11D621F739FB00DA11D621F839F8B
:104A0000A00D611D221F749F3327A00D611D231F60
:104A1000849F600D211D822F762F6A2F11249F57AE
:104A200050408AF0E1F088234AF0EE0FFF1FBB1FD1
:104A3000661F771F881F91505040A9F79E3F510570
:104A400070F060CFAACF5F3FECF3983EDCF3869521
:104A500077956795B795F795E7959F5FC1F7FE2B1B
:104A6000880F911D9695879597F90895DB018F938F
:104A70009F930E94A125BF91AF91A29F800D911D90
:104A8000A39F900DB29F900D1124089597FB072EC0
:104A900016F4009407D077FD09D00E94AC2507FCDE
:104AA00005D03EF4909581959F4F0895709561953E
:104AB0007F4F0895A1E21A2EAA1BBB1BFD010DC05A
:104AC000AA1FBB1FEE1FFF1FA217B307E407F507BE
:104AD00020F0A21BB30BE40BF50B661F771F881F9A
:104AE000991F1A9469F760957095809590959B0130
:104AF000AC01BD01CF010895052E97FB1EF4009473
:104B00000E94932557FD07D00E945A2507FC03D029
:104B10004EF40C94932550954095309521953F4F38
:104B20004F4F5F4F089590958095709561957F4F99
:104B30008F4F9F4F0895EE0FFF1F0590F491E02DCA
:104B400009940E94C025A59F900DB49F900DA49F2D
:104B5000800D911D11240895AA1BBB1B51E107C0B4
:104B6000AA1FBB1FA617B70710F0A61BB70B881FFD
:104B7000991F5A95A9F780959095BC01CD0108958C
:104B8000A29FB001B39FC001A39F700D811D11248E
:104B9000911DB29F700D811D1124911D0895CF9319
:104BA000DF938230910510F482E090E0E0913305CC
:104BB000F091340520E030E0A0E0B0E0309739F12A
:104BC0004081518148175907B8F04817590771F4C7
:104BD00082819381109729F013969C938E9312975C
:104BE0002CC0909334058093330527C021153105DF
:104BF00031F04217530718F0A901DB0101C0EF01A2
:104C00009A01BD01DF010280F381E02DD7CF21158C
:104C10003105F9F0281B390B2430310580F48A81E5
:104C20009B816115710521F0FB019383828304C090
:104C30009093340580933305FE01329644C0FE0103
:104C4000E20FF31F81939193225031093983288316
:104C50003AC02091310530913205232B41F4209147
:104C600002013091030130933205209331052091E8
:104C70000001309101012115310541F42DB73EB7F6
:104C80004091040150910501241B350BE091310541
:104C9000F0913205E217F307A0F42E1B3F0B281703
:104CA000390778F0AC014E5F5F4F2417350748F0A5
:104CB0004E0F5F1F509332054093310581939193BE
:104CC00002C0E0E0F0E0CF01DF91CF910895CF93F3
:104CD000DF93009709F487C0FC0132971382128298
:104CE000C0913305D0913405209781F42081318122
:104CF000280F391F80913105909132058217930753
:104D000079F5F0933205E09331056DC0DE0120E0C6
:104D100030E0AE17BF0750F412964D915C91139797
:104D20009D014115510509F1DA01F3CFB383A28347
:104D300040815181840F951F8A179B0771F48D91D3
:104D40009C911197840F951F0296918380831296F0
:104D50008D919C911397938382832115310529F4BA
:104D6000F0933405E09333053EC0D9011396FC93CC
:104D7000EE9312974D915D91A40FB51FEA17FB07B3
:104D800079F480819181840F951F0296D901119643
:104D90009C938E938281938113969C938E9312970A
:104DA000E0E0F0E08A819B81009719F0FE01EC01C0
:104DB000F9CFCE01029628813981820F931F20916D
:104DC0003105309132052817390769F4309729F4F5
:104DD000109234051092330502C013821282D093D0
:104DE0003205C0933105DF91CF9108959111EBC445
:104DF000803219F089508550D0F70895FB01DC010D
:104E000004C08D910190801921F441505040C8F7A1
:104E1000881B990B0895AEE0B0E0E1E1F7E20C9455
:104E2000FC2C0D891E8986E08C831A8309838FEF01
:104E30009FE79E838D83AE01475E5F4F6F89788DBC
:104E4000CE0101960E944627EF81F885E00FF11F01
:104E500010822E96E4E00C94182DAEE0B0E0E3E36F
:104E6000F7E20C94FE2C85E08C838B899C899A83D5
:104E70008983AE01495E5F4F6D897E89CE010196BF
:104E80000E94962A2E96E2E00C941A2DACE0B0E037
:104E9000ECE4F7E20C94EE2C7C016B018A01FC013E
:104EA00017821682838181FFBDC1CE0101964C011C
:104EB000F7019381F60193FD859193FF81916F0135
:104EC000882309F4ABC1853239F493FD859193FFB2
:104ED00081916F01853229F4B70190E00E94452C41
:104EE000E7CF512C312C20E02032A0F48B3269F036
:104EF00030F4803259F0833269F420612CC08D3255
:104F000039F0803339F4216026C02260246023C048
:104F1000286021C027FD27C030ED380F3A3078F4E3
:104F200026FF06C0FAE05F9E300D1124532E13C0F9
:104F30008AE0389E300D1124332E20620CC08E3250
:104F400021F426FD6BC1206406C08C3611F4206864
:104F500002C0883641F4F60193FD859193FF81915B
:104F60006F018111C1CF982F9F7D9554933028F404
:104F70000C5F1F4FFFE3F9830DC0833631F0833799
:104F800071F0833509F05BC022C0F801808189830C
:104F90000E5F1F4F44244394512C540115C0380117
:104FA000F2E06F0E711CF801A080B18026FF03C0F3
:104FB000652D70E002C06FEF7FEFC5012C870E9466
:104FC000FC2B2C0183012C852F77222E17C0380152
:104FD000F2E06F0E711CF801A080B18026FF03C0C3
:104FE000652D70E002C06FEF7FEFC5012C870E9436
:104FF000F12B2C012C852068222E830123FC1BC061
:10500000832D90E048165906B0F4B70180E290E095
:105010000E94452C3A94F4CFF50127FC859127FE98
:1050200081915F01B70190E00E94452C31103A94C4
:10503000F1E04F1A51084114510471F7E5C084366C
:1050400011F0893639F5F80127FF07C060817181B9
:10505000828193810C5F1F4F08C060817181882716
:1050600077FD8095982F0E5F1F4F2F76B22E97FFFA
:1050700009C090958095709561957F4F8F4F9F4F98
:105080002068B22E2AE030E0A4010E94902CA82EC5
:10509000A81844C0853729F42F7EB22E2AE030E0CC
:1050A00025C0F22FF97FBF2E8F36C1F018F4883556
:1050B00079F0B4C0803719F0883721F0AFC02F2FB6
:1050C0002061B22EB4FE0DC08B2D8460B82E09C0B5
:1050D00024FF0AC09F2F9660B92E06C028E030E05A
:1050E00005C020E130E002C020E132E0F801B7FE67
:1050F00007C060817181828193810C5F1F4F06C060
:105100006081718180E090E00E5F1F4FA4010E94DA
:10511000902CA82EA818FB2DFF77BF2EB6FE0BC033
:105120002B2D2E7FA51450F4B4FE0AC0B2FC08C08B
:105130002B2D2E7E05C07A2C2B2D03C07A2C01C07E
:10514000752C24FF0DC0FE01EA0DF11D8081803316
:1051500011F4297E09C022FF06C07394739404C021
:10516000822F867809F0739423FD13C020FF06C0B8
:105170005A2C731418F4530C5718732C731468F4C6
:10518000B70180E290E02C870E94452C73942C8517
:10519000F5CF731410F4371801C0312C24FF12C05E
:1051A000B70180E390E02C870E94452C2C8522FFDC
:1051B00017C021FF03C088E590E002C088E790E0B7
:1051C000B7010CC0822F867859F021FD02C080E221
:1051D00001C08BE227FD8DE2B70190E00E94452CD3
:1051E000A51438F4B70180E390E00E94452C5A944E
:1051F000F7CFAA94F401EA0DF11D8081B70190E088
:105200000E94452CA110F5CF332009F451CEB701EF
:1052100080E290E00E94452C3A94F6CFF701868117
:10522000978102C08FEF9FEF2C96E2E10C940A2D3C
:1052300020FD09C0FC0123FD05C022FF02C07383CD
:10524000628351834083089544FD10C046FD10C021
:10525000DB01FC01AA0FBB1FEE1FFF1F1094D1F74B
:105260006A0F7B1F8E1F9F1F31E003C033E001C018
:1052700034E0660F771F881F991F3150D1F7620FF6
:10528000711D811D911D08950F931F93CF93DF937F
:105290008C01C8010E94072CEC0197FD08C00E94F8
:1052A000F626892BB1F7B801CE010E94772CCE01EA
:1052B000DF91CF911F910F9108958F929F92AF929E
:1052C000CF92DF92EF92FF920F931F93CF93DF93D2
:1052D000EC01A62E4A01022F0E94072CAC01552793
:1052E0004B32510521F04D32510551F40068AA941A
:1052F00011F480E067C0CE010E94072C97FDF9CF22
:10530000102F1D7F302F307301F58033F1F4FF240F
:10531000FA94FA0C09F442C0CE010E94072C97FDC2
:105320003DC0382F3F7D383551F41264AA94AA94B9
:10533000A9F1CE010E94072C97FF07C02FC006FFDE
:1053400002C0126001C01261AF2CC12CD12C7601B9
:1053500020ED280F283080F014FF04C0BE010E9409
:10536000772C19C02A3040F016FFF8CF2F7D3FEE82
:10537000320F363098F72750412FC701B6010E94EF
:1053800024296B017C011260AA9459F0CE010E947D
:10539000072C97FFDDCF11FD04C0ABCFC12CD12C62
:1053A000760117FF08C0F094E094D094C094C11C1B
:1053B000D11CE11CF11C212FB701A601C4010E94E0
:1053C000182981E0DF91CF911F910F91FF90EF900D
:1053D000DF90CF90AF909F908F900895A1E2B0E0C2
:1053E000E4EFF9E20C94F32C5C017A018E010F5F7B
:1053F0001F4F680180E2D8011D928A95E9F7F501F7
:10540000738040E050E0812CB0E0912C81E090E08E
:10541000F90173FCA59173FEA1918F017A2F9F0171
:10542000A11103C080E090E07DC0AE3519F44115B4
:10543000510559F1E92DF0E0E417F5073CF4AD35DD
:1054400069F1AD3219F4BB2319F103C0B11101C0E8
:105450008A2EE72FE695E695E69586010E0F111D3B
:10546000F801A72FA7708C0102C0000F111FAA9589
:10547000E2F7D801B081BA2BB083781559F07815CE
:1054800010F47F5FE6CF7150E4CF9924939403C06A
:10549000B1E001C0B0E04F5F5F4FBACFBB2319F05E
:1054A0008E8180628E83911003C09924939415C0DD
:1054B000F601CE018196208120952193E817F90706
:1054C000D1F7F3CFE114F10429F0D7018C93F70160
:1054D00031967F01615001F1912CC50169A30E94B1
:1054E000072C69A197FD16C0282F2695269526958D
:1054F000F601E20FF11D208130E0AC014770552725
:1055000002C0359527954A95E2F720FDDBCFB5011E
:105510000E94772C911086CFE114F10411F0D7018D
:105520001C92C801A196EDE00C940F2D4F925F9252
:105530007F928F929F92AF92BF92CF92DF92EF9223
:10554000FF920F931F93CF93DF931F92CDB7DEB7D8
:105550008C012B017A01FC0117821682A12CF80123
:10556000D380F201D3FC8591D3FE8191382F2F0196
:10557000882309F4FCC090E039830E94F626398123
:10558000892B21F0C8010E944429E9CF353241F42A
:10559000F201D3FC3591D3FE31912F01353269F4FC
:1055A000C80139830E94072C398197FDDEC0381766
:1055B000B1F2B8010E94772CDAC03A3241F4D3FC40
:1055C0003591D3FE31912F01BB24B39401C0B12C8E
:1055D000712C20ED230F2A3090F4FB2DF260BF2EAA
:1055E000672D70E080E090E040E20E942429762E52
:1055F000F201D3FC3591D3FE31912F01EACFB1FEF8
:1056000003C0711003C0B3C077247A94383619F000
:105610003C3661F014C0F201D3FC3591D3FE3191D8
:105620002F01383661F4FB2DF860BF2E8B2D84607E
:10563000B82EF201D3FC3591D3FE31912F013323E3
:1056400009F495C0632F70E085E694E039830E94E9
:10565000E62B3981892B09F48AC0B0FC07C0F70119
:10566000C080D180C70102967C0102C0C12CD12C20
:105670003E3651F4F8014681578160E070E02B2DF1
:10568000C6010E9418296BCF3336A1F4B1FC02C0C9
:1056900077247394C8010E94072C97FD66C0C1143B
:1056A000D10429F0F6018083C60101966C017A9439
:1056B00089F757C03B3559F49201A601672DC801FF
:1056C0000E94EE292C01009709F04BC045C0C8018B
:1056D00039830E944429398197FD47C03F3669F1DB
:1056E00028F4343631F1393679F12BC0333769F08B
:1056F0003537F9F026C0C114D10429F0F6018082B3
:10570000C60101966C017A9471F0C8010E94072CC1
:105710004C0197FD08C00E94F626892B61F3B80161
:10572000C4010E94772CC114D104D9F0F601108273
:1057300018C0FB2DF062BF2E07C08B2D8061B82EE4
:1057400003C09B2D9064B92E2B2DA601672DC80197
:105750000E945D29811105C0F8018381807329F4BD
:1057600006C0B0FCFCCEA394FACEAA2019F08A2D74
:1057700090E002C08FEF9FEF0F90DF91CF911F91CC
:105780000F91FF90EF90DF90CF90BF90AF909F90E0
:105790008F907F905F904F900895F999FECF92BDC2
:1057A00081BDF89A992780B50895262FF999FECFE3
:1057B0001FBA92BD81BD20BD0FB6F894FA9AF99A2E
:1057C0000FBE01960895992788270895FC0105903A
:1057D000061621F00020D9F7C00108953197CF01B6
:1057E0000895FC010590615070400110D8F7809534
:1057F00090958E0F9F1F0895FC016150704001909D
:105800000110D8F7809590958E0F9F1F0895CF9324
:10581000DF93EC012B8120FF33C026FF0AC02F7BD2
:105820002B838E819F8101969F838E838A8190E056
:1058300029C022FF0FC0E881F9818081992787FD67
:105840009095009719F420622B831AC03196F98342
:10585000E8830EC0EA85FB85099597FF09C02B8177
:10586000019611F480E101C080E2822B8B8308C095
:105870002E813F812F5F3F4F3F832E83992702C0A8
:105880008FEF9FEFDF91CF9108950F931F93CF93E9
:10589000DF93182F092FEB018B8181FD03C08FEF60
:1058A0009FEF20C082FF10C04E815F812C813D811F
:1058B000421753077CF4E881F9819F012F5F3F4F26
:1058C00039832883108306C0E885F985812F0995DF
:1058D000892B29F72E813F812F5F3F4F3F832E83F6
:1058E000812F902FDF91CF911F910F910895FB0190
:1058F000238120FF12C026FD10C08F3F3FEF93078A
:1059000061F082832F7D206423832681378121509B
:10591000310937832683992708958FEF9FEF0895E4
:10592000FA01AA27283051F1203181F1E8946F93D0
:105930006E7F6E5F7F4F8F4F9F4FAF4FB1E03ED076
:10594000B4E03CD0670F781F891F9A1FA11D680F14
:10595000791F8A1F911DA11D6A0F711D811D911D47
:10596000A11D20D009F468943F912AE0269F1124BC
:105970003019305D3193DEF6CF010895462F477020
:10598000405D4193B3E00FD0C9F7F6CF462F4F707B
:10599000405D4A3318F0495D31FD4052419302D0D9
:1059A000A9F7EACFB4E0A69597958795779567957F
:1059B000BA95C9F700976105710508959B01AC017F
:1059C0000A2E06945795479537952795BA95C9F7A6
:1059D000620F731F841F951FA01D08952F923F9281
:1059E0004F925F926F927F928F929F92AF92BF92EF
:1059F000CF92DF92EF92FF920F931F93CF93DF939B
:105A0000CDB7DEB7CA1BDB0B0FB6F894DEBF0FBEF7
:105A1000CDBF09942A88398848885F846E847D8444
:105A20008C849B84AA84B984C884DF80EE80FD8046
:105A30000C811B81AA81B981CE0FD11D0FB6F894BC
:105A4000DEBF0FBECDBFED01089514E0CAE7D4E07C
:105A500004C0FE010E949D252296CC37D107C9F7CC
:045A6000F894FFCFE8
:105A6400000035058000FFFF9E01231A231A231A24
:105A7400231A231A01FFFFFFFF00E10000000000CA
:105A84000000C1808100000025633D256400000002
:105A94000000C303D10300000000CA03DB03230298
:105AA40073657276310025633D256C640025633D82
:105AB40025642E25640025752025750A00636C690C
:105AC400653100455252203031002575004552524F
:105AD4002030340045525220303300455252203099
