:100000000C9488020C94BC220C94E3220C940A23D6
:100010000C9431230C94B0020C94B0020C9458232D
:100020000C94B0020C94B0020C94BE2A0C9450298B
:100030000C94B0020C94B0020C94B0020C94B00278
:100040000C94B0020C94B0020C94B0020C94B00268
:100050000C94B0020C94B0020C94B0020C947F2368
:100060000C94B0020C94B0020C94B0020C94B00248
:100070000C94B0020C94B0020C94B0020C94B00238
:100080000C94B0020C94B0020C94B0020C94B00228
:100090000C94B0020C94B0020C94700D0C94B0024D
:1000A0000C94B0020C94B0020C94B0026D03BA032D
:1000B000BA036503BA0367036903BA03BA036B03A0
:1000C00071036F038803BA03BA038003BA03820380
:1000D0008403BA03BA0386038C038A03AE03BA030C
:1000E000BA03A003BA03A303A803BA03BA03AB037A
:1000F000B603B30354048E04880461046F047C04C3
:1001000082047F048804880488048804880488049E
:1001100088047504500CC50CBC0C7F0CBC0CA90CDD
:10012000B30CAE0CBC0CBC0CBC0C7C0CA715CD16D7
:100130003F15DC16DC16DC166B16DC162315DC16F8
:10014000DC16DC16831534150416DC160915DC16CE
:10015000DC165C15DC16DC16DC16DC16DC16DC1690
:10016000DC16DC16DC16DC16DC16DC16A215D11645
:100170003A154B15DC16DC161F16B3141B15DC16CE
:10018000DC16DC167C152B15F915DC16FF14DE14B5
:10019000ED145615C615C314E214C815DE24E32465
:1001A000E824F224FC24462546254625062510256C
:1001B0001A25242531254625392567256A255925FF
:1001C0005D2563258B258B258B256E257225762550
:1001D0007C2580258B2586252F746D702F6275698F
:1001E0006C646165336238656630323662623864E9
:1001F0003662386665333537656234643535336267
:1002000061642E746D702F736B657463682F616FFA
:100210005F5478722E6370700071700000000000EF
:1002200000000000000101010101010101020202C0
:100230000202020202030303030303030304040490
:100240000404040404050505050505050506060660
:1002500006060606060707070707070707FFFEFD4E
:10026000FBF7EFDFBF7FFEFDFBF7EFDFBF7FFEFD9C
:10027000FBF7EFDFBF7FFEFDFBF7EFDFBF7FFEFD8C
:10028000FBF7EFDFBF7FFEFDFBF7EFDFBF7FFEFD7C
:10029000FBF7EFDFBF7FFEFDFBF7EFDFBF7F000166
:1002A0000204081020408001020408102040800150
:1002B0000204081020408001020408102040800140
:1002C0000204081020408001020408102040800130
:1002D0000204081020408001020408102040800021
:1002E00001020203030303040404040404040405D8
:1002F00005050505050505050505050505050506AD
:10030000060606060606060606060606060606068D
:10031000060606060606060606060606060606077C
:10032000070707070707070707070707070707075D
:10033000070707070707070707070707070707074D
:10034000070707070707070707070707070707073D
:10035000070707070707070707070707070707082C
:10036000080808080808080808080808080808080D
:1003700008080808080808080808080808080808FD
:1003800008080808080808080808080808080808ED
:1003900008080808080808080808080808080808DD
:1003A00008080808080808080808080808080808CD
:1003B00008080808080808080808080808080808BD
:1003C00008080808080808080808080808080808AD
:1003D000080808080808080808080808080808079E
:1003E0000605040100080A0B0C0D090000000200BC
:1003F000090F0000030401000C00000000000000D1
:10040000000000000000000000000408020110408D
:10041000804010204080408008020401804020106D
:10042000020110801020404020040404040403044E
:100430000502020202040302020202060606060682
:100440000604040202020404000000002300260047
:1004500029002C002F0000000000250028002B00A0
:100460002E00310000000000240027002A002D008B
:100470003000080B00020202010009040000010222
:1004800002000005240010010524010101042402DA
:100490000605240600010705810310004009040138
:1004A00000020A0000000705020240000007058361
:1004B0000240000012010002EF0201404123368099
:1004C000000101020301120100020000004041236B
:1004D000368000010102030141726475696E6F206C
:1004E0004C4C430041726475696E6F204C656F6EB1
:1004F0006172646F00040309046364696E6F707352
:100500007578585B0000D10CD00E5222F2261E0DD9
:1005100011241FBECFEFDAE0DEBFCDBF11E0A0E0B7
:10052000B1E0E8E2F8E602C005900D92A43FB10701
:10053000D9F726E0A4EFB1E001C01D92A639B207B9
:10054000E1F715E0CEE0D5E004C02297FE010E945D
:10055000552CC630D107C9F70E945F2B0C94073485
:100560000C9400008F929F92AF92BF92CF92DF9235
:10057000EF92FF920F931F930E94050E0E946D1F32
:1005800006E010E020E030E04CE350E060E070E096
:1005900084EF91E00E94F31D4BE050E060E070E0DA
:1005A00080E392E00E94781C812C912CA12CB12C2C
:1005B0006501E12CF12C0AE010E020E030E04BE393
:1005C00052E061E080914701909148010E94931FA1
:1005D0001F910F91FF90EF90DF90CF90BF90AF9061
:1005E0009F908F9008952BE331E0FC0131832083AD
:1005F0000C944A1923E431E0FC01318320830C94EC
:10060000F302CF93DF93EC010E94F302CE01DF915E
:10061000CF910C94722BCF93DF93EC010E94FA02DE
:10062000CE01DF91CF910C94722B0F931F93CF9338
:10063000DF93CDB7DEB7A0970FB6F894DEBF0FBE3D
:10064000CDBF7F936F935F934F93282F332727FD61
:1006500030953F938F9380E391E09F938F938E012A
:100660000F5F1F4F1F930F930E94E52DC8010E943B
:100670002F170FB6F894DEBF0FBECDBFA0960FB6F2
:10068000F894DEBF0FBECDBFDF91CF911F910F91C8
:1006900008950F931F93CF93DF93EC018B01562F97
:1006A00044274C2B662757FD6095762F8CE60E94D9
:1006B000150301301105C1F4CC30D10508F05AC042
:1006C000FE01EA5AFF4F0C94532C589A53C0469A95
:1006D00051C05F9A4FC02D9A4DC05A9A4BC02F9A65
:1006E00049C06FEF70E01AC001151105F1F4CC306C
:1006F000D10508F03FC0FE01EE59FF4F0C94532C7A
:10070000589838C0469836C05F9834C02D9832C08B
:100710005A9830C02F982EC060E070E08AE0DF91D8
:10072000CF911F910F910C94B8240230110511F54F
:10073000CC30D105F8F4FE01E259FF4F0C94532C54
:100740008BB191E00DC088B190E4892788B912C0BF
:100750008BB1805806C085B190E20AC08BB194E09D
:1007600089278BB907C085B1805803C085B190E453
:10077000892785B9DF91CF911F910F910895DF925D
:10078000EF92FF920F931F93CF93DF9300D000D08F
:1007900000D0CDB7DEB77C01FB01208131812A304A
:1007A000310581F038F4215031092230310508F447
:1007B0005DC055C02D30310509F44EC02E303105D5
:1007C00079F04DC00E948412882319F060E070E037
:1007D00002C061E070E080E090E00E94490346C002
:1007E00096E0D92E8E010F5F1F4FF8018D2D1192CB
:1007F0008A95E9F787E089830E94AD18582F4981CF
:10080000692F7C818D819E810E94AC11F80111922B
:10081000DA94E9F78BE089830E94B218582F8A8313
:100820009B834981692F7C818D819E810E94AC11BF
:100830000E9475188C01FDE9EF0EF11CF701808113
:1008400091810817190791F060E0C8010E941B12FE
:10085000F701118300830AC00E94EE1707C088E4E5
:1008600099E1F7019583848383E001C080E02696B7
:100870000FB6F894DEBF0FBECDBFDF91CF911F91B1
:100880000F91FF90EF90DF900895CF93DF93EC01ED
:10089000DB018D919C91019780319105C8F58658B7
:1008A0009F4FFC010C94532C60E070E08BE090E0D3
:1008B0000E94490361E070E08AE090E00E944903F1
:1008C0002DC0CE01845B9F4FDC011B961C921E92B3
:1008D0001A9740E850E0BE010E94FE1E1FC0CE01E4
:1008E000845B9F4F0E945F1F19C0DE01A058BF4F5D
:1008F0001C9282E994E008C086EA9BE005C088EB80
:100900009AE002C087E39AE09D838C8382E007C06F
:100910008FEB93E09D838C8383E001C080E0DF91C7
:10092000CF910895CF93DF93EC01FB0180819181FA
:100930008430910509F473C088F481309105A1F0E9
:10094000029709F066C0CE014C960E945F1F61E0DD
:1009500070E08BE090E00E94490361C08F30910508
:10096000D9F1409701F155C061E070E08BE090E073
:100970000E94490380E190E09FA38EA340E150E0F4
:10098000BE01CE014C960E94FE1ECE01845B9F4F9D
:10099000FC011386128640E450E0BE010E94FE1E58
:1009A000109251023CC0FE01E058FF4F808182301E
:1009B00084F04E9B03C087E39AE007C04C9B03C0C2
:1009C00088EB9AE002C086EA9BE09D838C8382E0FC
:1009D00027C08AE39CE0F9CF80914F0290915002AA
:1009E000892B19F06FEF70E002C060E070E08BE0DF
:1009F0000E94B82481E090E020914F023091500293
:100A0000232B11F080E090E09093500280934F02EE
:100A100006C08AE39CE09D838C8383E001C080E074
:100A2000DF91CF9108958130910599F01CF4892BC5
:100A300039F008958230910531F0039739F0089527
:100A400083E090E008C086E090E005C089E090E097
:100A500002C085E090E00C94490360E070E083E020
:100A60000E94B82460E070E085E00E94B82460E055
:100A700070E08BE00E94B82460E070E08AE00E94A1
:100A8000B82460E070E086E00E94B82460E070E086
:100A900089E00E94B82460E070E083E090E00E946A
:100AA000490360E070E085E090E00E94490360E067
:100AB00070E086E090E00E94490360E070E089E029
:100AC00090E00C9449030F931F938C010E94620ED7
:100AD000F801EB56FF4FD801A756BF4F0D911C915F
:100AE000000F111F000F111F222717FD2095322F15
:100AF000601B710B820B930B6083718382839383E2
:100B00001F910F910895CF92DF92EF92FF920F9372
:100B10001F93CF93DF93EC010E94620E8E010B5660
:100B20001F4FF801C080D180E280F3806C197D09ED
:100B30008E099F0924E030E040E050E00E94342C10
:100B40002E3FFFEF3F074F075F077CF4DA01C90133
:100B500032E0880F991FAA1FBB1F3A95D1F7F80101
:100B600080839183A283B38322C027363105410558
:100B7000510564F0DA01C90188569109A109B1094A
:100B8000F80180839183A283B38305C012161306F4
:100B90001406150664F4BA01A9014536510561052C
:100BA00071054CF044E650E060E070E004C041E0C4
:100BB00050E060E070E0C756DF4F8881998184176C
:100BC000950721F059834883CA0102C08FEF9FEF38
:100BD000DF91CF911F910F91FF90EF90DF90CF9019
:100BE00008954F925F926F927F92AF92BF92CF9291
:100BF000DF92EF92FF920F931F93CF93DF9387566D
:100C00009F4FFC01C081D1812E01662457FC609466
:100C1000762CC130D10561F1D301C2010197A10940
:100C2000B109B7FF07C0B095A095909581959F4FEA
:100C3000AF4FBF4F9C01AD0189319105A105B105B1
:100C400024F028E130E040E050E0AEECBFEF0E943D
:100C5000672C28E130E040E050E00E94342C2E5C0C
:100C60003F4F4F4F5F4F5901C931D10521F42FC07C
:100C7000AA24AA94B12CD301C2014997A109B109B0
:100C8000B7FF07C0B095A095909581959F4FAF4F46
:100C9000BF4F9C01AD0189319105A105B10524F03B
:100CA00028E130E040E050E0AEECBFEF0E94672C5E
:100CB00028E130E040E050E00E94342C2E5C3F4FB1
:100CC0004F4F5F4F6901C233D10521F42FC0CC24AF
:100CD000CA94D12CD301C201C297A109B109B7FFAF
:100CE00007C0B095A095909581959F4FAF4FBF4F8E
:100CF0009C01AD0189319105A105B10524F028E1E0
:100D000030E040E050E0AEECBFEF0E94672C28E1FD
:100D100030E040E050E00E94342C2E5C3F4F4F4FBB
:100D20005F4F8901CB34D10519F42FC00FEF10E0CC
:100D3000D301C2018B549109A109B109B7FF07C0C2
:100D4000B095A095909581959F4FAF4FBF4F9C0157
:100D5000AD0189319105A105B10524F028E130E00C
:100D600040E050E0AEECBFEF0E94672C28E130E09D
:100D700040E050E00E94342C2E5C3F4F4F4F5F4FBD
:100D80007901C436D10521F42DC0EE24EA94F12C6A
:100D9000F4E64F1A51086108710877FE08C0709494
:100DA000609450944094411C511C611C711CA3011F
:100DB0009201293131054105510524F028E130E047
:100DC00040E050E0AEECBFEF0E94672C28E130E03D
:100DD00040E050E00E94342C2E5C3F4F4F4F5F4F5D
:100DE000E90102C0CFEFD0E0B50183E00E94B82452
:100DF000B60185E00E94B824B8018BE00E94B824B7
:100E0000B8018AE00E94B824B70186E00E94B824A5
:100E1000BE0189E0DF91CF911F910F91FF90EF907C
:100E2000DF90CF90BF90AF907F906F905F904F908A
:100E30000C94B824CF93DF93EC010E94620EFE0164
:100E4000EC58FF4F60837183828393833C97608368
:100E50007183828393833896C45ADF4F8881998146
:100E6000AA81BB8180839183A283B383DF91CF91D9
:100E700008958F929F92AF92BF92CF92DF92EF929E
:100E8000FF92CF93DF93EC01FC01EF57FF4F81E01E
:100E90008083CE010E941A07FE01E459FF4F1082A1
:100EA000118212821382B79682E38083319684E6A0
:100EB0008083F4974FEF5FEFBA01408351836283E1
:100EC00073833496408351836283738364E070E05C
:100ED000CE010E940E1C65E070E0CE010E940E1C47
:100EE00066E070E0CE010E940E1C67E070E0CE016B
:100EF0000E940E1C68E070E0CE010E940E1C69E0AA
:100F000070E0CE010E940E1C82E090E09BAB8AABA9
:100F100042E050E0BE01CE0188960E94FE1EFE0116
:100F2000E65BFF4F80E094E09183808340E054E0F3
:100F3000BE01CE01805C9F4F0E94FE1E80E095E0C6
:100F40009B8F8A8F40E055E0BE01CE0140960E9403
:100F5000FE1E80E490E09FAF8EAF40E450E0BE0103
:100F6000CE01C4960E94FE1E0E947C187E0128E7D6
:100F7000E20EF11CAA2797FDA095BA2FF7018083F6
:100F80009183A283B3830E9484186E01FCE7CF0E85
:100F9000D11CAC01662757FD6095762FF601408382
:100FA0005183628373830E947518FE01E356FF4FDD
:100FB00091838083F60180809180A280B380F701C5
:100FC000C080D180E280F3800E94770EA501940159
:100FD0002C193D094E095F09DC010E94642C20E0B8
:100FE00034E040E050E00E94342C2C0D3D1D4E1D9D
:100FF0005F1DFE01E45AFF4F2083318342835383F8
:10100000749620833183428353830E948C188823F3
:1010100019F08AE39CE028C06E01E12CF12CC70195
:101020000E949A18F601EE57FF4FAC01662757FD54
:101030006095762F4083518362837383FFEFEF1AAD
:10104000FF0A24E0C20ED11C84E0E816F10439F74F
:101050004E9B03C087E39AE007C04C9B03C088EB1C
:101060009AE002C086EA9BE09D838C8382E0DF9158
:10107000CF91FF90EF90DF90CF90BF90AF909F9077
:101080008F9008954F925F926F927F92AF92BF922E
:10109000CF92DF92EF92FF920F931F93CF93DF9344
:1010A00000D000D000D0CDB7DEB77C010E94620E28
:1010B0002B013C01670124E7C20ED11CF60180819F
:1010C0009181A281B381481659066A067B0629F0F0
:1010D000B301A20185E60E9415035701F0E7AF0EA8
:1010E000B11CF701E859FF4F80819181A281B38142
:1010F000A3019201281B390B4A0B5B0BCA01B901F2
:1011000024E030E040E050E00E94342CF701EF573B
:10111000FF4FA081BB27A7FDB0950E94642CD5018D
:101120000D911D912D913C91600F711F821F931F96
:10113000F6014082518262827382F701E45AFF4FC6
:101140000081118122813381601771078207930723
:10115000B9F06083718382839383FE01319626E028
:10116000DF011D922A95E9F7562F6A837B838C83D2
:101170009D8347E16B817C818D819E810E94AC11B2
:1011800026960FB6F894DEBF0FBECDBFDF91CF918C
:101190001F910F91FF90EF90DF90CF90BF90AF9095
:1011A0007F906F905F904F900895AF92BF92CF92D3
:1011B000DF92EF92FF920F931F93CF93DF9300D0B4
:1011C00000D0CDB7DEB78C010E94620E6B017C01AE
:1011D000580124E7A20EB11CF50180819181A28102
:1011E000B381C816D906EA06FB0629F0B701A601A5
:1011F00085E60E941503F801E459FF4FD801A8596C
:10120000BF4F8D919D910D90BC91A02DA70196018E
:10121000281B390B4A0B5B0BDA01C90174E0880FFC
:10122000991FAA1FBB1F7A95D1F740815181628116
:101230007381840F951FA61FB71F181619061A066B
:101240001B066CF4AC01BD01813030E89307A105A9
:10125000B1054CF040E050E860E070E004C041E0CF
:1012600050E060E070E049835A836B837C830E9486
:10127000AD18F501C082D182E282F382A0E0B0E035
:1012800049815A816B817C81481759076A077B071E
:10129000C1F0CA010E943E1949815A816B817C814B
:1012A0008DE60F900F900F900F90DF91CF911F91CF
:1012B0000F91FF90EF90DF90CF90BF90AF900C9484
:1012C00015030F900F900F900F90DF91CF911F910A
:1012D0000F91FF90EF90DF90CF90BF90AF90089567
:1012E0008F929F92AF92BF92CF92DF92EF92FF9236
:1012F0000F931F93CF93DF9300D000D000D0CDB7D2
:10130000DEB78C010E94770E6C01EE24D7FCE094CE
:10131000FE2C480180E6880E911CF40180819181A9
:10132000A281B381C816D906EA06FB0609F45BC0A0
:101330005801F4E6AF0EB11CF50180819181A281C4
:10134000B381C816D906EA06FB0609F44CC0B701FA
:10135000A60180E70E941503F50180819181A28199
:10136000B381F40180839183A283B383D501CD92AD
:10137000DD92ED92FC921397789680809180A28006
:10138000B380349660817181828193816819790973
:101390008A099B09A70196010E94102C20E034E0E5
:1013A00040E050E00E94342C280D391D4A1D5B1D81
:1013B000F801E45AFF4F2083318342835383FE01B7
:1013C000319686E0DF011D928A95E9F7822F2A8304
:1013D0003B834C835D8347E1582F6B817C818D81FA
:1013E0009E810E94AC1126960FB6F894DEBF0FBE08
:1013F000CDBFDF91CF911F910F91FF90EF90DF90C4
:10140000CF90BF90AF909F908F9008950F931F93B0
:10141000CF93DF9300D000D000D0CDB7DEB78C01E2
:101420000E9483058F3F2FEF9207A1F0FE013196B6
:1014300026E0DF011D922A95E9F7582F9B838A83C6
:1014400049E16B817C818D819E810E94AC11C80134
:101450000E94F105C80126960FB6F894DEBF0FBEB4
:10146000CDBFDF91CF911F910F910C947009EF9236
:10147000FF920F931F93CF93DF93EC018B01FB013E
:10148000808191818930910521F148F48130910565
:10149000A9F0029709F05EC00E942D0561C08C3052
:1014A000910599F00F9709F055C0CE56DF4F88810E
:1014B00060E070E090E00E94130552C0CE010E94EF
:1014C0006305CE010E94F1054BC0CE010E94060AC1
:1014D00047C07E01FCE1EF0EF11CC7010E94581FBE
:1014E000892BF1F5F80184818E010E561F4FF8010A
:1014F0008083843030F062E472E088ED91E00E94F5
:101500009B0EF8012081FE01E45AFF4F608171813A
:1015100082819381FE0134E0239FE00DF11D1124AF
:10152000EE57FF4F6083718382839383822F90E015
:101530000E941E19F801808161E070E090E00E9435
:1015400013051FA21EA240E150E0BE01C7010E9488
:10155000FE1E06C085E494E09D838C8383E001C079
:1015600080E0DF91CF911F910F91FF90EF90089550
:101570000F931F93CF93DF93EC01FB018081918147
:1015800082309105A1F168F5019709F07BC061E017
:1015900070E08AE090E00E94490361E070E08BE037
:1015A00090E00E9449030E942D050E94311799275F
:1015B00087FD9095FE01E556FF4F9183808361E0A2
:1015C00070E00E941305CE010E941A070E94AD1818
:1015D000C459DF4FA0E0B0E088839983AA83BB831E
:1015E00057C08930910529F10C9721F04BC00E941A
:1015F0002D054EC0CE010E94D508CE010E94700973
:101600000E943117082F112707FD1095C556DF4F8F
:101610008881998108171907D9F160E070E00E946C
:10162000130561E070E0C8010E9413051983088367
:101630002FC0FB011481143034F06FE972E088EDA3
:1016400091E00E949B0E412F552747FD5095652F35
:10165000752F81E70E941503812F0E943918CE0152
:101660000E941A070E94AD18FE01E459FF4FAC0119
:1016700060E070E04083518362837383CE56DF4F16
:10168000188306C085E494E09D838C8383E001C0C9
:1016900080E0DF91CF911F910F9108950F931F93D9
:1016A000CF93DF9300D000D000D0CDB7DEB78C0150
:1016B0000E9483058F3F2FEF9207A1F0FE01319624
:1016C00026E0DF011D922A95E9F7582F9B838A8334
:1016D00049E16B817C818D819E810E94AC11C801A2
:1016E0000E94F105F801E85AFF4F40815181628163
:1016F0007381349600811181228133814017510713
:1017000062077307C1F04083518362837383FE01D4
:10171000319686E0DF011D928A95E9F7842F4A838E
:101720005B836C837D8347E1582F6B817C818D8146
:101730009E810E94AC1126960FB6F894DEBF0FBEB4
:10174000CDBFDF91CF911F910F910895EF92FF923E
:101750000F931F93CF93DF9300D000D000D0CDB76D
:10176000DEB78C01DB018D919C918230910599F15E
:1017700048F5019709F059C0F801E45AFF4F8081FC
:1017800031812281938134978083318322839383B3
:10179000FE01319646E0DF011D924A95E9F7582F88
:1017A0008A833B832C839D8347E1632F722F892F8C
:1017B0009E810E94AC11C8010E946305C8010E946D
:1017C000F1050BC08930910551F00C9771F5C801F6
:1017D0000E944E0B02C00E942D0580E02EC0FB012E
:1017E000E480FF24E7FCF094F4E0EF16F10434F019
:1017F0006EE672E088ED91E00E949B0EF801E85AD7
:10180000FF4FC701880F991F880F991F800F911FE5
:10181000DC01AE57BF4F8D919D910D90BC91A02DD5
:1018200080839183A283B383D8CF85E494E0D801E9
:1018300015969C938E93149783E026960FB6F89492
:10184000DEBF0FBECDBFDF91CF911F910F91FF90F3
:10185000EF900895FC01EF57FF4F6130710529F0BB
:101860006230710521F480E503C088E201C088E0A0
:10187000808308950F931F93CF93DF9300D000D000
:1018800000D0CDB7DEB78C01DB01ED91FC91319733
:10189000EC30F10508F070C0E657FF4F0C94532C64
:1018A00061E070E08BE090E00E94490360E070E04E
:1018B0008AE090E00E9449030E947A0EBC01C801B0
:1018C0000E942A0CF801E45AFF4F10821182128202
:1018D0001382C8010E941A07FE01319686E0DF01DB
:1018E0001D928A95E9F743E25A816B817C818D8153
:1018F0009E810E94AC1149C00E94420846C0FC0172
:10190000E058FF4F808191E0980F9083B497811148
:101910000CC080819181A281B3817C968083918368
:10192000A283B3830E94F5180DC080819181A281AA
:10193000B381F801E458FF4F80839183A283B3837E
:101940000E94031982E994E0F8019583848382E080
:101950001DC0FC01EF57FF4F88E209C0FC01EF57A3
:10196000FF4F80E504C0FC01EF57FF4F88E0808304
:10197000C8010E941A0709C08FEB93E0D8011596A1
:101980009C938E93149783E001C080E026960FB657
:10199000F894DEBF0FBECDBFDF91CF911F910F91A5
:1019A000089588E499E1909355028093540289E365
:1019B00097E0909357028093560283E491E09093CE
:1019C0005302809352026AE070E082E692E00E9445
:1019D000381F6FE070E08EE692E00E94381F6CE0E6
:1019E00070E08AE792E00E94381F6EE070E086E8BF
:1019F00092E00E94381F6DE070E082E992E00E9460
:101A0000381F60E170E08EE992E00E94381F10926A
:101A1000AA021092AB021092AC021092AD0282E3C5
:101A200090E09093EC028093EB021092EE02109201
:101A3000ED021092F0021092EF02089582E592E01A
:101A40000C94FA02DC01ED91FD918081ED91FD9104
:101A50009081ED91FD916C9163708E2309F064602B
:101A60009F2309F06860EFE3FDE0E60FF11D659547
:101A700065956D936D917D918D919D91099423C094
:101A80001AC012C016C010C01EC009C014C013C0B6
:101A900006C019C009C00DC007C00DC014C06250F7
:101AA0007040804090400BC061507040804090403A
:101AB00006C06E5F01C06F5F7F4F8F4F9F4F9E9339
:101AC0008E937E936E9308958091170690911806D9
:101AD0000C94220D80911306909114060C94220D03
:101AE0001F920F920FB60F9211242F933F934F9393
:101AF0005F936F937F938F939F93AF93BF93CF9396
:101B0000DF93EF93FF930E94811C8FB18170C82FE8
:101B100020E0D22F8091F3029091F402C817D907E8
:101B200081F0209719F064E070E002C065E070E099
:101B300084E00E940F1D0E94AA1ED093F402C0935D
:101B4000F30229B1C22FC075D0E0809106019091B7
:101B50000701C817D907A9F024FF03C068E070E0A7
:101B600007C026FF03C067E070E002C066E070E0D7
:101B700084E00E940F1D0E94AA1ED0930701C0930B
:101B800006018FB1827790E0C091F102D091F2020C
:101B90008C179D0719F1C827D927C823D9239093FB
:101BA000F2028093F1022097C9F069E070E085E0CD
:101BB0000E940F1DC6FF03C0FC0114820DC0C5FFAB
:101BC00002C021E007C0C4FF02C022E003C0C1FF81
:101BD00003C023E0FC0124830E94AA1E0E94570F29
:101BE0000E94DD11FF91EF91DF91CF91BF91AF91F5
:101BF0009F918F917F916F915F914F913F912F9125
:101C00000F900FBE0F901F90189560E084E00E9427
:101C10008C2560E08CE00E948C2560E087E10E94CA
:101C20008C2560E083E10E948C2560E084E10E94C5
:101C30008C2560E085E10E948C2560E086E10E94B1
:101C40008C2561E083E00E948C2561E085E00E94A4
:101C50008C2561E086E00E948C2561E089E00E948D
:101C60008C2561E080E00E948C2561E08BE00E9481
:101C70008C2561E08AE00E948C2540E051EE60E016
:101C800070E08AE296E00E94EC260E943C170E94D7
:101C90006C1261E087E10E94C525479A089582E0B1
:101CA0008093C00087E08093C10080E4809372003D
:101CB0001092BF001092BE008CE38093CF00089575
:101CC0007894089580910003823030F4F89485EF81
:101CD00092E00E94220D01C0F8946091FC02709184
:101CE000FD028091FE029091FF027894089582E1B6
:101CF0000C94872489B184FD08C0829586958695C9
:101D0000837091E08927817001C082E090E008959E
:101D1000AB01E0912A06F0912B060280F381E02DC1
:101D2000BC018AE296E00994811104C0F894469AB5
:101D30000C94000008950F931F93CF93DF93CDB7BA
:101D4000DEB7C456D1090FB6F894DEBF0FBECDBFC3
:101D5000F8942D9A589A7F936F939F938F9389E469
:101D600091E09F938F938E010F5F1F4F1F930F93EF
:101D70000E94E52DC8010E9454110C9400000FB67A
:101D8000F894DEBF0FBECDBFCC59DF4F0FB6F8942D
:101D9000DEBF0FBECDBFDF91CF911F910F91089590
:101DA000CF93DF9362E082E00E948C2562E081E0C5
:101DB0000E948C25EBE2F4E0E491F0E0EE0FFF1FCF
:101DC000E85BFB4F859194919093F6028093F50226
:101DD000ECE0F4E0E491E093F902EAE2F4E0E4916B
:101DE000F0E0EE0FFF1FE85BFB4F8591949190931D
:101DF000F8028093F702EBE0F4E0E491E093FA025A
:101E00001092FC021092FD021092FE021092FF024C
:101E100080ED97E00E942624E091F502F091F60211
:101E200090818091F902982381E009F480E0E091AB
:101E3000F702F091F80290812091FA02922309F0C2
:101E400082608093FB02C5EFD2E0D0931406C0936A
:101E5000130641E050E06AE67DE081E00E946C22DA
:101E600081E080930003D0931806C093170641E0E9
:101E700050E064E67DE083E00E946C2280910003E4
:101E800090E0019680930003DF91CF9108958AE25C
:101E900096E00E94252621E0181619060CF020E095
:101EA000822F08958AE296E00E9435260895AF9227
:101EB000BF92CF92DF92EF92FF920F931F93CF9337
:101EC000DF930E94470F882349F00E94520F0E941F
:101ED00014171092020310920103F3CF0E940A1705
:101EE0006B017C01E701209731F180910103909112
:101EF0000203892B01F583E0A82EB12C00E010E04D
:101F0000C8018C0D9D1DBE010E94880E080F191F6F
:101F1000C81BD90B1C161D064CF0012B61F481E087
:101F200090E0909302038093010305C081E0A81A1A
:101F3000B10831F7F2CFDF91CF911F910F91FF9050
:101F4000EF90DF90CF90BF90AF9008950F931F93C5
:101F5000CF93DF93CDB7DEB7C456D1090FB6F8944F
:101F6000DEBF0FBECDBF811118C07F936F938FE48A
:101F700091E09F938F938E010F5F1F4F1F930F93DD
:101F80000E94E52DC8010E9454110C9400000F908E
:101F90000F900F900F900F900F90CC59DF4F0FB60E
:101FA000F894DEBF0FBECDBFDF91CF911F910F918F
:101FB0000895CF92DF92EF92FF920F931F93CF93EA
:101FC000DF937C018B016A0197FD07C081E09701D7
:101FD000240F351F243833400CF080E060E070E0BF
:101FE0000E94A60FE801E01AF10ACE01801B910BB6
:101FF0008C159D053CF4C7018C0F9D1F0E94A732D4
:102000008993F3CFDF91CF911F910F91FF90EF90C4
:10201000DF90CF900895AF92BF92CF92DF92EF9270
:10202000FF920F931F93CF93DF938C017B016A0183
:1020300097FD07C081E09801240F351F24383340F5
:102040000CF080E060E070E00E94A60F5701C0E055
:10205000D0E0CC15DD0554F4CE01800F911F0E9415
:10206000A732F50181935F0181110EC0CE0DDF1DF6
:102070001882DF91CF911F910F91FF90EF90DF9029
:10208000CF90BF90AF9008952196E3CFCF92DF928B
:10209000EF92FF920F931F93CF93DF937C018B01FD
:1020A0006A0197FD07C081E09701240F351F24388E
:1020B00033400CF080E061E070E00E94A60FE80180
:1020C00000E010E00C151D054CF46991C8018E0D5F
:1020D0009F1D0E94AF320F5F1F4FF4CFDF91CF9152
:1020E0001F910F91FF90EF90DF90CF900895AF92E6
:1020F000BF92CF92DF92EF92FF920F931F93CF93F5
:10210000DF937C018B016A0197FD07C081E0970195
:10211000240F351F243833400CF080E061E070E07C
:102120000E94A60FE80100E010E00C151D055CF40C
:102130005E016991C8018E0D9F1D0E94AF32F501AD
:102140008081811110C060E0C701800F911FDF9175
:10215000CF911F910F91FF90EF90DF90CF90BF90A4
:10216000AF900C94AF320F5F1F4FDFCFCF93DF9351
:102170001F92CDB7DEB741E050E0BE016F5F7F4FE9
:102180000E94D90F89810F90DF91CF910895CF934D
:10219000DF9300D0CDB7DEB742E050E0BE016F5F05
:1021A0007F4F0E94D90F89819A810F900F90DF9104
:1021B000CF910895CF93DF9300D0CDB7DEB742E043
:1021C00050E0BE016F5F7F4F0E94D90F89819A81D5
:1021D0000F900F90DF91CF910895CF93DF9300D0B0
:1021E00000D0CDB7DEB744E050E0BE016F5F7F4F57
:1021F0000E94D90F69817A818B819C810F900F9009
:102200000F900F90DF91CF910895CF93DF931F929E
:10221000CDB7DEB7698341E050E0BE016F5F7F4F0D
:102220000E9446100F90DF91CF910895CF93DF93D6
:1022300000D0CDB7DEB77A83698342E050E0BE01BB
:102240006F5F7F4F0E9446100F900F90DF91CF91EC
:102250000895CF93DF9300D0CDB7DEB77A8369833B
:1022600042E050E0BE016F5F7F4F0E9446100F902A
:102270000F90DF91CF910895CF93DF9300D000D0DE
:10228000CDB7DEB749835A836B837C8344E050E04B
:10229000BE016F5F7F4F0E9446100F900F900F900E
:1022A0000F90DF91CF910895CF93DF93EC01699167
:1022B000662329F084E893E00E94AF32F8CFDF91E3
:1022C000CF910895CF93DF93EC018881882331F07B
:1022D00084E893E00E94A7328993F7CFDF91CF91F2
:1022E00008958AE196E00E94752191E0892708957A
:1022F0001F93CF93DF93EC018AE196E00E94752152
:10230000811107C08AE196E00E946321182F811194
:1023100002C010E005C0BE018AE196E00E94EE20F6
:10232000812FDF91CF911F910895CF93DF93EC011F
:1023300067E571E08AE196E00E94CD21BE018AE165
:1023400096E00E94E2218AE196E00E9475218111C7
:10235000FACFDF91CF910895CF93DF9300D000D0D3
:1023600000D0CDB7DEB749835A836B837C838D83DE
:102370009E8323E834E0F9018081918146E0489F03
:10238000D001499FB00D1124AD5FBC4FFE013196C5
:1023900001900D924A95E1F7019660E470E00E9489
:1023A000202CF9019183808326960FB6F894DEBF26
:1023B0000FBECDBFDF91CF9108951F93CF93DF93D1
:1023C00000D000D000D0CDB7DEB716E0CE01019628
:1023D000FC01212F11922A95E9F70E9478110E94A1
:1023E00071118823F1F02091850430918604809149
:1023F0008304909184042817390799F0C901019644
:1024000060E470E00E94202C909386048093850401
:10241000129FC001139F900D11248D5F9C4F0E944D
:10242000951126960FB6F894DEBF0FBECDBFDF9193
:10243000CF911F910895DF92EF92FF920F931F9318
:10244000CF93DF93CDB7DEB728970FB6F894DEBFF2
:102450000FBECDBF8C01D62ECE0101967C0186E049
:10246000F70111928A95E9F78AE196E00E947521B9
:102470008111FACFC7010E9478118111FBCFD110D1
:1024800006C080911D0690E080179107B9F083E2A5
:102490008F831886C80101978235910510F4009347
:1024A0001D0621E0AE01495F5F4F66E08AE196E0DC
:1024B0000E9489218AE196E00E94392228960FB66F
:1024C000F894DEBF0FBECDBFDF91CF911F910F916A
:1024D000FF90EF90DF90089580E191E090932006C7
:1024E00080931F068AE196E00E9481206DE571E0ED
:1024F0008AE196E00E94B82186E080931E060E9441
:10250000751861E00C941B12CF93DF9300D000D0BC
:102510001F92CDB7DEB725E0AE014F5F5F4F60E1A0
:102520008AE196E00E94122145E050E067E571E003
:10253000CE0101960E94D82D21E0892B09F020E0E0
:10254000822F0F900F900F900F900F90DF91CF91EF
:1025500008952091D2053091D305205B3A4F6091C8
:102560000E0170910F01FC0140814423F1F0409174
:10257000D2055091D3054138510544F44F5F5F4F68
:102580005093D3054093D205F90107C01092D305AB
:102590001092D205CB01E0E5F5E09F012F5F3F4FA0
:1025A000DC014C9140830196DECF0895A091D205C5
:1025B000B091D3059B012A0F3B1F2138310534F020
:1025C00080910E0190910F010C94A912A05BBA4F5B
:1025D000FC019F01281B390B261737071CF421919A
:1025E0002D93F7CF8091D2059091D305860F971F39
:1025F0009093D3058093D20508950E94A91283E693
:1026000091E00C94A9120F931F93CF93DF93CDB752
:10261000DEB760970FB6F894DEBF0FBECDBF282F90
:10262000332727FD30953F938F9385E691E09F9365
:102630008F938E010F5F1F4F1F930F930E94E52D05
:10264000C8010E94FD120F900F900F900F900F90F5
:102650000F9060960FB6F894DEBF0FBECDBFDF912E
:10266000CF911F910F910895CF93DF9300D0CDB7F5
:10267000DEB79E012F5F3F4F3F932F9324E531E05C
:102680003F932F9302969F938F930E94072E0F9054
:102690000F900F900F900F900F9089819A810F905B
:1026A0000F90DF91CF910895CF93DF9300D000D0AA
:1026B000CDB7DEB79E012F5F3F4F3F932F9323E3AC
:1026C00031E03F932F9302969F938F930E94072EA2
:1026D00069817A818B819C810F900F900F900F9070
:1026E0000F900F900F900F900F900F90DF91CF9160
:1026F0000895CF93DF9300D0CDB7DEB79E012F5F53
:102700003F4F3F932F932AE731E03F932F93029659
:102710009F938F930E94072E0F900F900F900F9012
:102720000F900F9089819A810F900F90DF91CF9138
:102730000895CF93DF9300D000D0CDB7DEB79E01D0
:102740002F5F3F4F3F932F9320E831E03F932F932C
:1027500002969F938F930E94072E69817A818B81C5
:102760009C810F900F900F900F900F900F900F90F3
:102770000F900F900F90DF91CF9108950F931F93BB
:10278000CF93DF93CDB7DEB7EC970FB6F894DEBFEB
:102790000FBECDBF7F936F93282F332727FD309532
:1027A0003F938F938BE691E09F938F938E010F5F02
:1027B0001F4F1F930F930E94E52DC8010E94FD1229
:1027C0000FB6F894DEBF0FBECDBFEC960FB6F894EF
:1027D000DEBF0FBECDBFDF91CF911F910F91089546
:1027E0000F931F93CF93DF93CDB7DEB760970FB6EC
:1027F000F894DEBF0FBECDBF7F936F93282F332792
:1028000027FD30953F938F9381E791E09F938F93BE
:102810008E010F5F1F4F1F930F930E94E52DC8017C
:102820000E94FD120FB6F894DEBF0FBECDBF6096BA
:102830000FB6F894DEBF0FBECDBFDF91CF911F91D1
:102840000F9108950F931F93CF93DF93CDB7DEB70A
:1028500060970FB6F894DEBF0FBECDBF7F936F9326
:10286000282F332727FD30953F938F9387E791E0FB
:102870009F938F938E010F5F1F4F1F930F930E94A3
:10288000E52DC8010E94FD120FB6F894DEBF0FBE01
:10289000CDBF60960FB6F894DEBF0FBECDBFDF91FF
:1028A000CF911F910F9108950F931F93CF93DF93B3
:1028B000CDB7DEB760970FB6F894DEBF0FBECDBFC1
:1028C0007F936F935F934F93282F332727FD309586
:1028D0003F938F938DE791E09F938F938E010F5FCE
:1028E0001F4F1F930F930E94E52DC8010E94FD12F8
:1028F0000FB6F894DEBF0FBECDBF60960FB6F8944A
:10290000DEBF0FBECDBFDF91CF911F910F91089514
:102910004F925F926F927F928F929F92AF92BF92EF
:10292000CF92DF92EF92FF920F931F93CF93DF939B
:10293000CDB7DEB7CA57D1090FB6F894DEBF0FBEC8
:10294000CDBF4091D004552747FD5095652F752F79
:10295000FA01E154F109E833F10508F02DC2EA5615
:10296000FF4F0C94532C833091050CF4D9C1BC015A
:102970006250710982ED94E00E94D61283E691E0E4
:102980000E94A9121FC284E891E09F938F931F9227
:1029900086E78F938BE691E09F938F938E010F5F75
:1029A0001F4F1F930F930E94E52DC8010E94FD1237
:1029B0000FB6F894DEBF0FBECDBF04C260E070E07A
:1029C00082E724C0FE01319686E0DF011D928A95E0
:1029D000E9F781E0898341E00AC0FE01319686E093
:1029E000DF011D928A95E9F783E0898343E05A81EC
:1029F0006B817C818D819E810E94AC11E3C10E941C
:102A00003117682F772767FD709581E70E94F013D3
:102A1000D9C180ED94E00E9434138C010E943117DB
:102A2000992787FD90950817190719F0802F0E94A4
:102A3000391881E5AFC10E945A18AB01BC0189E683
:102A40000E945414BFC180ED94E00E9499130E942B
:102A5000B71889E49FC1CE0101960E946318BE0198
:102A60006F5F7F4F8EE6A5C182ED94E00E94D6187D
:102A70008EE490C10E947518BC0183E6C7CF80ED3B
:102A800094E00E9479138C010E94E81860E0C8016C
:102A90000E941B1297C1FE01319686E0DF011D9254
:102AA0008A95E9F78DE089834DE0A1CF0E948C18CB
:102AB000682F70E084E7AACFCE0101969F938F9391
:102AC00084E591E09F938F9382ED94E09F938F93A1
:102AD0000E94072E81E029813A81232B09F480E0AE
:102AE0000E94111984E50E9403130F900F900F901C
:102AF0000F900F900F9066C10E94AD18BC018DE63B
:102B00000E9422145FC180ED94E00E9479130E941C
:102B10003E19FE01319686E0DF011D928A95E9F7A4
:102B200087E0898380ED94E00E947913582F8A838F
:102B30009B834981692F7C818D819E810E94AC118C
:102B40008DE428C10E94B218BC0181E65FCF80ED00
:102B500094E00E9434130E944319FE01319686E0EE
:102B6000DF011D928A95E9F78BE0898380ED94E07F
:102B70000E943413582F8A839B834981692F7C815B
:102B80008D819E810E94AC1181E404C185E702C160
:102B900026E0F22E8E010F5F1F4FF8012F2D1192AC
:102BA0002A95E9F78BE089830E94B218582F8A830F
:102BB0009B834981692F7C818D819E810E94AC110C
:102BC000D8011D92FA94E9F787E089830E94AD1835
:102BD000582F8A839B834981692F7C818D819E81B7
:102BE0000E94AC110E94751860E00E941B1288E7D9
:102BF000D1C0FE01319686E0DF011D928A95E9F78A
:102C000086E1898346E1F3CEFE01319686E0DF015D
:102C10001D928A95E9F787E1898380ED94E00E940F
:102C20005413562F6A837B838C839D834981672F3E
:102C3000782F892F9E810E94AC118FE4ABC080ED6C
:102C400094E00E94341343E853E0481B590B413190
:102C5000510514F040E150E07A0157FF02C0E12C29
:102C6000F12C6E01B5E6CB0ED11CA701B6010E9476
:102C7000D90F198256018E010F5F1F4FB80199E8D5
:102C8000892E91E0992EC5018C199D098E159F05FD
:102C900004F5F50181915F011F928F939F928F92AE
:102CA0001F930F93EA966FAFEA97EB967FAFEB9780
:102CB0000E94E52D0E5F1F4F0F900F900F900F9009
:102CC0000F900F90EB967FADEB97EA966FADEA977A
:102CD000DACF87E66EC080ED94E00E9434134C0199
:102CE0009E012F5F3F4F6901DF922F938E010A589B
:102CF0001F4F1F930F938EE891E09F938F9380ED6A
:102D000094E09F938F930E94072ED8018D919C9100
:102D10000FB6F894DEBF0FBECDBF813191052CF008
:102D200080910801909109014BC0181619068CF585
:102D30007E01F5E6EF0EF11C27015E0128E7A20EE9
:102D4000B11C8EE9682E81E0782ED8014D915C91FE
:102D5000C7018419950984179507BCF4BF92AF92F7
:102D60007F926F92DF92CF920E94072ED5018C91B5
:102D7000F70181937F01F2E0CF0ED11C0F900F90ED
:102D80000F900F900F900F90E0CFB201C4010E94FE
:102D9000461087E40E94031315C080E00E94940E41
:102DA00011C0CE0101960E946211BE016F5F7F4F7C
:102DB00082E60E94BE1306C080910A0190910B0129
:102DC0000E94FD12C658DF4F0FB6F894DEBF0FBE4B
:102DD000CDBFDF91CF911F910F91FF90EF90DF90CA
:102DE000CF90BF90AF909F908F907F906F905F90AB
:102DF0004F900895FB01E053FB4F8A3049F4108255
:102E0000CB010E9488141092D1051092D00508952C
:102E100080830895E2EDF5E02081318111821082F6
:102E200060E575E0C90108956091D0057091D10504
:102E30009B012F5F3F4F3093D1052093D005603821
:102E4000710514F40C94FA1680910C0190910D0107
:102E50000E94FD121092D1051092D00508950C9495
:102E6000FD1288E090E00E94B610843014F083E0F8
:102E7000089587FD80E008958F929F92AF92BF9250
:102E8000CF92DF92EF92FF920F931F93CF93DF9336
:102E900080E090E00E94ED106A3F7A4F8105910535
:102EA00009F478C080EBE82EF12C9EEC892E9AEF85
:102EB000992EA12CB12C20E2C22ED12C0CE510E0D1
:102EC000C8E3D0E061E070E0CE010E94161160E03E
:102ED00070E0CE010C960E94161160E971E0CE01FF
:102EE00048960E94161160E070E0C8010E94161119
:102EF00060E070E0C80102960E94161160E070E088
:102F0000C80104960E94161160E070E0C8010696A0
:102F10000E94161161E070E0CE018C5A9F4F0E9412
:102F2000161160E070E8CE01805A9F4F0E9429116F
:102F300060E270E0CE0184599F4F0E941611B501E6
:102F4000A401C6010E943C1149E250E064E671E030
:102F5000C7010E9477102296085F1F4F84E0C80EB9
:102F6000D11C2FEF821A920AA20AB20A8AE2E80E54
:102F7000F11CC434D10509F0A5CF60E088E090E0F1
:102F80000E9405114AEF5AEF60E070E080E090E0A7
:102F90000E943C110E943117C82FCC0FDD0BCE01CF
:102FA00088569F4F0E94DA109093D5058093D405E0
:102FB000CE018C559F4F0E94C7109093D7058093E8
:102FC000D605DF91CF911F910F91FF90EF90DF9089
:102FD000CF90BF90AF909F908F900895CF92DF9247
:102FE000EF92FF920F931F93CF93DF930091D4053D
:102FF0001091D505C091D605D091D7050E94311703
:10300000880F990B88569F4F0E94DA106C010E941E
:103010003117880F990B8C559F4F0E94C7107C0168
:10302000C016D10649F00E943117880F990BB801DC
:1030300088569F4F0E942911EC16FD0689F00E94C8
:103040003117880F990BBE018C559F4FDF91CF919F
:103050001F910F91FF90EF90DF90CF900C9416117D
:10306000DF91CF911F910F91FF90EF90DF90CF9064
:103070000895CF93DF93C82F0E94EE176C2F88E03E
:1030800090E00E940511CC0FDD0BCE0188569F4FBA
:103090000E94DA109093D5058093D405CE018C550B
:1030A0009F4F0E94C7109093D7058093D605DF915C
:1030B000CF9108950E94311724E08202C0011124AB
:1030C00080960C94ED10CF93DF93EC010E943117A2
:1030D0002AE28202C001112449E250E0BE0180557B
:1030E0009F4FDF91CF910C940B100E943117880FE6
:1030F000990BC8960C94C7100E943117880F990B32
:103100008C5B9F4F0C94C7100E943117880F990B4E
:10311000805B9F4F0C94C7100E943117880F990B4A
:1031200084579F4F0E94C71021E0892B09F420E0AB
:10313000822F0895CF93DF93EC010E94311728E08E
:103140008202C0011124845A9F4FCC0FDD1F8C0FC7
:103150009D1FDF91CF910C94C7108091D405909161
:10316000D50508958091D6059091D7050895CF9300
:10317000DF9300D000D0CDB7DEB7AB01BC014983EF
:103180005A836B837C830E94311724E08202C00142
:10319000112449815A816B817C8180960F900F9018
:1031A0000F900F90DF91CF910C943C11CF93DF9350
:1031B000EC010E9431172AE28202C001112449E287
:1031C00050E0BE0180559F4FDF91CF910C94771056
:1031D000CF93DF93EC010E943117880F990BBE014A
:1031E000C896DF91CF910C941611CF93DF93EC0129
:1031F0000E943117880F990BBE018C5B9F4FDF91A6
:10320000CF910C941611CF93DF93EC010E943117EC
:10321000880F990BBE01805B9F4FDF91CF910C947B
:103220001611CF93C82F0E9431176C2F70E0880FB2
:10323000990B84579F4FCF910C9416110F931F93A6
:10324000CF93DF9300D0CDB7DEB78C0169837A834B
:103250000E94311728E08202C0011124845A9F4F36
:10326000000F111F69817A81800F911F0F900F90BD
:10327000DF91CF911F910F910C9416119093D5056A
:103280008093D40508959093D7058093D60508952B
:1032900081E0089525EC31E0FC013183208308951D
:1032A00025EC31E0FC01318320830C94722BCF920A
:1032B000DF92EF92FF920F931F93CF93DF93CDB7DF
:1032C000DEB72C970FB6F894DEBF0FBECDBF8C01D2
:1032D0006B01DC011296ED90FC90139714968D9182
:1032E0009C911597892B29F0B8E4EB16B9E1FB0600
:1032F00031F061E970E089E192E00E949B0ED80113
:103300001496ED91FC911597B601C801099582308C
:1033100031F064E970E089E192E00E949B0ED801EF
:103320001496ED91FC911597FA83E98369EC71E0AD
:10333000C8010995D12CD8011496ED91FC911597EF
:10334000EE15FF0589F0D394AD2DAA0FBB0B81E0DC
:1033500090E08C0F9D1FA80FB91FED93FC9369ECB3
:1033600071E0C8010995E7CF89819A8115969C93F0
:103370008E931497B5E0BD1534F46AEA70E089E1E4
:1033800092E00E949B0EED2DEE0FFF0B81E090E08E
:103390008C0F9D1FE80FF91F0190F081E02D6DEC5F
:1033A00071E0C8010995DA94D7FEEDCFE980FA8083
:1033B00065ED71E0C801F7010995823009F4AFCFDE
:1033C000D8011396FC92EE9212971596FC92EE920B
:1033D00014972C960FB6F894DEBF0FBECDBFDF91C9
:1033E000CF911F910F91FF90EF90DF90CF900895B4
:1033F0006F927F928F929F92AF92BF92CF92DF9205
:10340000EF92FF920F931F93CF93DF93CDB7DEB769
:103410002C970FB6F894DEBF0FBECDBF8C016B01A9
:10342000DC011296ED90FC90139714968D919C916F
:103430001597E816F90631F069EC70E089E192E041
:103440000E949B0EF801A480B580B601C801F50169
:103450000995843029F469EC71E0C801F5010995FA
:10346000833081F3823009F033C1D80114968D90F6
:103470009C9015979A828982FC82EB82EA14FB0465
:1034800091F061ED71E0C801F7010995811105C066
:1034900069EC71E0C801F7010995D8011496ED9027
:1034A000FC901597EBCFE814F904D1F069EC71E0CA
:1034B000C801F4010995D80114966D907C90159778
:1034C000E614F70491F069EC71E0C801F701099581
:1034D000D8011496CD90DC901597C614D70439F412
:1034E00061ED71E0C801F7010995F12C86C0C8149F
:1034F000D90441F461ED71E0C801F7010995FF2499
:10350000FA947BC07C826B8269EC71E0C801F301A4
:103510000995FF24F394833039F5EE24E394EF0CFE
:10352000D8011496ED91FC911597AE2DAA0FBB0B07
:1035300081E090E08C0F9D1FA80FB91FED93FC93C5
:10354000EA15FB0559F495E09E150CF056C065E2AE
:1035500071E089E192E00E949B0E4FC069EC71E03E
:10356000C8010995FE2CD7CF80E0811146C0A5E0A7
:10357000AF1534F460E371E089E192E00E949B0EA4
:1035800061ED71E0C801F50109952F2DE22FEE0FD5
:10359000FF0B81E090E08C0F9D1FE80FF91F8081E9
:1035A00091812150C816D90619F127FFEFCF61ED9F
:1035B00071E0C801F6010995811105C069EC71E05F
:1035C000C801F6010995D8011496CD90DC901597A5
:1035D0002F2DE22FEE0FFF0B81E090E08C0F9D1F4F
:1035E000E80FF91F808191812150C816D90611F486
:1035F000F22E03C027FFEDCFDACFF7FC12C0EF2D7C
:10360000EE0FFF0BA1E0B0E0AC0FBD1FEA0FFB1FF8
:103610000190F081E02D6DEC71E0C8010995FA94FC
:10362000ECCFE980FA80F801F582E48265ED71E083
:10363000C801F7010995823009F04AC0D8011496F3
:10364000ED91FC911597FA83E98369EC71E0C8016B
:103650000995D12CD8011496ED91FC911597EE1592
:10366000FF0589F0D394AD2DAA0FBB0B81E090E04C
:103670008C0F9D1FA80FB91FED93FC9369EC71E0AF
:10368000C8010995E7CF89819A8115969C938E93FD
:103690001497B5E0BD1534F467E871E089E192E074
:1036A0000E949B0EED2DEE0FFF0B81E090E08C0F42
:1036B0009D1FE80FF91F0190F081E02D6DEC71E086
:1036C000C8010995DA94D7FEEDCFE980FA80AECF34
:1036D000D8011396FC92EE9212971596FC92EE92F8
:1036E00014972C960FB6F894DEBF0FBECDBFDF91B6
:1036F000CF911F910F91FF90EF90DF90CF90BF90EF
:10370000AF909F908F907F906F900895FF920F934E
:103710001F93CF93DF93EC018B01FFB6F894FB016D
:103720008281882319F083818F5F83838E819F81BB
:10373000892B69F41F830E83EF85F0E0E256FD4F7D
:10374000E4918091D9058E2B8093D90523C08D8576
:10375000811106C061EB72E089E192E00E949B0E4C
:103760008B8528859985E22FF92FE80FF11DE80F49
:10377000F11D118300838B85811102C08A858B879F
:103780008B8581508B878D8581508D879E8589178C
:1037900008F48E87FFBEDF91CF911F910F91FF90AC
:1037A00008951F93CF93DF93EC011FB7F8948E8198
:1037B0009F81892B31F460ED72E089E192E00E94F3
:1037C0009B0E8E819F815D856A855617B1F04C8571
:1037D00038852985E32FF22FE40FF11DE40FF11D49
:1037E000208131813F832E83411101C06C872C855C
:1037F00021502C875F5F5D870CC01F821E82EF8582
:10380000F0E0E35AFD4FE4912091D9052E23209357
:10381000D9051FBFDF91CF911F9108950F931F937B
:10382000CF93DF93EB01FC014785042F10E0643058
:103830007105A4F02091DC053091DD056217730756
:103840006CF44150483050F4D801AA0FBB1FA1506E
:10385000BA4F2D913C912817390731F065E473E098
:1038600089E192E00E949B0EF801E45EFD4F849195
:103870009FB7F894F801E256FD4F0491A091DE0540
:10388000B091DF05AC0FBD1FA80FB11D8C91802B2F
:103890008C939FBFDF91CF911F910F9108950F934C
:1038A0001F93CF93DF93EC010F858FEF800F10E014
:1038B000883048F4D801AA0FBB1FA150BA4F8D9190
:1038C0009C91892B31F063E674E089E192E00E94DB
:1038D0009B0E8FB7F894F801EE0FFF1FE150FA4FDF
:1038E000D183C0838FBFDF91CF911F910F91089536
:1038F0009093DF058093DE055093DD054093DC0552
:103900000895FF920F931F93CF93DF93FFB6F89420
:10391000C091DA05D091DB0500E010E0209709F4B2
:103920004DC088859985009769F48091DA0590915A
:10393000DB05C817D90721F10115110589F568E3E1
:1039400076E02AC0019799878887892B91F58A8527
:103950009B85009711F099878887FFBEBE018E81F5
:103960009F810E94861BFFB6F89488859985892BD4
:1039700001F58091DA059091DB05C817D90739F474
:103980008C819D819093DB058093DA050EC0011533
:10399000110531F46BE576E089E192E00E949B0E1F
:1039A0008C819D81F801958384838B8181508B83E9
:1039B00001C08E010C80DD81C02DB0CFFFBEDF9134
:1039C000CF911F910F91FF900895FF920F931F9336
:1039D000CF93DF93EC01FFB6F8940C811D810115A4
:1039E0001105A9F0F801808191819D838C838885E0
:1039F000811106C06CE776E089E192E00E949B0E9F
:103A00008885815088879985891708F48987FFBE42
:103A1000C801DF91CF911F910F91FF900895EF9210
:103A2000FF920F931F93CF93DF93D82F8B01C0E0AA
:103A3000FAE0EF2EEC9EF0011124EF51FA4F86814F
:103A4000FF24F394FC0E8D1760F4CF2D8091E005D8
:103A5000F81680F36DE275E089E192E00E949B0E1A
:103A6000E9CFCF010E94E51CEC01009731F469E336
:103A700075E089E192E00E949B0E19830883FA8227
:103A80001B82CE01DF91CF911F910F91FF90EF909C
:103A900008958F929F92AF92BF92CF92DF92EF9252
:103AA000FF920F93CF93DF9300D000D0CDB7DEB756
:103AB0006C017B016115710529F02230310541054A
:103AC000510570F46AEA76E089E192E029833A834D
:103AD0004B835C830E949B0E5C814B813A812981E0
:103AE000D6011596FC92EE92149782E016968C936E
:103AF000812C912C54018394D60116968C918017B9
:103B000048F48E5FF6018683FFEF8F1A9F0AAF0A93
:103B1000BF0AF2CF90E0A0E0B0E0281739074A07CB
:103B20005B0770F467EB76E089E192E029833A83E2
:103B30004B835C830E949B0E5C814B813A8129817F
:103B4000F6018681BA01A901481B51096109710971
:103B500081E087830480F581E02D880C991CD601D3
:103B600016968C9190E0A0E0B0E0481759076A07DC
:103B70007B07B0F0E80DF91DDF01A819B909ED9335
:103B8000FC93D60116968C911697481B5109610932
:103B9000710917968C9117978F5F17968C93DFCFCB
:103BA00011821082D60117968C91179718968C93D4
:103BB000189719968C9319971196FC92EE9213967A
:103BC000FC93EE9312970F900F900F900F90DF9150
:103BD000CF910F91FF90EF90DF90CF90BF90AF907B
:103BE0009F908F9008958F929F92AF92BF92CF92A5
:103BF000DF92EF92FF920F931F93CF93DF93EC012D
:103C00004A015B01680179018091E005833030F061
:103C100063E575E089E192E00E949B0E8091E005EA
:103C20008823C9F090E001972AE0289FF001299F9E
:103C3000F00D1124EF51FA4F868190E0A0E0B0E042
:103C40008C159D05AE05BF0530F067E575E089E18F
:103C500092E00E949B0E8091E0052AE0829FC001C5
:103C600011240C2DA5019401BE018F519A4F0E9481
:103C7000491D8091E0058F5F8093E005DF91CF9132
:103C80001F910F91FF90EF90DF90CF90BF90AF907A
:103C90009F908F9008950F931F93CF93DF93EC0124
:103CA0008B0198858F81981730F065EE76E089E179
:103CB00092E00E949B0E888199810817190728F0CD
:103CC0008A819B818017910730F466EE76E089E166
:103CD00092E00E949B0E2FB7F8948C819D81F80191
:103CE000918380831D830C8388858F5F88872FBF96
:103CF000DF91CF911F910F9108951F93CF93DF9381
:103D0000EC018A81882311F18FB7F8949B8192305E
:103D100020F091509B838FBF19C01A8111508FBF23
:103D20008091E005181730F06DEA74E089E192E0C7
:103D30000E949B0E2AE0129FC0011124BE018F51E8
:103D40009A4FDF91CF911F910C944B1EDF91CF9131
:103D50001F910895FF920F931F93CF93DF93EC0170
:103D6000288139818091DC059091DD05281739077C
:103D700034F06DE775E089E192E00E949B0E9FB7F9
:103D8000F8948A81882319F08B818F5F8B839FBF82
:103D9000E091DE05F091DF0588819981E80FF91F38
:103DA000F080FF2019F1EF2DF0E0E152FD4F04917A
:103DB00010E0F801E35AFD4FE491FE22000F111FBD
:103DC000F801E150FA4F80819181892B31F464E947
:103DD00075E089E192E00E949B0EF801E150FA4FF4
:103DE000BE01808191810E94861BDBCFCE01DF91D5
:103DF000CF911F910F91FF900C947D1EEF92FF9237
:103E00000F931F93CF93DF93EC018B017A01411540
:103E1000510559F06115710541F088859985892B07
:103E200021F488819981049734F46DE077E089E189
:103E300092E00E949B0E2FB7F894F986E8861F83C4
:103E40000E838B8181110CC08091DA059091DB0586
:103E50009D838C83D093DB05C093DA0581E08B834F
:103E60002FBFDF91CF911F910F91FF90EF90089599
:103E70000F931F93CF93DF93EC018B011D821C8264
:103E80001F821E82198618861B861A866430710569
:103E900034F465E377E089E192E00E949B0E198398
:103EA00008831A821B82DF91CF911F910F91089591
:103EB0002FB7F894FC01808591852FBF08954FB7E7
:103EC000F894FC0120853185232B21F01186108682
:103ED00081E001C080E04FBF089508950E944F0E19
:103EE000F894E091D905EE23D9F0F0E0E152FD4FCE
:103EF000E491AE2FB0E0AA0FBB1FA150BA4F0D91B5
:103F00001C91E093D8057894C8010E94D11BEC0164
:103F1000BC01C8010E94F819CE010E947D1EE0CFAD
:103F20000E94600EDDCF8F929F92AF92BF92CF9290
:103F3000DF92EF92FF920F931F93CF93DF93CDB752
:103F4000DEB76C01162F5A018FEF860F883010F400
:103F5000EF2831F062E179E089E192E00E949B0E66
:103F6000F60117821682B186A08602871386148610
:103F7000058706871787C6010E944F1CB401C6013A
:103F8000DF91CF911F910F91FF90EF90DF90CF9035
:103F9000BF90AF909F908F900C9457190C946E1F08
:103FA000CF93CFB7F89480911906811127C0EAE327
:103FB000F4E08491EBE1F4E09491E82FF0E0EE0F6F
:103FC000FF1FEC59FB4FA591B4918C91892321F4EB
:103FD00061E081E10E94C52561E081E10E948C25BC
:103FE0008CB580618CBD8CB580648CBD61E08FE048
:103FF0000E948C2561E080E10E948C258091190649
:104000008F5F80931906CFBFCF910895FC0188E0A0
:10401000818387E0828381E0838380E184831682C9
:1040200015820895AF92BF92DF92EF92FF920F93A5
:104030001F93CF93DF931F92CDB7DEB77C01D62EAF
:104040008A015B018A2D8D198217A8F4D701159674
:104050008D919C911697F50161915F01DC01ED91C5
:10406000FC910190F081E02D29830995F80181935D
:104070008F012981E7CF0F90DF91CF911F910F9191
:10408000FF90EF90DF90BF90AF900895CF92DF92B6
:10409000FF920F931F93CF93DF931F92CDB7DEB79D
:1040A0008C01F62E6B018C2D8F19841790F4D8019A
:1040B00015968D919C911697F60161916F01DC0127
:1040C000ED91FC910190F081E02D498309954981A2
:1040D000EACF0F90DF91CF911F910F91FF90DF906A
:1040E000CF90089561E0FC0181810C94C52560E0CA
:1040F000FC0181810C94C52561E0FC0182810C9456
:10410000C525CF93DF93EC0161E089810E948C2566
:1041100061E08A810E948C25CE010E947720CE0129
:104120000E947C208D819E81DC01ED91FC910280BA
:10413000F381E02DDF91CF91099460E0FC01828151
:104140000C94C5250F931F93CF93DF9300D0CDB769
:10415000DEB78C014A8369830E949D20D8011596A1
:104160008D919C911697DC01ED91FC9169816F71A5
:1041700060620190F081E02D0995F80185819681BA
:10418000DC01ED91FC910190F081E02D4A81642FDA
:104190000995C8010F900F90DF91CF911F910F915A
:1041A0000C947C20CF93DF93EC0118820E9477203F
:1041B0004BE060E0CE010E94A220CE010E9472205E
:1041C00040E367E0CE01DF91CF910C94A22021E083
:1041D000FC0120834AE060E00C94A2200F931F931F
:1041E000CF93DF93EC018B010E949D208D819E81F6
:1041F000DC01ED91FC910190F081E02D61E60995E3
:104200002C81A801B801CE010E941220CE010E948B
:104210007C2040E467E0CE01DF91CF911F910F91A8
:104220000C94A220EF92FF920F931F93CF93DF93F2
:1042300000D0CDB7DEB77C018A012A8369830E9452
:104240009D20D70115968D919C911697DC01ED91DB
:10425000FC9169816F710190F081E02D09952A81AF
:10426000A801B801C7010E941220C7010F900F904A
:10427000DF91CF911F910F91FF90EF900C947C20D4
:10428000CF93DF931F92CDB7DEB721E0AE014F5F32
:104290005F4F67E10E941221898181700F90DF9149
:1042A000CF910895CF93DF931F92CDB7DEB721E072
:1042B000AE014F5F5F4F67E00E94122189810F902E
:1042C000DF91CF910895CF93DF93EC010E945221AB
:1042D00086FD06C0CE010E94402191E0982701C0D2
:1042E00091E0892FDF91CF910895CF93DF93EC0177
:1042F0008881882341F0CE010E945221807329F0E9
:10430000CE010E94D22080E001C081E0DF91CF91F8
:104310000895EF92FF920F931F93CF93DF9300D0F6
:10432000CDB7DEB77C018A012A8369830E949D2074
:10433000D70115968D919C911697DC01ED91FC911A
:1043400069816F7160620190F081E02D09952A8189
:10435000422FB801C7010E944620C7010F900F905D
:10436000DF91CF911F910F91FF90EF900C947C20E3
:104370000F931F93CF93DF93EC018B010E94772063
:1043800025E0A8016BE0CE010E948921CE01DF91DA
:10439000CF911F910F910C9472200F931F93CF9385
:1043A000DF93EC018B0125E0AB016AE00E948921DB
:1043B00025E0A80160E1CE01DF91CF911F910F911F
:1043C0000C9489210F931F93CF93DF93EC018B0102
:1043D0000E9452218881882331F0CE010E9452210F
:1043E0008073C1F31882CE010E947720CE010E9413
:1043F000E720CE010E949D208D819E81DC01ED9100
:10440000FC910190F081E02D61EE0995CE010E94B2
:104410007C20CE010E949D208D819E81DC01ED914A
:10442000FC910190F081E02D60EA09954C81B80182
:10443000CE010E944620CE010E947C20CE01DF9159
:10444000CF911F910F910C947220CF93DF93EC01C9
:104450000E949D208D819E81DC01ED91FC91019057
:10446000F081E02D62EE0995CE01DF91CF910C94A1
:104470007C20CF93DF93EC014B8165E00E94A2206A
:104480004C8161E1CE010E94A2204C8162E1CE010B
:104490000E94A220CE010E94D220CE01DF91CF91B6
:1044A0000C9425228AE196E00C9406206EBD000053
:1044B0000DB407FEFDCF8EB5089508950E94D01F5C
:1044C0008CB5837F8CBD8CB58C7F81608CBD8DB5A8
:1044D0008E7F8DBD08950895853008F04CC0E82F7B
:1044E000F0E0EE0FFF1FEE5EFE4F718360838230BF
:1044F000E1F018F4813069F004C0833019F18430A0
:1045000071F1809169008C7F842B80936900E89A17
:10451000089580916900440F551F440F551F837FF4
:10452000842B80936900E99A08958091690034E0B2
:10453000440F551F3A95E1F78F7C842B80936900D7
:10454000EA9A08958091690026E0440F551F2A9544
:10455000E1F78F73842B80936900EB9A0895809123
:104560006A0094E0440F551F9A95E1F78F7C842BE5
:1045700080936A00EE9A08951F920F920FB60F92E1
:1045800011242F933F934F935F936F937F938F9358
:104590009F93AF93BF93EF93FF93E0911201F0913C
:1045A00013010995FF91EF91BF91AF919F918F9169
:1045B0007F916F915F914F913F912F910F900FBE1F
:1045C0000F901F9018951F920F920FB60F92112403
:1045D0002F933F934F935F936F937F938F939F930B
:1045E000AF93BF93EF93FF93E0911401F091150106
:1045F0000995FF91EF91BF91AF919F918F917F911D
:104600006F915F914F913F912F910F900FBE0F903F
:104610001F9018951F920F920FB60F9211242F938F
:104620003F934F935F936F937F938F939F93AF933A
:10463000BF93EF93FF93E0911601F0911701099555
:10464000FF91EF91BF91AF919F918F917F916F916A
:104650005F914F913F912F910F900FBE0F901F9040
:1046600018951F920F920FB60F9211242F933F931C
:104670004F935F936F937F938F939F93AF93BF936A
:10468000EF93FF93E0911801F09119010995FF91C3
:10469000EF91BF91AF919F918F917F916F915F91BA
:1046A0004F913F912F910F900FBE0F901F90189533
:1046B0001F920F920FB60F9211242F933F934F9397
:1046C0005F936F937F938F939F93AF93BF93EF937A
:1046D000FF93E0911A01F0911B010995FF91EF9171
:1046E000BF91AF919F918F917F916F915F914F910A
:1046F0003F912F910F900FBE0F901F9018951F9212
:104700000F920FB60F9211242F933F938F939F9385
:10471000AF93BF938091220690912306A091240627
:10472000B09125063091210623E0230F2D3720F488
:104730000196A11DB11D05C026E8230F0296A11DFB
:10474000B11D209321068093220690932306A09307
:104750002406B09325068091260690912706A09105
:104760002806B09129060196A11DB11D8093260649
:1047700090932706A0932806B0932906BF91AF9186
:104780009F918F913F912F910F900FBE0F901F908F
:1047900018953FB7F8948091260690912706A0912E
:1047A0002806B091290626B5A89B05C02F3F19F011
:1047B0000196A11DB11D3FBF6627782F892F9A2F23
:1047C000620F711D811D911D42E0660F771F881FCA
:1047D000991F4A95D1F708958F929F92AF92BF92F9
:1047E000CF92DF92EF92FF926B017C010E94C9236E
:1047F0004B015C01C114D104E104F104F1F00E9409
:10480000742B0E94C923681979098A099B09683E9B
:1048100073408105910570F321E0C21AD108E108C7
:10482000F10888EE880E83E0981EA11CB11CC1140B
:10483000D104E104F10429F7DDCFFF90EF90DF9080
:10484000CF90BF90AF909F908F9008958230910548
:1048500038F0880F991F880F991F05970197F1F776
:104860000895789484B5826084BD84B5816084BDE8
:1048700085B5826085BD85B5816085BDEEE6F0E0D9
:10488000808181608083E1E8F0E010828081826035
:104890008083808181608083E0E8F0E080818160B6
:1048A0008083E1E9F0E080818260808380818160A3
:1048B0008083E0E9F0E0808181608083E1ECF0E0DA
:1048C0008081846080838081826080838081816038
:1048D0008083E3ECF0E0808181608083E0ECF0E0B5
:1048E000808182608083E2ECF0E08081816080835F
:1048F000EAE7F0E080818460808380818260808349
:104900008081816080838081806880830895823186
:1049100008F08251E82FF0E0E152FC4FE4918091E1
:104920007B00E3FB222720F930E095E0220F331FC4
:104930009A95E1F78F7D822B80937B00E7708091C1
:104940001C0120E4829FC0011124E82BE0937C002D
:1049500080917A00806480937A0080917A0086FD4D
:10496000FCCF809178002091790090E0922B0895FF
:104970001F93CF93DF93182FEB0161E00E948C25EA
:10498000209711F460E004C0CF3FD10539F461E015
:10499000812FDF91CF911F910C94C525E12FF0E07D
:1049A000E551FC4F449150E0FA013197EF30F105A9
:1049B00008F06CC0E253FF4F0C94532C84B5806810
:1049C00084BDC7BD68C084B5806284BDC8BD63C0F6
:1049D00080918000806880938000D0938900C0938C
:1049E000880059C080918000806280938000D093BD
:1049F0008B00C0938A004FC08091800088608093B4
:104A00008000D0938D00C0938C0045C080919000B1
:104A1000806880939000D0939900C09398003BC029
:104A200080919000806280939000D0939B00C0930F
:104A30009A0031C080919000886080939000D0935C
:104A40009D00C0939C0027C08091C0008068809327
:104A5000C0008091C0008F7B8093C000C093CF00C6
:104A60001AC08091C00080628093C000C093D000C3
:104A700012C08091C20088608093C2008091C20001
:104A80008B7F8093C200C093D20005C0C038D1058F
:104A90000CF07DCF77CFDF91CF911F91089590E0FB
:104AA000FC013197EF30F105B0F5E352FF4F0C9464
:104AB000532C809180008F7703C0809180008F7D80
:104AC00080938000089580918000877FF9CF84B51E
:104AD0008F7702C084B58F7D84BD0895809190004A
:104AE0008F7707C0809190008F7D03C080919000E8
:104AF000877F8093900008958091C0008F7703C0D6
:104B00008091C0008F7D8093C00008958091C20085
:104B1000877F8093C2000895CF93DF9390E0FC01DC
:104B2000E65FFB4F2491FC01E75DFB4F84918823F6
:104B300049F190E0880F991FFC01EC59FB4FA591BA
:104B4000B4918A5A9B4FFC01C591D4919FB76111D2
:104B500008C0F8948C91209582238C9388818223BD
:104B60000AC0623051F4F8948C91322F309583232F
:104B70008C938881822B888304C0F8948C91822B3B
:104B80008C939FBFDF91CF9108950F931F93CF9385
:104B9000DF931F92CDB7DEB7282F30E0F901E55142
:104BA000FC4F8491F901E65FFB4F1491F901E75D39
:104BB000FB4F04910023C9F0882321F069830E94F0
:104BC0004F256981E02FF0E0EE0FFF1FEA5AFB4FFF
:104BD000A591B4919FB7F8948C91611103C0109581
:104BE000812301C0812B8C939FBF0F90DF91CF91C8
:104BF0001F910F910895CF93DF931F92CDB7DEB72A
:104C00006983DC01ED91FC910280F381E02D41E0AC
:104C100050E0BE016F5F7F4F09950F90DF91CF91FC
:104C20000895CF93DF93EC018C859D8597FF05C098
:104C300082E00E9420289D878C878C859D85DF914E
:104C4000CF91089583E00C94B42AFC018485958566
:104C500097FD06C082E00E94C82790E00196089563
:104C600082E00E94C82790E00895FC018485958524
:104C700097FD05C02FEF3FEF35872487089582E029
:104C80000C942028CF93DF93EC0180912801882396
:104C900031F083E00E9451281816190634F081E0A3
:104CA00090E09B838A8380E090E0DF91CF9108952C
:104CB000FC0120812E5F208342E450E062E774E033
:104CC00080E80C94EC28FC0121818081813A59F420
:104CD000213209F04BC047E050E061E271E080E032
:104CE0000E94EC285EC0813209F040C0233289F472
:104CF000838190E0982F88273281832BA0E0B0E059
:104D000080931D0190931E01A0931F01B093200179
:104D10000FC0203239F467E070E081E291E00E9438
:104D20001D2909C0223221F482818093280103C009
:104D30002D7F2032B1F580917A06811103C0E0E029
:104D4000F8E002C0EEEFFAE080912101909122019B
:104D5000A0912301B0912401803B9440A105B105AD
:104D600011F58091280180FF03C01DC080E00895E7
:104D7000EE3F2AE0F20731F0808191819093FF0AA3
:104D80008093FE0A87E797E7918380832BE088E191
:104D900090E00FB6F894A895809360000FBE209322
:104DA000600081E0089588E10FB6F8948093600078
:104DB000109260000FBEA895EE3F8AE0F80739F028
:104DC0008091FE0A9091FF0A91838083EACF10922E
:104DD000FF0A1092FE0AE5CF2FEF3FEFFC01358767
:104DE0002487089510922D0610922C0688EE93E0E9
:104DF000A0E0B0E080932E0690932F06A09330069B
:104E0000B093310687EE91E090932B0680932A06AB
:104E10008FEF9FEF90933706809336060895615089
:104E200030F02091F100FC0120830196F8CF289802
:104E300084E680938406089540917F065091800611
:104E400020917D0630917E0642175307B4F490916D
:104E5000E8009570E1F39091E80092FD19C080930D
:104E6000F10080917F069091800601968F739927BB
:104E7000892B19F48EEF8093E80080917F06909142
:104E8000800601969093800680937F0681E00895C6
:104E900080E00895CF92DF92EF92FF920F931F93DD
:104EA000CF93DF931F92CDB7DEB7082F162FF42EC6
:104EB000862F880F8E5F99830E941C2783E00E94B3
:104EC0001C27E02EC02E9981D92E8C2D8E1981178A
:104ED00098F4F601F7FE02C0849101C080810E941F
:104EE0001C27082F80E00E941C278023FFEFCF1A89
:104EF000DF0A8111EACF01C081E00F90DF91CF91ED
:104F00001F910F91FF90EF90DF90CF9008958091C7
:104F1000D70081608093D70080EA8093D80089B55C
:104F2000806189BD89B5826089BD09B400FEFDCF6D
:104F300061E070E080E090E00E94EC238091D80076
:104F40008F7C80618093D8008091E000807F809387
:104F5000E0000895CF93DF931F92CDB7DEB719829B
:104F6000CE0101960E9458260E94FC2BBE016F5F65
:104F70007F4F0E94752B89810F90DF91CF9108950B
:104F80002FB7FC012083F89467706093E9000895BF
:104F9000CF93DF931F92CDB7DEB7682FCE01019676
:104FA0000E94C0278091F20099819FBF0F90DF91EE
:104FB000CF910895FF920F931F93CF93DF9300D06B
:104FC000CDB7DEB7F62E8A0190918306992311F0B2
:104FD00057FF03C08FEF9FEF2BC0682FCE010196C4
:104FE0007A830E94C0278091F20090E0A8017A8124
:104FF000801791070CF4AC01EF2DF72FF40E84E627
:10500000FE1639F02898809384069091F1009193D0
:10501000F7CF4115510521F08091F200882321F04E
:1050200089818FBFCA0104C08BE68093E800F8CF66
:105030000F900F90DF91CF911F910F91FF900895E6
:10504000CF93DF931F92CDB7DEB741E050E0BE01B2
:105050006F5F7F4F0E94DA27019719F4898190E0F2
:1050600002C08FEF9FEF0F90DF91CF910895CF9304
:10507000DF931F92CDB7DEB7682FCE0101960E9455
:10508000C0279091E800892F807295FF04C090910D
:10509000F20080E4891B99819FBF0F90DF91CF912F
:1050A00008956F927F928F929F92AF92BF92CF920C
:1050B000DF92EF92FF920F931F93CF93DF931F9294
:1050C000CDB7DEB7782E7B01C42EB52E8091830636
:1050D000882369F0042F152F8AEFD82E872D807230
:1050E000982E9AE3A92E872D8074882E11C08FEFF9
:1050F0009FEF57C0872D0E943728682E81110CC062
:10510000DA94A9F361E070E080E090E00E94EC2383
:105110000115110579F73BC0282F30E0021713075E
:105120000CF4602E672DCE0101960E94C02780915D
:10513000E80085FF29C0262D30E0021B130B9920C3
:1051400039F06A948FEF6816B1F01092F100F9CF40
:10515000F701862D77FE07C0815058F09491909307
:10516000F1003196F9CF815020F091919093F100A8
:10517000FACFE20EF31E8091E80085FF0FC0011503
:10518000110511F481100AC089818FBFC1CF5D98CC
:1051900084E6809385068C2D9B2D03C0A092E800A9
:1051A000F3CF0F90DF91CF911F910F91FF90EF9070
:1051B000DF90CF90BF90AF909F908F907F906F9037
:1051C00008951092E9001092800610927F06909345
:1051D0007E0680937D060895CF92DF92FF920F9313
:1051E0001F93CF93DF9300D0CDB7DEB7F82E8A019F
:1051F0006B0101151105B1F0F601F7FE02C08491B3
:1052000001C0808149835A830E941C2701501109E3
:10521000FFEFCF1ADF0A49815A818111EACF8FEF60
:105220009FEF01C0CA010F900F90DF91CF911F91A6
:105230000F91FF90DF90CF900895BF92CF92DF92B1
:10524000EF92FF920F931F93CF93DF936C018B012B
:10525000EB013BEFB32E2097C1F07E01C134D105A5
:105260001CF020E4E22EF12C8091E80082FFFCCFBC
:10527000C8018C1B9D0B6E2D8C0D9D1D0E940F2750
:10528000B092E800CE19DF09E6CFC801DF91CF91D7
:105290001F910F91FF90EF90DF90CF90BF900895F6
:1052A0001F920F920FB60F921124DF92EF92FF928E
:1052B0000F931F932F933F934F935F936F937F931E
:1052C0008F939F93AF93BF93EF93FF93CF93DF930E
:1052D000CDB7DEB76C97DEBFCDBF1092E9008091ED
:1052E000E80083FF23C168E0CE0145960E940F27A6
:1052F00082EF8093E8003D8937FF05C08091E80088
:1053000080FFFCCF03C08EEF8093E800832F807670
:1053100009F0F0C02E894F89D88C21110CC030388B
:1053200029F4809182068093F10002C01092F1006E
:105330001092F100F4C0842F90E09D29213049F4AF
:105340003111EDC0019709F0EAC0809182068D7F8E
:105350000AC0233059F43111E2C0019709F0DFC0CF
:1053600080918206826080938206D9C0253041F404
:105370008091E80080FFFCCF40684093E300CFC0FD
:10538000263009F08DC0EB8CFC8C22E0D2122CC0B0
:1053900080E090E00E94E1280E94AA2799E08E0117
:1053A0000F5F1F4FF801292F11922A95E9F7998372
:1053B000DA8291E09E8390EA98879AEF998720910C
:1053C0007F0630918006275F3F4F3C832B838D8380
:1053D000C7010E94E12849E050E0B80180E00E9446
:1053E000EC280E94AA279BC0C7010E94E1280E94C6
:1053F000FC2BBE016B5E7F4F0E949E2B009719F025
:105400000CF08DC090C081E0D8120EC08B8D9C8DA9
:10541000089719F481E080937C0680917C068111C5
:105420002FC066EC74E031C0E3E0DE127CC08F89EF
:10543000882349F1823029F440E860E184EE94E069
:105440001CC0813029F440E86BE088ED94E015C081
:10545000833009F068C00E94FC2B8E010F5F1F4F44
:10546000B8010E94BD2BF80101900020E9F73197A7
:10547000E01BF10B40E06E2FC8010E944A274DC08F
:1054800064EB74E002C065EF74E06115710509F426
:105490004AC0FB01449150E080E80E94EC283FC0E4
:1054A000273009F440C0283021F481E08093F100D6
:1054B00036C02930A1F53370B1F5EAE2F1E081E0C0
:1054C00021E036E39081992361F08093E9002093F5
:1054D000EB0091919093EC003093ED008F5F87305B
:1054E00089F78EE78093EA001092EA008F89809313
:1054F000830615C08B8D9C8D0E94E128898D8111BA
:1055000005C0CE0145960E94632607C00E94FC2B71
:10551000BE016B5E7F4F0E94DC2B882321F08EEF53
:105520008093E80003C081E28093EB006C960FB695
:10553000F894DEBF0FBECDBFDF91CF91FF91EF9109
:10554000BF91AF919F918F917F916F915F914F919B
:105550003F912F911F910F91FF90EF90DF900F904F
:105560000FBE0F901F9018958093E9008091F20074
:10557000882319F08AE38093E80008951F920F9220
:105580000FB60F9211242F933F934F935F936F9316
:105590007F938F939F93AF93BF93CF93EF93FF939B
:1055A000C091E1008091E100837F8093E1008093CE
:1055B000E100C3FF0FC01092E90081E08093EB008F
:1055C0001092EC0082E38093ED001092830688E055
:1055D0008093F000C2FF19C083E00E94B42A80913A
:1055E0008506882339F08091850681508093850651
:1055F000882389F180918406882339F0809184067C
:10560000815080938406882341F1C4FF10C08091AB
:10561000E2008E7E81608093E2008091E1008F7EC7
:105620008093E100809181068E7E806111C0C0FF71
:1056300016C08091E2008E7E80618093E2008091AE
:10564000E1008E7E8093E100809181068E7E8160F4
:105650008093810604C05D9ACDCF289AD6CFFF9162
:10566000EF91CF91BF91AF919F918F917F916F916A
:105670005F914F913F912F910F900FBE0F901F9010
:1056800018951092830610928206109281060E944D
:1056900087278091E1008E7E8093E1008DE08093EA
:1056A000E200559A209AEEEFFFE7859194918B3FA7
:1056B0009C4D19F481E080937A06089508950E9424
:1056C00031240E945E2B8BE796E00E94412B0E94C2
:1056D000B202C0E0D0E00E94CE1F2097E1F30E940A
:1056E0000000F9CF0C94492D0895EF92FF920F938B
:1056F0001F93CF93DF937B01FC01C281D38100E034
:1057000010E0209781F0E881F9810280F381E02D9B
:10571000B701CE01099597FD08C0080F191F08842D
:10572000D985C02DEECFC80102C08FEF9FEFDF916A
:10573000CF911F910F91FF90EF9008950F931F93BA
:10574000CF93DF938B01FC01C281D381209771F04D
:10575000E881F9810480F581E02DB801CE01099539
:10576000009731F40884D985C02DF0CF80E090E017
:10577000DF91CF911F910F9108950F931F93CF93B6
:10578000DF938B01FC01C281D381209771F0E88106
:10579000F9810680F781E02DB801CE010995080F47
:1057A000111D0884D985C02DF0CFF8011082DF913A
:1057B000CF911F910F9108950F931F93CF93DF9374
:1057C0008B01FC01C281D381209771F0E881F981BE
:1057D0000190F081E02DB801CE010995811106C03C
:1057E0000884D985C02DF0CF80E001C081E0DF9131
:1057F000CF911F910F91089580918A0681110DC05C
:1058000082E08093860684E0809387061092890662
:105810001092880681E080938A0686E896E00895D3
:10582000DB018F939F930E94592CBF91AF91A29F50
:10583000800D911DA39F900DB29F900D112408958E
:1058400097FB072E16F4009407D077FD09D00E942D
:105850006C2C07FC05D03EF4909581959F4F0895E0
:10586000709561957F4F0895052E97FB1EF4009467
:105870000E944B2C57FD07D00E94802C07FC03D0C0
:105880004EF40C944B2C50954095309521953F4FFC
:105890004F4F5F4F089590958095709561957F4F1C
:1058A0008F4F9F4F0895EE0FFF1F0590F491E02D4D
:1058B00009940E94A22CA59F900DB49F900DA49FC7
:1058C000800D911D11240895B7FF0C94592C0E944E
:1058D000592C821B930B0895AA1BBB1B51E107C0D7
:1058E000AA1FBB1FA617B70710F0A61BB70B881F70
:1058F000991F5A95A9F780959095BC01CD010895FF
:10590000A1E21A2EAA1BBB1BFD010DC0AA1FBB1FC3
:10591000EE1FFF1FA217B307E407F50720F0A21B35
:10592000B30BE40BF50B661F771F881F991F1A94A2
:1059300069F760957095809590959B01AC01BD01CC
:10594000CF010895A29FB001B39FC001A39F700D26
:10595000811D1124911DB29F700D811D1124911D77
:105960000895CF93DF938230910510F482E090E0A8
:10597000E0919406F091950620E030E0A0E0B0E0E0
:10598000309739F14081518148175907B8F04817CD
:10599000590771F482819381109729F013969C9393
:1059A0008E9312972CC0909395068093940627C0EF
:1059B0002115310531F04217530718F0A901DB0119
:1059C00001C0EF019A01BD01DF010280F381E02DEA
:1059D000D7CF21153105F9F0281B390B24303105BB
:1059E00080F48A819B816115710521F0FB0193830D
:1059F000828304C09093950680939406FE013296AC
:105A000044C0FE01E20FF31F8193919322503109AC
:105A1000398328833AC02091920630919306232B34
:105A200041F42091020130910301309393062093B9
:105A3000920620910001309101012115310541F4B8
:105A40002DB73EB74091040150910501241B350B41
:105A5000E0919206F0919306E217F307A0F42E1B53
:105A60003F0B2817390778F0AC014E5F5F4F2417C2
:105A7000350748F04E0F5F1F5093930640939206F0
:105A80008193919302C0E0E0F0E0CF01DF91CF91EC
:105A90000895CF93DF93009709F487C0FC013297F4
:105AA00013821282C0919406D0919506209781F4BA
:105AB00020813181280F391F8091920690919306A1
:105AC0008217930779F5F0939306E09392066DC0E1
:105AD000DE0120E030E0AE17BF0750F412964D9182
