:100000000C948A020C9457220C947E220C94A52204
:100010000C94CC220C94B2020C94B2020C94F322F5
:100020000C94B2020C94B2020C94592A0C94EB2852
:100030000C94B2020C94B2020C94B2020C94B20270
:100040000C94B2020C94B2020C94B2020C94B20260
:100050000C94B2020C94B2020C94B2020C941A23C7
:100060000C94B2020C94B2020C94B2020C94B20240
:100070000C94B2020C94B2020C94B2020C94B20230
:100080000C94B2020C94B2020C94B2020C94B20220
:100090000C94B2020C94B2020C94960D0C94B20221
:1000A0000C94B2020C94B2020C94B2026F03BC0323
:1000B000BC036703BC0369036B03BC03BC036D0390
:1000C000730371038A03BC03BC038203BC03840370
:1000D0008603BC03BC0388038E038C03B003BC03FC
:1000E000BC03A203BC03A503AA03BC03BC03AD036A
:1000F000B803B503470481047B04540462046F040D
:10010000750472047B047B047B047B047B047B0406
:100110007B047B0468047A0CEF0CE60CA90CE60C5B
:10012000D30CDD0CD80CE60CE60CE60CE60CA60CA9
:1001300058157A16F0147A167A167A161D167A164B
:10014000D4147A167A167A163415E514BC157A1674
:10015000B9147A167A160D157A167A167A167A1650
:100160007A167A167A167A167A167A167A167A160F
:1001700053157A16EB14FC147A167A16D7156A14EE
:10018000CC147A167A167A162D15DC14AA157A165E
:10019000AF149514A414071577157A1499147915CA
:1001A00079247E2483248D249724E124E124E124EE
:1001B000A124AB24B524BF24CC24E124D4240225DB
:1001C0000525F424F824FE242625262526250925A0
:1001D0000D25112517251B25262521252F746D702A
:1001E0002F6275696C6461653362386566303236DA
:1001F0006262386436623866653335376562346406
:100200003535336261642E746D702F736B65746362
:10021000682F616F5F5478722E6370700071700088
:1002200000000000000000000001010101010101C7
:100230000102020202020202020303030303030398
:100240000304040404040404040505050505050568
:100250000506060606060606060707070707070738
:1002600007FFFEFDFBF7EFDFBF7FFEFDFBF7EFDFD4
:10027000BF7FFEFDFBF7EFDFBF7FFEFDFBF7EFDF8C
:10028000BF7FFEFDFBF7EFDFBF7FFEFDFBF7EFDF7C
:10029000BF7FFEFDFBF7EFDFBF7FFEFDFBF7EFDF6C
:1002A000BF7F0001020408102040800102040810F2
:1002B0002040800102040810204080010204081040
:1002C0002040800102040810204080010204081030
:1002D0002040800102040810204080010204081020
:1002E0002040800001020203030303040404040409
:1002F00004040405050505050505050505050505B1
:100300000505050606060606060606060606060690
:10031000060606060606060606060606060606067D
:100320000606060707070707070707070707070760
:10033000070707070707070707070707070707074D
:10034000070707070707070707070707070707073D
:10035000070707070707070707070707070707072D
:100360000707070808080808080808080808080810
:1003700008080808080808080808080808080808FD
:1003800008080808080808080808080808080808ED
:1003900008080808080808080808080808080808DD
:1003A00008080808080808080808080808080808CD
:1003B00008080808080808080808080808080808BD
:1003C00008080808080808080808080808080808AD
:1003D000080808080808080808080808080808089D
:1003E000080808070605040100080A0B0C0D09009F
:1003F00000000200090F0000030401000C000000CF
:1004000000000000000000000000000000000408E0
:10041000020110408040102040804080080204010A
:10042000804020100201108010204040200404046D
:10043000040403040502020202040302020202068B
:100440000606060606040402020204040000000078
:100450002300260029002C002F00000000002500AA
:1004600028002B002E00310000000000240027008F
:100470002A002D003000080B0002020201000904CE
:100480000000010202000005240010010524010102
:10049000010424020605240600010705810310005B
:1004A0004009040100020A000000070502024000A2
:1004B000000705830240000012010002EF02014024
:1004C00041233680000101020301120100020000F5
:1004D000004041233680000101020301417264752E
:1004E000696E6F204C4C430041726475696E6F20D9
:1004F0004C656F6E6172646F000403090463646984
:100500006E6F70737578585B0000FB0CC00EED21A8
:100510008D26440D11241FBECFEFDAE0DEBFCDBF24
:1005200011E0A0E0B1E0EEE5F7E602C005900D9223
:10053000AE3EB107D9F726E0AEEEB1E001C01D92A4
:10054000AF38B207E1F715E0C2E1D5E004C0229769
:10055000FE010E94F02BCA30D107C9F70E94FA2A87
:100560000C94A2330C9400008F929F92AF92BF9292
:10057000CF92DF92EF92FF920F931F930E942B0E68
:100580000E94081F06E010E020E030E04CE350E05D
:1005900060E070E08EEE91E00E948E1D4CE050E035
:1005A00060E070E08AE292E00E94131C812C912CA2
:1005B000A12CB12C6501E12CF12C0AE010E020E027
:1005C00030E046E352E061E08091470190914801BC
:1005D0000E942E1F1F910F91FF90EF90DF90CF9000
:1005E000BF90AF909F908F9008952BE331E0FC0176
:1005F000318320830C94E51823E431E0FC0131833E
:1006000020830C94F502CF93DF93EC010E94F50256
:10061000CE01DF91CF910C940D2BCF93DF93EC01A2
:100620000E94FC02CE01DF91CF910C940D2B0F9311
:100630001F93CF93DF93CDB7DEB7A0970FB6F89493
:10064000DEBF0FBECDBF7F936F935F934F93282F75
:10065000332727FD30953F938F9380E391E09F935D
:100660008F938E010F5F1F4F1F930F930E94802D5A
:10067000C8010E94CA160FB6F894DEBF0FBECDBFE8
:10068000A0960FB6F894DEBF0FBECDBFDF91CF911D
:100690001F910F9108950F931F93CF93DF93EC0158
:1006A0008B01562F44274C2B662757FD6095762FDC
:1006B0008CE60E94170301301105C1F4CC30D1053E
:1006C00008F05AC0FE01EA5AFF4F0C94EE2B589ADC
:1006D00053C0469A51C05F9A4FC02D9A4DC05A9A46
:1006E0004BC02F9A49C06FEF70E01AC00115110579
:1006F000F1F4CC30D10508F03FC0FE01EE59FF4FB8
:100700000C94EE2B589838C0469836C05F9834C089
:100710002D9832C05A9830C02F982EC060E070E0FB
:100720008AE0DF91CF911F910F910C9453240230F6
:10073000110511F5CC30D105F8F4FE01E259FF4F57
:100740000C94EE2B8BB191E00DC088B190E4892719
:1007500088B912C08BB1805806C085B190E20AC03A
:100760008BB194E089278BB907C085B1805803C04D
:1007700085B190E4892785B9DF91CF911F910F91C1
:100780000895FF920F931F93CF93DF9300D000D073
:1007900000D0CDB7DEB7FB01208131812A30310591
:1007A00009F44CC038F4215031092230310508F4E5
:1007B00052C04AC02E303105F1F12F30310591F091
:1007C0002B30310509F040C00E943E12882319F0F9
:1007D00060E070E002C061E070E080E090E00E94C4
:1007E0004B0339C096E0F92E8E010F5F1F4FF801C1
:1007F0008F2D11928A95E9F787E089830E94481826
:10080000582F4981692F7C818D819E810E948D1195
:10081000F8011192FA94E9F78BE089830E944D1850
:10082000582F8A839B834981692F7C818D819E818A
:100830000E948D1110C00E9489170DC00E941018CF
:1008400060E00E94FC1107C023EE38E1FC01358313
:10085000248383E001C080E026960FB6F894DEBFC3
:100860000FBECDBFDF91CF911F910F91FF900895E3
:10087000CF93DF93EC01DB018D919C910197813146
:100880009105C8F586589F4FFC010C94EE2B60E053
:1008900070E08BE090E00E944B0361E070E08AE042
:1008A00090E00E944B032DC0CE01845B9F4FDC0182
:1008B0001B961C921E921A9740E850E0BE010E94BF
:1008C000991E1FC0CE01845B9F4F0E94FA1E19C063
:1008D000DE01A058BF4F1C9285E894E008C08CEB65
:1008E0009BE005C081E99AE002C087E09AE09D8321
:1008F0008C8382E007C081EC93E09D838C8383E04E
:1009000001C080E0DF91CF910895CF93DF93EC0198
:10091000FB01808191818430910509F473C088F4D2
:1009200081309105A1F0029709F066C0CE014C9686
:100930000E94FA1E61E070E08BE090E00E944B03A1
:1009400061C080319105D9F1419701F155C061E055
:1009500070E08BE090E00E944B0380E190E09FA369
:100960008EA340E150E0BE01CE014C960E94991E3C
:10097000CE01845B9F4FFC011386128640E450E059
:10098000BE010E94991E10924C023CC0FE01E0582C
:10099000FF4F8081823084F04E9B03C087E09AE055
:1009A00007C04C9B03C081E99AE002C08CEB9BE03E
:1009B0009D838C8382E027C084E69CE0F9CF809100
:1009C0004A0290914B02892B19F06FEF70E002C040
:1009D00060E070E08BE00E94532481E090E0209181
:1009E0004A0230914B02232B11F080E090E090936B
:1009F0004B0280934A0206C084E69CE09D838C8370
:100A000083E001C080E0DF91CF91089581309105AE
:100A100099F01CF4892B39F008958230910531F05A
:100A2000039739F0089583E090E008C086E090E0F5
:100A300005C089E090E002C085E090E00C944B0393
:100A400060E070E083E090E00E944B0360E070E0C3
:100A500085E090E00E944B0360E070E086E090E06B
:100A60000E944B0360E070E089E090E00C944B033F
:100A70000F931F93CF93DF938C01EB010E94880E9D
:100A8000F801EB56FF4F8E01000F111F000F111FD1
:100A9000222717FD2095322F601B710B820B930BC1
:100AA0006083718382839383DF91CF911F910F9134
:100AB0000895CF92DF92EF92FF920F931F93CF93FF
:100AC000DF93EC010E94880E8E010B561F4FF80138
:100AD000C080D180E280F3806C197D098E099F0966
:100AE00024E030E040E050E00E94CF2B2E3FFFEFAB
:100AF0003F074F075F077CF4DA01C90132E0880F36
:100B0000991FAA1FBB1F3A95D1F7F80180839183E3
:100B1000A283B38322C0273631054105510564F015
:100B2000DA01C90188569109A109B109F801808348
:100B30009183A283B38305C012161306140615060B
:100B400064F4BA01A90145365105610571054CF0FF
:100B500044E650E060E070E004C041E050E060E056
:100B600070E0C756DF4F888199818417950721F07F
:100B700059834883CA0102C08FEF9FEFDF91CF9165
:100B80001F910F91FF90EF90DF90CF9008954F92BB
:100B90005F926F927F92AF92BF92CF92DF92EF926D
:100BA000FF920F931F93CF93DF93EB012B016624EA
:100BB00057FC6094762C6130710561F1D301C2015C
:100BC0000197A109B109B7FF07C0B095A09590950D
:100BD00081959F4FAF4FBF4F9C01AD01893191056A
:100BE000A105B10524F028E130E040E050E0AEEC92
:100BF000BFEF0E94022C28E130E040E050E00E946C
:100C0000CF2B2E5C3F4F4F4F5F4F5901C931D1055C
:100C100021F42FC0AA24AA94B12CD301C201499770
:100C2000A109B109B7FF07C0B095A095909581952E
:100C30009F4FAF4FBF4F9C01AD0189319105A10579
:100C4000B10524F028E130E040E050E0AEECBFEF29
:100C50000E94022C28E130E040E050E00E94CF2BBF
:100C60002E5C3F4F4F4F5F4F6901C233D10521F4D6
:100C70002FC0CC24CA94D12CD301C201C297A109A0
:100C8000B109B7FF07C0B095A095909581959F4F8A
:100C9000AF4FBF4F9C01AD0189319105A105B10551
:100CA00024F028E130E040E050E0AEECBFEF0E94DD
:100CB000022C28E130E040E050E00E94CF2B2E5C77
:100CC0003F4F4F4F5F4F8901CB34D10519F42FC0EF
:100CD0000FEF10E0D301C2018B549109A109B109B2
:100CE000B7FF07C0B095A095909581959F4FAF4FE6
:100CF000BF4F9C01AD0189319105A105B10524F0DB
:100D000028E130E040E050E0AEECBFEF0E94022C62
:100D100028E130E040E050E00E94CF2B2E5C3F4FB6
:100D20004F4F5F4F7901C436D10521F42DC0EE2419
:100D3000EA94F12C84E6481A51086108710877FE9C
:100D400008C07094609450944094411C511C611CE4
:100D5000711CA3019201293131054105510524F08F
:100D600028E130E040E050E0AEECBFEF0E94022C02
:100D700028E130E040E050E00E94CF2B2E5C3F4F56
:100D80004F4F5F4FE90102C0CFEFD0E0B50183E0E4
:100D90000E945324B60185E00E945324B8018BE0E1
:100DA0000E945324B8018AE00E945324B70186E0D0
:100DB0000E945324BE0189E0DF91CF911F910F91D2
:100DC000FF90EF90DF90CF90BF90AF907F906F90AB
:100DD0005F904F900C945324CF93DF93EC010E94CB
:100DE000880EFE01EC58FF4F6083718382839383EA
:100DF0003C9760837183828393833896C45ADF4F14
:100E000088819981AA81BB8180839183A283B383E6
:100E1000DF91CF9108958F929F92AF92BF92CF9220
:100E2000DF92EF92FF92CF93DF93EC01FC01EF573B
:100E3000FF4F81E08083CE010E94EC06FE01E45961
:100E4000FF4F1082118212821382B79682E3808351
:100E5000319684E68083F4974FEF5FEFBA014083C9
:100E60005183628373833496408351836283738397
:100E700064E070E0CE010E94A91B65E070E0CE0145
:100E80000E94A91B66E070E0CE010E94A91B67E0EA
:100E900070E0CE010E94A91B68E070E0CE010E94C4
:100EA000A91B69E070E0CE010E94A91B6AE070E016
:100EB000CE010E94A91B82E090E09BAB8AAB42E08E
:100EC00050E0BE01CE0188960E94991EFE01E65BAD
:100ED000FF4F80E094E09183808340E054E0BE01C6
:100EE000CE01805C9F4F0E94991E80E095E09B8F11
:100EF0008A8F40E055E0BE01CE0140960E94991EC7
:100F000080E490E09FAF8EAF40E450E0BE01CE01A0
:100F1000C4960E94991E0E9417187E0128E7E20ECF
:100F2000F11CAC01662757FD6095762FF7014083D1
:100F30005183628373830E941F184C01AA2497FC7B
:100F4000A094BA2CFE01E458FF4F80829182A282C5
:100F5000B382F701C080D180E280F3800E949D0EB1
:100F6000A50194012C193D094E095F09DC010E947D
:100F7000FF2B20E034E040E050E00E94CF2B2C0D0E
:100F80003D1D4E1D5F1DFE01E45AFF4F208331833E
:100F900042835383749620833183428353830E9418
:100FA0002718882319F084E69CE028C06E01E12C04
:100FB000F12CC7010E943518F601EE57FF4FAC0126
:100FC000662757FD6095762F408351836283738334
:100FD000FFEFEF1AFF0A24E0C20ED11C84E0E816EE
:100FE000F10439F74E9B03C087E09AE007C04C9BA1
:100FF00003C081E99AE002C08CEB9BE09D838C8367
:1010000082E0DF91CF91FF90EF90DF90CF90BF9083
:10101000AF909F908F9008954F925F926F927F92C2
:10102000AF92BF92CF92DF92EF92FF920F931F93F6
:10103000CF93DF9300D000D000D0CDB7DEB77C01D6
:101040000E94880E2B013C01670124E7C20ED11CCF
:10105000F60180819181A281B381481659066A0602
:101060007B0629F0B301A20185E60E941703570110
:10107000F0E7AF0EB11CF701E859FF4F8081918175
:10108000A281B381A3019201281B390B4A0B5B0B90
:10109000CA01B90124E030E040E050E00E94CF2BCB
:1010A000F701EF57FF4FA081BB27A7FDB0950E9426
:1010B000FF2BD5010D911D912D913C91600F711F5A
:1010C000821F931FF6014082518262827382F70170
:1010D000E45AFF4F0081118122813381601771072B
:1010E00082079307B9F06083718382839383FE0143
:1010F000319626E0DF011D922A95E9F7562F6A8383
:101100007B838C839D8347E16B817C818D819E8174
:101110000E948D1126960FB6F894DEBF0FBECDBF8C
:10112000DF91CF911F910F91FF90EF90DF90CF90C3
:10113000BF90AF907F906F905F904F900895AF9267
:10114000BF92CF92DF92EF92FF920F931F93CF93B4
:10115000DF9300D000D0CDB7DEB78C010E94880E9F
:101160006B017C01580124E7A20EB11CF5018081BE
:101170009181A281B381C816D906EA06FB0629F03F
:10118000B701A60185E60E941703F801E459FF4F55
:10119000D801A859BF4F8D919D910D90BC91A02D64
:1011A000A7019601281B390B4A0B5B0BDA01C90119
:1011B00074E0880F991FAA1FBB1F7A95D1F7408151
:1011C000518162817381840F951FA61FB71F181666
:1011D00019061A061B066CF4AC01BD01813030E81B
:1011E0009307A105B1054CF040E050E860E070E0E5
:1011F00004C041E050E060E070E049835A836B83B3
:101200007C830E944818F501C082D182E282F38279
:10121000A0E0B0E049815A816B817C814817590771
:101220006A077B07C1F0CA010E94D91849815A8117
:101230006B817C818DE60F900F900F900F90DF9166
:10124000CF911F910F91FF90EF90DF90CF90BF90C3
:10125000AF900C9417030F900F900F900F90DF91A9
:10126000CF911F910F91FF90EF90DF90CF90BF90A3
:10127000AF9008958F929F92AF92BF92CF92DF92DC
:10128000EF92FF920F931F93CF93DF9300D000D084
:1012900000D0CDB7DEB78C010E949D0E6C01EE240C
:1012A000D7FCE094FE2C480180E6880E911CF401E6
:1012B00080819181A281B381C816D906EA06FB0616
:1012C00009F45BC05801F4E6AF0EB11CF501808152
:1012D0009181A281B381C816D906EA06FB0609F4FA
:1012E0004CC0B701A60180E70E941703F501808179
:1012F0009181A281B381F40180839183A283B3831E
:10130000D501CD92DD92ED92FC9213977896808074
:101310009180A280B38034966081718182819381B3
:10132000681979098A099B09A70196010E94AB2BCC
:1013300020E034E040E050E00E94CF2B280D391D22
:101340004A1D5B1DF801E45AFF4F2083318342831D
:101350005383FE01319686E0DF011D928A95E9F7FD
:10136000822F2A833B834C835D8347E1582F6B8117
:101370007C818D819E810E948D1126960FB6F894F6
:10138000DEBF0FBECDBFDF91CF911F910F91FF90B8
:10139000EF90DF90CF90BF90AF909F908F90089587
:1013A000EF92FF920F931F93CF93DF9300D000D063
:1013B00000D0CDB7DEB77C010E9459058C010F3FEC
:1013C0008FEF1807A9F0FE01319686E0DF011D922C
:1013D0008A95E9F7502F1B830A8349E16B817C8151
:1013E0008D819E810E948D11B801C7010E94C705A1
:1013F000C70126960FB6F894DEBF0FBECDBFDF91B2
:10140000CF911F910F91FF90EF900C943A09EF92BA
:10141000FF920F931F93CF93DF93EC018B01FB019E
:10142000808191818930910569F138F4813091058D
:1014300099F0029709F46DC066C08D309105F1F006
:10144000409709F060C0CE56DF4F888160E070E0C1
:1014500090E00E9406055DC061E070E08AE090E0E7
:101460000E944B0360E070E08BE090E00E944B0331
:1014700062E370E0CE010E9438054BC0CE010E94AD
:10148000D00947C07E01FCE1EF0EF11CC7010E94AC
:10149000F31E892BF1F5F80184818E010E561F4F42
:1014A000F8018083843030F06EE372E08CED91E0DF
:1014B0000E94BA0EF8012081FE01E45AFF4F6081BC
:1014C000718182819381FE0134E0239FE00DF11D43
:1014D0001124EE57FF4F6083718382839383822FA1
:1014E00090E00E94B918F801808161E070E090E01E
:1014F0000E9406051FA21EA240E150E0BE01C701E6
:101500000E94991E06C088E394E09D838C8383E04B
:1015100001C080E0DF91CF911F910F91FF90EF907C
:101520000895CF92DF92EF92FF920F931F93CF9384
:10153000DF9300D000D000D0CDB7DEB78C01FB0127
:101540008081918182309105A1F168F5019709F0C0
:101550009EC061E070E08AE090E00E944B0361E091
:1015600070E08BE090E00E944B030E94CC1699271C
:1015700087FD9095F801E556FF4F9183808361E0E8
:1015800070E00E940605C8010E94EC060E944818FF
:10159000F801E459FF4FAC0160E070E040835183F3
:1015A000628373837BC08930910541F10D9721F0EF
:1015B0006EC00E94200572C0C8010E949F08C80129
:1015C0000E943A090E94CC16E82EFF24E7FCF09412
:1015D00005561F4FF80180819181E816F90609F43C
:1015E0005DC060E070E00E94060561E070E0C70148
:1015F0000E940605F801F182E08250C0FB01D48010
:10160000F3E0FD1534F46BE972E08CED91E00E949B
:10161000BA0E4D2D552747FD5095652F752F81E743
:101620000E9417038D2D0E94D4170E94101860E0AD
:101630000E94FC11E6E0CE2ECE0101967C01FC0159
:101640008C2D11928A95E9F787E089830E944818CA
:10165000582F4981692F7C818D819E810E948D1137
:10166000F7011192CA94E9F78BE089830E944D1823
:10167000582F8A839B834981692F7C818D819E812C
:101680000E948D11F801EE56FF4FD08207C088E30B
:1016900094E0F8019583848383E001C080E026967E
:1016A0000FB6F894DEBF0FBECDBFDF91CF911F9173
:1016B0000F91FF90EF90DF90CF900895EF92FF92FF
:1016C0000F931F93CF93DF9300D000D000D0CDB7FE
:1016D000DEB78C010E9459057C018FEFE816F806F1
:1016E000A9F0FE01319686E0DF011D928A95E9F7A7
:1016F0005E2DFB82EA8249E16B817C818D819E8136
:101700000E948D11B701C8010E94C705F801E85A6F
:10171000FF4F408151816281738134960081118134
:10172000228133814017510762077307C1F040835C
:10173000518362837383FE01319686E0DF011D923F
:101740008A95E9F7842F4A835B836C837D8347E125
:10175000582F6B817C818D819E810E948D112696F0
:101760000FB6F894DEBF0FBECDBFDF91CF911F91B2
:101770000F91FF90EF900895EF92FF920F931F93B8
:10178000CF93DF9300D000D000D0CDB7DEB78C016F
:10179000DB018D919C918230910509F447C0E8F5F9
:1017A000019709F06EC0F801E85AFF4F7801BCE5D7
:1017B000EB0EF11CD7014D915D916D917C914083B1
:1017C00051836283738361E070E08AE090E00E945D
:1017D0004B0360E070E08BE090E00E944B03FE0161
:1017E000319686E0DF011D928A95E9F7F701808145
:1017F000318122819381582F8A833B832C839D835F
:1018000047E1632F722F892F9E810E948D1162E321
:1018100070E0C8010E9438050BC08930910551F075
:101820000D9779F5C8010E945E0B02C00E94200549
:1018300080E02DC0DB011496EC90FF24E7FCF094CF
:10184000B4E0EB16F10434F06BE672E08CED91E05D
:101850000E94BA0EF801E85AFF4FC701880F991F7E
:10186000880F991F800F911FDC01AE57BF4F8D91DC
:101870009D910D90BC91A02D80839183A283B38311
:10188000D7CF88E394E0F8019583848383E026969C
:101890000FB6F894DEBF0FBECDBFDF91CF911F9181
:1018A0000F91FF90EF900895FC01EF57FF4F6130CB
:1018B000710529F06230710521F480E503C088E2EA
:1018C00001C088E0808308950F931F93CF93DF9327
:1018D00000D000D000D0CDB7DEB78C01DB01ED9198
:1018E000FC913197ED30F10508F070C0E557FF4FDE
:1018F0000C94EE2B61E070E08BE090E00E944B03D3
:1019000060E070E08AE090E00E944B030E94A00E2D
:10191000BC01C8010E94540CF801E45AFF4F108228
:10192000118212821382C8010E94EC06FE013196D8
:1019300086E0DF011D928A95E9F743E25A816B81C7
:101940007C818D819E810E948D1149C00E940C086E
:1019500046C0FC01E058FF4F808191E0980F9083D2
:10196000B49781110CC080819181A281B3817C9652
:1019700080839183A283B3830E9490180DC08081DD
:101980009181A281B381F801E458FF4F8083918354
:10199000A283B3830E949E1885E894E0F8019583A2
:1019A000848382E01DC0FC01EF57FF4F88E209C02D
:1019B000FC01EF57FF4F80E504C0FC01EF57FF4FDC
:1019C00088E08083C8010E94EC0609C081EC93E0A6
:1019D000D80115969C938E93149783E001C080E004
:1019E00026960FB6F894DEBF0FBECDBFDF91CF9124
:1019F0001F910F91089583EE98E190935002809388
:101A00004F028BE097E0909352028093510283E45F
:101A100091E090934E0280934D026BE070E08DE573
:101A200092E00E94D31E60E170E089E692E00E949D
:101A3000D31E6DE070E085E792E00E94D31E6FE058
:101A400070E081E892E00E94D31E6EE070E08DE8C5
:101A500092E00E94D31E61E170E089E992E00E9469
:101A6000D31E1092A5021092A6021092A702109205
:101A7000A8028FEF9FEF9093E7028093E602109207
:101A8000E9021092E80208958DE492E00C94FC02C1
:101A9000DC01ED91FD918081ED91FD919081ED91C1
:101AA000FD916C9163708E2309F064609F2309F0AF
:101AB0006860E5E6FDE0E60FF11D659565956D93BF
:101AC0006D917D918D919D91099423C01AC012C092
:101AD00016C010C01EC009C014C013C006C019C073
:101AE00009C00DC007C00DC014C0625070408040D6
:101AF00090400BC0615070408040904006C06E5FC7
:101B000001C06F5F7F4F8F4F9F4F9E938E937E9349
:101B10006E93089580911006909111060C94480DD3
:101B200080910C0690910D060C94480D1F920F9217
:101B30000FB60F9211242F933F934F935F936F93A0
:101B40007F938F939F93AF93BF93CF93DF93EF9345
:101B5000FF930E941C1C8FB18170C82F20E0D22FF0
:101B60008091EC029091ED02C817D90781F020977F
:101B700019F064E070E002C065E070E084E00E946B
:101B8000AA1C0E94451ED093ED02C093EC0229B11D
:101B9000C22FC075D0E08091060190910701C8174F
:101BA000D907A9F024FF03C068E070E007C026FF52
:101BB00003C067E070E002C066E070E084E00E946D
:101BC000AA1C0E94451ED0930701C09306018FB145
:101BD000827790E0C091EA02D091EB028C179D07CA
:101BE00019F1C827D927C823D9239093EB028093F2
:101BF000EA022097C9F069E070E085E00E94AA1C23
:101C0000C6FF03C0FC0114820DC0C5FF02C021E065
:101C100007C0C4FF02C022E003C0C1FF03C023E02D
:101C2000FC0124830E94451E0E94470F0E94BE11A2
:101C3000FF91EF91DF91CF91BF91AF919F918F91E4
:101C40007F916F915F914F913F912F910F900FBEB8
:101C50000F901F90189560E084E00E94272560E0B7
:101C60008CE00E94272560E087E10E94272560E044
:101C700083E10E94272560E084E10E94272560E03F
:101C800085E10E94272560E086E10E94272561E02A
:101C900083E00E94272561E085E00E94272561E01E
:101CA00086E00E94272561E089E00E94272561E007
:101CB00080E00E94272561E08BE00E94272561E0FB
:101CC0008AE00E94272540E051EE60E070E083E268
:101CD00096E00E9487260E94D7160E94261261E095
:101CE00087E10E946025479A089582E08093C000B2
:101CF00087E08093C10080E4809372001092BF005F
:101D00001092BE008CE38093CF00089578940895DC
:101D10008091F902823030F4F8948EEE92E00E94C5
:101D2000480D01C0F8946091F5027091F60280911F
:101D3000F7029091F8027894089582E10C9422249D
:101D400089B184FD08C0829586958695837091E05F
:101D50008927817001C082E090E00895AB01E09195
:101D60002306F09124060280F381E02DBC0183E27A
:101D700096E00994F8942D9A589A0C9400000895CE
:101D8000CF93DF9362E082E00E94272562E081E04A
:101D90000E942725EFE2F4E0E491F0E0EE0FFF1F50
:101DA000E45BFB4F859194919093EF028093EE0258
:101DB000E0E1F4E0E491E093F202EEE2F4E0E49199
:101DC000F0E0EE0FFF1FE45BFB4F85919491909341
:101DD000F1028093F002EFE0F4E0E491E093F3028B
:101DE0001092F5021092F6021092F7021092F80289
:101DF00080ED97E00E94C123E091EE02F091EF02A6
:101E000090818091F202982381E009F480E0E091D2
:101E1000F002F091F10290812091F302922309F0F7
:101E200082608093F402CEEED2E0D0930D06C09390
:101E30000C0641E050E060E97DE081E00E9407226D
:101E400081E08093F902D0931106C093100641E01F
:101E500050E06AE87DE083E00E9407228091F90269
:101E600090E001968093F902DF91CF91089583E28B
:101E700096E00E94C02521E0181619060CF020E01B
:101E8000822F089583E296E00E94D0250895AF92B4
:101E9000BF92CF92DF92EF92FF920F931F93CF9357
:101EA000DF930E94370F882349F00E94420F0E945F
:101EB000AF161092FB021092FA02F3CF0E94A51601
:101EC0006B017C01E701209731F18091FA0290913A
:101ED000FB02892B01F583E0A82EB12C00E010E075
:101EE000C8018C0D9D1DBE010E94AE0E080F191F6A
:101EF000C81BD90B1C161D064CF0012B61F481E0A8
:101F000090E09093FB028093FA0205C081E0A81A4A
:101F1000B10831F7F2CFDF91CF911F910F91FF9070
:101F2000EF90DF90CF90BF90AF9008950F931F93E5
:101F3000CF93DF93CDB7DEB7C456D1090FB6F8946F
:101F4000DEBF0FBECDBF811118C07F936F9389E4B0
:101F500091E09F938F938E010F5F1F4F1F930F93FD
:101F60000E94802DC8010E9444110C9400000F9023
:101F70000F900F900F900F900F90CC59DF4F0FB62E
:101F8000F894DEBF0FBECDBFDF91CF911F910F91AF
:101F90000895CF92DF92EF92FF920F931F93CF930A
:101FA000DF937C018B016A0197FD07C081E09701F7
:101FB000240F351F243833400CF080E060E070E0DF
:101FC0000E94960FE801E01AF10ACE01801B910BE6
:101FD0008C159D053CF4C7018C0F9D1F0E94423259
:101FE0008993F3CFDF91CF911F910F91FF90EF90E5
:101FF000DF90CF900895AF92BF92CF92DF92EF9291
:10200000FF920F931F93CF93DF938C017B016A01A3
:1020100097FD07C081E09801240F351F2438334015
:102020000CF080E060E070E00E94960F5701C0E085
:10203000D0E0CC15DD0554F4CE01800F911F0E9435
:102040004232F50181935F0181110EC0CE0DDF1D7B
:102050001882DF91CF911F910F91FF90EF90DF9049
:10206000CF90BF90AF9008952196E3CFCF92DF92AB
:10207000EF92FF920F931F93CF93DF937C018B011D
:102080006A0197FD07C081E09701240F351F2438AE
:1020900033400CF080E061E070E00E94960FE801B0
:1020A00000E010E00C151D054CF46991C8018E0D7F
:1020B0009F1D0E944A320F5F1F4FF4CFDF91CF91D7
:1020C0001F910F91FF90EF90DF90CF900895AF9206
:1020D000BF92CF92DF92EF92FF920F931F93CF9315
:1020E000DF937C018B016A0197FD07C081E09701B6
:1020F000240F351F243833400CF080E061E070E09D
:102100000E94960FE80100E010E00C151D055CF43C
:102110005E016991C8018E0D9F1D0E944A32F50132
:102120008081811110C060E0C701800F911FDF9195
:10213000CF911F910F91FF90EF90DF90CF90BF90C4
:10214000AF900C944A320F5F1F4FDFCFCF93DF93D6
:102150001F92CDB7DEB741E050E0BE016F5F7F4F09
:102160000E94C90F89810F90DF91CF910895CF937D
:10217000DF9300D0CDB7DEB742E050E0BE016F5F25
:102180007F4F0E94C90F89819A810F900F90DF9134
:10219000CF910895CF93DF9300D0CDB7DEB742E063
:1021A00050E0BE016F5F7F4F0E94C90F89819A8105
:1021B0000F900F90DF91CF910895CF93DF9300D0D0
:1021C00000D0CDB7DEB744E050E0BE016F5F7F4F77
:1021D0000E94C90F69817A818B819C810F900F9039
:1021E0000F900F90DF91CF910895CF93DF931F92BF
:1021F000CDB7DEB7698341E050E0BE016F5F7F4F2E
:102200000E9436100F90DF91CF910895CF93DF9306
:1022100000D0CDB7DEB77A83698342E050E0BE01DB
:102220006F5F7F4F0E9436100F900F90DF91CF911C
:102230000895CF93DF9300D0CDB7DEB77A8369835B
:1022400042E050E0BE016F5F7F4F0E9436100F905A
:102250000F90DF91CF910895CF93DF9300D000D0FE
:10226000CDB7DEB749835A836B837C8344E050E06B
:10227000BE016F5F7F4F0E9436100F900F900F903E
:102280000F90DF91CF910895CF93DF93EC01699187
:10229000662329F084E893E00E944A32F8CFDF9168
:1022A000CF91089583E196E00E94102191E0892763
:1022B00008951F93CF93DF93EC0183E196E00E9492
:1022C0001021811107C083E196E00E94FE20182FA3
:1022D000811102C010E005C0BE0183E196E00E94BA
:1022E0008920812FDF91CF911F910895CF93DF93A4
:1022F000EC0161E571E083E196E00E946821BE0196
:1023000083E196E00E947D2183E196E00E94102106
:102310008111FACFDF91CF910895CF93DF9300D051
:1023200000D000D0CDB7DEB749835A836B837C835E
:102330008D839E832CE734E0F9018081918146E012
:10234000489FD001499FB00D1124A450BD4FFE01FC
:10235000319601900D924A95E1F7019660E470E0A4
:102360000E94BB2BF9019183808326960FB6F894C7
:10237000DEBF0FBECDBFDF91CF9108951F93CF93E6
:10238000DF9300D000D000D0CDB7DEB716E0CE018D
:102390000196FC01212F11922A95E9F70E9459110B
:1023A0000E9452118823F1F020917E0430917F0425
:1023B00080917C0490917D042817390799F0C90118
:1023C000019660E470E00E94BB2B90937F048093A1
:1023D0007E04129FC001139F900D112484509D4FC5
:1023E0000E94761126960FB6F894DEBF0FBECDBFC1
:1023F000DF91CF911F910895CF93DF9300D0CDB798
:10240000DEB7611106C02091160630E028173907A3
:10241000C1F023E229831A829C012150310922351F
:10242000310510F48093160621E0AE014F5F5F4F37
:1024300066E083E196E00E94242183E196E00E9419
:10244000D4210F900F90DF91CF91089580E191E01A
:10245000909319068093180683E196E00E941C2051
:1024600067E571E083E196E00E94532186E0809366
:1024700017060E94101861E00C94FC11CF93DF93B3
:1024800000D000D01F92CDB7DEB725E0AE014F5F80
:102490005F4F60E183E196E00E94AD2045E050E0AF
:1024A00061E571E0CE0101960E94732D21E0892B38
:1024B00009F020E0822F0F900F900F900F900F9057
:1024C000DF91CF9108952091CB053091CC05275B0A
:1024D0003A4F60910E0170910F01FC01408144233D
:1024E000F1F04091CB055091CC054138510544F4B1
:1024F0004F5F5F4F5093CC054093CB05F90107C068
:102500001092CC051092CB05CB01E9E4F5E09F01D8
:102510002F5F3F4FDC014C9140830196DECF089541
:10252000A091CB05B091CC059B012A0F3B1F213810
:10253000310534F080910E0190910F010C946312DB
:10254000A75BBA4FFC019F01281B390B26173707E1
:102550001CF421912D93F7CF8091CB059091CC0560
:10256000860F971F9093CC058093CB0508950E940A
:1025700063128DE591E00C9463120F931F93CF9338
:10258000DF93CDB7DEB760970FB6F894DEBF0FBE0E
:10259000CDBF282F332727FD30953F938F938FE5AD
:1025A00091E09F938F938E010F5F1F4F1F930F93A7
:1025B0000E94802DC8010E94B7120F900F900F90BB
:1025C0000F900F900F9060960FB6F894DEBF0FBE7D
:1025D000CDBFDF91CF911F910F910895CF93DF93DE
:1025E00000D0CDB7DEB79E012F5F3F4F3F932F93B3
:1025F0002EE431E03F932F9302969F938F930E9496
:10260000A22D0F900F900F900F900F900F90898137
:102610009A810F900F90DF91CF910895CF93DF9320
:1026200000D000D0CDB7DEB79E012F5F3F4F3F9364
:102630002F9323E331E03F932F9302969F938F9341
:102640000E94A22D69817A818B819C810F900F90CD
:102650000F900F900F900F900F900F900F900F9082
:10266000DF91CF910895CF93DF9300D0CDB7DEB740
:102670009E012F5F3F4F3F932F9324E731E03F931D
:102680002F9302969F938F930E94A22D0F900F90ED
:102690000F900F900F900F9089819A810F900F905B
:1026A000DF91CF910895CF93DF9300D000D0CDB7C5
:1026B000DEB79E012F5F3F4F3F932F932AE731E014
:1026C0003F932F9302969F938F930E94A22D69812F
:1026D0007A818B819C810F900F900F900F900F90BB
:1026E0000F900F900F900F900F90DF91CF91089562
:1026F0000F931F93CF93DF93CDB7DEB7EC970FB651
:10270000F894DEBF0FBECDBF7F936F93282F332782
:1027100027FD30953F938F9385E691E09F938F93AC
:102720008E010F5F1F4F1F930F930E94802DC801D2
:102730000E94B7120FB6F894DEBF0FBECDBFEC9665
:102740000FB6F894DEBF0FBECDBFDF91CF911F91C2
:102750000F9108950F931F93CF93DF93CDB7DEB7FB
:1027600060970FB6F894DEBF0FBECDBF7F936F9317
:10277000282F332727FD30953F938F938BE691E0E9
:102780009F938F938E010F5F1F4F1F930F930E9494
:10279000802DC8010E94B7120FB6F894DEBF0FBE9D
:1027A000CDBF60960FB6F894DEBF0FBECDBFDF91F0
:1027B000CF911F910F9108950F931F93CF93DF93A4
:1027C000CDB7DEB760970FB6F894DEBF0FBECDBFB2
:1027D0007F936F93282F332727FD30953F938F9357
:1027E00081E791E09F938F938E010F5F1F4F1F939F
:1027F0000F930E94802DC8010E94B7120FB6F89463
:10280000DEBF0FBECDBF60960FB6F894DEBF0FBE21
:10281000CDBFDF91CF911F910F9108950F931F931B
:10282000CF93DF93CDB7DEB760970FB6F894DEBFD6
:102830000FBECDBF7F936F935F934F93282F3327A6
:1028400027FD30953F938F9387E791E09F938F9378
:102850008E010F5F1F4F1F930F930E94802DC801A1
:102860000E94B7120FB6F894DEBF0FBECDBF6096C0
:102870000FB6F894DEBF0FBECDBFDF91CF911F9191
:102880000F9108956F927F928F929F92AF92BF9215
:10289000CF92DF92EF92FF920F931F93CF93DF932C
:1028A000CDB7DEB7EF970FB6F894DEBF0FBECDBF42
:1028B0004091C904552747FD5095652F752FFA01A2
:1028C000E154F109E833F10508F014C2E856FF4F6E
:1028D0000C94EE2B833091050CF4D1C1BC016250F5
:1028E00071098BEC94E00E9490128DE591E00E94BA
:1028F000631206C28EE791E09F938F931F9286E743
:102900008F9385E691E09F938F938E010F5F1F4F0A
:102910001F930F930E94802DC8010E94B7120FB61B
:10292000F894DEBF0FBECDBFEBC160E070E082E780
:102930001DC0FE01319686E0DF011D928A95E9F700
:1029400081E0898341E010C1FE01319686E0DF011C
:102950001D928A95E9F783E0898343E005C10E94CF
:10296000CC16682F772767FD709581E70E94AA1320
:10297000C7C189EC94E00E94EE128C010E94CC1633
:10298000992787FD90950817190709F4B9C1802F79
:102990000E94D41781E5ABC10E94F517AB01BC01C1
:1029A00089E60E940E14ACC189EC94E00E94531396
:1029B0000E94521889E49BC1CE0101960E94FE1725
:1029C000BE016F5F7F4F8EE635C18BEC94E00E94B5
:1029D00071188EE48CC10E941018BC0183E6C6CF2A
:1029E00089EC94E00E9433138C010E94831860E00C
:1029F000C8010E94FC1184C1FE01319686E0DF010E
:102A00001D928A95E9F78DE089834DE0ADC00E9463
:102A10002718682F70E084E7A9CFCE0101969F9315
:102A20008F938EE491E09F938F938BEC94E09F9330
:102A30008F930E94A22D81E029813A81232B09F4F2
:102A400080E00E94AC1884E50E94BD120F900F90A8
:102A50000F900F900F900F9053C10E944818BC0127
:102A60008DE60E94DC134CC189EC94E00E94331384
:102A70000E94D918FE01319686E0DF011D928A95E9
:102A8000E9F787E0898389EC94E00E943313582F9B
:102A90008A839B834981692F7C818D819E810E94DD
:102AA0008D118DE424C10E944D18BC0181E65ECFDA
:102AB00089EC94E00E94EE120E94DE18FE0131962D
:102AC00086E0DF011D928A95E9F78BE0898389EC26
:102AD00094E00E94EE12582F8A839B834981692FCC
:102AE0007C818D819E810E948D1181E400C185E7EA
:102AF000FEC026E0F22E8E010F5F1F4FF8012F2D32
:102B000011922A95E9F78BE089830E944D18582F7E
:102B10008A839B834981692F7C818D819E810E945C
:102B20008D11D8011D92FA94E9F787E089830E94FC
:102B30004818582F8A839B834981692F7C818D8116
:102B40009E810E948D110E94101860E00E94FC116D
:102B500088E7CDC0FE01319686E0DF011D928A959F
:102B6000E9F786E1898346E15A816B817C818D8119
:102B70009E810E948D11C4C0FE01319686E0DF0166
:102B80001D928A95E9F787E1898389EC94E00E9498
:102B90000E13562F6A837B838C839D834981672F15
:102BA000782F892F9E810E948D118FE4A0C089EC1F
:102BB00094E00E94EE1243E853E0481B590B413168
:102BC000510514F040E150E07A0157FF02C0E12CBA
:102BD000F12C6E01BAE2CB0ED11CA701B6010E9406
:102BE000C90F198256018E010F5F1F4FB80193E87C
:102BF000892E91E0992EC5018C199D098E159F058E
:102C0000C4F4F50181915F011F928F939F928F927F
:102C10001F930F936EAF7FAF0E94802D0E5F1F4FEB
:102C20000F900F900F900F900F900F907FAD6EADA3
:102C3000E2CF87E60E94781363C089EC94E00E949B
:102C4000EE125C018E010F5F1F4F1F930F93CE0199
:102C5000CB969F938F9388E891E09F938F9389EC15
:102C600094E09F938F930E94A22D8BAD9CAD0FB6E5
:102C7000F894DEBF0FBECDBF813191052CF080915D
:102C80000801909109013AC0181619067CF57801DF
:102C90008E01065D1F4F38016E013DE3C30ED11C4E
:102CA00088E9882E81E0982E4BAD5CADC80186196D
:102CB000970984179507B4F4DF92CF929F928F9271
:102CC000FF92EF920E94A22D8DADD8018D938D01C0
:102CD000B2E0EB0EF11C0F900F900F900F900F9041
:102CE0000F90E2CFB301C5010E94361087E40E9425
:102CF000BD1206C080910A0190910B010E94B7128B
:102D0000EF960FB6F894DEBF0FBECDBFDF91CF9127
:102D10001F910F91FF90EF90DF90CF90BF90AF90F9
:102D20009F908F907F906F900895FB01E753FB4F2A
:102D30008A3049F41082CB010E9442141092CA05D5
:102D40001092C905089580830895EBECF5E0208189
:102D500031811182108269E475E0C90108956091A2
:102D6000C9057091CA059B012F5F3F4F3093CA057B
:102D70002093C9056038710514F40C949516809160
:102D80000C0190910D010E94B7121092CA05109289
:102D9000C90508950C94B71288E090E00E94A6102F
:102DA000843014F083E0089587FD80E008958F92C9
:102DB0009F92AF92BF92CF92DF92EF92FF920F93CA
:102DC0001F93CF93DF9380E090E00E94DD106A3F75
:102DD0007A4F8105910509F478C080EBE82EF12C3B
:102DE0009EEC892E9AEF992EA12CB12C20E2C22EB6
:102DF000D12C0CE510E0C8E3D0E061E070E0CE013A
:102E00000E94061160E070E0CE010C960E9406114F
:102E100060E971E0CE0148960E94061160E070E022
:102E2000C8010E94061160E070E0C80102960E948D
:102E3000061160E070E0C80104960E94061160E08F
:102E400070E0C80106960E94061161E070E0CE01B4
:102E50008C5A9F4F0E94061160E070E8CE01805AA4
:102E60009F4F0E94191160E270E0CE0184599F4F7C
:102E70000E940611B501A401C6010E942C1149E26D
:102E800050E06EE571E0C7010E9467102296085F6E
:102E90001F4F84E0C80ED11C2FEF821A920AA20A9B
:102EA000B20A8AE2E80EF11CC434D10509F0A5CFBC
:102EB00060E088E090E00E94F5104AEF5AEF60E091
:102EC00070E080E090E00E942C110E94CC16C82F88
:102ED000CC0FDD0BCE0188569F4F0E94CA109093F5
:102EE000CE058093CD05CE018C559F4F0E94B71023
:102EF0009093D0058093CF05DF91CF911F910F91D3
:102F0000FF90EF90DF90CF90BF90AF909F908F9009
:102F10000895CF92DF92EF92FF920F931F93CF937A
:102F2000DF930091CD051091CE05C091CF05D091D2
:102F3000D0050E94CC16880F990B88569F4F0E948F
:102F4000CA106C010E94CC16880F990B8C559F4FAC
:102F50000E94B7107C01C016D10649F00E94CC1621
:102F6000880F990BB80188569F4F0E941911EC16D3
:102F7000FD0689F00E94CC16880F990BBE018C5576
:102F80009F4FDF91CF911F910F91FF90EF90DF90B6
:102F9000CF900C940611DF91CF911F910F91FF906C
:102FA000EF90DF90CF900895CF93DF93C82F0E94CA
:102FB00089176C2F88E090E00E94F510CC0FDD0B94
:102FC000CE0188569F4F0E94CA109093CE058093E1
:102FD000CD05CE018C559F4F0E94B7109093D00520
:102FE0008093CF05DF91CF9108950E94CC1624E005
:102FF0008202C001112480960C94DD10CF93DF93E0
:10300000EC010E94CC162AE28202C001112449E29E
:1030100050E0BE0180559F4FDF91CF910C94FB0F84
:103020000E94CC16880F990BC8960C94B7100E947A
:10303000CC16880F990B8C5B9F4F0C94B7100E9495
:10304000CC16880F990B805B9F4F0C94B7100E9491
:10305000CC16880F990B84579F4F0E94B71021E020
:10306000892B09F420E0822F0895CF93DF93EC01A0
:103070000E94CC1628E08202C0011124845A9F4F7E
:10308000CC0FDD1F8C0F9D1FDF91CF910C94B710DB
:103090008091CD059091CE0508958091CF059091B6
:1030A000D0050895CF93DF9300D000D0CDB7DEB721
:1030B000AB01BC0149835A836B837C830E94CC168D
:1030C00024E08202C001112449815A816B817C81F4
:1030D00080960F900F900F900F90DF91CF910C94EE
:1030E0002C11CF93DF93EC010E94CC162AE28202CE
:1030F000C001112449E250E0BE0180559F4FDF918D
:10310000CF910C946710CF93DF93EC010E94CC1603
:10311000880F990BBE01C896DF91CF910C940611D0
:10312000CF93DF93EC010E94CC16880F990BBE0160
:103130008C5B9F4FDF91CF910C940611CF93DF935F
:10314000EC010E94CC16880F990BBE01805B9F4F4B
:10315000DF91CF910C940611CF93C82F0E94CC160B
:103160006C2F70E0880F990B84579F4FCF910C9470
:1031700006110F931F93CF93DF9300D0CDB7DEB727
:103180008C0169837A830E94CC1628E08202C001F8
:103190001124845A9F4F000F111F69817A81800F7B
:1031A000911F0F900F90DF91CF911F910F910C9471
:1031B00006119093CE058093CD0508959093D00588
:1031C0008093CF05089581E008952FEB31E0FC0155
:1031D0003183208308952FEB31E0FC01318320837C
:1031E0000C940D2BCF92DF92EF92FF920F931F93CF
:1031F000CF93DF93CDB7DEB72C970FB6F894DEBF31
:103200000FBECDBF8C016B01DC011296ED90FC90DE
:10321000139714968D919C911597892B29F0B3EEF5
:10322000EB16B8E1FB0631F061E970E08DE192E068
:103230000E94BA0ED8011496ED91FC911597B60133
:10324000C8010995823031F064E970E08DE192E0C7
:103250000E94BA0ED8011496ED91FC911597FA834D
:10326000E98363EC71E0C8010995D12CD80114966B
:10327000ED91FC911597EE15FF0589F0D394AD2DD6
:10328000AA0FBB0B81E090E08C0F9D1FA80FB91F08
:10329000ED93FC9363EC71E0C8010995E7CF898158
:1032A0009A8115969C938E931497B5E0BD1534F4CE
:1032B0006AEA70E08DE192E00E94BA0EED2DEE0F09
:1032C000FF0B81E090E08C0F9D1FE80FF91F01902C
:1032D000F081E02D67EC71E0C8010995DA94D7FE22
:1032E000EDCFE980FA806FEC71E0C801F701099534
:1032F000823009F4AFCFD8011396FC92EE92129768
:103300001596FC92EE9214972C960FB6F894DEBFA9
:103310000FBECDBFDF91CF911F910F91FF90EF9026
:10332000DF90CF9008956F927F928F929F92AF928D
:10333000BF92CF92DF92EF92FF920F931F93CF93A2
:10334000DF93CDB7DEB72C970FB6F894DEBF0FBE74
:10335000CDBF8C016B01DC011296ED90FC901397B0
:1033600014968D919C911597E816F90631F069EC49
:1033700070E08DE192E00E94BA0EF801A480B58061
:10338000B601C801F5010995843029F463EC71E0B8
:10339000C801F5010995833081F3823009F033C10A
:1033A000D80114968D909C9015979A828982FC8200
:1033B000EB82EA14FB0491F06BEC71E0C801F701B9
:1033C0000995811105C063EC71E0C801F701099509
:1033D000D8011496ED90FC901597EBCFE814F90402
:1033E000D1F063EC71E0C801F4010995D80114969D
:1033F0006D907C901597E614F70491F063EC71E002
:10340000C801F7010995D8011496CD90DC90159765
:10341000C614D70439F46BEC71E0C801F7010995C3
:10342000F12C86C0C814D90441F46BEC71E0C801DA
:10343000F7010995FF24FA947BC07C826B8263ECD0
:1034400071E0C801F3010995FF24F394833039F545
:10345000EE24E394EF0CD8011496ED91FC911597AE
:10346000AE2DAA0FBB0B81E090E08C0F9D1FA80F23
:10347000B91FED93FC93EA15FB0559F495E09E15F1
:103480000CF056C065E271E08DE192E00E94BA0E48
:103490004FC063EC71E0C8010995FE2CD7CF80E0E6
:1034A000811146C0A5E0AF1534F460E371E08DE111
:1034B00092E00E94BA0E6BEC71E0C801F50109952B
:1034C0002F2DE22FEE0FFF0B81E090E08C0F9D1F60
:1034D000E80FF91F808191812150C816D90619F192
:1034E00027FFEFCF6BEC71E0C801F6010995811160
:1034F00005C063EC71E0C801F6010995D801149686
:10350000CD90DC9015972F2DE22FEE0FFF0B81E071
:1035100090E08C0F9D1FE80FF91F80819181215051
:10352000C816D90611F4F22E03C027FFEDCFDACF6B
:10353000F7FC12C0EF2DEE0FFF0BA1E0B0E0AC0FD7
:10354000BD1FEA0FFB1F0190F081E02D67EC71E0D9
:10355000C8010995FA94ECCFE980FA80F801F58268
:10356000E4826FEC71E0C801F7010995823009F03F
:103570004AC0D8011496ED91FC911597FA83E9831E
:1035800063EC71E0C8010995D12CD8011496ED9136
:10359000FC911597EE15FF0589F0D394AD2DAA0F78
:1035A000BB0B81E090E08C0F9D1FA80FB91FED931E
:1035B000FC9363EC71E0C8010995E7CF89819A819A
:1035C00015969C938E931497B5E0BD1534F467E877
:1035D00071E08DE192E00E94BA0EED2DEE0FFF0B2F
:1035E00081E090E08C0F9D1FE80FF91F0190F081A2
:1035F000E02D67EC71E0C8010995DA94D7FEEDCFB4
:10360000E980FA80AECFD8011396FC92EE92129721
:103610001596FC92EE9214972C960FB6F894DEBF96
:103620000FBECDBFDF91CF911F910F91FF90EF9013
:10363000DF90CF90BF90AF909F908F907F906F90D2
:103640000895FF920F931F93CF93DF93EC018B01AB
:10365000FFB6F894FB018281882319F083818F5F84
:1036600083838E819F81892B69F41F830E83EF856D
:10367000F0E0EE55FD4FE4918091D2058E2B8093C2
:10368000D20523C08D85811106C061EB72E08DE10A
:1036900092E00E94BA0E8B8528859985E22FF92F3A
:1036A000E80FF11DE80FF11D118300838B85811157
:1036B00002C08A858B878B8581508B878D85815051
:1036C0008D879E85891708F48E87FFBEDF91CF9185
:1036D0001F910F91FF9008951F93CF93DF93EC01FB
:1036E0001FB7F8948E819F81892B31F460ED72E0D1
:1036F0008DE192E00E94BA0E8E819F815D856A8580
:103700005617B1F04C8538852985E32FF22FE40F49
:10371000F11DE40FF11D208131813F832E83411182
:1037200001C06C872C8521502C875F5F5D870CC0A2
:103730001F821E82EF85F0E0EF59FD4FE49120914A
:10374000D2052E232093D2051FBFDF91CF911F9169
:1037500008950F931F93CF93DF93EB01FC014785EF
:10376000042F10E064307105A4F02091D50530914C
:10377000D605621773076CF44150483050F4D801F5
:10378000AA0FBB1FA850BA4F2D913C91281739079B
:1037900031F065E473E08DE192E00E94BA0EF80129
:1037A000E05EFD4F84919FB7F894F801EE55FD4F10
:1037B0000491A091D705B091D805AC0FBD1FA80FFB
:1037C000B11D8C91802B8C939FBFDF91CF911F9166
:1037D0000F9108950F931F93CF93DF93EC010F8503
:1037E0008FEF800F10E0883048F4D801AA0FBB1F7C
:1037F000A850BA4F8D919C91892B31F063E674E00B
:103800008DE192E00E94BA0E8FB7F894F801EE0FA6
:10381000FF1FE850FA4FD183C0838FBFDF91CF9154
:103820001F910F9108959093D8058093D7055093D9
:10383000D6054093D5050895FF920F931F93CF931C
:10384000DF93FFB6F894C091D305D091D40500E082
:1038500010E0209709F44DC088859985009769F498
:103860008091D3059091D405C817D90721F101158E
:10387000110589F568E376E02AC001979987888762
:10388000892B91F58A859B85009711F09987888708
:10389000FFBEBE018E819F810E94211BFFB6F8945E
:1038A00088859985892B01F58091D3059091D40560
:1038B000C817D90739F48C819D819093D4058093E2
:1038C000D3050EC00115110531F46BE576E08DE1ED
:1038D00092E00E94BA0E8C819D81F80195838483C9
:1038E0008B8181508B8301C08E010C80DD81C02DC6
:1038F000B0CFFFBEDF91CF911F910F91FF90089540
:10390000FF920F931F93CF93DF93EC01FFB6F894D0
:103910000C811D8101151105A9F0F80180819181AB
:103920009D838C838885811106C06CE776E08DE1EC
:1039300092E00E94BA0E8885815088879985891700
:1039400008F48987FFBEC801DF91CF911F910F91C5
:10395000FF900895EF92FF920F931F93CF93DF9301
:10396000D82F8B01C0E0FAE0EF2EEC9EF00111247D
:10397000E652FA4F8681FF24F394FC0E8D1760F413
:10398000CF2D8091D905F81680F36DE275E08DE1B9
:1039900092E00E94BA0EE9CFCF010E94801CEC0198
:1039A000009731F469E375E08DE192E00E94BA0E70
:1039B00019830883FA821B82CE01DF91CF911F9178
:1039C0000F91FF90EF9008958F929F92AF92BF92C8
:1039D000CF92DF92EF92FF920F93CF93DF9300D0BD
:1039E00000D0CDB7DEB76C017B016115710529F000
:1039F000223031054105510570F46AEA76E08DE127
:103A000092E029833A834B835C830E94BA0E5C81E7
:103A10004B813A812981D6011596FC92EE9214973A
:103A200082E016968C93812C912C54018394D601BC
:103A300016968C91801748F48E5FF6018683FFEF0F
:103A40008F1A9F0AAF0ABF0AF2CF90E0A0E0B0E061
:103A5000281739074A075B0770F467EB76E08DE1BA
:103A600092E029833A834B835C830E94BA0E5C8187
:103A70004B813A812981F6018681BA01A901481B4F
:103A800051096109710981E087830480F581E02D86
:103A9000880C991CD60116968C9190E0A0E0B0E0BD
:103AA000481759076A077B07B0F0E80DF91DDF01D9
:103AB000A819B909ED93FC93D60116968C91169727
:103AC000481B51096109710917968C9117978F5FEF
:103AD00017968C93DFCF11821082D60117968C91A6
:103AE000179718968C93189719968C931997119687
:103AF000FC92EE921396FC93EE9312970F900F9018
:103B00000F900F90DF91CF910F91FF90EF90DF908A
:103B1000CF90BF90AF909F908F9008958F929F927B
:103B2000AF92BF92CF92DF92EF92FF920F931F93CB
:103B3000CF93DF93EC014A015B0168017901809129
:103B4000D905833030F063E575E08DE192E00E94A5
:103B5000BA0E8091D9058823C9F090E001972AE038
:103B6000289FF001299FF00D1124E652FA4F86811B
:103B700090E0A0E0B0E08C159D05AE05BF0530F0EB
:103B800067E575E08DE192E00E94BA0E8091D9055B
:103B90002AE0829FC00111240C2DA5019401BE01D1
:103BA00086529A4F0E94E41C8091D9058F5F8093C2
:103BB000D905DF91CF911F910F91FF90EF90DF908A
:103BC000CF90BF90AF909F908F9008950F931F93C9
:103BD000CF93DF93EC018B0198858F81981730F09C
:103BE00065EE76E08DE192E00E94BA0E88819981BF
:103BF0000817190728F08A819B818017910730F4F4
:103C000066EE76E08DE192E00E94BA0E2FB7F8944E
:103C10008C819D81F801918380831D830C8388852D
:103C20008F5F88872FBFDF91CF911F910F910895EC
:103C30001F93CF93DF93EC018A81882311F18FB713
:103C4000F8949B81923020F091509B838FBF19C0D4
:103C50001A8111508FBF8091D905181730F06DEA85
:103C600074E08DE192E00E94BA0E2AE0129FC0013A
:103C70001124BE0186529A4FDF91CF911F910C946F
:103C8000E61DDF91CF911F910895FF920F931F932F
:103C9000CF93DF93EC01288139818091D5059091F4
:103CA000D6052817390734F06DE775E08DE192E00D
:103CB0000E94BA0E9FB7F8948A81882319F08B81ED
:103CC0008F5F8B839FBFE091D705F091D8058881E6
:103CD0009981E80FF91FF080FF2019F1EF2DF0E036
:103CE000ED51FD4F049110E0F801EF59FD4FE491C3
:103CF000FE22000F111FF801E850FA4F80819181D8
:103D0000892B31F464E975E08DE192E00E94BA0EEE
:103D1000F801E850FA4FBE01808191810E94211B79
:103D2000DBCFCE01DF91CF911F910F91FF900C94CB
:103D3000181EEF92FF920F931F93CF93DF93EC0126
:103D40008B017A014115510559F06115710541F05A
:103D500088859985892B21F488819981049734F489
:103D60006DE077E08DE192E00E94BA0E2FB7F894F3
:103D7000F986E8861F830E838B8181110CC08091A8
:103D8000D3059091D4059D838C83D093D405C093A3
:103D9000D30581E08B832FBFDF91CF911F910F91CE
:103DA000FF90EF9008950F931F93CF93DF93EC0153
:103DB0008B011D821C821F821E82198618861B861B
:103DC0001A866430710534F465E377E08DE192E0A2
:103DD0000E94BA0E198308831A821B82DF91CF9149
:103DE0001F910F9108952FB7F894FC01808591855C
:103DF0002FBF08954FB7F894FC0120853185232B00
:103E000021F01186108681E001C080E04FBF089547
:103E100008950E94750EF894E091D205EE23D9F032
:103E2000F0E0ED51FD4FE491AE2FB0E0AA0FBB1FC3
:103E3000A850BA4F0D911C91E093D1057894C80118
:103E40000E946C1BEC01BC01C8010E949319CE01B9
:103E50000E94181EE0CF0E94860EDDCF8F929F92A7
:103E6000AF92BF92CF92DF92EF92FF920F931F9388
:103E7000CF93DF93CDB7DEB76C01162F5A018FEFCA
:103E8000860F883010F4EF2831F062E179E08DE19F
:103E900092E00E94BA0EF60117821682B186A086C1
:103EA000028713861486058706871787C6010E9436
:103EB000EA1BB401C601DF91CF911F910F91FF90D2
:103EC000EF90DF90CF90BF90AF909F908F900C9429
:103ED000F2180C94091FCF93CFB7F8948091120673
:103EE000811127C0EEE3F4E08491EFE1F4E09491D6
:103EF000E82FF0E0EE0FFF1FE859FB4FA591B491BA
:103F00008C91892321F461E081E10E94602561E0C8
:103F100081E10E9427258CB580618CBD8CB58064C1
:103F20008CBD61E08FE00E94272561E080E10E9466
:103F30002725809112068F5F80931206CFBFCF9105
:103F40000895FC0188E0818387E0828381E0838398
:103F500080E18483168215820895AF92BF92DF922A
:103F6000EF92FF920F931F93CF93DF931F92CDB7E2
:103F7000DEB77C01D62E8A015B018A2D8D1982174E
:103F8000A8F4D70115968D919C911697F501619132
:103F90005F01DC01ED91FC910190F081E02D29831E
:103FA0000995F80181938F012981E7CF0F90DF9167
:103FB000CF911F910F91FF90EF90DF90BF90AF9046
:103FC0000895CF92DF92FF920F931F93CF93DF93C9
:103FD0001F92CDB7DEB78C01F62E6B018C2D8F1999
:103FE000841790F4D80115968D919C911697F6013F
:103FF00061916F01DC01ED91FC910190F081E02D68
:10400000498309954981EACF0F90DF91CF911F91A4
:104010000F91FF90DF90CF90089561E0FC018181C6
:104020000C94602560E0FC0181810C94602561E0C6
:10403000FC0182810C946025CF93DF93EC0161E059
:1040400089810E94272561E08A810E942725CE016F
:104050000E941220CE010E9417208D819E81DC01DA
:10406000ED91FC910280F381E02DDF91CF910994D5
:1040700060E0FC0182810C9460250F931F93CF9325
:10408000DF9300D0CDB7DEB78C014A8369830E94ED
:104090003820D80115968D919C911697DC01ED91F1
:1040A000FC9169816F7160620190F081E02D09954A
:1040B000F80185819681DC01ED91FC910190F08100
:1040C000E02D4A81642F0995C8010F900F90DF9170
:1040D000CF911F910F910C941720CF93DF93EC0198
:1040E00018820E9412204BE060E0CE010E943D2029
:1040F000CE010E940D2040E367E0CE01DF91CF9119
:104100000C943D2021E0FC0120834AE060E00C9407
:104110003D200F931F93CF93DF93EC018B010E94FF
:1041200038208D819E81DC01ED91FC910190F08120
:10413000E02D61E609952C81A801B801CE010E940D
:10414000AD1FCE010E94172040E467E0CE01DF9151
:10415000CF911F910F910C943D20EF92FF920F93FE
:104160001F93CF93DF9300D0CDB7DEB77C018A01D8
:104170002A8369830E943820D70115968D919C91DE
:104180001697DC01ED91FC9169816F710190F081CE
:10419000E02D09952A81A801B801C7010E94AD1F31
:1041A000C7010F900F90DF91CF911F910F91FF905A
:1041B000EF900C941720CF93DF931F92CDB7DEB70B
:1041C00021E0AE014F5F5F4F67E10E94AD20898122
:1041D00081700F90DF91CF910895CF93DF931F925D
:1041E000CDB7DEB721E0AE014F5F5F4F67E00E94C1
:1041F000AD2089810F90DF91CF910895CF93DF9308
:10420000EC010E94ED2086FD06C0CE010E94DB205D
:1042100091E0982701C091E0892FDF91CF91089517
:10422000CF93DF93EC018881882341F0CE010E9477
:10423000ED20807329F0CE010E946D2080E001C046
:1042400081E0DF91CF910895EF92FF920F931F933A
:10425000CF93DF9300D0CDB7DEB77C018A012A83EC
:1042600069830E943820D70115968D919C911697ED
:10427000DC01ED91FC9169816F7160620190F081C8
:10428000E02D09952A81422FB801C7010E94E11F44
:10429000C7010F900F90DF91CF911F910F91FF9069
:1042A000EF900C9417200F931F93CF93DF93EC01A3
:1042B0008B010E94122025E0A8016BE0CE010E9434
:1042C0002421CE01DF91CF911F910F910C940D20ED
:1042D0000F931F93CF93DF93EC018B0125E0AB018C
:1042E0006AE00E94242125E0A80160E1CE01DF916F
:1042F000CF911F910F910C9424210F931F93CF9373
:10430000DF93EC018B010E94ED208881882331F03E
:10431000CE010E94ED208073C1F31882CE010E946D
:104320001220CE010E948220CE010E9438208D8171
:104330009E81DC01ED91FC910190F081E02D61EE18
:104340000995CE010E941720CE010E9438208D8150
:104350009E81DC01ED91FC910190F081E02D60EAFD
:1043600009954C81B801CE010E94E11FCE010E9447
:104370001720CE01DF91CF911F910F910C940D204A
:10438000CF93DF93EC010E9438208D819E81DC0168
:10439000ED91FC910190F081E02D62EE0995CE0146
:1043A000DF91CF910C941720CF93DF93EC014B81D9
:1043B00065E00E943D204C8161E1CE010E943D20DC
:1043C0004C8162E1CE010E943D20CE010E946D2011
:1043D000CE01DF91CF910C94C02183E196E00C9443
:1043E000A11F6EBD00000DB407FEFDCF8EB5089570
:1043F00008950E946B1F8CB5837F8CBD8CB58C7F1C
:1044000081608CBD8DB58E7F8DBD089508958530FA
:1044100008F04CC0E82FF0E0EE0FFF1FEE5EFE4FFD
:10442000718360838230E1F018F4813069F004C058
:10443000833019F1843071F1809169008C7F842B75
:1044400080936900E89A089580916900440F551F90
:10445000440F551F837F842B80936900E99A089548
:104460008091690034E0440F551F3A95E1F78F7C45
:10447000842B80936900EA9A08958091690026E070
:10448000440F551F2A95E1F78F73842B80936900A1
:10449000EB9A089580916A0094E0440F551F9A9515
:1044A000E1F78F7C842B80936A00EE9A08951F9227
:1044B0000F920FB60F9211242F933F934F935F9358
:1044C0006F937F938F939F93AF93BF93EF93FF93DC
:1044D000E0911201F09113010995FF91EF91BF91C5
:1044E000AF919F918F917F916F915F914F913F918C
:1044F0002F910F900FBE0F901F9018951F920F9243
:104500000FB60F9211242F933F934F935F936F93A6
:104510007F938F939F93AF93BF93EF93FF93E0911C
:104520001401F09115010995FF91EF91BF91AF91A1
:104530009F918F917F916F915F914F913F912F91BB
:104540000F900FBE0F901F9018951F920F920FB6ED
:104550000F9211242F933F934F935F936F937F9309
:104560008F939F93AF93BF93EF93FF93E0911601C7
:10457000F09117010995FF91EF91BF91AF919F9134
:104580008F917F916F915F914F913F912F910F90FC
:104590000FBE0F901F9018951F920F920FB60F929B
:1045A00011242F933F934F935F936F937F938F9338
:1045B0009F93AF93BF93EF93FF93E0911801F09116
:1045C00019010995FF91EF91BF91AF919F918F9143
:1045D0007F916F915F914F913F912F910F900FBEFF
:1045E0000F901F9018951F920F920FB60F921124E3
:1045F0002F933F934F935F936F937F938F939F93EB
:10460000AF93BF93EF93FF93E0911A01F0911B01D9
:104610000995FF91EF91BF91AF919F918F917F91FC
:104620006F915F914F913F912F910F900FBE0F901F
:104630001F9018951F920F920FB60F9211242F936F
:104640003F938F939F93AF93BF9380911B0690915D
:104650001C06A0911D06B0911E0630911A0623E09B
:10466000230F2D3720F40196A11DB11D05C026E8AA
:10467000230F0296A11DB11D20931A0680931B06DD
:1046800090931C06A0931D06B0931E0680911F06F2
:1046900090912006A0912106B09122060196A11DBD
:1046A000B11D80931F0690932006A0932106B0931E
:1046B0002206BF91AF919F918F913F912F910F90C3
:1046C0000FBE0F901F9018953FB7F89480911F066A
:1046D00090912006A0912106B091220626B5A89BB4
:1046E00005C02F3F19F00196A11DB11D3FBF6627E0
:1046F000782F892F9A2F620F711D811D911D42E025
:10470000660F771F881F991F4A95D1F708958F92DA
:104710009F92AF92BF92CF92DF92EF92FF926B0186
:104720007C010E9464234B015C01C114D104E104AB
:10473000F104F1F00E940F2B0E946423681979099B
:104740008A099B09683E73408105910570F321E059
:10475000C21AD108E108F10888EE880E83E0981E9D
:10476000A11CB11CC114D104E104F10429F7DDCF6F
:10477000FF90EF90DF90CF90BF90AF909F908F9081
:1047800008958230910538F0880F991F880F991F7E
:1047900005970197F1F70895789484B5826084BDF8
:1047A00084B5816084BD85B5826085BD85B5816035
:1047B00085BDEEE6F0E0808181608083E1E8F0E095
:1047C0001082808182608083808181608083E0E8C4
:1047D000F0E0808181608083E1E9F0E080818260A7
:1047E0008083808181608083E0E9F0E08081816066
:1047F0008083E1ECF0E0808184608083808182604E
:104800008083808181608083E3ECF0E0808181603F
:104810008083E0ECF0E0808182608083E2ECF0E075
:10482000808181608083EAE7F0E08081846080831A
:1048300080818260808380818160808380818068C4
:1048400080830895823108F08251E82FF0E0ED5125
:10485000FC4FE49180917B00E3FB222720F930E0BC
:1048600095E0220F331F9A95E1F78F7D822B80937D
:104870007B00E77080911C0120E4829FC00111241D
:10488000E82BE0937C0080917A00806480937A002A
:1048900080917A0086FDFCCF80917800209179008C
:1048A00090E0922B08951F93CF93DF93182FEB0185
:1048B00061E00E942725209711F460E004C0CF3FFB
:1048C000D10539F461E0812FDF91CF911F910C94D4
:1048D0006025E12FF0E0E151FC4F449150E0FA01F6
:1048E0003197EF30F10508F06CC0E053FF4F0C94A6
:1048F000EE2B84B5806884BDC7BD68C084B5806276
:1049000084BDC8BD63C080918000806880938000B2
:10491000D0938900C093880059C080918000806244
:1049200080938000D0938B00C0938A004FC0809109
:104930008000886080938000D0938D00C0938C00AD
:1049400045C080919000806880939000D09399003A
:10495000C09398003BC0809190008062809390004B
:10496000D0939B00C0939A0031C0809190008860E2
:1049700080939000D0939D00C0939C0027C08091AD
:10498000C00080688093C0008091C0008F7B8093BE
:10499000C000C093CF001AC08091C0008062809395
:1049A000C000C093D00012C08091C2008860809384
:1049B000C2008091C2008B7F8093C200C093D2005E
:1049C00005C0C038D1050CF07DCF77CFDF91CF91F6
:1049D0001F91089590E0FC013197EF30F105B0F59B
:1049E000E152FF4F0C94EE2B809180008F7703C033
:1049F000809180008F7D8093800008958091800059
:104A0000877FF9CF84B58F7702C084B58F7D84BD51
:104A10000895809190008F7707C0809190008F7DDE
:104A200003C080919000877F8093900008958091CB
:104A3000C0008F7703C08091C0008F7D8093C0003D
:104A400008958091C200877F8093C2000895CF931C
:104A5000DF9390E0FC01E25FFB4F2491FC01E35DFA
:104A6000FB4F8491882349F190E0880F991FFC0146
:104A7000E859FB4FA591B491865A9B4FFC01C59113
:104A8000D4919FB7611108C0F8948C91209582232E
:104A90008C93888182230AC0623051F4F8948C91FF
:104AA000322F309583238C938881822B888304C096
:104AB000F8948C91822B8C939FBFDF91CF910895B6
:104AC0000F931F93CF93DF931F92CDB7DEB7282F9D
:104AD00030E0F901E151FC4F8491F901E25FFB4FB5
:104AE0001491F901E35DFB4F04910023C9F0882381
:104AF00021F069830E94EA246981E02FF0E0EE0F43
:104B0000FF1FE65AFB4FA591B4919FB7F8948C9183
:104B1000611103C01095812301C0812B8C939FBF2D
:104B20000F90DF91CF911F910F910895CF93DF9355
:104B30001F92CDB7DEB76983DC01ED91FC91028055
:104B4000F381E02D41E050E0BE016F5F7F4F09959A
:104B50000F90DF91CF910895CF93DF93EC018C8577
:104B60009D8597FF05C082E00E94BB279D878C87AB
:104B70008C859D85DF91CF91089583E00C944F2A19
:104B8000FC018485958597FD06C082E00E9463271D
:104B900090E00196089582E00E94632790E00895D6
:104BA000FC018485958597FD05C02FEF3FEF358784
:104BB0002487089582E00C94BB27CF93DF93EC0108
:104BC00080912801882331F083E00E94EC27181699
:104BD000190634F081E090E09B838A8380E090E0C6
:104BE000DF91CF910895FC0120812E5F208342E464
:104BF00050E066E774E080E80C948728FC0121818E
:104C00008081813A59F4213209F04BC047E050E0ED
:104C100061E271E080E00E9487285EC0813209F085
:104C200040C0233289F4838190E0982F8827328115
:104C3000832BA0E0B0E080931D0190931E01A09310
:104C40001F01B09320010FC0203239F467E070E0FB
:104C500081E291E00E94B82809C0223221F48281C9
:104C60008093280103C02D7F2032B1F58091730617
:104C7000811103C0E0E0F8E002C0EEEFFAE08091BD
:104C8000210190912201A0912301B0912401803B48
:104C90009440A105B10511F58091280180FF03C062
:104CA0001DC080E00895EE3F2AE0F20731F08081D8
:104CB00091819093FF0A8093FE0A87E797E791839B
:104CC00080832BE088E190E00FB6F894A89580935C
:104CD00060000FBE2093600081E0089588E10FB668
:104CE000F89480936000109260000FBEA895EE3F8C
:104CF0008AE0F80739F08091FE0A9091FF0A9183CB
:104D00008083EACF1092FF0A1092FE0AE5CF2FEFC0
:104D10003FEFFC01358724870895109226061092F4
:104D2000250688EE93E0A0E0B0E0809327069093FC
:104D30002806A0932906B0932A0681EE91E090936D
:104D40002406809323068FEF9FEF90933006809385
:104D50002F060895615030F02091F100FC0120836E
:104D60000196F8CF289884E680937D0608954091B7
:104D70007806509179062091760630917706421791
:104D80005307B4F49091E8009570E1F39091E80036
:104D900092FD19C08093F100809178069091790678
:104DA00001968F739927892B19F48EEF8093E80071
:104DB0008091780690917906019690937906809378
:104DC000780681E0089580E00895CF92DF92EF9217
:104DD000FF920F931F93CF93DF931F92CDB7DEB750
:104DE000082F162FF42E862F880F8E5F99830E942E
:104DF000B72683E00E94B726E02EC02E9981D92ED7
:104E00008C2D8E19811798F4F601F7FE02C084915B
:104E100001C080810E94B726082F80E00E94B7263B
:104E20008023FFEFCF1ADF0A8111EACF01C081E0B2
:104E30000F90DF91CF911F910F91FF90EF90DF9036
:104E4000CF9008958091D70081608093D70080EA49
:104E50008093D80089B5806189BD89B5826089BD9C
:104E600009B400FEFDCF61E070E080E090E00E94B8
:104E700087238091D8008F7C80618093D8008091B7
:104E8000E000807F8093E0000895CF93DF931F922E
:104E9000CDB7DEB71982CE0101960E94F3250E949C
:104EA000972BBE016F5F7F4F0E94102B89810F905F
:104EB000DF91CF9108952FB7FC012083F89467709C
:104EC0006093E9000895CF93DF931F92CDB7DEB7CB
:104ED000682FCE0101960E945B278091F200998194
:104EE0009FBF0F90DF91CF910895FF920F931F9373
:104EF000CF93DF9300D0CDB7DEB7F62E8A01909125
:104F00007C06992311F057FF03C08FEF9FEF2BC052
:104F1000682FCE0101967A830E945B278091F20070
:104F200090E0A8017A81801791070CF4AC01EF2D75
:104F3000F72FF40E84E6FE1639F0289880937D064C
:104F40009091F1009193F7CF4115510521F0809197
:104F5000F200882321F089818FBFCA0104C08BE64B
:104F60008093E800F8CF0F900F90DF91CF911F91C1
:104F70000F91FF900895CF93DF931F92CDB7DEB7C7
:104F800041E050E0BE016F5F7F4F0E94752701979F
:104F900019F4898190E002C08FEF9FEF0F90DF91AD
:104FA000CF910895CF93DF931F92CDB7DEB7682FCF
:104FB000CE0101960E945B279091E800892F8072B4
:104FC00095FF04C09091F20080E4891B99819FBFF6
:104FD0000F90DF91CF9108956F927F928F929F9261
:104FE000AF92BF92CF92DF92EF92FF920F931F93F7
:104FF000CF93DF931F92CDB7DEB7782E7B01C42EFF
:10500000B52E80917C06882369F0042F152F8AEF36
:10501000D82E872D8072982E9AE3A92E872D807422
:10502000882E11C08FEF9FEF57C0872D0E94D22787
:10503000682E81110CC0DA94A9F361E070E080E081
:1050400090E00E9487230115110579F73BC0282FB6
:1050500030E0021713070CF4602E672DCE01019685
:105060000E945B278091E80085FF29C0262D30E053
:10507000021B130B992039F06A948FEF6816B1F078
:105080001092F100F9CFF701862D77FE07C081500D
:1050900058F094919093F1003196F9CF815020F01F
:1050A00091919093F100FACFE20EF31E8091E80007
:1050B00085FF0FC00115110511F481100AC0898107
:1050C0008FBFC1CF5D9884E680937E068C2D9B2D8B
:1050D00003C0A092E800F3CF0F90DF91CF911F9112
:1050E0000F91FF90EF90DF90CF90BF90AF909F9087
:1050F0008F907F906F9008951092E900109279063A
:105100001092780690937706809376060895CF9252
:10511000DF92FF920F931F93CF93DF9300D0CDB711
:10512000DEB7F82E8A016B0101151105B1F0F60109
:10513000F7FE02C0849101C0808149835A830E9496
:10514000B72601501109FFEFCF1ADF0A49815A81B2
:105150008111EACF8FEF9FEF01C0CA010F900F902E
:10516000DF91CF911F910F91FF90DF90CF90089525
:10517000BF92CF92DF92EF92FF920F931F93CF9344
:10518000DF936C018B01EB013BEFB32E2097C1F055
:105190007E01C134D1051CF020E4E22EF12C809177
:1051A000E80082FFFCCFC8018C1B9D0B6E2D8C0D7F
:1051B0009D1D0E94AA26B092E800CE19DF09E6CF15
:1051C000C801DF91CF911F910F91FF90EF90DF9079
:1051D000CF90BF9008951F920F920FB60F92112497
:1051E000DF92EF92FF920F931F932F933F934F9372
:1051F0005F936F937F938F939F93AF93BF93EF933F
:10520000FF93CF93DF93CDB7DEB76C97DEBFCDBFF3
:105210001092E9008091E80083FF23C168E0CE018D
:1052200045960E94AA2682EF8093E8003D8937FFC9
:1052300005C08091E80080FFFCCF03C08EEF809313
:10524000E800832F807609F0F0C02E894F89D88C32
:1052500021110CC0303829F480917B068093F10035
:1052600002C01092F1001092F100F4C0842F90E07F
:105270009D29213049F43111EDC0019709F0EAC0B0
:1052800080917B068D7F0AC0233059F43111E2C032
:10529000019709F0DFC080917B06826080937B06D6
:1052A000D9C0253041F48091E80080FFFCCF4068F0
:1052B0004093E300CFC0263009F08DC0EB8CFC8C0E
:1052C00022E0D2122CC080E090E00E947C280E9454
:1052D000452799E08E010F5F1F4FF801292F11928A
:1052E0002A95E9F79983DA8291E09E8390EA98877C
:1052F0009AEF99872091780630917906275F3F4F82
:105300003C832B838D83C7010E947C2849E050E0B9
:10531000B80180E00E9487280E9445279BC0C701F2
:105320000E947C280E94972BBE016B5E7F4F0E94DB
:10533000392B009719F00CF08DC090C081E0D81285
:105340000EC08B8D9C8D089719F481E080937506B3
:105350008091750681112FC06AEC74E031C0E3E0E2
:10536000DE127CC08F89882349F1823029F440E81D
:1053700060E188EE94E01CC0813029F440E86BE0E5
:105380008CED94E015C0833009F068C00E94972B23
:105390008E010F5F1F4FB8010E94582BF80101903A
:1053A0000020E9F73197E01BF10B40E06E2FC801B8
:1053B0000E94E5264DC068EB74E002C069EF74E01E
:1053C0006115710509F44AC0FB01449150E080E881
:1053D0000E9487283FC0273009F440C0283021F4BC
:1053E00081E08093F10036C02930A1F53370B1F52A
:1053F000EAE2F1E081E021E036E39081992361F077
:105400008093E9002093EB0091919093EC0030930E
:10541000ED008F5F873089F78EE78093EA00109266
:10542000EA008F8980937C0615C08B8D9C8D0E942D
:105430007C28898D811105C0CE0145960E94FE25EC
:1054400007C00E94972BBE016B5E7F4F0E94772B97
:10545000882321F08EEF8093E80003C081E28093DF
:10546000EB006C960FB6F894DEBF0FBECDBFDF9198
:10547000CF91FF91EF91BF91AF919F918F917F91CC
:105480006F915F914F913F912F911F910F91FF90DD
:10549000EF90DF900F900FBE0F901F9018958093A4
:1054A000E9008091F200882319F08AE38093E800F4
:1054B00008951F920F920FB60F9211242F933F93CE
:1054C0004F935F936F937F938F939F93AF93BF930C
:1054D000CF93EF93FF93C091E1008091E100837F30
:1054E0008093E1008093E100C3FF0FC01092E900B8
:1054F00081E08093EB001092EC0082E38093ED005A
:1055000010927C0688E08093F000C2FF19C083E00F
:105510000E944F2A80917E06882339F080917E0672
:10552000815080937E06882389F180917D068823AF
:1055300039F080917D06815080937D06882341F16A
:10554000C4FF10C08091E2008E7E81608093E200F3
:105550008091E1008F7E8093E10080917A068E7EBB
:10556000806111C0C0FF16C08091E2008E7E806114
:105570008093E2008091E1008E7E8093E100809133
:105580007A068E7E816080937A0604C05D9ACDCFC4
:10559000289AD6CFFF91EF91CF91BF91AF919F9174
:1055A0008F917F916F915F914F913F912F910F90CC
:1055B0000FBE0F901F90189510927C0610927B06DC
:1055C00010927A060E9422278091E1008E7E8093BD
:1055D000E1008DE08093E200559A209AEEEFFFE71C
:1055E000859194918B3F9C4D19F481E080937306D3
:1055F000089508950E94CC230E94F92A84E796E03A
:105600000E94DC2A0E94B402C0E0D0E00E94691F20
:105610002097E1F30E940000F9CF0C94E42C089548
:10562000EF92FF920F931F93CF93DF937B01FC01C7
:10563000C281D38100E010E0209781F0E881F981F8
:105640000280F381E02DB701CE01099597FD08C0D6
:10565000080F191F0884D985C02DEECFC80102C0DC
:105660008FEF9FEFDF91CF911F910F91FF90EF9000
:1056700008950F931F93CF93DF938B01FC01C28199
:10568000D381209771F0E881F9810480F581E02DC4
:10569000B801CE010995009731F40884D985C02D51
:1056A000F0CF80E090E0DF91CF911F910F910895AE
:1056B0000F931F93CF93DF938B01FC01C281D381A2
:1056C000209771F0E881F9810680F781E02DB8011B
:1056D000CE010995080F111D0884D985C02DF0CF82
:1056E000F8011082DF91CF911F910F9108950F93D0
:1056F0001F93CF93DF938B01FC01C281D38120974D
:1057000071F0E881F9810190F081E02DB801CE01BE
:105710000995811106C00884D985C02DF0CF80E09D
:1057200001C081E0DF91CF911F910F910895809189
:10573000830681110DC082E080937F0684E0809310
:105740008006109282061092810681E08093830683
:105750008FE796E00895DB018F939F930E94F42BCF
:10576000BF91AF91A29F800D911DA39F900DB29FFD
:10577000900D1124089597FB072E16F4009407D07E
:1057800077FD09D00E94072C07FC05D03EF49095C8
:1057900081959F4F0895709561957F4F0895052ECF
:1057A00097FB1EF400940E94E62B57FD07D00E9441
:1057B0001B2C07FC03D04EF40C94E62B509540951F
:1057C000309521953F4F4F4F5F4F089590958095AD
:1057D000709561957F4F8F4F9F4F0895EE0FFF1F7C
:1057E0000590F491E02D09940E943D2CA59F900D09
:1057F000B49F900DA49F800D911D11240895B7FFB3
:105800000C94F42B0E94F42B821B930B0895AA1B7B
:10581000BB1B51E107C0AA1FBB1FA617B70710F09B
:10582000A61BB70B881F991F5A95A9F780959095CD
:10583000BC01CD010895A1E21A2EAA1BBB1BFD01DC
:105840000DC0AA1FBB1FEE1FFF1FA217B307E4075F
:10585000F50720F0A21BB30BE40BF50B661F771FB7
:10586000881F991F1A9469F7609570958095909597
:105870009B01AC01BD01CF010895A29FB001B39F70
:10588000C001A39F700D811D1124911DB29F700D49
:10589000811D1124911D0895CF93DF9382309105CE
:1058A00010F482E090E0E0918D06F0918E0620E009
:1058B00030E0A0E0B0E0309739F1408151814817E5
:1058C0005907B8F04817590771F4828193811097EE
:1058D00029F013969C938E9312972CC090938E066A
:1058E00080938D0627C02115310531F042175307EB
:1058F00018F0A901DB0101C0EF019A01BD01DF0130
:105900000280F381E02DD7CF21153105F9F0281B56
:10591000390B2430310580F48A819B816115710532
:1059200021F0FB019383828304C090938E068093C1
:105930008D06FE01329644C0FE01E20FF31F8193F3
:10594000919322503109398328833AC020918B06E4
:1059500030918C06232B41F42091020130910301F8
:1059600030938C0620938B06209100013091010129
:105970002115310541F42DB73EB7409104015091F6
:105980000501241B350BE0918B06F0918C06E21784
:10599000F307A0F42E1B3F0B2817390778F0AC0152
:1059A0004E5F5F4F2417350748F04E0F5F1F50932F
:1059B0008C0640938B068193919302C0E0E0F0E067
:1059C000CF01DF91CF910895CF93DF93009709F432
:1059D00087C0FC01329713821282C0918D06D0914C
:1059E0008E06209781F420813181280F391F809104
:1059F0008B0690918C068217930779F5F0938C06AD
:105A0000E0938B066DC0DE0120E030E0AE17BF07EB
:105A100050F412964D915C9113979D0141155105DB
:105A200009F1DA01F3CFB383A28340815181840F5E
:105A3000951F8A179B0771F48D919C911197840F84
:105A4000951F02969183808312968D919C91139756
:105A5000938382832115310529F4F0938E06E09318
:105A60008D063EC0D9011396FC93EE9312974D918B
:105A70005D91A40FB51FEA17FB0779F4808191812E
:105A8000840F951F0296D90111969C938E93828163
:105A9000938113969C938E931297E0E0F0E08A81B5
:105AA0009B81009719F0FE01EC01F9CFCE0102961F
:105AB00028813981820F931F20918B0630918C06AB
:105AC0002817390769F4309729F410928E0610923E
:105AD0008D0602C013821282D0938C06C0938B066F
