:100000000C947D020C94BB1D0C94941D0C946D1DDE
:100010000C94461D0C94A5020C94A5020C941F1D73
:100020000C94A5020C94A5020C94390D0C94AB0D04
:100030000C94A5020C94A5020C94A5020C94A502A4
:100040000C94A5020C94A5020C94A5020C94A50294
:100050000C94A5020C94A5020C94A5020C94D51C3A
:100060000C94A5020C94A5020C94A5020C94A50274
:100070000C94A5020C94A5020C94A5020C94A50264
:100080000C94A5020C94A5020C94A5020C94A50254
:100090000C94A5020C94A5020C9414090C94A502CE
:1000A0000C94A5020C94A5020C94A502AC04F204D5
:1000B000E904B904C404DB04E104DE04E904E9044E
:1000C000E904E904E904E904E904D404131016106E
:1000D000051009100D103710371037101A101E10A8
:1000E000221028102C1037103210FF133915581316
:1000F0005E155E155E15DC145E15ED125E155E155F
:100100005E15BE1345135E145E15B1125E155E15C5
:100110008D135E155E155E155E155E155E155E151A
:100120005E155E155E155E155E15F9133E155313CB
:1001300076135E155E1591144D12C1125E155E1593
:100140005E15A913131353145E15A8128712961285
:1001500081131C147D128B121E14351982198219F9
:100160002D1982192F193119821982193319391948
:100170003719501982198219481982194A194C19CC
:10018000821982194E195419521976198219821935
:10019000681982196B1970198219821973197E19DD
:1001A0007B19A919761A6F1A2E1A6F1A5C1A661A19
:1001B000611A6F1A6F1A6F1ABF193F1C441C491C31
:1001C000531C5D1CA71CA71CA71C671C711C7B1C57
:1001D000851C921CA71C9A1CFFFEFDFBF7EFDFBFDE
:1001E0007FFEFDFBF7EFDFBF7FFEFDFBF7EFDFBF1D
:1001F0007FFEFDFBF7EFDFBF7FFEFDFBF7EFDFBF0D
:100200007FFEFDFBF7EFDFBF7FFEFDFBF7EFDFBFFC
:100210007FFEFDFBF7EFDFBF7F0001020203030358
:100220000304040404040404040505050505050588
:100230000505050505050505050606060606060667
:10024000060606060606060606060606060606064E
:100250000606060606060606060707070707070737
:10026000070707070707070707070707070707071E
:10027000070707070707070707070707070707070E
:1002800007070707070707070707070707070707FE
:1002900007070707070707070708080808080808E7
:1002A00008080808080808080808080808080808CE
:1002B00008080808080808080808080808080808BE
:1002C00008080808080808080808080808080808AE
:1002D000080808080808080808080808080808089E
:1002E000080808080808080808080808080808088E
:1002F000080808080808080808080808080808087E
:10030000080808080808080808080808080808086D
:100310000808080808080808080706050401000876
:100320000A0B0C0D092F55736572732F6474686185
:100330007965722F2E6C656E7A686F756E642F62A8
:1003400075696C642F736B657463682F616F5F549C
:1003500078722E6370700000000000250028002BCA
:10036000002E0031000000000200090F000003040D
:1003700001000C0000000000000000000000000070
:1003800000000000080B0002020201000904000046
:1003900001020200000524001001052401010104EE
:1003A0002402060524060001070581031000400908
:1003B000040100020A0000000705020240000007D5
:1003C0000583024000000403090441726475696EEC
:1003D0006F204C4C430041726475696E6F204C6510
:1003E0006F6E6172646F00120100020000004041F4
:1003F00023368000010102030112010002EF020115
:10040000404123368000010102030104080201106B
:10041000408040102040804080080204018040203D
:100420001002011080102040402000000000230036
:10043000260029002C002F000404040404030405F2
:100440000202020204030202020206060606060671
:100450000404020202040471700000010204081086
:10046000204080010204081020408001020408108E
:10047000204080010204081020408001020408107E
:10048000204080010204081020408001020408106E
:10049000204080010204081020408000000000007D
:1004A000000000000101010101010101020202023C
:1004B000020202020303030303030303040404040C
:1004C00004040404050505050505050506060606DC
:1004D00006060606070707070707070700000000CC
:1004E000240027002A002D0030006364696E6F70BD
:1004F000737578585B00AB256D2511241FBECFEFB7
:10050000DAE0DEBFCDBF11E0A0E0B1E0E2E4FEE55D
:1005100002C005900D92A83EB107D9F726E0A8EEDB
:10052000B1E001C01D92A938B207E1F712E0CCE7B3
:10053000D2E004C02197FE010E945427CB37D10797
:10054000C9F70E946C200C94142F0C94000061E0F9
:100550008091C1050C94E80F60E08091C1050C9476
:10056000E80F0F931F93CF93DF93C82FD62F0E94CE
:10057000AC020FEB15E0D80115968D919C91169762
:10058000DC01ED91FC91CF716C2F60620190F081E4
:10059000E02D0995F80185819681DC01ED91FC91B2
:1005A0000190F081E02D6D2F0995DF91CF911F9182
:1005B0000F910C94A70260E08091C0050C94E80FA5
:1005C000CF93DF93CFEBD5E018820E94DB026BE084
:1005D00080E00E94B10261E089810E94E80F60E33F
:1005E00087E0DF91CF910C94B1020F931F93CF93CB
:1005F000DF93162F082FEC018C2F801B811768F4D6
:100600008091C4059091C5056991DC01ED91FC9143
:100610000190F081E02D0995EFCFDF91CF911F91EF
:100620000F910895FF920F931F93CF93DF931F9223
:10063000CDB7DEB7F82E8B0149830E94AC028091C2
:10064000C4059091C505DC01ED91FC916F2D6F7192
:1006500060620190F081E02D09954981642FC80105
:100660000E94F5020F90DF91CF911F910F91FF90A3
:100670000C94A702CF92DF92FF920F931F93CF9318
:10068000DF931F92CDB7DEB7F82E8B016C018C2D56
:100690008F198417A0F48091C4059091C505D601E7
:1006A0006D916D01DC01ED91FC910190F081E02DE7
:1006B00049830995F80181938F014981E8CF0F9013
:1006C000DF91CF911F910F91FF90DF90CF90089510
:1006D000FF920F931F93CF93DF931F92CDB7DEB797
:1006E000F82E8B0149830E94AC028091C405909141
:1006F000C505DC01ED91FC916F2D6F710190F081CA
:10070000E02D09954981B801C8010E943A030F9074
:10071000DF91CF911F910F91FF900C94A702CF937F
:10072000DF931F92CDB7DEB741E0BE016F5F7F4F11
:1007300087E00E94680389810F90DF91CF9108952F
:100740008091BF05882331F00E948F03807321F0D0
:100750000E94E00280E0089581E00895CF92DF9248
:10076000EF92FF920F931F93CF93DF937C01D62FCD
:10077000C72F97FD06C081E09BE5E91693E0F906D7
:100780000CF080E061E070E00E947B050D2F1C2FD3
:10079000C0E0D0E06801F80161918F01CE018E0DBB
:1007A0009F1D0E94CF2EF6018081882321F0219683
:1007B000C932D10579F760E0C7018C0F9D1FDF9129
:1007C000CF911F910F91FF90EF90DF90CF900C94FD
:1007D000CF2E8091D905823030F4F8948EEC95E0DC
:1007E0000E94190B01C0F8946091D5057091D6054F
:1007F0008091D7059091D80578940895E9E1F3E0C8
:10080000E49120917B00E3FB882780F990E035E0BC
:10081000880F991F3A95E1F7922F9F7D892B80933E
:100820007B00E770E064E0937C0080917A00806454
:1008300080937A0080917A0086FDFCCF80917800C9
:100840002091790090E0922B0895CF93DF9300D010
:10085000CDB7DEB7CE0101969F938F9384E791E0E9
:100860009F938F9389E292E09F938F930E94142924
:100870000F900F900F900F900F900F9089819A8199
:100880000F900F90DF91CF910895FC018091260287
:10089000811103C08FEF9FEF08959FB7F89482E016
:1008A0008093E9002091F20030E01216130614F450
:1008B00021E030E02115310559F0289884E6809335
:1008C00025028091F10080838091F200882319F045
:1008D0009FBFC90108958BE68093E800F9CFCF92BE
:1008E000DF92EF92FF920E94B01C6B017C010E948C
:1008F000B01CDC01CB018C199D09AE09BF09883EF3
:100900009340A105B10598F3FF90EF90DF90CF9051
:10091000089580918B0381110DC082E0809387033D
:1009200084E08093880310928A031092890381E007
:1009300080938B0387E893E008950C944728DB01AC
:10094000ED91FC913197E031F10508F042C0DC01F6
:10095000EA5AFF4F0C94542760E070E08BE090E07F
:100960000E94111961E070E08AE090E00E94111984
:1009700039C0845B9F4FFC011386128640E850E02B
:10098000BD010E94451E2EC08FB7F894A45BBF4FD7
:1009900018962D913C911997232B21F019961C92B2
:1009A0001E9218978FBF1EC0FC01E058FF4F1082A7
:1009B00084EF94E008C08DE597E005C08EE596E0F1
:1009C00002C083E498E015969C938E93149782E07E
:1009D000089527EA3AE1DC0115963C932E9314978B
:1009E00083E0089580E00895CF93DF93FB01208199
:1009F00031812430310509F47AC0EC01253031050C
:100A000038F42130310561F02230310541F169C0FF
:100A10002F30310509F44CC02031310581F161C01E
:100A200061E070E08BE090E00E94111980E190E0BD
:100A30009FA38EA340E150E0BE01CE014C960E94E0
:100A4000451ECE01845B9F4FFC011386128640E455
:100A500050E0BE010E94451E1092950348C08FB71A
:100A6000F8942CA13DA1232B11F01DA21CA28FBF35
:100A700061E070E08BE090E00E94111938C0FC0149
:100A8000E058FF4F808182306CF04E9B03C083E4BE
:100A900098E00AC04C9B03C08EE596E005C08DE54A
:100AA00097E002C087E899E19D838C8382E020C0B3
:100AB000C0919303D0919403209719F460E070E003
:100AC00002C06FEF70E08BE00E94181C81E090E0A4
:100AD000CD2B11F080E090E09093940380939303EA
:100AE00006C087E899E19D838C8383E001C080E0A4
:100AF000DF91CF9108950F931F93CF93DF93CDB7DD
:100B0000DEB7C456D1090FB6F894DEBF0FBECDBF15
:100B1000811118C07F936F938FE691E09F938F931D
:100B20008E010F5F1F4F1F930F930E94F128C80182
:100B30000E9401120C9400000F900F900F900F90E4
:100B40000F900F90CC59DF4F0FB6F894DEBF0FBE59
:100B5000CDBFDF91CF911F910F910895CF92DF927A
:100B6000EF92FF920F931F93CF93DF937C01D62FC9
:100B7000C72F6A0197FD07C081E09701240F351F39
:100B8000243833400CF080E061E070E00E947B0587
:100B90000D2F1C2FC0E0D0E0CC15DD0554F4F8017A
:100BA00061918F01CE018E0D9F1D0E94CF2E219647
:100BB000F3CFDF91CF911F910F91FF90EF90DF90D6
:100BC000CF900895CF92DF92EF92FF920F931F93F1
:100BD000CF93DF93EC017B016A0197FD07C081E0B1
:100BE0009E01240F351F243833400CF080E060E074
:100BF00070E00E947B058701CE19DF09C8018E19BC
:100C00009F098C159D054CF4CE01800F911F0E9409
:100C1000C72EF80181938F01F1CFDF91CF911F9102
:100C20000F91FF90EF90DF90CF900895CF93DF93D7
:100C300000D0CDB7DEB742E050E0BE016F5F7F4F1E
:100C40000E94E20589819A810F900F90DF91CF91E8
:100C500008950F931F93CF93DF93CDB7DEB7C4569C
:100C6000D1090FB6F894DEBF0FBECDBFF8942D9A10
:100C7000589A7F936F939F938F9387E791E09F9309
:100C80008F938E010F5F1F4F1F930F930E94F128C8
:100C9000C8010E9401120C9400000FB6F894DEBF48
:100CA0000FBECDBFCC59DF4F0FB6F894DEBF0FBEDD
:100CB000CDBFDF91CF911F910F9108958F929F9299
:100CC000AF92BF92CF92DF92EF92FF920F931F935A
:100CD000CF93DF93EC01FB018081918182309105FC
:100CE000B9F178F5019709F0D4C061E070E08AE0CD
:100CF00090E00E94111961E070E08BE090E00E94AA
:100D000011190E94591B0E947510082E000C990B96
:100D1000FE01E556FF4F9183808361E070E00E9401
:100D20003F1BCE010E947C15C459DF4F8091EB011F
:100D30009091EC01A0E0B0E088839983AA83BB8303
:100D4000AEC08930910509F47AC00C9721F0A1C09A
:100D50000E94591BA4C00E94E9036B017C018E0113
:100D60000C581F4FF80180819181A281B381C81670
:100D7000D906EA06FB0629F0B701A60185E60E941E
:100D800044188091EB019091EC01A0E0B0E0F801F3
:100D9000408151816281738146015701841A950A0D
:100DA000A60AB70AB501A40124E0440F551F661F27
:100DB000771F2A95D1F7480F591F6A1F7B1F1416FA
:100DC0001506160617065CF4413020E85207610547
:100DD00071054CF040E050E860E070E004C041E094
:100DE00050E060E070E0F801C082D182E282F382DC
:100DF000481759076A077B0739F05093EC01409375
:100E0000EB018DE60E944418CE010E9478180E94E2
:100E10007510082F880F110BC556DF4F88819981F7
:100E200008171907E1F160E070E00E943F1B61E0E4
:100E300070E0C8010E943F1B1983088330C0FB018A
:100E40001481143034F06FE972E085E293E00E947F
:100E50002906412F012E000C550B660B770B81E7FD
:100E60000E944418812F0E942E20CE010E947C15E2
:100E7000FE01E459FF4F8091EB019091EC01A0E05D
:100E8000B0E080839183A283B383CE56DF4F188373
:100E900006C08FE994E09D838C8383E001C080E0ED
:100EA000DF91CF911F910F91FF90EF90DF90CF9046
:100EB000BF90AF909F908F900895CF92DF92EF9266
:100EC000FF920F931F93CF93DF9300D000D000D0F9
:100ED000CDB7DEB78C01DB018D919C9182309105FD
:100EE00009F44BC008F042C0019709F0B5C0F80101
:100EF000E45AFF4F8081318122819381349780832E
:100F0000318322839383FE01319646E0DF011D92F7
:100F10004A95E9F7582F8A833B832C839D8347E1C9
:100F2000632F722F892F9E810E9429110E94E9034D
:100F3000F801EB56FF4FD801A756BF4F2D913C91BA
:100F4000220F331F220F331F6901330FEE08FF08F2
:100F5000DC01CB018C199D09AE09BF098083918307
:100F6000A283B383C8010E94A6167DC08930910573
:100F700009F44CC00C9721F06FC00E94591B73C03C
:100F8000C8010E94D5178F3FBFEF9B07A1F0FE015C
:100F9000319626E0DF011D922A95E9F7582F9B83B1
:100FA0008A8349E16B817C818D819E810E94291118
:100FB000C8010E94A616F801E85AFF4F808191816E
:100FC000A281B381349640815181628173818417FB
:100FD0009507A607B70709F446C080839183A283CB
:100FE000B383AE014F5F5F4F26E0FA0111922A955D
:100FF000E9F7582F8A839B83AC83BD8347E16B81DC
:101000007C818D819E810E9429112DC0DB01149667
:10101000EC900E2C000CFF08B4E0EB16F10434F059
:101020006EE672E085E293E00E942906D801A85A94
:10103000BF4FEE0CFF1CEE0CFF1C0E0D1F1DF80128
:10104000EE57FF4F40815181628173814D935D93D3
:101050006D937C93139707C08FE994E0F801958313
:10106000848383E001C080E026960FB6F894DEBF4B
:101070000FBECDBFDF91CF911F910F91FF90EF90E9
:10108000DF90CF900895CF92DF92EF92FF920F936F
:101090001F93CF93DF9300D000D000D0CDB7DEB741
:1010A0008C01DB018D919C918930910509F459C027
:1010B00048F481309105B1F0029709F09EC00E947A
:1010C000591BA2C08C30910569F10F9709F095C0AA
:1010D000F801EE56FF4F808160E070E090E00E94E2
:1010E0003F1B92C00E94E903F801EB56FF4FD80165
:1010F000A756BF4F2D913C91220F331F220F331F54
:101100006901330FEE08FF08DC01CB018C199D0942
:10111000AE09BF0980839183A283B383C8010E9473
:10112000A61672C0C8010E94D5178F3FBFEF9B075C
:10113000A1F0FE01319626E0DF011D922A95E9F724
:10114000582F9B838A8349E16B817C818D819E81AD
:101150000E942911C8010E94A616C8010E94781891
:1011600053C02FB7F894F80184A195A12FBF892B04
:1011700009F04AC0DB0114968C917801B2E9EB0EBC
:10118000F11CF7018083843030F062E472E085E284
:1011900093E00E942906D7012C91F801E45AFF4FF1
:1011A0006081718182819381422F50E0F801B4E027
:1011B0002B9FE00DF11D1124EE57FF4F60837183CB
:1011C000828393839A01220F331FC90140960E94A4
:1011D0000F12F701808161E070E090E00E943F1BF8
:1011E000D80197961C921E92969740E150E0B80164
:1011F000C8014C960E94451E07C08FE994E0F80193
:101200009583848383E001C080E026960FB6F8942E
:10121000DEBF0FBECDBFDF91CF911F910F91FF9029
:10122000EF90DF90CF9008951F920F920FB60F921C
:101230001124BF92CF92DF92EF92FF920F931F93F0
:101240002F933F934F935F936F937F938F939F93CE
:10125000AF93BF93EF93FF93CF93DF93CDB7DEB7F9
:101260002697DEBFCDBFBFB6F894009179061091E6
:101270007A06E12CF12C0115110509F465C0D8019D
:1012800018968D919C911997009771F48091790629
:1012900090917A060817190789F1E114F10409F011
:1012A0003FC068E376E038C00197D80119969C9357
:1012B0008E931897892B09F040C01A968D919C91B6
:1012C0001B97009721F019969C938E931897BFBE99
:1012D000B801F801868197810E94221FBFB6F89459
:1012E000D80118968D919C911997892B31F5809191
:1012F000790690917A060817190749F414968D918A
:101300009C91159790937A068093790611C0E11409
:10131000F10431F46BE576E087E594E00E9429065C
:10132000F80184819581D70115969C938E9314972B
:10133000F80183818150838301C07801D80114961C
:101340000D911C91159797CFBFBE8FB180FBCC2418
:10135000C0F8D12C80919A0390919B03C816D906AE
:1013600089F0C114D10419F064E070E002C065E0B6
:1013700070E084E00E947D1E0E946D1FD0929B034E
:10138000C0929A0389B1082F007510E020910201E4
:101390003091030102171307A9F084FF03C068E02E
:1013A00070E007C086FF03C067E070E002C066E03F
:1013B00070E084E00E947D1E0E946D1F1093030167
:1013C000009302018FB1827790E000919803109111
:1013D00099038017910769F1082719270823192312
:1013E00090939903809398030115110511F169E019
:1013F00070E085E00E947D1E06FF03C0FC011482A0
:1014000010C005FF02C021E009C004FF04C022E0B3
:10141000FC01248306C001FF04C023E0DC01149614
:101420002C930E946D1F05C0208310929703109289
:1014300096038FE695E00E94220C181619062CF5EB
:101440008FE695E00E94F70C282F8091270390915A
:101450002803AC014F5F5F4F50932803409327034D
:10146000803891054CF4FC01E95DFD4F2A30E1F62E
:1014700010820E94221204C08DE791E00E948E101B
:101480001092280310922703D0CF009129031091C6
:101490002A0310922A03109229030115110571F1F4
:1014A0008091960390919703892B41F583E0C82E94
:1014B000D12CE12CF12CE0916F05F0917005B70172
:1014C00069557D4F0280F381E02DA8018FE695E0FC
:1014D0000995E80EF91E081B190B101611064CF0A1
:1014E000EF2861F481E090E0909397038093960356
:1014F00005C0B1E0CB1AD108F1F6F2CF16E0CE016B
:101500000196FC01212F11922A95E9F70E945A11A8
:101510000E94A00381116DC0209124053091250502
:1015200080912205909123052817390709F461C09D
:10153000129FC001139F900D11248C010E551C4F5A
:10154000C901019660E470E00E942127909325056F
:101550008093240545E064E871E08AE00E9412036C
:1015600045E064E871E080E10E9412030E948F036D
:101570008091BF05882331F00E948F038073C1F3EF
:101580001092BF050E94DB0281E08093BF056AE0F4
:1015900080E00E94B1020E94AC028091C40590914B
:1015A000C505DC01ED91FC910190F081E02D61EE2B
:1015B00009950E94A7020E94AC028091C4059091F7
:1015C000C505DC01ED91FC910190F081E02D60EA10
:1015D00009956091C305C8010E94F5020E94A70207
:1015E00061E08091C0050E94E80F0E94A003811174
:1015F000FCCF26960FB6F894DEBF0FBECDBFDF91AD
:10160000CF91FF91EF91BF91AF919F918F917F917A
:101610006F915F914F913F912F911F910F91FF908B
:10162000EF90DF90CF90BF900F900FBE0F901F9064
:101630001895DC01ED91FD918081ED91FD919081F6
:10164000ED91FD916C9163708E2309F064609F238E
:1016500009F06860E6E3FBE0E60FF11D659565952E
:101660006D936D917D918D919D91099423C01AC0C8
:1016700012C016C010C01EC009C014C013C006C0DE
:1016800019C009C00DC007C00DC014C06250704021
:10169000804090400BC0615070408040904006C038
:1016A0006E5F01C06F5F7F4F8F4F9F4F9E938E93F2
:1016B0007E936E9308958091CC059091CD050C9406
:1016C000190B8091CA059091CB050C94190B809150
:1016D000C8059091C9050C94190B8091C60590918D
:1016E000C7050C94190B089540919F035091A003D6
:1016F00020919D0330919E0342175307B4F49091BB
:10170000E8009570E1F39091E80092FD19C0809394
:10171000F10080919F039091A00301968F73992708
:10172000892B19F48EEF8093E80080919F039091AC
:10173000A00301969093A00380939F0381E00895F6
:1017400080E00895DF92EF92FF920F931F93CF9363
:10175000DF93D82E8A017B01E40EF51EEB01CE1536
:10176000DF0571F0D7FE03C0FE01849101C08881BE
:101770000E94740B21968111F2CF8FEF9FEF01C071
:10178000C801DF91CF911F910F91FF90EF90DF90F3
:101790000895615030F02091F100FC012083019602
:1017A000F8CF289884E6809325020895CF92DF929F
:1017B000EF92FF920F931F93CF93DF936C017A0107
:1017C0008B01C0E0D0E0CE15DF0589F0D8016D9126
:1017D0008D01D601ED91FC910190F081E02DC601C3
:1017E0000995892B11F47E0102C02196ECCFC70127
:1017F000DF91CF911F910F91FF90EF90DF90CF90ED
:101800000895CF93DF931F92CDB7DEB76983DC01D4
:10181000ED91FC910280F381E02D41E050E0BE01AA
:101820006F5F7F4F09950F90DF91CF91089583E00F
:101830008093E9008091F200882319F08AE3809375
:10184000E8000895FC018485958597FD0BC09FB73E
:10185000F89482E08093E9008091F2009FBF90E0CD
:10186000019608959FB7F89482E08093E9008091F3
:10187000F2009FBF90E008950E94DF280F931F930E
:10188000CF93DF931F92CDB7DEB782E0898342E426
:1018900050E064E873E080E80E94A20B0E94890493
:1018A000DC0112960D911C9113970115110569F039
:1018B000D801ED91FC910280F381E02DBE016F5FB4
:1018C0007F4FC801099597FF07C089810F90DF916D
:1018D000CF911F910F910895F80100851185E5CFF3
:1018E0008F929F92AF92BF92CF92DF92EF92FF9230
:1018F0000F931F93CF93DF935C016B018A0180915B
:101900000F01882309F459C080912602882309F425
:1019100054C08091E90180FF05C08091E0008260A1
:101920008093E000E8018AEFF82E93E0E92E2FE3A0
:10193000822E3AE3932E2097C9F18FB7F894E09264
:10194000E9009091E80095FF06C09091F200282DE3
:10195000291B922F01C090E08FBF911106C0FA940D
:10196000FF2059F10E946F04E6CF292F30E0C21703
:10197000D3070CF49C2F8FB7F894E092E9002091E4
:10198000E80025FF11C0292F30E0C21BD30BF60160
:10199000915020F041914093F100FACFC20ED31E36
:1019A0009091E80095FF13C08FBFC5CF5D9884E686
:1019B0008093A1031016110644F081E090E0F50138
:1019C0009383828380E090E005C0C80103C09092B9
:1019D000E800EACFDF91CF911F910F91FF90EF9038
:1019E000DF90CF90BF90AF909F908F900895CF934E
:1019F000DF931F92CDB7DEB7FC018485958597FDF7
:101A000005C02FEF3FEF358724870BC0CE0101962D
:101A10000E944504019719F4898190E002C08FEF7C
:101A20009FEF0F90DF91CF9108950F931F93CF9366
:101A3000DF931F92CDB7DEB78C01FC0184859585BD
:101A400097FF0EC0CE0101960E944504019719F43C
:101A5000298130E002C02FEF3FEFF801358724875E
:101A6000F801848595850F90DF91CF911F910F919B
:101A700008951F920F920FB60F9211248F939F9388
:101A80008091E1009091E100937F9093E10083FFCA
:101A90000FC01092E90091E09093EB001092EC00DF
:101AA00092E39093ED001092260298E09093F0005C
:101AB00082FF20C093E09093E9009091F200992377
:101AC00019F09AE39093E8009091A103992339F0DB
:101AD0009091A10391509093A103992389F1909142
:101AE0002502992339F09091250291509093250277
:101AF000992341F184FF10C08091E2008E7E8160C5
:101B00008093E2008091E1008F7E8093E1008091DC
:101B1000E9018E7E806111C080FF16C08091E200D5
:101B20008E7E80618093E2008091E1008E7E8093C2
:101B3000E1008091E9018E7E81608093E90104C01B
:101B40005D9ACDCF289AD6CF9F918F910F900FBEDF
:101B50000F901F9018951F920F920FB60F9211249D
:101B6000CF92DF92EF92FF920F931F932F933F93A9
:101B70004F935F936F937F938F939F93AF93BF9395
:101B8000EF93FF93CF93DF93CDB7DEB76C97DEBFB4
:101B9000CDBF1092E9008091E80083FFFAC168E0B0
:101BA000CE0145960E94C90B82EF8093E8008D8993
:101BB00087FF05C09091E80090FFFCCF03C09EEF27
:101BC0009093E800982F907609F0C6C09E892F89DF
:101BD000188D91110CC0803829F48091EA0180930E
:101BE000F10002C01092F1001092F10047C1422FA3
:101BF00050E0512B913051F4811140C141305105D9
:101C000009F03CC18091EA018D7F0BC0933061F4F3
:101C1000811134C14130510509F030C18091EA0190
:101C200082608093EA012AC1953041F48091E800F6
:101C300080FFFCCF20682093E30020C1963009F09C
:101C40005FC0EB8CFC8C1092E9001092A003109204
:101C50009F03123091F510929E0310929D030E94F3
:101C60003E0C99E0BE016F5F7F4FDB01E92F1D92B3
:101C7000EA95E9F799831A8391E09E8390EA988721
:101C80009AEF998720919F033091A003275F3F4FE0
:101C90003C832B838D831092E9001092A003109255
:101CA0009F03F0929E03E0929D0349E050E080E0A4
:101CB0000E94A20B0E943E0CE1C0F0929E03E092B3
:101CC0009D030E948904DC011296ED90FC9013970D
:101CD000E114F10409F4C0C0D701ED91FC91048036
:101CE000F581E02DBE016B5E7F4FC701099500971E
:101CF00019F00CF0C3C0C6C0F701E084F184E8CF4E
:101D0000973009F4BFC0983021F481E08093F1004E
:101D1000B5C0993009F0B2C0837009F0B3C0EBE3ED
:101D2000F1E081E021E036E39081992361F0809336
:101D3000E9002093EB0091919093EC003093ED003B
:101D40008F5F873089F78EE78093EA001092EA0070
:101D50008F898093260292C08B8D9C8D1092E90012
:101D60001092A00310929F0390939E0380939D0373
:101D7000898D811156C08E899D89913A59F481329D
:101D800009F080C047E050E068E071E080E00E9428
:101D9000A20B74C0913209F075C0833289F4888D2A
:101DA00090E0982F88272F89822BA0E0B0E08093C5
:101DB000040190930501A0930601B09307015EC052
:101DC000803269F48091E80082FFFCCF67E088E010
:101DD00091E00E94C90B8BEF8093E80006C082322D
:101DE00009F04CC08F8980930F018091E80188230E
:101DF00019F0EEEFFAE002C0E0E0F8E080910801AF
:101E000090910901A0910A01B0910B01803B94408F
:101E1000A105B10509F088C080910F0180FFA0C025
:101E200083C00E948904DC0112960D911C911397C6
:101E30000115110539F1D801ED91FC910190F08166
:101E4000E02DBE016B5E7F4FC8010995811116C060
:101E5000F80100851185ECCF1130C1F0133091F4F9
:101E60008F89882309F455C08230E9F440E860E1A5
:101E700086ED93E00E946E25882321F08EEF8093FB
:101E8000E80087C081E28093EB0083C08B8D9C8D3E
:101E9000089711F410939C0380919C03811136C024
:101EA00067EE73E038C0813029F440E86BE08AECDB
:101EB00093E0E0CF833031F70E948904DC01129671
:101EC000ED90FC9013978E010F5F1F4F6801E11496
:101ED000F10479F0D701ED91FC910680F781E02DB6
:101EE000B801C7010995080F111DF701E084F184BD
:101EF000EECFD8011C92F60101900020E9F731974E
:101F0000BF016C197D0940E0C601B4CF69EF73E0F1
:101F100002C066EC73E06115710509F4B3CFFB01F3
:101F2000449150E080E833CF0FB6F894A8958091A3
:101F30006000886180936000109260000FBEA895D9
:101F4000EE3F2AE0F20739F08091FE0A9091FF0AF5
:101F50009183808393CF1092FF0A1092FE0A8ECF56
:101F6000EE3F8AE0F80731F0808191819093FF0A7B
:101F70008093FE0A87E797E7918380839BE088E15F
:101F80000FB6F894A895809360000FBE9093600000
:101F900075CF6C960FB6F894DEBF0FBECDBFDF9144
:101FA000CF91FF91EF91BF91AF919F918F917F91D1
:101FB0006F915F914F913F912F911F910F91FF90E2
:101FC000EF90DF90CF900F900FBE0F901F9018955D
:101FD000362F90E0FC01EB59FC4F4491FC01E55F8A
:101FE000FB4F2491FC01E85CFB4F8491882309F4AA
:101FF00051C04423E1F150E0FA013197EF30F1058F
:10200000B0F5EA59FF4F0C945427909180009F77C8
:1020100007C0909180009F7D03C090918000977FC2
:102020009093800024C094B59F7702C094B59F7DA3
:1020300094BD1DC0909190009F7707C09091900033
:102040009F7D03C090919000977F909390000FC068
:102050009091C0009F7703C09091C0009F7D9093A6
:10206000C00005C09091C200977F9093C200E82FF6
:10207000F0E0EE0FFF1FE95AFC4FA591B4918FB726
:10208000F894EC91311103C020952E2301C02E2B22
:102090002C938FBF08952091290330912A0329554D
:1020A0003D4FFC0140814423F9F0409129035091B8
:1020B0002A034138510544F44F5F5F4F50932A0380
:1020C00040932903F90108C010922A0310922903B2
:1020D000E7EAF2E08AE891E09F012F5F3F4FDC01E1
:1020E0004C9140830196DDCF0895CF93DF931F92EB
:1020F000CDB7DEB741E050E0BE016F5F7F4F88E0B3
:1021000090E00E94E2058981843014F083E002C0EF
:1021100087FD80E00F90DF91CF9108950E944B10D2
:1021200081E991E00C944B100F931F93CF93DF93B1
:10213000CDB7DEB760970FB6F894DEBF0FBECDBF48
:102140007F936F93282F082E000C330B3F938F93B0
:1021500083E991E09F938F938E010F5F1F4F1F9331
:102160000F930E94F128C8010E948E100FB6F894B8
:10217000DEBF0FBECDBF60960FB6F894DEBF0FBEB8
:10218000CDBFDF91CF911F910F9108950F931F93B2
:10219000CF93DF93CDB7DEB7EC970FB6F894DEBFE1
:1021A0000FBECDBF7F936F93282F082E000C330BEB
:1021B0003F938F9389E991E09F938F938E010F5FF7
:1021C0001F4F1F930F930E94F128C8010E948E1089
:1021D0000FB6F894DEBF0FBECDBFEC960FB6F894E5
:1021E000DEBF0FBECDBFDF91CF911F910F9108953C
:1021F0000F931F93CF93DF93CDB7DEB760970FB6E2
:10220000F894DEBF0FBECDBF282F082E000C330B75
:102210003F938F938FE991E09F938F938E010F5F90
:102220001F4F1F930F930E94F128C8010E948E1028
:102230000F900F900F900F900F900F9060960FB629
:10224000F894DEBF0FBECDBFDF91CF911F910F91EC
:102250000895CF93DF9300D000D000D0CDB7DEB784
:1022600049835A836B837C838D839E8322E235E08E
:10227000F9018081918146E0489FD001499FB00DCE
:102280001124AE55BC4FFE01319601900D924A9536
:10229000E1F7019660E470E00E942127F901918343
:1022A000808326960FB6F894DEBF0FBECDBFDF91B8
:1022B000CF9108950F931F93CF93DF931F92CDB7C4
:1022C000DEB78C010E94A00381112AC00E948F03F7
:1022D00086FF1CC00E94AC028091C4059091C50588
:1022E000DC01ED91FC910190F081E02D61E6099512
:1022F0004091C305B801C8010E943A030E94A70299
:1023000060E487E00E94B10281E00BC041E0BE01C1
:102310006F5F7F4F87E10E946803898180FFDACF7A
:1023200080E00F90DF91CF911F910F910895DF9280
:10233000EF92FF920F931F93CF93DF93CDB7DEB74A
:1023400028970FB6F894DEBF0FBECDBF8C01D62EF6
:10235000CE0101967C0186E0D7011D928A95E9F7AE
:102360000E94A0038111FCCFC7010E945A11811164
:10237000FBCFD11006C08091C20590E08017910775
:1023800091F183E28F831886C80101978235910508
:1023900010F40093C20541E0BE01695F7F4F86E003
:1023A0000E9412036091C20585E00E94B102609113
:1023B000C30581E10E94B1026091C30582E10E94E0
:1023C000B1020E94E0020E94AC028091C40590918B
:1023D000C505DC01ED91FC910190F081E02D62EEEC
:1023E00009950E94A70228960FB6F894DEBF0FBE8B
:1023F000CDBFDF91CF911F910F91FF90EF90DF90B4
:102400000895CF93DF93EC016991662329F084E866
:1024100093E00E94CF2EF8CFDF91CF910895CF9314
:10242000DF9300D0CDB7DEB77A83698342E050E016
:10243000BE016F5F7F4F0E94AE050F900F90DF913E
:10244000CF9108954F925F926F927F928F929F9259
:10245000AF92BF92CF92DF92EF92FF920F931F93B2
:10246000CF93DF93CDB7DEB7CA57D1090FB6F89433
:10247000DEBF0FBECDBFE09127024E2FEE0F550BF2
:10248000660B770BFA01E154F109E833F10508F026
:1024900015C3EB58FF4F0C945427833091050CF46F
:1024A000AEC202972091290330912A03AC01420F5A
:1024B000531F413851052CF08AE891E00E944B10DF
:1024C00017C0A9E2B2E029553D4FF9014D91419362
:1024D000AF01421B530B48175907C4F3209129033E
:1024E00030912A03820F931F90932A03809329032C
:1024F00081E991E00E944B10E5C28CEA91E09F9344
:102500008F931F9286E78F9389E991E02DC160E058
:1025100070E082E723C0FE01319686E0DF011D9264
:102520008A95E9F781E0898341E00AC0FE0131968E
:1025300086E0DF011D928A95E9F783E0898343E015
:102540005A816B817C818D819E810E942911BAC242
:102550000E947510682F880F770B81E70E949410F6
:10256000B1C20E9425048C010E947510282F880F8B
:10257000330B0217130719F0802F0E942E2081E5DC
:1025800075C20E947510B4E08B02C001112444E0B2
:1025900050E08E010F5F1F4FB80180589F4F0E947F
:1025A000E20589819A812B813C813F932F939F93F0
:1025B0008F931F9289E68F9381EB91E09F938F9386
:1025C0001F930F930E94F128C8010E948E100FB62E
:1025D000F894DEBF0FBECDBF75C28E010F5F1F4FD7
:1025E0001F930F9384EB91E09F938F9389E292E086
:1025F0009F938F930E941429C980DA80EB80FC801E
:102600000E947510C982DA82EB82FC82F4E08F02AC
:10261000C001112444E050E0B80180589F4F0E944F
:10262000AE0589E475C10E9475102AE28202C001DC
:1026300011247C0130EFE31A3EEFF30A81E09BE5C1
:10264000E91693E0F90608F080E060E070E00E948F
:102650007B05DE0111966D0100E010E05D01C70110
:10266000800F911F0E94C72EF60181936F0188236E
:1026700029F00F5F1F4F0932110589F7F501E00FAF
:10268000F11F1082B5018EE616C20E947510FAE2A3
:102690008F02C001112469E272E0805F9E4F0E94A8
:1026A000AE038EE4E3C10E94CE1FBC0183E656CF89
:1026B000CE0101969F938F938BEB91E09F938F9325
:1026C00089E292E09F938F930E94142909811A81D5
:1026D0000E947510880F990BB80188569F4F0E9471
:1026E0000F1260E0C8010E94971114C1FE013196DB
:1026F00086E0DF011D928A95E9F78DE089834DE040
:102700001FCF8EE090E00E94160661E070E0892BFA
:1027100011F460E070E084E721CFCE0101969F9331
:102720008F9384E791E09F938F9389E292E09F9348
:102730008F930E94142961E070E089819A81892B2E
:1027400011F460E070E08EE090E00E940F1284E5EA
:10275000DFC08091EC018F938091EB018F931F92EA
:102760008DE68F9388EB91E09F938F938E010F5F9F
:102770001F4F1F930F930E94F12826CF8E010F5FEA
:102780001F4F1F930F933BEBC32E31E0D32EDF92ED
:10279000CF9249E2E42E42E0F42EFF92EF920E94A3
:1027A000142989819A819093EC018093EB0186E052
:1027B000D8011D928A95E9F787E089830C591F4F4C
:1027C0001F930F93DF92CF92FF92EF920E941429F2
:1027D000F80180819181582F8A839B834981692FD9
:1027E0007C818D819E810E9429118DE40E94F810C8
:1027F000EECE6091ED017091EE0181E6AFCE0E94C8
:1028000025049093EE018093ED01FE01319686E060
:10281000DF011D928A95E9F78BE089830E942504E8
:10282000582F8A839B834981692F7C818D819E816A
:102830000E94291181E41AC185E718C126E0F22E11
:102840008E010F5F1F4FF8012F2D11922A95E9F786
:102850008BE089838091ED019091EE01582F8A835E
:102860009B834BE0692F7C818D819E810E94291181
:10287000D8011D92FA94E9F787E089838091EB01F2
:102880009091EC01582F8A839B8347E0692F7C81CC
:102890008D819E810E9429110E94CE1F60E00E94BE
:1028A000971188E7E3C0FE01319686E0DF011D92B3
:1028B0008A95E9F786E1898346E142CEFE013196A9
:1028C00086E0DF011D928A95E9F787E189838E0111
:1028D0000B591F4F1F930F9384EE91E09F938F939B
:1028E00089E292E09F938F930E941429F8018081DE
:1028F000318122819381582F8A833B832C839D834E
:102900004981632F722F892F9E810E9429118FE4A4
:102910000E94F8100F900F900F900F900F900F9053
:10292000D1C00E94250403E813E0081B190B0131F4
:10293000110514F000E110E017FF02C000E010E004
:102940006E01F5E6CF0ED11CA801B6010E94E2058A
:1029500019829E012F5F3F4F79015601B9019EEB0D
:10296000892E91E0992EC5018C199D098017910738
:102970000CF5D5018D915D011F928F939F928F92DF
:10298000FF92EF92EA966FAFEA97EB967FAFEB97E5
:102990000E94F128B2E0EB0EF11C0F900F900F9007
:1029A0000F900F900F90EB967FADEB97EA966FAD7F
:1029B000EA97D9CF87E67FC00E9425044C018E019B
:1029C0000F5F1F4F1F930F937E01E6E7EE0EF11C82
:1029D000FF92EF9283EC91E09F938F9387E292E0D6
:1029E0009F938F930E941429D7018D919C910FB6CC
:1029F000F894DEBF0FBECDBF813191051CF085EA92
:102A000091E05EC01816190684F56E01F5E6CF0E4A
:102A1000D11C26015E0128E7A20EB11C83ED682EB1
:102A200081E0782ED7014D915C91C2018C199D09EE
:102A300084179507B4F4BF92AF927F926F921F9361
:102A40000F930E941429D5018C91F20181932F01DB
:102A50000E5F1F4F0F900F900F900F900F900F90E1
:102A6000E1CFB601C4010E94AE0587E40E94F810D0
:102A700029C0F894469A0C94000024C08E010F5F80
:102A80001F4FB801D8018C918823A1F084E893E00E
:102A9000EA966FAFEA97EB967FAFEB970E94C72E4F
:102AA000F80181938F01EA966FADEA97EB967FADBF
:102AB000EB97E8CF82E60E94C61004C08AED91E051
:102AC0000E948E10C658DF4F0FB6F894DEBF0FBEBF
:102AD000CDBFDF91CF911F910F91FF90EF90DF90CD
:102AE000CF90BF90AF909F908F907F906F905F90AE
:102AF0004F9008950C944728CF93DF93EC010E94E8
:102B0000E903FE01EC58FF4F608371838283938356
:102B10003C9760837183828393833896C45ADF4FD6
:102B200088819981AA81BB8180839183A283B383A9
:102B3000DF91CF9108958F929F92AF92BF92CF92E3
:102B4000DF92EF92FF92CF93DF93EC01FC01EF57FE
:102B5000FF4F81E08083CE010E947C15FE01E45985
:102B6000FF4F1082118212821382B79682E3808314
:102B7000319684E68083F4978FEF9FEFDC018083AA
:102B80009183A283B383349680839183A283B3839A
:102B900064E070E0CE010E94DE1E65E070E0CE01D0
:102BA0000E94DE1E66E070E0CE010E94DE1E67E03D
:102BB00070E0CE010E94DE1E68E070E0CE010E944F
:102BC000DE1E69E070E0CE010E94DE1E82E090E031
:102BD0009BAB8AAB42E050E0BE01CE0188960E94DA
:102BE000451ECE01805C9F4F20E034E0FC0133871E
:102BF000228740E054E0BE010E94451E80E095E03F
:102C00009B8F8A8F40E055E0BE01CE0140960E9426
:102C1000451E80E490E09FAF8EAF40E450E0BE01DF
:102C2000CE01C4960E94451E8AE090E00E941606DE
:102C30007E01F8E7EF0EF11C092E000CAA0BBB0B6E
:102C4000F70180839183A283B3838CE090E00E949C
:102C500016066E01FCE7CF0ED11C092E000CAA0B44
:102C6000BB0BF60180839183A283B3830E94CE1FA6
:102C7000FE01E356FF4F91838083F60180809180AF
:102C8000A280B380F701C080D180E280F3800E94EF
:102C9000FE03A50194012C193D094E095F09DC01D1
:102CA0000E94652720E034E040E050E00E94352794
:102CB000C20ED31EE41EF51EFE01E45AFF4FC08271
:102CC000D182E282F3827496C082D182E282F38260
:102CD0008EE090E00E941606892B19F087E899E1B2
:102CE00027C06E01F2E8CF0ED11CE12CF12CC701F8
:102CF00040960E941606092E000CAA0BBB0BF6018B
:102D000081939193A193B1936F01F2E0EF0EF11CC7
:102D100028E0E216F10459F74E9B03C083E498E0E3
:102D200007C04C9B03C08EE596E002C08DE597E09E
:102D30009D838C8382E0DF91CF91FF90EF90DF90B5
:102D4000CF90BF90AF909F908F9008954F925F92D9
:102D50006F927F92AF92BF92CF92DF92EF92FF92EB
:102D60000F931F93CF93DF93FC01E756FF4FA08093
:102D7000B18025010B2C000C6608770881E0A816AD
:102D8000B10469F1D301C2010197A109B109B7FFEB
:102D900007C0B095A095909581959F4FAF4FBF4FBD
:102DA0009C01AD014997A105B10524F028E130E06F
:102DB00040E050E0AEECBFEF0E94682728E130E031
:102DC00040E050E00E943527DA01C901C296A11DFA
:102DD000B11D6C0189E1A816B10421F430C0CC24E6
:102DE000CA94D12CD301C2014997A109B109B7FFF7
:102DF00007C0B095A095909581959F4FAF4FBF4F5D
:102E00009C01AD014997A105B10524F028E130E00E
:102E100040E050E0AEECBFEF0E94682728E130E0D0
:102E200040E050E00E943527DA01C901C296A11D99
:102E3000B11D7C0182E3A816B10421F430C0EE2458
:102E4000EA94F12CD301C201C297A109B109B7FFDD
:102E500007C0B095A095909581959F4FAF4FBF4FFC
:102E60009C01AD014997A105B10524F028E130E0AE
:102E700040E050E0AEECBFEF0E94682728E130E070
:102E800040E050E00E943527DA01C901C296A11D39
:102E9000B11DEC018BE4A816B10419F430C0CFEFDA
:102EA000D0E0D301C2018B549109A109B109B7FF48
:102EB00007C0B095A095909581959F4FAF4FBF4F9C
:102EC0009C01AD014997A105B10524F028E130E04E
:102ED00040E050E0AEECBFEF0E94682728E130E010
:102EE00040E050E00E943527DA01C901C296A11DD9
:102EF000B11D8C0184E6A816B10419F42DC00FEFA2
:102F000010E084E6481A51086108710877FE08C08D
:102F10007094609450944094411C511C611C711C2D
:102F2000A3019201293131054105510524F028E121
:102F300030E040E050E0AEECBFEF0E94682728E1AF
:102F400030E040E050E00E943527DA01C901C29626
:102F5000A11DB11D5C0103C0AA24AA94B12CB60125
:102F600083E00E94181CB70185E00E94181CBE0176
:102F70008BE00E94181CBE018AE00E94181CB80158
:102F800086E00E94181CB50189E0DF91CF911F9166
:102F90000F91FF90EF90DF90CF90BF90AF907F9018
:102FA0006F905F904F900C94181CCF92DF92EF922D
:102FB000FF920F931F93CF93DF93EC010E94E903DD
:102FC0008E010B561F4FF801C080D180E280F38044
:102FD0006C197D098E099F0924E030E040E050E043
:102FE0000E9435272E3FFFEF3F074F075F077CF416
:102FF000DA01C90122E0880F991FAA1FBB1F2A9579
:10300000D1F7F80180839183A283B38322C027364E
:1030100031054105510564F0DA01C901885691096D
:10302000A109B109F80180839183A283B38305C00C
:10303000121613061406150664F4BA01A9014536E2
:103040005105610571054CF044E650E060E070E028
:1030500004C041E050E060E070E0C756DF4F888177
:1030600099818417950721F059834883CA0102C0CA
:103070008FEF9FEFDF91CF911F910F91FF90EF9016
:10308000DF90CF90089508950F931F93CF93DF9310
:10309000CDB7DEB7A0970FB6F894DEBF0FBECDBF99
:1030A0007F936F935F934F93282F082E000C330B61
:1030B0003F938F9381EE91E09F938F938E010F5FEB
:1030C0001F4F1F930F930E94F128C8010E948E107A
:1030D0000FB6F894DEBF0FBECDBFA0960FB6F89422
:1030E000DEBF0FBECDBFDF91CF911F910F9108952D
:1030F0008F929F92AF92BF92CF92DF92EF92FF9208
:103100000F931F93CF93DF9300D000D000D0CDB7A3
:10311000DEB78C010E94FE036C01990FEE08FF08D8
:10312000480180E6880E911CF40180819181A28182
:10313000B381C816D906EA06FB0609F45FC0580138
:10314000F4E6AF0EB11CF50180819181A281B381BB
:10315000C816D906EA06FB0609F450C0B701A60155
:1031600080E70E944418F50180819181A281B3819A
:10317000F40180839183A283B383D501CD92DD9244
:10318000ED92FC921397789680809180A280B38014
:10319000349680819181A281B381BC01CD016819EF
:1031A00079098A099B09A70196010E94112720E04D
:1031B00034E040E050E00E943527BA01A901480DF3
:1031C000591D6A1D7B1DF801E45AFF4F408351834E
:1031D00062837383FE01319686E0DF011D928A953A
:1031E000E9F7842F4A835B836C837D8347E1582F03
:1031F0006B817C818D819E810E94291126960FB65C
:10320000F894DEBF0FBECDBFDF91CF911F910F911C
:10321000FF90EF90DF90CF90BF90AF909F908F90F6
:1032200008950F931F93CF93DF93EC018B01562FDB
:1032300044274C2B052E000C660B770B8CE60E9466
:10324000441801301105C1F4CC30D10508F05AC042
:10325000FE01E355FF4F0C945427589A53C0469AE9
:1032600051C05F9A4FC02D9A4DC05A9A4BC02F9AA9
:1032700049C06FEF70E01AC001151105F1F4CC30B0
:10328000D10508F03FC0FE01E754FF4F0C945427CE
:10329000589838C0469836C05F9834C02D9832C0D0
:1032A0005A9830C02F982EC060E070E08AE0DF911D
:1032B000CF911F910F910C94181C0230110511F53C
:1032C000CC30D105F8F4FE01EB53FF4F0C9454279A
:1032D0009BB181E00DC098B180E4892788B912C004
:1032E0008BB1805806C095B180E20AC09BB184E0E2
:1032F00089278BB907C085B1805803C095B180E498
:10330000892785B9DF91CF911F910F9108954F9231
:103310005F926F927F928F929F92AF92BF92CF9265
:10332000DF92EF92FF920F931F93CF93DF9300D022
:1033300000D000D0CDB7DEB7DB01ED91FC91319725
:10334000EC30F10508F0CBC08C01EF52FF4F0C942C
:10335000542761E070E08BE090E00E94111960E07A
:1033600070E08AE090E00E94111989B1F801EF57EE
:10337000FF4F84FDBDC086FDD1C088E2BAC00E9467
:10338000E9034B015C017801B4E7EB0EF11CF70196
:1033900080819181A281B38188169906AA06BB0615
:1033A00029F0B501A40185E60E9444186801F0E700
:1033B000CF0ED11CF801E859FF4F80819181A28185
:1033C000B381A5019401281B390B4A0B5B0BCA0181
:1033D000B90124E030E040E050E00E943527F801D8
:1033E000EF57FF4FA0810A2E000CBB0B0E946527F0
:1033F000D6014D905D906D907C90DC01CB01840DE9
:10340000951DA61DB71DF70180829182A282B3820D
:10341000F801E45AFF4F4081518162817381841722
:103420009507A607B70709F461C080839183A2833B
:10343000B383AE014F5F5F4F26E0FA0111922A95E8
:10344000E9F7582F8A839B83AC83BD8347E16B8167
:103450007C818D819E810E94291148C0FC01E05829
:10346000FF4F808191E0980F9083B49781110CC039
:1034700060817181828193817C9660837183828374
:1034800093838AE090E00DC0608171818281938195
:10349000F801E458FF4F60837183828393838CE04B
:1034A00090E00E940F1284EF94E0D80115969C934F
:1034B0008E93149782E034C0FC01EF57FF4F88E2EF
:1034C00009C0FC01EF57FF4F80E504C0FC01EF5736
:1034D000FF4F88E08083C8010E947C1507C027EA5F
:1034E0003AE1FC013583248383E01AC080E018C0F0
:1034F00080E58083F801E45AFF4F10821182128226
:103500001382C8010E947C15FE01319686E0DF011E
:103510001D928A95E9F743E25A8199CF88E0E9CF75
:1035200026960FB6F894DEBF0FBECDBFDF91CF91C8
:103530001F910F91FF90EF90DF90CF90BF90AF90D1
:103540009F908F907F906F905F904F900895DF9243
:10355000EF92FF920F931F93CF93DF9300D000D091
:1035600000D0CDB7DEB78C01FB01208131812A303C
:10357000310581F038F4215031092230310508F449
:103580006FC067C02D30310509F460C02E303105A1
:10359000E1F05FC045E0BE016F5F7F4F80E10E94B8
:1035A000680345E050E064E871E0CE0101960E94B6
:1035B000E428892B19F460E070E002C061E070E05B
:1035C00080E090E00E9411194BC086E0D82ECE0119
:1035D00001967C01FC018D2D11928A95E9F787E017
:1035E00089838091EB019091EC01582F8A839B8312
:1035F00047E0692F7C818D819E810E942911F7010E
:103600001192DA94E9F78BE089838091ED01909132
:10361000EE01582F8A839B834BE0692F7C818D813B
:103620009E810E9429110E94CE1F7C0103561F4FCC
:10363000F80180819181E816F90691F060E0C701F8
:103640000E949711F801F182E0820AC00E94D61F01
:1036500007C088E99BE1F8019583848383E001C07A
:1036600080E026960FB6F894DEBF0FBECDBFDF9187
:10367000CF911F910F91FF90EF90DF9008958130CF
:10368000910551F01CF4892B81F008958230910549
:1036900031F0039739F0089585E090E008C086E0A6
:1036A00090E005C089E090E002C083E090E00C94D7
:1036B000111960E070E083E00E94181C60E070E087
:1036C00085E00E94181C60E070E08BE00E94181CEE
:1036D00060E070E08AE00E94181C60E070E086E024
:1036E0000E94181C60E070E089E00E94181C60E0F5
:1036F00070E083E090E00E94111960E070E085E0E6
:1037000090E00E94111960E070E086E090E00E9475
:10371000111960E070E089E090E00C9411190895AF
:1037200008956EBD00000DB407FEFDCF8EB508955F
:1037300081E008950C944728CF93DF9390E0FC013B
:10374000E55FFB4F2491FC01E85CFB4F84918823EB
:1037500061F190E0880F991FFC01E452FB4FC59185
:10376000D491FC01E95AFC4FA591B491611109C0B3
:103770009FB7F8948881209582238883EC912E232B
:103780000BC0623061F49FB7F8943881822F809526
:1037900083238883EC912E2B2C939FBF06C08FB779
:1037A000F894E8812E2B28838FBFDF91CF91089565
:1037B000CF93CFB7F89480917B06811127C0E9E4BD
:1037C000F4E08491ECE1F4E09491E82FF0E0EE0F66
:1037D000FF1FE452FB4FA591B491EC91E92321F432
:1037E00061E081E10E94E80F61E081E10E949C1BA1
:1037F0008CB580618CBD8CB580648CBD61E08FE040
:103800000E949C1B61E080E10E949C1B80917B06D2
:103810008F5F80937B06CFBF8CB5837F8CBD8CB5CB
:103820008C7F81608CBD8DB58E7F8DBDCF910895CD
:103830001F93CF93DF93182FEB0161E00E949C1B35
:10384000209711F460E004C0CF3FD10539F461E066
:10385000812FDF91CF911F910C94E80FE12FF0E0C1
:10386000EB59FC4FE4914E2F50E0FA013197EF30C5
:10387000F10508F06CC0E352FF4F0C94542784B557
:10388000806884BDC7BD68C084B5806284BDC8BD82
:1038900063C080918000806880938000D09389000D
:1038A000C093880059C0809180008062809380001E
:1038B000D0938B00C0938A004FC0809180008860B5
:1038C00080938000D0938D00C0938C0045C0809180
:1038D0009000806880939000D0939900C0939800E6
:1038E0003BC080919000806280939000D0939B00B9
:1038F000C0939A0031C080919000886080939000BE
:10390000D0939D00C0939C0027C08091C000806828
:103910008093C0008091C0008F7B8093C000C093D3
:10392000CF001AC08091C00080628093C000C09315
:10393000D00012C08091C20088608093C200809144
:10394000C2008B7F8093C200C093D20005C0C038F4
:10395000D1050CF07CCF76CFDF91CF911F910895E8
:103960003FB7F8948091810690918206A0918306DA
:10397000B091840626B5A89B05C02F3F19F001968B
:10398000A11DB11D3FBFBA2FA92F982F8827820FE5
:10399000911DA11DB11DBC01CD0142E0660F771F35
:1039A000881F991F4A95D1F708951F920F920FB65D
:1039B0000F9211242F933F938F939F93AF93BF93B5
:1039C00080917D0690917E06A0917F06B091800641
:1039D00030917C0623E0230F2D3720F40196A11DA2
:1039E000B11D05C026E8230F0296A11DB11D20932D
:1039F0007C0680937D0690937E06A0937F06B0930D
:103A000080068091810690918206A0918306B091F4
:103A100084060196A11DB11D8093810690938206B4
:103A2000A0938306B0938406BF91AF919F918F912D
:103A30003F912F910F900FBE0F901F9018951F92DE
:103A40000F920FB60F9211242F933F934F935F93D2
:103A50006F937F938F939F93AF93BF93EF93FF9356
:103A6000E0911801F09119010995FF91EF91BF9133
:103A7000AF919F918F917F916F915F914F913F9106
:103A80002F910F900FBE0F901F9018951F920F92BD
:103A90000FB60F9211242F933F934F935F936F9321
:103AA0007F938F939F93AF93BF93EF93FF93E09197
:103AB0001601F09117010995FF91EF91BF91AF9118
:103AC0009F918F917F916F915F914F913F912F9136
:103AD0000F900FBE0F901F9018951F920F920FB668
:103AE0000F9211242F933F934F935F936F937F9384
:103AF0008F939F93AF93BF93EF93FF93E091140144
:103B0000F09115010995FF91EF91BF91AF919F91B0
:103B10008F917F916F915F914F913F912F910F9076
:103B20000FBE0F901F9018951F920F920FB60F9215
:103B300011242F933F934F935F936F937F938F93B2
:103B40009F93AF93BF93EF93FF93E0911201F09196
:103B500013010995FF91EF91BF91AF919F918F91C3
:103B60007F916F915F914F913F912F910F900FBE79
:103B70000F901F9018951F920F920FB60F9211245D
:103B80002F933F934F935F936F937F938F939F9365
:103B9000AF93BF93EF93FF93E0911001F091110168
:103BA0000995FF91EF91BF91AF919F918F917F9177
:103BB0006F915F914F913F912F910F900FBE0F909A
:103BC0001F901895EF92FF920F931F93CF93FC01D4
:103BD0008FB7F8949381923020F0915093838FBFE8
:103BE0004EC08F01E281CFEFCE0F8FBF80910D02CB
:103BF000C81730F06DEA74E087E594E00E9429066A
:103C0000EC2EF12C8AE0C89FF0011124E151FE4F07
:103C100090858781981730F065EE76E087E594E02F
:103C20000E9429068AE08E9DF0018F9DF00D1124DF
:103C3000E151FE4F808191810817190728F0828198
:103C400093818017910730F466EE76E087E594E083
:103C50000E9429069FB7F8948AE08E9DF0018F9DFF
:103C6000F00D1124E151FE4F24813581D8012D93AF
:103C70003C931583048380858F5F80879FBFCF919E
:103C80001F910F91FF90EF900895EF92FF920F9385
:103C90001F93CF93DF93EC018B017A01452B51F0F9
:103CA000672B41F088859985892B21F4888199813A
:103CB000049734F46DE077E087E594E00E942906EC
:103CC0008FB7F894F986E8861F830E839B81911144
:103CD0000CC02091790630917A063D832C83D093D5
:103CE0007A06C093790691E09B838FBFDF91CF91D5
:103CF0001F910F91FF90EF900895CF92DF92EF9276
:103D0000FF920F931F93CF93DF93D82F8B01C0E0C7
:103D10008AE0E82ECC2ED12CEC9CF001ED9CF00D2D
:103D20001124E151FE4F9681FF24F394FC0E9D1760
:103D300060F4CF2D80910D02F81660F36DE275E00E
:103D400087E594E00E942906E5CFEFB6F894C48198
:103D5000D5812097E1F0888199819583848380853E
:103D6000811106C06CE776E087E594E00E942906A1
:103D70008AE08C9DF0018D9DF00D1124E151FE4FE4
:103D80008085815080879185891708F48187EFBEEF
:103D9000209731F469E375E087E594E00E942906F5
:103DA00019830883FA821B82CE01DF91CF911F9184
:103DB0000F91FF90EF90DF90CF9008950F931F9396
:103DC000CF93DF93DC018B011F969C911F97C92F26
:103DD000D0E064307105A4F020910E0230910F0202
:103DE000621773076CF49150983050F4FE01EE0F97
:103DF000FF1FEE5EFD4F808191818A179B0731F096
:103E000065E473E087E594E00E942906FE01E5562B
:103E1000FB4F84919FB7F894FE01E65AFB4FC49183
:103E2000A0911002B09111020A0F1B1FD801A80F18
:103E3000B11DEC91EC2BEC939FBFDF91CF911F91C3
:103E40000F910895FF920F931F93CF93DF93EC018F
:103E5000FB01FFB6F8948281882319F083818F5F7C
:103E600083838E819F81892B69F4FF83EE83EF85A5
:103E7000F0E0E65AFB4FE49180912402E82BE093B6
:103E8000240224C08F018D85811106C061EB72E090
:103E900087E594E00E9429068B8528859985E22F85
:103EA000F92FE80FF11DE80FF11D118300838B85B9
:103EB000811102C08A858B878B8581508B878D8588
:103EC00081508D879E85891708F48E87FFBEDF910C
:103ED000CF911F910F91FF900895FF920F931F9321
:103EE000CF93DF938C01DC012D913C9180910E02E8
:103EF00090910F022817390734F06DE775E087E5D8
:103F000094E00E9429069FB7F894F80182818823E3
:103F100019F083818F5F83839FBFE0911002F0913E
:103F20001102D8018D919C91E80FF91FF080FF20BC
:103F300011F1EF2DF0E0E75EFD4FC491D0E0FE01FE
:103F4000E852FE4FE491FE22CC0FDD1FFE01EE5E33
:103F5000FD4F80819181892B31F464E975E087E51B
:103F600094E00E942906CE5EDD4FB80188819981D8
:103F70000E94221FDCCFF8018281882341F0C80112
:103F8000DF91CF911F910F91FF900C94E21DDF9173
:103F9000CF911F910F91FF90089508950E94751081
:103FA000880F990B88569F4F0C941606AF92BF92BC
:103FB000CF92DF92EF92FF920F931F93CF93DF93F5
:103FC00000D0CDB7DEB7E090EB01F090EC010091AE
:103FD000ED011091EE010E947510880F990B42E0DF
:103FE00050E0BE016F5F7F4F88509F4F0E94E205F7
:103FF000A980BA800E947510880F990B8C5F9E4F24
:104000000E9416066C01AE14BF0479F00E94751070
:10401000FA82E982880F990B42E050E0BE016F5F9F
:104020007F4F88509F4F0E94AE05C016D10649F0C1
:104030000E947510880F990BB8018C5F9E4F0E94EB
:104040000F120F900F90DF91CF911F910F91FF9062
:10405000EF90DF90CF90BF90AF900895EF92FF92D6
:104060000F931F93CF93DF9300D01F92CDB7DEB78E
:10407000082F0E94D61F0B8341E050E0BE016D5F08
:104080007F4F88E090E00E94AE05000F110B42E0E8
:1040900050E0BE016F5F7F4FC80188509F4F0E9464
:1040A000E20589819A812BEEE22E21E0F22EF701C2
:1040B00091838083C8018C5F9E4F0E941606F70192
:1040C000938382830F900F900F90DF91CF911F9178
:1040D0000F91FF90EF900895CF93DF93CDB7DEB7A8
:1040E00067970FB6F894DEBF0FBECDBF789484B546
:1040F000826084BD84B5816084BD85B5826085BDE4
:1041000085B5816085BD80916E00816080936E0071
:104110001092810080918100826080938100809163
:104120008100816080938100809180008160809314
:104130008000809191008260809391008091910035
:1041400081608093910080919000816080939000C5
:104150008091C10084608093C1008091C100826021
:104160008093C1008091C10081608093C1008091E3
:10417000C30081608093C3008091C00082608093FF
:10418000C0008091C20081608093C20080917A005B
:10419000846080937A0080917A00826080937A00B4
:1041A00080917A00816080937A0080917A008068A3
:1041B00080937A00109226021092EA011092E9018F
:1041C0008091D70081608093D70080EA8093D800E7
:1041D00089B5806189BD89B5826089BD09B400FE59
:1041E000FDCF0E946F048091D8008F7C8061809306
:1041F000D8008091E000807F8093E0008091E10012
:104200008E7E8093E1008DE08093E200559A209AA3
:10421000EEEFFFE7859194918B3F9C4D19F481E07F
:104220008093E80160E084E00E949C1B60E08CE0E9
:104230000E949C1B60E087E10E949C1B60E083E180
:104240000E949C1B60E084E10E949C1B60E085E171
:104250000E949C1B60E086E10E949C1B61E083E061
:104260000E949C1B61E085E00E949C1B61E086E04F
:104270000E949C1B61E089E00E949C1B61E080E041
:104280000E949C1B61E08BE00E949C1B61E08AE025
:104290000E949C1B8FEF9FEF90937C0580937B0582
:1042A00044E050E0BE016F5F7F4F80E090E00E94ED
:1042B000E20589819A81AB81BC818B3F9B4FA1052F
:1042C000B10509F496C030E1C32EDD24D39440E853
:1042D000A42EB12C5EEC452E5AEF552E612C712C7C
:1042E00060EEE62EF12C08E910E0812C70E8972EA4
:1042F00061E070E0C8010E940F1260E070E0C80148
:1043000084960E940F1260E971E0C801C0960E9475
:104310000F1260E070E0C7010E940F1260E070E0D1
:10432000C70102960E940F1260E070E0C701049678
:104330000E940F1260E070E0C70106960E940F1203
:1043400061E070E0C801CC960E940F129E8A8D8AAF
:1043500042E050E0BE016B5E7F4FC801805A9F4F24
:104360000E94AE0560E270E0C80184599F4F0E9430
:104370000F12498A5A8A6B8A7C8A44E050E0BE0157
:104380006F5E7F4FC5010E94AE0562E971E0C60114
:104390000E94AE030E5F1F4F88E0E80EF11C9FEFF6
:1043A000491A590A690A790AA4E0AA0EB11CBAE2AC
:1043B000CB0ED11C043A110509F09ACF1F8A41E0B7
:1043C00050E0BE01695E7F4F88E090E00E94AE053C
:1043D0008BEF9BEFA0E0B0E08D879E87AF87B88B17
:1043E00044E050E0BE01635F7F4F80E090E00E94B8
:1043F000AE050E947510082F000F110B42E050E02F
:10440000BE016F5F7F4FC80188509F4F0E94E20539
:1044100089819A819093EC018093EB01C8018C5FB4
:104420009E4F0E9416069093EE018093ED0180E06E
:1044300091E09093C5058093C40561E08091C0052B
:104440000E949C1B61E08091C1050E949C1B0E9400
:10445000DB020E94A7028091C4059091C505DC0192
:10446000ED91FC910280F381E02D09950E94DB0221
:1044700045E069E671E08BE00E94120361E0809103
:10448000C0050E94E80F86E08093C3050E94CE1FFE
:1044900061E00E94971161E087E10E94E80F479A6E
:1044A00080910D02833030F063E575E087E594E09C
:1044B0000E94290680910D02882399F090E00197CF
:1044C0002AE0289FF001299FF00D1124E151FE4FB1
:1044D0008681863030F067E575E087E594E00E94DC
:1044E0002906E0910D020E2F10E0BAE0EB9FF001DB
:1044F0001124E151FE4F8AE493E09583848382E0A6
:104500008683C12CD12C7601C39436968081863067
:1045100040F48E5F80832FEFC21AD20AE20AF20AB9
:10452000F5CF8D3330F067EB76E087E594E00E94BD
:1045300029068AE0809FF001819FF00D1124E1514E
:10454000FE4F86814CE350E060E070E0481B51096B
:104550006109710981E0878364807580CC0CDD1C62
:104560009F012A5F3F4F8F01095F1F4F8AE0D901EA
:104570008C90912CA12CB12C481559056A057B050E
:1045800098F06C0C7D1CC3018C199D09DC016D92A7
:104590007C92D9018C91481B510961097109D8019C
:1045A0008C918F5F8C93E2CFD3011D921C929781E7
:1045B000908791872AE433E031832083738262827B
:1045C00090910D029F5F90930D022FE333E03093A3
:1045D0001102209310022BE030E030930F02209361
:1045E0000E021092E1051092E0052BE233E03093C9
:1045F000E3052093E2058093E4051092E50510920F
:10460000E6058093E7058093E80581E08093E9055E
:104610008091140290911502892B31F063E674E0C9
:1046200087E594E00E9429068FB7F8942AED35E0DB
:1046300030931502209314028FBFE090DC05F090B8
:10464000DD058091DE059091DF05892B29F0B8E921
:10465000EB16BBE1FB0631F061E970E087E594E021
:104660000E942906E091DE05F091DF0560E070E030
:104670008AED95E00995823031F064E970E087E5D4
:1046800094E00E942906E091DE05F091DF05FA83AF
:10469000E9836AE271E08AED95E0099510E0E09126
:1046A000DE05F091DF05EE15FF0591F01F5FA12FEC
:1046B000AA0FBB0B21E030E02C0F3D1FA20FB31F50
:1046C000ED93FC936AE271E08AED95E00995E7CFFE
:1046D00089819A819093DF058093DE05163034F04E
:1046E0006AEA70E087E594E00E942906E12FEE0F68
:1046F000FF0B81E090E08C0F9D1FE80FF91F0190E8
:10470000F081E02D6EE271E08AED95E0099511509F
:1047100017FFECCFE980FA8066E371E08AED95E05F
:10472000F7010995823009F4AECFF092DD05E092F1
:10473000DC05F092DF05E092DE0582E08093C000A8
:1047400087E08093C10080E4809372001092BF00E4
:104750001092BE008CE38093CF00F894E091240285
:10476000EE2309F4B8C1F0E0E75EFD4FE491AE2F0F
:10477000B0E0AA0FBB1FAE5EBD4F0D911C91E09340
:1047800086037894FFB6F894D80116968D919C9183
:104790001797892B31F460ED72E087E594E00E9471
:1047A0002906F80166807780858522858217D9F0F1
:1047B000948540853185E42FF32FE90FF11DE90F32
:1047C000F11D40815181D80117965C934E93169745
:1047D000911102C01C962C93F801948591509487F6
:1047E0008F5F85870CC017821682E785F0E0E8525C
:1047F000FE4FE49180912402E823E0932402FFBE5F
:10480000F801E280F38084819581E816F90631F0A1
:1048100069EC70E087E594E00E942906D8011496BF
:10482000AD90BC901597B301C801F501099584308E
:1048300029F46AE271E0C801F5010995833071F34A
:10484000823009F036C1D80114968D909C9015974E
:104850009A828982FC82EB82EA14FB0491F062E383
:1048600071E0C801F7010995811105C06AE271E0A4
:10487000C801F7010995D8011496ED90FC901597A1
:10488000EBCFE814F904D1F06AE271E0C801F40159
:104890000995D80114964D905C901597E414F50491
:1048A00091F06AE271E0C801F7010995D801149608
:1048B000CD90DC901597C414D50439F462E371E00F
:1048C000C801F7010995F12C86C0C814D90441F438
:1048D00062E371E0C801F7010995FF24FA947BC0F7
:1048E0005C824B826AE271E0C801F2010995FF2403
:1048F000F394833039F5EE24E394EF0CD801149649
:10490000ED91FC911597AE2DAA0FBB0B21E030E085
:104910002C0F3D1FA20FB31FED93FC93EA15FB056F
:1049200059F435E03E150CF056C065E271E087E5BC
:1049300094E00E9429064FC06AE271E0C80109951F
:10494000FE2CD7CF80E0811146C085E08F1534F46E
:1049500060E371E087E594E00E94290662E371E07C
:10496000C801F50109958F2DE82FEE0FFF0B21E00F
:1049700030E02C0F3D1FE20FF31F20813181815069
:10498000C216D30619F187FFEFCF62E371E0C801C9
:10499000F6010995811105C06AE271E0C801F601CE
:1049A0000995D8011496CD90DC9015978F2DE82F9E
:1049B000EE0FFF0B21E030E02C0F3D1FE20FF31F45
:1049C000208131818150C216D30611F4F82E03C024
:1049D00087FFEDCFDACFF7FC12C0EF2DEE0FFF0B04
:1049E00081E090E08C0F9D1FE80FF91F0190F0818E
:1049F000E02D6EE271E0C8010995FA94ECCFE980F0
:104A0000FA80D8011596FC92EE92149766E371E055
:104A1000C801F7010995823009F04BC0D8011496FE
:104A2000ED91FC911597FA83E9836AE271E0C80180
:104A30000995D12CD8011496ED91FC911597EE159E
:104A4000FF0589F0D394AD2DAA0FBB0B21E030E018
:104A50002C0F3D1FA20FB31FED93FC936AE271E090
:104A6000C8010995E7CFFD2C89819A8115969C9301
:104A70008E931497B5E0BD1534F467E871E087E5CF
:104A800094E00E942906EF2DEE0FFF0B21E030E0AD
:104A90002C0F3D1FE20FF31F0190F081E02D6EE21D
:104AA00071E0C8010995FA94F7FEEDCFE980FA802C
:104AB000ADCFD8011396FC92EE9212971596FC9208
:104AC000EE921497F3018281882309F446CEC30144
:104AD0000E94E21D42CE789440CE0895CF92DF929C
:104AE000EF92FF920F931F93CF93DF931F92CDB757
:104AF000DEB7182F062FE42E862F880F8E5F99833E
:104B00000E94740B83E00E94740BF12EC12E9981D8
:104B1000D92E8C2D8F19801798F4F601E7FE02C06C
:104B2000849101C080810E94740B182F80E00E9444
:104B3000740B8123FFEFCF1ADF0A8111EACF01C086
:104B400081E00F90DF91CF911F910F91FF90EF9037
:104B5000DF90CF900895CF93DF931092720510925B
:104B6000710588EE93E0A0E0B0E080937305909328
:104B70007405A0937505B093760585E491E0909354
:104B8000700580936F058FEF9FEF90937C05809366
:104B90007B0588E08093C00587E08093C10581E0B4
:104BA0008093C20580E18093C3051092C5051092E1
:104BB000C40562E082E00E949C1B62E081E00E94EA
:104BC0009C1BEAE3F4E0E491F0E0EE0FFF1FE65DEA
:104BD000FB4FA591B491B093CF05A093CE05EDE026
:104BE000F4E084918093D205E9E3F4E0E491F0E00D
:104BF000EE0FFF1FE65DFB4FC591D491D093D10519
:104C0000C093D005ECE0F4E0E491E093D30510927A
:104C1000D5051092D6051092D7051092D805EBE372
:104C2000FFE13197F1F7EC91E82381E009F480E0AE
:104C300028819091D305922309F082602EEC35E013
:104C40008093D4053093C9052093C80587E69BE07F
:104C5000909313018093120180916900837F846097
:104C600080936900E99A81E08093D9053093CD055E
:104C70002093CC058BE59BE0909317018093160160
:104C8000809169008F73806480936900EB9A82E061
:104C90008093D90588E99BE19093DD058093DC053D
:104CA0008BE995E19093DF058093DE0585E591E042
:104CB0009093DB058093DA051092EF051092EE05D4
:104CC0001092F1051092F0051092F3051092F20582
:104CD0001092F5051092F4058AE090E09093EB05B0
:104CE0008093EA051092EC051092ED051092FB05F9
:104CF0001092FA051092FD051092FC051092FF0526
:104D00001092FE0510920106109200068FE090E0CE
:104D10009093F7058093F6051092F8051092F90527
:104D200010920706109206061092090610920806C5
:104D300010920B0610920A0610920D0610920C06A5
:104D40008CE090E090930306809302061092040694
:104D50001092050610921306109212061092150674
:104D60001092140610921706109216061092190649
:104D7000109218068EE090E090930F0680930E0636
:104D8000109210061092110610921F0610921E0625
:104D900010922106109220061092230610922206ED
:104DA00010922506109224068DE090E090931B0649
:104DB00080931A0610921C0610921D0610922B0664
:104DC00010922A0610922D0610922C0610922F0691
:104DD00010922E06109231061092300680E190E07B
:104DE0009093270680932606109228061092290693
:104DF0001092320610923306109234061092350645
:104E000082E390E090937406809373061092760686
:104E1000109275061092780610927706DF91CF9166
:104E20000895DB018F939F930E945A27BF91AF9102
:104E3000A29F800D911DA39F900DB29F900D1124F4
:104E4000089597FB072E16F4009407D077FD09D03C
:104E50000E946D2707FC05D03EF4909581959F4FE9
:104E60000895709561957F4F0895052E97FB1EF468
:104E700000940E944C2757FD07D00E94812707FC11
:104E800003D04EF40C944C275095409530952195C5
:104E90003F4F4F4F5F4F0895909580957095619566
:104EA0007F4F8F4F9F4F0895EE0FFF1F0590F49196
:104EB000E02D09940E94A327A59F900DB49F900D0B
:104EC000A49F800D911D11240895B7FF0C945A27BB
:104ED0000E945A27821B930B0895AA1BBB1B51E10A
:104EE00007C0AA1FBB1FA617B70710F0A61BB70B5A
:104EF000881F991F5A95A9F780959095BC01CD01FF
:104F00000895A1E21A2EAA1BBB1BFD010DC0AA1F0A
:104F1000BB1FEE1FFF1FA217B307E407F50720F022
:104F2000A21BB30BE40BF50B661F771F881F991F9D
:104F30001A9469F760957095809590959B01AC01E6
:104F4000BD01CF010895A29FB001B39FC001A39FEF
:104F5000700D811D1124911DB29F700D811D1124B2
:104F6000911D0895CF93DF938230910510F482E074
:104F700090E0E0918706F091880620E030E0C0E004
:104F8000D0E0309711F14081518148175907C0F0A6
:104F90004817590761F482819381209719F09B8308
:104FA0008A832BC0909388068093870626C021159C
:104FB000310519F04217530718F49A01BE01DF01B9
:104FC000EF010280F381E02DDCCF2115310509F1DD
:104FD000281B390B2430310590F412968D919C9149
:104FE00013976115710521F0FB019383828304C03F
:104FF0009093880680938706FD01329644C0FD0198
:10500000E20FF31F81939193225031092D933C932A
:105010003AC02091850630918606232B41F42091D9
:105020001C0130911D013093860620938506209146
:105030001A0130911B012115310541F42DB73EB7FE
:1050400040911E0150911F01241B350BE0918506F4
:10505000F0918606E217F307A0F42E1B3F0B2817EA
:10506000390778F0AC014E5F5F4F2417350748F0E1
:105070004E0F5F1F50938606409385068193919350
:1050800002C0E0E0F0E0CF01DF91CF9108950F93EF
:105090001F93CF93DF93009709F48CC0FC013297E4
:1050A000138212820091870610918806011511055E
:1050B00081F420813181820F931F209185063091E8
:1050C00086062817390779F5F0938606E09385065A
:1050D00071C0D80140E050E0AE17BF0750F41296FF
:1050E0002D913C911397AD012115310509F1D9019D
:1050F000F3CF9D01DA013383228360817181860FB2
:10510000971F8217930769F4EC0128813981260FD4
:10511000371F2E5F3F4F318320838A819B8193838A
:105120008283452B29F4F0938806E093870642C0DA
:105130001396FC93EE931297ED01499159919E01BC
:10514000240F351FE217F30771F480819181840FDA
:10515000951F029611969C938E938281938113964C
:105160009C938E931297E0E0F0E0D80112968D9117
:105170009C911397009719F0F8018C01F6CF8D914F
:105180009C9198012E5F3F4F820F931F20918506BF
:10519000309186062817390769F4309729F4109260
:1051A00088061092870602C0138212821093860628
:1051B00000938506DF91CF911F910F91089581E0B3
:1051C00090E0F8940C94142FFB01DC0104C08D9145
:1051D0000190801921F441505040C8F7881B990B69
:1051E0000895AEE0B0E0E7EFF8E20C94EB2E0D8905
:1051F0001E8986E08C831A8309838FEF9FE79E8345
:105200008D83AE01475E5F4F6F89788DCE01019629
:105210000E942D292F813885F801E20FF31F10829B
:105220002E96E4E00C94072FAEE0B0E0EAE1F9E25C
:105230000C94ED2E85E08C838B899C899A838983DD
:10524000AE01495E5F4F6D897E89CE0101960E9455
:105250007F2C2E96E2E00C94092FACE0B0E0E3E363
:10526000F9E20C94DD2E7C016B018A01FC011782AE
:105270001682838181FFBDC1CE0101964C01F701E9
:105280009381F60193FD859193FF81916F018823AE
:1052900009F4ABC1853239F493FD859193FF819177
:1052A0006F01853229F4B70190E00E94152EE7CFF7
:1052B000512C312C20E02032A0F48B3269F030F4F4
:1052C000803259F0833269F420612CC08D3239F07C
:1052D000803339F4216026C02260246023C0286016
:1052E00021C027FD27C030ED380F3A3078F426FF73
:1052F00006C0FAE05F9E300D1124532E13C08AE0E1
:10530000389E300D1124332E20620CC08E3221F4D1
:1053100026FD6BC1206406C08C3611F4206802C0E3
:10532000883641F4F60193FD859193FF81916F01D9
:105330008111C1CF982F9F7D9554933028F40C5F35
:105340001F4FFFE3F9830DC0833631F0833771F0CF
:10535000833509F05BC022C0F801808189830E5F2C
:105360001F4F44244394512C540115C03801F2E0DE
:105370006F0E711CF801A080B18026FF03C0652D5F
:1053800070E002C06FEF7FEFC5012C870E94CC2D2B
:105390002C0183012C852F77222E17C03801F2E0D3
:1053A0006F0E711CF801A080B18026FF03C0652D2F
:1053B00070E002C06FEF7FEFC5012C870E94C12D06
:1053C0002C012C852068222E830123FC1BC0832DF9
:1053D00090E048165906B0F4B70180E290E00E94D0
:1053E000152E3A94F4CFF50127FC859127FE819183
:1053F0005F01B70190E00E94152E31103A94F1E060
:105400004F1A51084114510471F7E5C0843611F068
:10541000893639F5F80127FF07C0608171818281E3
:1054200093810C5F1F4F08C060817181072E000CB3
:10543000880B990B0E5F1F4F2F76722E97FF09C0B6
:1054400090958095709561957F4F8F4F9F4F206805
:10545000722E2AE030E0A4010E94662EA82EA81821
:1054600044C0853729F42F7EB22E2AE030E025C0D3
:10547000F22FF97FBF2E8F36C1F018F4883579F0FE
:10548000B4C0803719F0883721F0AFC02F2F2061CA
:10549000B22EB4FE0DC08B2D8460B82E09C024FF3F
:1054A0000AC09F2F9660B92E06C028E030E005C0E4
:1054B00020E130E002C020E132E0F801B7FE07C091
:1054C00060817181828193810C5F1F4F06C0608172
:1054D000718180E090E00E5F1F4FA4010E94662E54
:1054E000A82EA818FB2DFF777F2E76FE0BC0372D38
:1054F0003E7FA51450F474FE0AC072FC08C0372D1C
:105500003E7E05C0BA2C372D03C0BA2C01C0B52C85
:1055100034FF0DC0FE01EA0DF11D8081803311F4CE
:10552000397E09C032FF06C0B394B39404C0832F00
:10553000867809F0B39433FD13C030FF06C05A2CAF
:10554000B31418F4530C5B18B32CB31468F4B701FC
:1055500080E290E03C870E94152EB3943C85F5CF05
:10556000B31410F43B1801C0312C34FF12C0B70142
:1055700080E390E03C870E94152E3C8532FF17C0E7
:1055800031FD03C088E790E002C088E590E0B701F4
:105590000CC0832F867859F031FF02C08BE201C026
:1055A00080E237FD8DE2B70190E00E94152EA51430
:1055B00038F4B70180E390E00E94152E5A94F7CF9B
:1055C000AA94F401EA0DF11D8081B70190E00E94D8
:1055D000152EA110F5CF332009F451CEB70180E28A
:1055E00090E00E94152E3A94F6CFF70186819781BC
:1055F00002C08FEF9FEF2C96E2E10C94F92E20FD74
:1056000009C0FC0123FD05C022FF02C07383628331
:1056100051834083089544FD10C046FD10C0DB0156
:10562000FC01AA0FBB1FEE1FFF1F1094D1F76A0FDA
:105630007B1F8E1F9F1F31E003C033E001C034E0A9
:10564000660F771F881F991F3150D1F7620F711DA8
:10565000811D911D08950F931F93CF93DF938C01AC
:10566000C8010E94D72DEC0197FD08C00E94AD2D06
:10567000892BB1F7B801CE010E944D2ECE01DF91EA
:10568000CF911F910F910895A1E0B0E0EAE4FBE211
:105690000C94E32E8C01C62E7A0129830E94D72D0B
:1056A000AC01552729814B32510521F04D3251056E
:1056B00069F42068CA94C11002C080E076C0C801B5
:1056C00029830E94D72D298197FDF7CF322F3D7F67
:1056D000D32E322F307349F5803339F5BB24BA9479
:1056E000BC0C09F44EC0C80129830E94D72D298122
:1056F00097FD47C0382F3F7D383569F48D2D826482
:10570000D82ECA94CA94CC20E1F1C8010E94D72DAA
:1057100097FF0BC036C026FF04C02D2D2260D22E6D
:1057200003C03D2D3261D32ECB2C812C912C540102
:1057300020ED280F283080F0D4FE04C0B8010E946C
:105740004D2E1CC02A3040F0D6FEF8CF2F7D3FEE04
:10575000320F363098F727504D2DC501B4010E9405
:105760000B2B4B015C018D2D8260D82ECA94CC206E
:1057700059F0C8010E94D72D97FFDACFD1FC04C0A1
:105780009CCF812C912C5401D7FE08C0B094A094DA
:1057900090948094811C911CA11CB11C2D2DB501ED
:1057A000A401C7010E94FF2A81E02196ECE00C943D
:1057B000FF2EA1E2B0E0EFEDFBE20C94E12E5C01E4
:1057C0007A01CE0101966C0180E2F60111928A9570
:1057D000E9F7F501838040E050E0912C712C70E0F6
:1057E000A1E0B0E0F90183FC859183FE81918F01F6
:1057F000982F9F01811103C080E090E07CC08E351E
:1058000019F44115510549F1E72FF0E0E417F507C8
:105810003CF48D3559F18D3219F4772001F103C034
:10582000711001C0982E892F8695869586958601E0
:10583000080F111D892F87703D0101C0660C8A95E4
:10584000EAF7F801808186298083991559F0991526
:1058500010F49F5FE8CF9150E6CF71E004C0772449
:10586000739401C0712C4F5F5F4FBCCF772019F04C
:105870008E8180628E83711103C09924939416C027
:10588000F6019E012F5D3F4F808180958193E21745
:10589000F307D1F7F2CFE114F10429F0F701808387
:1058A000C70101967C016150912CF9F0C50169A3F3
:1058B0000E94D72D69A197FD16C0282F2695269501
:1058C0002695F601E20FF11D208130E0AC01477012
:1058D000552702C0359527954A95E2F720FDDBCF85
:1058E000B5010E944D2E911087CFE114F10411F003
:1058F000F7011082C801A196EEE00C94FD2E4F92A4
:105900005F927F928F929F92AF92BF92CF92DF92DF
:10591000EF92FF920F931F93CF93DF931F92CDB718
:10592000DEB76C012B015A01FC0117821682712C23
:10593000F601F380F201F3FC8591F3FE8191382F9B
:105940002F01882309F4F3C090E039830E94AD2D24
:105950003981892B21F0C6010E942B2BE9CF3532EA
:1059600041F4F201F3FC3591F3FE31912F01353210
:1059700069F4C60139830E94D72D398197FDD5C0BE
:105980003817B1F2B6010E944D2ED1C03A3239F427
:10599000F3FC3591F3FE31912F0151E001C050E04D
:1059A000420110E020ED230F2A3090F45260612F65
:1059B00070E080E090E040E259830E940B2B162FAC
:1059C000F401F3FC3591F3FE31914F015981EACF97
:1059D000052F232F240151FF03C0111102C0A7C0BE
:1059E0001FEF383619F03C3659F011C0F401F3FCC2
:1059F0002591F3FE21912F01283649F4052F0860E7
:105A00000460F201F3FC2591F3FE21912F01222382
:105A100009F48DC0622F70E08AEE94E029830E9421
:105A2000B62D2981892B09F482C000FD07C0F5013C
:105A3000E080F180C50102965C0102C0E12CF12CEE
:105A40002E3651F4F6014681578160E070E0202F38
:105A5000C7010E94FF2A6CCF233691F401FF11E0A9
:105A6000C6010E94D72D97FD60C0E114F10429F012
:105A7000F7018083C70101967C01115089F751C05D
:105A80002B3559F49201A701612FC6010E94D92B31
:105A90002C01892B09F045C03FC0C60129830E9413
:105AA0002B2B298197FD41C02F3659F128F424363C
:105AB00031F1293649F127C0233769F02537F9F04C
:105AC00022C0E114F10429F0F7018082C701019698
:105AD0007C01115071F0C6010E94D72D4C0197FD39
