:100000000C948D020C946D090C9446090C941F09F4
:100010000C94F8080C94B5020C94B5020C94D10819
:100020000C94B5020C94B5020C947C040C94EE0470
:100030000C94B5020C94B5020C94B5020C94B50264
:100040000C94B5020C94B5020C94B5020C94B50254
:100050000C94B5020C94B5020C94B5020C9487086C
:100060000C94B5020C94B5020C94B5020C94B50234
:100070000C94B5020C94B5020C94B5020C94B50224
:100080000C94B5020C94B5020C94B5020C94B50214
:100090000C94B5020C94B5020C948D150C94B50219
:1000A0000C94B5020C94B5020C94B502560759078E
:1000B00048074C0750077A077A077A075D076107F8
:1000C00065076B076F077A077507F107F607FB07E8
:1000D00005080F08590859085908190823082D0858
:1000E0003708440859084C08310F7610850E9B10CC
:1000F0009B109B1019109B10180E9B109B109B10AF
:10010000E80E700E9B0F9B10DC0D9B109B10B70E22
:100110009B109B109B109B109B109B109B109B1087
:100120009B109B109B109B10230F7B107E0EA00E2C
:100130009B109B10CE0F780DEC0D9B109B109B100D
:10014000D30E3E0E900F9B10D30DB20DC10DAB0E12
:10015000520FA80DB60D540FD810E4102511E4105D
:10016000F310E610EC10E9102511251125112511C9
:100170002511251125112D11EF10F916C617BF17DE
:100180007E17BF17AC17B617B117BF17BF17BF172A
:100190000F174D1DAE1DAE1D451DAE1D471D491D42
:1001A000AE1DAE1D4B1D511D4F1D7C1DAE1DAE1D48
:1001B000601DAE1D671D6E1DAE1DAE1D751D801D23
:1001C0007E1DA21DAE1DAE1D941DAE1D971D9C1D56
:1001D000AE1DAE1D9F1DAA1DA71D05A84CCDB2D4F6
:1001E0004EB93836A9020C50B9918688083CA6AAA7
:1001F000AA2ABE000000803F000000002400270063
:100200002A002D00300000000000250028002B00EF
:100210002E0031000000000200090F00000304015D
:10022000000C0000000000000000000000000000C2
:10023000000000080B000202020100090400000196
:10024000020200000524001001052401010104241C
:100250000206052406000107058103100040090479
:100260000100020A00000007050202400000070525
:1002700083024000000403090441726475696E6FD3
:10028000204C4C430041726475696E6F204C656F61
:100290006E6172646F001201000200000040412391
:1002A000368000010102030112010002EF02014049
:1002B00041233680000101020301000102040810FD
:1002C0002040800102040810204080010204081030
:1002D0002040800102040810204080010204081020
:1002E0002040800102040810204080010204081010
:1002F000204080010204081020408000000000001F
:1003000000000000010101010101010102020202DD
:1003100002020202030303030303030304040404AD
:10032000040404040505050505050505060606067D
:100330000606060607070707070707072F55736511
:1003400072732F647468617965722F2E6C656E7A92
:10035000686F756E642F6275696C642F736B65745A
:1003600063682F616F5F5478722E63707000FFFEB8
:10037000FDFBF7EFDFBF7FFEFDFBF7EFDFBF7FFE8B
:10038000FDFBF7EFDFBF7FFEFDFBF7EFDFBF7FFE7B
:10039000FDFBF7EFDFBF7FFEFDFBF7EFDFBF7FFE6B
:1003A000FDFBF7EFDFBF7FFEFDFBF7EFDFBF7F0059
:1003B0000102020303030304040404040404040507
:1003C00005050505050505050505050505050506DC
:1003D00006060606060606060606060606060606BD
:1003E00006060606060606060606060606060607AC
:1003F000070707070707070707070707070707078D
:10040000070707070707070707070707070707077C
:10041000070707070707070707070707070707076C
:10042000070707070707070707070707070707085B
:10043000080808080808080808080808080808083C
:10044000080808080808080808080808080808082C
:10045000080808080808080808080808080808081C
:10046000080808080808080808080808080808080C
:1004700008080808080808080808080808080808FC
:1004800008080808080808080808080808080808EC
:1004900008080808080808080808080808080808DC
:1004A00008080808080808080808080808080804D0
:1004B0000802011040804010204080408008020463
:1004C00001804020100201108010204040200000D8
:1004D00000002300260029002C002F00040404043F
:1004E00004030405020202020403020202020606D9
:1004F00006060606040402020204047170000706E0
:1005000005040100080A0B0C0D096364696E6F7025
:10051000737578585B009726C32011241FBECFEF58
:10052000DAE0DEBFCDBF11E0A0E0B1E0E8E8F5E63B
:1005300002C005900D92A83EB107D9F726E0A8EEBB
:10054000B1E001C01D92A139B207E1F712E0CCE899
:10055000D2E004C02197FE010E945C28CB38D1076D
:10056000C9F70E94C4200C94B7320C94000040914B
:10057000F4015091F5012091F2013091F3014217FD
:100580005307B4F49091E8009570E1F39091E8007E
:1005900092FD19C08093F1008091F4019091F501D2
:1005A00001968F739927892B19F48EEF8093E800B9
:1005B0008091F4019091F50101969093F50180935B
:1005C000F40181E0089580E00895DF92EF92FF92B8
:1005D0000F931F93CF93DF93D82E8A017B01E40EF4
:1005E000F51EEB01CE15DF0571F0D7FE03C0FE014D
:1005F000849101C088810E94B70221968111F2CFB7
:100600008FEF9FEF01C0C801DF91CF911F910F9134
:10061000FF90EF90DF900895615030F02091F1004D
:10062000FC0120830196F8CF289884E680937B050F
:100630000895CF92DF92EF92FF920F931F93CF9383
:10064000DF936C017A018B01C0E0D0E0CE15DF05AD
:1006500089F0D8016D918D01D601ED91FC91019049
:10066000F081E02DC6010995892B11F47E0102C0AD
:100670002196ECCFC701DF91CF911F910F91FF9091
:10068000EF90DF90CF900895CF93DF931F92CDB777
:10069000DEB76983DC01ED91FC910280F381E02DEE
:1006A00041E050E0BE016F5F7F4F09950F90DF91F1
:1006B000CF91089583E08093E9008091F200882330
:1006C00019F08AE38093E8000895FC0184859585FC
:1006D00097FD0BC09FB7F89482E08093E90080916A
:1006E000F2009FBF90E0019608959FB7F89482E0D2
:1006F0008093E9008091F2009FBF90E008950895F3
:1007000008950F931F93CF93DF931F92CDB7DEB75A
:1007100082E0898342E450E063E372E080E80E9473
:10072000E5020E947220DC0112960D911C91139734
:100730000115110569F0D801ED91FC910280F3815A
:10074000E02DBE016F5F7F4FC801099597FF07C07D
:1007500089810F90DF91CF911F910F910895F8013A
:1007600000851185E5CF8F929F92AF92BF92CF9275
:10077000DF92EF92FF920F931F93CF93DF935C0171
:100780006B018A0180910B01882309F459C0809183
:100790007C05882309F454C08091020280FF05C0C3
:1007A0008091E00082608093E000E8018AEFF82EFB
:1007B00093E0E92E2FE3822E3AE3932E2097C9F19E
:1007C0008FB7F894E092E9009091E80095FF06C099
:1007D0009091F200282D291B922F01C090E08FBF2D
:1007E000911106C0FA94FF2059F10E945820E6CFDB
:1007F000292F30E0C217D3070CF49C2F8FB7F89441
:10080000E092E9002091E80025FF11C0292F30E097
:10081000C21BD30BF601915020F041914093F1009F
:10082000FACFC20ED31E9091E80095FF13C08FBF80
:10083000C5CF5D9884E68093F6011016110644F04A
:1008400081E090E0F5019383828380E090E005C031
:10085000C80103C09092E800EACFDF91CF911F91C9
:100860000F91FF90EF90DF90CF90BF90AF909F904F
:100870008F9008950F931F93CF93DF931F92CDB75F
:10088000DEB78C01FC018485958597FF0EC0CE01F3
:1008900001960E942E20019719F4298130E002C0B0
:1008A0002FEF3FEFF80135872487F8018485958580
:1008B0000F90DF91CF911F910F910895CF93DF9308
:1008C0001F92CDB7DEB7FC018485958597FD05C0E5
:1008D0002FEF3FEF358724870BC0CE0101960E9492
:1008E0002E20019719F4898190E002C08FEF9FEFCD
:1008F0000F90DF91CF9108951F920F920FB60F9234
:1009000011248F939F938091E1009091E100937F58
:100910009093E10083FF0FC01092E90091E0909363
:10092000EB001092EC0092E39093ED0010927C05A6
:1009300098E09093F00082FF20C093E09093E9004C
:100940009091F200992319F09AE39093E800909126
:10095000F601992339F09091F60191509093F601A8
:10096000992389F190917B05992339F090917B052A
:10097000915090937B05992341F184FF10C08091A1
:10098000E2008E7E81608093E2008091E1008F7EA4
:100990008093E100809102028E7E806111C080FF11
:1009A00016C08091E2008E7E80618093E20080918B
:1009B000E1008E7E8093E100809102028E7E816054
:1009C0008093020204C05D9ACDCF289AD6CF9F9122
:1009D0008F910F900FBE0F901F9018951F920F923E
:1009E0000FB60F921124CF92DF92EF92FF920F93E6
:1009F0001F932F933F934F935F936F937F938F93A7
:100A00009F93AF93BF93EF93FF93CF93DF93CDB7B4
:100A1000DEB76C97DEBFCDBF1092E9008091E80091
:100A200083FFFAC168E0CE0145960E940C0382EF75
:100A30008093E8008D8987FF05C09091E80090FFC2
:100A4000FCCF03C09EEF9093E800982F907609F0BA
:100A5000C6C09E892F89188D91110CC0803829F449
:100A6000809103028093F10002C01092F100109275
:100A7000F10047C1422F50E0512B913051F48111C8
:100A800040C14130510509F03CC1809103028D7F86
:100A90000BC0933061F4811134C14130510509F02C
:100AA00030C1809103028260809303022AC1953095
:100AB00041F48091E80080FFFCCF20682093E300A0
:100AC00020C1963009F05FC0EB8CFC8C1092E900DD
:100AD0001092F5011092F401123091F51092F30189
:100AE0001092F2010E94810399E0BE016F5F7F4F77
:100AF000DB01E92F1D92EA95E9F799831A8391E0CA
:100B00009E8390EA98879AEF99872091F40130911B
:100B1000F501275F3F4F3C832B838D831092E900C3
:100B20001092F5011092F401F092F301E092F201BB
:100B300049E050E080E00E94E5020E948103E1C0AC
:100B4000F092F301E092F2010E947220DC01129611
:100B5000ED90FC901397E114F10409F4C0C0D701A3
:100B6000ED91FC910480F581E02DBE016B5E7F4F1D
:100B7000C7010995009719F00CF0C3C0C6C0F70172
:100B8000E084F184E8CF973009F4BFC0983021F4B5
:100B900081E08093F100B5C0993009F0B2C0837054
:100BA00009F0B3C0E1E2F1E081E021E036E39081B9
:100BB000992361F08093E9002093EB009191909349
:100BC000EC003093ED008F5F873089F78EE78093DC
:100BD000EA001092EA008F8980937C0592C08B8D89
:100BE0009C8D1092E9001092F5011092F4019093FF
:100BF000F3018093F201898D811156C08E899D8900
:100C0000913A59F4813209F080C047E050E064E045
:100C100071E080E00E94E50274C0913209F075C075
:100C2000833289F4888D90E0982F88272F89822B32
:100C3000A0E0B0E08093000190930101A093020135
:100C4000B09303015EC0803269F48091E80082FFB6
:100C5000FCCF67E084E091E00E940C038BEF80936F
:100C6000E80006C0823209F04CC08F8980930B01E6
:100C700080910102882319F0EEEFFAE002C0E0E073
:100C8000F8E08091040190910501A0910601B091D6
:100C90000701803B9440A105B10509F088C080910F
:100CA0000B0180FFA0C083C00E947220DC0112965D
:100CB0000D911C9113970115110539F1D801ED9192
:100CC000FC910190F081E02DBE016B5E7F4FC80169
:100CD0000995811116C0F80100851185ECCF1130FE
:100CE000C1F0133091F48F89882309F455C0823004
:100CF000E9F440E860E185E892E00E9486208823DC
:100D000021F08EEF8093E80087C081E28093EB00B2
:100D100083C08B8D9C8D089711F41093F101809105
:100D2000F101811136C066E972E038C0813029F4E2
:100D300040E86BE089E792E0E0CF833031F70E9432
:100D40007220DC011296ED90FC9013978E010F5FDC
:100D50001F4F6801E114F10479F0D701ED91FC9186
:100D60000680F781E02DB801C7010995080F111D14
:100D7000F701E084F184EECFD8011C92F6010190D6
:100D80000020E9F73197BF016C197D0940E0C601E9
:100D9000B4CF68EA72E002C065E772E061157105E0
:100DA00009F4B3CFFB01449150E080E833CF0FB694
:100DB000F894A895809160008861809360001092FB
:100DC00060000FBEA895EE3F2AE0F20739F080914F
:100DD000FE0A9091FF0A9183808393CF1092FF0ABD
:100DE0001092FE0A8ECFEE3F8AE0F80731F0808144
:100DF00091819093FF0A8093FE0A87E797E791839A
:100E000080839BE088E10FB6F894A89580936000FA
:100E10000FBE9093600075CF6C960FB6F894DEBF4E
:100E20000FBECDBFDF91CF91FF91EF91BF91AF91F9
:100E30009F918F917F916F915F914F913F912F91F2
:100E40001F910F91FF90EF90DF90CF900F900FBE0A
:100E50000F901F901895362F90E0FC01EC5EFD4F2F
:100E60004491FC01E155FB4F2491FC01E452FB4FFE
:100E70008491882309F451C04423E1F150E0FA0140
:100E80003197EF30F105B0F5EA5AFF4F0C945C282A
:100E9000909180009F7707C0909180009F7D03C054
:100EA00090918000977F9093800024C094B59F77A5
:100EB00002C094B59F7D94BD1DC0909190009F7716
:100EC00007C0909190009F7D03C090919000977F04
:100ED000909390000FC09091C0009F7703C09091B5
:100EE000C0009F7D9093C00005C09091C200977F85
:100EF0009093C200E82FF0E0EE0FFF1FEA5FFD4F76
:100F0000A591B4918FB7F894EC91311103C020955D
:100F10002E2301C02E2B2C938FBF0895CF93DF93E8
:100F200090E0FC01E155FB4F2491FC01E452FB4FA2
:100F30008491882361F190E0880F991FFC01E850AB
:100F4000FE4FC591D491FC01EA5FFD4FA591B4918C
:100F5000611109C09FB7F894888120958223888306
:100F6000EC912E230BC0623061F49FB7F894388166
:100F7000822F809583238883EC912E2B2C939FBF07
:100F800006C08FB7F894E8812E2B28838FBFDF919E
:100F9000CF9108951F93CF93DF93182FEB0161E05A
:100FA0000E948E07209711F460E004C0CF3FD10566
:100FB00039F461E0812FDF91CF911F910C942B07C1
:100FC000E12FF0E0EC5EFD4FE4914E2F50E0FA018E
:100FD0003197EF30F10508F06CC0EB59FF4F0C94DE
:100FE0005C2884B5806884BDC7BD68C084B5806254
:100FF00084BDC8BD63C080918000806880938000FC
:10100000D0938900C093880059C08091800080628D
:1010100080938000D0938B00C0938A004FC0809152
:101020008000886080938000D0938D00C0938C00F6
:1010300045C080919000806880939000D093990083
:10104000C09398003BC08091900080628093900094
:10105000D0939B00C0939A0031C08091900088602B
:1010600080939000D0939D00C0939C0027C08091F6
:10107000C00080688093C0008091C0008F7B809307
:10108000C000C093CF001AC08091C00080628093DE
:10109000C000C093D00012C08091C20088608093CD
:1010A000C2008091C2008B7F8093C200C093D200A7
:1010B00005C0C038D1050CF07CCF76CFDF91CF9141
:1010C0001F9108953FB7F8948091ED019091EE0142
:1010D000A091EF01B091F00126B5A89B05C02F3F6C
:1010E00019F00196A11DB11D3FBFBA2FA92F982F4E
:1010F0008827820F911DA11DB11DBC01CD0142E0C9
:10110000660F771F881F991F4A95D1F708951F9280
:101110000F920FB60F9211242F933F938F939F93AB
:10112000AF93BF938091E8019091E901A091EA010A
:10113000B091EB013091EC0123E0230F2D3720F427
:101140000196A11DB11D05C026E8230F0296A11D21
:10115000B11D2093EC018093E8019093E901A093E5
:10116000EA01B093EB018091ED019091EE01A09125
:10117000EF01B091F0010196A11DB11D8093ED0129
:101180009093EE01A093EF01B093F001BF91AF9166
:101190009F918F913F912F910F900FBE0F901F90B5
:1011A00018951F920F920FB60F9211242F933F9311
:1011B0004F935F936F937F938F939F93AF93BF935F
:1011C000EF93FF93E0911801F09119010995FF91B8
:1011D000EF91BF91AF919F918F917F916F915F91AF
:1011E0004F913F912F910F900FBE0F901F90189528
:1011F0001F920F920FB60F9211242F933F934F938C
:101200005F936F937F938F939F93AF93BF93EF936E
:10121000FF93E0911601F09117010995FF91EF916D
:10122000BF91AF919F918F917F916F915F914F91FE
:101230003F912F910F900FBE0F901F9018951F9206
:101240000F920FB60F9211242F933F934F935F93FA
:101250006F937F938F939F93AF93BF93EF93FF937E
:10126000E0911401F09115010995FF91EF91BF9163
:10127000AF919F918F917F916F915F914F913F912E
:101280002F910F900FBE0F901F9018951F920F92E5
:101290000FB60F9211242F933F934F935F936F9349
:1012A0007F938F939F93AF93BF93EF93FF93E091BF
:1012B0001201F09113010995FF91EF91BF91AF9148
:1012C0009F918F917F916F915F914F913F912F915E
:1012D0000F900FBE0F901F9018951F920F920FB690
:1012E0000F9211242F933F934F935F936F937F93AC
:1012F0008F939F93AF93BF93EF93FF93E091100170
:10130000F09111010995FF91EF91BF91AF919F91DC
:101310008F917F916F915F914F913F912F910F909E
:101320000FBE0F901F9018956EBD00000DB407FE04
:10133000FDCF8EB5089581E0089520917F0630910C
:10134000800623503A4FFC0140814423F9F040913C
:101350007F06509180064138510544F44F5F5F4F3E
:101360005093800640937F06F90108C010928006D2
:1013700010927F06EDEFF5E089E691E09F012F5F87
:101380003F4FDC014C9140830196DDCF0895CF9310
:10139000CFB7F8948091F901811127C0EDEEF4E008
:1013A0008491E0ECF4E09491E82FF0E0EE0FFF1F61
:1013B000E850FE4FA591B491EC91E92321F461E04E
:1013C00081E10E942B0761E081E10E948E078CB5CC
:1013D00080618CBD8CB580648CBD61E08FE00E9423
:1013E0008E0761E080E10E948E078091F9018F5F96
:1013F0008093F901CFBF8CB5837F8CBD8CB58C7F7A
:1014000081608CBD8DB58E7F8DBDCF9108950C947C
:10141000EF2BEF92FF920F931F93CF93FC018FB7A7
:10142000F8949381923020F0915093838FBF4EC0F7
:101430008F01E281CFEFCE0F8FBF80912602C817B8
:1014400030F06DEA74E08BEF94E00E944C13EC2EC8
:10145000F12C8AE0C89FF0011124E85FFD4F9085D0
:101460008781981730F065EE76E08BEF94E00E946C
:101470004C138AE08E9DF0018F9DF00D1124E85FE2
:10148000FD4F808191810817190728F0828193818F
:101490008017910730F466EE76E08BEF94E00E94BF
:1014A0004C139FB7F8948AE08E9DF0018F9DF00D4C
:1014B0001124E85FFD4F24813581D8012D933C93A1
:1014C0001583048380858F5F80879FBFCF911F9195
:1014D0000F91FF90EF9008952FB7F894FC0140858D
:1014E0005185452B21F01186108681E001C080E0F6
:1014F0002FBF0895EF92FF920F931F93CF93DF9327
:10150000EC018B017A01452B51F0672B41F0888566
:101510009985892B21F488819981049734F46DE0B1
:1015200077E08BEF94E00E944C138FB7F894F98624
:10153000E8861F830E839B8191110CC02091F701D7
:101540003091F8013D832C83D093F801C093F701CB
:1015500091E09B838FBFDF91CF911F910F91FF90FF
:10156000EF900895CF92DF92EF92FF920F931F9327
:10157000CF93DF93D82F8B01C0E08AE0E82ECC2EEA
:10158000D12CEC9CF001ED9CF00D1124E85FFD4F97
:101590009681FF24F394FC0E9D1760F4CF2D80916B
:1015A0002602F81660F36DE275E08BEF94E00E947E
:1015B0004C13E5CFEFB6F894C481D5812097E1F0C4
:1015C00088819981958384838085811106C06CE729
:1015D00076E08BEF94E00E944C138AE08C9DF00142
:1015E0008D9DF00D1124E85FFD4F8085815080872F
:1015F0009185891708F48187EFBE209731F469E35C
:1016000075E08BEF94E00E944C1319830883FA82F3
:101610001B82CE01DF91CF911F910F91FF90EF9030
:10162000DF90CF9008950F931F93CF93DF93DC014A
:101630008B011F969C911F97C92FD0E064307105D4
:10164000A4F02091270230912802621773076CF4EE
:101650009150983050F4FE01EE0FFF1FE850FC4F00
:10166000808191818A179B0731F065E473E08BEFED
:1016700094E00E944C13FE01E550FD4F84919FB70A
:10168000F894FE01E654FD4FC491A0912902B09157
:101690002A020A0F1B1FD801A80FB11DEC91EC2BD9
:1016A000EC939FBFDF91CF911F910F910895FF920F
:1016B0000F931F93CF93DF93EC01FB01FFB6F894D8
:1016C0008281882319F083818F5F83838E819F813C
:1016D000892B69F4FF83EE83EF85F0E0E654FD4F3C
:1016E000E49180910A04E82BE0930A0424C08F015E
:1016F0008D85811106C061EB72E08BEF94E00E9452
:101700004C138B8528859985E22FF92FE80FF11D61
:10171000E80FF11D118300838B85811102C08A853A
:101720008B878B8581508B878D8581508D879E859A
:10173000891708F48E87FFBEDF91CF911F910F911B
:10174000FF900895FF920F931F93CF93DF938C0127
:10175000DC012D913C91809127029091280228175D
:10176000390734F06DE775E08BEF94E00E944C137D
:101770009FB7F894F8018281882319F083818F5FE5
:1017800083839FBFE0912902F0912A02D8018D91B5
:101790009C91E80FF91FF080FF2011F1EF2DF0E090
:1017A000E155FC4FC491D0E0FE01E259FC4FE491B9
:1017B000FE22CC0FDD1FFE01E850FC4F808191819D
:1017C000892B31F464E975E08BEF94E00E944C13AF
:1017D000C850DC4FB801888199810E94570BDCCF3B
:1017E000F8018281882341F0C801DF91CF911F91D8
:1017F0000F91FF900C94090ADF91CF911F910F91E7
:10180000FF9008950895CF93DF931F92CDB7DEB771
:1018100041E050E0BE016F5F7F4F80E290E00E94A8
:1018200005138981843014F083E002C087FD80E0D5
:101830000F90DF91CF910895AF92BF92CF92DF9238
:10184000EF92FF920F931F93CF93DF9300D0CDB70A
:10185000DEB7E0900402F0900502009106021091BC
:1018600007020E94030C880F990B42E050E0BE0172
:101870006F5F7F4F88509F4F0E940513A980BA80E9
:101880000E94030C880F990B8C5F9E4F0E943913A6
:101890006C01AE14BF0479F00E94030CFA82E98255
:1018A000880F990B42E050E0BE016F5F7F4F885078
:1018B0009F4F0E94BE12C016D10649F00E94030C31
:1018C000880F990BB8018C5F9E4F0E94F2120F9007
:1018D0000F90DF91CF911F910F91FF90EF90DF90CC
:1018E000CF90BF90AF900895EF92FF920F931F9308
:1018F000CF93DF9300D01F92CDB7DEB7082F0E94A1
:101900001C0C0B8341E050E0BE016D5F7F4F80E215
:1019100090E00E94BE12000F110B42E050E0BE01A9
:101920006F5F7F4FC80188509F4F0E9405138981C8
:101930009A8124E0E22E22E0F22EF7019183808347
:10194000C8018C5F9E4F0E943913F70193838283F5
:101950000F900F900F90DF91CF911F910F91FF90FB
:10196000EF9008950E949D0980E791E00C949D09F5
:101970000F931F93CF93DF93CDB7DEB760970FB66A
:10198000F894DEBF0FBECDBF7F936F93282F082E34
:10199000000C330B3F938F9382E791E09F938F93DB
:1019A0008E010F5F1F4F1F930F930E94942CC8014D
:1019B0000E94B20C0FB6F894DEBF0FBECDBF60968A
:1019C0000FB6F894DEBF0FBECDBFDF91CF911F9150
:1019D0000F9108950F931F93CF93DF93CDB7DEB789
:1019E000EC970FB6F894DEBF0FBECDBF7F936F9319
:1019F000282F082E000C330B3F938F9388E791E03C
:101A00009F938F938E010F5F1F4F1F930F930E9421
:101A1000942CC8010E94B20C0FB6F894DEBF0FBE22
:101A2000CDBFEC960FB6F894DEBF0FBECDBFDF91F1
:101A3000CF911F910F9108950F931F93CF93DF9331
:101A4000CDB7DEB760970FB6F894DEBF0FBECDBF3F
:101A5000282F082E000C330B3F938F938EE791E0D5
:101A60009F938F938E010F5F1F4F1F930F930E94C1
:101A7000942CC8010E94B20C0F900F900F900F9001
:101A80000F900F9060960FB6F894DEBF0FBECDBFDB
:101A9000DF91CF911F910F9108954F925F926F92B6
:101AA0007F928F929F92AF92BF92CF92DF92EF92EE
:101AB000FF920F931F93CF93DF93CDB7DEB7CA5733
:101AC000D1090FB6F894DEBF0FBECDBFE0917D0502
:101AD0004E2FEE0F550B660B770BFA01E154F1090F
:101AE000E833F10508F027C3EC58FF4F0C945C284D
:101AF000833091050CF4C0C2029720917F0630918B
:101B00008006AC01420F531F413851052CF089E685
:101B100091E00E949D0917C0AFE7B5E023503A4F0E
:101B2000F9014D914193AF01421B530B48175907DF
:101B3000C4F320917F0630918006820F931F90930B
:101B4000800680937F0680E791E00E949D09F7C29E
:101B50008BE891E09F938F931F9286E78F9388E79E
:101B600091E02CC160E070E082E723C0FE01319675
:101B700086E0DF011D928A95E9F781E0898341E0E3
:101B80000AC0FE01319686E0DF011D928A95E9F7D1
:101B900083E0898343E05A816B817C818D819E81C2
:101BA0000E94B311CCC20E94030C682F880F770BE0
:101BB00081E70E94B80CC3C20E940E208C010E94D3
:101BC000030C282F880F330B0217130719F0802FEF
:101BD0000E94740C81E587C20E94030CB4E08B0262
:101BE000C001112444E050E08E010F5F1F4FB80187
:101BF00080589F4F0E94051389819A812B813C81D7
:101C00003F932F939F938F931F9289E68F9380E941
:101C100091E09F938F931F930F930E94942CC80180
:101C20000E94B20C0FB6F894DEBF0FBECDBF87C2C4
:101C30008E010F5F1F4F1F930F9383E991E09F93D6
:101C40008F938FE795E09F938F930E94B72CC98065
:101C5000DA80EB80FC800E94030CC982DA82EB827E
:101C6000FC82F4E08F02C001112444E050E0B8018E
:101C700080589F4F0E94BE1289E487C10E94030CC6
:101C80002AE28202C00111247C0130EFE31A3EEF08
:101C9000F30A81E09BE5E91693E0F90608F080E09D
:101CA00060E070E00E948B12DE0111966D0100E091
:101CB00010E05D01C701800F911F0E946A32F6019A
:101CC00081936F01882329F00F5F1F4F093211059F
:101CD00089F7F501E00FF11F1082B5018EE628C2E9
:101CE0000E94030CFAE28F02C00111246FE775E035
:101CF000805F9E4F0E94AC1F8EE4F5C180E390E0B0
:101D00000E943913BC0183E654CFCE0101969F9304
:101D10008F938AE991E09F938F938FE795E09F934C
:101D20008F930E94B72C09811A81B80180E390E05B
:101D30000E94F21260E0C8010E94211283E425C1D2
:101D4000FE01319686E0DF011D928A95E9F78DE06C
:101D500089834DE020CF86E290E00E94391361E054
:101D600070E0892B11F460E070E084E722CFCE01AF
:101D700001969F938F9385EC91E09F938F938FE7CC
:101D800095E09F938F930E94B72C61E070E089816A
:101D90009A81892B11F460E070E086E290E00E9465
:101DA000F21284E5F2C0809105028F9380910402C3
:101DB0008F931F928DE68F9387E991E09F938F9386
:101DC0008E010F5F1F4F1F930F930E94942C27CFFC
:101DD0008E010F5F1F4F1F930F935AE9C52E51E0DD
:101DE000D52EDF92CF926FE7E62E65E0F62EFF92BA
:101DF000EF920E94B72C89819A819093050280937B
:101E0000040286E0D8011D928A95E9F787E089836C
:101E10000C591F4F1F930F93DF92CF92FF92EF92B7
:101E20000E94B72CF80180819181582F8A839B836F
:101E30004981692F7C818D819E810E94B3118DE43F
:101E40000E941C0DEFCE609106027091070277FF91
:101E500002C06D5F7F4F759567957595679581E6B3
:101E6000A8CE0E940E20880F991F880F991F90936B
:101E7000070280930602FE01319686E0DF011D9283
:101E80008A95E9F78BE089830E940E20582F8A8378
:101E90009B834981692F7C818D819E810E94B31132
:101EA00081E421C185E71FC18E010F5F1F4F86E0CE
:101EB000F80111928A95E9F78BE0898380910602F7
:101EC0009091070297FD039695958795959587952F
:101ED000582F9B838A8349816B817C818D819E8170
:101EE0000E94B31186E0D8011D928A95E9F787E038
:101EF00089838091040290910502582F8A839B83E5
:101F000047E0692F7C818D819E810E94B31180E31F
:101F100090E00E94391360E00E94211288E7E3C03C
:101F2000FE01319686E0DF011D928A95E9F786E190
:101F3000898346E130CEFE01319686E0DF011D92B5
:101F40008A95E9F787E189838E010B591F4F1F930B
:101F50000F9384EE91E09F938F938FE795E09F938B
:101F60008F930E94B72CF801808131812281938167
:101F7000582F8A833B832C839D834981632F722F43
:101F8000892F9E810E94B3118FE40E941C0D0F9037
:101F90000F900F900F900F900F90D1C00E940E20C5
:101FA00003E813E0081B190B0131110514F000E1DF
:101FB00010E017FF02C000E010E06E01F5E6CF0E62
:101FC000D11CA801B6010E94051319829E012F5F42
:101FD0003F4F79015601B9019DE9892E91E0992E73
:101FE000C5018C199D09801791070CF5D5018D91BC
:101FF0005D011F928F939F928F92FF92EF92EA96CC
:102000006FAFEA97EB967FAFEB970E94942CB2E00C
:10201000EB0EF11C0F900F900F900F900F900F9000
:10202000EB967FADEB97EA966FADEA97D9CF87E64F
:102030007FC00E940E204C018E010F5F1F4F1F9327
:102040000F937E01E6E7EE0EF11CFF92EF9282EA1B
:1020500091E09F938F938DE795E09F938F930E94DC
:10206000B72CD7018D919C910FB6F894DEBF0FBEAF
:10207000CDBF813191051CF084E891E05EC0181657
:10208000190684F56E01F5E6CF0ED11C26015E011E
:1020900028E7A20EB11C82EB682E81E0782ED701D2
:1020A0004D915C91C2018C199D0984179507B4F478
:1020B000BF92AF927F926F921F930F930E94B72CA3
:1020C000D5018C91F20181932F010E5F1F4F0F906C
:1020D0000F900F900F900F900F90E1CFB601C401B9
:1020E0000E94BE1287E40E941C0D29C0F894469AF3
:1020F0000C94000024C08E010F5F1F4FB801D8015F
:102100008C918823A1F084E893E0EA966FAFEA9778
:10211000EB967FAFEB970E946A32F80181938F01B3
:10212000EA966FADEA97EB967FADEB97E8CF82E644
:102130000E94EA0C04C089EB91E00E94B20CC658E0
:10214000DF4F0FB6F894DEBF0FBECDBFDF91CF914A
:102150001F910F91FF90EF90DF90CF90BF90AF90C5
:102160009F908F907F906F905F904F900895CF9346
:10217000DF93EC016991662329F084E893E00E94E3
:102180007232F8CFDF91CF9108950C94EF2B0F931B
:102190001F93CF93DF93DB01ED91FC913197E131F8
:1021A000F10508F052C0EC01E455FF4F0C945C2897
:1021B00060E070E08BE090E00E94291D61E070E03B
:1021C0008AE090E00E94291D20E047C08DE194E163
:1021D0001BC081E893E118C08DEF94E115C0CD5587
:1021E000DF4F18823AC08C010D551F4FF801208136
:1021F000885A9F4F222361F00E946C0AFE01E85723
:10220000FF4F108283E391E19D838C8322E025C000
:10221000FE01EC55FF4F208131812130310519F449
:102220001182108204C021E030E031832083DC0180
:102230001B961C921E921A9740E051E0BE010E942C
:102240007A0A81E0F8018083BFCF23EB3DE1DC0116
:1022500015963C932E93149723E0822FDF91CF9114
:102260001F910F910895CF93DF93FB01208131815E
:102270002430310509F473C0EC012530310588F4B0
:1022800021303105A9F02230310509F062C04C96A9
:102290000E946C0A61E070E08BE090E00E94291DD2
:1022A0005EC02F303105E1F12031310501F151C01F
:1022B00061E070E08BE090E00E94291D80E890E0F2
:1022C0009FA38EA340E850E0BE01CE014C960E9431
:1022D0007A0ACE01845B9F4FFC011386128640E48C
:1022E00050E0BE010E947A0A1092FC0138C0FC0145
:1022F000E857FF4F808182306CF04E9B03C08DEF1A
:1023000094E10AC04C9B03C081E893E105C08DE1D4
:1023100094E102C087ED96E19D838C8382E020C02A
:10232000C091FA01D091FB01209719F460E070E0B0
:1023300002C06FEF70E08BE00E94CA0781E090E07E
:10234000CD2B11F080E090E09093FB018093FA0197
:1023500006C087ED96E19D838C8383E001C080E019
:10236000DF91CF910895CF93DF9300D000D000D0BC
:10237000CDB7DEB749835A836B837C838D839E837D
:102380002BEA33E0F9018081918146E0489FD0013A
:10239000499FB00D1124A55DBD4FFE0131960190FE
:1023A0000D924A95E1F7019660E470E00E942928B9
:1023B000F9019183808326960FB6F894DEBF0FBE95
:1023C000CDBFDF91CF9108950F931F93CF93DF93EC
:1023D0001F92CDB7DEB78C010E949E1F81112AC0CB
:1023E0000E948D1F86FF1CC00E94AA1E8091BE0401
:1023F0009091BF04DC01ED91FC910190F081E02D02
:1024000061E609954091BD04B801C8010E94381FDA
:102410000E94A51E60E487E00E94AF1E81E00BC011
:1024200041E0BE016F5F7F4F87E10E94661F898197
:1024300080FFDACF80E00F90DF91CF911F910F9155
:102440000895DF92EF92FF920F931F93CF93DF9344
:10245000CDB7DEB728970FB6F894DEBF0FBECDBF5D
:102460008C01D62ECE0101967C0186E0D7011D920B
:102470008A95E9F70E949E1F8111FCCFC7010E9437
:10248000E4118111FBCFD11006C08091BC0490E013
:102490008017910791F183E28F831886C801019715
:1024A0008235910510F40093BC0441E0BE01695FE0
:1024B0007F4F86E00E94101F6091BC0485E00E945F
:1024C000AF1E6091BD0481E10E94AF1E6091BD040A
:1024D00082E10E94AF1E0E94DE1E0E94AA1E809111
:1024E000BE049091BF04DC01ED91FC910190F0815C
:1024F000E02D62EE09950E94A51E28960FB6F8946D
:10250000DEBF0FBECDBFDF91CF911F910F91FF9026
:10251000EF90DF9008950F931F93CF93DF93CDB784
:10252000DEB7C456D1090FB6F894DEBF0FBECDBFDB
:10253000811118C07F936F9380EC91E09F938F93EC
:102540008E010F5F1F4F1F930F930E94942CC801A1
:102550000E94B7100C9400000F900F900F900F90F6
:102560000F900F90CC59DF4F0FB6F894DEBF0FBE1F
:10257000CDBFDF91CF911F910F910895CF92DF9240
:10258000EF92FF920F931F93CF93DF937C01D62F8F
:10259000C72F6A0197FD07C081E09701240F351FFF
:1025A000243833400CF080E061E070E00E948B1230
:1025B0000D2F1C2FC0E0D0E0CC15DD0554F4F80140
:1025C00061918F01CE018E0D9F1D0E947232219666
:1025D000F3CFDF91CF911F910F91FF90EF90DF909C
:1025E000CF900895CF93DF9300D0CDB7DEB77A8335
:1025F000698342E050E0BE016F5F7F4F0E94BE12D0
:102600000F900F90DF91CF910895CF92DF92EF92CC
:10261000FF920F931F93CF93DF93EC017B016A012D
:1026200097FD07C081E09E01240F351F24383340F9
:102630000CF080E060E070E00E948B128701CE1900
:10264000DF09C8018E199F098C159D054CF4CE0138
:10265000800F911F0E946A32F80181938F01F1CFA0
:10266000DF91CF911F910F91FF90EF90DF90CF906E
:102670000895CF93DF9300D0CDB7DEB742E050E0AE
:10268000BE016F5F7F4F0E94051389819A810F9071
:102690000F90DF91CF9108950F931F93CF93DF9306
:1026A000CDB7DEB7C456D1090FB6F894DEBF0FBE62
:1026B000CDBFF8942D9A589A7F936F939F938F93E1
:1026C00088EC91E09F938F938E010F5F1F4F1F93B4
:1026D0000F930E94942CC8010E94B7100C94000024
:1026E0000FB6F894DEBF0FBECDBFCC59DF4F0FB68B
:1026F000F894DEBF0FBECDBFDF91CF911F910F9138
:1027000008950F931F93CF93DF93EC01FB0180811A
:1027100091818930910509F455C048F481309105C3
:1027200081F0029709F07DC00E946F1E80C08C303E
:102730009105D9F00F9709F074C0CA55DF4F188280
:1027400076C0FE01ED55FF4F108261E070E08AE037
:1027500090E00E94291D61E070E08BE090E00E9413
:10276000291DCE010E94901862C0FE01EC55FF4F5A
:1027700080819181019721F4CE010E949C1C03C0AD
:10278000CE010E941F1CCE010E94C319CE010E94DF
:10279000861B0E94030C082F880F110BC156DF4FB8
:1027A000888199810817190709F441C060E070E039
:1027B0000E94551E61E070E0C8010E94551E1983F9
:1027C000088335C0FB011481143034F062ED72E0EF
:1027D0008CE393E00E944C13412F012E000C550B0B
:1027E000660B770B81E70E94521B812F0E94740CAD
:1027F000CE010E949018FE01E656FF4F10833C96D2
:1028000081E080838E01045E1F4FC8010E946C0A24
:102810001FA21EA240E850E0BE01C8010E947A0A31
:1028200006C087EC90E19D838C8383E001C080E04B
:10283000DF91CF911F910F910895DF92EF92FF9258
:102840000F931F93CF93DF9300D000D000D0CDB76C
:10285000DEB78C01DB018D919C918930910509F4E3
:1028600076C068F481309105A9F0029709F0AFC0F5
:102870000E946F1EC8014C960E946C0AAFC08C303B
:10288000910549F10F9709F0A2C0F801EA55FF4FF1
:102890001082A4C0F801ED55FF4F1082FB97808194
:1028A0003181228193813497808331832283938382
:1028B000FE01319646E0DF011D924A95E9F7582F57
:1028C00047E1632F722F892F9E810E94B311C801A7
:1028D0000E94C31983C0F801EC55FF4F808191819C
:1028E000019721F4C8010E949C1C03C0C8010E94EA
:1028F0001F1CC8010E94C319F801EC59FF4F8081C9
:102900009181A281B381349640815181628173812A
:1029100084179507A607B70709F460C080839183E1
:10292000A283B383AE014F5F5F4F26E0FA0111929D
:102930002A95E9F7582F8A839B83AC83BD8347E1AF
:102940006B817C818D819E810E94B31147C0DB0128
:102950001496DC90ED2C0D2C000CFF08B4E0EB1667
:10296000F10434F068E972E08CE393E00E944C13C8
:10297000D801AC59BF4FEE0CFF1CEE0CFF1CE00E53
:10298000F11EF701E657FF4F40815181628173814B
:102990004D935D936D937C931397F801E656FF4F2B
:1029A000D0823C9681E080837801ECE1EE0EF11C50
:1029B000C7010E946C0AD80197961C921E929697A6
:1029C00040E850E0B801C7010E947A0A07C087ECCE
:1029D00090E1F8019583848383E001C080E026962E
:1029E0000FB6F894DEBF0FBECDBFDF91CF911F9120
:1029F0000F91FF90EF90DF9008950F931F93CF9367
:102A0000DF93EC01FB018081918189309105A9F16F
:102A100068F481309105A1F0029709F072C00E941C
:102A20006F1ECE014C960E946C0A71C08C309105CD
:102A300079F00F9709F065C0CA55DF4F188267C05B
:102A4000FE01ED55FF4F1082CE010E94C3195FC0F9
:102A5000FE01EC55FF4F80819181019721F4CE0159
:102A60000E949C1C03C0CE010E941F1CCE010E942C
:102A7000C319CE010E94861B4AC02FB7F8948CA1BF
:102A80009DA12FBF892B09F042C0FB0184818E01DB
:102A900006561F4FF8018083843030F064E672E000
:102AA0008CE393E00E944C13F8012081FE01E85969
:102AB000FF4F6081718182819381422F50E0FE013E
:102AC00034E0239FE00DF11D1124E657FF4F608392
:102AD0007183828393839A01220F331FC9018896E1
:102AE0000E94F212FE01EA55FF4F81E080831FA28F
:102AF0001EA240E850E0BE01CE014C960E947A0A28
:102B000006C087EC90E19D838C8383E001C080E068
:102B1000DF91CF911F910F9108951F920F920FB6E1
:102B20000F921124DF92EF92FF920F931F932F9336
:102B30003F934F935F936F937F938F939F93AF9345
:102B4000BF93CF93DF93EF93FF93DFB6F894C091D9
:102B5000F701D091F80100E010E0209709F44DC092
:102B600088859985009769F48091F7019091F80123
:102B7000C817D90721F10115110589F568E376E039
:102B80002AC0019799878887892B91F58A859B852B
:102B9000009711F099878887DFBEBE018E819F81E3
:102BA0000E94570BDFB6F89488859985892B01F52B
:102BB0008091F7019091F801C817D90739F48C81F9
:102BC0009D819093F8018093F7010EC001151105C6
:102BD00031F46BE576E08BEF94E00E944C138C812E
:102BE0009D81F801958384838B8181508B8301C003
:102BF0008E010C80DD81C02DB0CFDFBE8FB180FB98
:102C0000EE24E0F8F12C8091FF0190910002E8168B
:102C1000F90689F0E114F10419F064E070E002C0F3
:102C200065E070E084E00E94B20A0E94A20BF0927C
:102C30000002E092FF0189B1C82FC075D0E0209159
:102C40000C0130910D01C217D307A9F084FF03C016
:102C500068E070E007C086FF03C067E070E002C074
:102C600066E070E084E00E94B20A0E94A20BD0935A
:102C70000D01C0930C018FB1827790E0C091FD01EE
:102C8000D091FE018C179D0719F1C827D927C823B9
:102C9000D9239093FE018093FD012097C9F069E04C
:102CA00070E085E00E94B20AC6FF03C0FC011482F6
:102CB0000DC0C5FF02C021E007C0C4FF02C022E072
:102CC00003C0C1FF03C023E0FC0124830E94A20BC8
:102CD000FF91EF91DF91CF91BF91AF919F918F9134
:102CE0007F916F915F914F913F912F911F910F9124
:102CF000FF90EF90DF900F900FBE0F901F901895F0
:102D0000DC01ED91FD918081ED91FD919081ED913E
:102D1000FD916C9163708E2309F064609F2309F02C
:102D20006860EDE9F6E1E60FF11D659565956D9337
:102D30006D917D918D919D91099423C01AC012C00F
:102D400016C010C01EC009C014C013C006C019C0F0
:102D500009C00DC007C00DC014C062507040804053
:102D600090400BC0615070408040904006C06E5F44
:102D700001C06F5F7F4F8F4F9F4F9E938E937E93C7
:102D80006E9308958091D304823030F4F89488ECE7
:102D900094E00E94801601C0F8946091CF04709175
:102DA000D0048091D1049091D204789408954F92E8
:102DB0005F926F927F928F929F92AF92BF92CF92CB
:102DC000DF92EF92FF920F931F93CF93DF9300D088
:102DD00000D000D0CDB7DEB7DB01ED91FC9131978B
:102DE000EC30F10508F0CBC08C01E354FF4F0C949C
:102DF0005C2861E070E08BE090E00E94291D60E0BB
:102E000070E08AE090E00E94291D89B1F801E7573F
:102E1000FF4F84FDBDC086FDD1C088E2BAC00E94CC
:102E2000C2164B015C017801BCE7EB0EF11CF70107
:102E300080819181A281B38188169906AA06BB067A
:102E400029F0B501A40185E60E94521B6801F8E74C
:102E5000CF0ED11CF801EC58FF4F80819181A281E7
:102E6000B381A5019401281B390B4A0B5B0BCA01E6
:102E7000B90124E030E040E050E00E943D28F80134
:102E8000E757FF4FA0810A2E000CBB0B0E947C2845
:102E9000D6014D905D906D907C90DC01CB01840D4E
:102EA000951DA61DB71DF70180829182A282B38273
:102EB000F801E859FF4F4081518162817381841785
:102EC0009507A607B70709F461C080839183A283A1
:102ED000B383AE014F5F5F4F26E0FA0111922A954E
:102EE000E9F7582F8A839B83AC83BD8347E16B81CD
:102EF0007C818D819E810E94B31148C0FC01E857FE
:102F0000FF4F808191E0980F9083B09781110CC0A2
:102F100060817181828193817896608371838283DD
:102F2000938382E290E00DC0608171818281938100
:102F3000F801EC57FF4F608371838283938384E2AF
:102F400090E00E94F21283E391E1D80115969C93E0
:102F50008E93149782E034C0FC01E757FF4F88E25C
:102F600009C0FC01E757FF4F80E504C0FC01E757AB
:102F7000FF4F88E08083C8010E94901807C023EBB0
:102F80003DE1FC013583248383E01AC080E018C052
:102F900080E58083F801E859FF4F10821182128288
:102FA0001382C8010E949018FE01319686E0DF016D
:102FB0001D928A95E9F743E25A8199CF88E0E9CFDB
:102FC00026960FB6F894DEBF0FBECDBFDF91CF912E
:102FD0001F910F91FF90EF90DF90CF90BF90AF9037
:102FE0009F908F907F906F905F904F900895809109
:102FF000C6049091C7040C9480168091C4049091EB
:10300000C5040C9480168091C2049091C3040C9462
:1030100080168091C0049091C1040C94801608958C
:103020000F931F939C01CB012617370799F1A90134
:10303000330F660B770B092E000CAA0BBB0B8A0112
:103040009B01081B190B2A0B3B0BD901C80137FF49
:1030500007C0B095A095909581959F4FAF4FBF4FFA
:103060009C01AD014997A105B10524F028E130E0AC
:1030700040E050E0AEECBFEF0E947F2828E130E056
:1030800040E050E00E943D28DA01C901C296A11D2E
:10309000B11D02C080E890E01F910F9108950F9339
:1030A0001F939C01CB012617370799F1A901330F14
:1030B000660B770B092E000CAA0BBB0B8A019B0138
:1030C000081B190B2A0B3B0BD901C80137FF07C09E
:1030D000B095A095909581959F4FAF4FBF4F9C01A4
:1030E000AD010897A105B10524F027E030E040E0EC
:1030F00050E0AEECBFEF0E947F2827E030E040E0D8
:1031000050E00E943D28DA01C901C296A11DB11DFF
:1031100002C080E890E01F910F9108950C94EF2B6E
:10312000CF93DF93EC018091D304823030F4F89494
:1031300088EC94E00E94801601C0F8948091CF043E
:103140009091D004A091D104B091D2047894FE0162
:10315000E458FF4F80839183A283B38338978083A1
:103160009183A283B3833496C859DF4F88819981B4
:10317000AA81BB8180839183A283B383DF91CF91A6
:1031800008958F929F92AF92BF92CF92DF92EF926B
:10319000FF92CF93DF93EC01FC01E757FF4F81E0F3
:1031A0008083CE010E949018FE01E459FF4F8FEFFB
:1031B0009FEFDC0180839183A283B3833496808365
:1031C0009183A283B38364E070E0CE010E94130B6D
:1031D00065E070E0CE010E94130B66E070E0CE0166
:1031E0000E94130B67E070E0CE010E94130B68E0B1
:1031F00070E0CE010E94130B69E070E0CE010E94E6
:10320000130B82E090E09BAB8AAB42E050E0BE0142
:10321000CE0188960E947A0ACE01805C9F4F20E002
:1032200034E0FC013387228740E054E0BE010E9475
:103230007A0A80E095E09B8F8A8F40E055E0BE01DE
:10324000CE0140960E947A0A80E490E09FAF8EAF54
:1032500040E450E0BE01CE01C4960E947A0A82E2A8
:1032600090E00E9439137E01F0E8EF0EF11C092E68
:10327000000CAA0BBB0BF70180839183A283B3835D
:1032800084E290E00E9439136E01F4E8CF0ED11C65
:10329000092E000CAA0BBB0BF60180839183A2833D
:1032A000B38380E390E00E943913FE01EF55FF4F96
:1032B00091838083F60180809180A280B380F701A2
:1032C000C080D180E280F3800E94E71FA5019401B5
:1032D0002C193D094E095F09DC010E947C2820E081
:1032E00034E040E050E00E943D28C20ED31EE41EB0
:1032F000F51EFE01E859FF4FC082D182E282F382BF
:103300007096C082D182E282F38286E290E00E94CF
:103310003913892B19F087ED96E127C06E01FAE881
:10332000CF0ED11CE12CF12CC70188960E943913D5
:10333000092E000CAA0BBB0BF60181939193A1936C
:10334000B1936F01F2E0EF0EF11C28E0E216F104F8
:1033500059F74E9B03C08DEF94E107C04C9B03C00F
:1033600081E893E102C08DE194E19D838C8382E04A
:10337000DF91CF91FF90EF90DF90CF90BF90AF9013
:103380009F908F9008954F925F926F927F928F924D
:103390009F92AF92BF92CF92DF92EF92FF920F93E4
:1033A0001F93CF93DF93CDB7DEB728970FB6F8946E
:1033B000DEBF0FBECDBF8C01FC01EC55FF4F8081FD
:1033C0009181892B09F061C0C0900602D09007025C
:1033D000D7FE03C023E0C20ED11CD594C794D59468
:1033E000C7941C141D0484F40D2C000CEE08FF0877
:1033F00031E2C316D104E104F10454F0A0E2CA2E74
:10340000D12CE12CF12C04C0C12CD12C7601C39419
:1034100061E070E0C6010E944F189A83898368E0DA
:1034200070E0C6010E944F189C838B8360E170E0BE
:10343000C6010E944F185C0168E170E0C6010E945D
:103440004F189E838D8360E270E0C6010E944F1882
:1034500098878F83B501B7FE02C06D5F7F4F75956A
:103460006795759567958BE00E94CA0783E3A81658
:10347000B10444F4B501635F7F4F77FF69C06D5FAE
:103480007F4F66C060E170E067C020910402309118
:103490000502A4E6B0E00E9462286B017C017FE097
:1034A000F594E794D794C7947A95D1F7C114D104D1
:1034B000E104F10461F0E5E6CE16D104E104F10483
:1034C00054F064E6C62ED12CE12CF12C04C0C12CA2
:1034D000D12C7601C39461E070E0C6010E941018FF
:1034E0009A83898369E170E0C6010E9410189C8369
:1034F0008B8362E370E0C6010E9410185C016BE4EC
:1035000070E0C6010E9410189E838D8364E670E00F
:10351000C6010E94101898878F83F3E3AF16B10499
:1035200064F4B501635F7F4F77FF02C06D5F7F4F2B
:10353000759567957595679502C060E170E08BE0C1
:103540000E94CA07B7FE03C023E0A20EB11CB5015A
:1035500075956795759567958AE00E94CA074C999D
:1035600043C0F801EA55FF4F8081882399F03C97CA
:103570008081FE013196E80FF11DE80FF11D808179
:10358000918149971CF01182108204C08FEF90E066
:103590009183808369817A8183E00E94CA076B816D
:1035A0007C8185E00E94CA076D817E8186E00E9451
:1035B000CA076F81788589E028960FB6F894DEBF38
:1035C0000FBECDBFDF91CF911F910F91FF90EF9074
:1035D000DF90CF90BF90AF909F908F907F906F9033
:1035E0005F904F900C94CA070E94030CE82E880F3E
:1035F000FF082FB7F8946091E8017091E90180917C
:10360000EA019091EB012FBF0E94CF2920E030E02A
:103610004AEF53E40E9427290E94CA2AEE0CFF1C9D
:10362000E1E0F0E0EC0FFD1FEE0DFF1D2081318188
:103630001216130614F021E030E04901330FAA08F6
:10364000BB08E1E0F0E0EC0FFD1FEE0EFF1E20E0F6
:1036500030E040E85FE30E94BB2820E030E040E03B
:1036600053E40E945D2A0E94992980E1482E512C42
:10367000612C712CA3019201281939094A095B09AF
:10368000DB010E947C2820E031E040E050E00E9415
:103690003D28820E931EA41EB51EF70191828082E2
:1036A00060CF08950F931F93CF93DF93CDB7DEB70D
:1036B000A0970FB6F894DEBF0FBECDBF7F936F9378
:1036C0005F934F93282F082E000C330B3F938F935B
:1036D00081EE91E09F938F938E010F5F1F4F1F9399
:1036E0000F930E94942CC8010E94B20C0FB6F8945C
:1036F000DEBF0FBECDBFA0960FB6F894DEBF0FBEE3
:10370000CDBFDF91CF911F910F9108958F929F921E
:10371000AF92BF92CF92DF92EF92FF920F931F93DF
:10372000CF93DF9300D000D000D0CDB7DEB78C01AF
:103730000E94E71F6C01990FEE08FF0848018CE614
:10374000880E911CF40180819181A281B381C816F9
:10375000D906EA06FB0609F45FC05801F0E7AF0E90
:10376000B11CF50180819181A281B381C816D9066F
:10377000EA06FB0609F450C0B701A60180E70E94E3
:10378000521BF50180819181A281B381F401808374
:103790009183A283B383D501CD92DD92ED92FC9209
:1037A0001397749680809180A280B3803496808134
:1037B0009181A281B381BC01CD01681979098A097F
:1037C0009B09A70196010E94192820E034E040E0FF
:1037D00050E00E943D28BA01A901480D591D6A1DFB
:1037E0007B1DF801E859FF4F408351836283738347
:1037F000FE01319686E0DF011D928A95E9F7842F5C
:103800004A835B836C837D8347E1582F6B817C8186
:103810008D819E810E94B31126960FB6F894DEBF6B
:103820000FBECDBFDF91CF911F910F91FF90EF9011
:10383000DF90CF90BF90AF909F908F9008958F9220
:103840009F92AF92BF92CF92DF92EF92FF920F932F
:103850001F93CF93DF93EC010E94C2166B017C0192
:10386000C458DF4F88819981AA81BB81C816D906C7
:10387000EA06FB0629F0B701A60185E60E94521B65
:1038800080910602909107024C01990FAA08BB088B
:10389000488159816A817B8197018601041B150B40
:1038A000260B370B080D191D2A1D3B1D0430110571
:1038B0002105310564F0C901B80101381105210560
:1038C00031054CF060E870E080E090E004C064E016
:1038D00070E080E090E0C882D982EA82FB826815BD
:1038E00079058A059B05D9F070930702609306025B
:1038F00024E030E040E050E00E943D28BA01A901F8
:1039000081E6DF91CF911F910F91FF90EF90DF90B3
:10391000CF90BF90AF909F908F900C94521BDF91EF
:10392000CF911F910F91FF90EF90DF90CF90BF90BC
:10393000AF909F908F9008958F929F92AF92BF9279
:10394000CF92DF92EF92FF92CF93DF93EC010E9430
:10395000C2166B017C01C458DF4F88819981AA810E
:10396000BB81C816D906EA06FB0629F0B701A601F5
:1039700085E60E94521B88819981AA81BB81A7019B
:103980009601281B390B4A0B5B0B80900402909028
:103990000502A12CB12CD501C40166E0B595A7950F
:1039A000979587956A95D1F70097A105B10561F0C4
:1039B000BC01CD0161387105810591054CF060E8CD
:1039C00070E080E090E004C061E070E080E090E0B2
:1039D0000E941928AB01BC01480D591D6A1D7B1DB1
:1039E00014161506160617065CF4413080E85807D1
:1039F000610571054CF040E050E860E070E004C003
:103A000041E050E060E070E0C882D982EA82FB8247
:103A1000481559056A057B0589F0509305024093C6
:103A200004028DE6DF91CF91FF90EF90DF90CF9071
:103A3000BF90AF909F908F900C94521BDF91CF91CD
:103A4000FF90EF90DF90CF90BF90AF909F908F90BE
:103A500008950F931F93CF93DF93EC018B01562FA3
:103A600044274C2B052E000C660B770B8CE60E942E
:103A7000521B01301105C1F4CC30D10508F06EC0E5
:103A8000FE01E753FF4F0C945C28589A67C0469A92
:103A900065C05F9A63C02D9A61C05A9A5FC02F9A21
:103AA0005DC06FEF70E02EC00115110591F5CC30AF
:103AB000D10508F053C0FE01EB52FF4F0C945C2877
:103AC00060E070E083E00E94CA07589847C060E059
:103AD00070E085E00E94CA07469840C060E070E050
:103AE00086E00E94CA075F9839C060E070E089E014
:103AF0000E94CA072D9832C05A9830C02F982EC005
:103B000060E070E08AE0DF91CF911F910F910C94FB
:103B1000CA070230110511F5CC30D105F8F4FE01C9
:103B2000EF51FF4F0C945C289BB181E00DC098B120
:103B300080E4892788B912C08BB1805806C095B13E
:103B400080E20AC09BB184E089278BB907C085B1A8
:103B5000805803C095B180E4892785B9DF91CF9162
:103B60001F910F910895DF92EF92FF920F931F9391
:103B7000CF93DF9300D000D000D0CDB7DEB78C015B
:103B8000FB01208131812A30310581F038F4215048
:103B900031092230310508F479C071C02D3031056A
:103BA00009F46AC02E303105E1F069C045E0BE017C
:103BB0006F5F7F4F80E10E94661F45E050E06BED34
:103BC00071E0CE0101960E94872C892B19F460E0E8
:103BD00070E002C061E070E080E090E00E94291D8A
:103BE00055C096E0D92ECE0101967C01FC018D2DA9
:103BF00011928A95E9F787E0898380910402909178
:103C00000502582F8A839B8347E0692F7C818D8131
:103C10009E810E94B311F7011192DA94E9F78BE0CB
:103C20008983209106023091070237FF02C02D5F81
:103C30003F4F3595279535952795522F3B832A83FE
:103C400049816B817C818D819E810E94B31180E3CB
:103C500090E00E9439137C010F551F4FF8018081BD
:103C60009181E816F90691F060E0C7010E942112E7
:103C7000F801F182E0820AC00E941C0C07C08BE9A7
:103C800099E0F8019583848383E001C080E0269663
:103C90000FB6F894DEBF0FBECDBFDF91CF911F915D
:103CA0000F91FF90EF90DF9008958130910551F0D2
:103CB0001CF4892B81F008958230910531F003972F
:103CC00039F0089585E090E008C086E090E005C0F6
:103CD00089E090E002C083E090E00C94291D60E050
:103CE00070E083E00E94CA0760E070E085E00E9417
:103CF000CA0760E070E08BE00E94CA0760E070E0F5
:103D00008AE00E94CA0760E070E086E00E94CA076D
:103D100060E070E089E00E94CA0760E070E083E044
:103D200090E00E94291D60E070E085E090E00E9434
:103D3000291D60E070E086E090E00E94291D60E0AF
:103D400070E089E090E00C94291D61E08091BB0453
:103D50000C942B0760E08091BB040C942B070F930D
:103D60001F93CF93DF93C82FD62F0E94AA1E09EB73
:103D700014E0D80115968D919C911697DC01ED9178
:103D8000FC91CF716C2F60620190F081E02D09955C
:103D9000F80185819681DC01ED91FC910190F08123
:103DA000E02D6D2F0995DF91CF911F910F910C940C
:103DB000A51E60E08091BA040C942B07CF93DF938B
:103DC000C9EBD4E018820E94D91E6BE080E00E940B
:103DD000AF1E61E089810E942B0760E387E0DF91DD
:103DE000CF910C94AF1E0F931F93CF93DF93162F99
:103DF000082FEC018C2F801B811768F48091BE0482
:103E00009091BF046991DC01ED91FC910190F081EA
:103E1000E02D0995EFCFDF91CF911F910F9108957C
:103E2000FF920F931F93CF93DF931F92CDB7DEB70F
:103E3000F82E8B0149830E94AA1E8091BE049091A6
:103E4000BF04DC01ED91FC916F2D6F7160620190F8
:103E5000F081E02D09954981642FC8010E94F31E6D
:103E60000F90DF91CF911F910F91FF900C94A51EA1
:103E7000CF92DF92FF920F931F93CF93DF931F9206
:103E8000CDB7DEB7F82E8B016C018C2D8F198417FE
:103E9000A0F48091BE049091BF04D6016D916D0194
:103EA000DC01ED91FC910190F081E02D49830995B1
:103EB000F80181938F014981E8CF0F90DF91CF9175
:103EC0001F910F91FF90DF90CF900895FF920F9375
:103ED0001F93CF93DF931F92CDB7DEB7F82E8B01E0
:103EE00049830E94AA1E8091BE049091BF04DC0108
:103EF000ED91FC916F2D6F710190F081E02D09958E
:103F00004981B801C8010E94381F0F90DF91CF91FD
:103F10001F910F91FF900C94A51ECF93DF931F92DA
:103F2000CDB7DEB741E0BE016F5F7F4F87E00E94F3
:103F3000661F89810F90DF91CF9108958091B90418
:103F4000882331F00E948D1F807321F00E94DE1EB5
:103F500080E0089581E00895CF92DF92EF92FF9282
:103F60000F931F93CF93DF937C01D62FC72F97FD1D
:103F700006C081E09BE5E91693E0F9060CF080E0CD
:103F800061E070E00E948B120D2F1C2FC0E0D0E08A
:103F90006801F80161918F01CE018E0D9F1D0E9475
:103FA0007232F6018081882321F02196C932D10531
:103FB00079F760E0C7018C0F9D1FDF91CF911F91B2
:103FC0000F91FF90EF90DF90CF900C947232EEEF54
:103FD000F4E0E49120917B00E3FB882780F990E0F6
:103FE00035E0880F991F3A95E1F7922F9F7D892B35
:103FF00080937B00E770E064E0937C0080917A001E
:10400000806480937A0080917A0086FDFCCF809155
:1040100078002091790090E0922B0895CF93DF9360
:1040200000D0CDB7DEB7CE0101969F938F9385EC7C
:1040300091E09F938F938FE795E09F938F930E94DA
:10404000B72C0F900F900F900F900F900F908981C9
:104050009A810F900F90DF91CF910895FC0180918C
:104060007C05811103C08FEF9FEF08959FB7F894EF
:1040700082E08093E9002091F20030E012161306EE
:1040800014F421E030E02115310559F0289884E638
:1040900080937B058091F10080838091F2008823DA
:1040A00019F09FBFC90108958BE68093E800F9CF0E
:1040B000CF92DF92EF92FF920E9462086B017C0127
:1040C0000E946208DC01CB018C199D09AE09BF0971
:1040D000883E9340A105B10598F3FF90EF90DF90E3
:1040E000CF9008958091850681110DC082E0809364
:1040F000810684E0809382061092840610928306E3
:1041000081E08093850681E896E00895CF92DF9262
:10411000EF92FF920F931F93CF93DF931F92CDB730
:10412000DEB7182F062FE42E862F880F8E5F998317
:104130000E94B70283E00E94B702F12EC12E99813E
:10414000D92E8C2D8F19801798F4F601E7FE02C046
:10415000849101C080810E94B702182F80E00E94E4
:10416000B7028123FFEFCF1ADF0A8111EACF01C026
:1041700081E00F90DF91CF911F910F91FF90EF9011
:10418000DF90CF9008950895CF93DF93CDB7DEB73A
:1041900068970FB6F894DEBF0FBECDBF789484B594
:1041A000826084BD84B5816084BD85B5826085BD33
:1041B00085B5816085BD80916E00816080936E00C1
:1041C00010928100809181008260809381008091B3
:1041D0008100816080938100809180008160809364
:1041E0008000809191008260809391008091910085
:1041F0008160809391008091900081608093900015
:104200008091C10084608093C1008091C100826070
:104210008093C1008091C10081608093C100809132
:10422000C30081608093C3008091C000826080934E
:10423000C0008091C20081608093C20080917A00AA
:10424000846080937A0080917A00826080937A0003
:1042500080917A00816080937A0080917A008068F2
:1042600080937A0010927C05109203021092020251
:104270008091D70081608093D70080EA8093D80036
:1042800089B5806189BD89B5826089BD09B400FEA8
:10429000FDCF0E9458208091D8008F7C8061809350
:1042A000D8008091E000807F8093E0008091E10061
:1042B0008E7E8093E1008DE08093E200559A209AF3
:1042C000EEEFFFE7859194918B3F9C4D19F481E0CF
:1042D0008093010260E084E00E948E0760E08CE041
:1042E0000E948E0760E087E10E948E0760E083E114
:1042F0000E948E0760E084E10E948E0760E085E105
:104300000E948E0760E086E10E948E0761E083E0F4
:104310000E948E0761E085E00E948E0761E086E0E2
:104320000E948E0761E089E00E948E0761E080E0D4
:104330000E948E0761E08BE00E948E0761E08AE0B8
:104340000E948E078FEF9FEF909376048093750401
:1043500044E050E0CE0101965C01BC0180E090E0B9
:104360000E94051389819A81AB81BC818B3F9A4F52
:10437000A105B10509F48FC040E1E42EFF24F394B8
:1043800050E8C52ED12C6EEC462E6AEF562E612CCD
:10439000712C08EF10E0812C70E8972E9E8A8D8A90
:1043A00042E050E0BE016B5E7F4FC8010E94BE122A
:1043B00060E270E0C8010C960E94F212498A5A8AA3
:1043C0006B8A7C8A44E050E0BE016F5E7F4FC6017D
:1043D0000E94BE1261E771E0C7010E94AC1F0E5F30
:1043E0001F4FFFEF4F1A5F0A6F0A7F0A24E0C20EC9
:1043F000D11C8AE2E80EF11C043091E0190771F635
:1044000060E070E082E290E00E94F21260E971E008
:1044100084E290E00E94F21260E070E088E290E0B6
:104420000E94F21260E070E08AE290E00E94F212D4
:1044300060E070E08CE290E00E94F21260E070E0D8
:104440008EE290E00E94F21261E070E086E290E07D
:104450000E94F21261E070E080E390E00E94F212AC
:104460001F8A41E050E0BE01695E7F4F80E290E02C
:104470000E94BE128BEF9AEFA0E0B0E08D879E877E
:10448000AF87B88B44E050E0BE01635F7F4F80E0B0
:1044900090E00E94BE120E94030C082F000F110B27
:1044A00042E050E0B501C80188509F4F0E940513BB
:1044B00089819A819093050280930402C8018C5FE0
:1044C0009E4F0E94391390930702809306028EE05C
:1044D00091E09093BF048093BE0461E08091BA04A0
:1044E0000E948E0761E08091BB040E948E070E94AB
:1044F000D91E0E94A51E8091BE049091BF04DC01CC
:10450000ED91FC910280F381E02D09950E94D91E66
:1045100045E06EEC71E08BE00E94101F61E080913D
:10452000BA040E942B0786E08093BD0480E390E0EC
:104530000E94391361E00E94211261E087E10E942C
:104540002B07479A80912602833030F063E575E0AF
:104550008BEF94E00E944C1380912602882399F0FF
:1045600090E001972AE0289FF001299FF00D112487
:10457000E85FFD4F8681863030F067E575E08BEFB0
:1045800094E00E944C13E09126020E2F10E0BAE056
:10459000EB9FF0011124E85FFD4F8AE294E09583E0
:1045A000848382E08683C12CD12C7601C394369615
:1045B0008081863040F48E5F80832FEFC21AD20A4A
:1045C000E20AF20AF5CF8D3330F067EB76E08BEF3D
:1045D00094E00E944C138AE0809FF001819FF00DCF
:1045E0001124E85FFD4F86814CE350E060E070E00D
:1045F000481B51096109710981E087838480958096
:10460000CC0CDD1C9F012A5F3F4F8F01095F1F4FBC
:104610008AE0D9014C90512C612C712C4415550520
:104620006605770598F08C0C9D1CC4018C199D09BA
:10463000DC018D929C92D9018C91481B5109610932
:104640007109D8018C918F5F8C93E2CFD4011D92B8
:104650001C929781908791872AE234E031832083EE
:1046600093828282909126029F5F909326022FE18F
:1046700034E030932A02209329022BE030E030937B
:104680002802209327021092DB041092DA042BE018
:1046900034E03093DD042093DC048093DE04109238
:1046A000DF041092E0048093E1048093E20481E04F
:1046B0008093E3048091FA039091FB03892B31F0FE
:1046C00063E674E08BEF94E00E944C138FB7F8948C
:1046D00024ED34E03093FB032093FA038FBFE09086
:1046E000D604F090D7048091D8049091D904892BF6
:1046F00029F0BBE9EB16B9E0FB0631F061E970E0A7
:104700008BEF94E00E944C13E091D804F091D9040F
:1047100060E070E084ED94E00995823031F064E966
:1047200070E08BEF94E00E944C13E091D804F0917C
:10473000D904FA83E98361E371E084ED94E009959B
:1047400010E0E091D804F091D904EE15FF0571F066
:104750001F5FA12FAA0FBB0BAA0DBB1DED93FC93EE
:1047600061E371E084ED94E00995EBCF89819A8152
:104770009093D9048093D804163034F06AEA70E03C
:104780008BEF94E00E944C13E12FEE0FFF0BEA0D2C
:10479000FB1D0190F081E02D65E371E084ED94E074
:1047A0000995115017FFF0CFE980FA806DE371E0B1
:1047B00084ED94E0F7010995823009F4B6CFF092C8
:1047C000D704E092D604F092D904E092D80482E0B3
:1047D0008093C00087E08093C10080E480937200E2
:1047E0001092BF001092BE008CE38093CF00F8942B
:1047F000E0910A04EE2309F4BBC1F0E0E155FC4F5F
:10480000E491AE2FB0E0AA0FBB1FA850BC4F0D9192
:104810001C91E09368047894FFB6F894D80116963A
:104820008D919C911797892B31F460ED72E08BEF9D
:1048300094E00E944C13F8012680378085852285FC
:104840008217D9F0948540853185E42FF32FE90F45
:10485000F11DE90FF11D40815181D80117965C933C
:104860004E931697911102C01C962C93F8019485D3
:10487000915094878F5F85870CC017821682E785D9
:10488000F0E0E259FC4FE49180910A04E823E093C0
:104890000A04FFBEF801E280F38084819581E81666
:1048A000F90631F069EC70E08BEF94E00E944C1354
:1048B000D80114968D909C901597B101C801F40110
:1048C0000995843029F461E371E0C801F401099588
:1048D000833071F3823009F034C1D80114966D90A1
:1048E0007C9015977A826982FC82EB82E814F90445
:1048F00091F069E371E0C801F7010995811105C0E4
:1049000061E371E0C801F7010995D8011496ED90B3
:10491000FC901597EBCFE614F704D1F061E371E05A
:10492000C801F3010995D80114964D905C90159734
:10493000E414F50491F061E371E0C801F701099511
:10494000D8011496CD90DC901597C414D50439F491
:1049500069E371E0C801F7010995E12C87C0C6142D
:10496000D70441F469E371E0C801F7010995EE2429
:10497000EA947CC05C824B8261E371E0C801F20181
:10498000099520E0FF24F394833049F5EE24E39465
:10499000EF0CD8011496ED91FC911597AE2DAA0F4E
:1049A000BB0B81E090E08C0F9D1FA80FB91FED930A
:1049B000FC93E815F90551F495E09E157CF465E249
:1049C00071E08BEF94E00E944C1308C061E371E04A
:1049D000C801288F0995FE2C288DD6CF21E0EF2C19
:1049E000211144C0A5E0AF1534F460E371E08BEF12
:1049F00094E00E944C1369E371E0C801F401099549
:104A0000EF2CEE2DEE0FFF0B81E090E08C0F9D1F41
:104A1000E80FF91F80819181EA94C816D90631F117
:104A2000E7FEEFCF69E371E0C801F6010995811156
:104A300005C061E371E0C801F6010995D80114963B
:104A4000CD90DC901597EF2CEE2DEE0FFF0B81E053
:104A500090E08C0F9D1FE80FF91F80819181EA94EF
:104A6000C816D90619F0E7FEEFCFDCCFE7FC12C07D
:104A7000EE2DEE0FFF0BA1E0B0E0AC0FBD1FEA0F73
:104A8000FB1F0190F081E02D65E371E0C8010995FD
:104A9000EA94ECCFE980FA80F801F582E4826DE3D4
:104AA00071E0C801F7010995823009F04AC0D801C8
:104AB0001496ED91FC911597FA83E98361E371E017
:104AC000C8010995D12CD8011496ED91FC91159748
:104AD000EE15FF0589F0D394AD2DAA0FBB0B81E035
:104AE00090E08C0F9D1FA80FB91FED93FC9361E31D
:104AF00071E0C8010995E7CF89819A8115969C9349
:104B00008E931497B5E0BD1534F467E871E08BEF30
:104B100094E00E944C13ED2DEE0FFF0B81E090E02E
:104B20008C0F9D1FE80FF91F0190F081E02D65E3C8
:104B300071E0C8010995DA94D7FEEDCFE980FA80DB
:104B4000AECFD8011396FC92EE9212971596FC9276
:104B5000EE921497F1018281882309F448CEC101B5
:104B60000E94090A44CE20831092670410926604C2
:104B700089E694E00E946503181619062CF589E66B
:104B800094E00E945E04282F80917D0690917E061D
:104B9000AC014F5F5F4F50937E0640937D06803897
:104BA00091054CF4FC01E358FA4F2A30E1F61082EB
:104BB0000E944D0D04C084ED91E00E94B20C109251
:104BC0007E0610927D06D0CF00917F061091800660
:104BD0001092800610927F060115110571F18091E7
:104BE000660490916704892B41F583E0C82ED12C8F
:104BF000E12CF12CE0916904F0916A04B701635053
:104C00007A4F0280F381E02DA80189E694E00995AE
:104C1000E80EF91E081B190B101611064CF0EF28B0
:104C200061F481E090E0909367048093660405C08E
:104C3000F1E0CF1AD108F1F6F2CFD501E6E01D92EE
:104C4000EA95E9F7C5010E94E4110E949E1F88239E
:104C500011F07894CCCD8091AD039091AE0320916A
:104C6000AB033091AC038217930799F3B6E0B89F7A
:104C70008001B99F100D1124055D1D4F019660E460
:104C800070E00E9429289093AE038093AD0345E025
:104C90006BED71E08AE00E94101F45E06BED71E062
:104CA00080E10E94101F0E948D1F8091B90488230B
:104CB00031F00E948D1F8073C1F31092B9040E94DD
:104CC000D91EF1E0F093B9046AE080E00E94AF1EC3
:104CD0000E94AA1E8091BE049091BF04DC01ED9158
:104CE000FC910190F081E02D61EE09950E94A51ED6
:104CF0000E94AA1E8091BE049091BF04DC01ED9138
:104D0000FC910190F081E02D60EA09956091BD046D
:104D1000C8010E94F31E0E94A51E61E08091BA04A2
:104D20000E942B070E949E1F8111FCCF92CFCF9330
:104D3000DF9310926C0410926B0488EE93E0A0E075
:104D4000B0E080936D0490936E04A0936F04B093D1
:104D5000700485E491E090936A04809369048FEF76
:104D60009FEF909376048093750488E08093BA0453
:104D700087E08093BB0481E08093BC0480E1809352
:104D8000BD041092BF041092BE0462E082E00E9453
:104D90008E0762E081E00E948E07EEEDF4E0E49180
:104DA000F0E0EE0FFF1FE253FB4FA591B491B093DB
:104DB000C904A093C804E1EBF4E084918093CC048F
:104DC000EDEDF4E0E491F0E0EE0FFF1FE253FB4F56
:104DD000C591D491D093CB04C093CA04E0EBF4E026
:104DE000E491E093CD041092CF041092D00410927D
:104DF000D1041092D204EBE3FFE13197F1F7EC918B
:104E0000E82381E009F480E028819091CD04922389
:104E100009F0826028EC34E08093CE043093C30420
:104E20002093C20483E098E19093130180931201D0
:104E300080916900837F846080936900E99A81E0B2
:104E40008093D3043093C7042093C60487EF97E17F
:104E50009093170180931601809169008F7380648D
:104E600080936900EB9A82E08093D3048BE999E008
:104E70009093D7048093D60481EC98E19093D90461
:104E80008093D80485E591E09093D5048093D40471
:104E90001092E9041092E8041092EB041092EA04D4
:104EA0001092ED041092EC041092EF041092EE04B4
:104EB0008AE090E09093E5048093E4041092E60485
:104EC0001092E7041092F5041092F4041092F70483
:104ED0001092F6041092F9041092F8041092FB0458
:104EE0001092FA048FE090E09093F1048093F00424
:104EF0001092F2041092F304109201051092000532
:104F000010920305109202051092050510920405F7
:104F100010920705109206058CE090E09093FD0436
:104F20008093FC041092FE041092FF0410920D0571
:104F300010920C0510920F0510920E05109211059B
:104F40001092100510921305109212058EE090E059
:104F5000909309058093080510920A0510920B059D
:104F6000109219051092180510921B0510921A053F
:104F700010921D0510921C0510921F0510921E051F
:104F80008DE090E09093150580931405109216051E
:104F900010921705109225051092240510922705EE
:104FA00010922605109229051092280510922B05C3
:104FB00010922A0580E190E09093210580932005CE
:104FC000109222051092230510923105109230059F
:104FD0001092330510923205109235051092340567
:104FE000109237051092360581E190E090932D05DF
:104FF00080932C0510922E0510922F0510923805E3
:105000001092390510923A0510923B0510927405E2
:10501000109273051092760510927505109277051F
:1050200081E090E09093790580937805DF91CF91AE
:105030000895DB018F939F930E947128BF91AF91D8
:10504000A29F800D911DA39F900DB29F900D1124E2
:10505000089597FB072E16F4009407D077FD09D02A
:105060000E94842807FC05D03EF4909581959F4FBF
:105070000895709561957F4F0895052E97FB1EF456
:1050800000940E94542857FD07D00E94982807FCDE
:1050900003D04EF40C9454285095409530952195AA
:1050A0003F4F4F4F5F4F0895909580957095619554
:1050B0007F4F8F4F9F4F0895EE0FFF1F0590F49184
:1050C000E02D0994A29FB001B39FC001A39F700D72
:1050D000811D1124911DB29F700D811D1124911D00
:1050E00008950E946228A59F900DB49F900DA49FE3
:1050F000800D911D11240895B7FF0C9471280E9412
:105100007128821B930B0895AA1BBB1B51E107C09A
:10511000AA1FBB1FA617B70710F0A61BB70B881F47
:10512000991F5A95A9F780959095BC01CD010895D6
:10513000A1E21A2EAA1BBB1BFD010DC0AA1FBB1F9B
:10514000EE1FFF1FA217B307E407F50720F0A21B0D
:10515000B30BE40BF50B661F771F881F991F1A947A
:1051600069F760957095809590959B01AC01BD01A4
:10517000CF0108955058BB27AA270E94D2280C942B
:10518000232A0E94152A38F00E941C2A20F039F4A4
:105190009F3F19F426F40C94122A0EF4E095E7FBD5
:1051A0000C940C2AE92F0E94342A58F3BA1762078C
:1051B00073078407950720F079F4A6F50C94562A16
:1051C0000EF4E0950B2EBA2FA02D0B01B901900122
:1051D0000C01CA01A0011124FF27591B99F0593F66
:1051E00050F4503E68F11A16F040A22F232F342FAE
:1051F0004427585FF3CF469537952795A795F040FC
:105200005395C9F77EF41F16BA0B620B730B840B10
:10521000BAF09150A1F0FF0FBB1F661F771F881FC8
:10522000C2F70EC0BA0F621F731F841F48F4879520
:1052300077956795B795F7959E3F08F0B0CF939512
:10524000880F08F09927EE0F9795879508950E948B
:105250003B290C94232A0E941C2A58F00E94152AEC
:1052600040F029F45F3F29F00C940C2A51110C9462
:10527000572A0C94122A0E94342A68F39923B1F316
:10528000552391F3951B550BBB27AA27621773076C
:10529000840738F09F5F5F4F220F331F441FAA1F00
:1052A000A9F335D00E2E3AF0E0E832D091505040BC
:1052B000E695001CCAF72BD0FE2F29D0660F771F6A
:1052C000881FBB1F261737074807AB07B0E809F050
:1052D000BB0B802DBF01FF2793585F4F3AF09E3FD5
:1052E000510578F00C940C2A0C94572A5F3FE4F394
:1052F000983ED4F3869577956795B795F7959F5F18
:10530000C9F7880F911D9695879597F90895E1E063
:10531000660F771F881FBB1F621773078407BA07C2
:1053200020F0621B730B840BBA0BEE1F88F7E0951D
:1053300008950E94A0296894B1110C94572A0895E9
:105340000E943C2A88F09F5798F0B92F9927B751AF
:10535000B0F0E1F0660F771F881F991F1AF0BA9519
:10536000C9F714C0B13091F00E94562AB1E00895F7
:105370000C94562A672F782F8827B85F39F0B93FE9
:10538000CCF3869577956795B395D9F73EF49095CC
:105390008095709561957F4F8F4F9F4F0895E8944A
:1053A00009C097FB3EF490958095709561957F4F6D
:1053B0008F4F9F4F9923A9F0F92F96E9BB2793951B
:1053C000F695879577956795B795F111F8CFFAF42B
:1053D000BB0F11F460FF1BC06F5F7F4F8F4F9F4F5C
:1053E00016C0882311F096E911C0772321F09EE8BA
:1053F000872F762F05C0662371F096E8862F70E020
:1054000060E02AF09A95660F771F881FDAF7880FF9
:105410009695879597F9089597F99F6780E870E0CA
:1054200060E008959FEF80EC089500240A9416161A
:10543000170618060906089500240A941216130682
:10544000140605060895092E0394000C11F4882310
:1054500052F0BB0F40F4BF2B11F460FF04C06F5F2C
:105460007F4F8F4F9F4F089557FD9058440F551F02
:1054700059F05F3F71F04795880F97FB991F61F0D6
:105480009F3F79F087950895121613061406551F4D
:10549000F2CF4695F1DF08C0161617061806991FB9
:1054A000F1CF86957105610508940895E894BB27AE
:1054B00066277727CB0197F908950E94702A0C94EC
:1054C000232A0E94152A38F00E941C2A20F09523D6
:1054D00011F00C940C2A0C94122A11240C94572AC3
:1054E0000E94342A70F3959FC1F3950F50E0551F29
:1054F000629FF001729FBB27F00DB11D639FAA2729
:10550000F00DB11DAA1F649F6627B00DA11D661F77
:10551000829F2227B00DA11D621F739FB00DA11D98
:10552000621F839FA00D611D221F749F3327A00D52
:10553000611D231F849F600D211D822F762F6A2FEE
:1055400011249F5750409AF0F1F088234AF0EE0F53
:10555000FF1FBB1F661F771F881F91505040A9F780
:105560009E3F510580F00C940C2A0C94572A5F3F03
:10557000E4F3983ED4F3869577956795B795F795BC
:10558000E7959F5FC1F7FE2B880F911D9695879534
:1055900097F908959F930E94D42A0F9007FCEE5F1D
:1055A0000C94FD2A0C94122A0E943C2AD8F3E89409
:1055B000E0E0BB279F57F0F02AED3FE049EC06C042
:1055C000EE0FBB0F661F771F881F28F0B23A6207E5
:1055D0007307840728F0B25A620B730B840BE395B0
:1055E0009A9572F7803830F49A95BB0F661F771F33
:1055F000881FD2F790480C94132BEF93E0FF07C05D
:10560000A2EA2AED3FE049EC5FEB0E94D2280E941B
:10561000232A0F90039401FC9058EAEDF1E00C94DA
:105620001F2B9F3F31F0915020F487957795679518
:10563000B795880F911D9695879597F908959F9333
:105640008F937F936F93FF93EF939B01AC010E9425
:105650005D2AEF91FF910E94332B2F913F914F9143
:105660005F910C945D2ADF93CF931F930F93FF926A
:10567000EF92DF927B018C01689406C0DA2EEF0175
:105680000E94702AFE01E894A591259135914591DB
:105690005591A6F3EF010E94D228FE019701A801BF
:1056A000DA9469F7DF90EF90FF900F911F91CF91FF
:1056B000DF910895CF93DF938230910510F482E05B
:1056C00090E0E0918F06F091900620E030E0C0E09D
:1056D000D0E0309711F14081518148175907C0F04F
:1056E0004817590761F482819381209719F09B83B1
:1056F0008A832BC09093900680938F0626C0211535
:10570000310519F04217530718F49A01BE01DF0161
:10571000EF010280F381E02DDCCF2115310509F185
:10572000281B390B2430310590F412968D919C91F1
:1057300013976115710521F0FB019383828304C0E7
:105740009093900680938F06FD01329644C0FD0130
:10575000E20FF31F81939193225031092D933C93D3
:105760003AC020918D0630918E06232B41F4209172
:105770001C0130911D0130938E0620938D062091DF
:105780001A0130911B012115310541F42DB73EB7A7
:1057900040911E0150911F01241B350BE0918D0695
:1057A000F0918E06E217F307A0F42E1B3F0B28178B
:1057B000390778F0AC014E5F5F4F2417350748F08A
:1057C0004E0F5F1F50938E0640938D0681939193E9
:1057D00002C0E0E0F0E0CF01DF91CF9108950F9398
:1057E0001F93CF93DF93009709F48CC0FC0132978D
:1057F0001382128200918F061091900601151105F7
:1058000081F420813181820F931F20918D06309188
:105810008E062817390779F5F0938E06E0938D06EA
:1058200071C0D80140E050E0AE17BF0750F41296A7
:105830002D913C911397AD012115310509F1D90145
:10584000F3CF9D01DA013383228360817181860F5A
:10585000971F8217930769F4EC0128813981260F7D
:10586000371F2E5F3F4F318320838A819B81938333
:105870008283452B29F4F0939006E0938F0642C073
:105880001396FC93EE931297ED01499159919E0165
:10589000240F351FE217F30771F480819181840F83
:1058A000951F029611969C938E93828193811396F5
:1058B0009C938E931297E0E0F0E0D80112968D91C0
:1058C0009C911397009719F0F8018C01F6CF8D91F8
:1058D0009C9198012E5F3F4F820F931F20918D0660
:1058E00030918E062817390769F4309729F4109201
:1058F000900610928F0602C01382128210938E06B9
:1059000000938D06DF91CF911F910F910895FB01B8
:10591000DC0104C08D910190801921F44150504068
:10592000C8F7881B990B0895AEE0B0E0EAE9FCE205
:105930000C948E320D891E8986E08C831A8309832C
:105940008FEF9FE79E838D83AE01475E5F4F6F8928
:10595000788DCE0101960E94D02C2F813885F801D8
:10596000E20FF31F10822E96E4E00C94AA32AEE010
:10597000B0E0EDEBFCE20C94903285E08C838B89F7
:105980009C899A838983AE01495E5F4F6D897E89C8
:10599000CE0101960E9422302E96E2E00C94AC32A9
:1059A000ACE0B0E0E6EDFCE20C9480327C016B01EF
:1059B0008A01FC0117821682838181FFBDC1CE015D
:1059C00001964C01F7019381F60193FD859193FFB8
:1059D00081916F01882309F4ABC1853239F493FDBD
:1059E000859193FF81916F01853229F4B70190E091
:1059F0000E94B831E7CF512C312C20E02032A0F4A6
:105A00008B3269F030F4803259F0833269F42061CE
:105A10002CC08D3239F0803339F4216026C02260E9
:105A2000246023C0286021C027FD27C030ED380F37
:105A30003A3078F426FF06C0FAE05F9E300D11245C
:105A4000532E13C08AE0389E300D1124332E20626D
:105A50000CC08E3221F426FD6BC1206406C08C364A
:105A600011F4206802C0883641F4F60193FD859157
:105A700093FF81916F018111C1CF982F9F7D955424
:105A8000933028F40C5F1F4FFFE3F9830DC083367A
:105A900031F0833771F0833509F05BC022C0F80123
:105AA000808189830E5F1F4F44244394512C5401FD
:105AB00015C03801F2E06F0E711CF801A080B180B2
:105AC00026FF03C0652D70E002C06FEF7FEFC501B8
:105AD0002C870E946F312C0183012C852F77222E79
