:100000000C9485020C945C1C0C94351C0C940E1CF6
:100010000C94E71B0C94AD020C94AD020C94C01B25
:100020000C94AD020C94AD020C942B170C949D17FC
:100030000C94AD020C94AD020C94AD020C94AD0284
:100040000C94AD020C94AD020C94AD020C94AD0274
:100050000C94AD020C94AD020C94AD020C94761B82
:100060000C94AD020C94AD020C94AD020C94AD0254
:100070000C94AD020C94AD020C94AD020C94AD0244
:100080000C94AD020C94AD020C94AD020C94AD0234
:100090000C94AD020C94AD020C947B0A0C94AD024E
:1000A0000C94AD020C94AD020C94AD02BD061E077B
:1000B0001E07B5061E07B706B9061E071E07BB06B4
:1000C000C106BF06EC061E071E07D0061E07D70690
:1000D000DE061E071E07E506F006EE0612071E07DF
:1000E0001E0704071E0707070C071E071E070F073A
:1000F0001A07170734074007810740074F074207D1
:100100004807450781078107810781078107810724
:10011000810789074B07B70C840D7D0D3C0D7D0DC4
:100120006A0D740D6F0D7D0D7D0D7D0DCD0C36139B
:100130009114C01201150115E21436140115501264
:100140000115011501150A13AB12B81301151C1284
:1001500001150115E5120115011501150115B6145A
:1001600001150115011501150115011501152713BB
:100170009614B912CE120115C514EB13B8112C1236
:1001800001150115011501137912AD130115131293
:10019000F2110112D9125913E811F6115B13051A65
:1001A000081AF719FB19FF19291A291A291A0C1A02
:1001B000101A141A1A1A1E1A291A241AE01AE51A01
:1001C000EA1AF41AFE1A481B481B481B081B121B8C
:1001D0001C1B261B331B481B3B1B05A84CCDB2D454
:1001E0004EB93836A9020C50B9918688083CA6AAA7
:1001F000AA2ABE000000803F6364696E6F70737549
:1002000078585B002F55736572732F656469746449
:10021000656C74612F2E6C656E7A686F756E642FD5
:100220006275696C642F736B657463682F616F5FAF
:100230005478722E63707000FFFEFDFBF7EFDFBF96
:100240007FFEFDFBF7EFDFBF7FFEFDFBF7EFDFBFBC
:100250007FFEFDFBF7EFDFBF7FFEFDFBF7EFDFBFAC
:100260007FFEFDFBF7EFDFBF7FFEFDFBF7EFDFBF9C
:100270007FFEFDFBF7EFDFBF7F00010202030303F8
:100280000304040404040404040505050505050528
:100290000505050505050505050606060606060607
:1002A00006060606060606060606060606060606EE
:1002B00006060606060606060607070707070707D7
:1002C00007070707070707070707070707070707BE
:1002D00007070707070707070707070707070707AE
:1002E000070707070707070707070707070707079E
:1002F0000707070707070707070808080808080887
:10030000080808080808080808080808080808086D
:10031000080808080808080808080808080808085D
:10032000080808080808080808080808080808084D
:10033000080808080808080808080808080808083D
:10034000080808080808080808080808080808082D
:10035000080808080808080808080808080808081D
:10036000080808080808080808080808080808080D
:100370000808080808080808080408020110408056
:10038000401020408040800802040180402010027C
:1003900001108010204040200000000023002600B3
:1003A00029002C002F0004040404040304050202A5
:1003B00002020403020202020606060606060404FE
:1003C0000202020404717000080B00020202010024
:1003D00009040000010202000005240010010524A8
:1003E000010101042402060524060001070581031A
:1003F00010004009040100020A0000000705020283
:1004000040000007058302400000040309041201B4
:100410000002EF0201404123368000010102030186
:1004200041726475696E6F204C4C43004172647573
:10043000696E6F204C656F6E6172646F000001021F
:1004400004081020408001020408102040800102AE
:10045000040810204080010204081020408001029E
:10046000040810204080010204081020408001028E
:100470000408102040800102040810204080000081
:100480000000000000000001010101010101010262
:100490000202020202020203030303030303030432
:1004A0000404040404040405050505050505050602
:1004B00006060606060606070707070707070700DA
:1004C000000000240027002A002D0030000000005A
:1004D00000250028002B002E003100000000020043
:1004E000090F0000030401000C00000000000000E0
:1004F00000000000000000000000070605040100E5
:10050000080A0B0C0D0930274C2111241FBECFEF18
:10051000DAE0DEBFCDBF11E0A0E0B1E0E4E3F7E652
:1005200002C005900D92AA3EB107D9F726E0AAEEC7
:10053000B1E001C01D92A139B207E1F712E0C4E8B1
:10054000D2E004C02197FE010E94E82BC338D107F6
:10055000C9F70E944D210C948D330C9400000F9329
:100560001F939C01CB012617370799F1A901330F7F
:10057000660B770B092E000CAA0BBB0B8A019B01A3
:10058000081B190B2A0B3B0BD901C80137FF07C009
:10059000B095A095909581959F4FAF4FBF4F9C010F
:1005A000AD014997A105B10524F028E130E040E014
:1005B00050E0AEECBFEF0E940B2C28E130E040E0B1
:1005C00050E00E94C92BDA01C901C296A11DB11DDC
:1005D00002C080E890E01F910F9108950F931F9340
:1005E0009C01CB012617370799F1A901330F660B40
:1005F000770B092E000CAA0BBB0B8A019B01081B71
:10060000190B2A0B3B0BD901C80137FF07C0B09566
:10061000A095909581959F4FAF4FBF4F9C01AD0125
:100620000897A105B10524F027E030E040E050E054
:10063000AEECBFEF0E940B2C27E030E040E050E032
:100640000E94C92BDA01C901C296A11DB11D02C0C9
:1006500080E890E01F910F9108950C94DB2C0C948E
:10066000DB2C4F925F926F927F928F929F92AF920C
:10067000BF92CF92DF92EF92FF920F931F93CF938F
:10068000DF93CDB7DEB728970FB6F894DEBF0FBE65
:10069000CDBF8C01FC01EC55FF4F80819181892BEE
:1006A00009F061C08091F3019091F4010E947D1ED8
:1006B00097FD03966C01D594C794D594C7941C14E8
:1006C0001D0484F40D2C000CEE08FF0821E2C21674
:1006D000D104E104F10454F0A0E2CA2ED12CE12CA3
:1006E000F12C04C0C12CD12C7601C39461E070E0E0
:1006F000C6010E94EE029A83898368E070E0C60119
:100700000E94EE029C838B8360E170E0C6010E9430
:10071000EE025C0168E170E0C6010E94EE029E8379
:100720008D8360E270E0C6010E94EE0298878F839D
:10073000B501B7FE02C06D5F7F4F759567957595E2
:1007400067958BE00E94B91A33E3A316B10444F411
:10075000B501635F7F4F77FF69C06D5F7F4F66C0F4
:1007600060E170E067C02091F1013091F201A4E6F0
:10077000B0E00E94EE2B6B017C017FE0F594E794E2
:10078000D794C7947A95D1F7C114D104E104F10448
:1007900061F085E6C816D104E104F10454F064E682
:1007A000C62ED12CE12CF12C04C0C12CD12C760109
:1007B000C39461E070E0C6010E94AF029A8389830E
:1007C00069E170E0C6010E94AF029C838B8362E303
:1007D00070E0C6010E94AF025C016BE470E0C601EC
:1007E0000E94AF029E838D8364E670E0C6010E9482
:1007F000AF0298878F83E3E3AE16B10464F4B501CA
:10080000635F7F4F77FF02C06D5F7F4F7595679580
:100810007595679502C060E170E08BE00E94B91A9F
:10082000B7FE03C0F3E0AF0EB11CB5017595679537
:10083000759567958AE00E94B91A4C9943C0F801F2
:10084000EA55FF4F8081882399F03C978081FE0113
:100850003196E80FF11DE80FF11D808191814997D4
:100860001CF01182108204C08FEF90E0918380838E
:1008700069817A8183E00E94B91A6B817C8185E06D
:100880000E94B91A6D817E8186E00E94B91A6F813B
:10089000788589E028960FB6F894DEBF0FBECDBFED
:1008A000DF91CF911F910F91FF90EF90DF90CF904C
:1008B000BF90AF909F908F907F906F905F904F9080
:1008C0000C94B91A0E941211E82E880FFF082FB756
:1008D000F894609171057091720580917305909103
:1008E00074052FBF0E941A2A20E030E04AEF53E43B
:1008F0000E9472290E94152BEE0CFF1CE1E0F0E033
:10090000EC0FFD1FEE0DFF1D208131811216130625
:1009100014F021E030E04901330FAA08BB0821E0C0
:1009200030E02C0F3D1FE20EF31E20E030E040E8E7
:100930005FE30E94062920E030E040E053E40E949B
:10094000A82A0E94E42980E1482E512C612C712CA8
:10095000A3019201281939094A095B09DB010E94A8
:10096000082C20E031E040E050E00E94C92B820ECC
:10097000931EA41EB51EF7019182808260CF0F9353
:100980001F93CF93DF93CDB7DEB7A0970FB6F89440
:10099000DEBF0FBECDBF7F936F935F934F93282F22
:1009A000082E000C330B3F938F938BE691E09F93BF
:1009B0008F938E010F5F1F4F1F930F930E94802D07
:1009C000C8010E94F10E0FB6F894DEBF0FBECDBF76
:1009D000A0960FB6F894DEBF0FBECDBFDF91CF91CA
:1009E0001F910F9108958F929F92AF92BF92CF92D5
:1009F000DF92EF92FF920F931F93CF93DF9300D07C
:100A000000D000D0CDB7DEB78C010E947C206C01F5
:100A1000990FEE08FF0848018CE6880E911CF4013E
:100A200080819181A281B381C816D906EA06FB06AE
:100A300009F45FC05801F0E7AF0EB11CF5018081E9
:100A40009181A281B381C816D906EA06FB0609F492
:100A500050C0B701A60180E70E94BF04F501808164
:100A60009181A281B381F40180839183A283B383B6
:100A7000D501CD92DD92ED92FC9213977496808011
:100A80009180A280B380349680819181A281B381CC
:100A9000BC01CD01681979098A099B09A701960152
:100AA0000E94A52B20E034E040E050E00E94C92BDA
:100AB000BA01A901480D591D6A1D7B1DF801E859AD
:100AC000FF4F4083518362837383FE01319686E03A
:100AD000DF011D928A95E9F7842F4A835B836C833B
:100AE0007D8347E1582F6B817C818D819E810E949F
:100AF0008C0F26960FB6F894DEBF0FBECDBFDF91E8
:100B0000CF911F910F91FF90EF90DF90CF90BF900A
:100B1000AF909F908F9008958F929F92AF92BF92C7
:100B2000CF92DF92EF92FF92CF93DF93EC010E947E
:100B300052154B015C01C458DF4F88819981AA810D
:100B4000BB8188169906AA06BB0629F0B501A40147
:100B500085E60E94BF0488819981AA81BB817501C5
:100B60006401C81AD90AEA0AFB0A8091F30190913C
:100B7000F4010E947D1E092E000CAA0BBB0BC80EAF
:100B8000D91EEA1EFB1E24E0C216D104E104F104C2
:100B900064F021E8C216D104E104F1045CF030E80D
:100BA000C32ED12CE12CF12C05C024E0C22ED12C77
:100BB000E12CF12C88829982AA82BB82C816D906C0
:100BC000EA06FB06F1F0C6010E949E1E9093F40116
:100BD0008093F301C701B60124E030E040E050E02B
:100BE0000E94C92BBA01A90181E6DF91CF91FF9044
:100BF000EF90DF90CF90BF90AF909F908F900C942C
:100C0000BF04DF91CF91FF90EF90DF90CF90BF9026
:100C1000AF909F908F9008958F929F92AF92BF92C6
:100C2000CF92DF92EF92FF92CF93DF93EC010E947D
:100C300052156B017C01C458DF4F88819981AA81CC
:100C4000BB81C816D906EA06FB0629F0B701A60142
:100C500085E60E94BF0488819981AA81BB81A70192
:100C60009601281B390B4A0B5B0B8090F101909089
:100C7000F201A12CB12CD501C40166E0B595A79570
:100C8000979587956A95D1F70097A105B10561F011
:100C9000BC01CD0161387105810591054CF060E81A
:100CA00070E080E090E004C061E070E080E090E0FF
:100CB0000E94A52BAB01BC01480D591D6A1D7B1D6F
:100CC00014161506160617065CF4413080E858071E
:100CD000610571054CF040E050E860E070E004C050
:100CE00041E050E060E070E0C882D982EA82FB8295
:100CF000481559056A057B0589F05093F201409328
:100D0000F1018DE6DF91CF91FF90EF90DF90CF90D2
:100D1000BF90AF909F908F900C94BF04DF91CF91C4
:100D2000FF90EF90DF90CF90BF90AF909F908F900B
:100D300008950F931F93CF93DF93EC018B01562FF0
:100D400044274C2B052E000C660B770B8CE60E947B
:100D5000BF0401301105C1F4CC30D10508F06EC0DC
:100D6000FE01EA5AFF4F0C94E82B589A67C0469A46
:100D700065C05F9A63C02D9A61C05A9A5FC02F9A6E
:100D80005DC06FEF70E02EC00115110591F5CC30FC
:100D9000D10508F053C0FE01EE59FF4F0C94E82B2B
:100DA00060E070E083E00E94B91A589847C060E0A4
:100DB00070E085E00E94B91A469840C060E070E09B
:100DC00086E00E94B91A5F9839C060E070E089E05F
:100DD0000E94B91A2D9832C05A9830C02F982EC050
:100DE00060E070E08AE0DF91CF911F910F910C9449
:100DF000B91A0230110511F5CC30D105F8F4FE0115
:100E0000E259FF4F0C94E82B9BB181E00DC098B1E3
:100E100080E4892788B912C08BB1805806C095B18B
:100E200080E20AC09BB184E089278BB907C085B1F5
:100E3000805803C095B180E4892785B9DF91CF91AF
:100E40001F910F9108950F931F93CF93DF93DB01B1
:100E5000ED91FC913197E131F10508F052C0EC01C0
:100E6000E658FF4F0C94E82B60E070E08BE090E0D8
:100E70000E94990661E070E08AE090E00E94990685
:100E800020E047C08BE099E01BC089EF9BE018C0D1
:100E90008BEE99E015C0CD55DF4F18823AC08C011A
:100EA0000D551F4FF8012081885A9F4F222361F072
:100EB0000E94E61CFE01E857FF4F108285E99CE086
:100EC0009D838C8322E025C0FE01EC55FF4F2081DD
:100ED00031812130310519F41182108204C021E0E2
:100EE00030E031832083DC011B961C921E921A97FE
:100EF00040E051E0BE010E94F41C81E0F8018083D3
:100F0000BFCF24E038E0DC0115963C932E93149774
:100F100023E0822FDF91CF911F910F910895CF93FE
:100F2000DF93FB01208131812430310509F468C051
:100F3000EC012530310598F421303105C1F0223023
:100F4000310509F057C04C960E94E61C61E070E044
:100F50008BE090E00E94990660E070E046C02F3080
:100F6000310509F440C02031310521F143C061E071
:100F700070E08BE090E00E94990662E070E08AE009
:100F800090E00E94990685E590E09FA38EA345E539
:100F900050E0BE01CE014C960E94F41CCE01845B51
:100FA0009F4FFC011386128640E051E0BE010E9473
:100FB000F41C26C0FC01E857FF4F808182306CF0A2
:100FC0004E9B03C08BEE99E00AC04C9B03C089EF97
:100FD0009BE005C08BE099E002C085E99CE09D8321
:100FE0008C8382E00EC062E070E08AE090E00E94B4
:100FF000990606C085E99CE09D838C8383E001C04F
:1010000080E0DF91CF910895DF92EF92FF920F93EE
:101010001F93CF93DF9300D000D000D0CDB7DEB7C1
:101020008C01FB01208131812A30310581F038F4B7
:10103000215031092230310508F48EC086C02D3090
:10104000310509F47FC02E303105E1F07EC045E066
:10105000BE016F5F7F4F80E10E94FB1F45E050E0C3
:1010600062E771E0CE0101960E94732D892B19F47D
:1010700060E070E002C061E070E080E090E00E941B
:1010800099066AC096E0D92ECE0101967C01FC013A
:101090008D2D11928A95E9F787E089838091F1017E
:1010A0009091F201582F8A839B8347E0692F7C81BE
:1010B0008D819E810E948C0FF7011192DA94E9F7DD
:1010C0008BE089832091F3013091F40137FF02C056
:1010D0002D5F3F4F3595279535952795522F3B83AB
:1010E0002A8349816B817C818D819E810E948C0F36
:1010F00086E0F70111928A95E9F785E2898380916C
:10110000F5019091F601582F8A839B8345E2692F60
:101110007C818D819E810E948C0F80E390E00E94F3
:101120003E117C010F551F4FF80180819181E81617
:10113000F90691F060E0C7010E94FA0FF801F18210
:10114000E0820AC00E94BE1E07C086ED99E1F80148
:101150009583848383E001C080E026960FB6F894DF
:10116000DEBF0FBECDBFDF91CF911F910F91FF90DA
:10117000EF90DF9008958130910551F01CF4892B98
:1011800081F008958230910531F0039739F0089588
:1011900085E090E008C086E090E005C089E090E03E
:1011A00002C083E090E00C94990660E070E083E078
:1011B0000E94B91A60E070E085E00E94B91A60E010
:1011C00070E08BE00E94B91A60E070E08AE00E9453
:1011D000B91A60E070E086E00E94B91A60E070E041
:1011E00089E00E94B91A60E070E083E090E00E941C
:1011F000990660E070E085E090E00E94990660E06A
:1012000070E086E090E00E94990660E070E089E07E
:1012100090E00C949906DF92EF92FF920F931F9348
:10122000CF93DF9300D000D000D0CDB7DEB78C01D4
:10123000DB018D919C918930910509F476C068F4A9
:1012400081309105A9F0029709F0AFC00E94D5083E
:10125000C8014C960E94E61CAFC08C30910549F144
:101260000F9709F0A2C0F801EA55FF4F1082A4C001
:10127000F801ED55FF4F1082FB978081318122816B
:10128000938134978083318322839383FE01319647
:1012900046E0DF011D924A95E9F7582F47E1632F99
:1012A000722F892F9E810E948C0FC8010E943103EA
:1012B00083C0F801EC55FF4F80819181019721F4A3
:1012C000C8010E940C0603C0C8010E948C05C80119
:1012D0000E943103F801EC59FF4F80819181A28176
:1012E000B38134964081518162817381841795075F
:1012F000A607B70709F460C080839183A283B383F4
:10130000AE014F5F5F4F26E0FA0111922A95E9F78F
:10131000582F8A839B83AC83BD8347E16B817C819B
:101320008D819E810E948C0F47C0DB011496DC905A
:10133000ED2C0D2C000CFF08B4E0EB16F10434F09A
:1013400067E972E084E092E00E941D15D801AC5973
:10135000BF4FEE0CFF1CEE0CFF1CE00EF11EF70160
:10136000E657FF4F40815181628173814D935D93B8
:101370006D937C931397F801E656FF4FD0823C960D
:1013800081E080837801ECE1EE0EF11CC7010E9440
:10139000E61CD80197961C921E92969745E550E060
:1013A000B801C7010E94F41C07C083E297E0F8016E
:1013B0009583848383E001C080E026960FB6F8947D
:1013C000DEBF0FBECDBFDF91CF911F910F91FF9078
:1013D000EF90DF9008950F931F93CF93DF93EC016D
:1013E000FB018081918189309105A9F168F48130F8
:1013F0009105A1F0029709F072C00E94D508CE01B4
:101400004C960E94E61C71C08C30910579F00F97C4
:1014100009F065C0CA55DF4F188267C0FE01ED555F
:10142000FF4F1082CE010E9431035FC0FE01EC55D8
:10143000FF4F80819181019721F4CE010E940C061B
:1014400003C0CE010E948C05CE010E943103CE0163
:101450000E94F3044AC02FB7F8948CA19DA12FBF1E
:10146000892B09F042C0FB0184818E0106561F4F73
:10147000F8018083843030F063E672E084E092E02B
:101480000E941D15F8012081FE01E859FF4F60817F
:10149000718182819381422F50E0FE0134E0239FCD
:1014A000E00DF11D1124E657FF4F608371838283A5
:1014B00093839A01220F331FC90188960E94CB1093
:1014C000FE01EA55FF4F81E080831FA21EA245E581
:1014D00050E0BE01CE014C960E94F41C06C083E28F
:1014E00097E09D838C8383E001C080E0DF91CF9102
:1014F0001F910F9108951F920F920FB60F92112412
:10150000DF92EF92FF920F931F932F933F934F938E
:101510005F936F937F938F939F93AF93BF93CF937B
:10152000DF93EF93FF93DFB6F894C0916F05D091EE
:10153000700500E010E0209709F44DC0888599857A
:10154000009769F480916F0590917005C817D907CD
:1015500021F10115110589F568E376E02AC00197AC
:1015600099878887892B91F58A859B85009711F04B
:1015700099878887DFBEBE018E819F810E94D11D21
:10158000DFB6F89488859985892B01F580916F05E0
:1015900090917005C817D90739F48C819D8190937B
:1015A000700580936F050EC00115110531F46BE5D0
:1015B00076E085EC93E00E941D158C819D81F801F9
:1015C000958384838B8181508B8301C08E010C8035
:1015D000DD81C02DB0CFDFBE8FB180FBEE24E0F8FF
:1015E000F12C8091EC019091ED01E816F90689F05B
:1015F000E114F10419F064E070E002C065E070E00D
:1016000084E00E942C1D0E941C1EF092ED01E092CD
:10161000EC0189B1C82FC075D0E020910001309154
:101620000101C217D307A9F084FF03C068E070E08E
:1016300007C086FF03C067E070E002C066E070E0AC
:1016400084E00E942C1D0E941C1ED0930101C093B7
:1016500000018FB1827790E0C091EA01D091EB0157
:101660008C179D0719F1C827D927C823D923909330
:10167000EB018093EA012097C9F069E070E085E012
:101680000E942C1DC6FF03C0FC0114820DC0C5FFC3
:1016900002C021E007C0C4FF02C022E003C0C1FFB6
:1016A00003C023E0FC0124830E941C1EFF91EF91E4
:1016B000DF91CF91BF91AF919F918F917F916F916A
:1016C0005F914F913F912F911F910F91FF90EF905C
:1016D000DF900F900FBE0F901F901895DC01ED91D9
:1016E000FD918081ED91FD919081ED91FD916C9145
:1016F00063708E2309F064609F2309F06860EBE853
:10170000FBE0E60FF11D659565956D936D917D91FB
:101710008D919D91099423C01AC012C016C010C0AB
:101720001EC009C014C013C006C019C009C00DC036
:1017300007C00DC014C062507040804090400BC084
:10174000615070408040904006C06E5F01C06F5F86
:101750007F4F8F4F9F4F9E938E937E936E930895EE
:101760008091B5049091B6040C946E0B8091B304F3
:101770009091B4040C946E0B8091B1049091B204DA
:101780000C946E0B8091AF049091B0040C946E0B8E
:10179000CF93DF93EC018091C204823030F4F8944F
:1017A00087EB94E00E946E0B01C0F8948091BE0418
:1017B0009091BF04A091C004B091C1047894FE013F
:1017C000E458FF4F80839183A283B383389780834B
:1017D0009183A283B3833496C859DF4F888199815E
:1017E000AA81BB8180839183A283B383DF91CF9150
:1017F00008950F931F93CF93DF93EC01FB0180813A
:1018000091818930910509F455C048F481309105E2
:1018100081F0029709F07DC00E94D50880C08C300D
:101820009105D9F00F9709F074C0CA55DF4F18829F
:1018300076C0FE01ED55FF4F108261E070E08AE056
:1018400090E00E94990661E070E08BE090E00E94D9
:101850009906CE010E94C80B62C0FE01EC55FF4FF5
:1018600080819181019721F4CE010E940C0603C072
:10187000CE010E948C05CE010E943103CE010E9450
:10188000F3040E941211082F880F110BC156DF4F6D
:10189000888199810817190709F441C060E070E058
:1018A0000E94BB0861E070E0C8010E94BB08198378
:1018B000088335C0FB011481143034F061ED72E00F
:1018C00084E092E00E941D15412F012E000C550B63
:1018D000660B770B81E70E94BF04812F0E94511194
:1018E000CE010E94C80BFE01E656FF4F10833C96C6
:1018F00081E080838E01045E1F4FC8010E94E61CB8
:101900001FA21EA245E550E0BE01C8010E94F41CC2
:1019100006C083E297E09D838C8383E001C080E072
:10192000DF91CF911F910F9108954F925F926F9227
:101930007F928F929F92AF92BF92CF92DF92EF925F
:10194000FF920F931F93CF93DF9300D000D000D06E
:10195000CDB7DEB7DB01ED91FC913197EC30F105AD
:1019600008F0CBC08C01E557FF4F0C94E82B61E0E9
:1019700070E08BE090E00E94990660E070E08AE001
:1019800090E00E94990689B1F801E757FF4F84FD66
:10199000BDC086FDD1C088E2BAC00E9452154B017D
:1019A0005C017801BCE7EB0EF11CF70180819181AD
:1019B000A281B38188169906AA06BB0629F0B50153
:1019C000A40185E60E94BF046801F8E7CF0ED11C90
:1019D000F801EC58FF4F80819181A281B381A5016C
:1019E0009401281B390B4A0B5B0BCA01B90124E097
:1019F00030E040E050E00E94C92BF801E757FF4F6C
:101A0000A0810A2E000CBB0B0E94082CD6014D9021
:101A10005D906D907C90DC01CB01840D951DA61D21
:101A2000B71DF70180829182A282B382F801E85942
:101A3000FF4F408151816281738184179507A6070A
:101A4000B70709F461C080839183A283B383AE0199
:101A50004F5F5F4F26E0FA0111922A95E9F7582F60
:101A60008A839B83AC83BD8347E16B817C818D81BD
:101A70009E810E948C0F48C0FC01E857FF4F808177
:101A800091E0980F9083B09781110CC060817181B3
:101A9000828193817896608371838283938382E2CB
:101AA00090E00DC06081718182819381F801EC57D3
:101AB000FF4F608371838283938384E290E00E946E
:101AC000CB108FE897E0D80115969C938E931497CE
:101AD00082E034C0FC01E757FF4F88E209C0FC01F7
:101AE000E757FF4F80E504C0FC01E757FF4F88E050
:101AF0008083C8010E94C80B07C024E038E0FC01C5
:101B00003583248383E01AC080E018C080E5808399
:101B1000F801E859FF4F1082118212821382C80126
:101B20000E94C80BFE01319686E0DF011D928A9566
:101B3000E9F743E25A8199CF88E0E9CF26960FB6BC
:101B4000F894DEBF0FBECDBFDF91CF911F910F91F3
:101B5000FF90EF90DF90CF90BF90AF909F908F90CD
:101B60007F906F905F904F9008958F929F92AF9269
:101B7000BF92CF92DF92EF92FF92CF93DF93EC016F
:101B8000FC01E757FF4F81E08083CE010E94C80B24
:101B9000FE01E459FF4F8FEF9FEFDC0180839183BB
:101BA000A283B383349680839183A283B38364E05A
:101BB00070E0CE010E948D1D65E070E0CE010E94B4
:101BC0008D1D66E070E0CE010E948D1D67E070E023
:101BD000CE010E948D1D68E070E0CE010E948D1D37
:101BE00069E070E0CE010E948D1D82E090E09BAB29
:101BF0008AAB42E050E0BE01CE0188960E94F41C00
:101C0000CE01805C9F4F20E034E0FC0133872287C7
:101C100040E054E0BE010E94F41C80E095E09B8F00
:101C20008A8F40E055E0BE01CE0140960E94F41C30
:101C300080E490E09FAF8EAF40E450E0BE01CE0163
:101C4000C4960E94F41C82E290E00E943E117E0144
:101C5000F0E8EF0EF11C092E000CAA0BBB0BF701EC
:101C600080839183A283B38384E290E00E943E113B
:101C70006E01F4E8CF0ED11C092E000CAA0BBB0B91
:101C8000F60180839183A283B38380E390E00E9476
:101C90003E11FE01EF55FF4F91838083F601808056
:101CA0009180A280B380F701C080D180E280F38070
:101CB0000E947C20A50194012C193D094E095F0961
:101CC000DC010E94082C20E034E040E050E00E945B
:101CD000C92BC20ED31EE41EF51EFE01E859FF4FAC
:101CE000C082D182E282F3827096C082D182E28287
:101CF000F38286E290E00E943E11892B19F085E97B
:101D00009CE027C06E01FAE8CF0ED11CE12CF12C2B
:101D1000C70188960E943E11092E000CAA0BBB0B2E
:101D2000F60181939193A193B1936F01F2E0EF0ECD
:101D3000F11C28E0E216F10459F74E9B03C08BEE2C
:101D400099E007C04C9B03C089EF9BE002C08BE089
:101D500099E09D838C8382E0DF91CF91FF90EF909B
:101D6000DF90CF90BF90AF909F908F90089508958F
:101D7000089520917F063091800623503A4FFC0150
:101D800040814423F9F040917F065091800641380C
:101D9000510544F44F5F5F4F5093800640937F0698
:101DA000F90108C01092800610927F06EDEFF5E071
:101DB00085E891E09F012F5F3F4FDC014C9140830C
:101DC0000196DDCF0895CF93DF93EC0169916623EF
:101DD00029F084E893E00E94F728F8CFDF91CF91B3
:101DE00008950E94B90E8CE891E00C94B90E0F93FF
:101DF0001F93CF93DF93CDB7DEB760970FB6F894FC
:101E0000DEBF0FBECDBF7F936F93282F082E000C2F
:101E1000330B3F938F938EE891E09F938F938E01C6
:101E20000F5F1F4F1F930F930E94802DC8010E94C8
:101E3000F10E0FB6F894DEBF0FBECDBF60960FB6A1
:101E4000F894DEBF0FBECDBFDF91CF911F910F91F0
:101E500008950F931F93CF93DF93CDB7DEB7EC9721
:101E60000FB6F894DEBF0FBECDBF7F936F93282FC0
:101E7000082E000C330B3F938F9384E991E09F93DE
:101E80008F938E010F5F1F4F1F930F930E94802D22
:101E9000C8010E94F10E0FB6F894DEBF0FBECDBF91
:101EA000EC960FB6F894DEBF0FBECDBFDF91CF9199
:101EB0001F910F9108950F931F93CF93DF93CDB789
:101EC000DEB760970FB6F894DEBF0FBECDBF282FE8
:101ED000082E000C330B3F938F938AE991E09F9378
:101EE0008F938E010F5F1F4F1F930F930E94802DC2
:101EF000C8010E94F10E0F900F900F900F900F905D
:101F00000F9060960FB6F894DEBF0FBECDBFDF9185
:101F1000CF911F910F910895CF93DF9300D000D000
:101F200000D0CDB7DEB749835A836B837C838D8322
:101F30009E832AE933E0F9018081918146E0489F40
:101F4000D001499FB00D1124A65EBD4FFE01319610
:101F500001900D924A95E1F7019660E470E00E94CD
:101F6000B52BF9019183808326960FB6F894DEBFD6
:101F70000FBECDBFDF91CF9108950F931F93CF93E5
:101F8000DF931F92CDB7DEB78C010E943320811101
:101F90002AC00E94222086FF1CC00E943F1F809101
:101FA000AD049091AE04DC01ED91FC910190F081C3
:101FB000E02D61E609954091AC04B801C8010E948A
:101FC000CD1F0E943A1F60E487E00E94441F81E019
:101FD0000BC041E0BE016F5F7F4F87E10E94FB1F96
:101FE000898180FFDACF80E00F90DF91CF911F9140
:101FF0000F910895DF92EF92FF920F931F93CF936B
:10200000DF93CDB7DEB728970FB6F894DEBF0FBECB
:10201000CDBF8C01D62ECE0101967C0186E0D70182
:102020001D928A95E9F70E9433208111FCCFC701E8
:102030000E94BD0F8111FBCFD11006C08091AB046F
:1020400090E08017910791F183E28F831886C80191
:1020500001978235910510F40093AB0441E0BE0175
:10206000695F7F4F86E00E94A51F6091AB0485E009
:102070000E94441F6091AC0481E10E94441F609162
:10208000AC0482E10E94441F0E94731F0E943F1F04
:102090008091AD049091AE04DC01ED91FC91019032
:1020A000F081E02D62EE09950E943A1F28960FB646
:1020B000F894DEBF0FBECDBFDF91CF911F910F917E
:1020C000FF90EF90DF9008950F931F93CF93DF93CE
:1020D000CDB7DEB7C456D1090FB6F894DEBF0FBE38
:1020E000CDBF811118C07F936F9380EA91E09F93D9
:1020F0008F938E010F5F1F4F1F930F930E94802DB0
:10210000C8010E94E30E0C9400000F900F900F90F6
:102110000F900F900F90CC59DF4F0FB6F894DEBFA1
:102120000FBECDBFDF91CF911F910F910895CF9238
:10213000DF92EF92FF920F931F93CF93DF937C0177
:10214000D62FC72F6A0197FD07C081E09701240FA2
:10215000351F243833400CF080E061E070E00E94CD
:1021600064100D2F1C2FC0E0D0E0CC15DD0554F419
:10217000F80161918F01CE018E0D9F1D0E94F728FD
:102180002196F3CFDF91CF911F910F91FF90EF90A8
:10219000DF90CF900895CF93DF9300D0CDB7DEB717
:1021A0007A83698342E050E0BE016F5F7F4F0E94F7
:1021B00097100F900F90DF91CF910895CF92DF92FB
:1021C000EF92FF920F931F93CF93DF93EC017B016C
:1021D0006A0197FD07C081E09E01240F351F243856
:1021E00033400CF080E060E070E00E9464108701F2
:1021F000CE19DF09C8018E199F098C159D054CF475
:10220000CE01800F911F0E94EF28F80181938F016A
:10221000F1CFDF91CF911F910F91FF90EF90DF9061
:10222000CF900895CF93DF931F92CDB7DEB741E0F3
:1022300050E0BE016F5F7F4F80E290E00E94DE10B1
:102240008981843014F083E002C087FD80E00F9024
:10225000DF91CF910895CF93DF9300D0CDB7DEB754
:1022600042E050E0BE016F5F7F4F0E94DE10898127
:102270009A810F900F90DF91CF910895CF93DF93C4
:1022800000D0CDB7DEB742E050E0BE016F5F7F4FB8
:102290000E94DE1089819A810F900F90DF91CF917B
:1022A0000895EF92FF920F931F93CF93DF931F92A6
:1022B000CDB7DEB7082F0E94BE1E098341E050E073
:1022C000BE016F5F7F4F80E290E00E949710000F89
:1022D000110BC80188509F4F0E942B1121EFE22E55
:1022E00021E0F22EF70191838083C8018C5F9E4F1D
:1022F0000E943E11F70193838283C801845F9D4F42
:102300000E942B11F701958384830F90DF91CF9169
:102310001F910F91FF90EF9008954F925F926F92EF
:102320007F928F929F92AF92BF92CF92DF92EF9265
:10233000FF920F931F93CF93DF93CDB7DEB7CA57AA
:10234000D1090FB6F894DEBF0FBECDBFE0917D0579
:102350004E2FEE0F550B660B770BFA01E154F10986
:10236000E833F10508F04DC3E956FF4F0C94E82B14
:10237000833091050CF49DC2029720917F06309125
:102380008006AC01420F531F413851052CF085E8FF
:1023900091E00E94B90E17C0AFE7B5E023503A4F65
:1023A000F9014D914193AF01421B530B4817590757
:1023B000C4F320917F0630918006820F931F909383
:1023C000800680937F068CE891E00E94B90E1DC3C1
:1023D0008FEA91E09F938F931F9286E78F9384E912
:1023E00091E0DEC260E070E082E723C0FE0131963A
:1023F00086E0DF011D928A95E9F781E0898341E05B
:102400000AC0FE01319686E0DF011D928A95E9F748
:1024100083E0898343E05A816B817C818D819E8139
:102420000E948C0FF2C20E941211682F880F770B46
:1024300081E70E94F70EE9C20E94C3208C010E942E
:102440001211282F880F330B0217130719F0802F52
:102450000E94511181E5D2C20E941211B4E08B0298
:10246000C001112444E050E08E010F5F1F4FB801FE
:1024700080589F4F0E94DE1089819A812B813C8178
:102480003F932F939F938F931F9289E68F9384EBB3
:1024900091E09F938F931F930F930E94802D89C289
:1024A000CE0101969F938F9387EB91E09F938F933B
:1024B0008FE795E09F938F930E94A32DC980DA80C8
:1024C000EB80FC800E941211A996CCAEDDAEEEAE80
:1024D000FFAEA997F4E08F02C001112444E050E060
:1024E000BE016B597F4F80589F4F0E94971089E41F
:1024F00069C10E9412112AE28202C00111247C01EA
:1025000030EFE31A3EEFF30A81E09BE5E91693E032
:10251000F90608F080E060E070E00E946410DE01DF
:1025200011966D0100E010E05D01C701800F911F61
:102530000E94EF28F60181936F01882329F00F5F35
:102540001F4F0932110589F7F501E00FF11F1082C5
:10255000B5018EE608C20E941211FAE28F02C00194
:1025600011246FE775E0805F9E4F0E9441208EE44A
:1025700045C280E390E00E943E11BC0183E659CF42
:102580000E94A3208C01BC0180E390E00E94CB104C
:1025900060E0C8010E94FA0F83E430C2FE01319668
:1025A00086E0DF011D928A95E9F78DE089834DE091
:1025B00032CF86E290E00E943E1161E070E0892B0C
:1025C00011F460E070E084E734CFCE0101969F9370
:1025D0008F9385EA91E09F938F938FE795E09F9388
:1025E0008F930E94A32D61E070E089819A81892BED
:1025F00011F460E070E086E290E00E94CB1084E588
:10260000E1C08091F2018F938091F1018F931F922D
:102610008DE6C3C10E94A3209093F2018093F10143
:10262000FE01319686E0DF011D928A95E9F787E089
:1026300089830E94A320582F8A839B834981692F15
:102640007C818D819E810E948C0F8DE4D7C1809109
:10265000F3019091F4010E947D1E97FD0396BC0149
:10266000759567957595679581E6E3CE0E94C320C1
:10267000880F991F880F991F0E949E1E9093F40146
:102680008093F301FE01319686E0DF011D928A9569
:10269000E9F78BE089830E94C320582F8A839B83AC
:1026A0004981692F7C818D819E810E948C0F81E4FC
:1026B000A5C185E7A3C18E010F5F1F4F86E0F8011A
:1026C00011928A95E9F78BE089838091F3019091CB
:1026D000F40197FD03969595879595958795582FC5
:1026E0009B838A8349816B817C818D819E810E943D
:1026F0008C0F36E0F32ED801EF2D1D92EA95E9F705
:1027000087E089838091F1019091F201582F8A83AB
:102710009B8347E0692F7C818D819E810E948C0F75
:10272000D8011D92FA94E9F785E289838091F50139
:102730009091F601582F8A839B8345E2692F7C8113
:102740008D819E810E948C0F80E390E00E943E115B
:1027500060E00E94FA0F88E751C1FE01319686E0E1
:10276000DF011D928A95E9F786E1898346E153CE20
:10277000FE01319686E0DF011D928A95E9F787E137
:1027800089838E010B591F4F1F930F938EE691E0A3
:102790009F938F938FE795E09F938F930E94A32D34
:1027A000F8018081318122819381582F8A833B8374
:1027B0002C839D834981632F722F892F9E810E94D4
:1027C0008C0F8FE40E945B0F0F900F900F900F9073
:1027D0000F900F901AC10E94C32003E813E0081B5A
:1027E000190B0131110514F000E110E017FF02C0D0
:1027F00000E010E06E01F5E6CF0ED11CA801B60195
:102800000E94DE1019829E012F5F3F4F7901560111
:10281000B90191EC892E91E0992EC5018C199D0981
:10282000801791070CF5D5018D915D011F928F9353
:102830009F928F92FF92EF92EA966FAFEA97EB9694
:102840007FAFEB970E94802DB2E0EB0EF11C0F9052
:102850000F900F900F900F900F90EB967FADEB972E
:10286000EA966FADEA97D9CF87E67DC00E94C32074
:102870004C018E010F5F1F4F1F930F937E01E6E700
:10288000EE0EF11CFF92EF9286EC91E09F938F93F6
:102890008DE795E09F938F930E94A32DD7018D9193
:1028A0009C910FB6F894DEBF0FBECDBF813191056C
:1028B0001CF088EA91E0A7C01816190684F56E018D
:1028C000F5E6CF0ED11C26015E0128E7A20EB11C51
:1028D00086ED682E81E0782ED7014D915C91C20182
:1028E0008C199D0984179507B4F4BF92AF927F921B
:1028F0006F921F930F930E94A32DD5018C91F2012B
:1029000081932F010E5F1F4F0F900F900F900F902C
:102910000F900F90E1CFB601C4010E94971087E499
:102920006DC0F894469A0C9400006FC08E010F5F42
:102930001F4FB801D8018C918823A1F084E893E05F
:10294000EA966FAFEA97EB967FAFEB970E94EF287E
:10295000F80181938F01EA966FADEA97EB967FAD10
:10296000EB97E8CF82E60E94290F4FC019821A82A6
:102970001B821C8244E050E0BE016F5F7F4F80E00D
:1029800090E00E94971089E539C08091F6018F93FD
:102990008091F5018F931F9286E68F938BEB91E0E8
:1029A0009F938F938E010F5F1F4F1F930F930E9472
:1029B000802DC8010E94F10E0FB6F894DEBF0FBE45
:1029C000CDBF23C00E94A3209093F6018093F50110
:1029D000FE01319686E0DF011D928A95E9F785E2D6
:1029E00089830E94A320582F8A839B834981692F62
:1029F0007C818D819E810E948C0F86E40E945B0FFA
:102A000004C08DED91E00E94F10EC658DF4F0FB665
:102A1000F894DEBF0FBECDBFDF91CF911F910F9114
:102A2000FF90EF90DF90CF90BF90AF909F908F90EE
:102A30007F906F905F904F9008950F931F93CF9367
:102A4000DF93CDB7DEB7C456D1090FB6F894DEBF19
:102A50000FBECDBFF8942D9A589A7F936F939F9392
:102A60008F9384EE91E09F938F938E010F5F1F4FA2
:102A70001F930F930E94802DC8010E94E30E0C94B7
:102A800000000FB6F894DEBF0FBECDBFCC59DF4FAC
:102A90000FB6F894DEBF0FBECDBFDF91CF911F916F
:102AA0000F9108958091C204823030F4F89487EB3E
:102AB00094E00E946E0B01C0F8946091BE04709186
:102AC000BF048091C0049091C1047894089540910E
:102AD0006C0550916D0520916A0530916B05421788
:102AE0005307B4F49091E8009570E1F39091E800F9
:102AF00092FD19C08093F10080916C0590916D0555
:102B000001968F739927892B19F48EEF8093E80033
:102B100080916C0590916D05019690936D05809361
:102B20006C0581E0089580E00895DF92EF92FF92B6
:102B30000F931F93CF93DF93D82E8A017B01E40E6E
:102B4000F51EEB01CE15DF0571F0D7FE03C0FE01C7
:102B5000849101C088810E94671521968111F2CF6E
:102B60008FEF9FEF01C0C801DF91CF911F910F91AF
:102B7000FF90EF90DF900895615030F02091F100C8
:102B8000FC0120830196F8CF289884E680937B058A
:102B90000895CF92DF92EF92FF920F931F93CF93FE
:102BA000DF936C017A018B01C0E0D0E0CE15DF0528
:102BB00089F0D8016D918D01D601ED91FC910190C4
:102BC000F081E02DC6010995892B11F47E0102C028
:102BD0002196ECCFC701DF91CF911F910F91FF900C
:102BE000EF90DF90CF900895CF93DF931F92CDB7F2
:102BF000DEB76983DC01ED91FC910280F381E02D69
:102C000041E050E0BE016F5F7F4F09950F90DF916B
:102C1000CF91089583E08093E9008091F2008823AA
:102C200019F08AE38093E8000895FC018485958576
:102C300097FD0BC09FB7F89482E08093E9008091E4
:102C4000F2009FBF90E0019608959FB7F89482E04C
:102C50008093E9008091F2009FBF90E0089508956D
:102C600080E090E008950F931F93CF93DF931F921E
:102C7000CDB7DEB782E0898342E450E068EC73E0D0
:102C800080E80E9495150E943821DC0112960D9172
:102C90001C9113970115110569F0D801ED91FC9174
:102CA0000280F381E02DBE016F5F7F4FC80109955F
:102CB00097FF07C089810F90DF91CF911F910F91EE
:102CC0000895F80100851185E5CF8F929F92AF920C
:102CD000BF92CF92DF92EF92FF920F931F93CF9309
:102CE000DF936C015B017A0180911901882309F45B
:102CF00056C080917C05882309F451C08091EF0172
:102D000080FF05C08091E00082608093E000E701D1
:102D100010E00AEF83E0882E9AE3992E2097B1F114
:102D20000E942721811105C00150C9F10E940D2187
:102D3000F5CF282F30E0C217D3070CF48C2F4FB7F4
:102D4000F8948092E9009091E80095FF1DC0282F2B
:102D500030E0C21BD30BF501982F915020F08191E8
:102D60008093F100FACFA20EB31E112319F09092B6
:102D7000E80009C08091E80085FD06C09092E80057
:102D800011E0209709F010E04FBFC8CF1111C8CF54
:102D90005D9884E680936E051E141F0444F081E064
:102DA00090E0F6019383828380E090E001C0C70148
:102DB000DF91CF911F910F91FF90EF90DF90CF9017
:102DC000BF90AF909F908F9008950E94272190E030
:102DD00008950F931F93CF93DF931F92CDB7DEB764
:102DE0008C01FC018485958597FF0EC0CE0101966C
:102DF0000E94E320019719F4298130E002C02FEFEF
:102E00003FEFF80135872487F801848595850F9079
:102E1000DF91CF911F910F910895CF93DF931F9270
:102E2000CDB7DEB7FC018485958597FD05C02FEFF2
:102E30003FEF358724870BC0CE0101960E94E32027
:102E4000019719F4898190E002C08FEF9FEF0F90F6
:102E5000DF91CF9108951F920F920FB60F92112418
:102E60008F939F938091E1009091E100937F9093E5
:102E7000E10083FF0FC01092E90091E09093EB0016
:102E80001092EC0092E39093ED0010927C0598E094
:102E90009093F00082FF20C093E09093E90090911E
:102EA000F200992319F09AE39093E80090916E054F
:102EB000992339F090916E05915090936E05992366
:102EC00089F190917B05992339F090917B05915080
:102ED00090937B05992341F184FF10C08091E2001B
:102EE0008E7E81608093E2008091E1008F7E8093EE
:102EF000E1008091EF018E7E806111C080FF16C0DD
:102F00008091E2008E7E80618093E2008091E100FA
:102F10008E7E8093E1008091EF018E7E81608093B0
:102F2000EF0104C05D9ACDCF289AD6CF9F918F91A3
:102F30000F900FBE0F901F9018951F920F920FB613
:102F40000F921124CF92DF92EF92FF920F931F9373
:102F50002F933F934F935F936F937F938F939F93A1
:102F6000AF93BF93EF93FF93CF93DF93CDB7DEB7CC
:102F70006C97DEBFCDBF1092E9008091E80083FF1F
:102F8000EDC168E0CE0145960E94BC1582EF8093AA
:102F9000E8008D8987FF05C09091E80090FFFCCF85
:102FA00003C09EEF9093E800982F907609F0C6C07A
:102FB0009E892F89188D91110CC0803829F4809139
:102FC000F0018093F10002C01092F1001092F10024
:102FD00048C1422F50E0512B913051F4811141C131
:102FE0004130510509F03DC18091F0018D7F0BC04A
:102FF000933061F4811135C14130510509F031C17F
:103000008091F00182608093F0012BC1953041F4F2
:103010008091E80080FFFCCF20682093E30021C16D
:10302000963009F05FC0EB8CFC8C1092E900109296
:103030006D0510926C05123091F510926B0510928F
:103040006A050E94331699E0BE016F5F7F4FDB0176
:10305000E92F1D92EA95E9F799831A8391E09E83FF
:1030600090EA98879AEF998720916C0530916D05C9
:10307000275F3F4F3C832B838D831092E900109292
:103080006D0510926C05F0926B05E0926A0549E0BF
:1030900050E080E00E9495150E943316E2C0F09245
:1030A0006B05E0926A050E943821DC011296ED90D2
:1030B000FC901397E114F10409F4C0C0D701ED911D
:1030C000FC910480F581E02DBE016B5E7F4FC7014E
:1030D0000995009719F00CF0C4C0C7C0F701E0844F
:1030E000F184E8CF973009F4C0C0983021F481E032
:1030F0008093F100B6C0993009F0B3C0837009F035
:10310000B4C0E5E6F1E081E021E036E39081992367
:1031100061F08093E9002093EB0091919093EC0093
:103120003093ED008F5F873089F78EE78093EA0058
:103130001092EA008F8980937C0593C08B8D9C8DC3
:103140001092E90010926D0510926C0590936B053A
:1031500080936A05898D811156C08E899D89913A27
:1031600059F4813209F081C047E050E062E171E03A
:1031700080E00E94951575C0913209F076C08332C7
:1031800089F4888D90E0982F88272F89822BA0E0E2
:10319000B0E080930E0190930F01A0931001B093C3
:1031A00011015FC0803269F48091E80082FFFCCF9A
:1031B00067E082E191E00E94BC158BEF8093E8000C
:1031C00006C0823209F04DC08F8980931901809129
:1031D000EE01882319F0EEEFFAE002C0E0E0F8E03B
:1031E0008091120190911301A0911401B0911501E9
:1031F000803B9440A105B10509F07BC08091190185
:1032000080FF93C076C00E943821DC0112960D9198
:103210001C9113970115110541F1D801ED91FC9115
:103220000190F081E02DBE016B5E7F4FC8010995D2
:10323000811117C0F80100851185ECCF113009F418
:103240004EC0133091F48F89882309F445C0823031
:1032500081F440E860E18CE294E00E94B228882387
:1032600021F08EEF8093E80079C081E28093EB003B
:1032700075C0813029F440E86BE080E294E0EDCF46
:10328000833099F70E943821DC011296ED90FC9072
:1032900013978E010F5F1F4F6801E114F10479F05D
:1032A000D701ED91FC910680F781E02DB801C701AF
:1032B0000995080F111DF701E084F184EECFD801C4
:1032C0001C92F60101900020E9F73197BF016C19BB
:1032D0007D0940E0C601C1CF6AE074E002C06EE043
:1032E00074E06115710509F2FB01449150E080E83A
:1032F00040CF0FB6F894A8958091600088618093C4
:103300006000109260000FBEA895EE3F2AE0F20721
:1033100039F08091FE0A9091FF0A91838083A1CFBA
:103320001092FF0A1092FE0A9CCFEE3F8AE0F80747
:1033300031F0808191819093FF0A8093FE0A87E7A4
:1033400097E7918380839BE088E10FB6F894A89576
:10335000809360000FBE9093600083CF6C960FB691
:10336000F894DEBF0FBECDBFDF91CF91FF91EF91FB
:10337000BF91AF919F918F917F916F915F914F918D
:103380003F912F911F910F91FF90EF90DF90CF9081
:103390000F900FBE0F901F901895089508956EBD61
:1033A00000000DB407FEFDCF8EB5089581E00895AD
:1033B0000C94DB2C362F90E0FC01E552FB4F44913E
:1033C000FC01E758FC4F2491FC01EA55FC4F849125
:1033D000882309F451C04423E1F150E0FA01319708
:1033E000EF30F105B0F5E153FF4F0C94E82B9091CD
:1033F00080009F7707C0909180009F7D03C09091CF
:103400008000977F9093800024C094B59F7702C07E
:1034100094B59F7D94BD1DC0909190009F7707C08B
:10342000909190009F7D03C090919000977F909322
:1034300090000FC09091C0009F7703C09091C00092
:103440009F7D9093C00005C09091C200977F90939C
:10345000C200E82FF0E0EE0FFF1FE353FB4FA591F2
:10346000B4918FB7F894EC91311103C020952E23BD
:1034700001C02E2B2C938FBF0895CF93DF9390E044
:10348000FC01E758FC4F2491FC01EA55FC4F849164
:10349000882361F190E0880F991FFC01E154FB4FF4
:1034A000C591D491FC01E353FB4FA591B4916111F7
:1034B00009C09FB7F8948881209582238883EC9176
:1034C0002E230BC0623061F49FB7F8943881822FAD
:1034D000809583238883EC912E2B2C939FBF06C06D
:1034E0008FB7F894E8812E2B28838FBFDF91CF917F
:1034F0000895CF93CFB7F89480917505811127C0B7
:10350000E7EBF3E08491EAE8F3E09491E82FF0E050
:10351000EE0FFF1FE154FB4FA591B491EC91E9230D
:1035200021F461E081E10E94DA1961E081E10E9409
:103530003D1A8CB580618CBD8CB580648CBD61E01A
:103540008FE00E943D1A61E080E10E943D1A809167
:1035500075058F5F80937505CFBF8CB5837F8CBD5C
:103560008CB58C7F81608CBD8DB58E7F8DBDCF91EC
:1035700008951F93CF93DF93182FEB0161E00E9412
:103580003D1A209711F460E004C0CF3FD10539F413
:1035900061E0812FDF91CF911F910C94DA19E12F17
:1035A000F0E0E552FB4FE4914E2F50E0FA013197E5
:1035B000EF30F10508F06CC0E252FF4F0C94E82B9D
:1035C00084B5806884BDC7BD68C084B5806284BD91
:1035D000C8BD63C080918000806880938000D093D4
:1035E0008900C093880059C08091800080628093D8
:1035F0008000D0938B00C0938A004FC080918000E0
:10360000886080938000D0938D00C0938C0045C06B
:1036100080919000806880939000D0939900C0932F
:1036200098003BC080919000806280939000D0937E
:103630009B00C0939A0031C0809190008860809375
:103640009000D0939D00C0939C0027C08091C00043
:1036500080688093C0008091C0008F7B8093C00001
:10366000C093CF001AC08091C00080628093C000D8
:10367000C093D00012C08091C20088608093C200C5
:103680008091C2008B7F8093C200C093D20005C09E
:10369000C038D1050CF07CCF76CFDF91CF911F9150
:1036A00008953FB7F8948091770590917805A0919F
:1036B0007905B0917A0526B5A89B05C02F3F19F072
:1036C0000196A11DB11D3FBFBA2FA92F982F8827A2
:1036D000820F911DA11DB11DBC01CD0142E0660FFD
:1036E000771F881F991F4A95D1F708951F920F924F
:1036F0000FB60F9211242F933F938F939F93AF9305
:10370000BF938091710590917205A0917305B0915E
:1037100074053091760523E0230F2D3720F40196B0
:10372000A11DB11D05C026E8230F0296A11DB11DE4
:10373000209376058093710590937205A09373058D
:10374000B09374058091770590917805A0917905E3
:10375000B0917A050196A11DB11D809377059093D4
:103760007805A0937905B0937A05BF91AF919F91A9
:103770008F913F912F910F900FBE0F901F90189532
:103780001F920F920FB60F9211242F933F934F93D6
:103790005F936F937F938F939F93AF93BF93EF93B9
:1037A000FF93E0910C01F0910D010995FF91EF91CC
:1037B000BF91AF919F918F917F916F915F914F9149
:1037C0003F912F910F900FBE0F901F9018951F9251
:1037D0000F920FB60F9211242F933F934F935F9345
:1037E0006F937F938F939F93AF93BF93EF93FF93C9
:1037F000E0910A01F0910B010995FF91EF91BF91C2
:10380000AF919F918F917F916F915F914F913F9178
:103810002F910F900FBE0F901F9018951F920F922F
:103820000FB60F9211242F933F934F935F936F9393
:103830007F938F939F93AF93BF93EF93FF93E09109
:103840000801F09109010995FF91EF91BF91AF91A6
:103850009F918F917F916F915F914F913F912F91A8
:103860000F900FBE0F901F9018951F920F920FB6DA
:103870000F9211242F933F934F935F936F937F93F6
:103880008F939F93AF93BF93EF93FF93E0910601C4
:10389000F09107010995FF91EF91BF91AF919F9131
:1038A0008F917F916F915F914F913F912F910F90E9
:1038B0000FBE0F901F9018951F920F920FB60F9288
:1038C00011242F933F934F935F936F937F938F9325
:1038D0009F93AF93BF93EF93FF93E0910401F09117
:1038E00005010995FF91EF91BF91AF919F918F9144
:1038F0007F916F915F914F913F912F910F900FBEEC
:103900000F901F901895EF92FF920F931F93CF93F4
:10391000FC018FB7F8949381923020F091509383FB
:103920008FBF4EC08F01E281CFEFCE0F8FBF80914E
:103930001502C81730F06DEA74E085EC93E00E9440
:103940001D15EC2EF12C8AE0C89FF0011124E950DE
:10395000FE4F90858781981730F065EE76E085EC14
:1039600093E00E941D158AE08E9DF0018F9DF00D61
:103970001124E950FE4F808191810817190728F022
:10398000828193818017910730F466EE76E085ECB2
:1039900093E00E941D159FB7F8948AE08E9DF00178
:1039A0008F9DF00D1124E950FE4F24813581D801FF
:1039B0002D933C931583048380858F5F80879FBF01
:1039C000CF911F910F91FF90EF9008952FB7F8942A
:1039D000FC0140855185452B21F01186108681E040
:1039E00001C080E02FBF0895EF92FF920F931F93C5
:1039F000CF93DF93EC018B017A01452B51F0672BBC
:103A000041F088859985892B21F4888199810497D3
:103A100034F46DE077E085EC93E00E941D158FB7DC
:103A2000F894F986E8861F830E839B8191110CC060
:103A300020916F05309170053D832C83D0937005E4
:103A4000C0936F0591E09B838FBFDF91CF911F9152
:103A50000F91FF90EF900895CF92DF92EF92FF9237
:103A60000F931F93CF93DF93D82F8B01C0E08AE091
:103A7000E82ECC2ED12CEC9CF001ED9CF00D112405
:103A8000E950FE4F9681FF24F394FC0E9D1760F4DD
:103A9000CF2D80911502F81660F36DE275E085EC8C
:103AA00093E00E941D15E5CFEFB6F894C481D5814F
:103AB0002097E1F0888199819583848380858111A5
:103AC00006C06CE776E085EC93E00E941D158AE065
:103AD0008C9DF0018D9DF00D1124E950FE4F8085E5
:103AE000815080879185891708F48187EFBE2097E0
:103AF00031F469E375E085EC93E00E941D151983AC
:103B00000883FA821B82CE01DF91CF911F910F9122
:103B1000FF90EF90DF90CF9008950F931F93CF9376
:103B2000DF93DC018B011F969C911F97C92FD0E07A
:103B300064307105A4F020911602309117026217CB
:103B400073076CF49150983050F4FE01EE0FFF1F94
:103B5000E951FC4F808191818A179B0731F065E420
:103B600073E085EC93E00E941D15FE01E258FB4FC7
:103B700084919FB7F894FE01E35CFB4FC491A09140
:103B80001802B09119020A0F1B1FD801A80FB11D0E
:103B9000EC91EC2BEC939FBFDF91CF911F910F9194
:103BA0000895FF920F931F93CF93DF93EC01FB01D6
:103BB000FFB6F8948281882319F083818F5F838315
:103BC0008E819F81892B69F4FF83EE83EF85F0E07E
:103BD000E35CFB4FE4918091F903E82BE093F90358
:103BE00024C08F018D85811106C061EB72E085ECE8
:103BF00093E00E941D158B8528859985E22FF92F6A
:103C0000E80FF11DE80FF11D118300838B858111F1
:103C100002C08A858B878B8581508B878D858150EB
:103C20008D879E85891708F48E87FFBEDF91CF911F
:103C30001F910F91FF900895FF920F931F93CF93C1
:103C4000DF938C01DC012D913C91809116029091C3
:103C500017022817390734F06DE775E085EC93E01B
:103C60000E941D159FB7F894F8018281882319F0EE
:103C700083818F5F83839FBFE0911802F0911902C7
:103C8000D8018D919C91E80FF91FF080FF2011F170
:103C9000EF2DF0E0E758FD4FC491D0E0FE01E85C65
:103CA000FD4FE491FE22CC0FDD1FFE01E951FC4FD8
:103CB00080819181892B31F464E975E085EC93E092
:103CC0000E941D15C951DC4FB801888199810E945D
:103CD000D11DDCCFF8018281882341F0C801DF913A
:103CE000CF911F910F91FF900C94831CDF91CF9186
:103CF0001F910F91FF90089508959C0197FF02C0B6
:103D00002D5F3F4F35952795359527952031310506
:103D1000A4F0203431052CF497FD019695958795F4
:103D20000895203C310544F097FD079623E09595D2
:103D300087952A95E1F70895C90108959C0197FF99
:103D400002C02D5F3F4F3595279535952795293032
:103D500031059CF0213131051CF4880F991F08951D
:103D6000293131052CF4880F991F880F991F089568
:103D700023E0880F991F2A95E1F708956F927F92AB
:103D80008F929F92AF92BF92CF92DF92EF92FF926B
:103D90000F931F93CF93DF9300D000D0CDB7DEB742
:103DA000C090F101D090F201E090F301F090F401A5
:103DB0000091F5011091F6010E941211880F990BE4
:103DC00088509F4F0E942B113C010E941211880FB6
:103DD000990B8C5F9E4F0E943E114C010E94121164
:103DE000880F990B845F9D4F0E942B115C016C140E
:103DF0007D0479F00E941211DC82CB82880F990B2E
:103E000042E050E0BE016D5F7F4F88509F4F0E949F
:103E100097108E149F0449F00E941211880F990B7D
:103E2000B7018C5F9E4F0E94CB10A016B10679F0AF
:103E30000E9412111A830983880F990B42E050E007
:103E4000BE016F5F7F4F845F9D4F0E9497100F9060
:103E50000F900F900F90DF91CF911F910F91FF90D6
:103E6000EF90DF90CF90BF90AF909F908F907F901A
:103E70006F90089561E08091AA040C94DA1960E0D3
:103E80008091AA040C94DA190F931F93CF93DF93B8
:103E9000C82FD62F0E943F1F08EA14E0D8011596BC
:103EA0008D919C911697DC01ED91FC91CF716C2F57
:103EB00060620190F081E02D0995F801858196817D
:103EC000DC01ED91FC910190F081E02D6D2F0995C1
:103ED000DF91CF911F910F910C943A1F60E0809178
:103EE000A9040C94DA19CF93DF93C8EAD4E01882BE
:103EF0000E946E1F6BE080E00E94441F61E0898198
:103F00000E94DA1960E387E0DF91CF910C94441F9F
:103F10000F931F93CF93DF93162F082FEC018C2F55
:103F2000801B811768F48091AD049091AE04699173
:103F3000DC01ED91FC910190F081E02D0995EFCF2E
:103F4000DF91CF911F910F910895FF920F931F93CF
:103F5000CF93DF931F92CDB7DEB7F82E8B01498345
:103F60000E943F1F8091AD049091AE04DC01ED9161
:103F7000FC916F2D6F7160620190F081E02D0995C9
:103F80004981642FC8010E94881F0F90DF91CF9153
:103F90001F910F91FF900C943A1FCF92DF92FF92E6
:103FA0000F931F93CF93DF931F92CDB7DEB7F82EF9
:103FB0008B016C018C2D8F198417A0F48091AD04B6
:103FC0009091AE04D6016D916D01DC01ED91FC91F3
:103FD0000190F081E02D49830995F80181938F01CB
:103FE0004981E8CF0F90DF91CF911F910F91FF9002
:103FF000DF90CF900895FF920F931F93CF93DF939D
:104000001F92CDB7DEB7F82E8B0149830E943F1F68
:104010008091AD049091AE04DC01ED91FC916F2D87
:104020006F710190F081E02D09954981B801C801B7
:104030000E94CD1F0F90DF91CF911F910F91FF90A4
:104040000C943A1FCF93DF931F92CDB7DEB741E0B8
:10405000BE016F5F7F4F87E00E94FB1F89810F9039
:10406000DF91CF9108958091A804882331F00E94B8
:104070002220807321F00E94731F80E0089581E068
:104080000895CF92DF92EF92FF920F931F93CF93F9
:10409000DF937C01D62FC72F97FD06C081E09BE5FB
:1040A000E91693E0F9060CF080E061E070E00E9410
:1040B00064100D2F1C2FC0E0D0E06801F801619161
:1040C0008F01CE018E0D9F1D0E94F728F601808181
:1040D000882321F02196C932D10579F760E0C70124
:1040E0008C0F9D1FDF91CF911F910F91FF90EF904B
:1040F000DF90CF900C94F728EAEFF4E0E491209160
:104100007B00E3FB882780F990E035E0880F991F5A
:104110003A95E1F7922F9F7D892B80937B00E77082
:10412000E064E0937C0080917A00806480937A0060
:1041300080917A0086FDFCCF8091780020917900F3
:1041400090E0922B0895CF93DF9300D0CDB7DEB7E8
:10415000CE0101969F938F938EEB91E09F938F9367
:104160008FE795E09F938F930E94A32D0F900F9060
:104170000F900F900F900F9089819A810F900F9060
:10418000DF91CF910895CF93DF9300D0CDB7DEB705
:10419000CE0101969F938F9385EA91E09F938F9331
:1041A0008FE795E09F938F930E94A32D0F900F9020
:1041B0000F900F900F900F9089819A810F900F9020
:1041C000DF91CF910895FC0180917C05811103C09E
:1041D0008FEF9FEF08959FB7F89482E08093E900F6
:1041E0002091F20030E01216130614F421E030E0C2
:1041F0002115310559F0289884E680937B0580913C
:10420000F10080838091F200882319F09FBFC901DB
:1042100008958BE68093E800F9CFCF92DF92EF927A
:10422000FF920E94511B6B017C010E94511BDC011B
:10423000CB018C199D09AE09BF09883E9340A105A9
:10424000B10598F3FF90EF90DF90CF9008952FB7CE
:10425000F89483E08093E9009091E800892F8072C0
:1042600095FF04C09091F20080E4891B2FBF089550
:104270008091850681110DC082E08093810684E0E3
:1042800080938206109284061092830681E08093C8
:10429000850681E896E008950895CF93DF93CDB722
:1042A000DEB76A970FB6F894DEBF0FBECDBF789425
:1042B00084B5826084BD84B5816084BD85B582602B
:1042C00085BD85B5816085BD80916E0081608093DC
:1042D0006E00109281008091810082608093810045
:1042E0008091810081608093810080918000816055
:1042F00080938000809191008260809391008091F2
:104300009100816080939100809190008160809302
:1043100090008091C10084608093C1008091C100B1
:1043200082608093C1008091C10081608093C10050
:104330008091C30081608093C3008091C00082603F
:104340008093C0008091C20081608093C200809100
:104350007A00846080937A0080917A0082608093F2
:104360007A0080917A00816080937A0080917A004F
:10437000806880937A0010927C051092F001109270
:10438000EF018091D70081608093D70080EA80930D
:10439000D80089B5806189BD89B5826089BD09B4BD
:1043A00000FEFDCF0E940D218091D8008F7C80619E
:1043B0008093D8008091E000807F8093E00080911E
:1043C000E1008E7E8093E1008DE08093E200559ABB
:1043D000209AEEEFFFE7859194918B3F9C4D19F465
:1043E00081E08093EE0160E084E00E943D1A60E08D
:1043F0008CE00E943D1A60E087E10E943D1A60E077
:1044000083E10E943D1A60E084E10E943D1A60E071
:1044100085E10E943D1A60E086E10E943D1A61E05C
:1044200083E00E943D1A61E085E00E943D1A61E050
:1044300086E00E943D1A61E089E00E943D1A61E039
:1044400080E00E943D1A61E08BE00E943D1A61E02D
:104450008AE00E943D1A8FEF9FEF9093650480934E
:10446000640444E050E0CE0101965C01BC0180E0B0
:1044700090E00E94DE1089819A81AB81BC818B3FE4
:104480009A4FA105B10509F49BC040E1E42EFF2439
:10449000F39450E8C52ED12C6EEC462E6AEF562EC2
:1044A000612C712C08EF10E0812C70E4972E988E0F
:1044B0008F8A42E050E0BE01695E7F4FC8010E94D2
:1044C000971060E870E0C8010C960E94CB101E8A1D
:1044D0001D8A42E050E0BE016B5E7F4FC8018C5EDA
:1044E0009E4F0E949710498A5A8A6B8A7C8A44E0C0
:1044F00050E0BE016F5E7F4FC6010E9497106DE8CD
:1045000071E0C7010E9441200E5F1F4FFFEF4F1A5D
:104510005F0A6F0A7F0A24E0C20ED11C8AE2E80E0D
:10452000F11C043091E0190711F660E070E082E2BE
:1045300090E00E94CB1060E273E084E290E00E9481
:10454000CB1060E070E088E290E00E94CB1060E069
:1045500070E08AE290E00E94CB1060E070E08CE2B4
:1045600090E00E94CB1060E070E08EE290E00E944C
:10457000CB1060E070E086E290E00E94CB1061E03A
:1045800070E080E390E00E94CB10198E41E050E093
:10459000BE01675E7F4F80E290E00E9497108BEF34
:1045A0009AEFA0E0B0E08D879E87AF87B88B44E09C
:1045B00050E0BE01635F7F4F80E090E00E94971063
:1045C0000E941211082F000F110BC80188509F4F35
:1045D0000E942B119093F2018093F101C8018C5F2E
:1045E0009E4F0E943E119093F4018093F301C80105
:1045F000845F9D4F0E942B119093F6018093F501EB
:1046000082E091E09093AE048093AD0461E08091EC
:10461000A9040E943D1A61E08091AA040E943D1AFB
:104620000E946E1F0E943A1F8091AD049091AE04CB
:10463000DC01ED91FC910280F381E02D09950E944F
:104640006E1F45E068E771E08BE00E94A51F61E006
:104650008091A9040E94DA1986E08093AC0480E37B
:1046600090E00E943E1161E00E94FA0F61E087E154
:104670000E94DA19479A80911502833030F063E581
:1046800075E085EC93E00E941D158091150288234A
:1046900099F090E001972AE0289FF001299FF00D02
:1046A0001124E950FE4F8681863030F067E575E0D1
:1046B00085EC93E00E941D15E09115020E2F10E08D
:1046C000BAE0EB9FF0011124E950FE4F89E194E03C
:1046D0009583848382E08683C12CD12C7601C39498
:1046E00036968081863040F48E5F80832FEFC21A29
:1046F000D20AE20AF20AF5CF8D3330F067EB76E0AA
:1047000085EC93E00E941D158AE0809FF001819F57
:10471000F00D1124E950FE4F86814CE350E060E03B
:1047200070E0481B51096109710981E08783848029
:104730009580CC0CDD1C9F012A5F3F4F8F01095FE4
:104740001F4F8AE0D9014C90512C612C712C4415DB
:1047500055056605770598F08C0C9D1CC4018C19D5
:104760009D09DC018D929C92D9018C91481B5109C5
:1047700061097109D8018C918F5F8C93E2CFD401CC
:104780001D921C9297819087918729E134E03183B3
:10479000208393828282909115029F5F90931502ED
:1047A0002EE034E030931902209318022BE030E021
:1047B00030931702209316021092CA041092C90473
:1047C0002AEF33E03093CC042093CB048093CD04C4
:1047D0001092CE041092CF048093D0048093D10421
:1047E00081E08093D2048091E9039091EA03892BC0
:1047F00031F063E674E085EC93E00E941D158FB7FD
:10480000F89423EC34E03093EA032093E9038FBF5C
:10481000E090C504F090C6048091C7049091C8044C
:10482000892B29F0B6EDEB16B9E1FB0631F061E911
:1048300070E085EC93E00E941D15E091C704F091B3
:10484000C80460E070E083EC94E00995823031F0B8
:1048500064E970E085EC93E00E941D15E091C704C7
:10486000F091C804FA83E9836AE271E083EC94E092
:10487000099510E0E091C704F091C804EE15FF051A
:1048800071F01F5FA12FAA0FBB0BAA0DBB1DED93EB
:10489000FC936AE271E083EC94E00995EBCF8981A7
:1048A0009A819093C8048093C704163034F06AEA62
:1048B00070E085EC93E00E941D15E12FEE0FFF0BD9
:1048C000EA0DFB1D0190F081E02D6EE271E083ECBA
:1048D00094E00995115017FFF0CFE980FA8066E364
:1048E00071E083EC94E0F7010995823009F4B6CFCA
:1048F000F092C604E092C504F092C804E092C704A6
:1049000082E08093C00087E08093C10080E48093C0
:1049100072001092BF001092BE008CE38093CF0013
:10492000F894E091F903EE2309F4BBC1F0E0E758F5
:10493000FD4FE491AE2FB0E0AA0FBB1FA951BC4FB1
:104940000D911C91E09357047894FFB6F894D80128
:1049500016968D919C911797892B31F460ED72E03A
:1049600085EC93E00E941D15F8012680378085852F
:1049700022858217D9F0948540853185E42FF32F65
:10498000E90FF11DE90FF11D40815181D801179602
:104990005C934E931697911102C01C962C93F801CC
:1049A0009485915094878F5F85870CC017821682FB
:1049B000E785F0E0E85CFD4FE4918091F903E8239E
:1049C000E093F903FFBEF801E280F38084819581D2
:1049D000E816F90631F069EC70E085EC93E00E948E
:1049E0001D15D80114968D909C901597B101C801A2
:1049F000F4010995843029F46AE271E0C801F401F8
:104A00000995833071F3823009F034C1D8011496CE
:104A10006D907C9015977A826982FC82EB82E81413
:104A2000F90491F062E371E0C801F7010995811181
:104A300005C06AE271E0C801F7010995D801149632
:104A4000ED90FC901597EBCFE614F704D1F06AE2F5
:104A500071E0C801F3010995D80114964D905C905E
:104A60001597E414F50491F06AE271E0C801F701CA
:104A70000995D8011496CD90DC901597C414D504EF
:104A800039F462E371E0C801F7010995E12C87C0B0
:104A9000C614D70441F462E371E0C801F701099537
:104AA000EE24EA947CC05C824B826AE271E0C80129
:104AB000F201099520E0FF24F394833049F5EE24B8
:104AC000E394EF0CD8011496ED91FC911597AE2D5F
:104AD000AA0FBB0B81E090E08C0F9D1FA80FB91FA0
:104AE000ED93FC93E815F90551F495E09E157CF4DF
:104AF00065E271E085EC93E00E941D1508C06AE252
:104B000071E0C8012A8F0995FE2C2A8DD6CF21E0AD
:104B1000EF2C211144C0A5E0AF1534F460E371E03F
:104B200085EC93E00E941D1562E371E0C801F40179
:104B30000995EF2CEE2DEE0FFF0B81E090E08C0F2E
:104B40009D1FE80FF91F80819181EA94C816D9064C
:104B500031F1E7FEEFCF62E371E0C801F60109959C
:104B6000811105C06AE271E0C801F6010995D8011A
:104B70001496CD90DC901597EF2CEE2DEE0FFF0BD9
:104B800081E090E08C0F9D1FE80FF91F80819181DB
:104B9000EA94C816D90619F0E7FEEFCFDCCFE7FCA0
:104BA00012C0EE2DEE0FFF0BA1E0B0E0AC0FBD1F69
:104BB000EA0FFB1F0190F081E02D6EE271E0C80169
:104BC0000995EA94ECCFE980FA80F801F582E48255
:104BD00066E371E0C801F7010995823009F04AC027
:104BE000D8011496ED91FC911597FA83E9836AE256
:104BF00071E0C8010995D12CD8011496ED91FC9172
:104C00001597EE15FF0589F0D394AD2DAA0FBB0BB8
:104C100081E090E08C0F9D1FA80FB91FED93FC93CE
:104C20006AE271E0C8010995E7CF89819A811596FA
:104C30009C938E931497B5E0BD1534F467E871E04A
:104C400085EC93E00E941D15ED2DEE0FFF0B81E02A
:104C500090E08C0F9D1FE80FF91F0190F081E02D6F
:104C60006EE271E0C8010995DA94D7FEEDCFE980D4
:104C7000FA80AECFD8011396FC92EE921297159659
:104C8000FC92EE921497F1018281882309F448CEB8
:104C9000C1010E94831C44CE2083109256041092BE
:104CA000550488E594E00E941516181619062CF58F
:104CB00088E594E00E940D17282F80917D06909141
:104CC0007E06AC014F5F5F4F50937E0640937D069A
:104CD000803891054CF4FC01E358FA4F2A30E1F694
:104CE00010820E948D1104C08EE791E00E94F10EA7
:104CF00010927E0610927D06D0CF00917F06109113
:104D000080061092800610927F060115110571F140
:104D10008091550490915604892B41F583E0C82E6B
:104D2000D12CE12CF12CE0915804F0915904B701F9
:104D300063507A4F0280F381E02DA80188E594E06A
:104D40000995E80EF91E081B190B101611064CF0F8
:104D5000EF2861F481E090E090935604809355042D
:104D600005C0F1E0CF1AD108F1F6F2CFD501E6E0A7
:104D70001D92EA95E9F7C5010E94BD0F0E943320FC
:104D8000882311F07894CCCD80919C0390919D0361
:104D900020919A0330919B038217930799F3B6E011
:104DA000B89F8001B99F100D1124065E1D4F01961A
:104DB00060E470E00E94B52B90939D0380939C0368
:104DC00045E062E771E08AE00E94A51F45E062E7E6
:104DD00071E080E10E94A51F0E9422208091A8041A
:104DE000882331F00E9422208073C1F31092A8041E
:104DF0000E946E1FF1E0F093A8046AE080E00E9438
:104E0000441F0E943F1F8091AD049091AE04DC01CD
:104E1000ED91FC910190F081E02D61EE09950E94E9
:104E20003A1F0E943F1F8091AD049091AE04DC01B7
:104E3000ED91FC910190F081E02D60EA099560917F
:104E4000AC04C8010E94881F0E943A1F61E0809153
:104E5000A9040E94DA190E9433208111FCCF92CF5D
:104E6000CF93DF9310925B0410925A0488EE93E084
:104E7000A0E0B0E080935C0490935D04A0935E0496
:104E8000B0935F048EE391E09093590480935804AB
:104E90008FEF9FEF909365048093640488E0809384
:104EA000A90487E08093AA0481E08093AB0480E1A9
:104EB0008093AC041092AE041092AD0462E082E0E4
:104EC0000E943D1A62E081E00E943D1AE8EAF3E0A8
:104ED000E491F0E0EE0FFF1FE856FC4FA591B4916E
:104EE000B093B804A093B704EBE7F3E08491809308
:104EF000BB04E7EAF3E0E491F0E0EE0FFF1FE856B1
:104F0000FC4FC591D491D093BA04C093B904EAE799
:104F1000F3E0E491E093BC041092BE041092BF044D
:104F20001092C0041092C104EBE3FFE13197F1F756
:104F3000EC91E82381E009F480E028819091BC04A1
:104F4000922309F0826027EB34E08093BD04309314
:104F5000B2042093B1048CEB9BE090930701809303
:104F6000060180916900837F846080936900E99ADB
:104F700081E08093C2043093B6042093B50480EBA3
:104F80009BE090930B0180930A01809169008F73DD
:104F9000806480936900EB9A82E08093C20486ED7E
:104FA00099E19093C6048093C50485EB9DE09093AE
:104FB000C8048093C70480E591E09093C404809373
:104FC000C3041092D8041092D7041092DA041092FD
:104FD000D9041092DC041092DB041092DE041092CB
:104FE000DD048AE090E09093D4048093D30410927F
:104FF000D5041092D6041092E4041092E3041092A7
:10500000E6041092E5041092E8041092E70410926E
:10501000EA041092E9048FE090E09093E00480931A
:10502000DF041092E1041092E2041092F004109256
:10503000EF041092F2041092F1041092F404109212
:10504000F3041092F6041092F5048CE090E0909333
:10505000EC048093EB041092ED041092EE04109295
:10506000FC041092FB041092FE041092FD041092B6
:1050700000051092FF0410920205109201058EE0C7
:1050800090E09093F8048093F7041092F904109242
:10509000FA04109208051092070510920A05109262
:1050A000090510920C0510920B0510920E05109236
:1050B0000D058DE090E09093040580930305109218
:1050C0000505109206051092140510921305109212
:1050D00016051092150510921805109217051092DA
:1050E0001A051092190580E190E0909310058093C5
:1050F0000F051092110510921205109220051092C2
:105100001F0510922205109221051092240510927D
:105110002305109226051092250581E190E09093D9
:105120001C0580931B0510921D0510921E05109200
:105130002705109228051092290510922A05109231
:105140006305109262051092650510926405109235
:10515000660581E090E09093680580936705DF9194
:10516000CF910895CF92DF92EF92FF920F931F930A
:10517000CF93DF931F92CDB7DEB7182F062FE42E03
:10518000862F880F8E5F99830E94671583E00E94A7
:105190006715F12EC12E9981D92E8C2D8F1980176C
:1051A00098F4F601E7FE02C0849101C080810E945C
:1051B0006715182F80E00E9467158123FFEFCF1A33
:1051C000DF0A8111EACF01C081E00F90DF91CF911A
:1051D0001F910F91FF90EF90DF90CF900895F99974
:1051E000FECF92BD81BDF89A992780B50895262FEC
:1051F000F999FECF1FBA92BD81BD20BD0FB6F894BC
:10520000FA9AF99A0FBE019608955058BB27AA271B
:105210000E941D290C946E2A0E94602A38F00E9478
:10522000672A20F039F49F3F19F426F40C945D2A84
:105230000EF4E095E7FB0C94572AE92F0E947F2A91
:1052400058F3BA17620773078407950720F079F4BB
:10525000A6F50C94A12A0EF4E0950B2EBA2FA02DE2
:105260000B01B90190010C01CA01A0011124FF2713
:10527000591B99F0593F50F4503E68F11A16F0400E
:10528000A22F232F342F4427585FF3CF469537950D
:105290002795A795F0405395C9F77EF41F16BA0BD2
:1052A000620B730B840BBAF09150A1F0FF0FBB1F80
:1052B000661F771F881FC2F70EC0BA0F621F731FC9
:1052C000841F48F4879577956795B795F7959E3F26
:1052D00008F0B0CF9395880F08F09927EE0F9795B7
:1052E000879508950E9486290C946E2A0E94672A49
:1052F00058F00E94602A40F029F45F3F29F00C9496
:10530000572A51110C94A22A0C945D2A0E947F2ADC
:1053100068F39923B1F3552391F3951B550BBB27E4
:10532000AA2762177307840738F09F5F5F4F220F29
:10533000331F441FAA1FA9F335D00E2E3AF0E0E820
:1053400032D091505040E695001CCAF72BD0FE2F6A
:1053500029D0660F771F881FBB1F261737074807FE
:10536000AB07B0E809F0BB0B802DBF01FF279358B6
:105370005F4F3AF09E3F510578F00C94572A0C94F9
:10538000A22A5F3FE4F3983ED4F38695779567951C
:10539000B795F7959F5FC9F7880F911D96958795EB
:1053A00097F90895E1E0660F771F881FBB1F62170A
:1053B00073078407BA0720F0621B730B840BBA0BC8
:1053C000EE1F88F7E09508950E94EB296894B111CB
:1053D0000C94A22A08950E94872A88F09F5798F07B
:1053E000B92F9927B751B0F0E1F0660F771F881FEA
:1053F000991F1AF0BA95C9F714C0B13091F00E9404
:10540000A12AB1E008950C94A12A672F782F88274C
:10541000B85F39F0B93FCCF3869577956795B3952A
:10542000D9F73EF490958095709561957F4F8F4F99
:105430009F4F0895E89409C097FB3EF4909580959E
:10544000709561957F4F8F4F9F4F9923A9F0F92F4A
:1054500096E9BB279395F695879577956795B795C8
:10546000F111F8CFFAF4BB0F11F460FF1BC06F5FAE
:105470007F4F8F4F9F4F16C0882311F096E911C0C0
:10548000772321F09EE8872F762F05C0662371F0E1
:1054900096E8862F70E060E02AF09A95660F771FF5
:1054A000881FDAF7880F9695879597F9089597F9E9
:1054B0009F6780E870E060E008959FEF80EC0895BA
:1054C00000240A94161617061806090608950024E3
:1054D0000A9412161306140605060895092E03945D
:1054E000000C11F4882352F0BB0F40F4BF2B11F4D1
:1054F00060FF04C06F5F7F4F8F4F9F4F089557FD30
:105500009058440F551F59F05F3F71F04795880F31
:1055100097FB991F61F09F3F79F0879508951216C8
:1055200013061406551FF2CF4695F1DF08C0161674
:1055300017061806991FF1CF869571056105089425
:105540000895E894BB2766277727CB0197F908953C
:105550000E94BB2A0C946E2A0E94602A38F00E9496
:10556000672A20F0952311F00C94572A0C945D2A99
:1055700011240C94A22A0E947F2A70F3959FC1F3F4
:10558000950F50E0551F629FF001729FBB27F00DF1
:10559000B11D639FAA27F00DB11DAA1F649F662746
:1055A000B00DA11D661F829F2227B00DA11D621F95
:1055B000739FB00DA11D621F839FA00D611D221F4F
:1055C000749F3327A00D611D231F849F600D211D33
:1055D000822F762F6A2F11249F5750409AF0F1F0B6
:1055E00088234AF0EE0FFF1FBB1F661F771F881F1F
:1055F00091505040A9F79E3F510580F00C94572AD6
:105600000C94A22A5F3FE4F3983ED4F386957795F5
:105610006795B795F795E7959F5FC1F7FE2B880FC4
:10562000911D9695879597F908959F930E941F2B3A
:105630000F9007FCEE5F0C94482B0C945D2A0E949F
:10564000872AD8F3E894E0E0BB279F57F0F02AEDD3
:105650003FE049EC06C0EE0FBB0F661F771F881FA7
:1056600028F0B23A62077307840728F0B25A620B37
:10567000730B840BE3959A9572F7803830F49A9502
:10568000BB0F661F771F881FD2F790480C945E2BC4
:10569000EF93E0FF07C0A2EA2AED3FE049EC5FEBA1
:1056A0000E941D290E946E2A0F90039401FC9058BD
:1056B000EAEDF1E00C946A2B9F3F31F0915020F419
:1056C000879577956795B795880F911D96958795DE
:1056D00097F908959F938F937F936F93FF93EF9321
:1056E0009B01AC010E94A82AEF91FF910E947E2BA2
:1056F0002F913F914F915F910C94A82ADF93CF9304
:105700001F930F93FF92EF92DF927B018C016894BD
:1057100006C0DA2EEF010E94BB2AFE01E894A59193
:105720002591359145915591A6F3EF010E941D29D0
:10573000FE019701A801DA9469F7DF90EF90FF90DE
:105740000F911F91CF91DF910895DB018F939F936C
:105750000E94FD2BBF91AF91A29F800D911DA39F31
:10576000900DB29F900D1124089597FB072E16F40B
:10577000009407D077FD09D00E94102C07FC05D0BB
:105780003EF4909581959F4F0895709561957F4F58
:105790000895052E97FB1EF400940E94E02B57FD00
:1057A00007D00E94242C07FC03D04EF40C94E02B6D
:1057B00050954095309521953F4F4F4F5F4F08953D
:1057C00090958095709561957F4F8F4F9F4F08956D
:1057D000EE0FFF1F0590F491E02D0994A29FB001F8
:1057E000B39FC001A39F700D811D1124911DB29F15
:1057F000700D811D1124911D08950E94EE2BA59F0F
:10580000900DB49F900DA49F800D911D11240895BB
:10581000B7FF0C94FD2B0E94FD2B821B930B089568
:10582000AA1BBB1B51E107C0AA1FBB1FA617B707C6
:1058300010F0A61BB70B881F991F5A95A9F78095E2
:105840009095BC01CD010895A1E21A2EAA1BBB1BA5
:10585000FD010DC0AA1FBB1FEE1FFF1FA217B3073C
:10586000E407F50720F0A21BB30BE40BF50B661F52
:10587000771F881F991F1A9469F760957095809516
:1058800090959B01AC01BD01CF010895CF93DF93AB
:105890008230910510F482E090E0E0918F06F09163
:1058A000900620E030E0C0E0D0E0309711F1408178
:1058B000518148175907C0F04817590761F4828190
:1058C0009381209719F09B838A832BC09093900635
:1058D00080938F0626C02115310519F04217530712
:1058E00018F49A01BE01DF01EF010280F381E02D7F
:1058F000DCCF2115310509F1281B390B2430310586
:1059000090F412968D919C9113976115710521F079
:10591000FB019383828304C09093900680938F064B
:10592000FD01329644C0FD01E20FF31F8193919374
:10593000225031092D933C933AC020918D0630912D
:105940008E06232B41F420911C0130911D013093D0
:105950008E0620938D0620911A0130911B0121158E
:10596000310541F42DB73EB740911E0150911F0102
:10597000241B350BE0918D06F0918E06E217F3079C
:10598000A0F42E1B3F0B2817390778F0AC014E5FAF
:105990005F4F2417350748F04E0F5F1F50938E0658
:1059A00040938D068193919302C0E0E0F0E0CF0137
:1059B000DF91CF9108950F931F93CF93DF930097BB
:1059C00009F48CC0FC0132971382128200918F0679
:1059D000109190060115110581F420813181820F0B
:1059E000931F20918D0630918E062817390779F57F
:1059F000F0938E06E0938D0671C0D80140E050E030
:105A0000AE17BF0750F412962D913C911397AD013C
:105A10002115310509F1D901F3CF9D01DA01338355
:105A2000228360817181860F971F8217930769F423
:105A3000EC0128813981260F371F2E5F3F4F3183BC
:105A400020838A819B8193838283452B29F4F09361
:105A50009006E0938F0642C01396FC93EE93129744
:105A6000ED01499159919E01240F351FE217F3076B
:105A700071F480819181840F951F029611969C93F9
:105A80008E938281938113969C938E931297E0E07C
:105A9000F0E0D80112968D919C911397009719F020
:105AA000F8018C01F6CF8D919C9198012E5F3F4FAC
:105AB000820F931F20918D0630918E06281739078B
:105AC00069F4309729F41092900610928F0602C064
:105AD0001382128210938E0600938D06DF91CF9170
