:100000000C941B010C9443010C9443010C94430188
:100010000C9443010C9443010C9443010C94430150
:100020000C9443010C9443010C941A030C948C031C
:100030000C9443010C9443010C9443010C94430130
:100040000C9443010C9443010C9443010C94430120
:100050000C948A0A0C9443010C9443010C94E20C16
:100060000C9443010C9443010C9443010C94430100
:100070000C9443010C9443010C9443010C944301F0
:100080000C9443010C9443010C9443010C944301E0
:100090000C9443010C9443010C9443010C944301D0
:1000A0000C9443010C9443010C944301E705EA05C9
:1000B000D905DD05E1050B060B060B06EE05F2057D
:1000C000F605FC0500060B0606067E12FA12F7116D
:1000D0001812FA12FA12FA12FA12E511FA12FA12B8
:1000E000FA126812F011AD12FA12BF11FA12FA12D6
:1000F0004512FA12FA12FA12FA12ED12FA12FA1262
:10010000FA12FA12FA12FA12FA127812FA12F2111A
:100110000F120313FA12FA124511DC11FA12FA1235
:1001200003136212E71198120313B61190119C1178
:100130003512A5117811941196126364696E6F706F
:10014000737578585B000000000200090F0000037F
:100150000401000C0000000000000000000000008E
:100160000000000000080B00020202010009040068
:100170000001020200000524001001052401010114
:10018000042402060524060001070581031000402F
:1001900009040100020A00000007050202400000F5
:1001A000070583024000000403090412010002EF66
:1001B00002014041233680000101020301417264C3
:1001C00075696E6F204C4C430041726475696E6FA7
:1001D000204C656F6E6172646F00000000002500A6
:1001E00028002B002E003100000000002400270012
:1001F0002A002D0030000404040404030405020254
:1002000002020403020202020606060606060404AF
:100210000202020404040802011040804010204041
:1002200080408008020401804020100201108010EC
:1002300020404020571311241FBECFEFDAE0DEBF6D
:10024000CDBF11E0A0E0B1E0EEEBF4E302C0059019
:100250000D92AC3AB107D9F725E0ACEAB1E001C0A4
:100260001D92A333B207E1F711E0CBE1D1E004C066
:100270002197FE010E94F513CA31D107C9F70E94E8
:10028000690D0C945D1A0C9400004091AF015091DF
:10029000B0012091AD013091AE0142175307B4F483
:1002A0009091E8009570E1F39091E80092FD19C0FB
:1002B0008093F1008091AF019091B00101968F730E
:1002C0009927892B19F48EEF8093E8008091AF0174
:1002D0009091B00101969093B0018093AF0181E0BD
:1002E000089580E00895DF92EF92FF920F931F939D
:1002F000CF93DF93D82E8A017B01E40EF51EEB012C
:10030000CE15DF0571F0D7FE03C0FE01849101C058
:1003100088810E94450121968111F2CF8FEF9FEFD6
:1003200001C0C801DF91CF911F910F91FF90EF9015
:10033000DF900895615030F02091F100FC0120839E
:100340000196F8CF289884E68093B5040895CF925B
:10035000DF92EF92FF920F931F93CF93DF936C0185
:100360007A018B01C0E0D0E0CE15DF0589F0D8011D
:100370006D918D01D601ED91FC910190F081E02D00
:10038000C6010995892B11F47E0102C02196ECCF9C
:10039000C701DF91CF911F910F91FF90EF90DF90F8
:1003A000CF900895CF93DF931F92CDB7DEB76983C7
:1003B000DC01ED91FC910280F381E02D41E050E001
:1003C000BE016F5F7F4F09950F90DF91CF91089528
:1003D00083E08093E9008091F200882319F08AE39A
:1003E0008093E8000895FC018485958597FD0BC0F6
:1003F0009FB7F89482E08093E9008091F2009FBF5C
:1004000090E0019608959FB7F89482E08093E90008
:100410008091F2009FBF90E00895089580E090E001
:10042000089508956EBD00000DB407FEFDCF8EB592
:1004300008955E9A5E988E9A000000008E98089546
:100440000E944B140F931F93CF93DF931F92CDB74E
:10045000DEB782E0898342E450E065E671E080E83F
:100460000E9473010E94CE0CDC0112960D911C912A
:1004700013970115110569F0D801ED91FC910280E7
:10048000F381E02DBE016F5F7F4FC801099597FF93
:1004900007C089810F90DF91CF911F910F9108952F
:1004A000F80100851185E5CF8F929F92AF92BF92A0
:1004B000CF92DF92EF92FF920F931F93CF93DF9330
:1004C0006C015B017A0180910B01882309F456C00D
:1004D0008091B604882309F451C08091B30180FF54
:1004E00005C08091E00082608093E000E70110E0A9
:1004F0000AEF83E0882E9AE3992E2097B1F10E94AB
:10050000A30C811105C00150C9F10E94B40CF5CFB4
:10051000282F30E0C217D3070CF48C2F4FB7F89474
:100520008092E9009091E80095FF1DC0282F30E0EF
:10053000C21BD30BF501982F915020F0819180932D
:10054000F100FACFA20EB31E112319F09092E80029
:1005500009C08091E80085FD06C09092E80011E096
:10056000209709F010E04FBFC8CF1111C8CF5D9898
:1005700084E68093B1011E141F0444F081E090E0F2
:10058000F6019383828380E090E001C0C701DF9190
:10059000CF911F910F91FF90EF90DF90CF90BF9080
:1005A000AF909F908F9008950E94A30C90E00895C3
:1005B000CF93DF931F92CDB7DEB7FC01848595857D
:1005C00097FD05C02FEF3FEF358724870BC0CE0185
:1005D00001960E94160C019719F4898190E002C0DF
:1005E0008FEF9FEF0F90DF91CF9108950F931F939F
:1005F000CF93DF931F92CDB7DEB78C01FC018485CA
:10060000958597FF0EC0CE0101960E94160C0197AA
:1006100019F4298130E002C02FEF3FEFF801358750
:100620002487F801848595850F90DF91CF911F91E4
:100630000F9108951F920F920FB60F9211248F936E
:100640009F938091E1009091E100937F9093E1006E
:1006500083FF0FC01092E90091E09093EB0010929D
:10066000EC0092E39093ED001092B60498E0909322
:10067000F00082FF20C093E09093E9009091F20097
:10068000992319F09AE39093E8009091B10199238E
:1006900039F09091B10191509093B101992389F172
:1006A0009091B504992339F09091B50491509093AD
:1006B000B504992341F184FF10C08091E2008E7E41
:1006C00081608093E2008091E1008F7E8093E10061
:1006D0008091B3018E7E806111C080FF16C0809131
:1006E000E2008E7E80618093E2008091E1008E7E48
:1006F0008093E1008091B3018E7E81608093B3018D
:1007000004C05D9ACDCF289AD6CF9F918F910F903C
:100710000FBE0F901F9018951F920F920FB60F9259
:100720001124CF92DF92EF92FF920F931F932F939A
:100730003F934F935F936F937F938F939F93AF9369
:10074000BF93EF93FF93CF93DF93CDB7DEB76C9753
:10075000DEBFCDBF1092E9008091E80083FFEDC1BC
:1007600068E0CE0145960E949A0182EF8093E800EE
:100770008D8987FF05C09091E80090FFFCCF03C0F2
:100780009EEF9093E800982F907609F0C6C09E895E
:100790002F89188D91110CC0803829F48091B401F3
:1007A0008093F10002C01092F1001092F10048C154
:1007B000422F50E0512B913051F4811141C1413011
:1007C000510509F03DC18091B4018D7F0BC093307C
:1007D00061F4811135C14130510509F031C1809179
:1007E000B40182608093B4012BC1953041F48091B3
:1007F000E80080FFFCCF20682093E30021C1963001
:1008000009F05FC0EB8CFC8C1092E9001092B001F3
:100810001092AF01123091F51092AE011092AD011D
:100820000E94220299E0BE016F5F7F4FDB01E92F3A
:100830001D92EA95E9F799831A8391E09E8390EAE5
:1008400098879AEF99872091AF013091B001275F87
:100850003F4F3C832B838D831092E9001092B001AF
:100860001092AF01F092AE01E092AD0149E050E08C
:1008700080E00E9473010E942202E2C0F092AE0169
:10088000E092AD010E94CE0CDC011296ED90FC903E
:100890001397E114F10409F4C0C0D701ED91FC9164
:1008A0000480F581E02DBE016B5E7F4FC701099585
:1008B000009719F00CF0C4C0C7C0F701E084F184C0
:1008C000E8CF973009F4C0C0983021F481E08093DC
:1008D000F100B6C0993009F0B3C0837009F0B4C01C
:1008E000EFE0F1E081E021E036E39081992361F0CF
:1008F0008093E9002093EB0091919093EC0030936A
:10090000ED008F5F873089F78EE78093EA001092C1
:10091000EA008F898093B60493C08B8D9C8D1092D2
:10092000E9001092B0011092AF019093AE01809354
:10093000AD01898D811156C08E899D89913A59F4F6
:10094000813209F081C047E050E064E071E080E06E
:100950000E94730175C0913209F076C0833289F428
:10096000888D90E0982F88272F89822BA0E0B0E017
:100970008093000190930101A0930201B0930301C1
:100980005FC0803269F48091E80082FFFCCF67E0AD
:1009900084E091E00E949A018BEF8093E80006C00A
:1009A000823209F04DC08F8980930B018091B20192
:1009B000882319F0EEEFFAE002C0E0E0F8E0809161
:1009C000040190910501A0910601B0910701803BBF
:1009D0009440A105B10509F07BC080910B0180FF17
:1009E00093C076C00E94CE0CDC0112960D911C9132
:1009F00013970115110541F1D801ED91FC9101907A
:100A0000F081E02DBE016B5E7F4FC8010995811119
:100A100017C0F80100851185ECCF113009F44EC0E4
:100A2000133091F48F89882309F445C0823081F412
:100A300040E860E189EC91E00E942C0D882321F0D0
:100A40008EEF8093E80079C081E28093EB0075C05F
:100A5000813029F440E86BE08DEB91E0EDCF8330FD
:100A600099F70E94CE0CDC011296ED90FC90139742
:100A70008E010F5F1F4F6801E114F10479F0D70177
:100A8000ED91FC910680F781E02DB801C701099531
:100A9000080F111DF701E084F184EECFD8011C92FC
:100AA000F60101900020E9F73197BF016C197D092B
:100AB00040E0C601C1CF67EA71E002C06BEA71E0B5
:100AC0006115710509F2FB01449150E080E840CFC7
:100AD0000FB6F894A89580916000886180936000BB
:100AE000109260000FBEA895EE3F2AE0F20739F0A1
:100AF0008091FE0A9091FF0A91838083A1CF10928A
:100B0000FF0A1092FE0A9CCFEE3F8AE0F80731F010
:100B1000808191819093FF0A8093FE0A87E797E78F
:100B2000918380839BE088E10FB6F894A895809329
:100B300060000FBE9093600083CF6C960FB6F89460
:100B4000DEBF0FBECDBFDF91CF91FF91EF91BF917F
:100B5000AF919F918F917F916F915F914F913F9155
:100B60002F911F910F91FF90EF90DF90CF900F90FA
:100B70000FBE0F901F901895362F90E0FC01EA5B96
:100B8000FE4F4491FC01EB5EFD4F2491FC01EA50C5
:100B9000FE4F8491882309F451C04423E1F150E0D1
:100BA000FA013197EF30F105B0F5EA5AFF4F0C9496
:100BB000F513909180009F7707C0909180009F7DF2
:100BC00003C090918000977F9093800024C094B5DB
:100BD0009F7702C094B59F7D94BD1DC090919000F9
:100BE0009F7707C0909190009F7D03C090919000E7
:100BF000977F909390000FC09091C0009F7703C0A3
:100C00009091C0009F7D9093C00005C09091C2005C
:100C1000977F9093C200E82FF0E0EE0FFF1FE6529F
:100C2000FE4FA591B4918FB7F894EC91311103C0A8
:100C300020952E2301C02E2B2C938FBF0895CF9388
:100C4000CFB7F8948091AC01811124C0E7E0F2E0C5
:100C50008491E6E2F2E09491E82FF0E0EE0FFF1FBE
:100C6000E851FE4FA591B491EC91E92321F461E0A4
:100C700081E10E94BC0581E10E94F70B8CB5806187
:100C80008CBD8CB580648CBD8FE00E94F70B80E139
:100C90000E94F70B8091AC018F5F8093AC01CFBFB6
:100CA0008CB5837F8CBD8CB58C7F81608CBD8DB500
:100CB0008E7F8DBDCF9108952091AE043091AF0409
:100CC000245D3B4FFC0140814423F9F04091AE0488
:100CD0005091AF044138510544F44F5F5F4F50933A
:100CE000AF044093AE04F90108C01092AF04109213
:100CF000AE04ECE2F4E087E491E09F012F5F3F4F08
:100D0000DC014C9140830196DDCF08950E945C0682
:100D10008EE491E00C945C060F931F93CF93DF93C6
:100D2000CDB7DEB760970FB6F894DEBF0FBECDBF6C
:100D30007F936F93282F082E000C330B3F938F93D4
:100D400080E591E09F938F938E010F5F1F4F1F935C
:100D50000F930E945014C8010E9486060FB6F894A3
:100D6000DEBF0FBECDBF60960FB6F894DEBF0FBEDC
:100D7000CDBFDF91CF911F910F9108950F931F93D6
:100D8000CF93DF93CDB7DEB760970FB6F894DEBF91
:100D90000FBECDBF282F082E000C330B3F938F932F
:100DA00086E591E09F938F938E010F5F1F4F1F93F6
:100DB0000F930E945014C8010E9486060F900F9056
:100DC0000F900F900F900F9060960FB6F894DEBFC3
:100DD0000FBECDBFDF91CF911F910F910895CF939B
:100DE000DF9300D0CDB7DEB723E229831A829C01BE
:100DF000215031092235310510F480930A0541E074
:100E0000BE016F5F7F4F86E00E94210B60910A0553
:100E100085E00E94E00A60910B0581E10E94E00AF2
:100E200060910B0582E10E94E00A0E940A0B0E9479
:100E3000DB0A80910C0590910D05DC01ED91FC9190
:100E40000190F081E02D62EE09950E94D60A0F9084
:100E50000F90DF91CF910895CF93DF9300D000D012
:100E600000D0CDB7DEB749835A836B837C838D83F3
:100E70009E8327E333E0F9018081918146E0489F1A
:100E8000D001499FB00D1124A954BE4FFE013196E7
:100E900001900D924A95E1F7019660E470E00E949E
:100EA000C213F9019183808326960FB6F894DEBFB2
:100EB0000FBECDBFDF91CF9108950F931F93CF93B6
:100EC000DF93CDB7DEB760970FB6F894DEBF0FBEE5
:100ED000CDBF7F936F93282F082E000C330B3F93C9
:100EE0008F9380E591E09F938F938E010F5F1F4F4B
:100EF0001F930F930E945014C8010E9486060FB6DC
:100F0000F894DEBF0FBECDBF60960FB6F894DEBF7B
:100F10000FBECDBFDF91CF911F910F910895CF9359
:100F2000DF9300D000D0CDB7DEB7BE016F5F7F4F3B
:100F300080E890E00E94600B89819A818B3F9A4FF4
:100F4000C9F08BEF9AEF9C838B83BE016D5F7F4F5F
:100F500080E890E00E94AB0B81E090E09A83898367
:100F6000BE016F5F7F4F80E290E00E94AB0B81E09B
:100F700090E009C0BE016F5F7F4F80E290E00E9469
:100F8000600B89819A810F900F900F900F90DF91E5
:100F9000CF9108955B988D9808954F925F926F92CC
:100FA0007F928F929F92AF92BF92CF92DF92EF92F9
:100FB000FF92CF93DF93CDB7DEB728970FB6F894A3
:100FC000DEBF0FBECDBF80909B0390909C03A0908E
:100FD0009D03B0909E0340909F035090A0036090AB
:100FE000A1037090A20384149504A604B70449F0E9
:100FF0001092A3031092A4031092A5031092A603CB
:1010000050C08091A7039091A803A091A903B0912B
:10101000AA03892B8A2B8B2B09F0CEC18091A303C5
:101020009091A403A091A503B091A603813325E775
:101030009207A105B10554F181E090E0A0E0B0E095
:101040008093A7039093A803A093A903B093AA0346
:101050001092A3031092A4031092A5031092A6036A
:1010600028960FB6F894DEBF0FBECDBFDF91CF91AB
:10107000FF90EF90DF90CF90BF90AF909F908F90B8
:101080007F906F905F904F900C94CA070196A11DBE
:10109000B11D8093A3039093A403A093A503B093E1
:1010A000A6038091970390919803A0919903B09122
:1010B0009A0389839A83AB83BC83A3019201281B83
:1010C000390B4A0B5B0B2D833E834F83588757FFA9
:1010D0000BC050954095309521953F4F4F4F5F4F36
:1010E0002D833E834F83588780918403C090930360
:1010F000D0909403E0909503F0909603882331F10B
:1011000089819A81AB81BC81481659066A067B06A3
:101110000CF443C0A7019601C701B6010E94B213A7
:101120006627707820918F0330919003409191034E
:10113000509192030E94D6138D819E81AF81B88514
:10114000281739074A075B0744F582C089819A81CD
:10115000AB81BC8184159505A605B7050CF49FC02D
:10116000A7019601C701B6010E94B21366277078E5
:1011700020918F03309190034091910350919203FD
:101180000E94D6138D819E81AF81B88528173907BB
:101190004A075B070CF083C0E1C080918B039091FC
:1011A0008C03A0918D03B0918E03C81AD90AEA0A64
:1011B000FB0AC0929303D0929403E0929503F092BD
:1011C00096038091930390919403A0919503B0911D
:1011D000960329813A814B815C81820F931FA41F62
:1011E000B51F8093970390939803A0939903B093AE
:1011F0009A0388169906AA06BB06DCF484149504A3
:10120000A604B704B1F080910E0590910F05A0914E
:101210001005B0911105880E991EAA1EBB1E809262
:101220009B0390929C03A0929D03B0929E030E9408
:1012300019028091930390919403A0919503B0912A
:101240009603B7FFB9C01092840347988F98B4C033
:1012500089819A81AB81BC8184159505A605B70566
:101260000CF0AFCF40918B0350918C0360918D03B4
:1012700070918E038091870390918803A0918903D8
:10128000B0918A03C40ED51EE61EF71E8C159D056F
:10129000AE05BF050CF08DCF6C017D018ACF80912A
:1012A0008B0390918C03A0918D03B0918E03C80E97
:1012B000D91EEA1EFB1EC0929303D0929403E092C3
:1012C0009503F09296038091930390919403A091DB
:1012D0009503B091960329813A814B815C81820FFD
:1012E000931FA41FB51F8093970390939803A09317
:1012F0009903B0939A0388159905AA05BB05DCF4F8
:1013000084149504A604B704B1F080910E05909161
:101310000F05A0911005B0911105881A990AAA0A23
:10132000BB0A80929B0390929C03A0929D03B09273
:101330009E030E9419028091930390919403A091BF
:101340009503B0919603181619061A061B06A4F504
:1013500081E080938403479A8F9A2EC029813A8135
:101360004B815C8142165306640675060CF0ABCFC8
:1013700040918B0350918C0360918D0370918E038B
:101380008091870390918803A0918903B0918A038B
:10139000B095A095909581959F4FAF4FBF4FC41AC0
:1013A000D50AE60AF70AC816D906EA06FB060CF0C3
:1013B00082CF6C017D017FCF28960FB6F894DEBFF7
:1013C0000FBECDBFDF91CF91FF90EF90DF90CF9018
:1013D000BF90AF909F908F907F906F905F904F9055
:1013E0000895CF93DF93EC016991662329F084E897
:1013F00093E00E94A413F8CFDF91CF9108951616C1
:101400001706180619066CF4DC01CB01813021E0C7
:101410009207A105B1054CF080E091E0A0E0B0E0BA
:1014200004C081E090E0A0E0B0E080938B03909353
:101430008C03A0938D03B0938E03DC01992788273A
:101440003FE0B595A795979587953A95D1F7809305
:101450008F0390939003A0939103B0939203089508
:101460000F931F9300910E0510910F052091100509
:101470003091110516161706180619062CF4F62FCA
:10148000E72F582F492F04C0F1E0E0E050E040E0A2
:101490008F2F9E2FA52FB42F081719072A073B0758
:1014A00014F4D901C8018093870390938803A09313
:1014B0008903B0938A031F910F9108950F931F938F
:1014C00000919F031091A0032091A1033091A203EA
:1014D000601771078207930791F01092A70310928B
:1014E000A8031092A9031092AA035B9A8D9A1092F6
:1014F000A3031092A4031092A5031092A603609375
:101500009F037093A0038093A1039093A2031F9164
:101510000F9108951F920F920FB60F9211242F93DF
:101520003F934F935F936F937F938F939F93AF936B
:10153000BF93EF93FF93E091B501F091B601099548
:10154000FF91EF91BF91AF919F918F917F916F919B
:101550005F914F913F912F910F900FBE0F901F9071
:1015600018953FB7F8948091170590911805A091B0
:101570001905B0911A0526B5A89B05C02F3F19F093
:101580000196A11DB11D3FBFBA2FA92F982F882703
:10159000820F911DA11DB11DBC01CD0142E0660F5E
:1015A000771F881F991F4A95D1F7089561E08091B0
:1015B00009050C94BC0560E0809109050C94BC05FC
:1015C0000F931F93CF93DF93C82FD62F0E94DB0A70
:1015D00007E015E0D80115968D919C911697DC01D6
:1015E000ED91FC91CF716C2F60620190F081E02D44
:1015F0000995F80185819681DC01ED91FC910190BE
:10160000F081E02D6D2F0995DF91CF911F910F9102
:101610000C94D60ACF93DF93C7E0D5E0188260E040
:1016200089810E94BC056BE080E00E94E00A61E0D5
:1016300089810E94BC0560E387E0DF91CF910C9423
:10164000E00ACF92DF92FF920F931F93CF93DF9325
:101650001F92CDB7DEB7F82E162F042F79830E9484
:10166000DB0A80910C0590910D05DC01ED91FC9158
:101670006F2D6F7160620190F081E02D0995F12E60
:10168000C12E7981D72E8C2D8F19801778F48091F7
:101690000C0590910D05F60161916F01DC01ED9152
:1016A000FC910190F081E02D0995EDCF0F90DF9135
:1016B000CF911F910F91FF90DF90CF900C94D60A9D
:1016C000CF92DF92EF92FF920F931F93CF93DF930E
:1016D000CDB7DEB7C456D1090FB6F894DEBF0FBE42
:1016E000CDBF8C016B01023883E01807D8F4C80124
:1016F0000E949C13F6018083C80101960E949C13EE
:10170000F6018183CC59DF4F0FB6F894DEBF0FBED0
:10171000CDBFDF91CF911F910F91FF90EF90DF90A0
:10172000CF9008951F921F9284EA91E09F938F9328
:10173000CE0101967C019F938F930E945014C701A4
:101740000E94F1090C9400000F900F900F900F90E1
:101750000F900F90CCCFCF92DF92EF92FF920F932A
:101760001F93CF93DF93CDB7DEB7C456D1090FB621
:10177000F894DEBF0FBECDBF8C016B01023883E051
:101780001807D8F4F6016081C8010E94A413F6017D
:101790006181C80101960E94A413CC59DF4F0FB696
:1017A000F894DEBF0FBECDBFDF91CF911F910F9197
:1017B000FF90EF90DF90CF9008951F9281E08F937C
:1017C00084EA91E09F938F93CE0101967C019F93D1
:1017D0008F930E945014C7010E94F1090C940000DD
:1017E0000F900F900F900F900F900F90CBCF90E035
:1017F000FC01EB5EFD4F2491FC01EA50FE4F849109
:10180000882399F090E0880F991FFC01E851FE4F62
:10181000A591B491FC01E652FE4F859194918FB74A
:10182000F894EC91E22BEC938FBF0895FC0180912A
:10183000B604811103C08FEF9FEF08959FB7F8940E
:1018400082E08093E9002091F20030E01216130646
:1018500014F421E030E02115310559F0289884E690
:101860008093B5048091F10080838091F2008823F9
:1018700019F09FBFC90108958BE68093E800F9CF66
:10188000CF92DF92FF920F931F93CF93DF931F921C
:10189000CDB7DEB7F82E8B016C018C2D8F19841714
:1018A000A0F480910C0590910D05D6016D916D010C
:1018B000DC01ED91FC910190F081E02D49830995C7
:1018C000F80181938F014981E8CF0F90DF91CF918B
:1018D0001F910F91FF90DF90CF9008950F931F936A
:1018E000CF93C82F8B010E94DB0A80910C05909149
:1018F0000D05DC01ED91FC916C2F6F710190F08171
:10190000E02D099541E0B801C8010E94400CCF913B
:101910001F910F910C94D60ACF93DF931F92CDB7EE
:10192000DEB7BE016F5F7F4F87E00E946E0C89813A
:10193000807321F00E940A0B80E001C081E00F90CB
:10194000DF91CF9108952FB7F89483E08093E90059
:101950009091E800892F807295FF04C09091F20069
:1019600080E4891B2FBF0895CF92DF92EF92FF9200
:101970000E94B10A6B017C010E94B10ADC01CB011B
:101980008C199D09AE09BF09883E9340A105B10598
:1019900098F3FF90EF90DF90CF90089580911F050E
:1019A00081110DC082E080931B0584E080931C05AB
:1019B00010921E0510921D0581E080931F058BE19A
:1019C00095E008951F920F920FB60F9211242F9356
:1019D0003F938F939F93AF93BF9380911305909103
:1019E0001405A0911505B09116053091120523E05C
:1019F000230F2D3720F40196A11DB11D05C026E847
:101A0000230F0296A11DB11D20931205809313058B
:101A100090931405A0931505B093160580911705B2
:101A200090911805A0911905B0911A050196A11D74
:101A3000B11D8093170590931805A0931905B093D5
:101A40001A05BF91AF919F918F913F912F910F9068
:101A50000FBE0F901F901895CF92DF92EF92FF92DA
:101A60000F931F93CF93DF931F92CDB7DEB7182F3D
:101A7000062FE42E862F880F8E5F99830E944501E2
:101A800083E00E944501F12EC12E9981D92E8C2D23
:101A90008F19801798F4F601E7FE02C0849101C007
:101AA00080810E944501182F80E00E94450181231A
:101AB000FFEFCF1ADF0A8111EACF01C081E00F905A
:101AC000DF91CF911F910F91FF90EF90DF90CF901A
:101AD0000895CF93DF93CDB7DEB7A2970FB6F894F2
:101AE000DEBF0FBECDBF789484B5826084BD84B55F
:101AF000816084BD85B5826085BD85B5816085BD09
:101B000080916E00816080936E00109281008091C0
:101B10008100826080938100809181008160809348
:101B2000810080918000816080938000809191008D
:101B300082608093910080919100816080939100F8
:101B4000809190008160809390008091C1008460BA
:101B50008093C1008091C10082608093C100809118
:101B6000C10081608093C1008091C3008160809337
:101B7000C3008091C00082608093C0008091C20049
:101B800081608093C20080917A00846080937A00A3
:101B900080917A00826080937A0080917A008160DF
:101BA00080937A0080917A00806880937A00109206
:101BB000B6041092B4011092B3018091D7008160F5
:101BC0008093D70080EA8093D80089B5806189BD71
:101BD00089B5826089BD09B400FEFDCF0E94B40CB6
:101BE0008091D8008F7C80618093D8008091E00044
:101BF000807F8093E0008091E1008E7E8093E10001
:101C00008DE08093E200559A209AEEEFFFE78591F0
:101C100094918B3F9C4D19F481E08093B2018FEF3A
:101C20009FEF9093C4048093C304539A579A529A97
:101C3000259A569A3F9A809A819A859A869A879A87
:101C4000849A8C988898899A11E010938403109252
:101C50008703109288031092890310928A031092CE
:101C60008B0310928C0310928D0310928E031092AE
:101C700086031092850310928F03109290031092A6
:101C80009103109292031092930310929403109276
:101C90009503109296031092970310929803109256
:101CA000990310929A0310929B0310929C03109236
:101CB0009D0310929E0310929F031092A003109216
:101CC000A1031092A2031092A3031092A4031092F6
:101CD000A5031092A60381E090E0A0E0B0E080931D
:101CE000A7039093A803A093A903B093AA0310920B
:101CF000AB030E94CA075A9A2D9A8CE091E0909308
:101D00000D0580930C05809108050E94F70B8091CA
:101D100009050E94F70B60E0809108050E94BC0550
:101D20000E94D60A80910C0590910D05DC01ED9181
:101D3000FC910280F381E02D099560E08091080517
:101D40000E94BC0545E06CE571E08BE00E94210B30
:101D500061E0809108050E94BC0586E080930B0538
:101D60000E948F070E94EF0661E070E080E090E043
:101D70000E94FF0961E070E080E090E00E94300A7C
:101D800080E1809381001092800082E19AE7909335
:101D900087008093860084E1809381001093B204D1
:101DA00080E395E09093B1048093B0049093870012
:101DB0008093860081E1809381008DEC97E0909381
:101DC000B6018093B50110936F006E01B7E1CB0EA1
:101DD000D11C8E010F5F1F4F1E01E2E12E0E311C40
:101DE000E9EA4E2EE1E05E2EFEEAEF2EF3E0FF2E52
:101DF00086E0D6011D928A95E9F780910705811149
:101E000008C0B80187E00E946E0C898186FD0DC074
:101E100005C00E948C0C8111E7C1F3CFB80187E1A6
:101E20000E946E0C898180FDDFC10E94DB0A8091D7
:101E30000C0590910D05DC01ED91FC910190F08174
:101E4000E02D61E6099540910B05B601C6010E949F
:101E5000400C0E94D60A60E487E00E94E00A86E017
:101E6000F601DE01519601900D928A95E1F789897C
:101E70008D3009F4E2C00CF046C0863009F4A3C0EE
:101E80003CF5823009F489C0B4F4813009F0ACC16A
:101E900086E0F80111928A95E9F782E0898385E06E
:101EA000E1E9F1E0DE01129601900D928A95E1F7E9
:101EB00049815A8118C1833009F477C0843009F010
:101EC00093C18B898F938A898F931F9283E792C0E6
:101ED0008A3009F499C06CF4873009F484C08830E2
:101EE00009F082C18B898F938A898F931F928DE627
:101EF00081C08B3009F498C08C3009F075C16A89B3
:101F00007B8981E64AC1873109F4F4C08CF58231BE
:101F100009F4B2C054F48E3009F49EC08F3009F039
:101F200063C16A897B8984E638C1853109F4AEC012
:101F3000863109F059C180919F039091A003A0912F
:101F4000A103B091A2037FE0B595A79597958795DA
:101F50007A95D1F726E0F80111922A95E9F728E160
:101F60002983582F8A839B83AC83BD8348E1BBC000
:101F7000823209F40FC154F4883109F4EFC08F3173
:101F800009F032C16A897B8981E707C1833209F48C
:101F900007C1883709F407C127C13F922F921F92CA
:101FA00087E78F9382E691E028C086E0D8011D92F2
:101FB0008A95E9F784E0898381E0582F8A831B8220
:101FC00044E060E091C09091870320918803D8019C
:101FD0001D928A95E9F788E08983592F9A832B838C
:101FE00048E0622F81C06A897B8980E090E00E948E
:101FF000300AFAC08F9388E691E09F938F931F93E6
:102000000F930E945014BDC080918B0390918C035C
:1020100026E0D8011D922A95E9F72CE02983582F54
:102020008A839B834CE016C06A897B89072E000C4B
:10203000880B990B0E94FF09D7C00E948F0726E0EA
:10204000F80111922A95E9F72FE02983582F8A8306
:102050009B834FE0692F48C08A899B899AA389A3F3
:10206000BE016F5D7F4F80E290E00E94AB0B8A89DA
:102070009B890E94EF06B8C08B898F938A898F93C2
:102080001F9289E68F938EE691E0B7CF80913B0354
:10209000853121F0109279031092780385E18093C5
:1020A0003B03D101E0917803F0917903E45CFC4FAC
:1020B000CD018219930906970CF096C08D918193FA
:1020C00080818111F5CF8CE393E0009709F48CC0F7
:1020D0009F938F931F9285E08F931F928EE68F932D
:1020E00085E791E048C06B817C818D819E810E9453
:1020F0002C077AC08A889B88AC88BD886FE0880CE2
:10210000991CAA1CBB1C6A95D1F78091AB03811165
:102110001CC080929B0390929C03A0929D03B0925E
:102120009E038092970390929803A0929903B09295
:102130009A0380929F039092A003A092A103B09271
:10214000A20381E08093AB0304C0C501B4010E94E7
:102150005E0ABF92AF929F928F9208C08D898F9333
:102160008C898F938B898F938A898F931F928FE6A7
:102170008F938DE791E09F938F931F930F930E940E
:102180005014C8010E9486060FB6F894DEBF0FBE39
:10219000CDBF2AC06A897B8984E70E945D0724C07D
:1021A0001092AB0321C0EA89E750E63128F4F0E051
:1021B000E15EFE4F808101C08FE5282F082E000CC4
:1021C000330B3F938F9384E891E09F938F931F93FA
:1021D0000F930E945014C8010E9486060F900F9022
:1021E0000F900F900F900F908091070581110DC0F7
:1021F0008091390390913A0320913703309138034D
:102200008217930709F049C204C00E948C0C8823EE
:1022100079F3882483944BE6A42E41E0B42E56E053
:10222000952E87EB94E00E94F301181619060CF026
:10223000F3C187EB94E00E94D8022091AC04309166
:10224000AD04A9014F5F5F4F5093AD044093AC04C0
:10225000203831050CF0D3C1F901E455FC4F8A3028
:1022600009F0CBC11082E091AC034E2FEE0F550B5D
:10227000660B770BFA01E154F109E833F10508F038
:10228000B9C1EB59FF4F0C94F513233031051CF401
:102290008AE891E0B6C1C90102974091AE0450911D
:1022A000AF049C01240F351F213831052CF087E441
:1022B00091E00E945C0617C0AEEAB3E0445D5B4F5C
:1022C000FA012D9121939F01241B350B2817390703
:1022D000C4F32091AE043091AF04820F931F90930A
:1022E000AF048093AE048EE491E00E945C068BC143
:1022F000A1E9B1E0BF93AF931F9286E78F93A2E667
:10230000B1E0BF93AF931F930F930E945014C80185
:102310000E9486060FB6F894DEBF0FBECDBF73C114
:1023200061E070E082E716C1D801E92D1D92EA95BF
:10233000E9F7898241E0A1C0D801E92D1D92EA9513
:10234000E9F783E0898343E098C0D801E92D1D9225
:10235000EA95E9F78BE189834BE15A816B817C81B6
:102360008D819E810E942C0785E741C1D801E92D0E
:102370001D92EA95E9F78DE189834DE17EC0D80190
:10238000E92D1D92EA95E9F78EE18983DF92CF92DC
:102390005F924F92FF92EF920E9473148F89988DF3
:1023A000582F8A839B834981692F7C818D819E81EF
:1023B0000E942C0781E5B1C0D801E92D1D92EA9554
:1023C000E9F780E1898340E158C089E410C1D80170
:1023D000E92D1D92EA95E9F783E1898343E14DC038
:1023E0008EE405C10E948F07BC0183E6B3C01F9332
:1023F0000F93BF92AF92FF92EF920E947314698085
:102400007A8078A26F8EBE01615E7F4F80E290E09D
:102410000E94AB0BC3010E94EF0683E47EC0D8018B
:10242000E92D1D92EA95E9F78DE089834DE025C0FD
:102430001F930F935F924F92FF92EF920E9473143B
:1024400089819A81D801E92D1D92EA95E9F7FEE08C
:10245000F983582F8A839B834EE0692F7C818D817D
:102460009E810E942C0784E458C0D801E92D1D925A
:10247000EA95E9F7F0E2F98340E25A816B817C81C9
:102480008D819E810E942C07BEC01F930F935F9287
:102490004F92FF92EF920E94731489819A81D80122
:1024A000E92D1D92EA95E9F7F1E2F983582F8A8325
:1024B0009B8341E2692F7C818D819E810E942C0744
:1024C00084E52BC060918703709188038DE642C03C
:1024D0001F930F93BF92AF92FF92EF920E947314DB
:1024E00069817A8180E090E00E94300A8DE415C015
:1024F00060918B0370918C0381E62CC01F930F9326
:10250000BF92AF92FF92EF920E94731469817A8119
:1025100080E090E00E94FF0981E40E94BE060F90D7
:102520000F900F900F900F900F906DC088E75FC0D5
:1025300080919F039091A003A091A103B091A20369
:10254000BC01CD013FE095958795779567953A95C4
:10255000D1F78FE60E948C0656C01F930F935F92AF
:102560004F92FF92EF920E94731469817A81CB019E
:10257000770FAA0BBB0BBC01CD012FE0660F771FB5
:10258000881F991F2A95D1F70F900F900F900F90E9
:102590000F900F902091AB03222319F00E945E0A46
:1025A0001AC060939B0370939C0380939D03909348
:1025B0009E0360939703709398038093990390937D
:1025C0009A0360939F037093A0038093A103909359
:1025D000A2038092AB038FE40AC01E8E1D8EBE0143
:1025E000635E7F4F80E890E00E94AB0B89E50E941C
:1025F000BE0609C086E991E004C0808308C08DE969
:1026000091E00E9486061092AD041092AC041092E4
:10261000B4041092B30405CEA090AE04B090AF0401
:102620001092AF041092AE04A114B10471F1809124
:10263000B3049091B404892B41F583E0682E712C8A
:10264000812C912CE091B704F091B804B401645D41
:102650007B4F0280F381E02DA50187EB94E0099583
:10266000880E991EA81AB90A1A141B044CF089285E
:1026700061F481E090E09093B4048093B30405C0CA
:1026800021E0621A7108F1F6F2CF80E090E0892B28
:1026900009F4AECB0E940000A3CB019660E470E089
:1026A0000E94C21390933A0380933903B2CDE7EBB3
:1026B000F4E01382128288EE93E0A0E0B0E084831D
:1026C0009583A683B78389E391E0918380838FEF1D
:1026D0009FEF95878487E7E0F5E088E0818387E0D6
:1026E000828381E0838380E184831682158280E087
:1026F00090E8A0E0B0E08093270590932805A09390
:102700002905B0932A0580932B0590932C05A0935F
:102710002D05B0932E0580930E0590930F05A09381
:102720001005B093110580932F0590933005A09369
:102730003105B09332050895F999FECF92BD81BD60
:10274000F89A992780B50895262FF999FECF1FBAD8
:1027500092BD81BD20BD0FB6F894FA9AF99A0FBECA
:1027600001960895DB018F939F930E94FB13BF9105
:10277000AF91A29F800D911DA39F900DB29F900DD0
:102780001124089597FB072E16F4009407D077FDC7
:1027900009D00E94061407FC05D03EF4909581955F
:1027A0009F4F0895709561957F4F0895052E97FB73
:1027B0001EF400940E94ED1357FD07D00E941A14D6
:1027C00007FC03D04EF40C94ED13509540953095D2
:1027D00021953F4F4F4F5F4F08959095809570958D
:1027E00061957F4F8F4F9F4F0895EE0FFF1F05900C
:1027F000F491E02D09940E943C14A59F900DB49F84
:10280000900DA49F800D911D11240895AA1BBB1B40
:1028100051E107C0AA1FBB1FA617B70710F0A61BE0
:10282000B70B881F991F5A95A9F780959095BC0101
:10283000CD010895A1E21A2EAA1BBB1BFD010DC0FC
:10284000AA1FBB1FEE1FFF1FA217B307E407F50760
:1028500020F0A21BB30BE40BF50B661F771F881F3C
:10286000991F1A9469F760957095809590959B01D2
:10287000AC01BD01CF010895A29FB001B39FC0017B
:10288000A39F700D811D1124911DB29F700D811D9C
:102890001124911D089581E090E0F8940C945D1A44
:1028A000AEE0B0E0E6E5F4E10C94341A0D891E893F
:1028B00086E08C831A8309838FEF9FE79E838D8345
:1028C000AE01475E5F4F6F89788DCE0101960E9401
:1028D0008C142F813885F801E20FF31F10822E9699
:1028E000E4E00C94501AAEE0B0E0E9E7F4E10C94B7
:1028F000361A85E08C838B899C899A838983AE0103
:10290000495E5F4F6D897E89CE0101960E94DE1778
:102910002E96E2E00C94521AACE0B0E0E2E9F4E169
:102920000C94261A7C016B018A01FC011782168225
:10293000838181FFBDC1CE0101964C01F7019381D6
:10294000F60193FD859193FF81916F01882309F42E
:10295000ABC1853239F493FD859193FF81916F016D
:10296000853229F4B70190E00E947419E7CF512C09
:10297000312C20E02032A0F48B3269F030F4803228
:1029800059F0833269F420612CC08D3239F08033E4
:1029900039F4216026C02260246023C0286021C051
:1029A00027FD27C030ED380F3A3078F426FF06C0F7
:1029B000FAE05F9E300D1124532E13C08AE0389E3A
:1029C000300D1124332E20620CC08E3221F426FDEE
:1029D0006BC1206406C08C3611F4206802C08836B2
:1029E00041F4F60193FD859193FF81916F0181116F
:1029F000C1CF982F9F7D9554933028F40C5F1F4FC3
:102A0000FFE3F9830DC0833631F0833771F08335EE
:102A100009F05BC022C0F801808189830E5F1F4FDF
:102A200044244394512C540115C03801F2E06F0E38
:102A3000711CF801A080B18026FF03C0652D70E0F5
:102A400002C06FEF7FEFC5012C870E942B192C016C
:102A500083012C852F77222E17C03801F2E06F0EEC
:102A6000711CF801A080B18026FF03C0652D70E0C5
:102A700002C06FEF7FEFC5012C870E9420192C0147
:102A80002C852068222E830123FC1BC0832D90E01F
:102A900048165906B0F4B70180E290E00E9474191C
:102AA0003A94F4CFF50127FC859127FE81915F01CF
:102AB000B70190E00E94741931103A94F1E04F1A76
:102AC00051084114510471F7E5C0843611F089367C
:102AD00039F5F80127FF07C06081718182819381F8
:102AE0000C5F1F4F08C060817181072E000C880B9E
:102AF000990B0E5F1F4F2F76722E97FF09C090958E
:102B00008095709561957F4F8F4F9F4F2068722EF3
:102B10002AE030E0A4010E94C519A82EA81844C0DC
:102B2000853729F42F7EB22E2AE030E025C0F22F1F
:102B3000F97FBF2E8F36C1F018F4883579F0B4C014
:102B4000803719F0883721F0AFC02F2F2061B22EC7
:102B5000B4FE0DC08B2D8460B82E09C024FF0AC0BE
:102B60009F2F9660B92E06C028E030E005C020E116
:102B700030E002C020E132E0F801B7FE07C060811A
:102B80007181828193810C5F1F4F06C060817181CA
:102B900080E090E00E5F1F4FA4010E94C519A82E8F
:102BA000A818FB2DFF777F2E76FE0BC0372D3E7FBA
:102BB000A51450F474FE0AC072FC08C0372D3E7E86
:102BC00005C0BA2C372D03C0BA2C01C0B52C34FF78
:102BD0000DC0FE01EA0DF11D8081803311F4397EB4
:102BE00009C032FF06C0B394B39404C0832F867823
:102BF00009F0B39433FD13C030FF06C05A2CB31450
:102C000018F4530C5B18B32CB31468F4B70180E2CA
:102C100090E03C870E947419B3943C85F5CFB314BF
:102C200010F43B1801C0312C34FF12C0B70180E30F
:102C300090E03C870E9474193C8532FF17C031FD3B
:102C400003C088E790E002C088E590E0B7010CC0BF
:102C5000832F867859F031FF02C08BE201C080E2F9
:102C600037FD8DE2B70190E00E947419A51438F485
:102C7000B70180E390E00E9474195A94F7CFAA94A8
:102C8000F401EA0DF11D8081B70190E00E947419F2
:102C9000A110F5CF332009F451CEB70180E290E0C6
:102CA0000E9474193A94F6CFF7018681978102C089
:102CB0008FEF9FEF2C96E2E10C94421A20FD09C0A1
:102CC000FC0123FD05C022FF02C073836283518390
:102CD0004083089544FD10C046FD10C0DB01FC0197
:102CE000AA0FBB1FEE1FFF1F1094D1F76A0F7B1FA7
:102CF0008E1F9F1F31E003C033E001C034E0660F38
:102D0000771F881F991F3150D1F7620F711D811DE8
:102D1000911D08950F931F93CF93DF938C01C801EA
:102D20000E943619EC0197FD08C00E940C19892BEE
:102D3000B1F7B801CE010E94AC19CE01DF91CF915D
:102D40001F910F910895A1E0B0E0E9EAF6E10C943B
:102D50002C1A8C01C62E7A0129830E943619AC01E7
:102D6000552729814B32510521F04D32510569F427
:102D70002068CA94C11002C080E076C0C8012983CF
:102D80000E943619298197FDF7CF322F3D7FD32E30
:102D9000322F307349F5803339F5BB24BA94BC0C1B
:102DA00009F44EC0C80129830E943619298197FD74
:102DB00047C0382F3F7D383569F48D2D8264D82E79
:102DC000CA94CA94CC20E1F1C8010E94361997FF39
:102DD0000BC036C026FF04C02D2D2260D22E03C0AA
:102DE0003D2D3261D32ECB2C812C912C540120ED22
:102DF000280F283080F0D4FE04C0B8010E94AC191E
:102E00001CC02A3040F0D6FEF8CF2F7D3FEE320FA7
:102E1000363098F727504D2DC501B4010E946A162F
:102E20004B015C018D2D8260D82ECA94CC2059F0C4
:102E3000C8010E94361997FFDACFD1FC04C09CCF9D
:102E4000812C912C5401D7FE08C0B094A09490948A
:102E50008094811C911CA11CB11C2D2DB501A401D5
:102E6000C7010E945E1681E02196ECE00C94481A9E
:102E7000A1E2B0E0EEE3F7E10C942A1A5C017A01DA
:102E8000CE0101966C0180E2F60111928A95E9F774
:102E9000F501838040E050E0912C712C70E0A1E0BE
:102EA000B0E0F90183FC859183FE81918F01982F19
:102EB0009F01811103C080E090E07CC08E3519F441
:102EC0004115510549F1E72FF0E0E417F5073CF40F
:102ED0008D3559F18D3219F4772001F103C071104D
:102EE00001C0982E892F8695869586958601080FB4
:102EF000111D892F87703D0101C0660C8A95EAF784
:102F0000F801808186298083991559F0991510F46C
:102F10009F5FE8CF9150E6CF71E004C077247394AF
:102F200001C0712C4F5F5F4FBCCF772019F08E81AD
:102F300080628E83711103C09924939416C0F601A8
:102F40009E012F5D3F4F808180958193E217F307AB
:102F5000D1F7F2CFE114F10429F0F7018083C70122
:102F600001967C016150912CF9F0C50169A30E9482
:102F7000361969A197FD16C0282F26952695269506
:102F8000F601E20FF11D208130E0AC0147705527BA
:102F900002C0359527954A95E2F720FDDBCFB501B4
:102FA0000E94AC19911087CFE114F10411F0F701E0
:102FB0001082C801A196EEE00C94461A4F925F92DF
:102FC0007F928F929F92AF92BF92CF92DF92EF92B9
:102FD000FF920F931F93CF93DF931F92CDB7DEB76E
:102FE0006C012B015A01FC0117821682712CF6012B
:102FF000F380F201F3FC8591F3FE8191382F2F01CC
:10300000882309F4F3C090E039830E940C193981B8
:10301000892B21F0C6010E948A16E9CF353241F48E
:10302000F201F3FC3591F3FE31912F01353269F451
:10303000C60139830E943619398197FDD5C03817EA
:10304000B1F2B6010E94AC19D1C03A3239F4F3FCA6
:103050003591F3FE31912F0151E001C050E0420162
:1030600010E020ED230F2A3090F45260612F70E0C1
:1030700080E090E040E259830E946A16162FF40126
:10308000F3FC3591F3FE31914F015981EACF052FC1
:10309000232F240151FF03C0111102C0A7C01FEF4D
:1030A000383619F03C3659F011C0F401F3FC259183
:1030B000F3FE21912F01283649F4052F08600460A2
:1030C000F201F3FC2591F3FE21912F01222309F453
:1030D0008DC0622F70E08AE391E029830E94151968
:1030E0002981892B09F482C000FD07C0F501E08029
:1030F000F180C50102965C0102C0E12CF12C2E3654
:1031000051F4F6014681578160E070E0202FC7013D
:103110000E945E166CCF233691F401FF11E0C601C8
:103120000E94361997FD60C0E114F10429F0F701FF
:103130008083C70101967C01115089F751C02B355E
:1031400059F49201A701612FC6010E9438172C0182
:10315000892B09F045C03FC0C60129830E948A1609
:10316000298197FD41C02F3659F128F4243631F1D9
:10317000293649F127C0233769F02537F9F022C0F5
:10318000E114F10429F0F7018082C70101967C0166
:10319000115071F0C6010E9436194C0197FD08C00C
:1031A0000E940C19892B61F3B601C4010E94AC196D
:1031B000E114F104A9F0F701108212C0006203C00B
:1031C000006101C00064202FA701612FC6010E9489
:1031D000A316811105C0F6018381807329F406C00E
:1031E00000FD05CF739403CF772019F0872D90E071
:1031F00002C08FEF9FEF0F90DF91CF911F910F9142
:10320000FF90EF90DF90CF90BF90AF909F908F9006
:103210007F905F904F90089591110C94231A803203
:1032200019F089508550C8F70895FC0105900616DD
:1032300021F00020D9F7C00108953197CF010895FA
:10324000FC010590615070400110D8F78095909571
:103250008E0F9F1F0895FC01615070400190011076
:10326000D8F7809590958E0F9F1F0895CF93DF9389
:10327000EC012B8120FF33C026FF0AC02F7B2B835C
:103280008E819F8101969F838E838A8190E029C0E1
:1032900022FF0FC0E881F9818081082E000C990B74
:1032A000009719F420622B831AC03196F983E883C2
:1032B0000EC0EA85FB85099597FF09C02B81019611
:1032C00011F080E201C080E1822B8B8308C02E8147
:1032D0003F812F5F3F4F3F832E83992702C08FEF9F
:1032E0009FEFDF91CF9108950F931F93CF93DF93BB
:1032F000FB01238121FD03C08FEF9FEF28C022FF38
:1033000016C046815781248135814217530744F402
:10331000A081B1819D012F5F3F4F318320838C932A
:10332000268137812F5F3F4F3783268310C0EB0103
:10333000092F182F0084F185E02D0995892BE1F6DE
:103340008E819F8101969F838E83812F902FDF91A5
:10335000CF911F910F910895FB01238120FF12C08F
:1033600026FD10C08F3F3FEF930761F082832F7DD2
:1033700020642383268137812150310937832683B6
:10338000992708958FEF9FEF0895FA01AA27283013
:1033900051F1203181F1E8946F936E7F6E5F7F4F22
:1033A0008F4F9F4FAF4FB1E03ED0B4E03CD0670F9E
:1033B000781F891F9A1FA11D680F791F8A1F911DF1
:1033C000A11D6A0F711D811D911DA11D20D009F441
:1033D00068943F912AE0269F11243019305D319383
:1033E000DEF6CF010895462F4770405D4193B3E06C
:1033F0000FD0C9F7F6CF462F4F70405D4A3318F013
:10340000495D31FD4052419302D0A9F7EACFB4E0C3
:10341000A6959795879577956795BA95C9F700977B
:103420006105710508959B01AC010A2E069457951C
:10343000479537952795BA95C9F7620F731F841F73
:10344000951FA01D08959927882708952F923F92D0
:103450004F925F926F927F928F929F92AF92BF92A4
:10346000CF92DF92EF92FF920F931F93CF93DF9350
:10347000CDB7DEB7CA1BDB0B0FB6F894DEBF0FBEAD
:10348000CDBF09942A88398848885F846E847D84FA
:103490008C849B84AA84B984C884DF80EE80FD80FC
:1034A0000C811B81AA81B981CE0FD11D0FB6F89472
:0E34B000DEBF0FBECDBFED010895F894FFCF33
:1034BE00FFFFFFFF00E1000000000000190100C146
:1034CE0080810000000000000012021F0611024D54
:1034DE005F5F5F415F5F445F5F495F5F4E5F5F4F5E
:1034EE005F5F5F757800000000D2015402D402E8DD
:1034FE0001F301D802F602455252203031000A0083
:10350E0025633D2564002563204F4B00736572765D
:10351E00310025633D25730025633D257500256328
:10352E003D256C750025633D252E2A730025633DD0
:10353E00256C64004F4B20256300455252203034D9
:10354E0000322E3230004552522030330045525256
:0C355E00203032004552523A2025640013
:2070000055C000006EC000006CC000006AC0000068C0000066C0000064C0000062C0000043
:2070200060C000005EC00000F2C400005AC0000058C0000056C0000054C0000052C00000EE
:2070400050C0000078C000004CC000004AC0000048C0000046C0000044C0000042C00000BE
:2070600040C000003EC000003CC000003AC0000038C0000036C0000034C0000032C0000048
:2070800030C000002EC000002CC000002AC0000028C0000026C0000024C0000022C00000A8
:2070A00020C000001EC000001CC0000011241FBECFEFDAE0DEBFCDBF11E0A0E0B1E0E2E3BC
:2070C000FFE702C005900D92A83AB107D9F711E0A8EAB1E001C01D92AE3BB107E1F78FD30B
:2070E00026C78ECFF89410926F0010928100109285001092840081E085BF15BE47985D9AEB
:20710000289A0C94000008952091B2013091B3012F5F3F4F3093B3012093B201932F37FFA6
:2071200003C08EEF831B982F990F921710F447980895479A08951F920F920FB60F9211246E
:207140002F938F939F93EF93FF9310928500109284008091A8019091A901009741F00197D3
:207160009093A9018093A801892B09F45D9A8091AA019091AB01009741F001979093AB0126
:207180008093AA01892B09F4289AE0E0F0E0859194918F5F9F4F49F08091AC019091AD0151
:2071A00001969093AD018093AC01FF91EF919F918F912F910F900FBE0F901F90189584E0BC
:2071C0008093E9000DC08091E8008B778093E80003C08EB3882351F08091E80082FFF9CFBE
:2071E0008091E80085FFEFCF8091F1000895982F83E08093E9008091E80085FD0DC0809136
:20720000E8008E778093E80003C08EB3882369F08091E80080FFF9CF9093F1005D9884E6CB
:2072200090E09093A9018093A80108954F925F926F927F928F929F92AF92BF92CF92DF921E
:20724000EF92FF920F931F93CF93DF9384E08093E9008091E80082FF57C2289884E690E067
:207260009093AB018093AA01AADF182F853481F48CE49DE19093AD018093AC0107B600FC4B
:20728000FDCFF999FECF81E180935700E89503C0843519F494DF8DE00DC28C34E1F38035F9
:2072A000D1F3843721F484E4A2DF80E003C2813611F489E5FFC18134B1F481DF182F7FDFE3
:2072C00090E0880F991FAA2797FDA095BA2F312F330F20E0442737FD4095542F822B932B68
:2072E000A42BB52BB8C1803711F483E5E3C1833549F4C0E0D1E089917ADF21E0C730D20714
:20730000D1F7D9C1863521F481E371DF80E3D2C1833731F487E86BDF85E969DF8EE1CAC149
:207320008536B9F4E0E0F0E093E085E090935700E89507B600FCFDCF80935700E89507B65D
:2073400000FCFDCFE058FF4FA0E7E030FA0771F7A2CF823739F4E1E0F0E089E08093570024
:207360008491A8C1863439F4E0E0F0E089E08093570084919FC18E3439F4E3E0F0E089E0E5
:2073800080935700849196C1813539F4E2E0F0E089E08093570084918DC1823631F489E521
:2073A00026DF80E024DF80E885C1823419F0873609F0E5C01092AD011092AC0100DF082FE8
:2073C000FEDEF82EFCDE682E8554823008F071C1902F80E0CF2DD0E0C82BD92B10926F00B3
:2073E000173609F04BC081E180935700E895DD24CC24C3943FC0E090AE01F090AF010091CC
:20740000B0011091B101B6E46B16D9F4ED2DF0E0EE29FF29E4918E2FEADEDD2081F082E08D
:2074200090E0A0E0B0E0E80EF91E0A1F1B1FE092AE01F092AF010093B0011093B101DC2470
:2074400018C0D801C701B695A7959795879559D5CEDE82E090E0A0E0B0E0E80EF91E0A1FF2
:207460001B1FE092AE01F092AF010093B0011093B1012197209709F0BECF7DC08090AE01F5
:207480009090AF01A090B001B090B10196E4691609F05DC083E0F40180935700E89507B63E
:2074A00000FCFDCF54C0F6E46F1661F5772031F1E090AE01F090AF010091B0011091B1019E
:2074C0007EDED82ECC24852D90E08C299D29F7010C0140925700E895112482E090E0A0E08B
:2074E000B0E0E80EF91E0A1F1B1FE092AE01F092AF010093B0011093B10102C060DE582E1A
:20750000742423C0E090AE01F090AF010091B0011091B10116950795F794E79450DE682FFA
:20752000C701F7D48091AE019091AF01A091B001B091B1010296A11DB11D8093AE01909349
:20754000AF01A093B001B093B101219704C05524772444244394209709F0A5CF96E46916B6
:2075600041F485E0F40180935700E89507B600FCFDCF8DE03CDE82E080936F009CC0833492
:2075800071F40091AE011091AF0119DE90E021E0F8010C0120935700E89511247CCE8336C8
:2075A00019F5E090AE01F090AF010091B0011091B10105DEF701E16090E021E00C0120938C
:2075C0005700E895112482E090E0A0E0B0E0E80EF91E0A1F1B1FE092AE01F092AF0100936A
:2075E000B0011093B10157CE8D3661F4E091AE01F091AF0185E080935700E89507B600FCF2
:20760000FDCF49CE823551F4E091AE01F091AF0105911491812FEBDD802F4CC0843421F5FE
:20762000E090AE01F090AF010091B0011091B10116950795F794E794C2DD682FC70169D4DE
:207640008091AE019091AF01A091B001B091B1010296A11DB11D8093AE019093AF01A093D8
:20766000B001B093B10117CE843609F5E090AE01F090AF010091B0011091B101D801C70142
:20768000B695A795979587953CD4B1DD82E090E0A0E0B0E0E80EF91E0A1F1B1FE092AE010A
:2076A000F092AF010093B0011093B10104C08B3111F08FE39CDD83E08093E9009091E8002B
:2076C0008091E8008E778093E80095FF04C010C08EB38823C9F08091E80080FFF9CF809193
:2076E000E8008E778093E80003C08EB3882361F08091E80080FFF9CF84E08093E9008091F1
:20770000E8008B778093E800DF91CF911F910F91FF90EF90DF90CF90BF90AF909F908F90AC
:207720007F906F905F904F9008959091B601892F8F77813249F58091B7018032A1F081328A
:2077400019F5913A09F58091E800877F8093E8008DE091E067E070E00BD28091E8008B770B
:207760008093E8000895913279F48091E800877F8093E8008DE091E067E070E05DD2809192
:20778000E8008E778093E800089582E061EC42E0B5D083E061E842E1B1D084E060E842E1EF
:2077A000ADC084B7877F84BF88E10FB6F89480936000109260000FBE20E880E090E00FB63F
:2077C000F89420936100809361000FBE81E085BF92E095BF3F9A209A559AE1E6F0E02083A1
:2077E000108247985D9A289A109289008AEF8093880090936F0083E080938100F0C0409116
:20780000000850910108109201081092000894B714BE88E10FB6F8948093600010926000D5
:207820000FBE292F30E0F901E270F07091FD18C090FF05C0859194918F5F9F4F81F423FFFF
:207840000FC08091090190910A014817590741F0E0E0F0E0859194918F5F9F4F09F042DC64
:20786000A0DF78941092AD011092AC010CC0DEDC36D38091AC019091AD0181549F4110F00D
:207880001092140141DC80911401882381F78091E00081608093E00025DC80E090E0089598
:2078A000FA01923049F0933061F09130F9F485E191E022E130E01EC087E291E02EE330E04D
:2078C00019C0882329F485E691E024E030E012C0813029F489E691E022E230E00BC0823006
:2078E00029F48DE891E028E130E004C080E090E020E030E091838083C90108958093E9004E
:207900008091EB0081608093EB001092ED006093EC004093ED008091EE00881F8827881F62
:2079200008958091B60188238CF403C08EB38823B1F08091E80082FFF9CF8091E8008B772A
:207940008093E80008958EB3882349F08091E80080FFF9CF8091E8008E778093E800089594
:20796000EF92FF920F931F9345D04CD008ED10E0F80180818F77808380818068808380819B
:207980008F7D808319BC1EBA1092B40180EEE82EF12CF70180818B7F8083F8018081816052
:2079A000808380E060E042E0A9DFE1EEF0E080818E7F8083E2EEF0E0808181608083808144
:2079C00088608083F70180818E7F8083F8018081806180831F910F91FF90EF900895E7ED06
:2079E000F0E08081816080838AE482BF81E08093B501B6CFE8EDF0E080818E7F808310921C
:207A0000E20008951092DA001092E10008951F920F920FB60F9211242F933F934F935F93F6
:207A20006F937F938F939F93AF93BF93EF93FF938091DA0080FF1BC08091D80080FF17C0B2
:207A40008091DA008E7F8093DA008091D90080FF0BC080E189BD82E189BD09B400FEFDCF36
:207A600081E08EBB3BD203C019BC1EBA37D28091E10080FF17C08091E20080FF13C0809138
:207A8000E2008E7F8093E2008091E20080618093E2008091D80080628093D80019BC85E049
:207AA0008EBB1CD28091E10084FF2CC08091E20084FF28C080E189BD82E189BD09B400FEC5
:207AC000FDCF8091D8008F7D8093D8008091E1008F7E8093E1008091E2008F7E8093E20012
:207AE0008091E20081608093E2008091B401882331F48091E30087FD02C081E001C084E067
:207B00008EBBECD18091E10083FF21C08091E20083FF1DC08091E100877F8093E10082E06A
:207B20008EBB1092B4018091E1008E7F8093E1008091E2008E7F8093E2008091E2008061E9
:207B40008093E20080E060E042E0D8DEC7D1FF91EF91BF91AF919F918F917F916F915F9130
:207B60004F913F912F910F900FBE0F901F9018959C014091BC015091BD014617570718F49D
:207B8000F90190E044C06115710511F0AB01F8CF8091E8008E778093E80040E050E0F0CF0F
:207BA0008EB3882309F444C0853009F443C08091E80083FF02C081E008958091E80082FD70
:207BC00031C08091E80080FF22C08091F3009091F200782F60E0292F30E0262B372B07C07A
:207BE00081918093F100415050402F5F3F4F4115510519F02830310598F390E02830310566
:207C000009F491E08091E8008E778093E8004115510531F6992321F605C08EB3882341F075
:207C2000853041F08091E80082FFF7CF80E0089582E0089583E008959C016115710529F47C
:207C40008091E8008B778093E800F90126C08EB3882391F1853091F18091E80083FF02C06C
:207C600081E008958091E80082FFF1CF06C08091F10081936150704059F02091F300809191
:207C8000F200322F20E090E0822B932B892B79F78091E8008B778093E80061157105B9F601
:207CA00005C08EB3882341F0853041F08091E80080FFF7CF80E0089582E0089583E00895C2
:207CC0000F931F93DF93CF9300D0CDB7DEB7E6EBF1E08091F100819381E0EE3BF807C9F792
:207CE00024DD8091E80083FFE4C08091B6019091B701953009F46DC0963040F4913081F1A7
:207D0000913070F0933009F0D4C02AC0983009F4A3C0993009F4B2C0963009F0CAC07CC023
:207D2000803809F4C6C0823809F0C3C08091BA0187708093E9008091EB001092E9002091DB
:207D4000E800277F2093E80090E025E0969587952A95E1F781708093F1001092F10087C0D8
:207D6000882319F0823009F0A4C08F71823009F0A0C08091B801882331F52091BA01277097
:207D800009F497C02093E9008091EB0080FF1BC0933021F48091EB00806213C08091EB0018
:207DA00080618093EB0081E090E002C0880F991F2A95E2F78093EA001092EA008091EB00E5
:207DC00088608093EB001092E9008091E800877F51C0882309F06DC01091B8011F770FB79B
:207DE000F8948091E800877F8093E8009ADD8091E80080FFFCCF8091E3008078812B809398
:207E0000E30080688093E300112311F482E001C083E08EBB0FBF4DC08058823008F049C033
:207E20008091B8019091B9016091BA01AE014F5F5F4F36DDBC01009709F43BC08091E8008E
:207E4000877F8093E80089819A8192DE8091E8008B778093E8002DC0803859F58091E800AA
:207E6000877F8093E8008091B4018093F1008091E8008E778093E80054DD1BC08823C9F4CA
:207E80009091B8019230A8F48091E800877F8093E8009093B40145DD8091B401882331F420
:207EA0008091E30087FD02C081E001C084E08EBB6CDC8091E80083FF0AC08091EB0080624E
:207EC0008093EB008091E800877F8093E8000F900F90CF91DF911F910F91089508951F9360
:207EE0008EB3882361F01091E9001092E9008091E80083FF01C0E4DE17701093E9001F916F
:207F00000895F999FECF92BD81BDF89A992780B50895262FF999FECF1FBA92BD81BD20BDBD
:207F20000FB6F894FA9AF99A0FBE01960895F894FFCF4341544552494E4100777700080031
:207F40000000000000080112011001020000084123360001000201000109023E00020100FF
:207F600080320904000001020201000524001001042402040524060001070582030800FF0C
:207F800009040100020A000000070504021000010705830210000104030904220341007216
:207FA000006400750069006E006F0020004C0065006F006E006100720064006F0000001836
:1A7FC00003410072006400750069006E006F0020004C004C004300000000D7
:00000001FF
